:020000021000EC
:10B00000004000205D3F02009D3F02009F3F020084
:10B010000000000000000000000000000000000030
:10B02000000000000000000000000000A13F02003E
:10B030000000000000000000A33F0200A53F020046
:10B04000A73F0200A73F020065E20100A73F020000
:10B05000D1010200000000007DDC010051E501008B
:10B06000A73F0200A73F0200A73F0200A73F020040
:10B07000A73F0200A73F0200A73F0200A73F020030
:10B08000A73F020085CF0100A73F0200A73F0200B3
:10B0900061D00100A73F0200CD3E0200A73F0200A1
:10B0A000A73F0200A73F02000000000000000000D0
:10B0B0000000000000000000000000000000000090
:10B0C00010B5064C2378002B07D1054B002B02D07E
:10B0D000044800E000BF0123237010BD18250020A4
:10B0E00000000000245A020008B5084B002B03D0D2
:10B0F0000748084900E000BF07480368002B00D15B
:10B1000008BD064B002BFBD09847F9E70000000074
:10B11000245A02001C2500201425002000000000F5
:10B12000164B002B00D1144B9D46402292029A1AD6
:10B13000924600218B460F461348144A121A00F01B
:10B1400067F80F4B002B00D098470E4B002B00D018
:10B1500098470020002104000D000D48002802D06F
:10B160000C4800E000BF00F02DF82000290000F09E
:10B170008BFA00F011F8C0460000080000400020E3
:10B18000000000000000000018250020F43200201C
:10B190000000000000000000084B10B5041C002B4C
:10B1A00002D0002100E000BF054B1868836A002B25
:10B1B00000D09847201C00F033F8C0460000000083
:10B1C0008C5102000E4B70B500251E1C0D4CE41A6C
:10B1D000A410A54204D0AB00F35898470135F8E716
:10B1E00009F0C6FF084B00251E1C084CE41AA410E9
:10B1F000A54204D0AB00F35898470135F8E770BD7D
:10B200000C2500200C2500200C25002010250020F6
:10B21000031C8218934202D019700133FAE7704779
:10B22000FEE7C04674DF704776DF704778DF70470F
:10B230007ADF70477CDF7047A7DF70473CDF7047DD
:10B2400048DF70477047C04608B501F007FE08BDEB
:10B2500070B582B001F0D2FD01F0FAFA314C657898
:10B26000002D54D12378002B4AD10023A2790093DA
:10B27000023301936420013B002101F0D1FC01F075
:10B28000CBFD294B80B2041C984200D91C1CA4B2EF
:10B29000201C642108F088FE002605253030C2B24B
:10B2A0000123009601950C20182101F0B9FC201C07
:10B2B0000A2108F079FE0A2180B208F0FBFE303145
:10B2C000CAB20123009601953420182101F0A8FC90
:10B2D000201C0A2108F0EEFE3031CAB201231821E9
:10B2E0005C200096019501F09BFC01F02FFA0020F4
:10B2F00002F066FC211C0D4809F004F802B070BD94
:10B300000B4E3378002B07D101233370ADE750206B
:10B31000002101F09FFCA8E75020002101F09AFCD9
:10B320003570A2E7502A0020E7030000A451020074
:10B33000F420002008B50123034A0448117859403D
:10B34000117007F023FB08BDD42600200827002039
:10B3500010B51049104802F023FB104C81B223684D
:10B360000F480133236007F06BFA0823021C9A434D
:10B3700007D00C4B984204D00B4B984201D001F0FF
:10B380006DFD2068032108F095FE4B1E9941074B87
:10B39000197010BD54250020F8260020AC2500208F
:10B3A000082700200430000001340000E4200020C1
:10B3B00008B50A490A4802F0F3FAC1B2094806F092
:10B3C000B9FC0823021C9A4307D0074B984204D0CB
:10B3D000064B984201D001F041FD08BD582A0020DB
:10B3E00000270020B82500200430000001340000B0
:10B3F00010B5041C04F0FEF8201C06F085FB10BDFF
:10B4000030B5051C85B00C1C002A05D12378152BFE
:10B4100008D0002005B030BD101C01F01FFD2378BE
:10B42000152BF6D1174C113B281C01A9029303944C
:10B4300007F0DCFE00280AD12368DB070BD4281CA8
:10B4400007F034FF0028E4D001F008FDE1E70E4BDF
:10B450009842F9D1DDE70D4B0D4A18880C21FFF712
:10B46000EBFE0823021C9A43E9D00222094BC318C1
:10B470009343E4D01128E2D0074B9842DFD001F08B
:10B48000EDFCDCE7D025002040800000E620002015
:10B49000FFFF0000FECFFFFF0134000008B5124B94
:10B4A0001888124B984217D01321FFF7BDFE0028D1
:10B4B00016D1002005F032F800280AD106F044FD2C
:10B4C000002801D001F0CAFCFA20400002F078FB0D
:10B4D00008BD01F0C3FCF1E7FFF7A4FE0028E8D0A7
:10B4E00001F0BCFCE5E7C046E6200020FFFF0000BD
:10B4F00008B50378002B00D008BD054B3B21188808
:10B50000FFF792FE0028F7D001F0A8FCF4E7C04650
:10B51000E620002010B5041C08F000F8201C06F0FE
:10B520001BFD201C05F042FA0D48211C06F0DCFE34
:10B530002388102B09D0112B03D10122094B524231
:10B540001A80201C06F086FA10BD072004F0E6FFE2
:10B55000002801D001F082FCA288024B1A80F0E79B
:10B56000AC2A0020E620002008B5064B1B78002BF3
:10B5700007D00549054802F013FA81B2044807F0E4
:10B58000EBF908BDE420002020290020B025002090
:10B590000827002008B5002807D0032804D1013867
:10B5A00004F0BCFF00280DD108BD002004F0B6FF58
:10B5B00000280AD105F0EEF9002809D1FFF73EFE78
:10B5C0000028F1D001F04AFCEEE701F047FCF1E77A
:10B5D00001F044FCF2E7C04630B589B001A8021C76
:10B5E0001F4B32CB32C21F4B1F4A049380235B0098
:10B5F00005930692079304A91C4AFD3B02F054FAF6
:10B60000002801D001F02AFC0A200C2100F072FC75
:10B610003C210022022000F091FC012002F0D0FA2F
:10B6200001F016F901F092F8012002F0C9FA01F0D8
:10B63000F9FB082200210E48FFF7EAFD0D490E48EC
:10B6400008F060FE01210D4A0D4801F09FFF8021A6
:10B65000002209020B4801F0B3FF09B030BDC0461B
:10B6600090510200D42500205029002045B201004D
:10B67000502A0020DC510200D851020051B20100D2
:10B680001052020030290020F0B500209FB00521A3
:10B69000C24A002301F008FF002801D001F0DEFBC0
:10B6A000BF480121BF4A01F071FF002801D001F01D
:10B6B000D5FBBD480121BD4A01F068FF002801D03B
:10B6C00001F0CCFBBA480121BA4A01F05FFF002823
:10B6D00001D001F0C3FBB8480121B84A01F056FF80
:10B6E000002801D001F0BAFBFFF776FFB44905ADA1
:10B6F0000C310422281C08F0E8FD281CB14948221E
:10B70000002308F091FB002801D001F0A7FB0EAC4C
:10B7100000200121221C08F0F1FB002801D001F0DB
:10B720009DFB0123227BA8481343237308F0FEFBF3
:10B73000002801D001F092FB201C08F001FC002839
:10B7400001D001F08BFBA14808F0ACFB002801D030
:10B7500001F084FB9E4808F0AFFB002801D001F007
:10B760007DFB00232B7004F031F8002801D001F09C
:10B7700075FB281C07F0E0FB002801D001F06EFBF0
:10B780003D20002105226844FFF742FD0123627934
:10B79000904E1A4381231A40302313437F221340D3
:10B7A00063710723A3710933E3718B4B301C0E9334
:10B7B0000123211C237107F065FC002801D001F052
:10B7C0004DFB0F2101222B78844F8B431343102212
:10B7D0000B401343381C2B7008F0AEFD391C82B2AD
:10B7E000281CFFF727FD002801D001F037FB7C481B
:10B7F000FFF71CFD002801D001F030FB201C0021C8
:10B800000822FFF705FDA0235B002380C833638077
:10B810000023A3809133FF33201CE380FFF708FD52
:10B82000002801D001F01AFB00213822201CFFF76C
:10B83000EFFC022323700433E370033B2382694B44
:10B84000012263610023A270EB602A732C32FF3265
:10B850002A61783A6B60AB60AB61EB612B626A6125
:10B8600005930093201C00212A1C5F4B05F0EEFE7F
:10B87000002801D001F0F2FA00211422281CFFF761
:10B88000C7FC0F21012210206B7B8B4313430B401D
:10B8900003436B73AB7B8B4313430B400343AB738B
:10B8A0000023EB732B7C8B431A43002311400122AE
:10B8B000014329740593AB604C486433291C2A71F9
:10B8C0002B7306F049F9002801D001F0C7FA402295
:10B8D0000021201CFFF79CFC454D201C291C07F073
:10B8E0005FF810A8291C07F05BF83C210F2001220B
:10B8F000635C8343134310220340134363540022C9
:10B900003D23201CE25406F023FE002801D001F064
:10B91000A5FA02AD0021281C0C22FFF779FC354B5B
:10B9200035486B600023291CAB6001332B8006F087
:10B9300071FB002801D001F091FA304801F0F4FFCA
:10B94000307801F0F7FF1C22201C0021FFF760FC7B
:10B95000A02292026260F0221203A260032200235E
:10B960002273274A0E9392892374264B201C63610D
:10B97000254BE281A36106F0ABFA002801D001F06B
:10B980006DFA032005F006FF002803D1FFF758FCED
:10B990000028FBD001F062FAF8E7C04658270020E3
:10B9A0000C520200B1B301001452020051B3010065
:10B9B0001852020069B50100A051020035B3010020
:10B9C0009051020064250020E81F002015B50100F9
:10B9D000F1B30100882A002001B40100E8510200FF
:10B9E00041030000E820002095B50100B8250020A3
:10B9F000F8510200D5D70100AC2A00209DB4010007
:10BA000008270020F1B4010049B20100F0B55F46FB
:10BA100056464D464446F0B483B0002800DA30E183
:10BA2000041C9A4D14192D882EB2B44201DD2A1A35
:10BA300012B2002A00DC99E0CC17640F6418E410FD
:10BA4000E4010019924CA346251807242140063C26
:10BA50008C40E1B28A46012B00D11BE1002B00D1C2
:10BA60008BE0022B00D081E0032194B2671EBFB2AD
:10BA70003BB298466B420B40A4469C4200D996E1EB
:10BA800063466946CB80CB88042A00DD9CE1231CF9
:10BA900051466A1C94462A784A402A707A1E92B20D
:10BAA00011B28846012B1ED05646A91C8C466978D7
:10BAB000013A714092B2697011B28846022B12D0DD
:10BAC000E91C8C46A978013A714092B2A97011B272
:10BAD0008846042B07D1013A12B29046291D8C46A4
:10BAE000E9787140E9709C4240D0E41AA4B2221F68
:10BAF00092B2920801329500FF1AA9B2BFB28946EC
:10BB0000022F1CD9C018534658441D02061C281C7D
:10BB10001F0418431D063843284300230025775986
:10BB20000133474077519FB204359742F7D34346DC
:10BB30004A469A1A13B2CC4498464C4516D06346EE
:10BB400052461B785340624613704346002B0DD07B
:10BB5000537852465340624653704346012B05D0FA
:10BB6000634651469B7859406346997003B03CBC8C
:10BB700090469946A246AB46F0BD94B2671EBBB252
:10BB80000327C9439A461BB298466B423B40C9B251
:10BB90009C46A34200D901E163466E46F380F388D8
:10BBA000042A00DD15E1231C6A1C94462A780A4009
:10BBB0002A705246013A92B217B2B846012B1DD0F4
:10BBC000AF1CBC466F78013A0F4092B26F7017B24B
:10BBD000B846022B12D0EF1CBC46AF78013A0F409A
:10BBE00092B2AF7017B2B846042B07D1013A12B225
:10BBF00090462F1DBC46EF780F40EF70A342B5D0A2
:10BC0000E41AA4B2221F92B2920801329500ADB29A
:10BC1000A9465546EF1ABFB2022F1CD9C018584486
:10BC20000D02061C281C0F0408430D063843284348
:10BC30000023002577590133074077519FB204351F
:10BC4000BA42F7D843464A469A1A13B2CC449846A9
:10BC50004C4500D18AE7634662461B780B4013705F
:10BC60004346002B00D181E753780B405370434685
:10BC7000012B00D17AE763469B781940634699709F
:10BC800074E7821812B200240020CAE6DC2A0020E1
:10BC9000F8200020032497B27B1E9BB29C461BB267
:10BCA00098466B4223403C1C9F4272D8A4B2042A9F
:10BCB00000DD85E03C1C51462B786A1C0B432B7041
:10BCC0006346013B9BB219B28846012C1BD05646F5
:10BCD0006978013B31439BB2697019B2AA1C88464E
:10BCE000022C10D0A978013B31439BB2A97019B244
:10BCF000EA1C8846042C06D1013B1BB29846E97821
:10BD00002A1D3143E970A74200D12FE73F1BBFB284
:10BD10003D1FADB2AD080135AB009BB299466346FD
:10BD20001B1B9BB2022B20D95346514600191B0204
:10BD300058440B43061C181C0C040B0604431C43FC
:10BD4000A446002300206446F15801300C43F4500F
:10BD500084B20433AC42F6D3434649465B1A1BB265
:10BD60004A4498464F4500D100E7514613780B43AB
:10BD700013704346002B00D1F8E653780B43537001
:10BD80004346012B00D1F1E6514693781943917057
:10BD9000ECE61C1CA4B2042A8CDD11E0A4466E461D
:10BDA0006346F380F388042A00DCFCE611E09C463D
:10BDB00069466346CB80CB88042A00DC67E603E053
:10BDC0002A1C002CA2D076E7AC46002B00D18CE6D2
:10BDD0005EE6AC46002B00D112E7E5E670B500291F
:10BDE00058DB0C1C3F4D14192D882EB2B44201DDD6
:10BDF0006A1A12B2002A1ADDC9B2CC08E40120186E
:10BE0000394CD2B22018072421401FD00824611ACF
:10BE1000364CC9B2645C8A420AD2FF258E1A35417B
:10BE20002C40012B3FD0002B41D0022B06D070BDFF
:10BE3000012B38D0002B3AD0022B04D105786C406E
:10BE400004708A42F3D3521AD2B28030072A13D92F
:10BE5000022B34D05C1E61424C41111C0839C9B21E
:10BE6000C90801316442C901E4B24118047080304C
:10BE70008842FBD107210A40002AD8D01C498A5C9D
:10BE8000012B18D0002B0AD0022BD0D103785A40B6
:10BE90000270CCE78A1812B200240021A2E70378CE
:10BEA00093430370C3E705782C430470C9E7057812
:10BEB000A5430570C5E703781A430270B7E7111C64
:10BEC0000839C9B2C9080131C90141180378DB43F7
:10BED000037080308842F9D107231A40A7D0044B61
:10BEE0009A5CD3E7E42A0020F820002020570200C3
:10BEF000285702003C220E4B10B51A700D4B3B3AEE
:10BF00001A70CC2384B05B046A46029303230A4C64
:10BF1000137300900191201C69460022002303F056
:10BF200027FF002802D1201C04F012F804B010BD35
:10BF3000E62A0020E02A00201C520200F0B5474605
:10BF4000CE4D80B4297000210124CD4B061C187001
:10BF5000CC4800230180CC4884B00180CB49CC4838
:10BF60000C70012149420180CA480180CA49CB486E
:10BF70000C70CB490B7080210180CA480180CA48EF
:10BF800040390180C9480180C9490B70002A00D09E
:10BF9000ACE1C84C2378002B00D09BE12378002B28
:10BFA00000D08BE12378002B00D05AE12378002BBE
:10BFB00000D04AE12378002B00D03AE12378002B0F
:10BFC00000D02AE12378002B00D01BE12378002B3E
:10BFD00000D00BE12378002B00D0FBE02378002B6E
:10BFE00000D0ECE02378002B00D0DCE02378002B9D
:10BFF00000D0CCE02378002B00D0BCE02378002BCD
:10C0000000D0ACE02378002B00D089E02378012E0B
:10C0100000D194E0002B00D085E12378002B00D0E4
:10C0200090E12378002B00D09BE12378002B6BD18B
:10C030002378002B5CD12378002B44D12378012E68
:10C040004FD0002B00D062E12378002B2FD1237832
:10C05000002B20D12378002B11D12378002B0AD07C
:10C060000023AF2103AA13705170934829780093DD
:10C07000023303F07FFF04B004BC9046F0BD002300
:10C08000A62103AA137051708B48297800930233BC
:10C0900003F070FFE1E70023A42103AA137051709D
:10C0A000854829780093023303F064FFD2E7002328
:10C0B0002E2103AA137051707F4829780093023310
:10C0C00003F058FFC3E700238D2103AA13705170BA
:10C0D000794829780093023303F04CFF2378012E2E
:10C0E000AFD1002BB0D0002303AA1370102112E1AE
:10C0F0000023302103AA137051706F4829780093F0
:10C10000023303F037FF96E70023DB2103AA137005
:10C110005170694829780093023303F02BFF87E7B9
:10C120000023812103AA137051706348297800937A
:10C13000023303F01FFF2378012E00D06AE7002BA3
:10C1400000D026E12378002B00D016E12378002BC5
:10C1500000D16AE7002303AA1370222105E100231E
:10C16000122103AA137051705348297800930233A7
:10C1700003F000FF46E70023DA2103AA1370517091
:10C180004D4829780093023303F0F4FE36E700238C
:10C19000C02103AA137051704748297800930233D5
:10C1A00003F0E8FE26E70023A02103AA13705170D4
:10C1B000414829780093023303F0DCFE16E70023A0
:10C1C00003AA1370537029783B480093023303F09D
:10C1D000D1FE07E70023202103AA137051703648CF
:10C1E00029780093023303F0C5FEF7E600234021CF
:10C1F00003AA13705170304829780093023303F07A
:10C20000B9FEE7E6002303AA1370537029782A4881
:10C210000093023303F0AEFED8E60023D32103AA35
:10C2200013705170244829780093023303F0A2FE62
:10C23000C8E600233F2103AA137051701E482978D5
:10C240000093023303F096FEB8E60023A82103AA68
:10C2500013705170184829780093023303F08AFE56
:10C26000A8E60023802103AA137051701248297890
:10C270000093023303F07EFE98E6C046E62A0020D3
:10C28000E92A0020EC2A0020EE2A0020E82A0020DB
:10C29000F02A0020E22A0020E1320020DC2A0020DF
:10C2A000E0320020DE2A0020E42A0020EA2A0020D2
:10C2B000E72A0020E02A00201C5202000023D5219A
:10C2C00003AA13705170394829780093023303F0A0
:10C2D00051FE67E60023AE2103AA13705170334864
:10C2E00029780093023303F045FE57E6A123A027E7
:10C2F000DB009846FF05FC50012001F061FC2C4B4F
:10C300000A20FC5001F05CFC4346FC5041E600234F
:10C31000142103AA13705170297824480093023322
:10C3200003F028FE90E60023CF2103AA137051707A
:10C330001E4829780093023303F01CFE2378002B5B
:10C3400000D16EE60023D92103AA1370517017485B
:10C3500029780093023303F00DFE2378002B00D1DF
:10C3600063E60023F12103AA1370517029780F4866
:10C370000093023303F0FEFD57E60023D92103AA00
:10C3800013705170094829780093023303F0F2FDCD
:10C39000DCE600239F2103AA13705170034829781B
:10C3A0000093023303F0E6FDCCE6C0461C520200C7
:10C3B0000C05000010B500282EDB304B00241B5F5D
:10C3C000834229DD002927DB2D4B00241B5F8B4294
:10C3D00022DD2C4B1B78022B1FD0032B28D0012BE6
:10C3E00005D1294B1B88013B5B1A011C18B2012A9D
:10C3F00035D0002A23D0022A0ED1CB175B0F5B1851
:10C40000DB10DB01C01807231940063B8B40191CC9
:10C410001E4A135C5940115410BD1B4B1B88013B35
:10C42000181A1B4B00B21B88013B591A09B2DEE7F0
:10C43000174B1B88013B1B1A081C19B2D7E7CB17F7
:10C440005B0F5B18DB10DB01C01807231940063BAC
:10C450008B40191C0D4A135C8B431354DCE7CB173C
:10C460005B0F5B18DB10DB01C018072319408A4003
:10C47000064C215C0A432254CEE7C046DE2A002047
:10C48000EA2A0020E72A0020DC2A0020F8200020E9
:10C49000E42A0020F0B54D465F4656464446F0B4C7
:10C4A00091B003931AAB1B8804931BAB1B781D1C24
:10C4B000AC4605935B0063445B00C318002B00DCB3
:10C4C000B0E0EB00CB18002B00DCABE09A4B1B7804
:10C4D000002B00D126E193009B180E9306230B93AB
:10C4E00000230A936B469B8A9A46574683B20C9365
:10C4F0008BB20F9308339BB206936B4628229B188E
:10C500001B785BB2052B00D112E10E998B4A8C4649
:10C510006244D25C01920C9A9BB294460D937B4389
:10C5200063449BB209931BB29C46059A07930F9BE9
:10C530006244161C9A469B460293019BDB0700D47B
:10C540007FE0059B012B00D1D4E053466A4653841B
:10C55000538C9846079BB34245DA794B09981D786E
:10C56000784B994617E0032D24D0012D61D0434626
:10C5700084B200B2002809DB4A460021525E8242A2
:10C5800004DD19B23AB2039BFFF728FC0134A0B2D4
:10C5900003B2B34227DA022DE5D15246694B84B289
:10C5A0001888694B01381B88001BDB1B9B1A80B263
:10C5B0009BB2DEE7644B84B2188843460138001B07
:10C5C00080B201B20029E1DB5F4A0020125E8A429C
:10C5D000DCDD18B23AB2039B0134FFF717FAA0B2C0
:10C5E00003B2B342D7DB019B5B080193029B01338B
:10C5F0009BB21A1C02935B46DB199BB29B465346C7
:10C60000DB199BB29A46131E069A934295D10A9B58
:10C610000133DBB20A930B9B013BDBB20B93002B84
:10C6200000D06AE711B03CBC90469946A246AB46A2
:10C63000F0BD5246434B84B21B88DB1B9B1A9BB256
:10C64000BFE7039B049A9342CDD0059B012B5DD09D
:10C650005B466A465384538C9846079BB342C2DAC2
:10C66000374B09981D78384B994617E0032D39D080
:10C67000012D22D0434684B200B2002809DB314AA2
:10C680000021525E824204DD19B23AB2049BFFF7E8
:10C69000A5FB0134A0B203B2B342A4DA022DE5D166
:10C6A000284B84B218884B465A461B880138DB1B3E
:10C6B000001B9B1A80B29BB2DEE75A46214B84B224
:10C6C0001B88DB1B9B1A9BB201B20029E1DB1E4ACF
:10C6D0000020125E8A42DCDD18B23AB2049BFFF7FA
:10C6E00095F9D6E7184B84B2188843460138001BE9
:10C6F00080B2E9E70C9A0D9B9446634418B26B46EE
:10C70000039A0821595EFFF755FE6CE70C9A0D9BC2
:10C710009446634418B26B46049A0821595EFFF7A9
:10C7200049FE60E7AF2A00D8D5E60132D2B2D2E6A0
:10C7300000220192EFE6C046E032002024520200BF
:10C74000E72A0020DC2A0020E42A002030B53B4CF8
:10C7500085B02378002B64D12378002B55D1237822
:10C76000002B45D12378002B35D12378002B26D1FF
:10C770002378002B16D12378002B11D00123304CC5
:10C78000304D314A2978201C009303F0F3FB00233D
:10C79000297800938023201C2C4ADB0003F0EAFB5D
:10C7A00005B030BD0721002303AA5170254913703D
:10C7B000097823480093023303F0DCFBDBE7002316
:10C7C000204903AA1370537009781D48009302335F
:10C7D00003F0D0FBCCE72221002303AA51701949B2
:10C7E0001370097816480093023303F0C3FBBCE7CB
:10C7F0007F21002303AA5170124913700978104851
:10C800000093023303F0B6FBACE700230D4903AA03
:10C810001370537009780A480093023303F0AAFB9F
:10C820009DE72121002303AA51700649137009785E
:10C8300003480093023303F09DFB8DE7E02A0020BC
:10C840001C520200E62A0020F8240020F8200020D4
:10C85000802208B502480021D200FEF7D9FC08BDAD
:10C86000F820002038B51C4C2478022C23D0032C4F
:10C870001BD0012C07D0002904DB184C0025645F75
:10C880008C4225DC38BD164C2488013C611A041CFE
:10C8900009B20029F6DB12480025405F8842F1DD2D
:10C8A000081C211CFFF79AFAECE70C4C2488A41A08
:10C8B000201A04B2EDE7094C2488013C611A084CA7
:10C8C00009B22488A41A201A00B20029D5DAD9E7BF
:10C8D000FFF79CF8D6E7C046E72A0020E42A0020AC
:10C8E000DC2A002038B51C4C2478022C23D0032CE1
:10C8F0001BD0012C07D0002804DB184C0025645FF6
:10C90000844225DC38BD154C2488A41A611A041C05
:10C9100009B2002CF6DB12480025405FA042F1DD91
:10C92000081C211CFFF772F8ECE70D4C2488013C31
:10C93000201A04B2EDE7094C2488013C201A084C67
:10C9400000B22488A41A611A09B20028D5DAD9E7FE
:10C95000FFF744FAD6E7C046E72A0020DC2A002089
:10C96000E42A0020F0B55F4656464D464446F0B4F2
:10C970008DB01D1C16AB0E1C00215B5E814608931A
:10C9800017AB1F88031C68468380838892B29A463F
:10C99000038C0392181C099353449CB20294C40361
:10C9A000241A6400A4B2A3186A460820105E311C41
:10C9B000834618B280463B1C58464246ADB2FFF74C
:10C9C00051FFB6B26B1EF31898B201B20B904246FB
:10C9D00058463B1CFFF746FF099B65199C466B4672
:10C9E0006644B0B2019004269E5F2DB24846311CC9
:10C9F0002A1C3B1CFFF776FF039A311C524492B26B
:10CA0000501E04923B1C2A1C00B2FFF76BFF01234F
:10CA100009995B1A9AB208999346A2B20A92002920
:10CA200000DCF5E0002301989946431E9BB2069373
:10CA30003B1C0C1C5F4698469246029A013A0592AE
:10CA40003BB2002B08DB534602339BB29AB29246AC
:10CA5000013CDF1924B2BFB24B466A4693819589E7
:10CA6000A6B26B000333FF18029B4246981B069B3D
:10CA700000B2591B09B2FFF79DFC059B4246581BAB
:10CA8000019B00B2991B09B2FFF794FC01239C465D
:10CA900001352DB2BFB2E144AC42D1DC049A099B0E
:10CAA0009446DB4347460A9A63449BB29246089AEF
:10CAB000039301339046049300223B1C4446914665
:10CAC0005F4698463B0408D4534602339BB29AB261
:10CAD0009246013CDF1924B2BFB24B466A469383AB
:10CAE000958BA6B26B000333FF18049B4246E818EF
:10CAF000019B00B2991B09B2FFF75CFC039B424605
:10CB0000F018069B00B2591B09B2FFF753FC012332
:10CB10009C4601352DB2BFB2E144AC42D2DC099A49
:10CB20000B9B47469B1A9BB29A460A9B5C461A1C73
:10CB3000089B0794984600239946534601339BB2BD
:10CB400001933B1C9346271C444698463B0408D45B
:10CB50005B4602339BB29AB29346013CDF1924B282
:10CB6000BFB24B466A461383158BA6B26B000333E4
:10CB7000FF18049B4246E8185346F11800B209B268
:10CB8000FFF718FC039B42469819019B00B2E91875
:10CB900009B2FFF70FFC01239C4601352DB2BFB24D
:10CBA000E144AC42D2DC0025079B2F1C1D1C0A9BD4
:10CBB000C1469B46099B089E98462BB2002B0ADB78
:10CBC0005B46013E02339BB236B29AB25D19B3B2F4
:10CBD00093469846ADB24246BCB263000333ED18AB
:10CBE000029BADB2981A019B00B2E11809B24A4605
:10CBF000FFF7E0FB4146059B5144181B013400B28E
:10CC000009B24A4624B2FFF7D5FB0137A642D4DC6D
:10CC10000DB03CBC90469946A246AB46F0BDC0461E
:10CC2000F0B583B008AC268809AC2578074C0027FE
:10CC3000E45F844208DD064C0027E45F8C4203DD9C
:10CC400000960195FFF726FC03B0F0BDDE2A002018
:10CC5000EA2A0020031C0233DBB2F0B545469846B1
:10CC60000E2357464E469946E0B4574F82B082464F
:10CC70000E1CB9440D1C4CE0691C6400C9B2E4B23E
:10CC80008B1B0E2B56D063B2002B6BDBA91C6400F0
:10CC9000C9B2E4B28B1B0E2B4CD063B2002B68DB05
:10CCA000E91C6400C9B2E4B28B1B0E2B42D063B204
:10CCB000002B65DB291D6400C9B2E4B28B1B0E2B6F
:10CCC00038D063B2002B62DB691D6400C9B2E4B2E4
:10CCD0008B1B0E2B2ED063B2002B5FDBA91D6400D3
:10CCE000C9B2E4B28B1B0E2B24D063B2002B5CDBE9
:10CCF000E91D6400C9B2E4B28B1B0E2B1AD0002CC4
:10CD00005AD10835EDB2AB1B0E2B13D001374F456E
:10CD100018D03C7863B2002BAEDA434629B218B281
:10CD20000122FFF747FB691C6400C9B2E4B28B1B08
:10CD30000E2BA8D143460133DBB201379846351C90
:10CD40004F45E6D1534618B2012331B20093019307
:10CD50000C220F33FFF706FE02B01CBC904699462A
:10CD6000A246F0BD434609B218B20122FFF722FBEA
:10CD70008CE7434609B218B20122FFF71BFB8FE78D
:10CD8000434609B218B20122FFF714FB92E743466B
:10CD900009B218B20122FFF70DFB95E7434609B22D
:10CDA00018B20122FFF706FB98E7434609B218B212
:10CDB0000122FFF7FFFA9BE7434609B218B20122AE
:10CDC000FFF7F8FA9DE7C0463057020010B5037828
:10CDD000002B0ED10289002A0CD04368520098180B
:10CDE00000220024195F023352188342F9D1024B0A
:10CDF0001A6010BD0022FAE7E432002008B50548A9
:10CE0000012101F03BFB002801D000F027F801F0E0
:10CE10002FFB08BDF42A0020014B186880B2704730
:10CE2000E4320020032300B583B001A80949037050
:10CE300001F0ECFA002801D000F010F81C2206489E
:10CE40000378934308221343037001F0FFFA03B001
:10CE500000BDC046CDCD0100FC240020002300B55C
:10CE600085B001AA9060002103481380536000F050
:10CE700005F805B000BDC04601400000BFF34F8F6C
:10CE8000034A044BDA60BFF34F8FC046FDE7C0464C
:10CE90000400FA0500ED00E010B500290DD00923CB
:10CEA000002A01D1181C10BD541E2240FAD1826004
:10CEB00001608480C2600023F4E70E23F2E7C046DD
:10CEC000031C10B59C888068DA68121A042094420A
:10CED00000D210BDDA68002014401A681155DA68D3
:10CEE0000132DA60F5E7C04610B58468C268031CF9
:10CEF0000520944209D098689A8802401868825C9C
:10CF000000200A709A6801329A6010BD8021802347
:10CF1000184A8902D1508022D221174B520289002F
:10CF20005A5040395A5001222F205A600138C046C9
:10CF3000C046C046C046C046C046C046C046C046C1
:10CF4000C046C046C046F1D19A6000230B4A2F204C
:10CF500013600138C046C046C046C046C046C04601
:10CF6000C046C046C046C046C046C046F1D1044A8D
:10CF70001370704700E100E000100140F82A002023
:10CF8000182B0020A021F0B5002347462B4A49006A
:10CF900080B4535004315350043153500431535032
:10CFA0004C39535004315350254B1B68002B35D05E
:10CFB0002449002652582449244F0C68141B00228F
:10CFC0002402240A904602E0002D18D02B1C1A6877
:10CFD000A24214D8A41AB6181A7CDD69002AF3D02C
:10CFE000424699691A745A693B68002B19D0101C83
:10CFF00098470028E8D0FFF731FF002DE6D1144B09
:10D0000014491A780B789A420ED0134A9B009E500E
:10D0100080218023114A49035B00D15004BC904613
:10D02000F0BD081C9047CFE70132D3B2022B01D0EC
:10D030000B70EAE700230B70E7E7C04600100140E1
:10D04000FC2A002004050000F82A0020002B002004
:10D050000C2B00200D2B0020102B002000E100E005
:10D06000F0B55F4656464D464446F0B4B44BB54A1B
:10D070001B68B54989B0019309781378994200D1AA
:10D08000B1E10133DBB2022B00D100231370AF4AB0
:10D090009B009B58AA4A9946019B4B441B021B0AC2
:10D0A000136001230493AA4B00241B689B46A94BE1
:10D0B000D8461B781A1C0293A74B944607931B680B
:10D0C00003939F4B1B680693A44B1B7805935B4609
:10D0D0006646013EF2B29446FF2A4FD06246D00027
:10D0E000039A9246504401784578A942F0D04A000C
:10D0F0005218877801314668C9B27F1AB2467E1E3F
:10D10000B741D2007F42524439401778022F0AD0EB
:10D11000032FEAD1002BE8D01C74DB69002BFBD174
:10D1200045789846E1E75668002B25D09E421AD0F4
:10D130001F1C00E0171CFA69002AD6D09642F9D1CC
:10D14000321C3D1CBE4200D1EBE01768D269EA6197
:10D15000002A06D013689A4657441760457843461C
:10D16000C3E74578C1E7DE691A1C002E00D1DDE077
:10D17000B046331C151CE8E70023B6E76946774A3A
:10D18000097D181C11706E4A06990393116041467F
:10D190006F4A1160049A002A00D028E15B461B1AEE
:10D1A0005A1E93410025DBB20493079B00271B689E
:10D1B000039E0693624B1B689C46654B1B689A4610
:10D1C000664B1B780593664B019301239846029B9F
:10D1D000013BDBB20293FF2B00D18FE0069ADB000C
:10D1E00093469B44002D27D06968AB68281CED69E5
:10D1F0006246019C8A1A1202120AA24250D8D3181F
:10D2000042460360476087600274C761002E56D0B3
:10D210003168341C994204D35FE01168994263D2AB
:10D22000141CE2695B1A002AF7D10360331CC26147
:10D23000E0611E1C002DD7D15B465A461B78527800
:10D240009A42C4D0594649685A0089465946D2186C
:10D250000133DBB20B708978D2004A4499424AD03C
:10D2600011785068331C0129E3D1037C9946494663
:10D27000331C0029DDD191684160D3688360146953
:10D28000C46052698261059A002AB1D04A460021E1
:10D2900042606246019C8A1A1202120AA242AED968
:10D2A0006246511A0902090A99420CD242465B1A97
:10D2B0000360476087600274C761002EA8D1031C19
:10D2C00082461E1CB6E743460760476087600374CA
:10D2D000C761002EF3D000233168CB1A3360031CE2
:10D2E000C66182461E1CA5E7C91A11600360C261AF
:10D2F000331CE0619DE75B461D70B1E75246144B5D
:10D300001A60039BB3422FD1049B002B2CD1002326
:10D31000124A137009B03CBC90469946A246AB46EF
:10D32000F0BDDE693A1C002E00D021E701250D4B2F
:10D330009D600023069601369846151C059604E765
:10D34000F82A00200C2B00200D2B0020102B002091
:10D35000FC2A0020042B0020082B00200E2B00208C
:10D36000FEFF7F0000100140002E63D0484B49496A
:10D370003568CC58484B494E1B683078E21A120287
:10D38000120A03329046002861D04246AA4200D2D7
:10D390002A1CA820D21812023E49130AC0003C4D94
:10D3A0000B504A591B1B121B1202120A1B0203329A
:10D3B0001B0A9A42ABD94B590B502F200138C0465B
:10D3C000C046C046C046C046C046C046C046C0462D
:10D3D000C046C046C046F1D180218023304A890230
:10D3E0005B00D15093E70023994604935BE6002548
:10D3F000002100244846464613E01A6882421CD8A1
:10D40000DE68801A89181C60DF69002E07D0DD6194
:10D410001D1C019A9E608A181202120A5A603B1C57
:10D420003E1C002BE9D11F4B1E60002303930133E8
:10D430000493BAE6FFF76AFD69E781461949039349
:10D440000E604946521A1A6001230493ADE680200B
:10D45000D1274002BF00C851403FC851C022802799
:10D460000F48BF0252008750076001272F200F602E
:10D470000138C046C046C046C046C046C046C04649
:10D48000C046C046C046C046C046F1D137707CE7B2
:10D490000405000000100140F82A0020182B00208D
:10D4A00000E100E0FC2A0020F8B54F464646C0B433
:10D4B0000326351C80460F1C141C99461540072076
:10D4C000002D03D00CBC90469946F8BD002A44D0EC
:10D4D000FFF71CFD4A46224B80201A60221C214B7C
:10D4E00018321E70204B62601C607B00DB19DB0071
:10D4F000D218E260D318C022636125706570A770EE
:10D5000025726572A77225746574A774C524FF21FE
:10D51000164B40031D60164B52001D70154BA400A6
:10D520001D70154B98501A598A433F390A431A51B6
:10D53000A122186040461149D2008850C4208000C2
:10D540001C580F4A2240C024240222431A500D4B7B
:10D550000020CA580C4B1A60B4E7034B1A60B1E7BD
:10D56000002B0020042B0020082B0020FC2A002088
:10D570000C2B00200D2B002000E100E000100140EA
:10D58000FF00FFFF04050000F82A002010B50B4B38
:10D590001B68002B0BD0002A07D0002805D0036899
:10D5A00008201C7C002C04D010BD0720FCE70820BC
:10D5B000FAE759745A610020F6E7C046082B0020AC
:10D5C000F0B5474680B4374B1C68002C08D00028C3
:10D5D00006D00723042905D8181C04BC9046F0BDCA
:10D5E0000823F9E74369002BFAD00025437CA846BD
:10D5F000012B2FD0EFF30583DB05DB0D1025002B6E
:10D600002CD164196378A5785E1CF6B2AD1B6F1E31
:10D61000BD416D422E402578B5421DD05D00EB180E
:10D620006568DB00ED180423002DD5D0033B2B707B
:10D6300068601D4B1D48C358E960AB6043468021BC
:10D640002B6180236A611A4A5B0049036670D150DE
:10D650000023C1E78846CDE70423BDE7103BDEB2D7
:10D6600075B2002D13DBAD08114EC035AD00AD59BC
:10D6700003263340DB00DD402B069B0FDBB2002589
:10D68000012BBED00835032BBBD00835B9E70F23DB
:10D69000084D3340AC46083B9B089B0063445D68E3
:10D6A0000323E6E7082B00200405000000100140DA
:10D6B00000E100E018ED00E030B52E4A031C1268CE
:10D6C0000820002A2ED0002B2CD05969002929D0FF
:10D6D00000211974EFF30581C905C90D1025002932
:10D6E00023D155196A78A978541CE4B2091B481E45
:10D6F000814149420C402978A14214D051008A1836
:10D700006968D2008C4662440420002A0AD00221B3
:10D7100053601170802380210020174A49035B0069
:10D720006C70D15030BD0420FCE71039CCB260B22F
:10D73000002813DB8008104CC030800000590324FF
:10D740002140C900C8400106890FC9B2002501293E
:10D75000C7D008350329C4D00835C2E70F210748D0
:10D7600021408446083989088900614448680321BA
:10D77000E6E7C046082B002000E100E018ED00E0DD
:10D78000F0B5031C186880F308885868FF2464B259
:10D79000EFF30585002D01D1A6460047251C061C88
:10D7A00021273FBAF0B40024002500260027F0B45A
:10D7B000F92040B20047C046F0BDC046AADF70471E
:10D7C00044DF704711DF704713DF704700DF704799
:10D7D0007047C04670B50B788CB0002B0AD0012181
:10D7E000032204F04DFD002801D10CB070BDFFF7FD
:10D7F00035FBFAE76B46474C9A1D211C0823058828
:10D8000013803431073B281CFFF7D8FF424B1B68BD
:10D810009847B120FFF7D4FF002865D1FFF7D2FF6A
:10D8200000285ED13D4B5869FFF7CEFF002855D147
:10D8300000233B4E281C311C029306F0E3F900281C
:10D8400016D08022C023374C5B00D203E250012166
:10D850000023802520680A1C9A40104200D06251A3
:10D860000133202BF7D12D4B5869FFF789FFBCE717
:10D87000301C06A905F0CCFD002838D10A9D0722EE
:10D88000291C201C103106F020FD291C1022E01D4F
:10D8900006F01BFD201C069D1122291C183006F0E5
:10D8A00014FD201C291C2A3012310A2206F00DFD1D
:10D8B000201CFFF78BFF002825D10123029303339F
:10D8C000049302AB05930023301C03A9039305F0D6
:10D8D00017FC0028B5D0FFF7C1FAB2E7FFF7BEFA90
:10D8E000A6E7FFF7BBFA9DE7FFF7B8FA96E7301C0B
:10D8F000211C05F04BFD002808D1201CFFF766FF16
:10D9000000289ED0E7E7FFF7A9FAD6E7FFF7A6FAC7
:10D91000F3E7C0461C2B0020042500200010001057
:10D92000582B002000E100E0014B18607047C04612
:10D930000425002000B583B06B46D8710733181C4E
:10D94000044905F005FD002801D0FFF787FA03B070
:10D9500000BDC046582B0020002804D0034B5B6D4F
:10D960000360002070470320FCE7C0465C2B0020CA
:10D9700070B5161C0C1C8D18002A05DD20780134AA
:10D9800000F0FEF8AC42F9D1301C70BD10B50C1C93
:10D99000201C00F0DBF80528FAD0012010BDC0469D
:10D9A00010B50279031C002A08D048681A688968F3
:10D9B000841A8C420CD98818186008E004688A68B8
:10D9C0000868211A914207D8012218601A7110BD07
:10D9D000002218601A71FAE7A01A1860F7E7C0462B
:10D9E00030B5047885B0012C19D0022C34D0002C2D
:10D9F00001D005B030BD274C274D201C291CFFF756
:10DA000073FA002823D0A268E3689A42F1D1032375
:10DA100002AA1370214B101C1B689847E9E7436862
:10DA20001F4D1978281CFFF74BFA002822D1AA684D
:10DA3000EB689B1A012B25D0A968AA88EB685B1AB2
:10DA40009A42D6D30121174800F05EFBD1E7281C8B
:10DA5000012100F0F7FAD6E702AB1C70C368012180
:10DA600010480193039300F04FFB0C4B02A81B6876
:10DA70009847BEE702AB1C70084B03901B6802A8D6
:10DA80009847D9E702AB1870044B02A81B68984767
:10DA9000D2E7C046C02B0020B42B0020B82B0020BA
:10DAA000D02B0020BC2B0020F0B51E1C214B051CE8
:10DAB00089B00C1C1A600720002906D08A881E48ED
:10DAC0000968FFF7E9F9002801D009B0F0BDA168A5
:10DAD000A2891A48FFF7E0F90028F6D16A46184BE8
:10DAE000684692CB92C292CB92C212CB12C2AB6862
:10DAF00006932B7906775A1E934103756B790E2294
:10DB0000591E8B415B421A404275EB780D490293D6
:10DB1000AB7803932B7801936B78009300F002FAB3
:10DB20000028D2D100F088FB0121074800F0ECFA70
:10DB3000CBE7C046B82B0020D02B0020C02B002004
:10DB400040570200E1D90100BC2B002038B50A4C37
:10DB5000051CA168A288E3685B1A9A4204D0201CC5
:10DB6000291CFFF7C1F938BD0448012100F0CCFAA7
:10DB70000028F4D00520F6E7D02B0020BC2B002095
:10DB800070B50D4D011C281CFFF79AF9041E01D039
:10DB9000201C70BD00F0B0FA0028F9D1074E281CF7
:10DBA000311CFFF7A1F90028F2D1301C012100F04F
:10DBB00049FA041CECE7C046C02B0020B42B00201F
:10DBC00082B00190019B002B14D0019B0A48013BBD
:10DBD00001930138C046C046C046C046C046C04654
:10DBE000C046C046C046C046C046C046F1D1019BB3
:10DBF000002BEAD102B07047E7030000F0B500281F
:10DC000020DBFF271B4B03229C463B1C8408C026BD
:10DC1000C0B20240D2009340A4006444B600A559AB
:10DC20009D438B013B409340191C2943A1511F2365
:10DC300018401E3B8340C022181C0E4B52009850C7
:10DC40001860F0BDFF260C4A03249446321C0F23B3
:10DC5000C0B20440E400A2400340083B9B089B0084
:10DC60006344DD6995438A013240A240111C294377
:10DC7000D961DCE700E100E000ED00E0F0B54446EA
:10DC80005F4656464D46F0B49C4A87B01368002460
:10DC9000012B00D1AEE09A4B1A68012A00D1B7E0FF
:10DCA000984B1A68012A00D1C2E0974B1A68012AE2
:10DCB00000D1CDE00022954B02921A68012A00D1D2
:10DCC000D8E023070BD0E30700D5DFE0A30700D59A
:10DCD000EBE0630700D5F6E0230700D502E1002C56
:10DCE00006DB07B03CBC90469946A246AB46F0BD69
:10DCF000002301270493C03399460126844D7F42B7
:10DD000000230393E023DB0000249846231C4033C8
:10DD1000E95C4BB201332CD0C9B24B46081C984386
:10DD20003B1CC3401E4224D08B0901932B18203387
:10DD30001B785BB29B00EB589C46002B35D0331C04
:10DD400083409A46019B032B35D0A023DB059B46DD
:10DD5000434682005A44D3580592C022920213408F
:10DD60001B0C191C53469346029A1A4212D10329DE
:10DD700026D00134042CC9D1039B002BB1D0A2239F
:10DD8000A022DB00D205D358029A9A42A9D0049F60
:10DD90000293B5E70229ECD1019B032B16D0634611
:10DDA000002BE6D00199E047E3E7019B032BE0D18C
:10DDB000331C83409A465246049B13430493C4E7A2
:10DDC000019B032BEBD180239B029B464346059985
:10DDD000CB589A4652464F4B134042468B508B5875
:10DDE0005A461A43131C42468B50039B0133DBB245
:10DDF0000393D4E7C1214848890041580B4200D120
:10DE000049E73F4B14601A680134012A00D047E704
:10DE1000C12241499200895802220A4200D13FE7BB
:10DE200000211960374B14431A68012A00D03CE7DF
:10DE3000C12239499200895804220A4200D134E7AC
:10DE400000211960304B14431A68012A00D031E7D1
:10DE5000C12231499200895808220A4200D129E79B
:10DE60000021144300221960284B02921A68012AEB
:10DE700000D026E700221A6080231B061C43A02244
:10DE8000A223D205DB00D35802931AE7A223224A29
:10DE9000DB00D058D1581E4DC00489032B68C00E3A
:10DEA000890F9847A30700D413E71C4B1A4A184D53
:10DEB000D058D158C00489036B68C00E890F9847A9
:10DEC000630700D408E7A323134ADB00D058D158D6
:10DED0000F4DC0048903AB68C00E890F9847230714
:10DEE00000D4FCE60C4A0E4B094DD058D158C00462
:10DEF0008903C00E890FEB689847F0E60061004087
:10DF000004610040086100400C6100407C610040F9
:10DF1000E02B0020FFFFFCFF006000401405000024
:10DF20001C050000F0B557464E464546E0B43B4C54
:10DF3000031CE27E0820002A04D01CBC90469946AF
:10DF4000A246F0BD002B67D001221868A1258240AF
:10DF5000A020ED00C0054251A94603251A68AA4633
:10DF6000C132FF329200155000255A68AC46C132CA
:10DF7000FF32920015509F69294A2A4D57511D7D45
:10DF8000A84647465D7D3D43274FD5515D681F68D4
:10DF9000A846264D57514746254D57511D7D012D09
:10DFA00019D19F683E1CE0277F00B8464644B70061
:10DFB00066463E50DE68B5404E4685515646DD68A1
:10DFC000C135FF35AD002E504E46D8689D68905142
:10DFD000A220C00015501A696160226000290DD08E
:10DFE000197F0023134A14481360144A1360C12395
:10DFF0000B4A9B00D0500220FFF700FEA023042113
:10E00000074ADB00D15000230122E3752376A37574
:10E01000E276A376002090E7094B95E7282C0020B4
:10E0200000200040240500006C0500000C050000E5
:10E03000140500001C210040800002004421004023
:10E0400060570200F0B5264A041C937D1120002B76
:10E0500000D0F0BD01259175224823499382946038
:10E060000B6005600B60938AE05C938A1F4C013360
:10E070009BB293821E4BE0505068002801D00020D4
:10E08000E7E70027261C1D1C0130FF30947D938A92
:10E09000A34203D312E0938A834202D00B68002B81
:10E0A000F9D0938A8342F2D00F60938A9468E45C3B
:10E0B000938A01339BB293827451E7E78023918A5C
:10E0C0005B0099420AD008490B68002BFCD0012163
:10E0D0000020084B196000239375BAE70F20FAE778
:10E0E000282C0020082000401C2100400020004077
:10E0F0001C0500000C200040024B987D431E9841F7
:10E10000C0B27047282C0020F0B5474680B4444B7D
:10E110005A68002A05D08126C224424DB600A400C8
:10E120002E51DC7D002C0DD01C7E002C1DD0002A31
:10E1300000D16EE08121C1233A4A89009B00D15071
:10E1400011200FE0D975997ED8605C761C76002985
:10E150002BD0002A0DD08121C1230020314A890013
:10E160009B00D15004BC9046F0BD18611976002A7E
:10E17000F1D12D4C2D4D22602A4A2D489046A322E4
:10E18000D2009446296806684A1E91412268C9B2A5
:10E19000571EBA41D2B2002E10D1002A27D1002931
:10E1A000F0D000220320DA75DCE7204A1160204A13
:10E1B000116001211B4A11605A68CAE70029F0D199
:10E1C000002A16D1D97D002917D101606246414647
:10E1D0008A585A7ED97D9142D4D80022DA759B7E26
:10E1E000002B18D001220F4B00201A60BAE700293B
:10E1F000D7D100220F20DA75B4E7464661460260A7
:10E200005A7E7158DE68B1545A7E0132D2B25A76C3
:10E21000DFE71120A6E70122064B00201A60A1E7E4
:10E22000282C0020002000404421004024210040F0
:10E230000821004004200040064A937E002B07D1AD
:10E2400005490B6005490B60054901330B60937666
:10E250007047C046282C002024210040082100409F
:10E2600000200040C12210B5604B92009A5884B043
:10E2700092054DD55E4A1168002949D000211160F0
:10E280008121C2228900920099505A4B9A7E002A1D
:10E2900002D10121584A1160022269460A70902178
:10E2A0005248C9004258425069460392DA7D684696
:10E2B0000A72DA68196801920022DA751A765B68C8
:10E2C00098474E4A1368002B10D04A4B988A997D84
:10E2D00081424FD9002111609A8A9968895C9A8A93
:10E2E000013292B29A82464B404AD150454B1A684D
:10E2F000002A0BD000221A603E4B9A7E002A02D0E0
:10E3000001213A4A1160DA7D002A42D104B010BDE1
:10E31000C123364A9B00D3585B07D2D53A490B68D4
:10E32000002BCED0334BD87D00283FD10860A321ED
:10E33000C90052585A7ED97D9142C2D11A7E002A14
:10E3400041D19A7E002A02D101212B4A11608120FD
:10E35000C22226498000920088500022684601218E
:10E36000DA755A7E01700272DA68196801925B6888
:10E370009847A6E7002010600029B7D06A461070C1
:10E3800011729A689875196801925B686846984797
:10E39000ACE7002268460121DA755A7E01700272EC
:10E3A000DA68196801925B689847AFE70020086057
:10E3B000A320C000597E1258D86842545A7E0132B8
:10E3C000D2B25A76B6E7DA751A69D968DA600022ED
:10E3D0006C46587E1A765A7601322072019122706C
:10E3E000196868465B6898476BE7C04600200040A4
:10E3F00024210040282C0020042000401C21004043
:10E400001C050000442100400821004038B50C4C98
:10E410000D1CA27C0823002A01D0181C38BD094B12
:10E420001A60002905D0002808D001780720FFF7DE
:10E43000E5FB01232560A3740023EEE70248F4E71F
:10E44000442C0020007100408057020000234360EC
:10E45000064B5A68002A01D105E01A1C5368002BAC
:10E46000FBD1506070475860FCE7C046442C002048
:10E470000122014B1A60704700700040F0B544461D
:10E480005F4656464D46F0B42D4C1123A27C022A1D
:10E4900018D00F3BA3740023E060A02062682174B1
:10E4A000A26028491268284E63748A51274AC00026
:10E4B000136001330B502568002D0AD0C122920051
:10E4C0008B500023181C3CBC90469946A246AB4694
:10E4D000F0BDA123DB00904683469C46B1461368FD
:10E4E000002BFCD043461D605B466646CD508E59DE
:10E4F000637CB2465046E7685E00F0530133267CE9
:10E50000DBB263749E4216D9A3685B68002B09D006
:10E510004846A3601B680B505B460120C85001238E
:10E520000B60DCE748466368A3601B680B505B46E2
:10E530000120C850D3E70123A3740023C2E7C046DB
:10E54000442C0020007000400405000000710040D1
:10E55000F0B5264A85B0D468002C33D0A020002521
:10E56000A126234B2349C0001D600D50537CF600AB
:10E570008F595E0037530133167CDBB25374B342BC
:10E580000CD293685B68002B14D093601A681A4B06
:10E59000CA5001230B500B6005B0F0BDC22001230F
:10E5A00080000B5001A893740570446006811368C5
:10E5B0009847F1E7536893601A680F4BCA500123DC
:10E5C0000B50E9E70A4BC2201C6001230949800077
:10E5D0000B50F930FF300C50A12401A80370E40067
:10E5E00009599374818013689847D5E7442C00201B
:10E5F00000710040007000400405000029DF7047F2
:10E6000028DF704730B583B0002806D0112806D126
:10E6100008230F4A11680B43136003B030BD021C7E
:10E620000C4801788B005B189B00C518281CE96812
:10E630006B694C0064182979074DA4002D680C30D3
:10E640000095064D6459A0470422054B1A70E4E773
:10E65000D82E0020582C0020E42E0020BC2E0020B4
:10E66000DD2E0020F0B55F464D4644465646F0B4D8
:10E670005E4F85B03C785E4D012C00D188E0002CC7
:10E6800000D16DE0022C16D0032C0DD1594B186827
:10E69000FFF7B6FF021E07D0112800D080E0082344
:10E6A000554A11680B43136005B03CBC904699462F
:10E6B000A246AB46F0BD504B99461B6803932B789E
:10E6C0009E00F3189B00EE183369984680235B0583
:10E6D000196940460904090C9B4605F065FC454B49
:10E6E000824618605B4619694346581EF388090440
:10E6F000C018090C05F058FC82454CD00323039C3C
:10E700009C434B461C603D4B1B68002B02D10233DF
:10E71000234262D000223A4B1A703A4B5869431C8C
:10E7200054D080235B0519690904090C05F03CFCF1
:10E73000031C80225205106911690004013B000C82
:10E7400009045843090C05F02FFCFFF759FF021E7E
:10E75000AAD0112824D108231C434B461C60A3E7F0
:10E76000294B1C60294B1C606B78002B9CD02B78AC
:10E770009A00D3189B00ED18EA88254B1A602B7974
:10E78000032B27D0042B25D0012B00D08CE73B7026
:10E7900000F000FC88E70123039A9A431443B0E792
:10E7A0002B789800C01880002E18301C184DF36884
:10E7B0002D685C00E418317973690095154DA4004B
:10E7C0000C306459A04704233B706DE780235B0540
:10E7D0005B69AEE700F020F866E7094A504613701F
:10E7E000FFF70EFFFFF70EFF5EE7C046DD2E0020AD
:10E7F000582C0020F02E0020D82E0020EC2E0020D7
:10E80000DC2E002000100010E82E0020B42E002086
:10E81000E42E0020BC2E0020F0B55F4656464D4643
:10E820004446F0B45B4B5C481A78802791008A1804
:10E8300092009B18DD681E696A00521992008218C6
:10E84000148950895268604380469044DA881B8955
:10E85000141C9946514B92469B4600235A467F050D
:10E86000396983B009044C441360090C301CA419A5
:10E8700005F020FC002924D13B699BB29A4537D092
:10E8800044456CD0032D33D0301C3969484489B2DB
:10E8900005F010FC424B890819603969201C0904F5
:10E8A000090C05F007FC002932D102223D4B1A70F9
:10E8B000FFF7D8FE03B03CBC90469946A246AB4653
:10E8C000F0BD032D14D0301C396948440904090CEB
:10E8D00005F0F0FB324B8908196039694445E4D0F2
:10E8E0000904090C201C05F0E5FB0029DDD00FE030
:10E8F00080235B051969301C0904090C05F054FBE1
:10E900000322294B1860274B1A70FFF7ABFED1E7A3
:10E9100080256D0529692B696A4699464346D3804F
:10E92000D08889B205F040FB6A464B46A6B2D38038
:10E93000071CD188301C05F037FBBFB280B287427C
:10E940001DD02C692969301C89B205F0B3FB5B46E8
:10E950002404240C89B2641AA4081C60A5E74B4661
:10E96000002BC5D0032DC3D0301C3969484489B26F
:10E9700005F0A0FB0A4B890819603B6995E74346FF
:10E9800024041B041A0C240C131B5A469B08136006
:10E990008BE7C046582C0020BC2E0020B82E00204B
:10E9A000EC2E0020DD2E0020F02E0020F8B546468B
:10E9B0004F46C0B41D4D08AC24886E78A44604248C
:10E9C0001E2E2DD02C78A046A4191D2C00DD1E3C37
:10E9D00014277C432C196261221C20710C32B94629
:10E9E00081C981C2E380634623810024104B013634
:10E9F0001A786E70A24213D142464F465743ED1922
:10EA00000C4AE98811602A79032A07D0042A05D024
:10EA1000012A05D11A70FFF725FE01E0FFF7FCFE81
:10EA2000201C0CBC90469946F8BDC046582C0020CE
:10EA3000DD2E0020E42E0020082170B50C1C244A95
:10EA400082B013681C4009D08B431360214B224ACB
:10EA50001B789B009B58984702B070BD1F4D2B78C8
:10EA60009800C3189B00EE18317904292AD0F26867
:10EA7000736950008218301C194E920036680C30B1
:10EA80000096184E96590022B04702202A7893002B
:10EA90009B189B00EB181C71DC80D8601C615C61CA
:10EAA0001C816B780132013BD2B26B701E2A06D0FA
:10EAB0002A7000220C4B1A70FFF7D4FDCCE700231C
:10EAC0002B70F6E70122084B1A70FFF7CBFDC3E766
:10EAD000D82E0020DC2E002098570200582C002051
:10EAE000E42E0020BC2E0020DD2E002030B5244B6B
:10EAF00083B05869431C3ED080235B051969090423
:10EB0000090C05F051FA041C80235B05186919698A
:10EB100000041A69000C631E58431A4B09041B6851
:10EB2000090C92B292085943FFF768FD021E06D005
:10EB3000112806D10823144A11680B43136003B04F
:10EB400030BD12490B789800C01880000D18281CA1
:10EB5000EB6829795C00E4186B690D4DA4002D6801
:10EB60000C3000950B4D6459A04704220A4B1A70D3
:10EB7000FFF778FDE3E780235B055C69C4E7C046E7
:10EB800000100010F02E0020D82E0020582C00205D
:10EB9000E42E0020BC2E0020DD2E0020802230B587
:10EBA0005205146921492404230C0C6883B0013CEC
:10EBB0005C431F4B5869431C35D011690904090C8B
:10EBC00005F0F2F980235B0519691A4B0904013835
:10EBD000090C41431A68201CFFF710FD021E06D0E5
:10EBE000112806D10823144A11680B43136003B09F
:10EBF00030BD12490B789800C01880000D18281CF1
:10EC0000EB6829795C00E4186B690D4DA4002D6850
:10EC10000C3000950B4D6459A04704220A4B1A7022
:10EC2000FFF720FDE3E75069CCE7C046F02E002057
:10EC300000100010EC2E0020D82E0020582C0020B0
:10EC4000E42E0020BC2E0020DD2E0020082330B54D
:10EC50001E4D83B02C68234214D1A30702D5012393
:10EC60001C432C6002221A4B1A701A4B1868FFF7CB
:10EC7000C7FC021E04D011280DD108231C432C60B0
:10EC800003B030BD9C43124B134A1B782C609B0091
:10EC90009B589847F4E711490B789800C0188000FA
:10ECA0000D18281CEB6829795C00E4186B690C4D81
:10ECB000A4002D680C3000950A4D6459A047042229
:10ECC000094B1A70FFF7CEFCDAE7C046D82E0020B9
:10ECD000DC2E0020F02E002098570200582C002037
:10ECE000E42E0020BC2E0020DD2E0020F0B5802771
:10ECF000274C7F05237839699A00D3189B00E318C5
:10ED00001A89DD881B69AD18ED18090483B0090C58
:10ED1000281C05F0CFF91F4B0E1C5869431C35D039
:10ED200039690904090C05F03FF980235B0519696D
:10ED300001380904090C4143174B89191A68281C2A
:10ED4000FFF75CFC021E06D0112806D10823134AE7
:10ED500011680B43136003B0F0BD23789800C0180E
:10ED600080002618301C0E4CF36824685D00317951
:10ED7000ED18736900940B4CAD000C302C59A04772
:10ED80000422094B1A70FFF76DFCE4E77869CCE7C1
:10ED9000582C002000100010B82E0020D82E002083
:10EDA000E42E0020BC2E0020DD2E002030B5154BB7
:10EDB00083B01868FFF724FC021E06D0112806D184
:10EDC0000823114A11680B43136003B030BD0F498B
:10EDD0000B789800C01880000D18281CEB68297962
:10EDE0005C00E4186B690A4DA4002D680C30009596
:10EDF000084D6459A0470422074B1A70FFF732FCF4
:10EE0000E3E7C046F02E0020D82E0020582C00202A
:10EE1000E42E0020BC2E0020DD2E0020082370B53B
:10EE20002A4D82B02C68234209D09C43284B294AA2
:10EE30001B782C609B009B58984702B070BD012244
:10EE4000234B1A70244B5869431C3BD080235B052D
:10EE500019690904090C05F0A7F8061C80235B0555
:10EE60001869196900041A69000C731E58431B4B7A
:10EE700009041B68090C92B292085943FFF7BEFBC4
:10EE8000021EDAD0112803D108231C432C60D4E7DA
:10EE900013490B789800C01880000D18281CEB68E7
:10EEA00029795C00E4186B690E4DA4002D680C30C4
:10EEB00000950D4D6459A04704220C4B1A70FFF7C2
:10EEC000D1FBBAE780235B055E69C7E7D82E002037
:10EED000DC2E00209857020000100010F02E0020B9
:10EEE000582C0020E42E0020BC2E0020DD2E002017
:10EEF00030B5224B83B05869431C3AD080235B0560
:10EF000019690904090C05F04FF8031C8022520509
:10EF1000106911690004013B000C09045843090CF5
:10EF200005F042F8FFF76CFB021E06D0112806D14F
:10EF30000823134A11680B43136003B030BD114915
:10EF40000B789800C01880000D18281CEB682979F0
:10EF50005C00E4186B690C4DA4002D680C30009522
:10EF60000A4D6459A0470422094B1A70FFF77AFB37
:10EF7000E3E780235B055B69C8E7C046001000102B
:10EF8000D82E0020582C0020E42E0020BC2E00207B
:10EF9000DD2E0020F0B58027404D7F052C783969A3
:10EFA000A60033199B00EB18DA8889B283B08A4235
:10EFB00018D8196918898C46920860445969FFF776
:10EFC0001DFB021E06D011282DD10823344A1168DA
:10EFD0000B4313603419A4002C19E288314B1A60DA
:10EFE00003B0F0BD196938698C460004000C121A90
:10EFF00018893C695969604480188918A2B292083E
:10F00000FFF7FCFA021E06D0112827D10823244A54
:10F0100011680B43136080235B051B69214A1B04A5
:10F020001B0C1360DCE72B789800C01880002918AF
:10F03000CB68081C5F00FF180B79BF009C464B692A
:10F0400019490C300968009118497F586146B84742
:10F050000422174B1A70FFF705FBBBE72B789800CB
:10F06000C01880002E18301C0F4DF3682D685C000E
:10F070003179E418736900950C4DA4000C30645983
:10F08000A04704220A4B1A70FFF7ECFA80235B05B5
:10F090001B69044A1B041B0C1360A1E7582C0020B9
:10F0A000D82E0020B42E0020E42E0020BC2E0020FC
:10F0B000DD2E00200823F0B54D4644465F465646F7
:10F0C0001A1CF0B4774D85B02C68224091465FD170
:10F0D000754F3E78B30003939B199B00FB181A6988
:10F0E000511EDA881B898A18D318029380235B0586
:10F0F0009B4619696D4B1B689846002B57D16C4B8A
:10F100001B689A4680235B05196902980904090C5B
:10F1100004F04AFF824500D285E0434600D17AE000
:10F12000002B00D079E0039B9C466644B600BC19D6
:10F130002179042900D1AFE0201CE3680C305A008B
:10F14000D21863695B4C9200246800945A4C14599D
:10F150000022A047414602203A7893009B189B006A
:10F16000FB181971D86041464046D9801861586132
:10F1700018817B780132013BD2B27B701E2A00D10C
:10F180007BE03A7000224D4B1A70FFF76BFA07E0F4
:10F190009C434B4B4B4A1B782C609B009B589847D9
:10F1A00005B03CBC90469946A246AB46F0BD404BEC
:10F1B00009041B68090C02989A4604F0F5FE5045B4
:10F1C000A0D14A46404B1A6001234A4623432B6094
:10F1D0003B4B1A703D4B5869431C51D05B46196933
:10F1E0000904090C04F0E0FE031C8022520510699A
:10F1F00011690004013B000C09045843090C04F098
:10F20000D3FEFFF7FDF9021ECAD011283BD1092316
:10F210001C432C60C4E7002B05D00322284B1A7036
:10F22000FFF764FDBCE70022274B50461A60244BD1
:10F2300002321A70FFF7E4F9021EB1D0112818D07B
:10F240003B789900CB189B00FD18E9684C006418C6
:10F25000281C29796B69174DA4002D680C30009586
:10F26000154D6459A0470422144B1A70FFF7FAF9A0
:10F2700096E708231C432C6092E700233B7081E74C
:10F280005B465B69B1E73B789800C01880003D1889
:10F29000EB685C00E418DBE70122084B1A70FFF70B
:10F2A000E1F97DE7D82E0020582C0020B82E002050
:10F2B000F02E0020E42E0020BC2E0020DD2E0020A9
:10F2C000DC2E002098570200EC2E002000100010C9
:10F2D000F0B54E46574645460823E0B48C4E82B002
:10F2E0003468234200D093E08A4B1A68571C1F6091
:10F2F000894B1D68002D50D1884B802299461B7880
:10F3000052059D00ED18AB00984608234D469A46DD
:10F310004544AA4453469B681169581EEB8809046A
:10F32000C0182B89090CC01804F03EFE874200D299
:10F3300082E07B4B00D17BE01F68002F00D19CE076
:10F3400001231A1C224000D08DE023433360754B0B
:10F350001A70754B5869431C00D1BEE080235B05D1
:10F3600019690904090C04F01FFE031C80225205D0
:10F37000106911690004013B000C09045843090C91
:10F3800004F012FEFFF73CF9021E49D0112800D00C
:10F39000A7E009231C43346042E00421614B19704B
:10F3A00080235B051F693F043F0C57435E4A506949
:10F3B000421C3BD019690904090C04F0F5FD8023B7
:10F3C0005B05196901380904090C41432A1C381CE2
:10F3D000FFF714F9021E23D011284AD04F480178B4
:10F3E0008B005B189B00C518281CE9684C0064184A
:10F3F000A40029796B694D4D0C302D6800954C4D5A
:10F400006459A04704224B4B1A70FFF72BF907E011
:10F410009C43444B484A1B7834609B009B58984758
:10F4200002B01CBC90469946A246F0BD5869C6E79A
:10F430001B68002B00D083E702223A4B381C1A705D
:10F44000FFF7DEF8021EEBD0112812D04B461B78D6
:10F450009900CB1849469B00CD18E968281C4C0040
:10F460006418A400C5E703222E4B1A70FFF73EFC78
:10F47000D6E708231C433460D2E7297904293DD01C
:10F4800053464046294C5B6824685A00D2186B6981
:10F490000094274C920048440C3014590022A04795
:10F4A0004B4602201A78494693009B189B004B4418
:10F4B0001F71DF80D8601F615F611F814B465B78E1
:10F4C0000132013BD2B24B701E2A1DD00A700022BD
:10F4D000184B1A70FFF7C6F8A2E780235B055B693B
:10F4E00044E74B461B789800C0184B4680001D1817
:10F4F000EB68281C5C00E418A4007AE701220D4B9D
:10F500001A70FFF7AFF88BE700230B70DFE7C046F8
:10F51000D82E0020F02E0020EC2E0020582C0020A9
:10F52000B82E0020DC2E002000100010E42E002059
:10F53000BC2E0020DD2E00209857020070B5274C0D
:10F5400082B023789800C01880002518281CEB682A
:10F5500029795A00D2186B69214D92002E680C301F
:10F560000096204E96590022B047002102262278AC
:10F5700093009B189B00E3181971D980DE60196114
:10F580005961198163780132013BDBB2D2B26370F9
:10F590001E2A0BD022700021134E14483160144EE5
:10F5A00001703160002B05D102B070BD00222270C5
:10F5B0000022F0E793009A189200A418E3882B60C9
:10F5C0002379032B07D0042B05D0012BECD103703A
:10F5D000FFF748F8E8E7FFF71FF9E5E7582C0020A8
:10F5E000E42E0020BC2E0020E82E0020DD2E00207E
:10F5F000B42E0020F0B5474680B4684D04262B7821
:10F6000082B01A1CB24313D0041E022C14D003285B
:10F610000ED1082062490A68104257D0022B4ED002
:10F62000032B01D0012B03D182430A60FFF71AF8A4
:10F6300002B004BC9046F0BD022B40D0032B54D046
:10F64000012BF5D10821564A1368194278D1554F3C
:10F6500055493B780E689A00D3189B00FA18D18858
:10F660008E1BB6B2D680002E6FD1D16813794800B8
:10F6700041189846101C53694C4A890012680C3096
:10F6800000924B4A8A58414694460022E0473A7815
:10F6900093009B189B00FB181E71DE80DC601E61CE
:10F6A0005E611E817B780132013BD2B27B701E2AE3
:10F6B00067D03A7000232B70FEF7D4FFB8E73D4BBC
:10F6C0003D4A1B789B009B589847B1E73B490A6825
:10F6D00001320A60032A3BD0022BA7D1354B384AAE
:10F6E0001B789B009B589847A2E708212C4A136877
:10F6F000194225D1334B2B4E1A683478571C1F60A2
:10F7000080235B051969A30098461B199B00F31819
:10F710001A690904501EDA881B898018C018090C60
:10F7200004F042FC874200D280E731D0231C4344DE
:10F730009B00F3181B79042B25D0FFF7FFFE77E71A
:10F740008B431360FEF78EFF72E7FFF723FC6FE732
:10F750001448027893009B189B00C418201CE26890
:10F76000636951008A182179104C920024680C308A
:10F7700000940F4C14590D22A0472E70FEF772FF13
:10F7800056E73E7096E701232B70FEF76BFF4FE7BD
:10F790000D4B1B68002BC9D148E7C046DD2E002069
:10F7A000D82E0020582C0020B42E0020E42E00205B
:10F7B000BC2E0020DC2E002084570200E82E002002
:10F7C00098570200F02E0020B82E002097229200B9
:10F7D00008B594460023002202201F490B704B708D
:10F7E0000B1D61441A705A809860DA601A619A8021
:10F7F00014338B42F6D10022184B1A80184B5869EB
:10F80000431C25D080235B0519690904090C04F009
:10F81000CBFB80235B051B6903381B041B0C58437F
:10F82000104B0021186000230F4A002013600F4A7C
:10F83000136013815381D3609382D3820C4A117079
:10F840000C4A13600C4A136004220C4B1A6008BD6A
:10F8500080235B055869DCE7582C0020D42E00205B
:10F8600000100010E02E0020F02E0020BC2E002002
:10F87000DD2E0020E82E0020B42E0020D82E0020FF
:10F88000F0B557464E464546E0B4344B1A68082357
:10F89000520705D4181C1CBC90469946A246F0BDE0
:10F8A000002857D0002955D00368002B52D080275C
:10F8B0007F053A69868892B207239642EAD80F2ECE
:10F8C000E8D9C288002AE5D0254B724399461B68C7
:10F8D000041C9846234B424458690D1C9246431C15
:10F8E0003AD039690904090C04F05EFB8022520504
:10F8F000136901381B041B0C584307238245C9D8E0
:10F90000B107C7D1184F033B3E88022EC2D04346F1
:10F910006B600C232E604546734314480136C118B2
:10F920004D6025681D50A5880D81E0884881684399
:10F93000136911699BB21469C018013889B2A4B265
:10F9400004F0C2FB231C4A464343434413603E80F9
:10F9500000239FE70E239DE77869C7E7D82E002094
:10F96000E02E002000100010D42E0020BC2E00201D
:10F97000F0B5134B1C680823640701D4181CF0BDB4
:10F9800000281BD0002A19D00468013B012CF5D8AF
:10F9900065000C4E2D19AD00AF59002FEED0751932
:10F9A0002E8940687143091868896D687043401951
:10F9B0008142E3D2146051600023DFE70E23DDE7CC
:10F9C000D82E0020BC2E0020F0B5474680B4204C35
:10F9D000051C246882B00820640703D402B004BC6C
:10F9E0009046F0BD002930D0002D2ED02C68013873
:10F9F000012CF3D867003C19164EA400A759002F1C
:10FA0000ECD06F683419BC4626896789B0467743C5
:10FA10006668BC19A445E1D2002ADFD09045DDD349
:10FA2000D418A045DADB09308C07D7D10324234250
:10FA3000D4D166462642D1D1181C131C00900A1C52
:10FA40000120291CFEF7B2FFC8E70E20C6E7C0461A
:10FA5000D82E0020BC2E0020F0B5474680B4204CA4
:10FA6000051C246882B00820640703D402B004BCDB
:10FA70009046F0BD002930D0002D2ED02C680138E2
:10FA8000012CF3D867003C19164EA400A759002F8B
:10FA9000ECD06F683419BC4626896789B046774335
:10FAA0006668BC19A445E1D2002ADFD09045DDD3B9
:10FAB000D418A045DADB09308C07D7D103242342C0
:10FAC000D4D166462642D1D1181C131C00900A1CC2
:10FAD0000420291CFEF76AFFC8E70E20C6E7C046CF
:10FAE000D82E0020BC2E0020F0B5454657464E4685
:10FAF000E0B4284C051C246882B00820640705D4B3
:10FB000002B01CBC90469946A246F0BD00293FD0E9
:10FB1000002D3DD00C680138012CF1D867001E4E35
:10FB20003C19A400B2463659002EE9D04E68544420
:10FB30006789B4462689B1467E436768B0463C1C57
:10FB40004444A445DCD2002ADAD09145D8D3D41855
:10FB5000A145D5DB0930AC07D2D103242342CFD154
:10FB600066463440CCD188466344191C281C171CB7
:10FB700004F0ABFB42460C231268009753435246F5
:10FB80004046D6580221221C2B1CB047201CB7E748
:10FB90000E20B5E7D82E0020BC2E0020F0B54F4631
:10FBA0004646C0B4224B83B01B6808245B0705D4CB
:10FBB000201C03B00CBC90469946F0BD002834D000
:10FBC0000368013C012BF3D85D00EB18194A9B0038
:10FBD0009D58002DECD0D3181F895D895A687D434C
:10FBE0004668AD18AE42E3D20934B307E0D1884687
:10FBF0008146391CB01A04F05DFA093C0029D7D1BE
:10FC00004046391C04F056FA89B20029D0D1434647
:10FC1000002BCDD04644B542CAD300220320009227
:10FC20004946FEF7C3FE041CC2E70E24C0E7C046E7
:10FC3000D82E0020BC2E0020074B1A68082352073C
:10FC400001D4181C7047002804D0044B5B78036073
:10FC50000023F6E70E23F4E7D82E0020582C0020CE
:10FC6000F0B54D4644465F465646F0B409AC25888B
:10FC70000AAC2478A4460C78002C17D11688B0461C
:10FC8000922676008759B346002F20D0331C243BA0
:10FC9000FF3B845143610B70A8450FD00124201C09
:10FCA0003CBC90469946A246AB46F0BD922200234A
:10FCB00052008350083A8350143A835082235B00E9
:10FCC000C258002AEAD000220024C250E7E78E265C
:10FCD0007600B1468659B246002E0BD04E4687516B
:10FCE0005E468659002E23D05B46C75001234361F0
:10FCF0000B70D1E7842464000759002FCCD05646FE
:10FD000006515C460459002C22D111888D42C3D97A
:10FD1000A324E40004595C54138801339BB213807C
:10FD20006A1E93421DD09D42B6D001230362B3E701
:10FD300011888D4205D86346002B0FD00123C36183
:10FD4000ADE7595C094BC150138801331380A3E719
:10FD500001235A46865043610B709DE7012343619E
:10FD60009AE7802302229B00C250DEE71C050000B8
:10FD7000F8B544465F464D465646F0B4047984468D
:10FD800060006D4F80460019000138182030C57999
:10FD90000820002D05D03CBC90469946A246AB46B3
:10FDA000F8BD002900D1C3E04046001900013A50D7
:10FDB0003A18536000239360283293705370A02345
:10FDC0000A685E48C132FF32DB059200D0504A68B3
:10FDD000C132FF329200D0500120051C0A689540C4
:10FDE000A122D2009D504D68A84098500868544DFB
:10FDF000C130FF308000C5504868C130FF308000FE
:10FE0000C55004200138C046C046C046C046C04662
:10FE1000C046C046C046C046C046C046C046F1D1F6
:10FE2000A220C0008246474800260125834691460D
:10FE3000524648689A58C240154200D075E02A1CC4
:10FE40000868824058461A5004200138C046C0460F
:10FE5000C046C046C046C046C046C046C046C04672
:10FE6000C046C046F1D12A1C0868824048461A5054
:10FE700004200138C046C046C046C046C046C04601
:10FE8000C046C046C046C046C046C046F1D1013655
:10FE9000092ECDD1486801231A1C8240101CA022D3
:10FEA000284DD205505104200138C046C046C046F6
:10FEB000C046C046C046C046C046C046C046C04612
:10FEC000C046F1D148688340A120C0001350A02251
:10FED0000B681A48C133FF33D2059B0098504B681A
:10FEE000C133FF339B0098506346A1221B680D6805
:10FEF000D20048689D50134A98508868124A98501A
:10FF000043461B191B01FB58002B06D0634618689B
:10FF1000097B000B40B2FDF771FE0123444424012C
:10FF20003F192037FB71002035E7002EB3D1CEE713
:10FF300006482101411837E7F42E00200C06000086
:10FF40000D0600000C05000024050000AC5702005F
:10FF5000A022037901680520D20088505A00D318E6
:10FF6000034A1B01D31802222033DA717047C046BE
:10FF7000F42E0020F0B544464D465F465646F0B498
:10FF80008BB0019314AB90461A78002306AC8946D7
:10FF900006936360A360E360002A25D19C46059325
:10FFA00003930279C223111C0492012205689B006D
:10FFB0005242EA504B0058189B46824B00019A4629
:10FFC0005044031C283302935E78F6B2002E11D001
:10FFD000C123826811209B00EA500BB03CBC9046C4
:10FFE0009946A246AB46F0BD0123059303931F3308
:10FFF0009C46D6E701225A7092466246C2614A4642
:020000022000DC
:100000006270424608920C2294466B4684446246D3
:10001000998861808ACC8AC2246814604246041C94
:1000200002622034B122231C4C46D200AC50822400
:1000300064002E516A4620342E51083C2E51143C47
:100040002E51F8342E510024019F127B9F809A710B
:10005000029B9E801C7053462B62AB60838D9F4237
:1000600023D8059B002B28D05346EB61049A5B46AE
:100070009446544A63441B01D258002A20D0514A66
:1000800051499446634499609968C12300209B00BC
:10009000E950049B5B441F014A4BDB59002B9CD168
:1000A000484AD2192832537097E74246D45C474BEE
:1000B000EC50838D01338385D8E753466B61D5E7D8
:1000C0009A46404B92249C46019BE24400269C4663
:1000D000049F640053462833187800282BD19A884F
:1000E0002959914600292DD18E225200A858002866
:1000F0002DD0A9502859002847D0295101216961E4
:100100001970CC45E6D182235B00EB58002BE1D07F
:10011000822300213A1C5B000497E95094465B4619
:10012000284A634494461B01634428331B78002B00
:100130003ED00320ADE78E235B002E51EE50143BE2
:10014000EE50E0E70121285169611970D9E7842256
:100150005200A9580029D4D0A85029590029F1D11A
:10016000CC45CED9A322D200A958484642461154C4
:100170009988013189B299806346013B99421CD02C
:100180008C45BED001232B62BBE7CC4508D9424643
:100190004946505C4A460D496850511C9980B0E769
:1001A000059B002B06D001230497EB613A1CB5E7B1
:1001B00000206EE701236B61A3E7802302219B00EF
:1001C000E950DFE7F42E0020860200001C05000045
:1001D000F0B544465F4656464D46F0B4C14B282123
:1001E0001A6A585C944626229A5C8BB09C8C904686
:1001F000002814D19225BC4A6D0056599F8DAA46FD
:10020000002E39D05051012050615854BC420FD0BB
:100210000BB03CBC90469946A246AB46F0BD92203E
:100220000021B14A400011500838115014381150C3
:100230008222AD49520088580028E9D00020885019
:100240002820195C002928D11E7BB21E012A5AD908
:10025000191C06AA0C3170C970C2096805A8116082
:1002600000220270292200219954DA695207CFD462
:1002700059681B689847CBE78E2040001558A9465F
:10028000002D20D016505046105800286ED05046F1
:100290001650012050615854B8E7191C06AA0C31B9
:1002A00070C970C20968904C1160904905A86258E5
:1002B00062500221114203D15207D3D50170D1E718
:1002C00001220270CEE7842040001658002E9DD0F7
:1002D0004D46155050461058002856D1BC4295D96D
:1002E000A3216046C9005158C155998D601E013146
:1002F00089B2998581424ED08C4200D186E7012196
:10030000794A116282E71A6A5C69A242A0D1012788
:100310009A691C8A91461A62DA699C8452093A40A9
:10032000934626225D469D54032E39D082266E4A7E
:100330007600915120369151083E9151143E9151D1
:10034000998500211954012C4BD0802189005750E8
:100350000121654A116211601968002946D064497B
:1003600099609968C1239B00D15051E7BC4205D8E0
:10037000414600290CD00121D16161E76146C85D89
:100380005C4950507A1C9A8540E74846554639E703
:10039000012151613AE78021022089005050AEE7E7
:1003A000514EDE32B1502032B150083AB150143AB9
:1003B000B150F832B150998519543762B760002CAA
:1003C00025D04A464B49107870509F851A68002AFC
:1003D00024D0474A9A609968C123434A9B00D15070
:1003E00016E78021022089005050B1E71F1C2C33F2
:1003F0001E1C4D4628370023009401933A48391CAF
:10040000321C2B1CFFF72CFC0028F4D100E75A46C5
:10041000002A01D0F761D9E77761D7E7922001324E
:10042000CA46282700269046A1462F494000DA5D9B
:10043000002A21D10D589C8D002D2FD18E225200E3
:1004400094468A580392002A1DD062468D500A585D
:10045000002A29D042460D504A614246DA55A1454C
:10046000E5D18222520094468A58002ADFD0002229
:1004700061461D4B5A50CBE68E2252000E508E50D4
:10048000143A8E50EDE784256D004A59002AE6D0D3
:10049000039A4A510D58002D0FD0039A0A50424634
:1004A0004A614246DA55DAE7A14525D95246155D3B
:1004B000104A8D50621C9A85D1E7A145CFD9A3225D
:1004C0005546D2008A582A554D469A8D013D013233
:1004D00092B29A85AA4219D09145C0D042460A628A
:1004E000BDE7C046F42E002000400040C4040000D8
:1004F000860200001C0500005A46002A03D0012293
:10050000054BDA6184E642464A61A8E7802202256B
:1005100092008D50E2E7C0460040004070B5DB4BD2
:10052000041C1B680020DB0700D470BD172CFCD80E
:10053000D74AA300D3589F46A022D64BD205D15804
:100540008023DB031C1CA1208C430B40D249C0003C
:1005500014505350D14B00221B68D1489900C91840
:10056000FDF72EF8E1E7A022CA4BD205D15880232F
:10057000DB031C1CA1208C430B40C749C000145056
:100580005350C64B00221968C548FDF719F8CCE74F
:10059000C44D281CFDF790F811231C1B00D14CE121
:1005A000002800D049E18023BF4E1B043360012C9A
:1005B00010D0C8306421604303F0F6FCB74B002232
:1005C0001B684343281C191CFCF7FAFFF023326810
:1005D0005B041340A022B049D2055350A12300214F
:1005E000DB00D150A1E7A023F021A122DB054904C3
:1005F000D20099500021A84A002099501222AB4BFA
:100600001A7092E7A023A122E021DB05D200490461
:10061000802499500021A048A40319501C509950DF
:100620001322A24B00201A707FE7A023F0219A4AE0
:10063000DB05490499500021043A99509B4B002056
:100640001C7072E7984BA1211A68F0235B04934356
:10065000A022C900D205535000238F4900205350D7
:10066000924A137061E7904BA1211A68E0235B0462
:100670009343A0220026F025D205C9008648535096
:10068000844B1650D3586D046B408025AD032B402E
:1006900000D1E9E055501650022C00D1F1E028219C
:1006A000824B1C707D4B00221B687D485943FCF730
:1006B00087FF3AE7A023F021774ADB0549049950E8
:1006C0000021043A99500C22784B00201A702CE734
:1006D000A023A122D021DB05D20049048024995017
:1006E00000216D48E40319501C50995014226F4B9F
:1006F00000201A7019E76C4BA1211A68E0235B04F3
:100700009343A0220025F024D205C900624853502B
:10071000604B1550D358640463408024A4032340E5
:1007200000D199E054501550082103221AE05E4B85
:10073000A1211A68E0235B049343A0220025F02442
:10074000D205C90054485350524B1550D358640435
:1007500063408024A403234000D18BE0545028211F
:1007600015500422514B1A709CE7E0224E4B520464
:100770001B68A1219A43A023C900DB0580245A509D
:1007800000224548A4031A501C505A50474B0732C8
:100790001A700020C9E6A023A122C021DB05D200E7
:1007A0004904C024995000213B48E40319501C50CF
:1007B000995015223D4B00201A70B6E63A4BA12104
:1007C0001A68E0235B049343A0220025F024D2059D
:1007D000C900314853502F4B1550D358640463401F
:1007E0008024A40323403CD05450155005222F4BA5
:1007F0002B481A70294B002219684900FCF7E0FECB
:1008000093E6294BA1211A68E0235B049343A022BD
:100810000025F024D205C9001F4853501D4B155028
:10082000D358640463408024A403234026D054504A
:10083000155006221D4B1A70A3E6F0231A4A5B04DA
:100840001168A1240B40A021E400C9050B5100232D
:10085000114C0B51136068E61450535002210322CF
:1008600080E714505350C1E715505350022C0AD062
:10087000042115E714505350042172E714505350CB
:10088000D7E712210CE702210AE7C046482F0020D3
:10089000BC570200040500000C0500004C2F00208E
:1008A000242F0020542F0020442F0020502F002000
:1008B000031C0720032B00D97047012A13D00129FC
:1008C00017D0002908D0022919D15800C3180D48A3
:1008D000C3185A700020EFE75800C3180948C3181E
:1008E0009A700020E8E700220129E8D11A1C0D3295
:1008F000D2B258000349C3185A540020DCE707203D
:10090000DAE7C046742F0020E0231D4ADB00D258EE
:100910001C4B1A400023C10701D5C0239B0213437F
:10092000E0221749D2008B50174B9A58154B1A40AA
:100930000023810701D5C0239B021343E022124903
:10094000D2008B50114B9A580E4B1A40002341078E
:1009500001D5C0239B021343E0220C49D2008B50E7
:100960000B4B9A58074B1A400023010701D5C023AF
:100970009B021343E0220649D20000208B507047AF
:1009800044000050FFFFFCFF480000504C000050A6
:100990005000005008B50320FFF7B6FF031C0020ED
:1009A000002B02D0062B00D0181C08BD10B5038800
:1009B000102B08D0112B05D1294A1368013B136075
:1009C000002B07D010BD264C2368002B11D001331B
:1009D0002360F7E7002002210122FFF769FF0028CA
:1009E0002BD0072829D01F4B1B68002BEAD0984733
:1009F000E8E7002000210122FFF75AFF002808D075
:100A0000072806D0174B1B68002B00D09847236897
:100A1000DDE7012002210722FFF74AFF002801D06D
:100A20000728EFD1002002210422FFF741FF002810
:100A3000EDD00728E6D12368C9E70120022107226B
:100A4000FFF736FF002801D00728CCD10020002175
:100A50000A22FFF72DFF0028B4D00728C3D1B1E741
:100A6000842F0020802F002071DF704772DF7047D5
:100A700079DF70477DDF704765DF7047F0B5048828
:100A8000051C83B00720012C04D01488A01C9842B8
:100A900002D90C2003B0F0BD2E78012E04D16E785F
:100AA00002363619B342F4D3023B1C1B6B460F1CB3
:100AB000A4B20818991D161CDC80FFF7DBFF002884
:100AC000E8D12B78022B18D0012B11D0231C082140
