:1000000000400020211B0000611B0000631B00005A
:1000100000000000000000000000000000000000E0
:10002000000000000000000000000000651B000050
:100030000000000000000000671B0000691B0000BA
:100040006B1B00006B1B0000891200006B1B000083
:100050007D0B0000000000006B1B00006B1B00000C
:100060006B1B00006B1B00006B1B00006B1B000078
:100070006B1B00006B1B00006B1B00006B1B000068
:100080006B1B00006B1B00006B1B00006B1B000058
:100090006B1B00006B1B00006B1B00006B1B000048
:1000A0006B1B00006B1B0000000000000000000044
:1000B0000000000000000000000000000000000040
:1000C00010B5064C2378002B07D1054B002B02D02E
:1000D000044800E000BF0123237010BD7404002019
:1000E00000000000542D000008B5084B002B03D081
:1000F0000748084900E000BF07480368002B00D10B
:1001000008BD064B002BFBD09847F9E70000000024
:10011000542D00007804002070040020000000002E
:10012000164B002B00D1144B9D46402292029A1A86
:10013000924600218B460F461348144A121A00F0CB
:1001400067F80F4B002B00D098470E4B002B00D0C8
:1001500098470020002104000D000D48002802D01F
:100160000C4800E000BF00F02DF82000290001F04D
:100170005FF900F011F8C0460000080000400020C0
:10018000000000000000000074040020C0070020F0
:100190000000000000000000084B10B5041C002BFC
:1001A00002D0002100E000BF054B1868836A002BD5
:1001B00000D09847201C00F033F8C0460000000033
:1001C000142C00000E4B70B500251E1C0D4CE41ABB
:1001D000A410A54204D0AB00F35898470135F8E7C6
:1001E00002F00AFD084B00251E1C084CE41AA4105E
:1001F000A54204D0AB00F35898470135F8E770BD2D
:100200006804002068040020680400206C040020BA
:10021000031C8218934202D019700133FAE7704729
:10022000FEE7C046304B1B78012B00D070472F4BA8
:100230001B681B07FAD1F0222D4B1B68134027D1F6
:100240002C4B1B68134229D0284B1B681B07EDD190
:10025000F022274B1B681340402B32D0244B1A68E6
:10026000F0231340A02B01D0D02BDFD1214B1A68F3
:10027000F0231A42DAD1204A1368012B04D01F4B15
:1002800013601368012BFCD1C0221D4B1A60CDE70F
:10029000102B0FD1174B1B681342D9D1194A1A4B97
:1002A0001A608022194B12021A600F4B1B78012B27
:1002B000CAD0BBE7302BCBD10E4B1B681342C7D142
:1002C000ECE70C4B1B681342C8D1C12380220121EB
:1002D000DB00D205D150044B1B78012BA6D1034B78
:1002E0001B681B07BAD0A1E7E00F00F0E40F00F095
:1002F000E80F00F0EC0F00F000EC064075930000F2
:1003000014EC0640DFFF07C004050040186C0040F5
:10031000002300B585B001AA906000210348138036
:10032000536000F005F805B000BDC0460140000074
:10033000BFF34F8F034A044BDA60BFF34F8FC046C1
:10034000FDE7C0460400FA0500ED00E010B5002905
:100350000DD00923002A01D1181C10BD541E2240C3
:10036000FAD1826001608480C2600023F4E70E232A
:10037000F2E7C046031C10B59C888068DA68121A40
:100380000420944200D210BDDA68002014401A689C
:100390001155DA680132DA60F5E7C04610B58468B5
:1003A000C268031C0520944209D098689A880240CC
:1003B0001868825C00200A709A6801329A6010BD49
:1003C00070B5161C0C1C8D18002A05DD2078013430
:1003D00000F0DEF8AC42F9D1301C70BD10B50C1C39
:1003E000201C00F0BBF80528FAD0012010BDC04643
:1003F00030B5047885B0012C19D0022C34D0002CF3
:1004000001D005B030BD274C274D201C291CFFF71B
:10041000C5FF002823D0A268E3689A42F1D10323E4
:1004200002AA1370214B101C1B689847E9E7436828
:100430001F4D1978281CFFF79DFF002822D1AA68BC
:10044000EB689B1A012B25D0A968AA88EB685B1A78
:100450009A42D6D30121174800F068FED1E7281C44
:10046000012100F001FED6E702AB1C70C368012138
:1004700010480193039300F059FE0C4B02A81B682F
:100480009847BEE702AB1C70084B03901B6802A89C
:100490009847D9E702AB1870044B02A81B6898472D
:1004A000D2E7C0469C040020900400209404002061
:1004B000AC04002098040020F0B51E1C214B051C44
:1004C00089B00C1C1A600720002906D08A881E48B3
:1004D0000968FFF73BFF002801D009B0F0BDA16813
:1004E000A2891A48FFF732FF0028F6D16A46184B56
:1004F000684692CB92C292CB92C212CB12C2AB6828
:1005000006932B7906775A1E934103756B790E2259
:10051000591E8B415B421A404275EB780D4902939C
:10052000AB7803932B7801936B78009300F00CFD6C
:100530000028D2D100F092FE0121074800F0F6FD1C
:10054000CBE7C04694040020AC0400209C040020AB
:10055000182C0000F10300009804002038B50A4C64
:10056000051CA168A288E3685B1A9A4204D0201C8B
:10057000291CFFF713FF38BD0448012100F0D6FD08
:100580000028F4D00520F6E7AC04002098040020F1
:1005900070B50D4D011C281CFFF7ECFE041E01D0A8
:1005A000201C70BD00F0BAFD0028F9D1074E281CB0
:1005B000311CFFF7F3FE0028F2D1301C012100F0BE
:1005C00053FD041CECE7C0469C040020900400206E
:1005D00082B00190019B002B14D0019B0A48013B83
:1005E00001930138C046C046C046C046C046C0461A
:1005F000C046C046C046C046C046C046F1D1019B79
:10060000002BEAD102B07047E7030000F0B54D4679
:1006100044465F465646F0B409AC25880AAC2478B7
:10062000A4460C78002C17D11688B0469226760086
:100630008759B346002F20D0331C243BFF3B845105
:1006400043610B70A8450FD00124201C3CBC904690
:100650009946A246AB46F0BD922200235200835039
:10066000083A8350143A835082235B00C258002A10
:10067000EAD000220024C250E7E78E267600B14679
:100680008659B246002E0BD04E4687515E4686599B
:10069000002E23D05B46C750012343610B70D1E786
:1006A000842464000759002FCCD0564606515C467E
:1006B0000459002C22D111888D42C3D9A324E4000F
:1006C00004595C54138801339BB213806A1E934211
:1006D0001DD09D42B6D001230362B3E711888D423D
:1006E00005D86346002B0FD00123C361ADE7595CE9
:1006F000094BC150138801331380A3E701235A46E5
:10070000865043610B709DE7012343619AE7802384
:1007100002229B00C250DEE71C050000F8B54446EB
:100720005F464D465646F0B40479844660006D4FEE
:1007300080460019000138182030C5790820002DA6
:1007400005D03CBC90469946A246AB46F8BD002970
:1007500000D1C3E04046001900013A503A185360F6
:1007600000239360283293705370A0230A685E4878
:10077000C132FF32DB059200D0504A68C132FF32ED
:100780009200D0500120051C0A689540A122D20099
:100790009D504D68A84098500868544DC130FF30B6
:1007A0008000C5504868C130FF308000C55004202B
:1007B0000138C046C046C046C046C046C046C046D6
:1007C000C046C046C046C046C046F1D1A220C000C7
:1007D000824647480026012583469146524648688E
:1007E0009A58C240154200D075E02A1C0868824021
:1007F00058461A5004200138C046C046C046C0467C
:10080000C046C046C046C046C046C046C046C046B8
:10081000F1D12A1C0868824048461A500420013849
:10082000C046C046C046C046C046C046C046C04698
:10083000C046C046C046C046F1D10136092ECDD1D2
:10084000486801231A1C8240101CA022284DD205A2
:10085000505104200138C046C046C046C046C0467C
:10086000C046C046C046C046C046C046C046F1D19C
:1008700048688340A120C0001350A0220B681A488A
:10088000C133FF33D2059B0098504B68C133FF330F
:100890009B0098506346A1221B680D68D2004868EF
:1008A0009D50134A98508868124A985043461B1925
:1008B0001B01FB58002B06D063461868097B000B10
:1008C00040B200F001FB0123444424013F192037CA
:1008D000FB71002035E7002EB3D1CEE70648210199
:1008E000411837E7BC0400200C0600000D0600008C
:1008F0000C05000024050000382C0000A02203791C
:1009000001680520D20088505A00D318034A1B0101
:10091000D31802222033DA717047C046BC0400208D
:10092000F0B544464D465F465646F0B48BB0019351
:1009300014AB90461A78002306AC89460693636090
:10094000A360E360002A25D19C46059303930279B6
:10095000C223111C0492012205689B005242EA50F6
:100960004B0058189B46824B00019A465044031C8A
:10097000283302935E78F6B2002E11D0C12382682C
:1009800011209B00EA500BB03CBC90469946A24611
:10099000AB46F0BD0123059303931F339C46D6E776
:1009A00001225A7092466246C2614A4662704246CD
:1009B00008920C2294466B46844462469988618072
:1009C0008ACC8AC2246814604246041C0262203425
:1009D000B122231C4C46D200AC50822464002E511C
:1009E0006A4620342E51083C2E51143C2E51F834C6
:1009F0002E510024019F127B9F809A71029B9E8042
:100A00001C7053462B62AB60838D9F4223D8059B9D
:100A1000002B28D05346EB61049A5B469446544A17
:100A200063441B01D258002A20D0514A51499446B0
:100A3000634499609968C12300209B00E950049B9E
:100A40005B441F014A4BDB59002B9CD1484AD21909
:100A50002832537097E74246D45C474BEC50838D65
:100A600001338385D8E753466B61D5E79A46404BFF
:100A700092249C46019BE24400269C46049F64000D
:100A800053462833187800282BD19A882959914643
:100A900000292DD18E225200A85800282DD0A9500F
:100AA0002859002847D02951012169611970CC4586
:100AB000E6D182235B00EB58002BE1D0822300219A
:100AC0003A1C5B000497E95094465B46284A63440D
:100AD00094461B01634428331B78002B3ED003202F
:100AE000ADE78E235B002E51EE50143BEE50E0E755
:100AF0000121285169611970D9E784225200A9584F
:100B00000029D4D0A85029590029F1D1CC45CED9FB
:100B1000A322D200A958484642461154998801316F
:100B200089B299806346013B99421CD08C45BED066
:100B300001232B62BBE7CC4508D942464946505CAD
:100B40004A460D496850511C9980B0E7059B002B1F
:100B500006D001230497EB613A1CB5E700206EE74D
:100B600001236B61A3E7802302219B00E950DFE7AB
:100B7000BC040020860200001C050000F0B54446BD
:100B80005F4656464D46F0B4C14B28211A6A585C60
:100B9000944626229A5C8BB09C8C9046002814D1F7
:100BA0009225BC4A6D0056599F8DAA46002E39D019
:100BB0005051012050615854BC420FD00BB03CBC86
:100BC00090469946A246AB46F0BD92200021B14A1C
:100BD0004000115008381150143811508222AD498C
:100BE000520088580028E9D0002088502820195C3D
:100BF000002928D11E7BB21E012A5AD9191C06AA27
:100C00000C3170C970C2096805A811600022027019
:100C1000292200219954DA695207CFD459681B68F8
:100C20009847CBE78E2040001558A946002D20D0CC
:100C300016505046105800286ED0504616500120CD
:100C400050615854B8E7191C06AA0C3170C970C21B
:100C50000968904C1160904905A8625862500221C1
:100C6000114203D15207D3D50170D1E7012202709E
:100C7000CEE7842040001658002E9DD04D461550DA
:100C800050461058002856D1BC4295D9A321604641
:100C9000C9005158C155998D601E013189B299859D
:100CA00081424ED08C4200D186E70121794A1162FF
:100CB00082E71A6A5C69A242A0D101279A691C8A5C
:100CC00091461A62DA699C8452093A409346262278
:100CD0005D469D54032E39D082266E4A760091518E
:100CE00020369151083E9151143E91519985002131
:100CF0001954012C4BD08021890057500121654A9D
:100D0000116211601968002946D064499960996898
:100D1000C1239B00D15051E7BC4205D84146002970
:100D20000CD00121D16161E76146C85D5C4950503A
:100D30007A1C9A8540E74846554639E701215161BA
:100D40003AE78021022089005050AEE7514EDE3252
:100D5000B1502032B150083AB150143AB150F83283
:100D6000B150998519543762B760002C25D04A4696
:100D70004B49107870509F851A68002A24D0474A42
:100D80009A609968C123434A9B00D15016E780219D
:100D9000022089005050B1E71F1C2C331E1C4D4609
:100DA00028370023009401933A48391C321C2B1C2D
:100DB000FFF72CFC0028F4D100E75A46002A01D0A6
:100DC000F761D9E77761D7E792200132CA46282731
:100DD00000269046A1462F494000DA5D002A21D125
:100DE0000D589C8D002D2FD18E22520094468A588A
:100DF0000392002A1DD062468D500A58002A29D03D
:100E000042460D504A614246DA55A145E5D182225B
:100E1000520094468A58002ADFD0002261461D4BBA
:100E20005A50CBE68E2252000E508E50143A8E50FD
:100E3000EDE784256D004A59002AE6D0039A4A510D
:100E40000D58002D0FD0039A0A5042464A6142467F
:100E5000DA55DAE7A14525D95246155D104A8D507D
:100E6000621C9A85D1E7A145CFD9A3225546D2006D
:100E70008A582A554D469A8D013D013292B29A8583
:100E8000AA4219D09145C0D042460A62BDE7C04689
:100E9000BC04002000400040C404000086020000A2
:100EA0001C0500005A46002A03D00122054BDA61D6
:100EB00084E642464A61A8E78022022592008D50CE
:100EC000E2E7C04600400040F0B5002820DBFF27E5
:100ED0001B4B03229C463B1C8408C026C0B2024028
:100EE000D2009340A4006444B600A5599D438B01F1
:100EF0003B409340191C2943A1511F2318401E3B1E
:100F00008340C022181C0E4B520098501860F0BD50
:100F1000FF260C4A03249446321C0F23C0B204401F
:100F2000E400A2400340083B9B089B006344DD694A
:100F300095438A013240A240111C2943D961DCE764
:100F400000E100E000ED00E0F0B557464E464546B2
:100F5000E0B43B4C031CE27E0820002A04D01CBCF9
:100F600090469946A246F0BD002B67D00122186832
:100F7000A1258240A020ED00C0054251A9460325CD
:100F80001A68AA46C132FF329200155000255A68ED
:100F9000AC46C132FF32920015509F69294A2A4D52
:100FA00057511D7DA84647465D7D3D43274FD5518E
:100FB0005D681F68A846264D57514746254D575135
:100FC0001D7D012D19D19F683E1CE0277F00B8468A
:100FD0004644B70066463E50DE68B5404E468551F1
:100FE0005646DD68C135FF35AD002E504E46D868F7
:100FF0009D689051A220C00015501A69616022605E
:1010000000290DD0197F0023134A14481360144A95
:101010001360C1230B4A9B00D0500220FFF754FFFE
:10102000A0230421074ADB00D15000230122E375ED
:101030002376A375E276A376002090E7094B95E727
:10104000EC04002000200040240500006C05000096
:101050000C050000140500001C2100408000020067
:1010600044210040482C0000F0B5264A041C937D22
:101070001120002B00D0F0BD012591752248234995
:10108000938294600B6005600B60938AE05C938AA6
:101090001F4C01339BB293821E4BE05050680028D6
:1010A00001D00020E7E70027261C1D1C0130FF307F
:1010B000947D938AA34203D312E0938A834202D0A1
:1010C0000B68002BF9D0938A8342F2D00F60938A89
:1010D0009468E45C938A01339BB293827451E7E78E
:1010E0008023918A5B0099420AD008490B68002B43
:1010F000FCD001210020084B196000239375BAE74A
:101100000F20FAE7EC040020082000401C210040DA
:10111000002000401C0500000C200040024B987D80
:10112000431E9841C0B27047EC040020F0B547461A
:1011300080B4444B5A68002A05D08126C224424D0F
:10114000B600A4002E51DC7D002C0DD01C7E002C9E
:101150001DD0002A00D16EE08121C1233A4A8900C6
:101160009B00D15011200FE0D975997ED8605C7634
:101170001C7600292BD0002A0DD08121C12300200C
:10118000314A89009B00D15004BC9046F0BD1861E3
:101190001976002AF1D12D4C2D4D22602A4A2D4876
:1011A0009046A322D2009446296806684A1E9141BF
:1011B0002268C9B2571EBA41D2B2002E10D1002AFD
:1011C00027D10029F0D000220320DA75DCE7204A7D
:1011D0001160204A116001211B4A11605A68CAE758
:1011E0000029F0D1002A16D1D97D002917D101603C
:1011F000624641468A585A7ED97D9142D4D800220F
:10120000DA759B7E002B18D001220F4B00201A604C
:10121000BAE70029D7D100220F20DA75B4E7464695
:10122000614602605A7E7158DE68B1545A7E0132BE
:10123000D2B25A76DFE71120A6E70122064B002042
:101240001A60A1E7EC040020002000404421004087
:10125000242100400821004004200040064A937EDB
:10126000002B07D105490B6005490B600549013387
:101270000B6093767047C046EC04002024210040A8
:101280000821004000200040C12210B5604B9200B0
:101290009A5884B092054DD55E4A1168002949D00C
:1012A000002111608121C2228900920099505A4B7D
:1012B0009A7E002A02D10121584A11600222694611
:1012C0000A7090215248C900425842506946039220
:1012D000DA7D68460A72DA68196801920022DA75C6
:1012E0001A765B6898474E4A1368002B10D04A4B19
:1012F000988A997D81424FD9002111609A8A996814
:10130000895C9A8A013292B29A82464B404AD15005
:10131000454B1A68002A0BD000221A603E4B9A7E79
:10132000002A02D001213A4A1160DA7D002A42D116
:1013300004B010BDC123364A9B00D3585B07D2D5F9
:101340003A490B68002BCED0334BD87D00283FD1D3
:101350000860A321C90052585A7ED97D9142C2D15A
:101360001A7E002A41D19A7E002A02D101212B4AFD
:1013700011608120C22226498000920088500022FC
:1013800068460121DA755A7E01700272DA681968BE
:1013900001925B689847A6E7002010600029B7D04B
:1013A0006A46107011729A689875196801925B68A4
:1013B00068469847ACE7002268460121DA755A7EF4
:1013C00001700272DA68196801925B689847AFE7AA
:1013D00000200860A320C000597E1258D8684254EB
:1013E0005A7E0132D2B25A76B6E7DA751A69D968EE
:1013F000DA6000226C46587E1A765A7601322072E4
:1014000001912270196868465B6898476BE7C0468F
:101410000020004024210040EC0400200420004073
:101420001C2100401C050000442100400821004010
:1014300010B500F053FB0A200C2100F021F83C21EC
:101440000022022000F040F86420FFF7C1F80A48AB
:1014500000F0B4FCFA208000FFF7BAF8074C201C1B
:1014600000F0ACFC00F0EEFA00F06AFAFA2080001E
:10147000FFF7AEF8F3E7C046682C0000782C0000B8
:101480003C220E4B10B51A700D4B3B3A1A70CC2310
:1014900084B05B046A46029303230A4C13730090E2
:1014A0000191201C694600220023FFF737F900282C
:1014B00002D1201CFFF722FA04B010BD1405002051
:1014C0000E0500208C2C0000F0B54746CE4D80B4B0
:1014D000297000210124CD4B061C1870CC48002334
:1014E0000180CC4884B00180CB49CC480C700121EC
:1014F00049420180CA480180CA49CB480C70CB4997
:101500000B7080210180CA480180CA48403901809F
:10151000C9480180C9490B70002A00D0ACE1C84C11
:101520002378002B00D09BE12378002B00D08BE1A7
:101530002378002B00D05AE12378002B00D04AE119
:101540002378002B00D03AE12378002B00D02AE149
:101550002378002B00D01BE12378002B00D00BE177
:101560002378002B00D0FBE02378002B00D0ECE0A8
:101570002378002B00D0DCE02378002B00D0CCE0D7
:101580002378002B00D0BCE02378002B00D0ACE007
:101590002378002B00D089E02378012E00D194E03D
:1015A000002B00D085E12378002B00D090E1237838
:1015B000002B00D09BE12378002B6BD12378002BEC
:1015C0005CD12378002B44D12378012E4FD0002BFF
:1015D00000D062E12378002B2FD12378002B20D17B
:1015E0002378002B11D12378002B0AD00023AF21C0
:1015F00003AA137051709348297800930233FFF7C0
:101600008FF904B004BC9046F0BD0023A62103AAC4
:10161000137051708B48297800930233FFF780F9DB
:10162000E1E70023A42103AA1370517085482978AB
:1016300000930233FFF774F9D2E700232E2103AAA7
:10164000137051707F48297800930233FFF768F9CF
:10165000C3E700238D2103AA1370517079482978BC
:1016600000930233FFF75CF92378012EAFD1002BF2
:10167000B0D0002303AA1370102112E100233021FF
:1016800003AA137051706F48297800930233FFF753
:1016900047F996E70023DB2103AA137051706948CC
:1016A000297800930233FFF73BF987E70023812174
:1016B00003AA137051706348297800930233FFF72F
:1016C0002FF92378012E00D06AE7002B00D026E105
:1016D0002378002B00D016E12378002B00D16AE795
:1016E000002303AA1370222105E10023122103AA7B
:1016F000137051705348297800930233FFF710F9A3
:1017000046E70023DA2103AA137051704D48297867
:1017100000930233FFF704F936E70023C02103AA40
:10172000137051704748297800930233FFF7F8F897
:1017300026E70023A02103AA13705170414829789D
:1017400000930233FFF7ECF816E7002303AA1370A7
:10175000537029783B4800930233FFF7E1F807E71D
:101760000023202103AA1370517036482978009372
:101770000233FFF7D5F8F7E60023402103AA1370E0
:1017800051703048297800930233FFF7C9F8E7E633
:10179000002303AA1370537029782A480093023358
:1017A000FFF7BEF8D8E60023D32103AA13705170C7
:1017B0002448297800930233FFF7B2F8C8E60023E3
:1017C0003F2103AA137051701E48297800930233F9
:1017D000FFF7A6F8B8E60023A82103AA13705170FA
:1017E0001848297800930233FFF79AF8A8E60023F7
:1017F000802103AA13705170124829780093023394
:10180000FFF78EF898E6C046140500201605002064
:101810001A0500201C0500201505002020050020C9
:1018200010050020B90700200A050020B807002095
:101830000C05002012050020180500201E050020C0
:101840000E0500208C2C00000023D52103AA137064
:1018500051703948297800930233FFF761F867E641
:101860000023AE2103AA13705170334829780093E6
:101870000233FFF755F857E6A123A027DB0098466F
:10188000FF05FC500120FEF7A3FE2C4B0A20FC5064
:10189000FEF79EFE4346FC5041E60023142103AAB6
:1018A000137051702978244800930233FFF738F8F9
:1018B00090E60023CF2103AA137051701E482978A7
:1018C00000930233FFF72CF82378002B00D16EE64B
:1018D0000023D92103AA1370517017482978009367
:1018E0000233FFF71DF82378002B00D163E60023B5
:1018F000F12103AA1370517029780F480093023325
:10190000FFF70EF857E60023D92103AA1370517090
:101910000948297800930233FFF702F8DCE6002338
:101920009F2103AA13705170034829780093023352
:10193000FEF7F6FFCCE6C0468C2C00000C0500003C
:1019400030B53B4C85B02378002B64D12378002B35
:1019500055D12378002B45D12378002B35D123781E
:10196000002B26D12378002B16D12378002B11D001
:101970000123304C304D314A2978201C0093FEF76A
:10198000CFFF0023297800938023201C2C4ADB0002
:10199000FEF7C6FF05B030BD0721002303AA517032
:1019A000254913700978234800930233FEF7B8FFE6
:1019B000DBE70023204903AA1370537009781D4800
:1019C00000930233FEF7ACFFCCE72221002303AAE9
:1019D0005170194913700978164800930233FEF7C5
:1019E0009FFFBCE77F21002303AA517012491370A7
:1019F0000978104800930233FEF792FFACE700230A
:101A00000D4903AA1370537009780A4800930233F2
:101A1000FEF786FF9DE72121002303AA51700649A6
:101A200013700978034800930233FEF779FF8DE7BE
:101A30000E0500208C2C00001405002064040020FA
:101A400064000020802208B502480021D200FEF781
:101A5000DFFB08BD6400002038B50478012C03D0FA
:101A6000002C05D0022C02D14068FEF751FC38BD95
:101A7000154D281CFEF772FD2878FEF789FD2B789E
:101A80007B2B18D07D2B09D010490A7850B2002842
:101A900017DB501C08700E498B54E8E70B4B0C49C0
:101AA0001A780C488C5401311C7000F0F1F80122B6
:101AB000094B1A70DBE70121044A1170044A1370C4
:101AC000D5E70C70D3E7C046A4060020A807002085
:101AD00024060020A02C00000805002030B589B0A5
:101AE00001A8021C0A4B32CB32C20A4B0A4A0493A9
:101AF00080235B0005930692079304A9074AFD3BE8
:101B0000FEF7DAFC002801D0FEF702FC09B030BD78
:101B1000942C000024050020A8060020591A00007B
:101B200003210A4802680A430260094802680A431E
:101B300002600849084A094B9B1A03DD043BC85858
:101B4000D050FBDCFEF76EFBFEF7EAFA24050040FE
:101B500054050040602D00000000002074040020A7
:101B6000FEE7FEE7FEE7FEE7FEE7FEE700224308AA
:101B70008B4274D303098B425FD3030A8B4244D355
:101B8000030B8B4228D3030C8B420DD3FF22090297
:101B900012BA030C8B4202D31212090265D0030B56
:101BA0008B4219D300E0090AC30B8B4201D3CB034C
:101BB000C01A5241830B8B4201D38B03C01A52418E
:101BC000430B8B4201D34B03C01A5241030B8B4290
:101BD00001D30B03C01A5241C30A8B4201D3CB027B
:101BE000C01A5241830A8B4201D38B02C01A524160
:101BF000430A8B4201D34B02C01A5241030A8B4263
:101C000001D30B02C01A5241CDD2C3098B4201D37A
:101C1000CB01C01A524183098B4201D38B01C01AF8
:101C2000524143098B4201D34B01C01A524103096F
:101C30008B4201D30B01C01A5241C3088B4201D31E
:101C4000CB00C01A524183088B4201D38B00C01ACB
:101C5000524143088B4201D34B00C01A5241411AF2
:101C600000D20146524110467047FFE701B50020FF
:101C700000F00CF802BDC0460029F7D003B5FFF70D
:101C800075FF0EBC4243891A1847C0467047C046CC
:101C90000FB40B4B13B51C68002C05D0A369002BA7
:101CA00002D1201C00F058FA05AB201CA168049A50
:101CB000019300F001FC16BC08BC04B01847C046F4
:101CC0006000002070B5051C0E1C002804D083693C
:101CD000002B01D100F040FAAB69AC68002B02D1B7
:101CE000281C00F039FA324B9C4201D16C6808E0A4
:101CF000304B9C4201D1AC6803E02F4B9C4200D199
:101D0000EC68A3891B0702D52369002B19D1281C75
:101D1000211C00F0B5F8002813D00120404245E016
:101D20003178002B1BDAA269934211DA221C281C9D
:101D300000F04EF8013042424241D0B20028ECD1CE
:101D40000136A3683278013BA360002AE8D10CE099
:101D500023681970236819780A2903D1E6E72368F4
:101D60001970236801332360EAE7002B17DAA269B0
:101D7000934208DB0A2322681370236819780A2922
:101D800011D1281C01E0281C0A21221C00F020F897
:101D9000013042424241D0B2002806D0BDE70A23BA
:101DA000226813702368013323600A2070BDC04687
:101DB000C02C0000E02C0000002D000008B5034BF3
:101DC000011C1868FFF77EFF08BDC04660000020B8
:101DD00070B5051C0E1C141C002804D08369002B50
:101DE00001D100F0B9F9234B9C4201D16C6808E0A5
:101DF000214B9C4201D1AC6803E0204B9C4200D1B6
:101E0000EC68A369A360A3891B070AD52369002B8B
:101E100007D023682269F6B2981A636998420FDBEB
:101E200008E0281C211C00F02BF80028F1D001202C
:101E300040421DE0281C211C00F020F90028F6D1AA
:101E4000A3680130013BA36023685A1C22601E7006
:101E50006369984205D0A389301CDB0708D50A2E98
:101E600006D1281C211C00F009F90028DFD1301C04
:101E700070BDC046C02C0000E02C0000002D00000A
:101E8000354B70B51D68061C0C1C002D05D0AB69C8
:101E9000002B02D1281C00F05FF9304B9C4201D18D
:101EA0006C6808E02E4B9C4201D1AC6803E02D4BDE
:101EB0009C4200D1EC68A3899AB2110723D4D106C1
:101EC00007D409220120326037321343A3814042F4
:101ED00040E0530713D5616B002908D0231C44331D
:101EE000994202D0301C00F021FA002363632422BF
:101EF000A3899343A381002363602369236008229D
:101F0000A3891343A3812369002B0BD1A023A289AA
:101F10009B00134080229200934203D0301C211C6E
:101F200000F0ACF90123A289134005D00023A3607F
:101F300063695B42A36103E0910700D46369A36016
:101F400000202369834205D1130603D540231A4399
:101F5000A281013870BDC04660000020C02C000086
:101F6000E02C0000002D0000F7B58A89051C0C1C30
:101F700013075ED44B68002B02DC0B6C002B1ADDC0
:101F8000E76A002F17D000232E682B6080235B01A7
:101F90001A4001D0626D15E0281C216A0123B84760
:101FA000021C431C0ED12B68002B0BD01D2B01D023
:101FB000162B02D12E6000205EE04021A3890B4346
:101FC000A38159E0A3895B0706D56368D21A636BC6
:101FD000002B01D0236CD21A0023281C216AE76A47
:101FE000B847A389421C06D12A68002A03D01D2ABB
:101FF00001D0162A19D10022626022692260DB0416
:1020000005D5431C02D12B68002B00D16065616BA4
:102010002E600029CFD0231C4433994202D0281CC3
:1020200000F084F90020606326E040221343A3817E
:1020300022E00F69002FBED00B680F60DB1B0193FD
:102040000023920700D14B69A360019B002BB2DDF6
:10205000281C216A3A1C019BA66AB047002806DCAE
:1020600040220120A38940421343A38104E0019B45
:102070003F181B1A0193E8E7FEBD000038B50B6955
:10208000051C0C1C002B01D100201CE0002804D0F2
:102090008369002B01D100F05FF80B4B9C4201D10A
:1020A0006C6808E0094B9C4201D1AC6803E0084B26
:1020B0009C4200D1EC680C22A35E002BE4D0281CCB
:1020C000211CFFF751FF38BDC02C0000E02C0000A0
:1020D000002D000008B5024900F0AEF808BDC0466A
:1020E0007D200000002310B5041C03604360836062
:1020F00081814366C281036143618361191C0822A7
:102100005C30FEF785F8054B24626362044BA362E2
:10211000044BE362044B236310BDC046092A000050
:10212000312A0000692A0000952A000070B5682550
:102130004B1E5D430E1C291C743100F03DF9041E3A
:1021400008D000212A1C016046600C30A060683273
:10215000FEF75EF8201C70BD836913B5002B28D1F3
:102160008364C3640365134B134A1B688262019343
:10217000984201D101238361041C00F01FF86060C4
:10218000201C00F01BF8A060201C00F017F80421B0
:10219000E06000226068FFF7A5FFA0680921012226
:1021A000FFF7A0FFE06812210222FFF79BFF012347
:1021B000A36113BD142C0000D5200000F8B51D4B01
:1021C000061C1D68AB69002B02D1281CFFF7C4FF59
:1021D0004835AC686B68013B05D40C22A75E002F24
:1021E00010D06834F7E72B68002B06D1301C04218F
:1021F000FFF79CFF2860002801D02D68E9E70C2339
:10220000336016E00123201C5B42E3810233A3818B
:1022100067662760A760676027616761A7615C30B8
:10222000391C0822FDF7F4FF201C6763A763A7642D
:10223000E764F8BD142C0000F7B5041C071C002649
:1022400001914834002C16D06368A5680093009B68
:10225000013B00930DD4AB89012B08D90E22AB5E54
:10226000013304D0381C291C019B9847064368356C
:10227000EDE72468E6E7301CFEBD0000F0B58B8971
:1022800091B09B0706D50B1C47330B600B610123F4
:102290004B6145E00C1C0E23C95E061C002904DAC4
:1022A0008023A5891D4010D10CE001AA00F01EFC7E
:1022B0000028F5DBF023029D1B021D40194BED1891
:1022C0006B425D418027FF0001E000254027301C64
:1022D000391C00F071F800280CD1A3899A051FD48D
:1022E00002221343A381231C47332360236101236C
:1022F000636115E080220C4BB362A3892060134315
:10230000A38120616761002D0AD00E23E15E301C9D
:1023100000F0FEFB002803D00122A3891343A38110
:1023200011B0F0BD00E0FFFFD520000030B500295E
:102330003ED004390B68002B00DAC9181D4A136817
:10234000141C002B02D14B60116031E099420DD278
:1023500008680A189A4203D11368C3180B605368BF
:102360004B60216024E08A4203D8131C5A68002A7B
:10237000F9D11D685C198C420BD10968691858188D
:102380001960904214D110685268091819605A6097
:102390000EE08C4202D90C23036009E008680C1897
:1023A000944203D114685268001908604A60596069
:1023B00030BDC046B0070020032370B5CC1C9C4341
:1023C0000834051C0C2C01D20C2405E0002C03DA87
:1023D0000C2300202B6042E08C42F9D3204A136882
:1023E000101C191C002913D00A68121B0DD40B2ACB
:1023F00002D90A608B181FE08B4202D15A68026032
:102400001BE04A685A600B1C17E00B1C4968E9E79F
:10241000144E3368002B03D1281C00F0E3FA30601F
:10242000281C211C00F0DEFA031C421CD0D0032221
:10243000C61C964386420AD11C60181C07210B302B
:102440001A1D8843821A0AD05142995007E0311A66
:10245000281C00F0C7FA431CBAD0331CECE770BD4F
:10246000B0070020AC070020936810B5013B9360D3
:10247000002B05DA9469A34208DBCBB20A2B05D006
:102480001368581C10601970C8B201E0FFF7A0FC77
:1024900010BDF8B5061C0F1C141CD518AC4208D092
:1024A0002178301C3A1CFFF7DFFF0134431CF5D1C3
:1024B00000E00020F8BD0000F0B59FB0061C0F1C26
:1024C00002920593002804D08369002B01D1FFF705
:1024D00043FE794B9F4201D1776808E0774B9F42DA
:1024E00001D1B76803E0764B9F4200D1F768BB8902
:1024F0001B070AD53B69002B07D0002306AD6B6193
:1025000020336B761033AB763DE0301C391CFFF77F
:10251000B7FC0028F1D001204042CAE0059A111D05
:1025200012680591002A7EDB0992013423782E2B54
:1025300000D189E021786348032200F00FFB0028D6
:1025400008D0604B0134C01A40238340181C2B680C
:10255000184328602178631C5B4806220293297681
:1025600000F0FCFA002800D191E0584B002B00D07D
:1025700084E00722059B07339343083305936B6977
:10258000039A9B186B61029C2378002B04D1029B59
:10259000E31A049311D003E0252BF8D00134F3E7BC
:1025A000049B301C391C029AFFF773FF431C7BD03D
:1025B0006A69049B944663446B612378002B73D053
:1025C0000122002352426A6002A954325218013497
:1025D0002B60EB60AB601370AB6521783C48052243
:1025E00000F0BCFA002809D0394B0134C01A01238D
:1025F0008340181C2B6818432860EEE72B68DA0626
:1026000004D55322202102A8121811701A0704D5EC
:1026100053222B2102A81218117022782A2A00D1E5
:102620007CE7099B05E05242EA60022213432B60DB
:102630007BE72278303A092A04D80A214B43013437
:102640009B18F6E7099371E763782A2B09D1059B5C
:1026500002341A1D1B680592002B0DDA01235B4220
:102660000AE0002301342278303A092A04D80A21EA
:102670004B4301349B18F6E707935BE705AB0093E8
:10268000301C291C3A1C134B00E000BF07E005ABCF
:102690000093301C291C3A1C0E4B00F08BF8039061
:1026A000039B013300D06AE7BB895B0600D532E7A4
:1026B0000B981FB0F0BDC046C02C0000E02C0000FD
:1026C000002D0000262D00002A2D00000000000033
:1026D000202D000093240000F7B5171C01930A6910
:1026E0008B6800900C1C934200DA131C221C3B6088
:1026F00043321278002A01D001333B6023689B06E5
:1027000002D53B6802333B60062523681D401ED07E
:10271000231C43331B785A1E9341226892061CD512
:102720003020E1184031C870211C5A1C453109780D
:10273000A21840320233D1700FE0221C012300980E
:1027400001991932089EB047431C0ED00135E36849
:102750003A689B1A9D42F0DBDAE7221C0098019947
:102760004332089DA847431C02D10120404220E08B
:1027700006232068E1683A6803400025042B03D152
:102780008D1AEB43DB171D40A3682269934201DDDC
:102790009B1AED180027AF420ADA221C0123009889
:1027A00001991A32089EB047431CDED00137F2E788
:1027B0000020FEBDF0B58BB006920A1C4332079391
:1027C000059004920A7E0C1C109B6E2A00D1A8E092
:1027D00011D8632A22D009D8002A00D1B2E0582AA1
:1027E00000D0C2E045310A707C4A4FE0642A1DD017
:1027F000692A1BD0B9E0732A00D1A7E009D86F2A53
:1028000029D0702A00D0B0E0202209680A43226053
:1028100037E0752A1FD0782A33D0A6E00E1C1A683C
:102820004236111D196013683370A1E021681A68DF
:10283000080606D4490604D5111D19600023D55E8B
:1028400002E0111D19601568002D3BDA2D23049A52
:102850006D42137036E021681A68080606D44906EE
:1028600004D51568111D1960ADB202E0111D196083
:1028700015685A4B227E03930A276F2A1DD1082719
:102880001BE0221C782145321170554A19680392C9
:10289000081D226818600D68100602D4500600D585
:1028A000ADB2D30702D520231A4322601027002D92
:1028B00003D1202322689A432260231C0022433341
:1028C0001A7002E00A27454B03936368A360002B4C
:1028D00003DB0422216891432160002D02D1049E74
:1028E000002B0ED0049E281C391CFFF7C5F9039B52
:1028F000013E5B5C281C3370391CFFF737F9051E5D
:10290000F1D1082F09D12368DB0706D56368226956
:10291000934202DC3023013E3370049B9B1B2361F6
:102920002BE009681A68080607D4490605D5111D69
:1029300019601368A28A1A8004E0111D19601368D7
:1029400062691A600023049E236116E01A68111D53
:10295000196016680021301C626800F0FFF800283A
:1029600001D0801B6060636803E0261C4236327031
:10297000012323610023049A1370079B0598009399
:10298000211C069B09AAFFF7A7FE431C02D10120C8
:10299000404221E0236905980699321C079DA8470B
:1029A000431CF4D023689B0705D4099BE068984238
:1029B00012DA181C10E00025E368099A9B1A9D4260
:1029C000F3DA221C0123059806991932079EB047B5
:1029D000431CDCD00135EFE70BB0F0BD312D00001A
:1029E000422D000038B50023064C051C081C23604E
:1029F00000F0F4F8431C03D12368002B00D02B60B7
:102A000038BDC046BC07002038B50C1C0E25495FF8
:102A100000F0B0F8002803DB636D1B18636503E06A
:102A2000A289024B1340A38138BDC046FFEFFFFFD0
:102A3000F8B51E1C8B89051C0C1C171CDB0505D565
:102A40000E23C95E0022022300F074F8A289054B10
:102A5000281C1340A3813A1C0E23E15E331C00F0B6
:102A60001FF8F8BDFFEFFFFF38B50C1C0E25495FBE
:102A700000F060F8A389421C03D1054A1340A381EA
:102A800004E0802252011343A381606538BDC04633
:102A9000FFEFFFFF08B50E23C95E00F015F808BD73
:102AA00038B5051C0020074C2060081C111C1A1C9E
:102AB000FDF786FC431C03D12368002B00D02B605C
:102AC00038BDC046BC07002038B50023064C051CA5
:102AD000081C236000F062F8431C03D12368002B1C
:102AE00000D02B6038BDC046BC07002038B500239D
:102AF000064C051C081C111C236000F057F8431CF1
:102B000003D12368002B00D02B6038BDBC07002008
:102B100038B50023064C051C081C236000F04EF855
:102B2000431C03D12368002B00D02B6038BDC04666
:102B3000BC07002038B5051C0020074C2060081C8D
:102B4000111C1A1C00F042F8431C03D12368002B0F
:102B500000D02B6038BDC046BC070020C9B2821827
:102B6000904204D003788B4202D00130F8E7002075
:102B70007047000038B5051C0020074C2060081C79
:102B8000111C1A1CFDF72AFC431C03D12368002BDF
:102B900000D02B6038BDC046BC0700205822012061
:102BA000014B40421A607047BC07002058220120A8
:102BB000014B40421A607047BC0700205822024B6C
:102BC00000201A607047C046BC0700205822012030
:102BD000014B40421A607047BC070020044A13684A
:102BE000002B03D018181060181C7047014BF9E730
:102BF000B4070020C0070020F8B5C046F8BC08BCE8
:102C00009E467047F8B5C046F8BC08BC9E46704763
:102C10004300000000000020090000000B0000003D
:102C20000A00000008000000000000000000000092
:102C300000E0D701030000000A0000000C000000C3
:102C40000000980103000000090000000B000000D4
:102C50000A00000008000000000000000000000062
:102C600000E0D701030000002D2D2D2053544152C8
:102C700054202D2D2D0000002D2D2D20474F474F86
:102C8000474F474F202D2D2D0000000000400040F1
:102C9000000000000B09080A0000000000E0D70156
:102CA0000D0A2A2072656365697665642073747203
:102CB000696E67203D205B25735D0D0A00000000F2
:102CC0000000000000000000000000000000000004
:102CD00000000000000000000000000000000000F4
:102CE00000000000000000000000000000000000E4
:102CF00000000000000000000000000000000000D4
:102D000000000000000000000000000000000000C3
:102D100000000000000000000000000000000000B3
:102D2000232D302B2000686C4C00656667454647B4
:102D30000030313233343536373839414243444537
:102D400046003031323334353637383961626364A6
:082D50006566000000000000B0
:082D5800C8D3FF7F0100000059
:102D600000000000C02C0000E02C0000002D00003E
:102D70000000000000000000000000000000000053
:102D8000102C000000000000000000000000000007
:102D90000000000000000000000000000000000033
:102DA0000000000000000000000000000000000023
:102DB0000000000000000000000000000000000013
:102DC00000000020000000000000000000000000E3
:102DD00000000000000000000000000000000000F3
:102DE00000000000000000000000000000000000E3
:102DF00000000000000000000000000000000000D3
:102E00000000008080800000000000000000000042
:102E100000000000008080C0C00000000000000032
:102E200000000000000000000000000000000000A2
:102E30000000000000000000000000000000000092
:102E40000000000000000000000000000000000082
:102E5000000000000000000080C0E0F0F8FCF8E096
:102E60000000000000000000000000000000000062
:102E70000080808080800080800000000080808052
:102E8000808000FFFFFF0000000080808080000045
:102E90008080000080FFFF80800080800080808034
:102EA000800080800000000000808000008C8E8404
:102EB000000080F8F8F8800000000000000000002A
:102EC00000000000F0F0F0F0F0F0F0F0F0F0F0F0C2
:102ED000E0E0C08000E0FCFEFFFFFF7FFFFFFFFFA0
:102EE000FF0000000000000000000000000000FEE5
:102EF000FFC70101010183FFFF00007CFEC7010144
:102F0000010183FFFFFF0038FEC78301010183C772
:102F1000FFFF000001FFFF010100FFFF07010101AA
:102F200000007FFF80000000FFFF7F0000FFFFFF29
:102F3000000001FFFFFF0100000000000000000092
:102F400000000000030F3F7F7FFFFFFFFFFFFFFF39
:102F5000E7C7C78F8F9FBFFFFFC3C0F0FFFFFFFF13
:102F6000FFFCFCFCFCFCFCFCFCF8F8F0F0E0C00012
:102F70000103030303030103030000000001030333
:102F80000303010103010000000103030303010126
:102F9000030300000003030000000303000000001F
:102FA000000000010303030303010000000103010B
:102FB000000000030301000000000000000000000A
:102FC0000000000000000080C0E0F0F9FFFFFFFFFC
:102FD000FF3F1F0F87C7F7FFFF1F1F3DFCF8F8F8E3
:102FE000F87C7DFFFFFFFFFFFFFFFF7F3F0F070024
:102FF0003030000000000000000000000000000071
:103000000000000000000000FEFEFC0000000000C8
:1030100000000000000000000000000000000000B0
:1030200000E0C000000000000000000000003030A0
:103030000000000000000000000000000000000090
:103040000000000000C0FEFFFFFFFFFFFFFFFFFFCB
:103050007F7F3F1F0F071F7FFFFFF8F8FFFFFFFF76
:10306000FFFEF8E00000000100000000000000008A
:10307000FEFE000000FCFEFC0C06060EFCF8000044
:10308000F0F81C0E0606060CFFFFFF0000FEFE0017
:10309000000000FCFEFC00183C7E66E6CE840000CA
:1030A00006FFFF0606FCFEFC0C0606060000FEFE00
:1030B0000000C0F8FC4E4646464E7C7840183C76F0
:1030C000E6CECC8000000000000000000000000000
:1030D000000000000000000001070F1F1F3F3F3FDE
:1030E0003F1F0F0300000000000000000000000070
:1030F0000F0F0000000F0F0F000000000F0F000067
:1031000003070E0C18180C060F0F0F0000010F0E0E
:103110000C180C0F070100040E0C180C0F07000010
:10312000000F0F00000F0F0F0000000000000F0F36
:1031300000000007070C0C181C0C060600040E0CFF
:10314000180C0F0700000000000000000000000045
:10315000000000000000000000000000000000006F
:10316000000000000000000000000000000000005F
:10317000000000000000000000000000000000004F
:10318000000000000000000000000000000000003F
:10319000000000000000000000000000000000002F
:1031A000000000000000000000000000000000001F
:1031B000000000000000000000000000000000000F
:1031C0000000000040000000E9000000C100000015
:0431D00000000000FB
:0400000300001B21BD
:00000001FF
