:020000021000EC
:10B0000000400020C1F2010001F3010003F3010040
:10B010000000000000000000000000000000000030
:10B0200000000000000000000000000005F3010027
:10B03000000000000000000007F3010009F3010018
:10B040000BF301000BF3010055C801000BF30100E5
:10B050000BF30100000000006DC201000BF30100C2
:10B060000BF301000BF301000BF301000BF30100E4
:10B070000BF301000BF301000BF301000BF30100D4
:10B080000BF3010035B501000BF301000BF30100D8
:10B0900011B601000BF3010031F201000BF30100C6
:10B0A0000BF301000BF301000000000000000000A2
:10B0B0000000000000000000000000000000000090
:10B0C00010B5064C2378002B07D1054B002B02D07E
:10B0D000044800E000BF0123237010BD7820002049
:10B0E00000000000E404020008B5084B002B03D068
:10B0F0000748084900E000BF07480368002B00D15B
:10B1000008BD064B002BFBD09847F9E70000000074
:10B11000E40402007C2000207420002000000000D5
:10B12000164B002B00D1144B9D46402292029A1AD6
:10B13000924600218B460F461348144A121A00F01B
:10B1400067F80F4B002B00D098470E4B002B00D018
:10B1500098470020002104000D000D48002802D06F
:10B160000C4800E000BF00F02DF82000290002F09C
:10B1700009FB00F011F8C046000008000040002064
:10B18000000000000000000078200020202900209E
:10B190000000000000000000084B10B5041C002B4C
:10B1A00002D0002100E000BF054B1868836A002B25
:10B1B00000D09847201C00F033F8C0460000000083
:10B1C000CC0202000E4B70B500251E1C0D4CE41A7B
:10B1D000A410A54204D0AB00F35898470135F8E716
:10B1E00005F066F8084B00251E1C084CE41AA41054
:10B1F000A54204D0AB00F35898470135F8E770BD7D
:10B200006C2000206C2000206C200020702000208A
:10B21000031C8218934202D019700133FAE7704779
:10B22000FEE7C046F8B54D465F4656464446F0B484
:10B23000224B1978994600292AD0214B002598469F
:10B24000204B214F01269A4603E00135EDB28D4295
:10B250001ED243461B68321C9C46EC006444207896
:10B260003B6882401342F0D093433B6000F0F4FF10
:10B27000331C22785146934009680B40011C9140D1
:10B280008B420BD04B4601351978EDB28D42E0D39D
:10B290003CBC90469946A246AB46F8BD61686378CF
:10B2A0008B460029EED0591E4C424C41211A4B428C
:10B2B0004B41101CD9B2D847E4E7C0469C2000207F
:10B2C00098200020C0200020C4200020F8B5124D96
:10B2D000071C281C00F0C8FC002807D10124BC4032
:10B2E0000E4E3368234202D0A3433360F8BD381CAE
:10B2F00000F0B2FF0A4A136800280BD02343136002
:10B300003368281C1C43074B00221968346000F086
:10B310002FFCEBE7A343F2E7A0200020C42000208D
:10B32000C020002094200020F0B54F464646C0B40F
:10B33000141C071C83B00E1C0720042A04D803B079
:10B340000CBC90469946F0BD00F07AFE00282FD044
:10B350001A4B1B4A1F601B4B751E1E701A4BEDB219
:10B360001C6000231360194A1360002E1AD0184B7A
:10B3700001AC994603230026984600E01D1C424676
:10B38000EB00FB182270A670E6709A78187862704D
:10B39000211C4A4600F05EFE0028D0D16B1EDBB2B5
:10B3A000002DEBD100210B4A0B4800F0C7FBC6E78C
:10B3B00000F012FE0028CBD0C1E7C0469820002044
:10B3C000C02000209C20002094200020C4200020C9
:10B3D000CDB2010025B20100D002020070B5094DC6
:10B3E0002B78002B0BD00024074E3268E300985CCA
:10B3F000012100F0DDFE2B780134A342F5D80020B6
:10B4000070BDC0469C20002098200020002300B57D
:10B4100085B001AA9060002103481380536000F0BA
:10B4200005F805B000BDC04601400000BFF34F8FD6
:10B43000034A044BDA60BFF34F8FC046FDE7C046B6
:10B440000400FA0500ED00E010B500290DD0092335
:10B45000002A01D1181C10BD541E2240FAD182606E
:10B4600001608480C2600023F4E70E23F2E7C04647
:10B47000031C10B59C888068DA68121A0420944274
:10B4800000D210BDDA68002014401A681155DA683D
:10B490000132DA60F5E7C04610B58468C268031C63
:10B4A0000520944209D098689A8802401868825C06
:10B4B00000200A709A6801329A6010BD80218023B2
:10B4C000184A8902D1508022D221174B520289009A
:10B4D0005A5040395A5001222F205A600138C04634
:10B4E000C046C046C046C046C046C046C046C0462C
:10B4F000C046C046C046F1D19A6000230B4A2F20B7
:10B5000013600138C046C046C046C046C046C0466B
:10B51000C046C046C046C046C046C046F1D1044AF7
:10B520001370704700E100E000100140C8200020C7
:10B53000E8200020A021F0B5002347462B4A49000F
:10B5400080B453500431535004315350043153509C
:10B550004C39535004315350254B1B68002B35D0C8
:10B560002449002652582449244F0C68141B0022F9
:10B570002402240A904602E0002D18D02B1C1A68E1
:10B58000A24214D8A41AB6181A7CDD69002AF3D096
:10B59000424699691A745A693B68002B19D0101CED
:10B5A00098470028E8D0FFF731FF002DE6D1144B73
:10B5B00014491A780B789A420ED0134A9B009E5079
:10B5C00080218023114A49035B00D15004BC90467E
:10B5D000F0BD081C9047CFE70132D3B2022B01D057
:10B5E0000B70EAE700230B70E7E7C046001001404C
:10B5F000CC20002004050000C8200020D02000201E
:10B60000DC200020DD200020E020002000E100E020
:10B61000F0B55F4656464D464446F0B4B44BB54A85
:10B620001B68B54989B0019309781378994200D114
:10B63000B1E10133DBB2022B00D100231370AF4A1A
:10B640009B009B58AA4A9946019B4B441B021B0A2C
:10B65000136001230493AA4B00241B689B46A94B4B
:10B66000D8461B781A1C0293A74B944607931B6875
:10B6700003939F4B1B680693A44B1B7805935B4673
:10B680006646013EF2B29446FF2A4FD06246D00091
:10B69000039A9246504401784578A942F0D04A0076
:10B6A0005218877801314668C9B27F1AB2467E1EA9
:10B6B000B741D2007F42524439401778022F0AD056
:10B6C000032FEAD1002BE8D01C74DB69002BFBD1DF
:10B6D00045789846E1E75668002B25D09E421AD05F
:10B6E0001F1C00E0171CFA69002AD6D09642F9D137
:10B6F000321C3D1CBE4200D1EBE01768D269EA6102
:10B70000002A06D013689A46574417604578434686
:10B71000C3E74578C1E7DE691A1C002E00D1DDE0E1
:10B72000B046331C151CE8E70023B6E76946774AA4
:10B73000097D181C11706E4A0699039311604146E9
:10B740006F4A1160049A002A00D028E15B461B1A58
:10B750005A1E93410025DBB20493079B00271B6808
:10B76000039E0693624B1B689C46654B1B689A467A
:10B77000664B1B780593664B019301239846029B09
:10B78000013BDBB20293FF2B00D18FE0069ADB0076
:10B7900093469B44002D27D06968AB68281CED694F
:10B7A0006246019C8A1A1202120AA24250D8D31889
:10B7B00042460360476087600274C761002E56D01E
:10B7C0003168341C994204D35FE01168994263D216
:10B7D000141CE2695B1A002AF7D10360331CC261B2
:10B7E000E0611E1C002DD7D15B465A461B7852786B
:10B7F0009A42C4D0594649685A0089465946D218D7
:10B800000133DBB20B708978D2004A4499424AD0A6
:10B8100011785068331C0129E3D1037C99464946CD
:10B82000331C0029DDD191684160D36883601469BD
:10B83000C46052698261059A002AB1D04A4600214B
:10B8400042606246019C8A1A1202120AA242AED9D2
:10B850006246511A0902090A99420CD242465B1A01
:10B860000360476087600274C761002EA8D1031C83
:10B8700082461E1CB6E74346076047608760037434
:10B88000C761002EF3D000233168CB1A3360031C4C
:10B89000C66182461E1CA5E7C91A11600360C26119
:10B8A000331CE0619DE75B461D70B1E75246144BC7
:10B8B0001A60039BB3422FD1049B002B2CD1002391
:10B8C000124A137009B03CBC90469946A246AB465A
:10B8D000F0BDDE693A1C002E00D021E701250D4B9A
:10B8E0009D600023069601369846151C059604E7D0
:10B8F000C8200020DC200020DD200020E0200020E7
:10B90000CC200020D4200020D8200020DE200020E1
:10B91000FEFF7F0000100140002E63D0484B4949D4
:10B920003568CC58484B494E1B683078E21A1202F1
:10B93000120A03329046002861D04246AA4200D241
:10B940002A1CA820D21812023E49130AC0003C4DFE
:10B950000B504A591B1B121B1202120A1B02033204
:10B960001B0A9A42ABD94B590B502F200138C046C5
:10B97000C046C046C046C046C046C046C046C04697
:10B98000C046C046C046F1D180218023304A89029A
:10B990005B00D15093E70023994604935BE60025B2
:10B9A000002100244846464613E01A6882421CD80B
:10B9B000DE68801A89181C60DF69002E07D0DD61FF
:10B9C0001D1C019A9E608A181202120A5A603B1CC2
:10B9D0003E1C002BE9D11F4B1E6000230393013353
:10B9E0000493BAE6FFF76AFD69E7814619490393B4
:10B9F0000E604946521A1A6001230493ADE6802076
:10BA0000D1274002BF00C851403FC851C022802703
:10BA10000F48BF0252008750076001272F200F6098
:10BA20000138C046C046C046C046C046C046C046B3
:10BA3000C046C046C046C046C046F1D137707CE71C
:10BA40000405000000100140C8200020E82000206C
:10BA500000E100E0CC200020F8B54F464646C0B4D7
:10BA60000326351C80460F1C141C994615400720E0
:10BA7000002D03D00CBC90469946F8BD002A44D056
:10BA8000FFF71CFD4A46224B80201A60221C214BE6
:10BA900018321E70204B62601C607B00DB19DB00DB
:10BAA000D218E260D318C022636125706570A77058
:10BAB00025726572A77225746574A774C524FF2169
:10BAC000164B40031D60164B52001D70154BA40011
:10BAD0001D70154B98501A598A433F390A431A5121
:10BAE000A122186040461149D2008850C42080002D
:10BAF0001C580F4A2240C024240222431A500D4BE6
:10BB00000020CA580C4B1A60B4E7034B1A60B1E727
:10BB1000D0200020D4200020D8200020CC200020DD
:10BB2000DC200020DD20002000E100E000100140CA
:10BB3000FF00FFFF04050000C820002010B50B4BDC
:10BB40001B68002B0BD0002A07D0002805D0036803
:10BB500008201C7C002C04D010BD0720FCE7082026
:10BB6000FAE759745A610020F6E7C046D820002051
:10BB7000F0B5474680B4374B1C68002C08D000282D
:10BB800006D00723042905D8181C04BC9046F0BD34
:10BB90000823F9E74369002BFAD00025437CA84627
:10BBA000012B2FD0EFF30583DB05DB0D1025002BD8
:10BBB0002CD164196378A5785E1CF6B2AD1B6F1E9C
:10BBC000BD416D422E402578B5421DD05D00EB1879
:10BBD0006568DB00ED180423002DD5D0033B2B70E6
:10BBE00068601D4B1D48C358E960AB604346802127
:10BBF0002B6180236A611A4A5B0049036670D15049
:10BC00000023C1E78846CDE70423BDE7103BDEB241
:10BC100075B2002D13DBAD08114EC035AD00AD5926
:10BC200003263340DB00DD402B069B0FDBB20025F3
:10BC3000012BBED00835032BBBD00835B9E70F2345
:10BC4000084D3340AC46083B9B089B0063445D684D
:10BC50000323E6E7D820002004050000001001407F
:10BC600000E100E018ED00E030B52E4A031C126838
:10BC70000820002A2ED0002B2CD05969002929D069
:10BC800000211974EFF30581C905C90D102500299C
:10BC900023D155196A78A978541CE4B2091B481EAF
:10BCA000814149420C402978A14214D051008A18A0
:10BCB0006968D2008C4662440420002A0AD002211E
:10BCC00053601170802380210020174A49035B00D4
:10BCD0006C70D15030BD0420FCE71039CCB260B29A
:10BCE000002813DB8008104CC0308000005903246A
:10BCF0002140C900C8400106890FC9B200250129A9
:10BD0000C7D008350329C4D00835C2E70F2107483A
:10BD10002140844608398908890061444868032124
:10BD2000E6E7C046D820002000E100E018ED00E082
:10BD3000002804D0034B5B6D036000207047032094
:10BD4000FCE7C046EC20002070B5161C0C1C8D18BA
:10BD5000002A05DD2078013400F0DEF8AC42F9D18C
:10BD6000301C70BD10B50C1C201C00F0BBF8052861
:10BD7000FAD0012010BDC04630B5047885B0012C42
:10BD800019D0022C34D0002C01D005B030BD274C86
:10BD9000274D201C291CFFF77FFB002823D0A26819
:10BDA000E3689A42F1D1032302AA1370214B101CBD
:10BDB0001B689847E9E743681F4D1978281CFFF76F
:10BDC00057FB002822D1AA68EB689B1A012B25D0CB
:10BDD000A968AA88EB685B1A9A42D6D30121174852
:10BDE00000F08AFCD1E7281C012100F023FCD6E7F3
:10BDF00002AB1C70C368012110480193039300F04B
:10BE00007BFC0C4B02A81B689847BEE702AB1C707A
:10BE1000084B03901B6802A89847D9E702AB18703B
:10BE2000044B02A81B689847D2E7C0465021002067
:10BE30004421002048210020602100204C210020C6
:10BE4000F0B51E1C214B051C89B00C1C1A60072084
:10BE5000002906D08A881E480968FFF7F5FA0028ED
:10BE600001D009B0F0BDA168A2891A48FFF7ECFA29
:10BE70000028F6D16A46184B684692CB92C292CB04
:10BE800092C212CB12C2AB6806932B7906775A1E68
:10BE9000934103756B790E22591E8B415B421A4008
:10BEA0004275EB780D490293AB7803932B7801939D
:10BEB0006B78009300F02EFB0028D2D100F0B4FC88
:10BEC0000121074800F018FCCBE7C04648210020BC
:10BED0006021002050210020D402020079BD010021
:10BEE0004C21002038B50A4C051CA168A288E368E3
:10BEF0005B1A9A4204D0201C291CFFF7CDFA38BDEA
:10BF00000448012100F0F8FB0028F4D00520F6E7F2
:10BF1000602100204C21002070B50D4D011C281C13
:10BF2000FFF7A6FA041E01D0201C70BD00F0DCFB58
:10BF30000028F9D1074E281C311CFFF7ADFA002864
:10BF4000F2D1301C012100F075FB041CECE7C04667
:10BF50005021002044210020F0B5002820DBFF27DD
:10BF60001B4B03229C463B1C8408C026C0B20240E7
:10BF7000D2009340A4006444B600A5599D438B01B0
:10BF80003B409340191C2943A1511F2318401E3BDD
:10BF90008340C022181C0E4B520098501860F0BD10
:10BFA000FF260C4A03249446321C0F23C0B20440DF
:10BFB000E400A2400340083B9B089B006344DD690A
:10BFC00095438A013240A240111C2943D961DCE724
:10BFD00000E100E000ED00E038B54425164C0820F3
:10BFE000635D002B00D038BD4022FF21013BA354EC
:10BFF0000132A1540132A354236201326362A3626D
:10C00000E36223636363A363E3630238FC39A354ED
:10C0100023606360A360E36023616361A361E36104
:10C02000FFF79AFF8021C123044A9B000906D150E3
:10C03000012300206355D6E77021002000600040F6
:10C040004423034AD05C431E9841C0B27047C046A7
:10C0500070210020F0B5474680B4524C08252318C3
:10C0600020331E787F2E03D8281C04BC9046F0BDD8
:10C07000CD78AC46002D36D02568013500D187E05B
:10C08000042300269846731C9D006759013733D05E
:10C09000B31C984525D99D00675901372CD0F31C56
:10C0A00098451ED99D006759013725D0331D984505
:10C0B00017D99D00675901371ED0731D984510D9B7
:10C0C0009D006759013717D0B31D984509D99D00C8
:10C0D0006759013710D00736B04502D9E3690133FB
:10C0E00008D00425C0E72569013555D0082304266A
:10C0F0009846C8E707231C25625162462718DEB21E
:10C1000020373E70002A02D1E3183C3318708B7838
:10C11000002B15D1031CA0254A78C133FF339200B0
:10C120009B00ED055A51CB78002B15D176B2A4199E
:10C130003C340B7822789B0113432370002593E74E
:10C14000A022D2059446E025022783006344ED0037
:10C150005A59BA435A51E6E7A22476B2124BB600B6
:10C16000F318E4000A781D591049000229401951BA
:10C17000F82149010840061CC0211004021C301C93
:10C1800089021D590A4010432843185100256BE7C6
:10C19000002622601E70BAE7042522611D702E1C45
:10C1A0002B1CB1E77021002000600040FFE0FCFF85
:10C1B000F0B5264D2C182034227853B2032B18DD0D
:10C1C000EB183C331B789B09032B32D0012B39D061
:10C1D000C025AD02A023DB059C46E023800060441F
:10C1E000DB00C4581A492140C150C2582A43C250EA
:10C1F000F0BD032AFCD81748A227844601269A00DE
:10C200006244FF00D0593043D0511A1C60460027C9
:10C210004032920092B217500029E9D00022A25673
:10C2200092005259002AE3D0C1229E4092008650CB
:10C23000DEE7A223A022DB00D205D25801238340EF
:10C240001A42C5D18025AD02C4E7C0467021002046
:10C25000FFFFFCFF00600040A223A022DB00D2050C
:10C26000D358C340181C012318407047F0B544460A
:10C270005F4656464D46F0B49C4A87B0136800248A
:10C28000012B00D1AEE09A4B1A68012A00D1B7E029
:10C29000984B1A68012A00D1C2E0974B1A68012A0C
:10C2A00000D1CDE00022954B02921A68012A00D1FC
:10C2B000D8E023070BD0E30700D5DFE0A30700D5C4
:10C2C000EBE0630700D5F6E0230700D502E1002C80
:10C2D00006DB07B03CBC90469946A246AB46F0BD93
:10C2E000002301270493C03399460126844D7F42E1
:10C2F00000230393E023DB0000249846231C4033F3
:10C30000E95C4BB201332CD0C9B24B46081C9843B0
:10C310003B1CC3401E4224D08B0901932B182033B1
:10C320001B785BB29B00EB589C46002B35D0331C2E
:10C3300083409A46019B032B35D0A023DB059B4607
:10C34000434682005A44D3580592C02292021340B9
:10C350001B0C191C53469346029A1A4212D1032908
:10C3600026D00134042CC9D1039B002BB1D0A223C9
:10C37000A022DB00D205D358029A9A42A9D0049F8A
:10C380000293B5E70229ECD1019B032B16D063463B
:10C39000002BE6D00199E047E3E7019B032BE0D1B6
:10C3A000331C83409A465246049B13430493C4E7CC
:10C3B000019B032BEBD180239B029B4643460599AF
:10C3C000CB589A4652464F4B134042468B508B589F
:10C3D0005A461A43131C42468B50039B0133DBB26F
:10C3E0000393D4E7C1214848890041580B4200D14A
:10C3F00049E73F4B14601A680134012A00D047E72F
:10C40000C12241499200895802220A4200D13FE7E5
:10C4100000211960374B14431A68012A00D03CE709
:10C42000C12239499200895804220A4200D134E7D6
:10C4300000211960304B14431A68012A00D031E7FB
:10C44000C12231499200895808220A4200D129E7C5
:10C450000021144300221960284B02921A68012A15
:10C4600000D026E700221A6080231B061C43A0226E
:10C47000A223D205DB00D35802931AE7A223224A53
:10C48000DB00D058D1581E4DC00489032B68C00E64
:10C49000890F9847A30700D413E71C4B1A4A184D7D
:10C4A000D058D158C00489036B68C00E890F9847D3
:10C4B000630700D408E7A323134ADB00D058D15800
:10C4C0000F4DC0048903AB68C00E890F984723073E
:10C4D00000D4FCE60C4A0E4B094DD058D158C0048C
:10C4E0008903C00E890FEB689847F0E600610040B1
:10C4F00004610040086100400C6100407C61004024
:10C5000070210020FFFFFCFF0060004014050000C8
:10C510001C050000F0B557464E464546E0B43B4C7E
:10C52000031CE27E0820002A04D01CBC90469946D9
:10C53000A246F0BD002B67D001221868A1258240D9
:10C54000A020ED00C0054251A94603251A68AA465D
:10C55000C132FF329200155000255A68AC46C132F4
:10C56000FF32920015509F69294A2A4D57511D7D6F
:10C57000A84647465D7D3D43274FD5515D681F68FE
:10C58000A846264D57514746254D57511D7D012D33
:10C5900019D19F683E1CE0277F00B8464644B7008B
:10C5A00066463E50DE68B5404E4685515646DD68CB
:10C5B000C135FF35AD002E504E46D8689D6890516C
:10C5C000A220C00015501A696160226000290DD0B8
:10C5D000197F0023134A14481360144A1360C123BF
:10C5E0000B4A9B00D0500220FFF7B6FCA023042189
:10C5F000074ADB00D15000230122E3752376A3759F
:10C60000E276A376002090E7094B95E7B821002059
:10C6100000200040240500006C0500000C0500000F
:10C62000140500001C21004080000200442100404D
:10C63000F4020200F0B5264A041C937D1120002B61
:10C6400000D0F0BD01259175224823499382946062
:10C650000B6005600B60938AE05C938A1F4C01338A
:10C660009BB293821E4BE0505068002801D00020FE
:10C67000E7E70027261C1D1C0130FF30947D938ABC
:10C68000A34203D312E0938A834202D00B68002BAB
:10C69000F9D0938A8342F2D00F60938A9468E45C65
:10C6A000938A01339BB293827451E7E78023918A86
:10C6B0005B0099420AD008490B68002BFCD001218D
:10C6C0000020084B196000239375BAE70F20FAE7A2
:10C6D000B8210020082000401C210040002000401C
:10C6E0001C0500000C200040024B987D431E984121
:10C6F000C0B27047B8210020F0B5474680B4444B23
:10C700005A68002A05D08126C224424DB600A400F2
:10C710002E51DC7D002C0DD01C7E002C1DD0002A5B
:10C7200000D16EE08121C1233A4A89009B00D1509B
:10C7300011200FE0D975997ED8605C761C760029AF
:10C740002BD0002A0DD08121C1230020314A89003D
:10C750009B00D15004BC9046F0BD18611976002AA8
:10C76000F1D12D4C2D4D22602A4A2D489046A3220E
:10C77000D2009446296806684A1E91412268C9B2CF
:10C78000571EBA41D2B2002E10D1002A27D100295B
:10C79000F0D000220320DA75DCE7204A1160204A3D
:10C7A000116001211B4A11605A68CAE70029F0D1C3
:10C7B000002A16D1D97D002917D101606246414671
:10C7C0008A585A7ED97D9142D4D80022DA759B7E50
:10C7D000002B18D001220F4B00201A60BAE7002965
:10C7E000D7D100220F20DA75B4E7464661460260D1
:10C7F0005A7E7158DE68B1545A7E0132D2B25A76EE
:10C80000DFE71120A6E70122064B00201A60A1E70E
:10C81000B821002000200040442100402421004095
:10C820000821004004200040064A937E002B07D1D7
:10C8300005490B6005490B60054901330B60937690
:10C840007047C046B8210020242100400821004044
:10C8500000200040C12210B5604B92009A5884B06D
:10C8600092054DD55E4A1168002949D0002111601A
:10C870008121C2228900920099505A4B9A7E002A47
:10C8800002D10121584A1160022269460A709021A2
:10C890005248C9004258425069460392DA7D6846C0
:10C8A0000A72DA68196801920022DA751A765B68F2
:10C8B00098474E4A1368002B10D04A4B988A997DAE
:10C8C00081424FD9002111609A8A9968895C9A8ABD
:10C8D000013292B29A82464B404AD150454B1A6877
:10C8E000002A0BD000221A603E4B9A7E002A02D00A
:10C8F00001213A4A1160DA7D002A42D104B010BD0C
:10C90000C123364A9B00D3585B07D2D53A490B68FE
:10C91000002BCED0334BD87D00283FD10860A32117
:10C92000C90052585A7ED97D9142C2D11A7E002A3E
:10C9300041D19A7E002A02D101212B4A1160812027
:10C94000C2222649800092008850002268460121B8
:10C95000DA755A7E01700272DA68196801925B68B2
:10C960009847A6E7002010600029B7D06A461070EB
:10C9700011729A689875196801925B6868469847C1
:10C98000ACE7002268460121DA755A7E0170027216
:10C99000DA68196801925B689847AFE70020086081
:10C9A000A320C000597E1258D86842545A7E0132E2
:10C9B000D2B25A76B6E7DA751A69D968DA60002217
:10C9C0006C46587E1A765A76013220720191227096
:10C9D000196868465B6898476BE7C04600200040CE
:10C9E00024210040B8210020042000401C210040E8
:10C9F0001C0500004421004008210040074B1A6834
:10CA00000823520701D4181C7047002804D0044B97
:10CA10005B7803600023F6E70E23F4E7A0220020F2
:10CA2000D4210020A02210B5064BD205D158802376
:10CA30001B041C1CA1208C430B400349C000145054
:10CA4000535010BD040500000C050000F8B54F461A
:10CA50004646041CC0B4112809D0122839D0132826
:10CA600039D0142839D00CBC90469946F8BD002521
:10CA7000012911D000291FD00229F4D16B005D19C2
:10CA80001F4B5D196E78002EEDD01E4B1B68002BDE
:10CA9000E9D0301C9847E6E7194B6F0098464246AC
:10CAA0007B19D65C43445B78002B18D17F1947442F
:10CAB000BA78154B5A55E6E71448FFF7D5F8104AEF
:10CAC0006B005B19D318104A9B78565D9E42CAD101
:10CAD000D9E70125CCE70225CAE70325C8E70C4BB7
:10CAE0000A481B689900C9180A4B49001A1C994644
:10CAF000FFF73EF80028D9D14B461C70D6E7C04658
:10CB000020230020D8220020C8220020DC22002080
:10CB1000D4220020D0220020F8B5C74B1B68DB07C9
:10CB200000D4F8BDC54A1478172CFAD8C449A3001C
:10CB3000CB589F46A022C34BD205D1588023DB039C
:10CB40001C1CA1208C430B40BF49C0001450535003
:10CB5000BE4B00221B68BE489900C918FFF708F8B1
:10CB6000DFE7A023F021B84ADB05490499500021F2
:10CB7000043A9950D5E7A022B24BD205D158802370
:10CB8000DB031C1CA1208C430B40AF49C000145098
:10CB90005350AE4B00221968AD48FEF7E9FFC0E7DD
:10CBA000AC4BA1201968E0235B048B43A021002635
:10CBB000F025C905C000A44C0B50A24B0E51CB5818
:10CBC0006D046B408025AD032B4000D120E10D505A
:10CBD00003230E51082113709C4B00221B689C48B4
:10CBE0005943FEF7C5FF9CE79A4BA1201968E02343
:10CBF0005B048B43A0210026F025C905C000924CA0
:10CC00000B50904B0E51CB586D046B408025AD03FB
:10CC10002B4000D104E10D5004230E512821DAE706
:10CC2000A023A122E021DB05D200490480249950F1
:10CC300000218548A40319501C50995071E7864D76
:10CC4000281CFFF711F811231C1B00D1C7E0002896
:10CC500000D0C4E080237F4E1B043360012C10D031
:10CC6000C8306421604302F051FB784B00221B68FE
:10CC70004343281C191CFEF77BFFF02332685B043A
:10CC80001340A0227049D2055350A1230021DB009C
:10CC9000D15046E76F4BA1211A68F0235B04934300
:10CCA000A022C900D20553500021674BD15038E76C
:10CCB000684BA1201968E0235B048B43A021002767
:10CCC000F026C905C000604D0B505E4B4F51CB584C
:10CCD000760473408026B603334000D18EE00E50B8
:10CCE0004F51022C00D1A0E02821147074E7A0233A
:10CCF000A122C021DB05D2004904C02499500021A3
:10CD00005148E40319501C5099500AE7A023A1226E
:10CD1000D021DB05D20049048024995000214A48E3
:10CD2000E40319501C509950FBE6A023F021A122E6
:10CD3000DB054904D20099500021434A9950F0E69E
:10CD4000E022444B52041B68A1219A43A023C9004E
:10CD5000DB0580245A5000223B48A4031A501C5083
:10CD60005A50DEE63B4BA1201968E0235B048B435D
:10CD7000A0210026F025C905C000334C0B50314BD3
:10CD80000E51CB586D046B408025AD032B403CD039
:10CD90000D500E51052313702C4B002219682C489E
:10CDA0004900FEF7E5FEBCE62A4BA1201968E02306
:10CDB0005B048B43A0210026F025C905C000224C4E
:10CDC0000B50204B0E51CB586D046B408025AD03AA
:10CDD0002B4022D00D500E5106231370D9E6F023BC
:10CDE0001C4A5B041168A1200B40A021C000C905AA
:10CDF0000B50002314480B50136092E64E510B5019
:10CE0000022C15D004211470E6E60D510B50C1E739
:10CE10000D510B5002210323DDE60D510B50DBE7D2
:10CE20000D510B5004210423D5E612211470D3E6D2
:10CE300002211470D0E6C046CC220020FC22002043
:10CE400014030200040500000C050000D422002099
:10CE5000A4220020C42200200023002008B503786B
:10CE6000112B06D0122B12D0132B12D0142B12D050
:10CE700008BD00235A00D318084AD3185878002850
:10CE8000F6D0074B1B68002BF2D09847F0E7012340
:10CE9000F0E70223EEE7113BECE7C0462023002039
:10CEA000D8220020002303280DD8A223A022DB00D3
:10CEB000D205D258054B8000C058012383409343CC
:10CEC0005A1E9341DBB200200B707047D80302005A
:10CED00070B5DB4B041C1B680020DB0700D470BD61
:10CEE000172CFCD8D74AA300D3589F46A022D64B74
:10CEF000D205D1588023DB031C1CA1208C430B409E
:10CF0000D249C00014505350D14B00221B68D14865
:10CF10009900C918FEF72CFEE1E7A022CA4BD20502
:10CF2000D1588023DB031C1CA1208C430B40C74934
:10CF3000C00014505350C64B00221968C548FEF774
:10CF400017FECCE7C44D281CFEF78EFE11231C1BD8
:10CF500000D14CE1002800D049E18023BF4E1B04E2
:10CF60003360012C10D0C8306421604302F0CEF948
:10CF7000B74B00221B684343281C191CFEF7F8FD21
:10CF8000F02332685B041340A022B049D20553500D
:10CF9000A1230021DB00D150A1E7A023F021A12291
:10CFA000DB054904D20099500021A84A002099507D
:10CFB0001222AB4B1A7092E7A023A122E021DB05DD
:10CFC000D2004904802499500021A048A40319509C
:10CFD0001C5099501322A24B00201A707FE7A02307
:10CFE000F0219A4ADB05490499500021043A9950EE
:10CFF0009B4B00201C7072E7984BA1211A68F0230C
:10D000005B049343A022C900D205535000238F49EB
:10D0100000205350924A137061E7904BA1211A6887
:10D02000E0235B049343A0220026F025D205C9002B
:10D0300086485350844B1650D3586D046B4080255E
:10D04000AD032B4000D1E9E055501650022C00D121
:10D05000F1E02821824B1C707D4B00221B687D482B
:10D060005943FEF785FD3AE7A023F021774ADB0517
:10D07000490499500021043A99500C22784B002021
:10D080001A702CE7A023A122D021DB05D20049048D
:10D090008024995000216D48E40319501C50995088
:10D0A00014226F4B00201A7019E76C4BA1211A68EB
:10D0B000E0235B049343A0220025F024D205C9009D
:10D0C00062485350604B1550D35864046340802429
:10D0D000A403234000D199E05450155008210322A5
:10D0E0001AE05E4BA1211A68E0235B049343A0225F
:10D0F0000025F024D205C90054485350524B155016
:10D10000D358640463408024A403234000D18BE0FF
:10D110005450282115500422514B1A709CE7E022EC
:10D120004E4B52041B68A1219A43A023C900DB0582
:10D1300080245A5000224548A4031A501C505A50CB
:10D14000474B07321A700020C9E6A023A122C02154
:10D15000DB05D2004904C024995000213B48E40378
:10D1600019501C50995015223D4B00201A70B6E6FC
:10D170003A4BA1211A68E0235B049343A0220025C7
:10D18000F024D205C900314853502F4B1550D358C5
:10D19000640463408024A40323403CD054501550C1
:10D1A00005222F4B2B481A70294B00221968490081
:10D1B000FEF7DEFC93E6294BA1211A68E0235B040D
:10D1C0009343A0220025F024D205C9001F485350E4
:10D1D0001D4B1550D358640463408024A40323409E
:10D1E00026D05450155006221D4B1A70A3E6F0238A
:10D1F0001A4A5B041168A1240B40A021E400C90570
:10D200000B510023114C0B51136068E6145053501E
:10D210000221032280E714505350C1E715505350A8
:10D22000022C0AD0042115E714505350042172E750
:10D2300014505350D7E712210CE702210AE7C046E9
:10D24000CC22002074030200040500000C0500003D
:10D25000D4220020A422002000230020C422002089
:10D26000FC220020234B10B51960234B041C1860CE
:10D27000224B1A60830712D50D22214B21481A70C8
:10D280000132DA7001329A7101325A724A0804216D
:10D29000FEF74AF8002820D0E30703D41CE0C307B8
:10D2A0000ED50020A023F022A1210024DB0552048A
:10D2B000C9005A5014495C500C315A5000280BD107
:10D2C00012480021124AFEF739FC002804D1114807
:10D2D0000121114AFEF732FC10BDFEF77FF800284D
:10D2E000DAD10E4800210E4AFEF728FCE307E5D507
:10D2F000D8E7C046D4220020CC220020D82200202B
:10D3000020230020EC0302000C050000E8030200CB
:10D3100019CB01000C04020025CA0100D40302004D
:10D320005DCE0100031C0720032B00D97047012AA2
:10D3300013D0012917D0002908D0022919D158008B
:10D34000C3180D48C3185A700020EFE75800C318DF
:10D350000948C3189A700020E8E700220129E8D1A3
:10D360001A1C0D32D2B258000349C3185A54002077
:10D37000DCE70720DAE7C04620230020E0231D4A2F
:10D38000DB00D2581C4B1A400023C10701D5C02333
:10D390009B021343E0221749D2008B50174B9A5837
:10D3A000154B1A400023810701D5C0239B0213436C
:10D3B000E0221249D2008B50114B9A580E4B1A4062
:10D3C0000023410701D5C0239B021343E0220C49EF
:10D3D000D2008B500B4B9A58074B1A400023010781
:10D3E00001D5C0239B021343E0220649D20000204E
:10D3F0008B50704744000050FFFFFCFF4800005076
:10D400004C0000505000005008B50320FFF7B6FF55
:10D41000031C0020002B02D0062B00D0181C08BDD6
:10D4200010B50388102B08D0112B05D1294A136899
:10D43000013B1360002B07D010BD264C2368002B46
:10D4400011D001332360F7E7002002210122FFF70A
:10D4500069FF00282BD0072829D01F4B1B68002B01
:10D46000EAD09847E8E7002000210122FFF75AFFA1
:10D47000002808D0072806D0174B1B68002B00D0C7
:10D4800098472368DDE7012002210722FFF74AFFC2
:10D49000002801D00728EFD1002002210422FFF745
:10D4A00041FF0028EDD00728E6D12368C9E7012015
:10D4B00002210722FFF736FF002801D00728CCD130
:10D4C000002000210A22FFF72DFF0028B4D00728F2
:10D4D000C3D1B1E7302300202C23002010B5244B0A
:10D4E00082B00C1E186018D06B460020991DFFF703
:10D4F000D9FC002801D002B010BD6B460130D91D07
:10D50000FFF7D0FC0028F6D16B46DB79002B29D140
:10D510006B469B79002B28D12370164B1B68002B80
:10D5200001D00020E7E7002002210122FFF7FAFEE8
:10D53000002801D00728DED1012002210722FFF7B1
:10D54000F1FE002801D00728D5D1002000210A22B1
:10D55000FFF7E8FE0028E4D0C31F5A1E93415B4248
:10D560001840C8E702232370D7E70B232370D4E7C2
:10D570002C2300203023002076DF70477ADF7047AD
:10D580007CDF70477FDF7047A9DF70473CDF704763
:10D5900048DF704708B5FDF739FF08BD70B50D1CB1
:10D5A000161C0024002A07D0285DFEF7B5FC0028D1
:10D5B000FAD10134B442F7D30A20FEF7ADFC0028BB
:10D5C000FAD170BD08B50378002B00D008BD054B1B
:10D5D0003B211888FFF7D0FF0028F7D0FDF716FF92
:10D5E000F4E7C0466820002010B5041C01F02EFBB3
:10D5F0002148211C01F084FB2388112B2BD01FD93B
:10D60000132B11D0522B08D11C4B0021188800225B
:10D610000023FFF7B9FF00280FD1201C01F0C4F947
:10D62000201CFFF7FDFE10BD144B85211888002239
:10D630000023FFF7A7FF0028EFD0FDF7E7FEECE798
:10D64000102BEAD10720FFF743FC002810D1A28855
:10D650000A4B1A80E1E70020FFF73AFC002804D1CA
:10D660000122064B52421A80D7E7FDF7CFFEF7E7BB
:10D67000FDF7CCFEEBE7C0465827002068200020CD
:10D6800008B507281ED00A280ED0042800D008BDEF
:10D69000114B13211888FFF76FFF0823021C9A43D0
:10D6A000F5D0FDF7B3FEF2E70020FFF711FC0028EC
:10D6B0000ED1FFF7A9FE002807D1FFF767FF00286A
:10D6C000E5D0EEE701F0CAF9E7E7FDF79FFEF4E7E2
:10D6D000FDF79CFEEDE7C0466820002038B50378D2
:10D6E000012B03D0002B05D0022B02D14068FDF79F
:10D6F0008DFE38BD0F4C104D20782818FEF7F2FB38
:10D7000022780132D2B2AB18013B1B7822700A2B6F
:10D7100001D0132AEDD992B20848291C01F024FC4B
:10D720000823021C9A4301D0FDF770FE00232370EA
:10D73000DFE7C04674270020FC2400205827002083
:10D7400008B5002807D0032804D10138FFF7C0FB33
:10D7500000280DD108BD0020FFF7BAFB00280AD130
:10D76000FFF752FE002809D1FFF710FF0028F1D083
:10D77000FDF74CFEEEE7FDF749FEF1E7FDF746FE4B
:10D78000F2E7C04670B50020A8B00521784A002312
:10D79000FEF762F9002801D0FDF738FE754E0CAD9A
:10D7A0002B1C321C13CA13C3734B744A1A93802365
:10D7B0001AAC5B006360A260E360281C211C704A05
:10D7C000FD3BFEF73DFB002801D0FDF71FFE0320C7
:10D7D0006C496D4AFFF746FD002801D0FDF716FEA3
:10D7E0000020211CFFF77AFE002801D0FDF70EFE75
:10D7F000311C04220C31281C01F01AFE281C63493C
:10D800004822002301F0CCFC002801D0FDF7FEFDEA
:10D8100000200121221C01F023FD002801D0FDF78A
:10D82000F5FD5B4801F034FD002801D0FDF7EEFD69
:10D83000201C01F037FD002801D0FDF7E7FD554819
:10D8400001F0ECFC002801D0FDF7E0FD0F210122E2
:10D850002B78514E8B43134310220B401343301C43
:10D860002B7001F009FE311C82B2281CFFF788FEE4
:10D87000002801D0FDF7CAFD201C00210822FDF779
:10D88000C7FC102323802C3363800023A3809133B3
:10D89000FF33201CE380FFF771FE002801D0FDF765
:10D8A000B5FD0021201C0422FDF7B2FC3B4B3C4897
:10D8B000211C1A9301F054FA002801D0FDF7A6FDAF
:10D8C00000213822281CFDF7A3FC02230026382261
:10D8D0002B7000210333201CEB70AE70FDF798FC19
:10D8E000012323822F4B03AA63610123D6601373A4
:10D8F0004023136174335361566096609661D6611C
:10D900001662281C0096211C274B039600F048FE47
:10D91000002801D0FDF77AFD1C22201C0021FDF714
:10D9200077FCA02292026260F02200231203A26020
:10D9300003221A93E38123741C4B201C63611C4B4C
:10D940002273A36101F046F9002801D0FDF75EFDC6
:10D95000184801F077FD032000F0C6FE002803D12F
:10D96000FFF716FE0028FBD0FDF750FDF8E7C04694
:10D9700034230020100402005825002058260020DF
:10D98000DDD60100CD0C000081D60100102500205D
:10D99000E81F0020E9D50100200402009DD5010008
:10D9A000582700206420002041D70100C5D5010080
:10D9B00095D501002C04020071DF704772DF7047BB
:10D9C00079DF70477DDF704765DF7047F0B5048809
:10D9D000051C83B00720012C04D01488A01C984299
:10D9E00002D90C2003B0F0BD2E78012E04D16E7840
:10D9F00002363619B342F4D3023B1C1B6B460F1C94
:10DA0000A4B20818991D161CDC80FFF7DBFF002864
:10DA1000E8D12B78022B18D0012B11D0231C082120
:10DA2000FE2BDED83288581CB854328800200132D0
:10DA300092B23280B954328801329B183380D1E7D8
:10DA40006B789C42EBD2231CE9E76B46DB8809210B
:10DA50009C42E5D2231CE2E7F0B55F4656464446B9
:10DA60004D46F0B485B09A460EAB80CB061C1B88A1
:10DA700000919B463B88904601930388002B5BD026
:10DA80000023994602AB0024DD1C03E033880134F7
:10DA9000A3422ADD7368A1009C460422614403A8C6
:10DAA00001F0C6FC03A8291C0022FFF78DFF002807
:10DAB00026D12B784345E9D14B46002B27D043464E
:10DAC0003A88D3185B4539DC524403A8291CFFF778
:10DAD0007BFF002814D13B882A780134D3183B807F
:10DAE000012399463388A342D4DC4B46002B23D034
:10DAF0003B88019A013B9B1A9BB20C20FF2B18D943
:10DB000005B03CBC90469946A246AB46F0BD4246A5
:10DB10003B889A1802325A4510DC69465246013356
:10DB200009789BB23B80D1543A88013292B23A8054
:10DB3000CAE7111C524653540020E1E70C20DFE7EE
:10DB4000F0B55F4656464D464446031C0020F0B4EF
:10DB500017881080586B87B0002800D16FE10478D7
:10DB6000022F18D90220112508701088013080B2C8
:10DB700010800D541088013080B210800C5414882D
:10DB80000134A4B21480186B002800D177E0251C62
:10DB90001235BD4207D90C2007B03CBC90469946CF
:10DBA000A246AB46F0BD11250D551488013D013448
:10DBB000A4B214800D5514880134A4B21480C57B1E
:10DBC0000D5514880134A4B21480857B0D5514883A
:10DBD0000134A4B21480457B0D5514880134A4B2DD
:10DBE0001480057B0D5514880134A4B21480C57AC5
:10DBF0000D5514880134A4B21480857A0D5514880B
:10DC00000134A4B21480457A0D5514880134A4B2AD
:10DC10001480057A0D5514880134A4B21480C57996
:10DC20000D5514880134A4B2148085790D551488DB
:10DC30000134A4B2148045790D5514880134A4B27E
:10DC4000148005790D5514880134A4B21480C57868
:10DC50000D5514880134A4B2148085780D551488AC
:10DC60000134A4B2148045780D5514880134A4B24F
:10DC700014800078085514880134A4B214802E2032
:10DC80001D5C002D00D0DCE01E1C2D23F35C151C58
:10DC90008846002B00D0F7E0B378002B00D024E1B9
:10DCA000F378002B16D0E21CBA4200D973E70222A7
:10DCB000414640460A5501212A88013292B22A8003
:10DCC00081542A88013292B22A8083542C880134EC
:10DCD000A4B22C807368002B16D01A78E31CBB42C8
:10DCE00000D958E70223414640460B550A212B88AC
:10DCF00001339BB22B80C1542B8801339BB22B8004
:10DD0000C2542B8801332B803389002B00D010E1C3
:10DD1000338A002B00D076E1338B002B00D08BE1CF
:10DD2000336A002B4AD02A880C20911DB94200D9B1
:10DD300032E7198805388B46052900D82CE7CC4CEA
:10DD40005C44A4B2A146CB4CA446A14500D823E72D
:10DD50005C88A246052C00D81EE7C54C6946A14642
:10DD6000D1444C46CC81CC89644500D814E7C24CE0
:10DD7000A34504D0A24502D0D34500D90CE7052124
:10DD8000404681542A880D31013292B22A80815452
:10DD90002A88013292B22A80198842441170090AF5
:10DDA00051702A88023292B22A805988131C434447
:10DDB0001970090A59702B8802332B80746A002C61
:10DDC00032D0A2882988131D5B180C20BB4200D9D1
:10DDD000E2E6931CFE2B00D9DEE6434603325A549A
:10DDE000FF2241462B8801339BB22B80CA542B88DB
:10DDF00001339BB22B80228843441A70120A5A7056
:10DE00002B8802339BB22B80A288002A0CD0A168F9
:10DE10000538002900D1BFE64344181C01F008FB77
:10DE20002A88A388D3182B802C23F35C002B00D0E6
:10DE300098E03378002B00D0DEE00020ACE6002430
:10DE4000A1E6E61C2238BE4200D9A5E602260E5500
:10DE50001C241088013080B210800C5410880130CE
:10DE600080B21080022D00D10FE100D806E1032D11
:10DE700000D108E1042D00D0F7E003240C541488ED
:10DE80000134A4B21480FFE609340C20BC4200D94E
:10DE900082E604A8FFF790FD002800D07CE641460A
:10DEA00008222B88CA542B88133201339BB22B8053
:10DEB000CA5402AB9C4609212888153A013080B229
:10DEC00028806144404401F0B3FA2B8802AA06334B
:10DED000127A9BB22B80002A00D001224146CA54FC
:10DEE0002C880134A4B22C80D6E604340C20BC4229
:10DEF00000D951E604A8FFF763FD002800D04BE6E7
:10DF0000032241462B88CA542B88163201339BB218
:10DF10002B80CA542B8802AA01339BB212892B8012
:10DF200043441A70120A5A702C880234A4B22C800E
:10DF3000B6E6341C083400950197201C0221022209
:10DF40004346FFF789FD002800D025E6009501979C
:10DF5000201C062110224346FFF77EFD002800D03A
:10DF60001AE6D5E6B46A002C00D17EE0A38802331D
:10DF7000FE2B00D90FE60022914616329246163249
:10DF8000288893460BE04B465C00B36A4C449C46A1
:10DF9000A4006444A3880233FE2B00D9FBE542466B
:10DFA0005146013313542B8801339BB22B80D1543B
:10DFB0002B8801339BB22B80228843441A70120AAB
:10DFC0005A702888023080B22880A288002A0AD09D
:10DFD000A168002949D0404401F02AFA2888A38882
:10DFE000C01880B228804B460133DBB299465B46AD
:10DFF000F35C4B45C7D81CE7301C41462A1C3B1C30
:10E00000FFF7E4FCC8E5341C103400950197201C90
:10E01000032102224346FFF71FFD002800D0BBE585
:10E0200000950197201C072110224346FFF714FD9D
:10E03000002800D0B0E56FE6341C18340095019735
:10E04000201C142102224346FFF706FD002800D0C1
:10E05000A2E500950197201C152110224346FFF7E9
:10E06000FBFC002800D097E55AE6072094E5C0465F
:10E070007FF3FFFF7DF30000FFFF0000012DF4D1CF
:10E0800000240C54FBE60E54F9E601240C54F6E689
:10E09000F0B54E46574645461F23E0B496B002AA57
:10E0A000041C0E1CD381002800D171E0C3785B07EB
:10E0B00067D5002302AA9381436B002B00D13EE178
:10E0C0001B78022206ADAB70032303270521042031
:10E0D0002A700F326A7002AA9381226B002A3AD00A
:10E0E000112306ADEB55013B2B54D37B6B54907B36
:10E0F0004B1CE854507B8B1CE854107BCB1CE85421
:10E10000D07A0B1DE854907A4B1DE854507A8B1D41
:10E11000E854107ACB1DE854D0790133E854907953
:10E120000133E85450790133E85410790133E8544D
:10E13000D0780133E85490780133E854013302A8D1
:10E1400083815078E854013302A883811278EA541D
:10E15000013383819BB22E22A25C002A00D0F1E120
:10E160002D22A25C002A00D011E1A278002A00D062
:10E170003DE1E278002A35D0D91C1F2925D90C2091
:10E1800000E0072016B01CBC90469946A246F0BDA0
:10E19000002502AB9881002E00D1D4E0F378002B4B
:10E1A000EFD102AA94460E236344301C0EA91A1C18
:10E1B000FFF7C6FC0028E5D102AB9B7B0EAA02A9A3
:10E1C000097B281CFFF7FAFBDCE70220012706ADDC
:10E1D000E854581C02339BB280B22F54EA548BB2DD
:10E1E00002AA93816268002A0FD01078DA1C1F2AD5
:10E1F000C5D802210A2706ADE954591C02339BB247
:10E2000089B26F54E85402AB9A812389002B00D065
:10E210009EE0238A002B00D00AE1238B002B00D044
:10E2200025E1236A002B43D002AA92890C20911D7C
:10E230001F29A7D81888824655460720052DA1D941
:10E24000D24D5544ADB2AC46D14DA846AC4599D956
:10E250005D88A946052D00D894E7CC4D6F46AC46A5
:10E26000CC446546FD81FD89454500D88AE7C94D06
:10E27000AA4504D0A94502D0CA4500D982E70520A5
:10E28000122706ADA854501C80B22F54901C80B2A7
:10E2900002AFB8811F88281807703F0A4770043200
:10E2A0005B8892B2AD182B701B0A6B7002AB998120
:10E2B000676A002F2FD0BB880C20991C02AB9B896A
:10E2C0009A1C55181F2D00D95CE7FE2900D959E783
:10E2D00006AD0131E954591C89B2F330685492B249
:10E2E00002A98A813988AA180433117098B2090AE0
:10E2F00002AB51709881BA88002A0CD0B968002905
:10E3000000D13EE7281801F093F802ABBA889B8948
:10E31000D31802AA93812C23E15C002900D0C5E028
:10E3200006AD2378002B00D135E7201C291C05AA57
:10E330001F23FFF74BFB002800D12CE722E7002723
:10E3400002210120C9E602ABDE810022002336E76C
:10E3500005AB271C00931F23083706AD9846019391
:10E36000381C022102222B1CFFF776FB002800D06C
:10E3700008E705AB00934346381C019306211022A1
:10E380002B1CFFF769FB002800D0FBE641E70933AF
:10E390000C201F2B00D9F5E60EA8FFF70DFB002877
:10E3A00000D0EFE6082202AB9B8906ADEA545A1C66
:10E3B000023398B21B2102AB9C4692B2A95416318B
:10E3C000988161440622281801F032F8302002AB0F
:10E3D00002A99B89091809789A1D92B2002900D0D8
:10E3E00001210733A9549BB202AA9381BDE60433ED
:10E3F0000C201F2B00D9C5E60EA8FFF7E1FA002874
:10E4000000D0BFE60322192102AB9B8906ADEA5476
:10E410005A1C92B2A95402AA118E9A1C92B2AD183B
:10E42000043329709BB2090A02AA69709381A0E69D
:10E4300005AB271C00931F23103706AD98460193A8
:10E44000381C032102222B1CFFF706FB002800D0FA
:10E4500098E605AB00934346381C01930721102230
:10E460002B1CFFF7F9FA002800D08BE6D5E605ABA8
:10E47000271C00931F23183706AD98460193381CBC
:10E48000142102222B1CFFF7E7FA002800D079E6BE
:10E4900005AB00934346381C0193152110222B1C19
:10E4A000FFF7DAFA002800D06CE6BAE6A76A002F78
:10E4B00000D166E6BB880233FE2B00D95FE602AAD4
:10E4C000908900229046163291461632924606AD49
:10E4D0004A4601332B54431C9BB2EA54831C9BB223
:10E4E00002AA93813A88EB181A700430120A5A7003
:10E4F00080B202AB9881BA88002A0FD0B96800298F
:10E5000000D13EE6281800F093FF02AB9B89B88843
:10E51000C01880B202AB98815346E15C4346013398
:10E52000DBB298468B4200D3FBE643465F00A36A0A
:10E5300047449C46BF006744BB880233FE2BC7D9C3
:10E540000C201FE602201C27591C06AD89B2E85496
:10E550006F54191889B282420CD010D9032A0CD0FA
:10E56000042A00D00DE603226A5403339BB202AAA8
:10E570009381F5E501226A54F7E76854F5E7012A2B
:10E5800000D0FEE500226D182A70EEE77FF3FFFF52
:10E590007DF30000FFFF000073DF704774DF7047FA
:10E5A000F8B5051C0E20002D00D17DE0002A00D119
:10E5B0007AE000200F1C3D4908703D490B60069928
:10E5C0003C4B19603C490B1C13CA13C313CA13C339
:10E5D00013CA13C3002107223848FCF719FE384B31
:10E5E000384A394E1A60394A00219A60301C382264
:10E5F000FCF70EFE2B782A1C3370AB781032B37008
:10E60000EB78F3706B787370331C103303CA03C359
:10E61000331C103A083303CA03C3331C08321833BF
:10E6200003CA03C36B6A002B11D0294B294C7362B8
:10E63000696A9C600A881A8088889880002806D0B9
:10E6400000238A68D25CE25401338342F9D1AB6A79
:10E65000002B14D0204B2148B362A96A98608C88A3
:10E660009C800A881A800023002C05D08A68D25C1E
:10E67000C2540133A342F9D12C23EA5CF2542B6A31
:10E68000002B06D0164B33622A6A518859801288B3
:10E690001A806B68002B03D0124B73606B68736039
:10E6A000301C391CFFF7F4FCF8BDC0468828002058
:10E6B000BC270020E4270020F0270020E8270020C6
:10E6C00038280020142800207827002068280020FF
:10E6D000B0270020C42700209028002048280020D0
:10E6E0008C28002034280020002370B5A34C86B06D
:10E6F000207068460093FEF781F9082800D1FCE0FD
:10E70000002833D1009B002B30D19D4E0021301CBE
:10E710000722FCF77DFD9B4D6B78002B2CD1AB784D
:10E72000002B00D09FE02378012B00D1B1E0022B19
:10E7300000D1CBE02A7B002A31D1032B2FD1042337
:10E7400023702B7E002B00D170E08F4B1A68002ABB
:10E750002FD02B78002B2CD08C4B1B78002B28D162
:10E7600001218B4B07201970904725E001220020E2
:10E77000884B1A7006B070BD2378012B04D0AA789C
:10E78000002A74D0022BD5D17F4A1268002A00D10A
:10E79000F0E00121804B082019709047C3E72A7EE2
:10E7A000002A41D0784A1268002A02D0033B012B8C
:10E7B000CFD90022764B1A70182268460021FCF748
:10E7C00027FD00236A461370137222780193039386
:10E7D000022A00D1C1E02ED9032A00D194E0042AF4
:10E7E0001FD16B46AA8B1A822A8C5A826B4B1A79DC
:10E7F000002A47D02A78002A47D0644A1278002A93
:10E8000043D1694603930423023265480A7200210A
:10E81000C370FFF73DFC0028ACD10622614B1A7093
:10E820002278002A16D00FE0042BBBD100235D4ACA
:10E8300023701370BDE7012AF3D169464B820B8226
:10E84000584B01960A701A706846FFF7A5FE00281B
:10E8500000D08FE74C4B1B68002B02D0514A107838
:10E860009847002086E72378012B8BD18CE7022B79
:10E8700000D05FE7032323702B7B002B00D15EE7E2
:10E8800003238FE71A7B002AB4D10422454B1A7068
:10E89000DAE76A78002A17D07278002A00D081E778
:10E8A000B278002A00D07DE7F278002A00D079E71C
:10E8B0003279002A00D075E77279002A00D071E71A
:10E8C000B279002A00D06DE702232370AB78002BC9
:10E8D000D0D07378002B0ED1B378002B0BD1F37806
:10E8E000002B08D13379002B05D17379002B02D18D
:10E8F000B379002BBED0022354E76846FDF718FA1F
:10E90000002800D1FEE600E76B46AA8A5A822A8ACE
:10E910001A82224B1A79002A18D02A78002A18D095
:10E920001A4A1278002A14D169460393042302324A
:10E930001B480A720021C370FFF7AAFB002800D011
:10E9400018E70522174B1A7022786AE71A7B002A0B
:10E95000E3D10322134B1A7076E7012369460B704B
:10E960006B4629890196598269466B680B820D4B6B
:10E970001A7069E708490A70D6E6C0468828002060
:10E98000E8270020F0270020BC270020E3270020F4
:10E9900067280020C0270020892800203828002070
:10E9A000782700209C28002008B50388112B20D050
:10E9B0001B2B09D0102B00D008BD837D012BFBD170
:10E9C0008288204B1A80F7E7027A002AF4D11E4B86
:10E9D0001B78022B30D027D9032B1DD0042BEBD171
:10E9E0001A4B1A701A4B1B68002BE5D00020984771
:10E9F000E2E70022174B1A70124B82881B889A425A
:10EA0000DAD10120FFF770FE0028D5D0124B1B6829
:10EA1000002BD1D09847CFE70C4A04201370FFF7A2
:10EA200063FE0028F2D1C7E7012BC5D10220FFF712
:10EA30005BFE0028EAD1BFE70320FFF755FE002860
:10EA4000E4D1B9E76A200020882800209C28002013
:10EA5000BC270020E3270020E427002070B5144BDA
:10EA60001B78002B20D0134D2B78002B1CD1124E7D
:10EA70003378002B03D0FFF791FD041E15D101233D
:10EA80000E482B7000210533C370FFF701FB041EF5
:10EA90000BD13078FFF728FE002805D0084B1B6803
:10EAA000002B01D0984700E00024201C70BDC04618
:10EAB000F0270020E3270020882800207827002066
:10EAC000E427002075DF704776DF70477ADF7047F4
:10EAD0007BDF704710B5184B82B01888174B9842EF
:10EAE00014D0174A174C13780133DBB21370217B13
:10EAF00099420DD200231370237C002B12D163693D
:10EB0000002B03D0002201A80270984702B010BD6C
:10EB10000D49FFF7D7FF0028F8D0A369002BF5D0E7
:10EB20009847F3E73B21FFF7CFFF0028E7D0A36921
:10EB3000002BE4D09847E2E7E8280020FFFF000020
:10EB4000A8280020AC280020EC28002030B51B4B62
:10EB50001B4A5B88118883B099420FD852889A4229
:10EB60000CD3184B5B69002B03D0012201A8027063
:10EB70009847154C0023237003B030BD124C237806
:10EB8000002B08D00F4B5B69002BF3D0002201A8AB
:10EB900002709847EEE70D4B0A4D1B78002B0BD007
:10EBA000A9680B480022FCF7E3FF0028E2D0AB691C
:10EBB000002BDFD09847DDE76968F2E7A028002046
:10EBC000EC280020AC2800209D280020A828002048
:10EBD000C8280020164938B5021C0B1C32CA32C3A3
:10EBE00032CA32C312681A600022124B01681A70CE
:10EBF000002916D0104C0832201C00F019FC201CF3
:10EC0000FFF764FF00280BD101220C4B52421A80FF
:10EC100000220B4B0B481A7000210B4AFCF78EFFA9
:10EC200038BD0548FFF754FF0028EDD0F8E7C0468F
:10EC3000AC2800209D280020EC280020E828002097
:10EC4000A82800203C040200D5EA010010B5038882
:10EC5000112B31D01FD9122B16D0502B1AD11F4C8B
:10EC6000C288E3899A4215D1038A022B12D1837C90
:10EC7000DB070DD41A48FCF7F7FF00280AD0A36978
:10EC8000002B07D0984705E0164B083006C806C38E
:10EC9000FFF75CFF10BD102BFCD18288124B18309F
:10ECA0001A80104B06C806C30022104B1A700B4B7B
:10ECB000DB89002BEED1EBE701220B4B52421A808D
:10ECC00000220A4B06481A70FCF7CEFF0028E1D05C
:10ECD000024B9B69002BDDD09847DBE7AC28002076
:10ECE000C8280020A0280020E8280020A82800200C
:10ECF000A0DF7047A2DF7047A6DF704763DF704771
:10ED000010B5002808D0002906D00B88112B16D08A
:10ED1000502B02D0102B0FD010BDCB88028A9A4204
:10ED200011D082889A42F7D18469002CF4D00B1C50
:10ED300012311A8AA047EFE78B888382ECE7012320
:10ED40005B428382E8E70A8A022AEAD101238A7CAD
:10ED5000134002D001238375DEE78375DCE7C046EC
:10ED6000F0B54D465F46444656461023F0B495B084
:10ED7000041C0D1C04A87B49102299460E2700F0A4
:10ED800057FB002C0ED0002D0CD001235B42A38238
:10ED90002B6804A8A3610023211CA375FFF7AEFF15
:10EDA000071E07D0381C15B03CBC90469946A246B9
:10EDB000AB46F0BD237802A98B700123A21C012071
:10EDC0000B80FFF795FF071EECD100210322684658
:10EDD000FCF71EFA6B460F221B78924693430122E2
:10EDE00093465A46134352461340102290464246D9
:10EDF00013436A4613705378524693435A4613435B
:10EE000052461340424613436A4653709378062293
:10EE10009343043A13436A460DAD937000211C22BC
:10EE2000281CFCF7F5F942462B7801AE13432B70F2
:10EE30006B466A466B612378002193730323301C71
:10EE4000938103226F60EF602F61AF61FCF7E0F9FF
:10EE500052463378002193435A4613435246134097
:10EE60004246134352463370737808A893435A4678
:10EE70001343524613404246134306227370B3783D
:10EE80009343043A1343DBB2063293434A46934317
:10EE90005A4613431422B370FCF7BAF903AB089334
:10EEA00001226B461A8514225F859A85231C60888F
:10EEB000291C08AA0C330996FFF71CFF071E00D077
:10EEC00070E700211C22281CFCF7A2F908232A78ED
:10EED00000211343042213436A462B702378301C0D
:10EEE00093730223938103226F60EF602F616F6140
:10EEF000AF61FCF78DF952463378002193435A46AF
:10EF000013435246134042461343524633707378BC
:10EF100008A893435A4613435246134042461343AC
:10EF200006227370B3789343043A1343DBB206327C
:10EF300093434A4693435A4613431422B370FCF753
:10EF400067F903AB089301226B461A8514225F858B
:10EF50009A856088231D291C08AA0996FFF7CAFE16
:10EF6000071C1FE74004020070B586B06B46041C06
:10EF70000D1CDA80002809D0828A114B08209A42A1
:10EF800002D0A37D002B03D106B070BD0E20FBE79D
:10EF90006B46DB880138142BF6D802AE301C0021FA
:10EFA0001022FCF735F9A389A08A33806B4606331B
:10EFB000B3600123311CF560B370FFF79DFEE3E7FA
:10EFC000FFFF0000304B1B78012B00D070472F4B08
:10EFD0001B681B07FAD1F0222D4B1B68134027D169
:10EFE0002C4B1B68134229D0284B1B681B07EDD103
:10EFF000F022274B1B681340402B32D0244B1A6859
:10F00000F0231340A02B01D0D02BDFD1214B1A6865
:10F01000F0231A42DAD1204A1368012B04D01F4B87
:10F0200013601368012BFCD1C0221D4B1A60CDE781
:10F03000102B0FD1174B1B681342D9D1194A1A4B09
:10F040001A608022194B12021A600F4B1B78012B99
:10F05000CAD0BBE7302BCBD10E4B1B681342C7D1B4
:10F06000ECE70C4B1B681342C8D1C123802201215D
:10F07000DB00D205D150044B1B78012BA6D1034BEA
:10F080001B681B07BAD0A1E7E00F00F0E40F00F007
:10F09000E80F00F0EC0F00F000EC06407593000064
:10F0A00014EC0640DFFF07C004050040186C004068
:10F0B00052DF704710DF704760DF704761DF7047D5
:10F0C00008B5FCF7B3F908BDF0B557464E464546BE
:10F0D000E0B42F4B2F4E1D6899466B425D412E4B7D
:10F0E000B2461C68984663425C412C4F82B0EDB238
:10F0F000E4B2002D08D0002C23D002B01CBC9046F6
:10F100009946A246F0BD012401A8FFF7D1FF0528CA
:10F110002DD0002826D0FCF779F9002CF3D16A46CF
:10F120001C4B01A91B8893801C4B1C68201CFFF7FB
:10F13000C5FF0528E7D000280ED0FCF767F90024AA
:10F14000D7E73C68338801A9201C0B80FFF7B6FF86
:10F150000528D2D00028F0D14346201C1B689847D0
:10F160000024C6E74B4601981B689847D5E7002C5A
:10F17000C3D153466A461B8801A99380074B0125DA
:10F180001C68201CFFF79AFF0528D4D1B5E7C046BC
:10F19000FC280020F628002000290020F828002064
:10F1A00038B5041C0720002901D08D0700D038BDD8
:10F1B000124801601249201C0A80124A1249136049
:10F1C000FFF778FF0028F2D10122104B1A70C522F8
:10F1D0000F4B92009A58520207D50E4A50680028E9
:10F1E00005D18022D2031A60E1E70B48DFE78021D6
:10F1F0001368C9030B4313600020D8E7F8280020E8
:10F20000F628002004290020C1F00100F428002085
:10F2100000E100E01429002002200000002803D0B3
:10F22000024B1860002070470E20FCE700290020E8
:10F2300008B5094B1B68002B06D09847002800D161
:10F2400008BDFCF7E3F8FBE7044B1B78002BF7D075
:10F25000FFF73AFFF4E7C04604290020F428002015
:10F2600070B5141C051C0E1C101C00211422FBF789
:10F27000CFFF002301222361237B2280934323734A
:10F2800026726572002D01D00123A372002070BD8B
:10F290000020034B82B00193019B02B07047C0462F
:10F2A0000020002000B5054B83B00193019B694607
:10F2B0000093FFF701FF03B000BDC046002000200F
:10F2C00003210A4802680A430260094802680A43A7
:10F2D00002600849084A094B9B1A03DD043BC858E1
:10F2E000D050FBDCFFF76EFEFBF71AFF2405004051
:10F2F00054050040F0040200002000207820002087
:10F30000FEE7FEE7FEE7FEE7FEE7FEE70022430832
:10F310008B4274D303098B425FD3030A8B4244D3DD
:10F32000030B8B4228D3030C8B420DD3FF2209021F
:10F3300012BA030C8B4202D31212090265D0030BDE
:10F340008B4219D300E0090AC30B8B4201D3CB03D4
:10F35000C01A5241830B8B4201D38B03C01A524116
:10F36000430B8B4201D34B03C01A5241030B8B4218
:10F3700001D30B03C01A5241C30A8B4201D3CB0203
:10F38000C01A5241830A8B4201D38B02C01A5241E8
:10F39000430A8B4201D34B02C01A5241030A8B42EB
:10F3A00001D30B02C01A5241CDD2C3098B4201D303
:10F3B000CB01C01A524183098B4201D38B01C01A81
:10F3C000524143098B4201D34B01C01A52410309F8
:10F3D0008B4201D30B01C01A5241C3088B4201D3A7
:10F3E000CB00C01A524183088B4201D38B00C01A54
:10F3F000524143088B4201D34B00C01A5241411A7B
:10F4000000D20146524110467047FFE701B5002087
:10F4100000F00CF802BDC0460029F7D003B5FFF795
:10F4200075FF0EBC4243891A1847C0467047C04654
:10F43000002310B5934203D0CC5CC4540133F9E7E8
:10F4400010BD00000FB40B4B13B51C68002C05D089
:10F45000A369002B02D1201C00F058F805AB201C3A
:10F46000A168049A019300F063F916BC08BC04B0CB
:10F470001847C046602000200023C25C0133002AE8
:10F48000FBD1581E7047000008B5024900F0AEF8E5
:10F4900008BDC04611000200002310B5041C036023
:10F4A0004360836081814366C281036143618361FC
:10F4B000191C08225C30FBF7ABFE054B246263622B
:10F4C000044BA362044BE362044B236310BDC046AC
:10F4D00081FC0100A9FC0100E1FC01000DFD01001F
:10F4E00070B568254B1E5D430E1C291C743100F05D
:10F4F0009FF8041E08D000212A1C016046600C30D1
:10F50000A0606832FBF784FE201C70BD836913B5D0
:10F51000002B28D18364C3640365134B134A1B6813
:10F5200082620193984201D101238361041C00F09F
:10F530001FF86060201C00F01BF8A060201C00F089
:10F5400017F80421E06000226068FFF7A5FFA068BB
:10F5500009210122FFF7A0FFE06812210222FFF734
:10F560009BFF0123A36113BDCC02020089F40100BB
:10F57000F8B51D4B061C1D68AB69002B02D1281C79
:10F58000FFF7C4FF4835AC686B68013B05D40C221B
:10F59000A75E002F10D06834F7E72B68002B06D148
:10F5A000301C0421FFF79CFF2860002801D02D6843
:10F5B000E9E70C23336016E00123201C5B42E38162
:10F5C0000233A38167662760A76067602761676170
:10F5D000A7615C30391C0822FBF71AFE201C676308
:10F5E000A763A764E764F8BDCC020200F7B5041C6A
:10F5F000071C002601914834002C16D06368A568CA
:10F600000093009B013B00930DD4AB89012B08D9DB
:10F610000E22AB5E013304D0381C291C019B984795
:10F6200006436835EDE72468E6E7301CFEBD0000C0
:10F63000032370B5CC1C9C430834051C0C2C01D250
:10F640000C2405E0002C03DA0C2300202B6042E0A0
:10F650008C42F9D3204A1368101C191C002913D0BE
:10F660000A68121B0DD40B2A02D90A608B181FE0FE
:10F670008B4202D15A6802601BE04A685A600B1C38
:10F6800017E00B1C4968E9E7144E3368002B03D1DF
:10F69000281C00F0E3FA3060281C211C00F0DEFA80
:10F6A000031C421CD0D00322C61C964386420AD1BA
:10F6B0001C60181C07210B301A1D8843821A0AD0BF
:10F6C0005142995007E0311A281C00F0C7FA431C38
:10F6D000BAD0331CECE770BD0C29002008290020AB
:10F6E000936810B5013B9360002B05DA9469A3423F
:10F6F00008DBCBB20A2B05D01368581C10601970B8
:10F70000C8B201E000F008FB10BDF8B5061C0F1CE4
:10F71000141CD518AC4208D02178301C3A1CFFF7D5
:10F72000DFFF0134431CF5D100E00020F8BD0000EC
:10F73000F0B59FB0061C0F1C02920593002804D060
:10F740008369002B01D1FFF7E1FE794B9F4201D184
:10F75000776808E0774B9F4201D1B76803E0764BAA
:10F760009F4200D1F768BB891B070AD53B69002B74
:10F7700007D0002306AD6B6120336B761033AB7678
:10F780003DE0301C391C00F033FB0028F1D0012093
:10F790004042CAE0059A111D12680591002A7EDBDD
:10F7A0000992013423782E2B00D189E02178634817
:10F7B000032200F0C5FC002808D0604B0134C01AB9
:10F7C00040238340181C2B68184328602178631C51
:10F7D0005B4806220293297600F0B2FC002800D193
:10F7E00091E0584B002B00D084E00722059B0733A3
:10F7F0009343083305936B69039A9B186B61029CD2
:10F800002378002B04D1029BE31A049311D003E068
:10F81000252BF8D00134F3E7049B301C391C029AE5
:10F82000FFF773FF431C7BD06A69049B94466344D3
:10F830006B612378002B73D00122002352426A604F
:10F8400002A95432521801342B60EB60AB60137084
:10F85000AB6521783C48052200F072FC002809D0F5
:10F86000394B0134C01A01238340181C2B681843FC
:10F870002860EEE72B68DA0604D55322202102A87F
:10F88000121811701A0704D553222B2102A812183E
:10F89000117022782A2A00D17CE7099B05E05242A8
:10F8A000EA60022213432B607BE72278303A092A70
:10F8B00004D80A214B4301349B18F6E7099371E7FA
:10F8C00063782A2B09D1059B02341A1D1B68059207
:10F8D000002B0DDA01235B420AE000230134227879
:10F8E000303A092A04D80A214B4301349B18F6E721
:10F8F00007935BE705AB0093301C291C3A1C134BA4
:10F9000000E000BF07E005AB0093301C291C3A1C47
:10F910000E4B00F08BF80390039B013300D06AE795
:10F92000BB895B0600D532E70B981FB0F0BDC0461F
:10F93000500402007004020090040200B6040200A9
:10F94000BA04020000000000B00402000BF701003E
:10F95000F7B5171C01930A698B6800900C1C934241
:10F9600000DA131C221C3B6043321278002A01D0BB
:10F9700001333B6023689B0602D53B6802333B6042
:10F98000062523681D401ED0231C43331B785A1EB6
:10F990009341226892061CD53020E1184031C8708E
:10F9A000211C5A1C45310978A21840320233D1700B
:10F9B0000FE0221C0123009801991932089EB047DC
:10F9C000431C0ED00135E3683A689B1A9D42F0DB78
:10F9D000DAE7221C009801994332089DA847431C8E
:10F9E00002D10120404220E006232068E1683A6805
:10F9F00003400025042B03D18D1AEB43DB171D4078
:10FA0000A3682269934201DD9B1AED180027AF42DB
:10FA10000ADA221C0123009801991A32089EB04785
:10FA2000431CDED00137F2E70020FEBDF0B58BB0FD
:10FA300006920A1C43320793059004920A7E0C1C1E
:10FA4000109B6E2A00D1A8E011D8632A22D009D8D1
:10FA5000002A00D1B2E0582A00D0C2E045310A7035
:10FA60007C4A4FE0642A1DD0692A1BD0B9E0732A72
:10FA700000D1A7E009D86F2A29D0702A00D0B0E0C1
:10FA8000202209680A43226037E0752A1FD0782AAD
:10FA900033D0A6E00E1C1A684236111D1960136897
:10FAA0003370A1E021681A68080606D4490604D517
:10FAB000111D19600023D55E02E0111D1960156843
:10FAC000002D3BDA2D23049A6D42137036E0216835
:10FAD0001A68080606D4490604D51568111D196070
:10FAE000ADB202E0111D196015685A4B227E0393D6
:10FAF0000A276F2A1DD108271BE0221C78214532D6
:10FB00001170554A19680392081D226818600D6823
:10FB1000100602D4500600D5ADB2D30702D520237B
:10FB20001A4322601027002D03D1202322689A4314
:10FB30002260231C002243331A7002E00A27454B3F
:10FB400003936368A360002B03DB042221689143C5
:10FB50002160002D02D1049E002B0ED0049E281C93
:10FB6000391CFFF759FC039B013E5B5C281C33707A
:10FB7000391CFFF7CBFB051EF1D1082F09D12368F3
:10FB8000DB0706D563682269934202DC3023013E1D
:10FB90003370049B9B1B23612BE009681A680806DD
:10FBA00007D4490605D5111D19601368A28A1A8069
:10FBB00004E0111D1960136862691A600023049E35
:10FBC000236116E01A68111D196016680021301CA7
:10FBD000626800F0B5FA002801D0801B606063689D
:10FBE00003E0261C42363270012323610023049A6D
:10FBF0001370079B05980093211C069B09AAFFF729
:10FC0000A7FE431C02D10120404221E02369059850
:10FC10000699321C079DA847431CF4D023689B0714
:10FC200005D4099BE068984212DA181C10E0002500
:10FC3000E368099A9B1A9D42F3DA221C0123059876
:10FC400006991932079EB047431CDCD00135EFE717
:10FC50000BB0F0BDC1040200D204020038B500238D
:10FC6000064C051C081C236000F014FB431C03D148
:10FC70002368002B00D02B6038BDC0461C29002013
:10FC800038B50C1C0E25495F00F0ACFA002803DBE8
:10FC9000636D1B18636503E0A289024B1340A381C7
:10FCA00038BDC046FFEFFFFFF8B51E1C8B89051C51
:10FCB0000C1C171CDB0505D50E23C95E0022022390
:10FCC00000F0D2F9A289054B281C1340A3813A1CED
:10FCD0000E23E15E331C00F077F8F8BDFFEFFFFF65
:10FCE00038B50C1C0E25495F00F0BEF9A389421CF3
:10FCF00003D1054A1340A38104E08022520113433B
:10FD0000A381606538BDC046FFEFFFFF08B50E2335
:10FD1000C95E00F0E1F808BD70B5051C0E1C141C8E
:10FD2000002804D08369002B01D1FFF7EFFB234BA0
:10FD30009C4201D16C6808E0214B9C4201D1AC6827
:10FD400003E0204B9C4200D1EC68A369A360A38927
:10FD50001B070AD52369002B07D023682269F6B256
:10FD6000981A636998420FDB08E0281C211C00F0F8
:10FD70003FF80028F1D0012040421DE0281C211C42
:10FD800000F046F90028F6D1A3680130013BA360DA
:10FD900023685A1C22601E706369984205D0A389AB
:10FDA000301CDB0708D50A2E06D1281C211C00F0C8
:10FDB0002FF90028DFD1301C70BDC046500402006E
:10FDC000700402009004020038B5051C0020074CA6
:10FDD0002060081C111C1A1CFBF7B6FF431C03D142
:10FDE0002368002B00D02B6038BDC0461C290020A2
:10FDF000354B70B51D68061C0C1C002D05D0AB6979
:10FE0000002B02D1281CFFF781FB304B9C4201D113
:10FE10006C6808E02E4B9C4201D1AC6803E02D4B8E
:10FE20009C4200D1EC68A3899AB2110723D4D10671
:10FE300007D409220120326037321343A3814042A4
:10FE400040E0530713D5616B002908D0231C4433CD
:10FE5000994202D0301C00F07FF900236363242212
:10FE6000A3899343A381002363602369236008224D
:10FE7000A3891343A3812369002B0BD1A023A2895B
:10FE80009B00134080229200934203D0301C211C1F
:10FE900000F0FEF80123A289134005D00023A360DF
:10FEA00063695B42A36103E0910700D46369A360C7
:10FEB00000202369834205D1130603D540231A434A
:10FEC000A281013870BDC0466020002050040200AD
:10FED000700402009004020038B50023064C051C93
:10FEE000081C236000F0B6F9431C03D12368002BE3
:10FEF00000D02B6038BDC0461C290020F7B58A8988
:10FF0000051C0C1C13075ED44B68002B02DC0B6C29
:10FF1000002B1ADDE76A002F17D000232E682B6014
:10FF200080235B011A4001D0626D15E0281C216A14
:10FF30000123B847021C431C0ED12B68002B0BD0A9
:10FF40001D2B01D0162B02D12E6000205EE0402137
:10FF5000A3890B43A38159E0A3895B0706D5636896
:10FF6000D21A636B002B01D0236CD21A0023281CF9
:10FF7000216AE76AB847A389421C06D12A68002A89
:10FF800003D01D2A01D0162A19D1002262602269ED
:10FF90002260DB0405D5431C02D12B68002B00D165
:10FFA0006065616B2E600029CFD0231C44339942D9
:10FFB00002D0281C00F0D0F80020606326E0402228
:10FFC0001343A38122E00F69002FBED00B680F609E
:10FFD000DB1B01930023920700D14B69A360019BB7
:10FFE000002BB2DD281C216A3A1C019BA66AB0478F
:10FFF000002806DC40220120A38940421343A3814C
:020000022000DC
:1000000004E0019B3F181B1A0193E8E7FEBD0000C6
:1000100038B50B69051C0C1C002B01D100201CE01D
:10002000002804D08369002B01D1FFF76FFA0B4B36
:100030009C4201D16C6808E0094B9C4201D1AC683C
:1000400003E0084B9C4200D1EC680C22A35E002B1D
:10005000E4D0281C211CFFF751FF38BD50040200DA
:10006000700402009004020038B5051C0020074C03
:100070002060081C111C1A1C00F004F9431C03D159
:100080002368002B00D02B6038BDC0461C290020FF
:10009000F0B58B8991B09B0706D50B1C47330B60DD
:1000A0000B6101234B6145E00C1C0E23C95E061C4D
:1000B000002904DA8023A5891D4010D10CE001AA93
:1000C00000F0A4F80028F5DBF023029D1B021D4080
:1000D000194BED186B425D418027FF0001E00025C0
:1000E0004027301C391CFFF7A3FA00280CD1A38944
:1000F0009A051FD402221343A381231C4733236094
:1001000023610123636115E080220C4BB362A38954
:1001100020601343A38120616761002D0AD00E2364
:10012000E15E301C00F084F8002803D00122A3898E
:100130001343A38111B0F0BD00E0FFFF89F401007B
:10014000C9B28218904204D003788B4202D00130A9
:10015000F8E700207047000030B500293ED0043990
:100160000B68002B00DAC9181D4A1368141C002BF9
:1001700002D14B60116031E099420DD208680A1833
:100180009A4203D11368C3180B6053684B60216017
:1001900024E08A4203D8131C5A68002AF9D11D684A
:1001A0005C198C420BD10968691858181960904283
:1001B00014D110685268091819605A600EE08C4218
:1001C00002D90C23036009E008680C18944203D19B
:1001D00014685268001908604A60596030BDC04612
:1001E0000C29002038B5051C0020074C2060081C95
:1001F000111C1A1CFBF7B6FD431C03D12368002B0E
:1002000000D02B6038BDC0461C29002038B5002323
:10021000064C051C081C111C236000F023F8431C2D
:1002200003D12368002B00D02B6038BD1C2900208F
:1002300038B50023064C051C081C236000F01AF892
:10024000431C03D12368002B00D02B6038BDC0466F
:100250001C29002058220120014B40421A6070479F
:100260001C29002058220120014B40421A6070478F
:100270001C2900205822024B00201A607047C046FB
:100280001C29002058220120014B40421A6070476F
:100290001C290020044A1368002B03D01818106092
:1002A000181C7047014BF9E7102900202029002075
:1002B000F8B5C046F8BC08BC9E467047F8B5C046C5
:1002C000F8BC08BC9E467047430000000020002098
:1002D000A0200020090000000B0000000A00000020
:1002E00008000000000000000000000000E0D7014E
:1002F00003000000090000000B0000000A000000DD
:1003000008000000000000000000000000E0D7012D
:100310000300000094CC0100B0CC0100B0CC01007F
:10032000A0CB0100E8CB010064CD0100A8CD010005
:1003300040CD010076CB010034CB010076CB01002B
:1003400034CB010062CB01003ECC01003ECC010069
:100350003ECC01003ECC01003ECC01002ACD010084
:1003600020CC01000CCD0100EECC010062CB0100DD
:1003700062CB0100F8CF01001AD001001AD00100B1
:10038000AAD00100E2D0010070D10100B6D1010075
:100390001ED101001ACF0100ECCE01001ACF0100DE
:1003A000ECCE010068D0010044CF010044CF010031
:1003B00044CF010044CF010044CF01009ACF010097
:1003C000B8CF010084D001004AD10100DECF010086
:1003D000DECF0100DC22002011000000120000002E
:1003E0001300000014000000A422002011000300EC
:1003F0004DCA0100120003004DCA010013000300A2
:100400004DCA0100140003004DCA01000023002062
:100410000B09080A0000000000E0D70101000007F6
:100420004E6F726469635F55415254000D0A554125
:100430005254205374617274210D0A00C8280020A0
:100440009ECADC240EE5A9E093F3A3B50000406E3C
:10045000000000000000000000000000000000009C
:10046000000000000000000000000000000000008C
:10047000000000000000000000000000000000007C
:10048000000000000000000000000000000000006C
:10049000000000000000000000000000000000005C
:1004A000000000000000000000000000000000004C
:1004B000232D302B2000686C4C006566674546474D
:1004C00000303132333435363738394142434445D0
:1004D000460030313233343536373839616263643F
:0804E000656600000000000049
:0804E80038ACFF7F01000000A9
:1004F000000000005004020070040200900402009A
:1005000000000000000000000000000000000000EB
:10051000C80202000000000000000000000000000F
:1005200000000000000000000000000000000000CB
:1005300000000000000000000000000000000000BB
:1005400000000000000000000000000000000000AB
:100550000020002001000200FFFFFFFFE9B00100C2
:08056000C1B001000000000021
:040000031000F2C136
:00000001FF
