:100000000080002079390100B9390100BB390100B5
:1000100000000000000000000000000000000000E0
:10002000000000000000000000000000BD390100D9
:100030000000000000000000BF390100C1390100CC
:10004000C3390100C3390100BD950000C339010067
:10005000C339010000000000E58F0000C339010032
:10006000C3390100C3390100C3390100C33901009C
:10007000C3390100C3390100C3390100C33901008C
:10008000C3390100A9610000C3390100C33901006F
:1000900085620000C339010051380100C3390100F5
:1000A000C3390100C3390100000000000000000056
:1000B0000000000000000000000000000000000040
:1000C00010B5064C2378002B07D1054B002B02D02E
:1000D000044800E000BF0123237010BD78210020F8
:1000E000000000007C48010008B5084B002B03D03D
:1000F0000748084900E000BF07480368002B00D10B
:1001000008BD064B002BFBD09847F9E70000000024
:100110007C4801007C2100206421002000000000B8
:10012000164B002B00D1144B9D46402292029A1A86
:10013000924600218B460F461348144A121A00F0CB
:1001400067F80F4B002B00D098470E4B002B00D0C8
:1001500098470020002104000D000D48002802D01F
:100160000C4800E000BF00F02DF8200029000AF044
:1001700041FB00F011F8C04600000800008000209C
:10018000000000000000000078210020EC4000206A
:100190000000000000000000084B10B5041C002BFC
:1001A00002D0002100E000BF054B1868836A002BD5
:1001B00000D09847201C00F033F8C0460000000033
:1001C000343D01000E4B70B500251E1C0D4CE41A89
:1001D000A410A54204D0AB00F35898470135F8E7C6
:1001E00013F09AFD084B00251E1C084CE41AA410BD
:1001F000A54204D0AB00F35898470135F8E770BD2D
:100200005C2100205C2100205C2100206021002076
:10021000031C8218934202D019700133FAE7704729
:10022000FEE7C04670B50C4B9A78002A06D026220D
:100230009C5C223A002C0CD0101C70BD00240126BE
:10024000E200121992009D189852AE7000220C60C4
:10025000F2E70134F3E7C046CC3F00200A4B021C12
:100260001988814204D0998C0520914209D07047A9
:100270000022D1008A1892009B18002200209A7058
:10028000F5E70122F5E7C046CC3F002010B50B4B47
:10029000021C1888904204D09C8C0520944207D000
:1002A00010BD98780128F7D100230B600020F7E7F4
:1002B00026229B5C012BF3D1F7E7C046CC3F002000
:1002C00070B51D4B9A78002A1CD09A7B002A24D046
:1002D0009A7E002A23D026229A5C002A21D032223C
:1002E0009A5C002A1FD03E229A5C002A1DD04A2226
:1002F0009A5C002A1BD056229C5C523A002C18D0E3
:10030000101C70BD002401266200121992009D1875
:100310009852AE7000220C60F2E70124F3E7022449
:10032000F1E70324EFE70424EDE70524EBE70624D7
:10033000E9E70734E7E7C046144000201A4B021CE7
:100340001988814218D0998981421ED0198B814227
:100350001DD0998C81421CD0198E81421BD0998F5F
:1003600081421AD04821595A814218D05421595AF1
:100370000520914215D07047002251008A18920042
:100380009B18002200209A70F5E70122F5E702226F
:10039000F3E70322F1E70422EFE70522EDE7062267
:1003A000EBE70722E9E7C0461440002010B5264BD2
:1003B000021C1888904218D0988990421AD0188B45
:1003C00090421CD0988C90421ED0188E904221D022
:1003D000988F904226D04820185A904228D0542016
:1003E0001C5A4F38944229D010BD98780128E3D187
:1003F000002314E0987B0128E1D101230FE0987ECF
:100400000128DFD102230AE02620185C0128DCD174
:10041000032304E03220185C0128D9D104230B60A7
:100420000020E1E73E20185C0128D4D10523F6E73F
:100430004A20185C0128D2D10623F0E756229B5CA3
:10044000012BD1D10633EAE71440002010B5074B49
:1004500084B003AC1A685B68009404F099FE00282D
:1004600001D005F0C7FD039804B010BD9421002011
:1004700000B583B001AA00F0E7FE002801D005F026
:10048000B9FD019803B000BD00B583B001AA04F026
:1004900047FE002808D10198002803D0074B9A781E
:1004A000002A04D103B000BD05F0A4FDF3E71888CD
:1004B000FFF744FF0028F5D10198F3E794210020CD
:1004C000F0B50E24071C0E1C151C87B06C4404A844
:1004D000211C05F0C1FB0028F9D1049B05AA187066
:1004E0002388381C013B05930B4B311C1E605D605B
:1004F000049B009201332A1C04F018FE002801D04E
:1005000005F078FD059B0498591C0591034A89B2B2
:1005100005F0B6FB07B0F0BD942100204D040000AB
:1005200030B585B06B46051C9C1D02A8211C05F04A
:1005300093FB0028F9D1029B03AA18702388281C7A
:10054000013B0393094B1D60029B591C00F05AFEAE
:10055000002801D005F04EFD039B0298591C039121
:10056000034A89B205F08CFB05B030BD9C21002008
:100570007104000070B5061C0D1C84B003AC01A80A
:10058000211C05F069FB0028F9D1019B1870238814
:10059000013B0293002D26D0301C211CFFF790FE5A
:1005A00000281ED1039BAA885900CB1811499B0033
:1005B000CB181A812A685A6001220F4B1E809A704C
:1005C000019B301C5A1C291C02AB04F06FFD002853
:1005D0000CD1029B0198591C0291084A89B205F07E
:1005E0004FFB04B070BD044B9D70E9E705F002FDC0
:1005F000EFE7C04614400020942100208904000049
:1006000000B583B001AA01F0EFF8002801D005F091
:10061000F1FC019803B000BD10B5074B84B003ACEA
:100620001A685B68009401F0DFF9002801D005F03A
:10063000E1FC039804B010BDA821002000B5064BD2
:1006400083B01A6801AB01F00BF9002801D005F066
:10065000D1FC019803B000BDA821002000B583B0F3
:1006600001AA01F035FA002801D005F0C3FC019879
:1006700003B000BD00B583B001AA01F051FF00280E
:1006800001D005F0B7FC019803B000BD00B583B000
:1006900001AA01F03DF8002801D005F0ABFC01985B
:1006A00003B000BD00B583B001AA01F06DF90028C8
:1006B00001D005F09FFC019803B000BD00B583B0E8
:1006C00001AA01F023FA002801D005F093FC01985B
:1006D00003B000BD00B583B001AA01F0A1FF00285E
:1006E00001D005F087FC019803B000BD002310B5D0
:1006F0000C4C82B00193226801AB01F0EBFF0028A3
:1007000004D10198002806D102B010BD05F072FC9A
:1007100001980028F8D0A088FFF7A0FD0028F3D1A9
:100720000198F1E7A8210020002300B583B00193D0
:10073000054B1A6801AB01F07FFE002801D005F0DF
:1007400059FC019803B000BDA8210020002300B58A
:1007500083B00193054B1A6801AB00F06BFF0028D2
:1007600001D005F047FC019803B000BDB021002086
:10077000002300B583B001AA019301F055F80028C9
:1007800001D005F037FC019803B000BD002300B58F
:1007900083B001AA019301F0BFF8002801D005F051
:1007A00029FC019803B000BD002300B583B001AA65
:1007B000019301F005FA002801D005F01BFC019817
:1007C00003B000BD002330B5051C83B0019301AC1C
:1007D0006846211C05F040FA0028F9D1009B221C34
:1007E00018702388281C013B2380009B591C00F0B3
:1007F00095FF002801D005F0FDFB019B0098591CD6
:100800000191034A89B205F03BFA03B030BDC046FE
:1008100001060000002370B5061C0D1C82B0019378
:1008200001AC6846211C05F017FA0028F9D1009B9D
:10083000291C18702388301C013B23800A4B1E6042
:100840005D60009B5A1C231C01F0A4F8002801D015
:1008500005F0D0FB019B0098591C0191034A89B215
:1008600005F00EFA02B070BDA821002019060000A4
:10087000002330B5051C83B0019301AC6846211CF0
:1008800005F0EAF90028F9D1009B221C1870238892
:10089000281C013B23800A4B1D60009B591C00F063
:1008A000C9FF002801D005F0A5FB019B0098591C49
:1008B0000191044A89B205F0E3F903B030BDC046A6
:1008C000A82100203D0600000023F0B5071C0E1CE7
:1008D000151C85B0039303AC02A8211C05F0BCF9DC
:1008E0000028F9D1029B311C18702388381C013B69
:1008F0002380029B009401332A1C01F0A5F80028F4
:1009000001D005F077FB039B0298591C0391034A21
:1009100089B205F0B5F905B0F0BDC0465D0600002E
:10092000002330B5051C83B0019301AC6846211C3F
:1009300005F092F90028F9D1009B221C1870238839
:10094000281C013B2380009B591C01F0BBFD0028A3
:1009500001D005F04FFB019B0098591C0191034AFF
:1009600089B205F08DF903B030BDC04675060000B0
:10097000F0B547461D1C002380B480460F1C161C92
:1009800084B0039303AC02A8211C05F065F900288C
:10099000F9D1029B391C187023884046013B238003
:1009A000029B019401330093321C2B1C00F076FE55
:1009B000002801D005F01EFB039B0298591C0391EF
:1009C000034A89B205F05CF904B004BC9046F0BD5E
:1009D0008D060000002370B5061C0D1C82B001932B
:1009E00001AC6846211C05F037F90028F9D1009BBD
:1009F000291C18702388301C013B2380009B5A1C43
:100A0000231C00F08FFF002801D005F0F3FA019BB2
:100A10000098591C0191034A89B205F031F902B0DE
:100A200070BDC046A5060000002370B5061C0D1C55
:100A300082B0019301AC6846211C05F00DF9002835
:100A4000F9D1009B291C18702388301C013B23809E
:100A5000009B5A1C231C01F041F8002801D005F02E
:100A6000C9FA019B0098591C0191034A89B205F00B
:100A700007F902B070BDC046BD060000F0B547469C
:100A80001D1C002380B480460F1C161C84B00393E9
:100A900003AC02A8211C05F0DFF80028F9D1029B65
:100AA000391C187023884046013B2380029B019427
:100AB00001330093321C2B1C01F038FD002801D0BB
:100AC00005F098FA039B0298591C0391034A89B2D6
:100AD00005F0D6F804B004BC9046F0BDD506000081
:100AE000F0B547461D1C002380B4061C8846171C21
:100AF00086B00493059304AC03A8211C05F0ACF860
:100B00000028F9D1039B18702388013B2380194BDF
:100B10001D609E80002D14D0301C05A9FFF782FBBC
:100B2000002803D006B004BC9046F0BD059B1248D7
:100B3000DA00D3189B0018180430291C202213F067
:100B4000D2F8039B019401330093301C41463A1CB8
:100B50002B1C01F06BFD002808D1049B0398591C45
:100B60000491064A89B205F08BF8DBE705F042FAFA
:100B7000F3E7C046A8210020CC3F0020ED0600008E
:100B8000002330B5051C83B0019301AC6846211CDD
:100B900005F062F80028F9D1009B221C1870238808
:100BA000281C013B23800A4B1D60009B591C01F04F
:100BB0002DFC002801D005F01DFA019B0098591C5E
:100BC0000191044A89B205F05BF803B030BDC0461C
:100BD000A821002029070000002330B5051C83B0A0
:100BE000019301AC6846211C05F036F80028F9D1C4
:100BF000009B221C18702388281C013B23800A4B71
:100C00001D60009B591C00F0FFFC002801D005F07E
:100C1000F1F9019B0098591C0191044A89B205F031
:100C20002FF803B030BDC046B02100204D070000B2
:100C3000002310B582B0019301AC6846211C05F079
:100C40000BF80028F9D1009B211C18702388013B68
:100C50002380009B581C00F0CDFD002801D005F03A
:100C6000C9F9019B0098591C0191034A89B205F00A
:100C700007F802B010BDC04671070000002370B530
:100C8000061C0D1C82B0019301AC6846211C04F0C7
:100C9000E3FF0028F9D1009B291C18702388301C21
:100CA000013B2380009B5A1C231C00F007FE0028F8
:100CB00001D005F09FF9019B0098591C0191034A4E
:100CC00089B204F0DDFF02B070BDC0468D070000A0
:100CD0000023F0B5071C0E1C151C85B0039303AC54
:100CE00002A8211C04F0B8FF0028F9D1029B311C96
:100CF00018702388381C013B2380029B0094013329
:100D00002A1C00F009FF002801D005F073F9039BAD
:100D10000298591C0391034A89B204F0B1FF05B04F
:100D2000F0BDC046A907000000B583B001AA03F0DA
:100D300095F8002801D005F05DF9019803B000BDD9
:100D400000B583B001AA02F07FFB002801D005F0B6
:100D500051F9019803B000BD00B583B001AA02F0BB
:100D6000A3FB002801D005F045F9019803B000BDB0
:100D700000B583B001AA03F095F8002801D005F072
:100D800039F9019803B000BD00B583B001AA03F0A2
:100D900043FA002801D005F02DF9019803B000BDF9
:100DA0000023F0B5071C0E1C151C85B0039303AC83
:100DB00002A8211C04F050FF0028F9D1029B311C2D
:100DC00018702388381C013B2380029B0094013358
:100DD0002A1C03F015F8002801D005F00BF9039B3D
:100DE0000298591C0391034A89B204F049FF05B0E7
:100DF000F0BDC046290D0000002370B5061C0D1C77
:100E000082B0019301AC6846211C04F025FF002844
:100E1000F9D1009B291C18702388301C013B2380CA
:100E2000009B5A1C231C02F0E3FA002801D005F0B5
:100E3000E1F8019B0098591C0191034A89B204F022
:100E40001FFF02B070BDC046410D0000002370B509
:100E5000061C0D1C82B0019301AC6846211C04F0F5
:100E6000FBFE0028F9D1009B291C18702388301C38
:100E7000013B2380009B5A1C231C02F0EBFA002844
:100E800001D005F0B7F8019B0098591C0191034A65
:100E900089B204F0F5FE02B070BDC046590D0000E5
:100EA0000023F0B5071C0E1C151C85B0039303AC82
:100EB00002A8211C04F0D0FE0028F9D1029B311CAD
:100EC00018702388381C013B2380029B0094013357
:100ED0002A1C02F0C9FF002801D005F08BF8039B03
:100EE0000298591C0391034A89B204F0C9FE05B067
:100EF000F0BDC046710D0000002370B5061C0D1C2E
:100F000082B0019301AC6846211C04F0A5FE0028C4
:100F1000F9D1009B291C18702388301C013B2380C9
:100F2000009B5A1C231C03F02BF9002801D005F06C
:100F300061F8019B0098591C0191034A89B204F0A1
:100F40009FFE02B070BDC046890D000000B583B0A1
:100F500001AA03F0A7FD002801D005F04BF8019885
:100F600003B000BD002300B583B001AA019303F0D4
:100F700057FB002801D005F03DF8019803B000BDF3
:100F8000002300B583B001AA019303F001FB002800
:100F900001D005F02FF8019803B000BD10B5074B44
:100FA00084B003AC1A685B68009403F0E1FC00288D
:100FB00001D005F01FF8039804B010BDB421002043
:100FC000F0B547461D1C002380B480460F1C161C3C
:100FD00084B0039303AC02A8211C04F03DFE00285A
:100FE000F9D1029B391C187023884046013B2380AD
:100FF000029B019401330093321C2B1C03F00CFD67
:10100000002801D004F0F6FF039B0298591C0391BD
:10101000034A89B204F034FE04B004BC9046F0BD2B
:101020004D0F00000023F0B5071C0E1C151C85B0E9
:10103000039303AC02A8211C04F00EFE0028F9D192
:10104000029B311C18702388381C013B2380029BB3
:10105000009401332A1C03F0A1FA002801D004F007
:10106000C9FF039B0298591C0391034A89B204F0FB
:1010700007FE05B0F0BDC046650F0000002370B547
:10108000061C0D1C82B0019301AC6846211C04F0C3
:10109000E3FD0028F9D1009B291C18702388301C1F
:1010A000013B2380009B5A1C231C03F037FA0028C5
:1010B00001D004F09FFF019B0098591C0191034A45
:1010C00089B204F0DDFD02B070BDC046810F0000A2
:1010D000F0B5474680B41F1C002380460E1C151C2B
:1010E00084B0039303AC02A8211C04F0B5FD0028D2
:1010F000F9D1029B311C187023884046013B2380A4
:101100000D4B2A1C1E605D60029B0194013300930D
:101110003B1C03F0EFFB002801D004F06BFF039BA6
:101120000298591C0391054A89B204F0A9FD04B044
:1011300004BC9046F0BDC046B42100209D0F0000C5
:1011400000B5064B83B01A6801AB04F0D3F8002851
:1011500001D004F04FFF019803B000BDC021002072
:10116000002310B582B0019301AC6846211C04F045
:1011700073FD0028F9D1009B211C18702388013BC6
:101180002380009B581C04F007F9002801D004F0CC
:1011900031FF04F091F9019B0098591C0191002244
:1011A00089B204F06DFD02B010BDC046002330B519
:1011B000051C83B0019301AC6846211C04F04CFD72
:1011C0000028F9D1009B221C18702388281C013BA1
:1011D00023800A4B1D60009B591C04F063F8002813
:1011E00001D004F007FF019B0098591C0191044AAB
:1011F00089B204F045FD03B030BDC046C0210020D7
:101200004111000010B5031C84B0002907D0002A4A
:1012100005D014680920012C03D804B010BD0E209D
:10122000FBE7181C012303935F330B70054B141C61
:101230000093126803AB03F0E7FF0028EDD1039B96
:101240002360EAE74950000008B5131C602203F050
:1012500099FC08BDF8B5041E13D0002B11D009204D
:1012600001290DD967781D1C23783F02161C1F43E6
:1012700002340239002A00D101E12B68032B02D885
:10128000F8BD0E20FCE7043B2B60702F00D9F2E084
:101290007F4ABB00D3589F46201C321C2B1C03F0F6
:1012A00007FC002E05D0002800D0E5E037802B8811
:1012B00073802B6804332B60E2E7201C321C2B1C4C
:1012C00003F09CF8EDE7201C321C2B1C03F03EF8C9
:1012D000E7E7201C321C2B1C02F0A4FFE1E7201CD6
:1012E000321C2B1C03F05AF8DBE7201C321C2B1C91
:1012F00002F0C8FFD5E7201C321C2B1C03F0AEF80F
:10130000CFE7201C321C2B1C02F0DEFCC9E7201C9E
:10131000321C2B1C02F03AFBC3E7201C321C2B1C96
:1013200002F002FDBDE7201C321C2B1C02F064FA07
:10133000B7E7201C321C2B1C02F018FCB1E7201C64
:10134000321C2B1C02F0FCF9ABE7201C321C2B1CBE
:1013500002F0B0F8A5E7201C321C2B1C02F08EFA1C
:101360009FE7201C321C2B1C02F002F999E7201C7D
:10137000321C2B1C02F05EFC93E7201C321C2B1C41
:1013800002F068FB8DE7201C321C2B1C00F03CFF98
:1013900087E7201C321C2B1C00F046FD81E7201C37
:1013A000321C2B1C00F0D2FF7BE7201C321C2B1CB4
:1013B00000F00CFC75E7201C321C2B1C00F0F4FE26
:1013C0006FE7201C321C2B1C00F0F0FF69E7201C8B
:1013D000321C2B1C00F06CFD63E7201C321C2B1C04
:1013E00000F090FC5DE7201C321C2B1C00F038FE46
:1013F00057E7201C321C2B1C00F054FC51E7201C2A
:10140000321C2B1C00F0FAFD4BE7201C321C2B1C5D
:1014100000F084FE45E7201C321C2B1C00F030FF3E
:101420003FE7201C321C2B1C00F05CFF39E7201C1E
:10143000321C2B1C00F0B4FC33E7201C321C2B1C8C
:1014400000F0ACFD2DE7201C321C2B1C00F074FDBD
:1014500027E7201C321C2B1C00F04EF821E7201C33
:10146000321C2B1C00F0A2F81BE7201C321C2B1C8A
:1014700000F012F815E705200023338018E7702FDD
:1014800003D8044ABB00D3589F46052011E7C04645
:10149000383D0100FC3E0100F0B5002483B001940A
:1014A000002806D0002B04D0022904D8092003B05C
:1014B000F0BD0E20FBE71D1C171C0E1C041C002A8F
:1014C00016D01B680C20022BF1D9012313800233A4
:1014D0005380201C131D01AA03F0B8FB3B1C201CE9
:1014E0000833311C01AA03F0DDFB019BB342DDD1BF
:1014F000032300202B60DAE7F0B5474680B482B0C2
:10150000002817D0002B15D01E1C0023141C0F1C04
:10151000051C0093002A0FD0032313800D33538042
:10152000131D6A4603F080FB002809D002B004BCFA
:101530009046F0BD0E20F9E7102300203360F5E758
:1015400008239846A044281C391C6A46434603F0E9
:101550009BFB0028EAD14346281C0833391C6A4605
:1015600003F062FB0028E1D1009B591CEB5C009169
:10157000012B0AD0E060A088FEF7E0FE0028D5D15C
:10158000009BBB42D8D00930D0E7A08801A9FEF764
:101590000DFF0028CAD1019B5A00D318024A9B00B4
:1015A000D3185B68E360E6E714400020F0B583B031
:1015B000002815D0002B13D01E1C0023141C0F1C58
:1015C000051C0193002A0DD002231380033353809E
:1015D000131D01AA03F028FB002807D003B0F0BDBB
:1015E0000E20FBE7052300203360F7E7231C281CAF
:1015F0000833391C01AA03F047FB0028EED1019BF8
:10160000BB42EFD00930E9E710B500290FD0002A1E
:101610000DD014680923012C07D968330B70431EC1
:1016200098410223487013600023181C10BD0E233C
:10163000FBE7C046F0B585B0002817D0002B15D0C9
:101640001D1C0E1C0023171C0393009503A9321CBC
:101650007133041C03F070FA002808D12B68002BAA
:1016600007D0039BB34217D0092000E00E2005B03D
:10167000F0BD039BDA1D9642F6D3002FF6D0591C1D
:10168000E35C03913B70781C6118062212F02BFB7F
:10169000039B06339E42E7D10020E8E7F0B54746BA
:1016A00080B484B0051C0A980B9C002816D00E202C
:1016B000002C0FD01F1C002303380393684472339F
:1016C00090460E1C03700A99226803AB03F0CEFA11
:1016D000002805D004B004BC9046F0BD0E20F9E708
:1016E00003AB0093281C311C0A9A236803F0F2FA1A
:1016F0000028EFD103AB00934046391C0A9A2368B7
:1017000003F0E8FA0028E5D1039B2360E2E7C04636
:1017100008B5131C722203F035FA08BDF0B5031C9E
:1017200085B000291CD0002A1AD016680920012E85
:1017300014D91F1C73230B70713B03933B1C151CA6
:101740005A1E9341DBB20C1C4B70002B44D0381C4A
:10175000321C03AB03F08AFA002803D005B0F0BDB9
:101760000E20FBE71E4B211C00937868321C03AB54
:1017700003F04AFD0028F1D1381C211C0830321C2E
:1017800003AB03F073FA0028E8D1164B211C009339
:10179000F868321C03AB03F037FD0028DED1381C9B
:1017A000211C1030321C03AB03F02CFA0028D5D1D9
:1017B000381C211C1230321C03AB03F023FA002822
:1017C000CCD1381C03AB1430211C321C01F0DAFDE3
:1017D000039B002801D0C1E702232B600020BDE756
:1017E000612700006928000008B5131C732203F06C
:1017F000C9F908BD10B5031C82B00E20002B11D012
:1018000000290FD00C1C191C6B46D81C74230370C4
:1018100000232268019301AB03F028FA002801D1CC
:10182000019B236002B010BD08B5131C742203F0A5
:10183000A9F908BD10B500290FD0002A0DD01468F1
:101840000923012C07D970330B70431E98410223E2
:10185000487013600023181C10BD0E23FBE7C04620
:10186000F0B5041C85B00E20002C16D0002B14D02F
:101870001D1C0E1C0023171C03930095201C03A99C
:10188000321C793303F058F9002806D12B68002B5D
:1018900005D0039BB3420FD0092005B0F0BD039BD8
:1018A00002339E42F8D33B1C201C311C03AA03F0D8
:1018B000CDF9039BB342EFD10020EEE770B51C1CBD
:1018C0000E2386B06B440E1C151E188007D0002C0A
:1018D00005D022680920002A03D106B070BD0E2071
:1018E000FBE7012205927D322A70181C291C226810
:1018F00005AB03F087F90028EFD1064B301C0093AD
:10190000291C226805AB03F07FFC0028E5D1059B6C
:101910002360E2E7C92E000008B5131C7E2203F005
:1019200031F908BD10B5002A06D0002B04D01C6880
:10193000032C03D8092010BD0E20FCE75070000ACC
:1019400075249070081C1470441EA041C0B2D07061
:10195000002816D018680C28ECD908881071000AE5
:10196000507148889071000AD07188881072000AFE
:101970005072C9889172090AD1720C221A60002033
:10198000D9E70422FAE7C04608B5131C752203F014
:10199000F9F808BD30B5002A12D0002B10D01C6811
:1019A000012C0BD97D2414700C1C651EAC41E4B2D3
:1019B0005470002C15D01C68032C03D8092030BDAE
:1019C0000E20FCE7098804249170090AD1700521D2
:1019D0001D688D42F2D3451EA841105519600020A4
:1019E000EDE703210224F3E770B586B003920028E7
:1019F00018D00A9A002A15D00D1C1E1C0023009234
:101A0000059305A92A1C7D23041C03F095F80028E2
:101A100009D10A9B1B68002B07D0059BAB4210D055
:101A2000092000E00E2006B070BD002EFAD000960E
:101A3000201C291C05AA03AB03F0A4F90028ECD054
:101A4000F1E70020EFE7C046F8B5069C002B12D066
:101A5000002C10D02568012D0BD97C251D70051C8C
:101A60006E1EB541EDB25D70002D2CD02568022DA3
:101A700003D80920F8BD0E20FCE7007805270509EA
:101A800000072D01000F2843032606259870072024
:101A90001F2AEFD82068A842EBD300209E1970704F
:101AA000081C3270461EB041C0B2D855002807D07D
:101AB0002068AE188642DCD8581912F014F9351C8B
:101AC00025600020D6E7042705250226DFE7C0466B
:101AD00008B5131C7C2203F055F808BD30B5002A68
:101AE00007D0002B05D01D680924032D03D8201C26
:101AF00030BD0E24FBE750706D34000A14709070F6
:101B0000D170042200241A60F1E7C04608B5131C06
:101B1000762203F037F808BDF0B5474680B4161CAE
:101B20001C1E069D08D0002D06D02B68032B05D85F
:101B3000092004BC9046F0BD0E20FAE785236070B2
:101B4000000A2370A0702B68032BF1D90B1C5A1EBE
:101B50009341DBB2E370002B2BD02B680D2BE7D920
:101B60000B88082223711B0A6371A01D023112F039
:101B7000BAF81F23202798460F200E22331C591E27
:101B80008B41DBB2A354002B10D02B68BB42CFD3C8
:101B900010222018311C12F0A6F8337C381C9A0849
:101BA0009B075200DB0F13434246A35428600020DA
:101BB000BFE715231627984605200422DEE7C04616
:101BC00008B5131C852202F0DDFF08BDF0B54746BD
:101BD000002480B484B00394002808D0002B06D0E1
:101BE0000A2906D8092004B004BC9046F0BD0E2096
:101BF000F9E71D1C171C0E1C041C002A4DD01B6885
:101C00000C202B2BEFD91D2313800F335380201C66
:101C1000131D03AA03F008F80028E4D13B1C201C84
:101C2000311C03AA083300F0B5FD0028DBD13B1CB2
:101C3000201C311C03AA0F3303F026F80028D2D150
:101C40000B23201C6B44311C03AA984603F01CF89C
:101C50000028C8D143461B7801211A1C387C0A4051
:101C600088431043062205319043DA081940D30017
:101C70009C46031C0B4307210B4061460B433B74FE
:101C80003B1C00921133201C311C03AA03F00CF9F9
:101C90000028A8D1039BB342A4D12C2300202B60A1
:101CA000A1E7C046F0B5002483B00194002806D017
:101CB000002B04D0022904D8092003B0F0BD0E2067
:101CC000FBE71D1C171C0E1C041C002A16D01B68E9
:101CD0000C20022BF1D917231380143B5380201CB6
:101CE000131D01AA02F0B2FF3B1C201C0833311C5B
:101CF00001AA02F0D7FF019BB342DDD103230020EC
:101D00002B60DAE7F0B5002483B00094002806D0F9
:101D1000002B04D0072904D8092003B0F0BD0E2001
:101D2000FBE71D1C171C0E1C041C002A31D01923B4
:101D3000138013335380131D6A4602F075FF002889
:101D4000EBD13B1C201C311C6A46083300F0EEFE30
:101D50000028E2D17B7A5B07DFD5B88801A9FEF7BE
:101D600095FA0028D9D1019B201CDA00D3180B4A20
:101D70009B009B180433311C6A4601F055FA002879
:101D8000CBD1B888FEF76AFA0028C6D1009BB342CF
:101D9000C2D12C2300202B60BFE7C046CC3F0020DF
:101DA000F0B5002483B00194002806D0002B04D0A5
:101DB000032904D8092003B0F0BD0E20FBE71D1C49
:101DC000171C0E1C041C002A2AD01B680C200B2B8D
:101DD000F1D9122350801380201C131D01AA02F098
:101DE00035FF3B1C201C0833311C01AA02F02EFFDA
:101DF0003B1C201C0A33311C01AA02F027FF3B1CAC
:101E0000201C0C33311C01AA02F020FF3B1C201CBB
:101E10000E33311C01AA02F019FF019BB342C9D154
:101E20000C2300202B60C6E7F0B5002483B001949A
:101E3000002806D0002B04D0032904D8092003B0C1
:101E4000F0BD0E20FBE71D1C171C0E1C041C002AF5
:101E50002AD01B680C200B2BF1D91F235080138034
:101E6000201C131D01AA02F0F1FE3B1C201C0833AC
:101E7000311C01AA02F0EAFE3B1C201C0A33311C73
:101E800001AA02F0E3FE3B1C201C0C33311C01AA0A
:101E900002F0DCFE3B1C201C0E33311C01AA02F0B8
:101EA000D5FE019BB342C9D10C2300202B60C6E7AD
:101EB000F0B5002483B00194002806D0002B04D094
:101EC000032904D8092003B0F0BD0E20FBE71D1C38
:101ED000171C0E1C041C002A2AD01B680C20052B82
:101EE000F1D91A231380143B5380201C131D01AA1F
:101EF00002F0ACFE0F21019BE3181A780A40101C77
:101F00003A7A8A4302433A721A783B7A12091201EA
:101F10000B4013433B72019B201C591C3B1C01913D
:101F20000933311C01AA02F0BDFE019BB342C9D1A5
:101F3000062300202B60C6E7F0B5002483B001948F
:101F400000280DD0002B0BD01D1C171C0E1C041CD0
:101F5000002A07D01B680C20192B07D803B0F0BD4E
:101F60000E20FBE71A2300202B60F7E71A23201C22
:101F70005380131D01AA02F057FE0028EED13B1C2E
:101F8000201C0833311C01AA00F01AFF0028E5D1FB
:101F9000019BB342E6D00930E0E7C046F0B500242B
:101FA00083B00194002806D0002B04D0022904D865
:101FB000092003B0F0BD0E20FBE71D1C171C0E1CF2
:101FC000041C002A16D01B680C20022BF1D9112307
:101FD00013800E3B5380201C131D01AA02F036FE15
:101FE0003B1C201C0833311C01AA02F05BFE019B44
:101FF000B342DDD1032300202B60DAE7F0B50024E3
:1020000083B0019400280DD0002B0BD01D1C171C91
:102010000E1C041C002A07D01B680C20042B07D8B8
:1020200003B0F0BD0E20FBE7052300202B60F7E78F
:102030000523201C5380131D01AA02F0F5FD002882
:10204000EED13B1C201C0833311C01AA02F01CFEFF
:102050000028E5D1019BB342E6D00930E0E7C04655
:10206000F0B54746002480B486B00494002808D018
:10207000002B06D0032906D8092006B004BC9046E0
:10208000F0BD0E20F9E71D1C171C0E1C041C002AB5
:102090003BD01B680C20052BEFD90623201C538056
:1020A000131D04AA02F0C0FD0028E6D1B88805A9D6
:1020B000FEF7ECF80028E0D1059B201CDA00D318CD
:1020C000144A9B00D3181B6A311CBB60124B04AA34
:1020D00000933B1C083303F0B1F80028CDD10F2347
:1020E000201C6B44311C04AA984602F0CDFD002848
:1020F000C3D1434601211B780B401A1C3B7B8B4309
:1021000013433B73049BB342B6D1062300202B60DC
:10211000B3E7C046CC3F002041280000F0B50024C2
:1021200083B0019400280DD0002B0BD01D1C171C70
:102130000E1C041C002A07D01B680C200A2B07D891
:1021400003B0F0BD0E20FBE70B2300202B60F7E768
:10215000152313800A3B5380201C131D01AA02F093
:1021600063FD0028ECD1381C019B0622E1180830E1
:1021700011F0B9FD019B201C063301936B46311C05
:1021800001AA033302F080FD0028D9D16B4601215A
:10219000DB780B401A1CBB7B8B431343BB73019B47
:1021A000B342D1D00930CBE7F0B5002483B001941D
:1021B000002806D0002B04D0022904D8092003B03F
:1021C000F0BD0E20FBE71D1C171C0E1C041C002A72
:1021D00016D01B680C20022BF1D91C231380193B4D
:1021E0005380201C131D01AA02F030FD3B1C201C53
:1021F0000833311C01AA02F061FD019BB342DDD11D
:10220000032300202B60DAE7F0B5002483B00194AB
:1022100000280DD0002B0BD01D1C171C0E1C041CFD
:10222000002A07D01B680C200B2B07D803B0F0BD89
:102230000E20FBE70C2300202B60F7E720235080C3
:102240001380201C131D01AA02F0EEFC0028EDD122
:102250003B1C201C311C01AA093300F09BFA00280A
:10226000E4D13B1C201C0833311C01AA02F00CFDF8
:102270000028DBD1019BB342DCD00930D6E7C04651
:10228000F0B5002483B00194002806D0002B04D0C0
:10229000032904D8092003B0F0BD0E20FBE71D1C64
:1022A000171C0E1C041C002A18D01B680C20172BAE
:1022B000F1D91423138004335380201C131D01AA69
:1022C00002F0C4FC3B1C201C0833311C01AA00F0A6
:1022D00021FD0028DFD1019BB342DBD11823002070
:1022E0002B60D8E7F0B5002483B00194002806D015
:1022F000002B04D0062904D8092003B0F0BD0E201D
:10230000FBE71D1C171C0E1C041C002A1AD01B689E
:102310000C20062BF1D9132313800C3B5380201C77
:10232000131D01AA02F080FC0028E6D13B1C201CF2
:102330000833311C01AA00F047FE0028DDD1019BC3
:10234000B342D9D1072300202B60D6E7F0B5002493
:1023500083B00194002806D0002B04D0022904D8B1
:10236000092003B0F0BD0E20FBE71D1C171C0E1C3E
:10237000041C002A16D01B680C20022BF1D9032361
:10238000201C5380131D01AA02F060FC3B1C201C82
:102390000833311C01AA00F0BDFF0028E1D1019BE8
:1023A000B342DDD1032300202B60DAE770B5161CA1
:1023B000002282B0041C1D1C0192002806D0002BB4
:1023C00004D0032904D0092002B070BD0E20FBE721
:1023D000002E16D01B680C20022BF5D91B23718010
:1023E0003380201C331D032101AA02F02FFC331C73
:1023F000201C0833032101AA02F054FC019B032B8B
:10240000E1D1032300202B60DEE7C04610B5002990
:102410000FD0002A0DD014680923012C07D972337C
:102420000B70431E98410223487013600023181C50
:1024300010BD0E23FBE7C046F0B547460E1C904684
:10244000002280B484B0039200931D1C03A9321CA7
:102450007B23071C02F070FB041E0AD12C68002CA1
:102460000CD14346002B0BD0039B08339E4209D26C
:102470000924201C04B004BC9046F0BD0024F8E7F9
:102480000E24F6E7381C311C03AA434602F0DEFB9B
:102490004346381C0233311C03AA02F0D7FB4346E3
:1024A000381C0433311C03AA02F0D0FB4346381C0D
:1024B0000633311C03AA02F0C9FB039BB342D8D0F8
:1024C0000924D6E710B5002912D0002A10D01368CD
:1024D000012B0BD97A230B70031C5C1EA341DBB2CA
:1024E0004B70002B1AD01368092B03D8092010BD9C
:1024F0000E20FCE703888B701B0ACB7043880B719E
:102500001B0A4B7183888B711B0ACB71C3880B72BA
:102510001B0A4B720A2313600020E8E70223FAE744
:1025200008B5131C7A2202F02DFB08BDF0B5474612
:102530000E2480B486B01F1C0C9B6C4420800E1CA3
:1025400090460E20002B11D00D9B002B0ED0862321
:102550000530684403700D9B0C991D6800232A1CEC
:10256000059305AB02F082FB002803D006B004BC43
:102570009046F0BD201C0C992A1C05AB02F042FBD2
:102580000028F3D1059B581C854201D20920EDE7B4
:10259000321C511E8A410C99D2B20590CA54002AAD
:1025A00016D012339D42F1D38C461022311C604468
:1025B00011F099FB059B1A1C113205920C9AD21846
:1025C000337C99089B074900DB0F0B430C9913746C
:1025D000124B404600932A1C05AB02F015FE002862
:1025E000C4D1059B581C8542D0D33A1C511E8A4148
:1025F0000C99D2B20590CA54002A0BD011339D42D7
:10260000C4D30C9B391C9C461022604411F06BFB18
:10261000059810300D9B18600020A7E739270000AF
:1026200008B5131C862202F0ADFA08BDF0B5474686
:102630000E240D2580B486B01F1C0C9B6C446D4489
:102640002080161C29700E20002B12D00D9B002B11
:102650000FD07F230530684403700D9B0C991B68D5
:10266000984600234246059305AB02F0FFFA002886
:1026700003D006B004BC9046F0BD201C0C99424625
:1026800005AB02F0BFFA0028F3D1281C0C99424692
:1026900005AB02F0EBFA0028EBD10C4B301C009399
:1026A0000C99424605AB02F0AFFD0028E1D1084B82
:1026B000381C00930C99424605AB02F0A5FD00289A
:1026C000D7D10D9B059A1A60D3E7C046C92E0000EA
:1026D0004931000070B586B00392002816D0002B57
:1026E00014D01D1C0E1C00230095059305A9321C57
:1026F0007F33041C02F020FA002808D12B68002B3D
:1027000007D0059BB34212D0092000E00E2006B08E
:1027100070BD039B002BF9D0064B201C0093311C8D
:1027200005AA03AB02F08AFD0028EAD0EFE70020FB
:10273000EDE7C0462932000038B51D680924521B58
:102740000F2A01D8201C38BD1C1C0B1C1022011C98
:10275000581911F0C8FA2368103323600024F1E7F8
:1027600038B51D680924521B062A01D8201C38BD23
:102770001C1C031C02784A552268501C206006224B
:102780000818591C11F0AFFA23680633236000249F
:10279000ECE7C04638B515680924491B062901D85D
:1027A000201C38BD141C425D1A7022680133511C74
:1027B000216006224118181C11F095FA236806338F
:1027C00023600024ECE7C04638B51D680924521B7D
:1027D0000F2A01D8201C38BD1C1C0B1C1022011C08
:1027E000581911F080FA2368103323600024F1E7B0
:1027F00038B515680924491B0F2901D8201C38BD9C
:10280000141C41191022181C11F06DFA23681033A2
:1028100023600024F2E7C04638B51D680924521B26
:102820003F2A01D8201C38BD1C1C0B1C4022011C57
:10283000581911F058FA2368403323600024F1E757
:1028400038B515680924491B3F2901D8201C38BD1B
:10285000141C41194022181C11F045FA236840331A
:1028600023600024F2E7C046F0B54F464646C0B4A8
:10287000041C83B000290AD0002B08D0057907205A
:10288000082D06D903B00CBC90469946F0BD0E2029
:10289000F8E7257B082DF5D8201D1E1C171C0D1CE4
:1028A00002F0E4F9002320680093291C331C3A1C31
:1028B00002F0AAFC2379002B14D0002398461D4B6C
:1028C0009946434622689B0098584B46291C009322
:1028D0003A1C331C02F098FC01239C462379E04407
:1028E0009845EED3201C291C3A1C331C0C3002F0F6
:1028F000BDF90023A0680093291C331C3A1C02F088
:1029000083FC237B002BBDD0002398460A4B9946BD
:102910004346A2689B0098584B46291C00933A1CDA
:10292000331C02F071FC01239C46237BE044984554
:10293000EED3A7E76127000039270000F0B547462E
:10294000041C80B40E20002906D0002B04D0186887
:10295000151A102D03D8092004BC9046F0BD1D1C8B
:10296000171C0E1C08181022211C11F0BCF90222A1
:10297000296810312960237C1A40101C9A089200A3
:102980000243201CDB07DB0F134373542B683A1CF4
:1029900001332B601230311C2B1C02F033F98046BE
:1029A00028683A1A072AD6D9211C3018143108226F
:1029B00011F099F92B68404608332B60CCE7C046EC
:1029C000F0B5474680B4002909D0002B07D01F6816
:1029D000D41B0F2C05D8092004BC9046F0BD0E2056
:1029E000FAE780461C1C161CC81910220D1C414613
:1029F00011F079F9236810332360F21A062AEAD914
:102A000042464146127C1131EA5423680622581C82
:102A10002060281811F067F923680020063323602E
:102A2000DAE7C046F0B5474680B4002809D0002A4E
:102A300007D015684C1B0F2C05D8092004BC904604
:102A4000F0BD0E20FAE78846141C41191022061C1E
:102A5000181C1F1C11F047F94246236810332360ED
:102A6000D11A0629E9D9381CF35C11303B7423686C
:102A70000622591C2160711811F035F923680020D5
:102A800006332360DAE7C046F8B5051C0E20002D9A
:102A900006D0002A04D010680C1A0F2C01D8092087
:102AA000F8BD141C0E1C10222918181C1F1C11F034
:102AB0001AF92368103323609E42F0D00122E95CAA
:102AC0001140081C397C9143014339742368281C48
:102AD000EB5C5B0813405A00CBB202218B431343DB
:102AE0003B7423680131EB5C9B089A003B7C0B40F4
:102AF00013433B742368311C013323603B1C221CAD
:102B0000123302F091F80028CAD123680930F11A73
:102B10000729C5D9381CE9181430082211F0E3F848
:102B20002368002008332360BAE7C046F0B55F464B
:102B3000444656464D46F0B4071C106883B00C1A44
:102B4000052C07D8092003B03CBC90469946A24604
:102B5000AB46F0BD0E20002BF5D0381C1E1C141CFB
:102B60000D1C02F091F80028EDD16B46381C291C91
:102B7000221C033302F088F80028E4D103226B46BC
:102B8000111CDB787078194090439B08023A13407F
:102B900090469A00031C0B4304218B43134373702C
:102BA000236889469D42CDD0381C291C221C01ABCC
:102BB00002F06AF80028C6D142464146019BB0782F
:102BC000194090435A08434608431A40013398433A
:102BD0009B46019B52009908434619404B461043BF
:102BE00042469843019B8900DB081340DA00031C2E
:102BF0000B4308218B431343B37023688A469D42DD
:102C0000A0D0381C291C221C01AB02F03DF8002882
:102C100099D142464146019BF078194090435A08A9
:102C200043461A405B4608439843019B520099086B
:102C3000434619404B46104342469843019B890046
:102C4000DB081340DA00031C0B4351468B4313434C
:102C5000F370002F5CD0236809209D4200D172E7F9
:102C6000FB5C07390B401A1C337907388B4313433D
:102C7000337123688446FB5C5B080B405A00337950
:102C800083431343337123680230FB5C9B080B4082
:102C90009A00337983431343337123680430FB5C18
:102CA0008046DB080B40DA003379834313433371EA
:102CB0002368013323609D4200D143E7FB5C6046FB
:102CC0000B401A1C73798B43134373712368FB5CAD
:102CD0005B080B405A007379834348461343737172
:102CE0002368FB5C9B080B409A0073798343134372
:102CF0004246737123680020FB5CDB08194073793E
:102D0000C90093430B4373712368013323601AE7AF
:102D10000E2018E7F0B5474680B41468804682B0AC
:102D20000D1B0920062D03D802B004BC9046F0BD4F
:102D30001F1C4346161C1B5D0D1C3B701368781C42
:102D4000591C11604144062210F0CDFF3368404603
:102D5000063333603B1C291C0833321C01F064FF2E
:102D60000028E1D1316809306B1A072BDCD9381CF7
:102D7000414408220A3010F0B6FF33684046083359
:102D800033606B46DC1D291C321C231C01F07CFFC8
:102D90000028C9D10122151C2378BC7C1D40944316
:102DA0002C43022559089B081340AC4311409A005C
:102DB000231C49000B4304218B431343BB74B3E72B
:102DC000F0B5474680B482B000246D46EC711468BB
:102DD0000D1B062D05D80924201C02B004BC90460A
:102DE000F0BD1F1C8046161C0D1C035D781C3B703B
:102DF0001368591C11600622414410F074FF3368B7
:102E000006333360EA1A062AE5D94246381CD35CF9
:102E10000830FB7133680622591C3160414410F0C0
:102E200062FF33684046063333603B1C291C321C6A
:102E30000E3301F029FF041ECED16B464046291CFB
:102E4000321C073301F020FF041EC5D10120FA7B9C
:102E50006B468243011C9446DB7919405B085A009B
:102E600063460B4303401343FB73336802339D42B5
:102E7000B1D33B1C40461033291C321C01F0E6FE46
:102E8000336802339D42A6D33B1C40461233291CB3
:102E9000321C01F0DBFE336802339D429BD33B1CA6
:102EA00040461433291C321C01F0D0FE3368023333
:102EB0009D4200D28FE73B1C40461633291C321C32
:102EC00001F0C4FE88E7C046F0B583B0061C1C1CA8
:102ED0006B46171C0622D81D33780D1C1A40111C96
:102EE000DA07D20F0A43082119400A43702119401A
:102EF000DB090A43DB0113430370291C3A1C231C22
:102F000001F0B4FE002801D003B0F0BD701C291CF4
:102F10003A1C231C01F0AAFE0028F5D1B01C291C84
:102F20003A1C231C01F0A2FE0028EDD1002D48D050
:102F3000002C46D0226809309742E5D0F378DB07B1
:102F4000DB0FAB542368F178EA1802230B401178A9
:102F50000B4313702368F178EA1804230B401178AF
:102F60000B4313702368F178EA1808230B4011789B
:102F70000B4313702368013323609F42C4D032791E
:102F80000020D207D20FEA5423683179EA180223CD
:102F90000B4011780B43137023683179EA1804232E
:102FA0000B4011780B431370236832799C46082339
:102FB000654413402A7813432B7023680133236040
:102FC000A2E70E20A0E7C046F0B55F4656464D4644
:102FD0004446F0B483B01E1C6B460733051C0F1C1F
:102FE000141C01F051FE002806D003B03CBC9046F2
:102FF0009946A246AB46F0BD0122904631786B4619
:1030000091438C464146DB79101C5A080A40520015
:1030100091466246184010434246013188438B4630
:10302000990811404A46024304208243944642468E
:103030008246D80810406246890011430822C00029
:10304000914301437020914668321A4081431143F5
:103050007F22DB09DB010A401A433270731C281CF3
:10306000391C221C01F010FE0028BED1B31C281C04
:10307000391C221C01F008FE0028B6D1002D60D0BA
:10308000002C5ED0236809309F42AED042464146B4
:10309000EB5C1A40F3788B431343F3702368EB5CCB
:1030A0005B080B4059465A00F3788B431343424662
:1030B0005146F3702368EB5C9B0813409A00F37849
:1030C0008B43134342464946F3702368EB5CDB08AD
:1030D0001340DA00F3788B431343F3702368013312
:1030E00023609F4200D180E742464146EB5C0020CE
:1030F0001A4033798B43134333712368EB5C5B08CD
:103100000B4059465A0033798B431343424651468C
:1031100033712368EB5C9B0813409A0033798B432F
:1031200013434246494633712368EB5CDB08134086
:10313000DA0033798B4313433371236801332360FF
:1031400053E70E2051E7C046F0B55F4656464D4660
:103150004446F0B4071C83B00E2000290DD0002B8C
:103160000BD01D1C2C4B161C0093984638682B1C4A
:103170000C1C02F049F8002806D003B03CBC904675
:103180009946A246AB46F0BD244B211C00939946BC
:103190007868321C2B1C02F037F80028EDD1204B48
:1031A000211C00939A46B868321C2B1C02F02CF8A4
:1031B0000028E2D11B4B211C00939B46F868321C6F
:1031C0002B1C02F021F80028D7D143460093386920
:1031D000211C321C2B1C02F017F80028CDD14B46C5
:1031E00000937869211C321C2B1C02F00DF800287A
:1031F000C3D153460093B869211C321C2B1C02F02A
:1032000003F80028B9D15B46F869211C0093321CF1
:103210002B1C01F0F9FFB0E73D290000C129000097
:10322000C927000019280000F0B544465F465646FD
:103230004D46F0B4041C83B00E20002C0DD0002AA3
:103240000BD01E1C2F4B201C98460093331C151CC2
:103250000F1C01F0F3FF002806D003B03CBC9046E1
:103260009946A246AB46F0BD274A331D91460092CF
:10327000201C391C2A1C01F0E1FF0028EDD1234B52
:10328000201C9A460093331C391C2A1C083301F079
:10329000D5FF0028E1D11E4B201C9B460093331C18
:1032A000391C2A1C0C3301F0C9FF0028D5D1434634
:1032B0000093331C201C391C2A1C103301F0BEFF64
:1032C0000028CAD14B460093331C201C391C2A1CF1
:1032D000143301F0B3FF0028BFD153460093331CD1
:1032E000201C391C2A1C183301F0A8FF0028B4D177
:1032F0005A46331C00921C33201C391C2A1C01F036
:103300009DFFAAE7892A0000252A0000F127000076
:103310004128000070B5002831D0002A2FD0156850
:1033200009248D4229D00126415D31400C1C1978B9
:10333000B143214319701168445C02216408344090
:1033400065001C788C432C431C701168445C04217C
:10335000A4083440A5001C788C432C431C701168D1
:10336000415CC9083140C800E1B20824A1430024EF
:1033700001431970136801331360201C70BD0E24C3
:10338000FBE7C04630B5041C83B00E2000290CD0EA
:10339000002B0AD006256846247807302540E4072C
:1033A000E40F2C43047001F061FC03B030BDC04653
:1033B000F8B5051C0E20002909D0002B07D0281CC9
:1033C0001E1C171C0C1C01F051FC002800D0F8BD7D
:1033D000681C211C3A1C331C01F048FC0028F6D163
:1033E000A81C211C3A1C331C01F040FCEFE7C0462E
:1033F00010B5002A06D0002B04D01C68022C03D87C
:10340000092010BD0E20FCE792245070000A1470B1
:10341000907018680328F3D9081C441EA041C0B25C
:10342000D07000280ED018680728E9D908881071D4
:10343000000A507149889171090AD17108221A60F5
:103440000020DEE70422FAE708B5131C922201F0FF
:1034500099FB08BD10B5002A06D0002B04D01C68CB
:10346000032C03D8092010BD0E20FCE75070000A81
:1034700093249070081C1470441EA041C0B2D070F8
:1034800000280ED018680728ECD908881071000AA7
:10349000507149889171090AD17108221A6000207F
:1034A000E1E70422FAE7C04608B5131C932201F0B5
:1034B00069FB08BDF0B54746041C002080B484B009
:1034C0000290002C11D00E30002B0AD01D1C6B4630
:1034D000171C201C02AA02330E1C01F0A5FB0028B9
:1034E00005D004B004BC9046F0BD0E20F9E7201CC6
:1034F000311C02AA01AB01F097FB0028F1D16B4609
:10350000201C311C02AA063301F08EFB0028E8D1F2
:10351000029B201C0393311C03AA002300F0DAFD58
:103520000028DED108229446039B63449846002F6E
:103530001AD02B680C209845D3D86B465B88201C8A
:10354000BB806B469B88311CFB806B46DB8802AAE4
:103550003B813B1C0C3300F0BDFD0028C1D1029B18
:10356000B34201D00930BCE7434600202B60B8E7E6
:10357000F0B544465F4656464D46F0B4002489B047
:10358000079400280BD0002B09D0072909D809205F
:1035900009B03CBC90469946A246AB46F0BD0E2011
:1035A000F6E70D1C041C0293161C05AB07AA01F0DC
:1035B0004DFB04AB201C291C07AA063301F046FB77
:1035C00004AF201C291C07AA06AB01F03FFBBC4638
:1035D0000A2307AA6344201C291C01F037FB04AB13
:1035E0005A8993009B185B000E330193002E00D183
:1035F000A1E0029B0C201B6803930399019B8B4263
:10360000C6D8322333806B469B880799738004ABFE
:103610009B88B281B38004ABDB88F38004AB1B8949
:103620003381D3009B185B189D42B0D3002A7AD017
:103630000023AA4601271D1CA146B346AC0064190D
:103640006400261C08365E44B31D4846514607AA4E
:1036500001F0FCFA331C48460833514607AA01F032
:1036600021FB04AB4846514607AA023301F01AFB7E
:1036700008215A468846121990444246391C04AB28
:103680009B78907A1940B843084302215A083A407F
:10369000884352000243042099083940824389003C
:1036A00011430822D80838409143C0000843102134
:1036B0001A093A408843120102432020590939402F
:1036C000490182430A4340219B093B409B018A43B5
:1036D0001A4343469A7204AB4846514607AA03333D
:1036E00001F0E0FA04ABDB7848463B401A1C434645
:1036F000DB7A5146BB4313434246D372331C07AABD
:103700000C3301F0A3FA231C5B44163348465146A0
:1037100007AA01F09BFA04AB01355B89ADB2AB425D
:103720008CD855460799A94200D030E7029B019AF0
:1037300000201A602CE71A1C029B00201A6027E761
:10374000F0B5474680B486B000280AD0002B08D0D8
:1037500000240494052906D8092006B004BC90462C
:10376000F0BD0E20F9E71D1C1B680E1C98460823AF
:10377000041C2B600233171C6B4404AA01F066FA88
:10378000201C311C04AA03AB01F060FA0E23201C9C
:10379000311C04AA6B4401F059FA002F29D02B6880
:1037A0009845D9D335233B806B465B893A1CBB8057
:1037B0006B469B890C32FB806B46DB893B81434621
:1037C0002968201C5B1A05930092311C04AA05ABE2
:1037D00000F0A2FB0028C0D1059A2B6894466344F0
:1037E0002B60002F00D07B80049B0020B342B3D11C
:1037F000B3E70022E3E7C046F0B5002483B00194AC
:10380000002807D0002B05D0092905D80924201C41
:1038100003B0F0BD0E24FAE7C57984792D02254363
:103820000A35002A26D01E680C24B542EFD81D6048
:103830003723141C0E1C071C1380131D01AA01F052
:1038400005FAA31D381C311C01AA01F0FFF9231C45
:10385000381C0833311C01AA01F0F8F9231C381C6C
:103860000C33311C01AA00F0CFFB019B041CB342B6
:10387000CCD1CCE71D600024C9E7C046F0B557465F
:103880004E4645460024E0B484B0039400280AD094
:10389000002B08D0072908D8092004B01CBC90468A
:1038A0009946A246F0BD0E20F7E790461E1C03AADB
:1038B00001AB0D1C041C01F0C9F96B46201C291C2E
:1038C00003AA063301F0C2F9201C291C03AA02AB8B
:1038D00001F0BCF90A23291C03AA6B44201C01F047
:1038E000B5F90E216B4689465A8953009B185B0037
:1038F00099444346002B44D033680C209945CCD8DA
:10390000332341460B804346494659806B46414626
:103910009B888A818B806B46DB88CB806B461B89BA
:103920000B81930003999B185B189D42B4D300232D
:103930009A46002A22D053465F0057447F0008373A
:103940004744BB1D201C291C03AA01F07FF93B1C26
:10395000201C0833291C03AA01F078F93B1C201C09
:103960000A33291C03AA01F09DF9534601339BB287
:103970009A466B465B895345DDD80399A94200D02E
:103980008AE74B460020336087E7C046F0B54F46D4
:1039900046460024C0B483B0019400280AD0002B0E
:1039A00008D00A2908D80924201C03B00CBC904672
:1039B0009946F0BD0E24F7E7857A447A2D02254317
:1039C0002E1C0E36002A39D01F680C24BE42EBD8BC
:1039D00098463923171C0C1C814613805680131DF2
:1039E00001AA01F033F9BB1D4846211C01AA01F0D0
:1039F0002DF93B1C48460833211C01AA01F026F989
:103A00003B1C48460C33211C01AA01F01FF93B1C4A
:103A100048460E33211C01AA01F044F93B1C211C2D
:103A20001033484601AA01F011F901996B189C4224
:103A3000B9D3002D05D18C42B5D143461E60002478
:103A4000B2E7381C494412302A1C10F04CF9019B93
:103A5000E918F0E7F0B544465F4656464D46F0B4E7
:103A6000002487B0059400280BD0002B09D007292B
:103A700009D8092007B03CBC90469946A246AB46FF
:103A8000F0BD0E20F6E70D1C041C9B46171C03AB73
:103A900005AA01F0DBF802AB201C291C05AA06339D
:103AA00001F0D4F802AE201C291C05AA04AB01F0D9
:103AB000CDF8B4460A23291C05AA6344201C01F052
:103AC000C5F80E21894602AB5A89D3009944002FCC
:103AD00047D0594609680C208945CBD83021398018
:103AE0004946798002A989889B1AB98002A9C988A8
:103AF000BA81F98002A90989398105995B189D422B
:103B0000B7D30023002A29D001339A46DB00984618
:103B1000B8444346201C0633291C05AA01F096F838
:103B20004346201C0833291C05AA01F0BBF8434674
:103B3000201C0A33291C05AA01F088F8434605AA6F
:103B40000C33201C291C01F081F86A465346D380AF
:103B5000D38802AA52899A42D6D80599A94200D0A0
:103B600087E74B465A460020136083E7F0B54F467F
:103B700046460024C0B483B0019400280AD0002B2C
:103B800008D00B2908D80924201C03B00CBC90468F
:103B90009946F0BD0E24F7E7C57A847A2D022543B5
:103BA0002E1C0E36002A39D01F680C24BE42EBD8DA
:103BB00098463623171C0C1C814613805680131D13
:103BC00001AA01F043F8BB1D4846211C01AA01F0DF
:103BD0003DF83B1C48460833211C01AA01F036F889
:103BE0003B1C48460C33211C01AA01F02FF83B1C5A
:103BF00048460E33211C01AA01F028F83B1C211C69
:103C00001033484601AA01F021F801996B189C4233
:103C1000B9D3002D05D18C42B5D143461E60002496
:103C2000B2E7381C494412302A1C10F05CF8019BA2
:103C3000E918F0E770B5041C002082B00190002C58
:103C400006D0002B04D0072904D8092002B070BD8B
:103C50000E20FBE7E079A5790002284301308500BA
:103C60002D186D00002A2CD01B680C209D42EDD829
:103C70003123151C1380201C131D01AA0E1C00F0FB
:103C8000D3FF0028E2D1AB1D201C311C01AA00F09B
:103C9000CBFF0028DAD12B1C201C311C01AA0833D1
:103CA00000F0C2FF0028D1D12B1C201C0C33311C8A
:103CB00001AA00F0C7F90028C8D1019BB342C4D1C2
:103CC000C4E71D600020C1E7F0B5002483B0019473
:103CD000002806D0002B04D0022904D8092003B004
:103CE000F0BD0E20FBE71D1C171C0E1C041C002A37
:103CF00016D01B680C200C2BF1D93A2313802D3BD6
:103D00005380201C131D01AA00F0A0FF3B1C201CA7
:103D10000C33311C01AA00F0C5FF019BB342DDD179
:103D20000D2300202B60DAE7F0B54F46464600240D
:103D3000C0B483B0019400280AD0002B08D00C290D
:103D400008D80924201C03B00CBC90469946F0BD4D
:103D50000E24F7E7057BC47A2D0225432E1C10366E
:103D6000002A40D01F680C24BE42EBD89846382366
:103D7000171C0C1C814613805680131D01AA00F0ED
:103D800065FFBB1D4846211C01AA00F05FFF3B1CDC
:103D900048460833211C01AA00F058FF3B1C484646
:103DA0000C33211C01AA00F051FF3B1C48460E3386
:103DB000211C01AA00F076FF3B1C48461033211C51
:103DC00001AA00F043FF3B1C211C1233484601AA04
:103DD00000F03CFF01996B189C42B2D3002D05D135
:103DE0008C42AED143461E600024ABE7381C4944E8
:103DF00014302A1C0FF077FF019BE918F0E7C0464A
:103E000030B5039C002B06D0002C04D02568042D6F
:103E100003D8092030BD0E20FCE790255870D970DA
:103E2000000A090A1D709870197121680529F0D9D6
:103E3000111C481E8141C9B2597100290CD021685A
:103E40000829E6D911889971090AD97192781A72EC
:103E5000092323600020DDE70623FAE708B5131CD9
:103E6000902200F08FFE08BD70B5049C002B07D097
:103E7000002C05D026680925062E03D8281C70BD05
:103E80000E25FBE75870D9705A718D35000A090A62
:103E9000120A1D70987019719A710723002523600A
:103EA000ECE7C04608B5131C962200F06BFE08BD77
:103EB000F8B5041C0E20002C0BD0002A09D0002BD2
:103EC00007D0201C1D1C161C0F1C00F0ADFE002886
:103ED00000D0F8BDAB1C201C391C321C01F038F896
:103EE000F7E7C046F8B5041C0E20002C0BD0002AC2
:103EF00009D0002B07D0201C1D1C161C0F1C00F025
:103F000093FE002800D0F8BDAB1C201C391C321CCD
:103F100001F034F8F7E7C046F0B5564644465F4630
:103F20004D46F0B4146883B00E1B032E07D8092049
:103F300003B03CBC90469946A246AB46F0BD1E1C61
:103F40006B46141C0D1C80469F1D3B1C00F07EFE22
:103F50004046291C221C01AB00F078FE6A463368FB
:103F6000918899463B881A1C4A439446D800021D02
:103F7000624432600C9A002A3DD05180138032682E
:103F80009145D4D30C9A94466044021D9246002B6E
:103F900037D00C9B9A602368EB1A012BC7D90C9B76
:103FA0001E1D00239B4619E0414470680FF09BFEE4
:103FB00022680C9B94465B88634423606B469B8815
:103FC0009A4401239C463B88E3445B4519D95346F8
:103FD000F36023680836EB1A012BA8D9291C221C90
:103FE000331C404600F032FE0C9B21685A886B1A45
:103FF0009A42D9D99BE722685B00634494466344A4
:104000002360002094E7C046F8B514680C1B012C0F
:1040100001D80920F8BD1F1C151C0C1C061C00F043
:1040200015FE2B683A88E11A8A42F2D8F118B81CBA
:104030000FF059FE2A683B88944663442B600020A9
:10404000E8E7C046F0B5474680B482B01C1C6B461A
:104050000633071C0D1C161C00F0E6FD00280FD1CE
:104060006B460022DB88904623800234002B2ED042
:10407000381C291C321C231C00F0D6FD002803D05C
:1040800002B004BC9046F0BDA31C381C291C321C95
:1040900000F05EFF0028F3D13368EB1A032B01D840
:1040A0000920EDE7A31D381C291C321C00F0CEFDB1
:1040B000231C381C0833291C321C00F0C7FD0123C7
:1040C0009C466B46DB88E0440A344345D0D8002048
:1040D000D6E7C046F0B557464E464546E0B4041C08
:1040E00082B00E20002C35D0002A33D01E1C6B4627
:1040F000201C0633151C0F1C00F096FD002829D14A
:104100006B46DB88002E2BD03380201CB31C391C5F
:104110002A1C00F0B9FD00281CD1B378012B27D050
:10412000154B9A46321D9046002233889146002B4B
:1041300009D11BE001239C461133E1449C4633889E
:10414000E0444B4512D9201C391C2A1C4346D04759
:104150000028EFD002B01CBC90469946A246F0BDA4
:10416000DA00D3185B0004332B60F3E70020F1E79B
:10417000024B9A46D6E7C046E53E0000B13E00003D
:1041800070B50D1C1C1C002A06D0002B04D01B6827
:10419000032B03D8092070BD0E20FCE79823137071
:1041A0000B1C591E8B415070DBB2000A9070D3700B
:1041B000002B2DD023680C2BECD92B780720137102
:1041C0006B7853716B8893711B0AD371AB88137230
:1041D0001B0A5372EB8893721B0AD372EB88142B61
:1041E000D9D8AB68591E8B411373A968002911D027
:1041F000EB882668181C0D30B042CBD80D32101C4D
:104200001A1C0FF070FDEB880D3323600020C2E70D
:104210000423FAE70D23F8E708B5131C982200F0F1
:10422000B1FC08BDF0B5002483B00194002806D08D
:10423000002B04D0022904D8092003B0F0BD0E20C1
:10424000FBE71D1C171C0E1C041C002A15D01B6844
:104250000C20032BF1D9532313804F3B5380201C98
:10426000131D01AA00F0F2FCBB1D201C311C01AA89
:1042700000F0ECFC019BB342DED1042300202B6054
:10428000DBE7C046F0B5474680B4041C86B00E207C
:10429000002C18D0002B16D01D1C002303932B6874
:1042A000171C984602232B600833201C03AA6B447A
:1042B0000E1C00F0B9FC002805D1002F41D02B685E
:1042C000984504D2092006B004BC9046F0BD5123A5
:1042D0003B806B465B89BA1DBB8043462968201C26
:1042E0005B1A04930092311C03AA04AB00F020FA7D
:1042F0000028E8D1049A2B68944663442B60002F71
:104300001AD0BB79022B17D1BB7B062B14D1B888EE
:1043100005A9FCF74BF805280ED00C22059B201CA4
:104320005A43094B311CD218131D0832009203AABC
:1043300000F028FD0028C6D1039BB342C2D1002063
:10434000C1E70022C9E7C0461440002070B5002430
:1043500082B0019400281BD0002B19D0012914D958
:104360001D1C0E1C041C002A14D01B680C20012BE1
:104370000CD954231380523B5380201C131D01AAD7
:1043800000F064FC019BB34204D0092002B070BD70
:104390000E20FBE7022300202B60F7E7F0B5002496
:1043A00083B00194002806D0002B04D0022904D841
:1043B000092003B0F0BD0E20FBE71D1C171C0E1CCE
:1043C000041C002A15D01B680C20022BF1D95223A3
:1043D00013804F3B5380201C131D01AA00F036FCB4
:1043E000BB1D201C311C01AA00F05CFC019BB342E8
:1043F000DED1032300202B60DBE7C046F0B50024AC
:1044000083B00194002806D0002B04D0022904D8E0
:10441000092003B0F0BD0E20FBE71D1C171C0E1C6D
:10442000041C002A15D01B680C20022BF1D955233F
:104430001380523B5380201C131D01AA00F006FC80
:10444000BB1D201C311C01AA00F02CFC019BB342B7
:10445000DED1032300202B60DBE7C046F0B54746E2
:1044600080B4041C86B00E20002C18D0002B16D06F
:104470001D1C002303932B68171C984602232B60F6
:104480000833201C03AA6B440E1C00F0CDFB00284F
:1044900005D1002F3DD02B68984504D2092006B0E5
:1044A00004BC9046F0BD6B465B89BA1DBB80434699
:1044B0002968201C5B1A04930092311C03AA04ABE8
:1044C00000F0B4F80028EAD1049A2B6894466344BB
:1044D0002B60002F18D03B7B062B15D1B88805A97F
:1044E000FBF764FF05280FD0059B201C5A00D2184B
:1044F000094B9200D218131D08320092311C03AAF6
:1045000000F040FC0028CAD1039BB342C6D1002072
:10451000C5E70022CBE7C04614400020F0B547466F
:104520000E2680B486B06E4430800F1C141C1D1CF7
:104530000E20002A10D0002B0ED0002305932B68EC
:1045400005309846A82368440370111C05AB424609
:1045500000F08CFB002803D006B004BC9046F0BDF0
:10456000301C211C424605AB00F04CFB0028F3D167
:10457000064B381C0093211C424605AB00F044FE5C
:104580000028E9D1059B2B60E6E7C0463D480000C6
:1045900008B5131CA82200F0F5FA08BDF0B547468F
:1045A00080B484B01C1C6B46D8809E1D02236B44D3
:1045B0001A8098460023A72203930B3301AF6B4464
:1045C0000A9D39801A700E20002C09D0002D07D0CA
:1045D000181C211C2A6803AB00F048FB002803D0FC
:1045E00004B004BC9046F0BD301C211C2A6803AB0B
:1045F00000F008FB0028F3D1381C211C2A6803AB0B
:1046000000F000FB0028EBD14046211C2A6803ABD8
:1046100000F0F8FA0028E3D1039B2B60E0E7C046E6
:1046200008B5131CA72200F0ADFA08BDF0B5574637
:104630004E464546E0B4041C84B00E20002C11D038
:10464000002A0FD0002B0DD01E1C1B68201C984682
:104650000C2333606B460633151C0F1C00F0E4FA84
:10466000002805D004B01CBC90469946A246F0BD77
:10467000201C391C2A1C03AB00F06AFC0028F1D175
:10468000201C391C2A1C01AB00F0FEFA0028E9D1DD
:104690006B46201C391C2A1C053300F0F5FA002853
:1046A000E0D1201C391C2A1C02AB00F0BDFA002806
:1046B000D8D10A23201C6B44391C2A1C994600F0CF
:1046C000B3FA0028CED14B461B880C9A9A46336821
:1046D00053443360002A23D0984501D20920C1E712
:1046E0006B460C9ADB88901C138003A904220FF000
:1046F000FAFA6B460C9A1B7993716B465B79D3710E
:104700006B461B891381131C52465A8129687F1AF4
:10471000BA45E3D8181C61180C3052460FF0E3FA82
:104720002A684B4694461B88002063442B6099E717
:10473000F0B557464E464546E0B4041C86B00E2000
:10474000002C1DD0002B1BD0002A19D01D1C0B23C0
:10475000201C6B44161C0F1C00F096FA00280FD189
:104760002B689946049302232B600E9B002B25D0C7
:104770001A1C6B46DB7A093013702A68914505D202
:1047800006B01CBC90469946A246F0BD012B1DD038
:10479000022B11D10E9B02330093201C391C321CBA
:1047A00004ABFFF743FF0028EAD1049A2B68944634
:1047B00063442B600020E3E70B20E1E76B46DB7AE4
:1047C000012B37D0022BF7D10023E5E70E9B0233F4
:1047D00098460823201C0493391C321C03AB00F0BC
:1047E00023FA0028CCD1201C391C321C05AB00F068
:1047F000AFFB0028C4D10E23201C6B44391C321C93
:104800009A4600F011FA0028BAD14346002BCCD0CA
:10481000049B09309945B3D36B4642469B89901C53
:10482000138005A904220FF05EFA534642461B8806
:10483000D380BAE700239846CBE7C046F0B5474699
:1048400080B484B0041C0E1C151C1F1C00F00EFA52
:10485000002805D12378012B06D00720022B03D096
:1048600004B004BC9046F0BD231D9846181C311CB2
:104870002A1C3B1C00F0C6F90028F1D1A3790F30A7
:10488000DB07DB0F68440370311C2A1C3B1C00F063
:10489000EDF90028E4D14046311C04302A1C3B1CB1
:1048A00000F0B0F90028DBD1E06861890097321C84
:1048B0002B1C00F039FA0028D2D10020D0E7C046E6
:1048C000F0B583B0041C1D1C6B46D81D23780F1C4B
:1048D000DB07DB0F03702B1C161C00F0C7F9002848
:1048E00005D1201D391C321C2B1C00F06DF903B0C2
:1048F000F0BDC04630B585B00193089B099C002BE4
:1049000007D0002C05D02368072B04D8092005B058
:1049100030BD0E20FBE7AA23089D2B70131C687086
:10492000000AA870581E8341DBB2EB70002B1BD02D
:104930002368052BEAD9138806222B711B0A6B7199
:10494000072320688342E1D803934B1E9941089BBB
:1049500001A899542268191C03AB00F035F900280E
:10496000D5D1039B2360D2E705230422E9E7C046A3
:10497000F0B585B000281AD00A9C002C17D01E1C58
:1049800000230D1C03930A9B171C009303A92A1CE8
:10499000AA23041C00F0D0F8002809D10A9B1B6848
:1049A000002B07D0039BAB421CD0092000E00E2057
:1049B00005B0F0BD039B03339D42F6D30A23291CA7
:1049C0006B44201C03AA00F041F9039B591CE35CD3
:1049D0000391012B08D0002E02D06B465B893380F7
:1049E0008D42E2D10020E3E7002FE0D0002EDED0A0
:1049F0006B465A8933880C209342D9D353189D4271
:104A0000D3D36118381C0FF06EF96B465989039B9C
:104A100031809C466144E3E730B585B00193089B43
:104A2000151C099C002B07D0002C05D02368072BF0
:104A300004D8092005B030BD0E20FBE7A923089A51
:104A40001370042303930B1C5070000A90705A1EBD
:104A50009341089ADBB2D370002B18D08023072033
:104A60009B009D42E6D82B1C22680A339342E0D873
:104A7000089B089A1D712B0A53710623901D2A1C4E
:104A800003930FF030F9039B9C466544039501A8FE
:104A90000899226803AB00F097F80028CAD1039B5D
:104AA0002360C7E708B5131CA92200F06BF808BD06
:104AB000F0B5474680B4041C86B00E20002C36D0DA
:104AC000002A34D0002B32D01E1C002304933368FC
:104AD000151C9846022333600C33201C04AA6B4437
:104AE0000F1C00F0A1F8002821D12B1D201C391C1F
:104AF00004AA00F099F8002819D143463268201C16
:104B00009B1AAA1D05930092391C04AA05AB00F05C
:104B100049FA00280BD1059A336894466344336000
:104B2000049B0930D91B4F1EB9414942084006B0C9
:104B300004BC9046F0BDC04630B500281FD0002907
:104B40001DD0039C002C1AD00C24042A18D90A6802
:104B5000013C855C9D4213D10132801843780024CA
:104B60001A0283781B04134302781343C278120697
:104B70001343039A13600B6805330B6000E00E24A7
:104B8000201C30BD30B5002806D0002B04D00C24EA
:104B9000042903D8201C30BD0E24FBE70578013C16
:104BA0009542F7D1827805391402C2781204224363
:104BB000447800792243000602431A604B1E994153
:104BC0000C244B421C40E5E730B5041C002916D0EC
:104BD000002814D0002B12D01D680920521B032A74
:104BE0000ED922684919100A0A704870100C120E6A
:104BF0008870CA701A68002004321A6000E00E2023
:104C000030BDC04630B51C68051C121B0920012AA6
:104C100008D900202A880C192270120A62701A68BA
:104C200002321A6030BDC04630B514680925091B30
:104C3000012909D900250419617820780902014366
:104C40001980136802331360281C30BD30B5146816
:104C5000A51C8D4208D80419617820780902014307
:104C6000198013680233136030BDC04630B51C682C
:104C7000051C0920944205D000202A780A551A689C
:104C800001321A6030BDC04630B51468051C0920D9
:104C90008C4205D00020295D197013680133136020
:104CA00030BDC04630B51468651C8D4204D8015D26
:104CB000197013680133136030BDC04630B51468F5
:104CC000651C8D4204D8015D1970136801331360AF
:104CD00030BDC046F8B5069C0D1C2168061C8B42F1
:104CE00012D055542168013121608B420CD0071C31
:104CF000781E8741FFB257542168481C2060002F5E
:104D000004D01B1A9D4203D90920F8BD0020FCE7FE
:104D10001018311C2A1C0EF0E6FF236800209C4668
:104D200065442560F1E7C046F8B5069C0D1C216876
:104D3000061C581A012815D95118280A0D704870F8
:104D40002168023121608B420CD0371C781E8741CC
:104D5000FFB257542168481C2060002F04D01B1A52
:104D60009D4203D90920F8BD0020FCE71018311C32
:104D70002A1C0EF0B8FF236800209C46654425607D
:104D8000F1E7C046F8B5069C278814680D1B012D75
:104D900015D90419657824782D022C43069D2C80A2
:104DA0001668B41C14602D88A14208D00336B142A5
:104DB00007D2002B21D0002200201A6000E0092039
:104DC000F8BD045D1660012CF3D1002B13D01B68D5
:104DD000002B10D0AF42F2D3891B8D42EFD8141CA8
:104DE00081192A1C181C0EF07EFF236800209C46A7
:104DF00065442560E4E70E20E2E70020E0E7C046D6
:104E0000F8B5069D2F68BB420CD0061C741EA64147
:104E1000F6B2D6552C6801342C60002E0FD01B1B27
:104E2000994201D90920F8BD0E1C011C1019321C31
:104E30000EF059FF2B68002099192960F3E7002034
:104E4000F1E7C046F8B506AC278807AC258814689A
:104E50008C4213D0661CB14205D2002B21D0002217
:104E600000201A600BE0045D1660012CF5D1002BC8
:104E700006D01B68002B03D0BD4203D90920F8BD22
:104E80000E20FCE7891B8D42F8D8141C81192A1CBE
:104E9000181C0EF028FF236800209C4665442560FE
:104EA000EDE70020EBE7C04670B504AC2588002B89
:104EB00006D016680924891B8D4203D9201C70BDB9
:104EC0000E24FBE7141C81192A1C181C0EF00BFF82
:104ED00023689C46654425600024EFE7F8B5061C6E
:104EE0000E2000290BD0002B09D0002E07D0301C3B
:104EF0001D1C171C0C1CFFF7B9FE002800D0F8BDC4
:104F0000701C211C3A1C2B1CFFF7B0FE0028F6D1A8
:104F1000B01C211C3A1C2B1CFFF7A8FE0028EED168
:104F2000F01C211C3A1C2B1CFFF7A0FE0028E6D128
:104F3000301D211C3A1C2B1CFFF798FE0028DED1E7
:104F4000701D211C3A1C2B1CFFF790FED7E7C046B2
:104F5000F8B5146809250C1B022C01D8281CF8BDD3
:104F60000D1C1E1C141C071CFFF770FE291CB31C13
:104F7000381C221CFFF796FE0025EFE738B51568B0
:104F80000924491B0F2901D8201C38BD141C4119C4
:104F90001022181C0EF0A7FE236810332360002493
:104FA000F2E7C046F0B54F464646C0B40E2583B082
:104FB00000281FD0002A1DD0002B1BD01F1C1B68EF
:104FC000161C994613686A460193002353806B466A
:104FD00001AA02338846041CFFF726FE051E09D1EC
:104FE0006B465B880A9A04333B60002A02D09945DD
:104FF00006D20925281C03B00CBC90469946F0BD8A
:10500000201C4146321C0A9BFFF70EFE051EF1D103
:105010000A9B201C02334146321CFFF705FE051E89
:10502000E8D141460A9B1A883368C91A8A42E0D8F7
:105030000A99081DE1180EF056FE32680A9B944644
:105040001B8863443360D5E7F0B5041C83B00E20A1
:1050500000290BD0002B09D0002C07D0201C1E1CCF
:10506000171C0D1CFFF7CEFD002801D003B0F0BDCA
:105070000D4B60680093291C3A1C331C00F0C4F8E7
:105080000028F3D1201C291C08303A1C331CFEF7E1
:105090008FF90028EAD1201C291C3A1C331C0C3043
:1050A000FFF70EFCE2E7C046DD4E0000F0B51D1C28
:1050B0000E2387B06B4418800E1C141C0E20002A8F
:1050C0002BD0002D29D0672201272270181C211C0B
:1050D0002A6805AB0597FFF795FD00281DD1002E26
:1050E00016D0059B301D5A1CE754059205AB211CB8
:1050F0002A68FFF787FD031E0FD100933068211C3B
:105100002A6805AB00F080F8002806D1059B02E074
:10511000059A531CA65400202B6007B0F0BDC04672
:1051200008B5131C6722FFF72DFD08BDF0B5059CDF
:10513000002B12D0002C10D02568012D0BD965252D
:105140001D70051C6E1EB541EDB25D70002D1BD0AB
:105150002568042D03D80920F0BD0E20FCE7058842
:1051600005269D702D0ADD708078062518710720B0
:1051700027688742EFD34F1EB9419955511E8A4186
:105180005A5520600020E7E7032504200226EFE7B8
:10519000F0B547461D1C00230C1C80B484B003935B
:1051A0000A9B171C009303A9221C6523061CFFF70A
:1051B000C3FC002807D10A9B1B68002B07D0039B68
:1051C000A3421ED0092004B004BC9046F0BD039B4E
:1051D000591C8C42F6D3F35C03919846002F0ED0F5
:1051E000002D0AD05B189C42ECD37118281C424653
:1051F0000EF079FD039B4344191C43463B708C42DF
:10520000E0D10020DFE7C04670B51D68061C09200C
:1052100095420FD0341C601E8441E4B24C5518688E
:1052200001301860002C06D00498002803D0041C1C
:10523000301CA04770BD0020FCE7C046F0B54746D3
:1052400080B41468061C82B009208C4203D102B0DD
:1052500004BC9046F0BD1F1C07236B449846301CCD
:10526000151C0C1CFFF71EFD43461B78012B07D0B5
:105270000B20002BEBD1002F10D03B600020E6E785
:10528000002F0DD03B68002B0AD0089A002A05D0C9
:10529000211C301C2A1C089CA047D8E70020D6E718
:1052A0000E20D4E70023F0B585B0039317680029DA
:1052B0000ED0061C0B204D336844151C03703A1C9D
:1052C00003AB0C1CFFF7D2FC002803D005B0F0BDE7
:1052D0000E20FBE7064B301C0093211C3A1C03AB4D
:1052E000FFF792FF0028F1D1039B2B60EEE7C04649
:1052F0005153000070B586B0041C03920E20002CA0
:1053000015D0002B13D01D1C0E1C002300950593F7
:10531000201C05A9321C4D33FFF70EFC002806D1D6
:105320002B68002B05D0059BB3420DD0092006B099
:1053300070BD064B201C0093311C05AA03ABFFF780
:105340007DFF0028EFD0F2E70020F0E78153000056
:10535000F0B50E1C151C83B01F1C00931021321CCD
:105360002B1C041CFFF74CFD002807D1201C0097C4
:1053700010301021321C2B1CFFF742FD03B0F0BD92
:1053800000B5203385B0039310230093019303AB42
:10539000FFF758FD05B000BD031E06D0002904D05C
:1053A0000A680920002A02D170470E20FCE73C223F
:1053B0001A70012300200B60F6E7C046E623A02206
:1053C0000321DB00D20510B5D1508022A321012397
:1053D000D205C900535082210024490054509360E3
:1053E0005358002BFCD08223802200215B00D20581
:1053F000D150024B1860002010BDC046C4210020CF
:1054000008B503F047FC08BD8021A022024B4901EA
:10541000D205D1507047C0460C0500008021A12361
:10542000A0224901DB00D205D1507047C5220549B1
:1054300092008858044B0340C020000403438B5063
:105440007047C04600E100E0FFFF00FF802180239D
:10545000024AC9035B00D1507047C04600E100E03A
:1054600008B580235B051B691B041B0C43431020FC
:105470001A0E00D008BD181C04F074F9024B01206C
:105480001B6898470020F5E7C421002010B5802450
:1054900009236400A24201D9181C10BD040E073371
:1054A000002CF9D104F080F9024B01201B689847C9
:1054B0000023F1E7C42100200122014B1A7070473C
:1054C000C8210020014B18787047C046C821002031
:1054D000A02380220121DB00D205D150FEE7C04687
:1054E000F0B5474680B488B005AC019002910392B4
:1054F000201C00210C22FAF78BFE052323706B463B
:105500001B79062B13D8714A9B00D3589F46012361
:1055100023706B461A89C0236D4D5B009A426BD88D
:105520002B78012B00D1A4E0042B00D177E00020E0
:1055300000F060FD08B004BC9046F0BD0423237069
:10554000033B2371634B05981B686168A268984709
:10555000F0E7022204232271029A23700092A260D3
:105560005D4A1178032961D0594D2E78022EE9D178
:10557000039F2B7000F0DAFA002F00D189E010238E
:105580009846564B9F4200D186E000F0C9FA40464B
:1055900000F030FDD6E7504B1A78032AC7D1023A03
:1055A0001A7000232370CDE7494A1378022BBED12D
:1055B000042123706B4611700299059861609B89E4
:1055C0002381444BA2681B689847B3E7404D2B7872
:1055D000032B36D0062BAAD1033B23703D4B0598F5
:1055E0001B686168A268984704232B70A2E7042314
:1055F000237000232371A5E72B78012B2BD0042BDC
:1056000095D107CC334B1B689847002000F06CFA0B
:10561000002801D000F0EEFC06232B708AE72D4B0A
:1056200007CC1B68984705232B7083E71370039BF7
:10563000002B2CD02A4910208B42A9D101231370B2
:1056400080E72370234B05981B686168A268984720
:1056500001232B706EE71F4B07CC1B689847002077
:1056600000F042FA002801D000F0C4FC03232B70A4
:1056700060E7184B07CC1B689847184800F034FACD
:10568000002801D000F0B6FC02232B7052E70E2058
:105690007EE70E23984678E72B78042B12D0062B52
:1056A00010D008229046052B00D06EE7381C00F081
:1056B0001BFA03239846002800D066E72E7000F0FE
:1056C0002FFA3FE7033B2B70F9E7C046C0400100CB
:1056D000D0210020CC210020D424002054230020FD
:1056E000D4210020F8B50F4C021C23780820002B91
:1056F00000D0F8BD0C4E3578002DFAD10630002AC6
:10570000F7D00A4F01330A48237033703A6000F033
:10571000A1F90028EDD0257035703D600728E8D04C
:105720000320E6E7D0210020D4240020CC21002053
:10573000E154000070B5041C00F0F8F9002C07D00B
:10574000104B10259C4205D000F0EAF9281C70BDD2
:105750000E25F9E70C4E3378042B0BD0062B09D01D
:105760000825052BF0D1201C00F0BEF9051E05D040
:105770000325E9E7033B33700025E5E70223337097
:10578000E2E7C04654230020D021002010B50028B5
:1057900008D0002906D00A4C08232278002A03D119
:1057A000181C10BD0E23FBE7043B012AF8D1023B75
:1057B0002370044B0360C0235B000B800023EFE7E2
:1057C000D4240020D421002070B5002821D0072443
:1057D000002901D1201C70BD114B09349842F9D128
:1057E000C023043C5B009942F4D80E4E043C33784D
:1057F000022BEFD1041C0D1C00F098F9201C291C71
:1058000000F048F9041E06D10323337000F088F934
:10581000E0E70E24DEE71128F8D00324F6E7C046BF
:10582000D4210020D424002030B51F4885B0016861
:10583000002915D0C22380241C4A9B00D4501C4D43
:105840001C4C2A882388934215D0012B27D99342D8
:1058500008D301332380C1238021144A9B00D150F7
:1058600005B030BDCB18023B187803F0FFF90028D3
:10587000F1D12388EDE70023238003602B800E4BBA
:105880000022191C1A7001AA31C931C20B4A1468CE
:10589000002CE0D0019859689A68A047DBE7084AD5
:1058A000D05C03F0E3F9E2E7E024002000200040B0
:1058B000FC240020E424002008250020D824002017
:1058C00004250020F0B54F464646C0B48BB00028F2
:1058D00009D00378032B4DD0042B09D0022B4CD0D8
:1058E000032000F087FB0BB00CBC90469946F0BD3E
:1058F0004D4B1A78002A05D1A0244C49E40562508A
:1059000001321A704A4B07794A4C1F704A4B1A6889
:105910009846002A4BD04949238808888946834203
:1059200008D247498A4201D0D218023A01339BB2C9
:10593000177023809842D6D143461A68404B9A424A
:105940004BD002233F4F023838817A603B70424689
:10595000002313604A4613803A1C238007AB13CA06
:1059600013C3394B1B68002BBDD007987968BA6800
:105970009847B8E7FFF758FFB5E741688B07B2D003
:1059800000232D4A13602D4A13802A4A13802D4B81
:105990000622181C1A70596001AA70C870C22A4ADF
:1059A0001468002C9FD001989A68A0479BE7218833
:1059B000012906D9214B18889946814200D092E7E7
:1059C000BFE74B1C214A9BB223805754022B07D0C0
:1059D0001A4B994618880123ACE70323194FB5E702
:1059E000C221042601271A488900465051781278AE
:1059F00009021143881C114A80B210809146114A55
:105A00001770171C918004A9944664CF64C10E4995
:105A10000F68002F8ED0634604989A685968B8477B
:105A20004A462388108885E7DE24002064070000AA
:105A3000DF240020D6240020E8240020EC240020CD
:105A400000250020F0240020D8240020DC240020A1
:105A50000020004038B5002806D00B4D08232A68E6
:105A6000002A03D0181C38BD0E23FBE7041C0021BC
:105A70000648074A063B03F0B3F82C60002801D023
:105A80000723EFE70023EDE7D8240020DC400100E6
:105A9000C558000038B500281CD00723002901D1C3
:105AA000181C38BD0C4A0A331468002CF8D10B4C72
:105AB0002588002DF4D10A4D2D88002DF0D1094BF9
:105AC0000D0A19705D70023110602180FFF7ACFE85
:105AD0000023E5E70E23E3E7E0240020FC24002078
