:020000021000EC
:10B0000000400020BDB30100FDB30100FFB301000B
:10B010000000000000000000000000000000000030
:10B0200000000000000000000000000001B401006A
:10B03000000000000000000003B4010005B401009E
:10B0400007B4010007B4010007B4010007B4010010
:10B0500007B401000000000007B4010007B40100BC
:10B0600007B4010007B4010007B4010007B40100F0
:10B0700007B4010007B4010007B4010007B40100E0
:10B0800007B4010007B4010007B4010007B40100D0
:10B0900007B4010007B4010007B4010007B40100C0
:10B0A00007B4010007B40100000000000000000028
:10B0B0000000000000000000000000000000000090
:10B0C00010B5064C2378002B07D1054B002B02D07E
:10B0D000044800E000BF0123237010BD6C20002055
:10B0E000000000002CB4010008B5084B002B03D071
:10B0F0000748084900E000BF07480368002B00D15B
:10B1000008BD064B002BFBD09847F9E70000000074
:10B110002CB40100702000206820002000000000F6
:10B12000164B002B00D1144B9D46402292029A1AD6
:10B13000924600218B460F461348144A121A00F01B
:10B1400067F80F4B002B00D098470E4B002B00D018
:10B1500098470020002104000D000D48002802D06F
:10B160000C4800E000BF00F02DF82000290000F09E
:10B17000CFF800F011F8C0460000080000400020A1
:10B1800000000000000000006C200020882000204B
:10B190000000000000000000084B10B5041C002B4C
:10B1A00002D0002100E000BF054B1868836A002B25
:10B1B00000D09847201C00F033F8C0460000000083
:10B1C00024B401000E4B70B500251E1C0D4CE41A72
:10B1D000A410A54204D0AB00F35898470135F8E716
:10B1E00000F012F9084B00251E1C084CE41AA410AC
:10B1F000A54204D0AB00F35898470135F8E770BD7D
:10B2000060200020602000206020002064200020BA
:10B21000031C8218934202D019700133FAE7704779
:10B22000FEE7C046304B1B78012B00D070472F4BF8
:10B230001B681B07FAD1F0222D4B1B68134027D146
:10B240002C4B1B68134229D0284B1B681B07EDD1E0
:10B25000F022274B1B681340402B32D0244B1A6836
:10B26000F0231340A02B01D0D02BDFD1214B1A6843
:10B27000F0231A42DAD1204A1368012B04D01F4B65
:10B2800013601368012BFCD1C0221D4B1A60CDE75F
:10B29000102B0FD1174B1B681342D9D1194A1A4BE7
:10B2A0001A608022194B12021A600F4B1B78012B77
:10B2B000CAD0BBE7302BCBD10E4B1B681342C7D192
:10B2C000ECE70C4B1B681342C8D1C123802201213B
:10B2D000DB00D205D150044B1B78012BA6D1034BC8
:10B2E0001B681B07BAD0A1E7E00F00F0E40F00F0E5
:10B2F000E80F00F0EC0F00F000EC06407593000042
:10B3000014EC0640DFFF07C004050040186C004045
:10B31000F8B5A020F0250023012403216D04C00509
:10B320000133202B0BD02A1C1A411442F8D01A1CCE
:10B33000C132FF32920001331150202BF3D1A025EE
:10B340000C4F0D4EED05002401223B5DA9599A409A
:10B35000131C101CA1228843D200A850FA20074ACF
:10B360000B40AB504000013400F00AF8042CEBD144
:10B37000E9E7C04628B40100040500000C05000000
:10B3800082B00190019B002B14D0019B0A48013B25
:10B3900001930138C046C046C046C046C046C046BC
:10B3A000C046C046C046C046C046C046F1D1019B1B
:10B3B000002BEAD102B07047E703000003210A48DE
:10B3C00002680A430260094802680A4302600849A9
:10B3D000084A094B9B1A03DD043BC858D050FBDCDC
:10B3E000FFF720FFFFF79CFE2405004054050040B6
:10B3F00038B40100002000206C200020FEE7FEE7AA
:10B40000FEE7FEE7FEE7FEE7F8B5C046F8BC08BC7D
:10B410009E467047F8B5C046F8BC08BC9E467047CB
:10B42000430000000020002015161718000000003F
:08B43000F0FCFF7F01000000A9
:10B438000000000000000000000000000000000004
:10B4480000000000000000000000000000000000F4
:10B4580020B401000000000000000000000000000F
:10B4680000000000000000000000000000000000D4
:10B4780000000000000000000000000000000000C4
:10B4880000000000000000000000000000000000B4
:0CB49800E9B00100C1B00100000000009C
:040000031000B3BD79
:00000001FF
