:020000021000EC
:10B000000030002061D60100A1D60100A3D60100C6
:10B010000000000000000000000000000000000030
:10B02000000000000000000000000000A5D60100A4
:10B030000000000000000000A7D60100A9D6010012
:10B04000ABD60100ABD601007DBD0100ABD601003F
:10B05000ABD6010000000000D5BA0100ABD601005C
:10B06000ABD60100ABD60100ABD60100ABD60100D8
:10B07000ABD60100ABD60100ABD60100ABD60100C8
:10B08000ABD60100D9B20100ABD60100ABD60100AE
:10B09000B5B30100ABD60100D1D50100ABD601009C
:10B0A000ABD60100ABD6010000000000000000009C
:10B0B0000000000000000000000000000000000090
:10B0C00010B5064C2378002B07D1054B002B02D07E
:10B0D000044800E000BF0123237010BDF4180020D5
:10B0E0000000000030D9010008B5084B002B03D048
:10B0F0000748084900E000BF07480368002B00D15B
:10B1000008BD064B002BFBD09847F9E70000000074
:10B1100030D90100F8180020F018002000000000CD
:10B12000164B002B00D1144B9D46402292029A1AD6
:10B13000924600218B460F461348144A121A00F01B
:10B1400067F80F4B002B00D098470E4B002B00D018
:10B1500098470020002104000D000D48002802D06F
:10B160000C4800E000BF00F02DF82000290001F09D
:10B170008FFA00F011F8C0460000080000300020EF
:10B180000000000000000000F4180020301C002027
:10B190000000000000000000084B10B5041C002B4C
:10B1A00002D0002100E000BF054B1868836A002B25
:10B1B00000D09847201C00F033F8C0460000000083
:10B1C00000D801000E4B70B500251E1C0D4CE41A72
:10B1D000A410A54204D0AB00F35898470135F8E716
:10B1E00002F000FB084B00251E1C084CE41AA410BA
:10B1F000A54204D0AB00F35898470135F8E770BD7D
:10B20000E8180020E8180020E8180020EC180020BA
:10B21000031C8218934202D019700133FAE7704779
:10B22000FEE7C046002300B585B001AA906000216A
:10B2300003481380536000F005F805B000BDC04618
:10B2400001400000BFF34F8F034A044BDA60BFF3A5
:10B250004F8FC046FDE7C0460400FA0500ED00E050
:10B2600080218023184A8902D1508022D221174B95
:10B27000520289005A5040395A5001222F205A60F8
:10B280000138C046C046C046C046C046C046C0465B
:10B29000C046C046C046C046C046F1D19A600023B1
:10B2A0000B4A2F2013600138C046C046C046C04636
:10B2B000C046C046C046C046C046C046C046C0465E
:10B2C000F1D1044A1370704700E100E00010014022
:10B2D0001019002030190020A021F0B500234746A6
:10B2E0002B4A490080B45350043153500431535019
:10B2F000043153504C39535004315350254B1B6883
:10B30000002B35D02449002652582449244F0C687C
:10B31000141B00222402240A904602E0002D18D0BB
:10B320002B1C1A68A24214D8A41AB6181A7CDD691C
:10B33000002AF3D0424699691A745A693B68002B77
:10B3400019D0101C98470028E8D0FFF76BFF002D9C
:10B35000E6D1144B14491A780B789A420ED0134A4E
:10B360009B009E5080218023114A49035B00D150ED
:10B3700004BC9046F0BD081C9047CFE70132D3B221
:10B38000022B01D00B70EAE700230B70E7E7C04601
:10B3900000100140141900200405000010190020BD
:10B3A0001819002024190020251900202819002030
:10B3B00000E100E0F0B55F4656464D464446F0B425
:10B3C000B44BB54A1B68B54989B001930978137825
:10B3D000994200D1B1E10133DBB2022B00D100234D
:10B3E0001370AF4A9B009B58AA4A9946019B4B4455
:10B3F0001B021B0A136001230493AA4B00241B6841
:10B400009B46A94BD8461B781A1C0293A74B94461F
:10B4100007931B6803939F4B1B680693A44B1B78F1
:10B4200005935B466646013EF2B29446FF2A4FD032
:10B430006246D000039A9246504401784578A9426A
:10B44000F0D04A005218877801314668C9B27F1A95
:10B45000B2467E1EB741D2007F425244394017782F
:10B46000022F0AD0032FEAD1002BE8D01C74DB692D
:10B47000002BFBD145789846E1E75668002B25D094
:10B480009E421AD01F1C00E0171CFA69002AD6D071
:10B490009642F9D1321C3D1CBE4200D1EBE0176848
:10B4A000D269EA61002A06D013689A4657441760A9
:10B4B00045784346C3E74578C1E7DE691A1C002E8C
:10B4C00000D1DDE0B046331C151CE8E70023B6E7E9
:10B4D0006946774A097D181C11706E4A06990393D4
:10B4E000116041466F4A1160049A002A00D028E199
:10B4F0005B461B1A5A1E93410025DBB20493079B3F
:10B5000000271B68039E0693624B1B689C46654B95
:10B510001B689A46664B1B780593664B0193012383
:10B520009846029B013BDBB20293FF2B00D18FE0D8
:10B53000069ADB0093469B44002D27D06968AB68D0
:10B54000281CED696246019C8A1A1202120AA24264
:10B5500050D8D31842460360476087600274C761C1
:10B56000002E56D03168341C994204D35FE0116834
:10B57000994263D2141CE2695B1A002AF7D1036076
:10B58000331CC261E0611E1C002DD7D15B465A46B8
:10B590001B7852789A42C4D0594649685A00894665
:10B5A0005946D2180133DBB20B708978D2004A4475
:10B5B00099424AD011785068331C0129E3D1037CA9
:10B5C00099464946331C0029DDD191684160D36812
:10B5D00083601469C46052698261059A002AB1D0FF
:10B5E0004A46002142606246019C8A1A1202120AEF
:10B5F000A242AED96246511A0902090A99420CD2F6
:10B6000042465B1A0360476087600274C761002E80
:10B61000A8D1031C82461E1CB6E74346076047605C
:10B6200087600374C761002EF3D000233168CB1A02
:10B630003360031CC66182461E1CA5E7C91A11604F
:10B640000360C261331CE0619DE75B461D70B1E79A
:10B650005246144B1A60039BB3422FD1049B002B1C
:10B660002CD10023124A137009B03CBC9046994675
:10B67000A246AB46F0BDDE693A1C002E00D021E7A1
:10B6800001250D4B9D600023069601369846151C3A
:10B69000059604E710190020241900202519002020
:10B6A00028190020141900201C190020201900203E
:10B6B00026190020FEFF7F0000100140002E63D0FD
:10B6C000484B49493568CC58484B494E1B6830783F
:10B6D000E21A1202120A03329046002861D0424652
:10B6E000AA4200D22A1CA820D21812023E49130AEC
:10B6F000C0003C4D0B504A591B1B121B1202120A70
:10B700001B0203321B0A9A42ABD94B590B502F2014
:10B710000138C046C046C046C046C046C046C046C6
:10B72000C046C046C046C046C046F1D180218023F5
:10B73000304A89025B00D15093E700239946049375
:10B740005BE60025002100244846464613E01A68BF
:10B7500082421CD8DE68801A89181C60DF69002EBE
:10B7600007D0DD611D1C019A9E608A181202120A20
:10B770005A603B1C3E1C002BE9D11F4B1E6000236E
:10B78000039301330493BAE6FFF76AFD69E7814644
:10B79000194903930E604946521A1A600123049313
:10B7A000ADE68020D1274002BF00C851403FC851BC
:10B7B000C02280270F48BF02520087500760012730
:10B7C0002F200F600138C046C046C046C046C04664
:10B7D000C046C046C046C046C046C046C046F1D17D
:10B7E00037707CE7040500000010014010190020AC
:10B7F0003019002000E100E014190020F8B54F4690
:10B800004646C0B40326351C80460F1C141C9946BE
:10B8100015400720002D03D00CBC90469946F8BD7A
:10B82000002A44D0FFF71CFD4A46224B80201A60B4
:10B83000221C214B18321E70204B62601C607B0062
:10B84000DB19DB00D218E260D318C02263612570D7
:10B850006570A77025726572A77225746574A774E8
:10B86000C524FF21164B40031D60164B52001D706E
:10B87000154BA4001D70154B98501A598A433F3937
:10B880000A431A51A122186040461149D20088503B
:10B89000C42080001C580F4A2240C02424022243A6
:10B8A0001A500D4B0020CA580C4B1A60B4E7034BDA
:10B8B0001A60B1E7181900201C1900202019002077
:10B8C00014190020241900202519002000E100E0AF
:10B8D00000100140FF00FFFF0405000010190020C8
:10B8E00010B50B4B1B68002B0BD0002A07D000288B
:10B8F00005D0036808201C7C002C04D010BD072054
:10B90000FCE70820FAE759745A610020F6E7C046C0
:10B9100020190020F0B5474680B4374B1C68002C36
:10B9200008D0002806D00723042905D8181C04BC19
:10B930009046F0BD0823F9E74369002BFAD00025B3
:10B94000437CA846012B2FD0EFF30583DB05DB0DED
:10B950001025002B2CD164196378A5785E1CF6B2F3
:10B96000AD1B6F1EBD416D422E402578B5421DD0E6
:10B970005D00EB186568DB00ED180423002DD5D0C1
:10B98000033B2B7068601D4B1D48C358E960AB60DA
:10B99000434680212B6180236A611A4A5B00490378
:10B9A0006670D1500023C1E78846CDE70423BDE788
:10B9B000103BDEB275B2002D13DBAD08114EC03561
:10B9C000AD00AD5903263340DB00DD402B069B0F55
:10B9D000DBB20025012BBED00835032BBBD00835C8
:10B9E000B9E70F23084D3340AC46083B9B089B004A
:10B9F00063445D680323E6E7201900200405000086
:10BA00000010014000E100E018ED00E030B52E4AE2
:10BA1000031C12680820002A2ED0002B2CD0596954
:10BA2000002929D000211974EFF30581C905C90D3A
:10BA30001025002923D155196A78A978541CE4B23D
:10BA4000091B481E814149420C402978A14214D06B
:10BA500051008A186968D2008C4662440420002A8A
:10BA60000AD0022153601170802380210020174AE0
:10BA700049035B006C70D15030BD0420FCE71039E5
:10BA8000CCB260B2002813DB8008104CC0308000BC
:10BA9000005903242140C900C8400106890FC9B2DA
:10BAA00000250129C7D008350329C4D00835C2E7CD
:10BAB0000F210748214084460839890889006144DC
:10BAC00048680321E6E7C0462019002000E100E0B5
:10BAD00018ED00E0F0B544465F4656464D46F0B4DA
:10BAE0009C4A87B013680024012B00D1AEE09A4B2A
:10BAF0001A68012A00D1B7E0984B1A68012A00D1D0
:10BB0000C2E0974B1A68012A00D1CDE00022954B84
:10BB100002921A68012A00D1D8E023070BD0E3076C
:10BB200000D5DFE0A30700D5EBE0630700D5F6E022
:10BB3000230700D502E1002C06DB07B03CBC904691
:10BB40009946A246AB46F0BD002301270493C033BB
:10BB500099460126844D7F4200230393E023DB00B6
:10BB600000249846231C4033E95C4BB201332CD0AF
:10BB7000C9B24B46081C98433B1CC3401E4224D00C
:10BB80008B0901932B1820331B785BB29B00EB5879
:10BB90009C46002B35D0331C83409A46019B032BD7
:10BBA00035D0A023DB059B46434682005A44D35838
:10BBB0000592C022920213401B0C191C5346934657
:10BBC000029A1A4212D1032926D00134042CC9D179
:10BBD000039B002BB1D0A223A022DB00D205D358B7
:10BBE000029A9A42A9D0049F0293B5E70229ECD1A8
:10BBF000019B032B16D06346002BE6D00199E0474A
:10BC0000E3E7019B032BE0D1331C83409A46524665
:10BC1000049B13430493C4E7019B032BEBD18023C4
:10BC20009B029B4643460599CB589A4652464F4B3A
:10BC3000134042468B508B585A461A43131C4246B7
:10BC40008B50039B0133DBB20393D4E7C1214848F7
:10BC5000890041580B4200D149E73F4B14601A68F4
:10BC60000134012A00D047E7C12241499200895896
:10BC700002220A4200D13FE700211960374B1443EA
:10BC80001A68012A00D03CE7C1223949920089583C
:10BC900004220A4200D134E700211960304B1443DA
:10BCA0001A68012A00D031E7C1223149920089582F
:10BCB00008220A4200D129E700211443002219601A
:10BCC000284B02921A68012A00D026E700221A6047
:10BCD00080231B061C43A022A223D205DB00D358DD
:10BCE00002931AE7A223224ADB00D058D1581E4DF6
:10BCF000C00489032B68C00E890F9847A30700D49E
:10BD000013E71C4B1A4A184DD058D158C004890368
:10BD10006B68C00E890F9847630700D408E7A32318
:10BD2000134ADB00D058D1580F4DC0048903AB68CB
:10BD3000C00E890F9847230700D4FCE60C4A0E4B2F
:10BD4000094DD058D158C0048903C00E890FEB6843
:10BD50009847F0E60061004004610040086100403F
:10BD60000C6100407C61004034190020FFFFFCFFA3
:10BD700000600040140500001C050000C12210B541
:10BD8000604B92009A5884B092054DD55E4A116876
:10BD9000002949D0002111608121C222890092002E
:10BDA00099505A4B9A7E002A02D10121584A1160BB
:10BDB000022269460A7090215248C90042584250F6
:10BDC00069460392DA7D68460A72DA681968019258
:10BDD0000022DA751A765B6898474E4A1368002B82
:10BDE00010D04A4B988A997D81424FD90021116029
:10BDF0009A8A9968895C9A8A013292B29A82464BF1
:10BE0000404AD150454B1A68002A0BD000221A60D4
:10BE10003E4B9A7E002A02D001213A4A1160DA7D17
:10BE2000002A42D104B010BDC123364A9B00D3582A
:10BE30005B07D2D53A490B68002BCED0334BD87D67
:10BE400000283FD10860A321C90052585A7ED97DED
:10BE50009142C2D11A7E002A41D19A7E002A02D193
:10BE600001212B4A11608120C222264980009200C4
:10BE70008850002268460121DA755A7E01700272EC
:10BE8000DA68196801925B689847A6E7002010609D
:10BE90000029B7D06A46107011729A6898751968AF
:10BEA00001925B6868469847ACE70022684601212A
:10BEB000DA755A7E01700272DA68196801925B685D
:10BEC0009847AFE700200860A320C000597E1258B1
:10BED000D86842545A7E0132D2B25A76B6E7DA7541
:10BEE0001A69D968DA6000226C46587E1A765A764A
:10BEF0000132207201912270196868465B68984788
:10BF00006BE7C04600200040242100407C1900203F
:10BF1000042000401C2100401C050000442100407A
:10BF200008210040A02210B5064BD205D15880232D
:10BF30001B041C1CA1208C430B400349C00014505F
:10BF4000535010BD040500000C050000F8B5C74BA8
:10BF50001B68DB0700D4F8BDC54A1478172CFAD843
:10BF6000C449A300CB589F46A022C34BD205D15849
:10BF70008023DB031C1CA1208C430B40BF49C00065
:10BF800014505350BE4B00221B68BE489900C9187C
:10BF9000FFF7C0FCDFE7A023F021B84ADB05490426
:10BFA00099500021043A9950D5E7A022B24BD2050E
:10BFB000D1588023DB031C1CA1208C430B40AF49CC
:10BFC000C00014505350AE4B00221968AD48FFF723
:10BFD000A1FCC0E7AC4BA1201968E0235B048B43B4
:10BFE000A0210026F025C905C000A44C0B50A24B8F
:10BFF0000E51CB586D046B408025AD032B4000D112
:10C0000020E10D5003230E51082113709C4B002298
:10C010001B689C485943FFF77DFC9CE79A4BA12085
:10C020001968E0235B048B43A0210026F025C90595
:10C03000C000924C0B50904B0E51CB586D046B408E
:10C040008025AD032B4000D104E10D5004230E5197
:10C050002821DAE7A023A122E021DB05D200490450
:10C060008024995000218548A40319501C509950F0
:10C0700071E7864D281CFFF7C9FC11231C1B00D15A
:10C08000C7E0002800D0C4E080237F4E1B0433604B
:10C09000012C10D0C8306421604301F007FB784BBD
:10C0A00000221B684343281C191CFFF733FCF023B4
:10C0B00032685B041340A0227049D2055350A1237B
:10C0C0000021DB00D15046E76F4BA1211A68F02315
:10C0D0005B049343A022C900D20553500021674B53
:10C0E000D15038E7684BA1201968E0235B048B43EB
:10C0F000A0210027F026C905C000604D0B505E4B03
:10C100004F51CB58760473408026B603334000D19C
:10C110008EE00E504F51022C00D1A0E02821147067
:10C1200074E7A023A122C021DB05D2004904C0246A
:10C13000995000215148E40319501C5099500AE7C6
:10C14000A023A122D021DB05D200490480249950EC
:10C1500000214A48E40319501C509950FBE6A023E3
:10C16000F021A122DB054904D20099500021434A65
:10C170009950F0E6E022444B52041B68A1219A43F7
:10C18000A023C900DB0580245A5000223B48A403A9
:10C190001A501C505A50DEE63B4BA1201968E02390
:10C1A0005B048B43A0210026F025C905C000334C59
:10C1B0000B50314B0E51CB586D046B408025AD03B5
:10C1C0002B403CD00D500E51052313702C4B0022F8
:10C1D00019682C484900FFF79DFBBCE62A4BA120BB
:10C1E0001968E0235B048B43A0210026F025C905D4
:10C1F000C000224C0B50204B0E51CB586D046B40AD
:10C200008025AD032B4022D00D500E510623137014
:10C21000D9E6F0231C4A5B041168A1200B40A02141
:10C22000C000C9050B50002314480B50136092E660
:10C230004E510B50022C15D004211470E6E60D511E
:10C240000B50C1E70D510B5002210323DDE60D51C8
:10C250000B50DBE70D510B5004210423D5E61221CE
:10C260001470D3E602211470D0E6C046A019002055
:10C27000C819002004D80100040500000C050000C6
:10C28000A4190020A81900209C190020CC19002016
:10C2900070B5DB4B041C1B680020DB0700D470BDAD
:10C2A000172CFCD8D74AA300D3589F46A022D64BC0
:10C2B000D205D1588023DB031C1CA1208C430B40EA
:10C2C000D249C00014505350D14B00221B68D148B2
:10C2D0009900C918FFF71EFBE1E7A022CA4BD2055F
:10C2E000D1588023DB031C1CA1208C430B40C74981
:10C2F000C00014505350C64B00221968C548FFF7C0
:10C3000009FBCCE7C44D281CFFF780FB11231C1B45
:10C3100000D14CE1002800D049E18023BF4E1B042E
:10C320003360012C10D0C8306421604301F0BEF9A5
:10C33000B74B00221B684343281C191CFFF7EAFA7D
:10C34000F02332685B041340A022B049D205535059
:10C35000A1230021DB00D150A1E7A023F021A122DD
:10C36000DB054904D20099500021A84A00209950C9
:10C370001222AB4B1A7092E7A023A122E021DB0529
:10C38000D2004904802499500021A048A4031950E8
:10C390001C5099501322A24B00201A707FE7A02353
:10C3A000F0219A4ADB05490499500021043A99503A
:10C3B0009B4B00201C7072E7984BA1211A68F02358
:10C3C0005B049343A022C900D205535000238F4938
:10C3D00000205350924A137061E7904BA1211A68D4
:10C3E000E0235B049343A0220026F025D205C90078
:10C3F00086485350844B1650D3586D046B408025AB
:10C40000AD032B4000D1E9E055501650022C00D16D
:10C41000F1E02821824B1C707D4B00221B687D4877
:10C420005943FFF777FA3AE7A023F021774ADB0573
:10C43000490499500021043A99500C22784B00206D
:10C440001A702CE7A023A122D021DB05D2004904D9
:10C450008024995000216D48E40319501C509950D4
:10C4600014226F4B00201A7019E76C4BA1211A6837
:10C47000E0235B049343A0220025F024D205C900E9
:10C4800062485350604B1550D35864046340802475
:10C49000A403234000D199E05450155008210322F1
:10C4A0001AE05E4BA1211A68E0235B049343A022AB
:10C4B0000025F024D205C90054485350524B155062
:10C4C000D358640463408024A403234000D18BE04C
:10C4D0005450282115500422514B1A709CE7E02239
:10C4E0004E4B52041B68A1219A43A023C900DB05CF
:10C4F00080245A5000224548A4031A501C505A5018
:10C50000474B07321A700020C9E6A023A122C021A0
:10C51000DB05D2004904C024995000213B48E403C4
:10C5200019501C50995015223D4B00201A70B6E648
:10C530003A4BA1211A68E0235B049343A022002513
:10C54000F024D205C900314853502F4B1550D35811
:10C55000640463408024A40323403CD0545015500D
:10C5600005222F4B2B481A70294B002219684900CD
:10C57000FFF7D0F993E6294BA1211A68E0235B0469
:10C580009343A0220025F024D205C9001F48535030
:10C590001D4B1550D358640463408024A4032340EA
:10C5A00026D05450155006221D4B1A70A3E6F023D6
:10C5B0001A4A5B041168A1240B40A021E400C905BC
:10C5C0000B510023114C0B51136068E6145053506B
:10C5D0000221032280E714505350C1E715505350F5
:10C5E000022C0AD0042115E714505350042172E79D
:10C5F00014505350D7E712210CE702210AE7C04636
:10C60000A019002064D80100040500000C050000FA
:10C61000A4190020A8190020CC1900209C19002082
:10C62000C819002008B5104B1960104B1860104B4A
:10C630001A60C3070BD5A023F022A1210020DB053F
:10C640005204C9005A500B4958500C315A500A48EC
:10C6500000210A4AFFF744F9002804D108480121C3
:10C66000084AFFF73DF908BDA4190020A0190020D1
:10C67000981900200C050000C4D801004DBF01002E
:10C68000C8D8010025BF010073DF704748DF70473D
:10C6900030B5002093B00521384A0023FFF7AEF8EB
:10C6A000002801D0FEF7BEFD012035490022FFF72A
:10C6B000B9FF002801D0FEF7B5FD01AD31490422D4
:10C6C000281C01F085F8281C2F494822002300F07F
:10C6D00041FF002801D0FEF7A5FD04AC0020002199
:10C6E000221C00F08DFF002801D0FEF79BFD27489B
:10C6F00000F09EFF002801D0FEF794FD201C00F002
:10C70000A1FF002801D0FEF78DFD59232B80204B7F
:10C710000021AB601723201C3822AB80FEF778FD88
:10C720000023201C237000210433E370656200F0B5
:10C730009FFB002801D0FEF775FD164C1822201C27
:10C740000021FEF765FD0323A02223700023201C97
:10C750006360237222826382FFF796FF002801D074
:10C76000FEF760FD0220FFF793FD002803D1FFF7DD
:10C770008DFF0028FBD0FEF755FDF8E7EC190020EF
:10C78000CD0C0000CCD80100B41B00207018002094
:10C79000D0180020FC1B002071DF704772DF70474B
:10C7A00079DF70477DDF704765DF7047F0B504883B
:10C7B000051C83B00720012C04D01488A01C9842CB
:10C7C00002D90C2003B0F0BD2E78012E04D16E7872
:10C7D00002363619B342F4D3023B1C1B6B460F1CC6
:10C7E000A4B20818991D161CDC80FFF7DBFF002897
:10C7F000E8D12B78022B18D0012B11D0231C082153
:10C80000FE2BDED83288581CB85432880020013202
:10C8100092B23280B954328801329B183380D1E70A
:10C820006B789C42EBD2231CE9E76B46DB8809213D
:10C830009C42E5D2231CE2E7F0B55F4656464446EB
:10C840004D46F0B485B09A460EAB80CB061C1B88D3
:10C8500000919B463B88904601930388002B5BD058
:10C860000023994602AB0024DD1C03E03388013429
:10C87000A3422ADD7368A1009C460422614403A8F8
:10C8800000F0A6FF03A8291C0022FFF78DFF002857
:10C8900026D12B784345E9D14B46002B27D0434680
:10C8A0003A88D3185B4539DC524403A8291CFFF7AA
:10C8B0007BFF002814D13B882A780134D3183B80B1
:10C8C000012399463388A342D4DC4B46002B23D066
:10C8D0003B88019A013B9B1A9BB20C20FF2B18D975
:10C8E00005B03CBC90469946A246AB46F0BD4246D8
:10C8F0003B889A1802325A4510DC69465246013389
:10C9000009789BB23B80D1543A88013292B23A8086
:10C91000CAE7111C524653540020E1E70C20DFE720
:10C92000F0B55F4656464D464446031C0020F0B421
:10C9300017881080586B87B0002800D16FE1047809
:10C94000022F18D90220112508701088013080B2FA
:10C9500010800D541088013080B210800C5414885F
:10C960000134A4B21480186B002800D177E0251C94
:10C970001235BD4207D90C2007B03CBC9046994601
:10C98000A246AB46F0BD11250D551488013D01347A
:10C99000A4B214800D5514880134A4B21480C57B50
:10C9A0000D5514880134A4B21480857B0D5514886C
:10C9B0000134A4B21480457B0D5514880134A4B20F
:10C9C0001480057B0D5514880134A4B21480C57AF7
:10C9D0000D5514880134A4B21480857A0D5514883D
:10C9E0000134A4B21480457A0D5514880134A4B2E0
:10C9F0001480057A0D5514880134A4B21480C579C9
:10CA00000D5514880134A4B2148085790D5514880D
:10CA10000134A4B2148045790D5514880134A4B2B0
:10CA2000148005790D5514880134A4B21480C5789A
:10CA30000D5514880134A4B2148085780D551488DE
:10CA40000134A4B2148045780D5514880134A4B281
:10CA500014800078085514880134A4B214802E2064
:10CA60001D5C002D00D0DCE01E1C2D23F35C151C8A
:10CA70008846002B00D0F7E0B378002B00D024E1EB
:10CA8000F378002B16D0E21CBA4200D973E70222D9
:10CA9000414640460A5501212A88013292B22A8035
:10CAA00081542A88013292B22A8083542C8801341E
:10CAB000A4B22C807368002B16D01A78E31CBB42FA
:10CAC00000D958E70223414640460B550A212B88DE
:10CAD00001339BB22B80C1542B8801339BB22B8036
:10CAE000C2542B8801332B803389002B00D010E1F6
:10CAF000338A002B00D076E1338B002B00D08BE102
:10CB0000336A002B4AD02A880C20911DB94200D9E3
:10CB100032E7198805388B46052900D82CE7CC4C1C
:10CB20005C44A4B2A146CB4CA446A14500D823E75F
:10CB30005C88A246052C00D81EE7C54C6946A14674
:10CB4000D1444C46CC81CC89644500D814E7C24C12
:10CB5000A34504D0A24502D0D34500D90CE7052156
:10CB6000404681542A880D31013292B22A80815484
:10CB70002A88013292B22A80198842441170090A27
:10CB800051702A88023292B22A805988131C434479
:10CB90001970090A59702B8802332B80746A002C93
:10CBA00032D0A2882988131D5B180C20BB4200D903
:10CBB000E2E6931CFE2B00D9DEE6434603325A54CC
:10CBC000FF2241462B8801339BB22B80CA542B880D
:10CBD00001339BB22B80228843441A70120A5A7088
:10CBE0002B8802339BB22B80A288002A0CD0A1682C
:10CBF0000538002900D1BFE64344181C00F0E8FDC9
:10CC00002A88A388D3182B802C23F35C002B00D018
:10CC100098E03378002B00D0DEE00020ACE6002462
:10CC2000A1E6E61C2238BE4200D9A5E602260E5532
:10CC30001C241088013080B210800C541088013000
:10CC400080B21080022D00D10FE100D806E1032D43
:10CC500000D108E1042D00D0F7E003240C5414881F
:10CC60000134A4B21480FFE609340C20BC4200D980
:10CC700082E604A8FFF790FD002800D07CE641463C
:10CC800008222B88CA542B88133201339BB22B8085
:10CC9000CA5402AB9C4609212888153A013080B25B
:10CCA00028806144404400F093FD2B8802AA06339B
:10CCB000127A9BB22B80002A00D001224146CA542E
:10CCC0002C880134A4B22C80D6E604340C20BC425B
:10CCD00000D951E604A8FFF763FD002800D04BE619
:10CCE000032241462B88CA542B88163201339BB24B
:10CCF0002B80CA542B8802AA01339BB212892B8045
:10CD000043441A70120A5A702C880234A4B22C8040
:10CD1000B6E6341C083400950197201C022102223B
:10CD20004346FFF789FD002800D025E600950197CE
:10CD3000201C062110224346FFF77EFD002800D06C
:10CD40001AE6D5E6B46A002C00D17EE0A38802334F
:10CD5000FE2B00D90FE6002291461632924616327B
:10CD6000288893460BE04B465C00B36A4C449C46D3
:10CD7000A4006444A3880233FE2B00D9FBE542469D
:10CD80005146013313542B8801339BB22B80D1546D
:10CD90002B8801339BB22B80228843441A70120ADD
:10CDA0005A702888023080B22880A288002A0AD0CF
:10CDB000A168002949D0404400F00AFD2888A388D2
:10CDC000C01880B228804B460133DBB299465B46DF
:10CDD000F35C4B45C7D81CE7301C41462A1C3B1C62
:10CDE000FFF7E4FCC8E5341C103400950197201CC3
:10CDF000032102224346FFF71FFD002800D0BBE5B8
:10CE000000950197201C072110224346FFF714FDCF
:10CE1000002800D0B0E56FE6341C18340095019767
:10CE2000201C142102224346FFF706FD002800D0F3
:10CE3000A2E500950197201C152110224346FFF71B
:10CE4000FBFC002800D097E55AE6072094E5C04691
:10CE50007FF3FFFF7DF30000FFFF0000012DF4D101
:10CE600000240C54FBE60E54F9E601240C54F6E6BB
:10CE7000F0B54E46574645461F23E0B496B002AA89
:10CE8000041C0E1CD381002800D171E0C3785B071D
:10CE900067D5002302AA9381436B002B00D13EE1AA
:10CEA0001B78022206ADAB70032303270521042063
:10CEB0002A700F326A7002AA9381226B002A3AD03C
:10CEC000112306ADEB55013B2B54D37B6B54907B68
:10CED0004B1CE854507B8B1CE854107BCB1CE85453
:10CEE000D07A0B1DE854907A4B1DE854507A8B1D74
:10CEF000E854107ACB1DE854D0790133E854907986
:10CF00000133E85450790133E85410790133E8547F
:10CF1000D0780133E85490780133E854013302A803
:10CF200083815078E854013302A883811278EA544F
:10CF3000013383819BB22E22A25C002A00D0F1E152
:10CF40002D22A25C002A00D011E1A278002A00D094
:10CF50003DE1E278002A35D0D91C1F2925D90C20C3
:10CF600000E0072016B01CBC90469946A246F0BDD2
:10CF7000002502AB9881002E00D1D4E0F378002B7D
:10CF8000EFD102AA94460E236344301C0EA91A1C4A
:10CF9000FFF7C6FC0028E5D102AB9B7B0EAA02A9D5
:10CFA000097B281CFFF7FAFBDCE70220012706AD0E
:10CFB000E854581C02339BB280B22F54EA548BB20F
:10CFC00002AA93816268002A0FD01078DA1C1F2A07
:10CFD000C5D802210A2706ADE954591C02339BB279
:10CFE00089B26F54E85402AB9A812389002B00D098
:10CFF0009EE0238A002B00D00AE1238B002B00D077
:10D0000025E1236A002B43D002AA92890C20911DAE
:10D010001F29A7D81888824655460720052DA1D973
:10D02000D24D5544ADB2AC46D14DA846AC4599D988
:10D030005D88A946052D00D894E7CC4D6F46AC46D7
:10D04000CC446546FD81FD89454500D88AE7C94D38
:10D05000AA4504D0A94502D0CA4500D982E70520D7
:10D06000122706ADA854501C80B22F54901C80B2D9
:10D0700002AFB8811F88281807703F0A4770043232
:10D080005B8892B2AD182B701B0A6B7002AB998152
:10D09000676A002F2FD0BB880C20991C02AB9B899C
:10D0A0009A1C55181F2D00D95CE7FE2900D959E7B5
:10D0B00006AD0131E954591C89B2F330685492B27B
:10D0C00002A98A813988AA180433117098B2090A12
:10D0D00002AB51709881BA88002A0CD0B968002937
:10D0E00000D13EE7281800F073FB02ABBA889B8999
:10D0F000D31802AA93812C23E15C002900D0C5E05B
:10D1000006AD2378002B00D135E7201C291C05AA89
:10D110001F23FFF74BFB002800D12CE722E7002755
:10D1200002210120C9E602ABDE810022002336E79E
:10D1300005AB271C00931F23083706AD98460193C3
:10D14000381C022102222B1CFFF776FB002800D09E
:10D1500008E705AB00934346381C019306211022D3
:10D160002B1CFFF769FB002800D0FBE641E70933E1
:10D170000C201F2B00D9F5E60EA8FFF70DFB0028A9
:10D1800000D0EFE6082202AB9B8906ADEA545A1C98
:10D19000023398B21B2102AB9C4692B2A9541631BD
:10D1A000988161440622281800F012FB302002AB5F
:10D1B00002A99B89091809789A1D92B2002900D00A
:10D1C00001210733A9549BB202AA9381BDE604331F
:10D1D0000C201F2B00D9C5E60EA8FFF7E1FA0028A6
:10D1E00000D0BFE60322192102AB9B8906ADEA54A9
:10D1F0005A1C92B2A95402AA118E9A1C92B2AD186E
:10D20000043329709BB2090A02AA69709381A0E6CF
:10D2100005AB271C00931F23103706AD98460193DA
:10D22000381C032102222B1CFFF706FB002800D02C
:10D2300098E605AB00934346381C01930721102262
:10D240002B1CFFF7F9FA002800D08BE6D5E605ABDA
:10D25000271C00931F23183706AD98460193381CEE
:10D26000142102222B1CFFF7E7FA002800D079E6F0
:10D2700005AB00934346381C0193152110222B1C4B
:10D28000FFF7DAFA002800D06CE6BAE6A76A002FAA
:10D2900000D166E6BB880233FE2B00D95FE602AA06
:10D2A000908900229046163291461632924606AD7B
:10D2B0004A4601332B54431C9BB2EA54831C9BB255
:10D2C00002AA93813A88EB181A700430120A5A7035
:10D2D00080B202AB9881BA88002A0FD0B9680029C1
:10D2E00000D13EE6281800F073FA02AB9B89B8889B
:10D2F000C01880B202AB98815346E15C43460133CB
:10D30000DBB298468B4200D3FBE643465F00A36A3C
:10D3100047449C46BF006744BB880233FE2BC7D9F5
:10D320000C201FE602201C27591C06AD89B2E854C8
:10D330006F54191889B282420CD010D9032A0CD02C
:10D34000042A00D00DE603226A5403339BB202AADA
:10D350009381F5E501226A54F7E76854F5E7012A5D
:10D3600000D0FEE500226D182A70EEE77FF3FFFF84
:10D370007DF30000FFFF0000304B1B78012B00D035
:10D3800070472F4B1B681B07FAD1F0222D4B1B68EF
:10D39000134027D12C4B1B68134229D0284B1B6804
:10D3A0001B07EDD1F022274B1B681340402B32D0D6
:10D3B000244B1A68F0231340A02B01D0D02BDFD1CF
:10D3C000214B1A68F0231A42DAD1204A1368012B44
:10D3D00004D01F4B13601368012BFCD1C0221D4BDE
:10D3E0001A60CDE7102B0FD1174B1B681342D9D110
:10D3F000194A1A4B1A608022194B12021A600F4BFD
:10D400001B78012BCAD0BBE7302BCBD10E4B1B684E
:10D410001342C7D1ECE70C4B1B681342C8D1C123A0
:10D4200080220121DB00D205D150044B1B78012B57
:10D43000A6D1034B1B681B07BAD0A1E7E00F00F091
:10D44000E40F00F0E80F00F0EC0F00F000EC0640F5
:10D450007593000014EC0640DFFF07C00405004090
:10D46000186C004052DF704710DF704760DF704774
:10D4700061DF704708B5FDF7E5FE08BDF0B557461A
:10D480004E464546E0B42F4B2F4E1D6899466B42E1
:10D490005D412E4BB2461C68984663425C412C4F5E
:10D4A00082B0EDB2E4B2002D08D0002C23D002B03F
:10D4B0001CBC90469946A246F0BD012401A8FFF786
:10D4C000D1FF05282DD0002826D0FDF7ABFE002C7B
:10D4D000F3D16A461C4B01A91B8893801C4B1C6826
:10D4E000201CFFF7C5FF0528E7D000280ED0FDF768
:10D4F00099FE0024D7E73C68338801A9201C0B80E3
:10D50000FFF7B6FF0528D2D00028F0D14346201CF3
:10D510001B6898470024C6E74B4601981B6898474C
:10D52000D5E7002CC3D153466A461B8801A99380D6
:10D53000074B01251C68201CFFF79AFF0528D4D152
:10D54000B5E7C0461C1C0020161C0020201C002033
:10D55000181C002038B5041C0720002901D08D07B5
:10D5600000D038BD124801601249201C0A80124ABE
:10D5700012491360FFF778FF0028F2D10122104B07
:10D580001A70C5220F4B92009A58520207D50E4AC4
:10D590005068002805D18022D2031A60E1E70B48C9
:10D5A000DFE780211368C9030B4313600020D8E72D
:10D5B000181C0020161C0020241C002075D401001B
:10D5C000141C002000E100E0281C002002200000C4
:10D5D00008B5094B1B68002B06D09847002800D1DE
:10D5E00008BDFDF71FFEFBE7044B1B78002BF7D0AF
:10D5F000FFF744FFF4E7C046241C0020141C002061
:10D6000070B5141C051C0E1C101C00211422FDF703
:10D61000FFFD002301222361237B22809343237398
:10D6200026726572002D01D00123A372002070BD07
:10D630000020034B82B00193019B02B07047C046AB
:10D640007018002000B5054B83B00193019B69461B
:10D650000093FFF70BFF03B000BDC0467018002019
:10D6600003210A4802680A430260094802680A4323
:10D6700002600849084A094B9B1A03DD043BC8585D
:10D68000D050FBDCFFF778FEFDF74AFD2405004093
:10D69000540500403CD9010070180020F418002007
:10D6A000FEE7FEE7FEE7FEE7FEE7FEE700224308AF
:10D6B0008B4274D303098B425FD3030A8B4244D35A
:10D6C000030B8B4228D3030C8B420DD3FF2209029C
:10D6D00012BA030C8B4202D31212090265D0030B5B
:10D6E0008B4219D300E0090AC30B8B4201D3CB0351
:10D6F000C01A5241830B8B4201D38B03C01A524193
:10D70000430B8B4201D34B03C01A5241030B8B4294
:10D7100001D30B03C01A5241C30A8B4201D3CB027F
:10D72000C01A5241830A8B4201D38B02C01A524164
:10D73000430A8B4201D34B02C01A5241030A8B4267
:10D7400001D30B02C01A5241CDD2C3098B4201D37F
:10D75000CB01C01A524183098B4201D38B01C01AFD
:10D76000524143098B4201D34B01C01A5241030974
:10D770008B4201D30B01C01A5241C3088B4201D323
:10D78000CB00C01A524183088B4201D38B00C01AD0
:10D79000524143088B4201D34B00C01A5241411AF7
:10D7A00000D20146524110467047FFE701B5002004
:10D7B00000F00CF802BDC0460029F7D003B5FFF712
:10D7C00075FF0EBC4243891A1847C0467047C046D1
:10D7D000002310B5934203D0CC5CC4540133F9E765
:10D7E00010BD0000F8B5C046F8BC08BC9E467047A6
:10D7F000F8B5C046F8BC08BC9E4670474300000020
:10D8000070180020C8C00100E4C00100E4C001009D
:10D81000D4BF01001CC0010098C10100DCC101009F
:10D8200074C10100AABF010068BF0100AABF0100C6
:10D8300068BF010096BF010072C0010072C0010004
:10D8400072C0010072C0010072C001005EC101001F
:10D8500054C0010040C1010022C1010096BF010077
:10D8600096BF0100B8C30100DAC30100DAC30100AA
:10D870006AC40100A2C4010030C5010076C50100E0
:10D88000DEC40100DAC20100ACC20100DAC201004C
:10D89000ACC2010028C4010004C3010004C301009C
:10D8A00004C3010004C3010004C301005AC3010002
:10D8B00078C3010044C401000AC501009EC30100F1
:10D8C0009EC30100A8190020CC1900200100000708
:10D8D0000000000000000000000000000000000048
:10D8E0000000000000000000000000000000000038
:10D8F0000000000000000000000000000000000028
:10D900000000000000000000000000000000000017
:10D910000000000000000000000000000000000007
:10D9200000000000000000000000000000000000F7
:04D9300000000000F3
:08D93400ECD7FF7F01000000A9
:10D93C0000000000D0D80100F0D8010010D901007F
:10D94C0000000000000000000000000000000000CB
:10D95C00FCD70100000000000000000000000000E7
:10D96C0000000000000000000000000000000000AB
:10D97C00000000000000000000000000000000009B
:10D98C00000000000000000000000000000000008B
:10D99C0002159112233445566778899AABBCCDDEBB
:10D9AC00EFF001020304C300E9B00100C1B00100B3
:04D9BC000000000067
:040000031000D661B2
:00000001FF
