:020000021000EC
:10B0000000400020F9260200392702003B270200F9
:10B010000000000000000000000000000000000030
:10B020000000000000000000000000003D270200BA
:10B0300000000000000000003F270200412702003E
:10B04000432702004327020059EE01004327020074
:10B05000B5E201000000000071E8010045E70100D1
:10B060004327020043270200432702004327020030
:10B070004327020043270200432702004327020020
:10B0800043270200E5D201004327020043270200C4
:10B09000C1D30100432702006926020043270200B2
:10B0A00043270200432702000000000000000000C8
:10B0B0000000000000000000000000000000000090
:10B0C00010B5064C2378002B07D1054B002B02D07E
:10B0D000044800E000BF0123237010BD08250020B4
:10B0E000000000002441020008B5084B002B03D0EB
:10B0F0000748084900E000BF07480368002B00D15B
:10B1000008BD064B002BFBD09847F9E70000000074
:10B11000244102000C25002004250020000000002E
:10B12000164B002B00D1144B9D46402292029A1AD6
:10B13000924600218B460F461348144A121A00F01B
:10B1400067F80F4B002B00D098470E4B002B00D018
:10B1500098470020002104000D000D48002802D06F
:10B160000C4800E000BF00F02DF82000290000F09E
:10B1700091FA00F011F8C0460000080000400020DD
:10B1800000000000000000000825002050310020D1
:10B190000000000000000000084B10B5041C002B4C
:10B1A00002D0002100E000BF054B1868836A002B25
:10B1B00000D09847201C00F033F8C0460000000083
:10B1C000003902000E4B70B500251E1C0D4CE41A10
:10B1D000A410A54204D0AB00F35898470135F8E716
:10B1E00008F080FB084B00251E1C084CE41AA41034
:10B1F000A54204D0AB00F35898470135F8E770BD7D
:10B20000FC240020FC240020FC2400200025002039
:10B21000031C8218934202D019700133FAE7704779
:10B22000FEE7C04676DF70477ADF70477CDF704705
:10B230007FDF7047A6DF7047A7DF7047A9DF704741
:10B240003CDF704748DF70470A78014B9A717047BE
:10B250001C27002008B501F0B1FF08BD70B50D1C1A
:10B26000161C0024002A07D0285D02F02DFD0028BE
:10B27000FAD10134B442F7D30A2002F025FD0028A8
:10B28000FAD170BD30B5051C85B00C1C002A05D163
:10B290002378152B08D0002005B030BD101C01F01C
:10B2A0008DFF2378152BF6D1174C113B281C01A9D3
:10B2B0000293039406F054FC00280AD12368DB07AC
:10B2C0000BD4281C06F0ACFC0028E4D001F076FF7B
:10B2D000E1E70E4B9842F9D1DDE70D4B0D4A188896
:10B2E0000C21FFF7A9FF0823021C9A43E9D0022290
:10B2F000094BC3189343E4D01128E2D0074B98427E
:10B30000DFD001F05BFFDCE7C428002040800000B4
:10B31000E6200020FFFF0000FECFFFFF0134000009
:10B3200008B50378002B00D008BD054B3B211888D9
:10B33000FFF778FF0028F7D001F040FFF4E7C046A0
:10B34000E620002010B5041C06F0E4FC201C05F0EB
:10B3500009FF211C224801F0F3FC201C04F090FDA1
:10B360002048211C05F08AFF2388112B28D01CD9E6
:10B37000132B0ED0522B08D11B4B00211888002212
:10B380000023FFF75BFF00280CD1201C05F0CCFD4B
:10B3900010BD154B8521188800220023FFF748FFB8
:10B3A0000028F2D001F00AFFEFE7102BEDD10720C3
:10B3B00004F01EFB002810D1A2880B4B1A80E4E792
:10B3C000002004F015FB002804D10122064B524254
:10B3D0001A80DAE701F0F2FEF7E701F0EFFEEBE7A3
:10B3E0002425002074280020E620002038B50378AA
:10B3F000012B03D0002B05D0022B02D1406801F0B5
:10B40000DDFE38BD0F4C104D2078281802F042FCAC
:10B4100022780132D2B2AB18013B1B7822700A2B82
:10B4200001D0132AEDD992B20848291C01F096FEEA
:10B430000823021C9A4301D001F0C0FE00232370B0
:10B44000DFE7C04670280020C829002024250020FE
:10B45000F0B54F464646C0B489B001F039FC01F062
:10B4600061F9494C6578002D00D081E02378002BEC
:10B4700000D06FE00023A27900930233019364208F
:10B48000013B002101F036FB01F030FC3F4B84B260
:10B490009C4266D803AB1C80201C6421984607F0B0
:10B4A00051F930300A21C6B2201C07F04BF90A21AD
:10B4B00080B207F0CDF93031201CCDB20A2107F05F
:10B4C000C7F93031CCB200230527994600930C20F0
:10B4D0001821321C0133019701F00CFB4B4634203C
:10B4E000009318212A1C0133019701F003FB4B46FE
:10B4F000221C18215C2000930197013301F0FAFA15
:10B5000001F08EF8002002F0FFFB43462048198826
:10B5100007F0B2FA02236A461E4CD381A28C1E4B5E
:10B520009A4212D004AD0021281C1022FFF770FEB1
:10B53000A38A291C2B804346EB600E236B44AB602F
:10B540000123AB70A08CFFF775FE09B00CBC9046D0
:10B550009946F0BD114E3378002B0ED10123337084
:10B5600088E703AA90461380392439253926AAE7AB
:10B570005020002101F0D8FA7CE75020002101F092
:10B58000D3FA357076E7C0461C270020E703000099
:10B590001839020024250020FFFF0000E4200020CD
:10B5A00008B5002807D0032804D1013804F020FA98
:10B5B00000280DD108BD002004F01AFA00280AD195
:10B5C00004F052FC002809D1FFF73AFE0028F1D020
:10B5D00001F0F4FDEEE701F0F1FDF1E701F0EEFD21
:10B5E000F2E7C04630B589B001A8021C1F4B32CB30
:10B5F00032C21F4B1F4A049380235B0005930692BF
:10B60000079304A91C4AFD3B02F0F2FA002801D07E
:10B6100001F0D4FD0A200C2100F0D6FB3C210022D1
:10B62000022000F0F5FB012002F06EFB01F07AF839
:10B6300000F0F6FF012002F067FB01F05DFB08223D
:10B6400000210E48FFF7E4FD0D490E4807F014FAFB
:10B6500001210D4A0D4802F049F98021002209021A
:10B660000B4802F05DF909B030BDC0460439020054
:10B67000C828002070270020EDB301001C270020FF
:10B680002C3902002839020051B40100143902009B
:10B69000A428002070B50020A8B00521804A00230E
:10B6A00002F0B2F8002801D001F088FDFFF79AFF00
:10B6B0007C490CAD0C310422281C07F0D4F9281C5D
:10B6C00079494822002306F087FF002801D001F0C5
:10B6D00075FD1AAC00200121221C06F0DDFF0028B8
:10B6E00001D001F06BFD0123227B704813432373CB
:10B6F00006F0EAFF002801D001F060FD201C06F0F2
:10B70000EDFF002801D001F059FD694806F0A2FFC5
:10B71000002801D001F052FD0F2101222B78654E47
:10B720008B43134310220B401343301C2B7007F044
:10B73000BDF9311C82B2281CFFF778FD002801D02A
:10B7400001F03CFD201C00210822FFF761FD1023C1
:10B7500023802C3363800023A3809133FF33201C8C
:10B76000E380FFF761FD002801D001F027FD0021F3
:10B77000201C0822FFF74CFD4F4B50481A93504BAA
:10B78000211C636001F01AFB002801D001F016FDB6
:10B7900000232B7003F0E2FE002801D001F00EFD23
:10B7A000281C06F0F9F8002801D001F007FD6D20F3
:10B7B000002105226844FFF72BFD012362794148EF
:10B7C0001A438D231A40302313437F2213406371A1
:10B7D0000723A3710933E3713B4B211C1A93012307
:10B7E000237106F07FF9002801D001F0E7FC002169
:10B7F0003822281CFFF70CFD0223002638222B706C
:10B8000000210333201CEB70AE70FFF701FD012314
:10B8100023822E4B03AA63610123D6601373402356
:10B82000136174335361566096609661D6611662F7
:10B83000281C0096211C264B039605F071F9002860
:10B8400001D001F0BBFC1C22201C0021FFF7E0FC12
:10B85000A02292026260F02200231203A26003225F
:10B860001A93E38123741B4B201C63611A4B2273D0
:10B87000A36105F03BFC002801D001F09FFC0320F0
:10B8800005F0F2F9002801D001F098FC0122134BD9
:10B890001A70FFF7D7FC0028FBD001F08FFCF8E707
:10B8A000542500200439020024270020E81F00202E
:10B8B00045B30100383902005DB2010024250020A3
:10B8C00049B201006C27002085B20100E820002069
:10B8D000A1B5010021B3010055B201001C270020D1
:10B8E000F0B55F4656464D464446F0B483B0002856
:10B8F00000DA30E1041C9A4D14192D882EB2B4429E
:10B9000001DD2A1A12B2002A00DC99E0CC17640F7C
:10B910006418E410E4010019924CA346251807248A
:10B920002140063C8C40E1B28A46012B00D11BE14C
:10B93000002B00D18BE0022B00D081E0032194B2D8
:10B94000671EBFB23BB298466B420B40A4469C4276
:10B9500000D996E163466946CB80CB88042A00DD96
:10B960009CE1231C51466A1C94462A784A402A705E
:10B970007A1E92B211B28846012B1ED05646A91CDF
:10B980008C466978013A714092B2697011B288466A
:10B99000022B12D0E91C8C46A978013A714092B270
:10B9A000A97011B28846042B07D1013A12B2904611
:10B9B000291D8C46E9787140E9709C4240D0E41A18
:10B9C000A4B2221F92B2920801329500FF1AA9B2C6
:10B9D000BFB28946022F1CD9C018534658441D02D5
:10B9E000061C281C1F0418431D0638432843002347
:10B9F000002577590133474077519FB2043597426C
:10BA0000F7D343464A469A1A13B2CC4498464C455B
:10BA100016D0634652461B78534062461370434625
:10BA2000002B0DD053785246534062465370434624
:10BA3000012B05D0634651469B7859406346997067
:10BA400003B03CBC90469946A246AB46F0BD94B2CA
:10BA5000671EBBB20327C9439A461BB298466B4286
:10BA60003B40C9B29C46A34200D901E163466E4601
:10BA7000F380F388042A00DD15E1231C6A1C944638
:10BA80002A780A402A705246013A92B217B2B84652
:10BA9000012B1DD0AF1CBC466F78013A0F4092B20B
:10BAA0006F7017B2B846022B12D0EF1CBC46AF78AD
:10BAB000013A0F4092B2AF7017B2B846042B07D1CB
:10BAC000013A12B290462F1DBC46EF780F40EF703E
:10BAD000A342B5D0E41AA4B2221F92B29208013256
:10BAE0009500ADB2A9465546EF1ABFB2022F1CD938
:10BAF000C01858440D02061C281C0F0408430D06EC
:10BB000038432843002300257759013307407751F4
:10BB10009FB20435BA42F7D843464A469A1A13B23E
:10BB2000CC4498464C4500D18AE7634662461B7870
:10BB30000B4013704346002B00D181E753780B4034
:10BB400053704346012B00D17AE763469B78194036
:10BB50006346997074E7821812B200240020CAE686
:10BB6000DC290020EC200020032497B27B1E9BB22E
:10BB70009C461BB298466B4223403C1C9F4272D8A5
:10BB8000A4B2042A00DD85E03C1C51462B786A1CD7
:10BB90000B432B706346013B9BB219B28846012CC4
:10BBA0001BD056466978013B31439BB2697019B28C
:10BBB000AA1C8846022C10D0A978013B31439BB2C5
:10BBC000A97019B2EA1C8846042C06D1013B1BB2AD
:10BBD0009846E9782A1D3143E970A74200D12FE742
:10BBE0003F1BBFB23D1FADB2AD080135AB009BB2EC
:10BBF000994663461B1B9BB2022B20D953465146E4
:10BC000000191B0258440B43061C181C0C040B069D
:10BC100004431C43A446002300206446F15801302D
:10BC20000C43F45084B20433AC42F6D34346494645
:10BC30005B1A1BB24A4498464F4500D100E7514673
:10BC400013780B4313704346002B00D1F8E653786A
:10BC50000B4353704346012B00D1F1E651469378D4
:10BC600019439170ECE61C1CA4B2042A8CDD11E08F
:10BC7000A4466E466346F380F388042A00DCFCE6A3
:10BC800011E09C4669466346CB80CB88042A00DCE1
:10BC900067E603E02A1C002CA2D076E7AC46002B16
:10BCA00000D18CE65EE6AC46002B00D112E7E5E65B
:10BCB00070B5002958DB0C1C3F4D14192D882EB28D
:10BCC000B44201DD6A1A12B2002A1ADDC9B2CC08E8
:10BCD000E4012018394CD2B22018072421401FD08B
:10BCE0000824611A364CC9B2645C8A420AD2FF2524
:10BCF0008E1A35412C40012B3FD0002B41D0022B16
:10BD000006D070BD012B38D0002B3AD0022B04D1C5
:10BD100005786C4004708A42F3D3521AD2B2803054
:10BD2000072A13D9022B34D05C1E61424C41111CEE
:10BD30000839C9B2C90801316442C901E4B24118E5
:10BD4000047080308842FBD107210A40002AD8D0F5
:10BD50001C498A5C012B18D0002B0AD0022BD0D1B1
:10BD600003785A400270CCE78A1812B200240021EE
:10BD7000A2E7037893430370C3E705782C4304706C
:10BD8000C9E70578A5430570C5E703781A43027033
:10BD9000B7E7111C0839C9B2C9080131C9014118F6
:10BDA0000378DB43037080308842F9D107231A40BF
:10BDB000A7D0044B9A5CD3E7E4290020EC200020B4
:10BDC000483E0200503E02003C220E4B10B51A7055
:10BDD0000D4B3B3A1A70CC2384B05B046A46029345
:10BDE00003230A4C137300900191201C6946002222
:10BDF000002302F02FF8002802D1201C02F01AF9CB
:10BE000004B010BDE6290020E029002044390200DA
:10BE1000F0B54746CE4D80B4297000210124CD4BAA
:10BE2000061C1870CC4800230180CC4884B00180E7
:10BE3000CB49CC480C70012149420180CA4801809D
:10BE4000CA49CB480C70CB490B7080210180CA488D
:10BE50000180CA4840390180C9480180C9490B7036
:10BE6000002A00D0ACE1C84C2378002B00D09BE125
:10BE70002378002B00D08BE12378002B00D05AE1EF
:10BE80002378002B00D04AE12378002B00D03AE140
:10BE90002378002B00D02AE12378002B00D01BE16F
:10BEA0002378002B00D00BE12378002B00D0FBE09F
:10BEB0002378002B00D0ECE02378002B00D0DCE0CE
:10BEC0002378002B00D0CCE02378002B00D0BCE0FE
:10BED0002378002B00D0ACE02378002B00D089E041
:10BEE0002378012E00D194E0002B00D085E1237847
:10BEF000002B00D090E12378002B00D09BE1237829
:10BF0000002B6BD12378002B5CD12378002B44D1FC
:10BF10002378012E4FD0002B00D062E12378002B34
:10BF20002FD12378002B20D12378002B11D1237817
:10BF3000002B0AD00023AF2103AA1370517093483D
:10BF400029780093023302F087F804B004BC9046CD
:10BF5000F0BD0023A62103AA137051708B482978E5
:10BF60000093023302F078F8E1E70023A42103AA4A
:10BF700013705170854829780093023302F06CF8F1
:10BF8000D2E700232E2103AA137051707F4829782D
:10BF90000093023302F060F8C3E700238D2103AA67
:10BFA00013705170794829780093023302F054F8E5
:10BFB0002378012EAFD1002BB0D0002303AA137039
:10BFC000102112E10023302103AA137051706F4831
:10BFD00029780093023302F03FF896E70023DB2133
:10BFE00003AA13705170694829780093023302F054
:10BFF00033F887E70023812103AA13705170634847
:10C0000029780093023302F027F82378012E00D01C
:10C010006AE7002B00D026E12378002B00D016E140
:10C020002378002B00D16AE7002303AA1370222192
:10C0300005E10023122103AA137051705348297897
:10C040000093023302F008F846E70023DA2103AA3E
:10C05000137051704D4829780093023301F0FCFFB2
:10C0600036E70023C02103AA13705170474829788E
:10C070000093023301F0F0FF26E70023A02103AA7A
:10C0800013705170414829780093023301F0E4FFA6
:10C0900016E7002303AA1370537029783B480093D6
:10C0A000023301F0D9FF07E70023202103AA137010
:10C0B0005170364829780093023301F0CDFFF7E63E
:10C0C0000023402103AA137051703048297800934F
:10C0D000023301F0C1FFE7E6002303AA1370537097
:10C0E00029782A480093023301F0B6FFD8E60023EE
:10C0F000D32103AA13705170244829780093023386
:10C1000001F0AAFFC8E600233F2103AA1370517073
:10C110001E4829780093023301F09EFFB8E6002301
:10C12000A82103AA1370517018482978009302338C
:10C1300001F092FFA8E60023802103AA137051703A
:10C14000124829780093023301F086FF98E6C04632
:10C15000E6290020E9290020EC290020EE29002012
:10C16000E8290020F0290020E22900203D310020AC
:10C17000DC2900203C310020DE290020E4290020B9
:10C18000EA290020E7290020E029002044390200A4
:10C190000023D52103AA13705170394829780093E0
:10C1A000023301F059FF67E60023AE2103AA1370A2
:10C1B0005170334829780093023301F04DFF57E660
:10C1C000A123A027DB009846FF05FC50012001F0C9
:10C1D0009BFD2C4B0A20FC5001F096FD4346FC5081
:10C1E00041E60023142103AA1370517029782448D2
:10C1F0000093023301F030FF90E60023CF2103AA21
:10C20000137051701E4829780093023301F024FF07
:10C210002378002B00D16EE60023D92103AA1370E6
:10C220005170174829780093023301F015FF2378E5
:10C23000002B00D163E60023F12103AA1370517093
:10C2400029780F480093023301F006FF57E60023D8
:10C25000D92103AA13705170094829780093023339
:10C2600001F0FAFEDCE600239F2103AA137051704F
:10C27000034829780093023301F0EEFECCE6C04675
:10C28000443902000C05000010B500282EDB304BAD
:10C2900000241B5F834229DD002927DB2D4B00246E
:10C2A0001B5F8B4222DD2C4B1B78022B1FD0032BF4
:10C2B00028D0012B05D1294B1B88013B5B1A011C9F
:10C2C00018B2012A35D0002A23D0022A0ED1CB176A
:10C2D0005B0F5B18DB10DB01C01807231940063B1E
:10C2E0008B40191C1E4A135C5940115410BD1B4B46
:10C2F0001B88013B181A1B4B00B21B88013B591AC3
:10C3000009B2DEE7174B1B88013B1B1A081C19B248
:10C31000D7E7CB175B0F5B18DB10DB01C0180723D7
:10C320001940063B8B40191C0D4A135C8B43135478
:10C33000DCE7CB175B0F5B18DB10DB01C0180723B2
:10C3400019408A40064C215C0A432254CEE7C0467D
:10C35000DE290020EA290020E7290020DC2900202E
:10C36000EC200020E4290020F0B54D465F465646FB
:10C370004446F0B491B003931AAB1B8804931BABF3
:10C380001B781D1CAC4605935B0063445B00C3181F
:10C39000002B00DCB0E0EB00CB18002B00DCABE0A6
:10C3A0009A4B1B78002B00D126E193009B180E932B
:10C3B00006230B9300230A936B469B8A9A465746A3
:10C3C00083B20C938BB20F9308339BB206936B46E8
:10C3D00028229B181B785BB2052B00D112E10E9925
:10C3E0008B4A8C466244D25C01920C9A9BB2944672
:10C3F0000D937B4363449BB209931BB29C46059A01
:10C4000007930F9B6244161C9A469B460293019B1E
:10C41000DB0700D47FE0059B012B00D1D4E053461D
:10C420006A465384538C9846079BB34245DA794B4E
:10C4300009981D78784B994617E0032D24D0012DDB
:10C4400061D0434684B200B2002809DB4A4600218D
:10C45000525E824204DD19B23AB2039BFFF728FC18
:10C460000134A0B203B2B34227DA022DE5D152461D
:10C47000694B84B21888694B01381B88001BDB1B91
:10C480009B1A80B29BB2DEE7644B84B218884346A5
:10C490000138001B80B201B20029E1DB5F4A0020B5
:10C4A000125E8A42DCDD18B23AB2039B0134FFF718
:10C4B00017FAA0B203B2B342D7DB019B5B0801932A
:10C4C000029B01339BB21A1C02935B46DB199BB2A1
:10C4D0009B465346DB199BB29A46131E069A93421B
:10C4E00095D10A9B0133DBB20A930B9B013BDBB274
:10C4F0000B93002B00D06AE711B03CBC90469946E4
:10C50000A246AB46F0BD5246434B84B21B88DB1BB0
:10C510009B1A9BB2BFE7039B049A9342CDD0059B25
:10C52000012B5DD05B466A465384538C9846079B2B
:10C53000B342C2DA374B09981D78384B994617E059
:10C54000032D39D0012D22D0434684B200B20028F9
:10C5500009DB314A0021525E824204DD19B23AB24F
:10C56000049BFFF7A5FB0134A0B203B2B342A4DAE7
:10C57000022DE5D1284B84B218884B465A461B88B9
:10C580000138DB1B001B9B1A80B29BB2DEE75A46C8
:10C59000214B84B21B88DB1B9B1A9BB201B2002982
:10C5A000E1DB1E4A0020125E8A42DCDD18B23AB29C
:10C5B000049BFFF795F9D6E7184B84B218884346D9
:10C5C0000138001B80B2E9E70C9A0D9B9446634446
:10C5D00018B26B46039A0821595EFFF755FE6CE7C7
:10C5E0000C9A0D9B9446634418B26B46049A08213A
:10C5F000595EFFF749FE60E7AF2A00D8D5E6013261
:10C60000D2B2D2E600220192EFE6C0463C310020D1
:10C610004C390200E7290020DC290020E429002011
:10C6200030B53B4C85B02378002B64D12378002BA8
:10C6300055D12378002B45D12378002B35D1237891
:10C64000002B26D12378002B16D12378002B11D074
:10C650000123304C304D314A2978201C009301F0E1
:10C66000FBFC0023297800938023201C2C4ADB004C
:10C6700001F0F2FC05B030BD0721002303AA517080
:10C6800025491370097823480093023301F0E4FC34
:10C69000DBE70023204903AA1370537009781D4873
:10C6A0000093023301F0D8FCCCE72221002303AA37
:10C6B000517019491370097816480093023301F03C
:10C6C000CBFCBCE77F21002303AA517012491370F1
:10C6D000097810480093023301F0BEFCACE7002358
:10C6E0000D4903AA1370537009780A480093023366
:10C6F00001F0B2FC9DE72121002303AA51700649F5
:10C700001370097803480093023301F0A5FC8DE70C
:10C71000E029002044390200E6290020EC24002012
:10C72000EC200020802208B502480021D200FEF74C
:10C730006FFD08BDEC20002038B51C4C2478022C7D
:10C7400023D0032C1BD0012C07D0002904DB184C6C
:10C750000025645F8C4225DC38BD164C2488013CE2
:10C76000611A041C09B20029F6DB12480025405F5B
:10C770008842F1DD081C211CFFF79AFAECE70C4C0B
:10C780002488A41A201A04B2EDE7094C2488013C3D
:10C79000611A084C09B22488A41A201A00B2002990
:10C7A000D5DAD9E7FFF79CF8D6E7C046E72900209D
:10C7B000E4290020DC29002038B51C4C2478022C08
:10C7C00023D0032C1BD0012C07D0002804DB184CED
:10C7D0000025645F844225DC38BD154C2488A41AEA
:10C7E000611A041C09B2002CF6DB12480025405FD8
:10C7F000A042F1DD081C211CFFF772F8ECE70D4C9C
:10C800002488013C201A04B2EDE7094C2488013C3D
:10C81000201A084C00B22488A41A611A09B2002810
:10C82000D5DAD9E7FFF744FAD6E7C046E729002072
:10C83000DC290020E4290020F0B55F4656464D462D
:10C840004446F0B48DB01D1C16AB0E1C00215B5E7F
:10C850008146089317AB1F88031C68468380838832
:10C8600092B29A46038C0392181C099353449CB2CB
:10C870000294C403241A6400A4B2A3186A460820D0
:10C88000105E311C834618B280463B1C5846424617
:10C89000ADB2FFF751FFB6B26B1EF31898B201B2FA
:10C8A0000B90424658463B1CFFF746FF099B651913
:10C8B0009C466B466644B0B2019004269E5F2DB242
:10C8C0004846311C2A1C3B1CFFF776FF039A311C9B
:10C8D000524492B2501E04923B1C2A1C00B2FFF735
:10C8E0006BFF012309995B1A9AB208999346A2B289
:10C8F0000A92002900DCF5E0002301989946431EC6
:10C900009BB206933B1C0C1C5F4698469246029ACB
:10C91000013A05923BB2002B08DB534602339BB22F
:10C920009AB29246013CDF1924B2BFB24B466A4626
:10C9300093819589A6B26B000333FF18029B424690
:10C94000981B069B00B2591B09B2FFF79DFC059B83
:10C950004246581B019B00B2991B09B2FFF794FC99
:10C9600001239C4601352DB2BFB2E144AC42D1DC7B
:10C97000049A099B9446DB4347460A9A63449BB258
:10C980009246089A039301339046049300223B1C7D
:10C99000444691465F4698463B0408D453460233CA
:10C9A0009BB29AB29246013CDF1924B2BFB24B4609
:10C9B0006A469383958BA6B26B000333FF18049BE2
:10C9C0004246E818019B00B2991B09B2FFF75CFCD4
:10C9D000039B4246F018069B00B2591B09B2FFF7B1
:10C9E00053FC01239C4601352DB2BFB2E144AC4259
:10C9F000D2DC099A0B9B47469B1A9BB29A460A9B2C
:10CA00005C461A1C089B0794984600239946534697
:10CA100001339BB201933B1C9346271C4446984626
:10CA20003B0408D45B4602339BB29AB29346013C66
:10CA3000DF1924B2BFB24B466A461383158BA6B2E8
:10CA40006B000333FF18049B4246E8185346F11865
:10CA500000B209B2FFF718FC039B42469819019BEC
:10CA600000B2E91809B2FFF70FFC01239C4601351B
:10CA70002DB2BFB2E144AC42D2DC0025079B2F1C93
:10CA80001D1C0A9BC1469B46099B089E98462BB2DB
:10CA9000002B0ADB5B46013E02339BB236B29AB2F0
:10CAA0005D19B3B293469846ADB24246BCB263003C
:10CAB0000333ED18029BADB2981A019B00B2E11846
:10CAC00009B24A46FFF7E0FB4146059B5144181B5B
:10CAD000013400B209B24A4624B2FFF7D5FB013750
:10CAE000A642D4DC0DB03CBC90469946A246AB466B
:10CAF000F0BDC046F0B583B008AC268809AC2578F7
:10CB0000074C0027E45F844208DD064C0027E45F01
:10CB10008C4203DD00960195FFF726FC03B0F0BDC3
:10CB2000DE290020EA290020031C0233DBB2F0B525
:10CB3000454698460E2357464E469946E0B4574F11
:10CB400082B082460E1CB9440D1C4CE0691C640086
:10CB5000C9B2E4B28B1B0E2B56D063B2002B6BDB39
:10CB6000A91C6400C9B2E4B28B1B0E2B4CD063B27B
:10CB7000002B68DBE91C6400C9B2E4B28B1B0E2BEE
:10CB800042D063B2002B65DB291D6400C9B2E4B258
:10CB90008B1B0E2B38D063B2002B62DB691D640047
:10CBA000C9B2E4B28B1B0E2B2ED063B2002B5FDB1D
:10CBB000A91D6400C9B2E4B28B1B0E2B24D063B252
:10CBC000002B5CDBE91D6400C9B2E4B28B1B0E2BA9
:10CBD0001AD0002C5AD10835EDB2AB1B0E2B13D056
:10CBE00001374F4518D03C7863B2002BAEDA43468C
:10CBF00029B218B20122FFF747FB691C6400C9B2D1
:10CC0000E4B28B1B0E2BA8D143460133DBB20137B4
:10CC10009846351C4F45E6D1534618B2012331B230
:10CC2000009301930C220F33FFF706FE02B01CBCE9
:10CC300090469946A246F0BD434609B218B2012279
:10CC4000FFF722FB8CE7434609B218B20122FFF737
:10CC50001BFB8FE7434609B218B20122FFF714FB12
:10CC600092E7434609B218B20122FFF70DFB95E7A0
:10CC7000434609B218B20122FFF706FB98E7434684
:10CC800009B218B20122FFF7FFFA9BE7434609B247
:10CC900018B20122FFF7F8FA9DE7C046583E02009D
:10CCA00010B50378002B0ED10289002A0CD04368FE
:10CCB0005200981800220024195F02335218834250
:10CCC000F9D1024B1A6010BD0022FAE74031002072
:10CCD00008B50548012101F0CBFC002801D000F087
:10CCE0006DFA01F0BFFC08BDF4290020014B186863
:10CCF00080B2704740310020032300B583B001A803
:10CD00000949037001F07CFC002801D000F056FABC
:10CD10001C2206480378934308221343037001F052
:10CD20008FFC03B000BDC046A1CC0100F024002060
:10CD3000A0DF7047A2DF7047A6DF704763DF704750
:10CD400010B5002808D0002906D00B88112B1AD066
:10CD5000502B02D0102B13D010BDCB88028A9A42E0
:10CD600015D082889A421DD0828B9A42F4D1C36A30
:10CD7000002BF1D00C1C12340A8A211C9847EBE7D7
:10CD80008B888384E8E701235B428384E4E70A8A93
:10CD9000022AE6D101238A7C13400CD026230122EB
:10CDA000C254D9E7846A002CDED00B1C12330A8AE5
:10CDB000191CA047D0E726228354CDE7F0B54D4695
:10CDC0005F46444656461023F0B495B0041C0D1C33
:10CDD00004A8E149102299460E2705F044FE002CD4
:10CDE00011D0002D0FD001235B42A3842B680022B9
:10CDF000A3626B6804A8E3622623211CE254FFF7B8
:10CE00009DFF071E07D0381C15B03CBC90469946C4
:10CE1000A246AB46F0BD237802A98B700123A21C69
:10CE200001200B80FFF784FF071EECD100210322B5
:10CE30006846FEF7EDF96B460F221B789246934346
:10CE4000012293465A4613435246134010229046FD
:10CE5000424613436A4613705378524693435A46E8
:10CE6000134352461340424613436A465370937825
:10CE700006229343043A13436A460DAD9370002192
:10CE80001C22281CFEF7C4F942462B7801AE13433E
:10CE90002B706B466A466B612378002193730323E2
:10CEA000301C938103226F60EF602F61AF61FEF74A
:10CEB000AFF952463378002193435A461343524602
:10CEC00013404246134352463370737808A8934385
:10CED0005A46134352461340424613430622737088
:10CEE000B3789343043A1343DBB2063293434A4682
:10CEF00093435A4613431422B370FEF789F903ABE8
:10CF0000089301226B461A8514225F859A85231C9B
:10CF10006088291C08AA0C330996FFF70BFF071E2F
:10CF200000D070E7002103226846FEF771F96B46D6
:10CF300052461B78002193435A46134352461340EE
:10CF4000424613436A4613705378524693435A46F7
:10CF5000134352461340424613436A465370937834
:10CF600006229343043A13436A46281C93701C22FA
:10CF7000FEF74EF942462B78002113432B706B4687
:10CF80006A466B612378301C9373042393810322D8
:10CF90006F60EF602F61AF61FEF73AF95246337868
:10CFA000002193435A4613435246134042461343CB
:10CFB00052463370737808A893435A461343524637
:10CFC00013404246134306227370B3789343043AE6
:10CFD0001343DBB2063293434A4693435A46134304
:10CFE0001422B370FEF714F903AB089301226B46C9
:10CFF0001A8514225F859A85231C6088291C08AA3B
:10D0000014330996FFF796FE071E00D0FBE60021B9
:10D010001C22281CFEF7FCF808222B780021134361
:10D02000043A13436A462B702378301C937302230F
:10D03000938103226F60EF602F616F61AF61FEF734
:10D04000E7F852463378002193435A461343524639
:10D0500013404246134352463370737808A89343F3
:10D060005A461343524613404246134306227370F6
:10D07000B3789343043A1343DBB2063293434A46F0
:10D0800093435A4613431422B370FEF7C1F803AB1F
:10D09000089301226B461A8514225F859A85608861
:10D0A000231D291C08AA0996FFF744FE071E00D07D
:10D0B000A9E600211C22281CFEF7AAF808222B78DA
:10D0C00000211343043A13436A462B702378301C23
:10D0D00093730523938103226F60EF602F616F616B
:10D0E000AF61FEF795F852463378002193435A46D4
:10D0F00013435246134042461343524633707378EB
:10D1000008A893435A4613435246134042461343DA
:10D1100006227370B3789343043A1343DBB20632AA
:10D1200093434A4693435A4613431422B370FEF77F
:10D130006FF803AB089301226B461A8514225F85B2
:10D140009A85231C60881C33291C08AA0996FFF7BE
:10D15000F1FD071C57E6C046683E020070B586B078
:10D160006B46041C0D1CDA8000280AD0828C124BFE
:10D1700008209A4203D02623E35C002B03D106B09B
:10D1800070BD0E20FBE76B46DB880138142BF6D808
:10D1900002AE301C00211022FEF73AF8A389A08CC1
:10D1A00033806B460633B3600123311CF560B370E6
:10D1B000FFF7C2FDE3E7C046FFFF0000002300B514
:10D1C00085B001AA9060002103481380536000F0ED
:10D1D00005F805B000BDC04601400000BFF34F8F09
:10D1E000034A044BDA60BFF34F8FC046FDE7C046E9
:10D1F0000400FA0500ED00E010B500290DD0092368
:10D20000002A01D1181C10BD541E2240FAD18260A0
:10D2100001608480C2600023F4E70E23F2E7C04679
:10D22000031C10B59C888068DA68121A04209442A6
:10D2300000D210BDDA68002014401A681155DA686F
:10D240000132DA60F5E7C04610B58468C268031C95
:10D250000520944209D098689A8802401868825C38
:10D2600000200A709A6801329A6010BD80218023E4
:10D27000184A8902D1508022D221174B52028900CC
:10D280005A5040395A5001222F205A600138C04666
:10D29000C046C046C046C046C046C046C046C0465E
:10D2A000C046C046C046F1D19A6000230B4A2F20E9
:10D2B00013600138C046C046C046C046C046C0469E
:10D2C000C046C046C046C046C046C046F1D1044A2A
:10D2D0001370704700E100E000100140F8290020C1
:10D2E000182A0020A021F0B5002347462B4A490008
:10D2F00080B45350043153500431535004315350CF
:10D300004C39535004315350254B1B68002B35D0FA
:10D310002449002652582449244F0C68141B00222B
:10D320002402240A904602E0002D18D02B1C1A6813
:10D33000A24214D8A41AB6181A7CDD69002AF3D0C8
:10D34000424699691A745A693B68002B19D0101C1F
:10D3500098470028E8D0FFF731FF002DE6D1144BA5
:10D3600014491A780B789A420ED0134A9B009E50AB
:10D3700080218023114A49035B00D15004BC9046B0
:10D38000F0BD081C9047CFE70132D3B2022B01D089
:10D390000B70EAE700230B70E7E7C046001001407E
:10D3A000FC29002004050000F8290020002A0020A4
:10D3B0000C2A00200D2A0020102A002000E100E0A5
:10D3C000F0B55F4656464D464446F0B4B44BB54AB8
:10D3D0001B68B54989B0019309781378994200D147
:10D3E000B1E10133DBB2022B00D100231370AF4A4D
:10D3F0009B009B58AA4A9946019B4B441B021B0A5F
:10D40000136001230493AA4B00241B689B46A94B7D
:10D41000D8461B781A1C0293A74B944607931B68A7
:10D4200003939F4B1B680693A44B1B7805935B46A5
:10D430006646013EF2B29446FF2A4FD06246D000C3
:10D44000039A9246504401784578A942F0D04A00A8
:10D450005218877801314668C9B27F1AB2467E1EDB
:10D46000B741D2007F42524439401778022F0AD088
:10D47000032FEAD1002BE8D01C74DB69002BFBD111
:10D4800045789846E1E75668002B25D09E421AD091
:10D490001F1C00E0171CFA69002AD6D09642F9D169
:10D4A000321C3D1CBE4200D1EBE01768D269EA6134
:10D4B000002A06D013689A465744176045784346B9
:10D4C000C3E74578C1E7DE691A1C002E00D1DDE014
:10D4D000B046331C151CE8E70023B6E76946774AD7
:10D4E000097D181C11706E4A06990393116041461C
:10D4F0006F4A1160049A002A00D028E15B461B1A8B
:10D500005A1E93410025DBB20493079B00271B683A
:10D51000039E0693624B1B689C46654B1B689A46AC
:10D52000664B1B780593664B019301239846029B3B
:10D53000013BDBB20293FF2B00D18FE0069ADB00A8
:10D5400093469B44002D27D06968AB68281CED6981
:10D550006246019C8A1A1202120AA24250D8D318BB
:10D5600042460360476087600274C761002E56D050
:10D570003168341C994204D35FE01168994263D248
:10D58000141CE2695B1A002AF7D10360331CC261E4
:10D59000E0611E1C002DD7D15B465A461B7852789D
:10D5A0009A42C4D0594649685A0089465946D21809
:10D5B0000133DBB20B708978D2004A4499424AD0D9
:10D5C00011785068331C0129E3D1037C9946494600
:10D5D000331C0029DDD191684160D36883601469F0
:10D5E000C46052698261059A002AB1D04A4600217E
:10D5F00042606246019C8A1A1202120AA242AED905
:10D600006246511A0902090A99420CD242465B1A33
:10D610000360476087600274C761002EA8D1031CB5
:10D6200082461E1CB6E74346076047608760037466
:10D63000C761002EF3D000233168CB1A3360031C7E
:10D64000C66182461E1CA5E7C91A11600360C2614B
:10D65000331CE0619DE75B461D70B1E75246144BF9
:10D660001A60039BB3422FD1049B002B2CD10023C3
:10D67000124A137009B03CBC90469946A246AB468C
:10D68000F0BDDE693A1C002E00D021E701250D4BCC
:10D690009D600023069601369846151C059604E702
:10D6A000F82900200C2A00200D2A0020102A002032
:10D6B000FC290020042A0020082A00200E2A00202D
:10D6C000FEFF7F0000100140002E63D0484B494907
:10D6D0003568CC58484B494E1B683078E21A120224
:10D6E000120A03329046002861D04246AA4200D274
:10D6F0002A1CA820D21812023E49130AC0003C4D31
:10D700000B504A591B1B121B1202120A1B02033236
:10D710001B0A9A42ABD94B590B502F200138C046F7
:10D72000C046C046C046C046C046C046C046C046C9
:10D73000C046C046C046F1D180218023304A8902CC
:10D740005B00D15093E70023994604935BE60025E4
:10D75000002100244846464613E01A6882421CD83D
:10D76000DE68801A89181C60DF69002E07D0DD6131
:10D770001D1C019A9E608A181202120A5A603B1CF4
:10D780003E1C002BE9D11F4B1E6000230393013385
:10D790000493BAE6FFF76AFD69E7814619490393E6
:10D7A0000E604946521A1A6001230493ADE68020A8
:10D7B000D1274002BF00C851403FC851C022802736
:10D7C0000F48BF0252008750076001272F200F60CB
:10D7D0000138C046C046C046C046C046C046C046E6
:10D7E000C046C046C046C046C046F1D137707CE74F
:10D7F0000405000000100140F8290020182A00202C
:10D8000000E100E0FC290020F8B54F464646C0B4D0
:10D810000326351C80460F1C141C99461540072012
:10D82000002D03D00CBC90469946F8BD002A44D088
:10D83000FFF71CFD4A46224B80201A60221C214B18
:10D8400018321E70204B62601C607B00DB19DB000D
:10D85000D218E260D318C022636125706570A7708A
:10D8600025726572A77225746574A774C524FF219B
:10D87000164B40031D60164B52001D70154BA40043
:10D880001D70154B98501A598A433F390A431A5153
:10D89000A122186040461149D2008850C42080005F
:10D8A0001C580F4A2240C024240222431A500D4B18
:10D8B0000020CA580C4B1A60B4E7034B1A60B1E75A
:10D8C000002A0020042A0020082A0020FC29002029
:10D8D0000C2A00200D2A002000E100E00010014089
:10D8E000FF00FFFF04050000F829002010B50B4BD6
:10D8F0001B68002B0BD0002A07D0002805D0036836
:10D9000008201C7C002C04D010BD0720FCE7082058
:10D91000FAE759745A610020F6E7C046082A002049
:10D92000F0B5474680B4374B1C68002C08D000285F
:10D9300006D00723042905D8181C04BC9046F0BD66
:10D940000823F9E74369002BFAD00025437CA84659
:10D95000012B2FD0EFF30583DB05DB0D1025002B0A
:10D960002CD164196378A5785E1CF6B2AD1B6F1ECE
:10D97000BD416D422E402578B5421DD05D00EB18AB
:10D980006568DB00ED180423002DD5D0033B2B7018
:10D9900068601D4B1D48C358E960AB604346802159
:10D9A0002B6180236A611A4A5B0049036670D1507B
:10D9B0000023C1E78846CDE70423BDE7103BDEB274
:10D9C00075B2002D13DBAD08114EC035AD00AD5959
:10D9D00003263340DB00DD402B069B0FDBB2002526
:10D9E000012BBED00835032BBBD00835B9E70F2378
:10D9F000084D3340AC46083B9B089B0063445D6880
:10DA00000323E6E7082A0020040500000010014077
:10DA100000E100E018ED00E030B52E4A031C12686A
:10DA20000820002A2ED0002B2CD05969002929D09B
:10DA300000211974EFF30581C905C90D10250029CE
:10DA400023D155196A78A978541CE4B2091B481EE1
:10DA5000814149420C402978A14214D051008A18D2
:10DA60006968D2008C4662440420002A0AD0022150
:10DA700053601170802380210020174A49035B0006
:10DA80006C70D15030BD0420FCE71039CCB260B2CC
:10DA9000002813DB8008104CC0308000005903249C
:10DAA0002140C900C8400106890FC9B200250129DB
:10DAB000C7D008350329C4D00835C2E70F2107486D
:10DAC0002140844608398908890061444868032157
:10DAD000E6E7C046082A002000E100E018ED00E07B
:10DAE000002804D0034B5B6D0360002070470320C7
:10DAF000FCE7C0461C2A002070B5161C0C1C8D18B3
:10DB0000002A05DD2078013400F0DEF8AC42F9D1BE
:10DB1000301C70BD10B50C1C201C00F0BBF8052893
:10DB2000FAD0012010BDC04630B5047885B0012C74
:10DB300019D0022C34D0002C01D005B030BD274CB8
:10DB4000274D201C291CFFF77FFB002823D0A2684B
:10DB5000E3689A42F1D1032302AA1370214B101CEF
:10DB60001B689847E9E743681F4D1978281CFFF7A1
:10DB700057FB002822D1AA68EB689B1A012B25D0FD
:10DB8000A968AA88EB685B1A9A42D6D30121174884
:10DB900001F0B4F8D1E7281C012101F04DF8D6E7D7
:10DBA00002AB1C70C368012110480193039301F07C
:10DBB000A5F80C4B02A81B689847BEE702AB1C7087
:10DBC000084B03901B6802A89847D9E702AB18706E
:10DBD000044B02A81B689847D2E7C046802A002061
:10DBE000742A0020782A0020902A00207C2A002015
:10DBF000F0B51E1C214B051C89B00C1C1A600720B7
:10DC0000002906D08A881E480968FFF7F5FA00281F
:10DC100001D009B0F0BDA168A2891A48FFF7ECFA5B
:10DC20000028F6D16A46184B684692CB92C292CB36
:10DC300092C212CB12C2AB6806932B7906775A1E9A
:10DC4000934103756B790E22591E8B415B421A403A
:10DC50004275EB780D490293AB7803932B780193CF
:10DC60006B78009300F058FF0028D2D101F0DEF865
:10DC70000121074801F042F8CBE7C046782A00208E
:10DC8000902A0020802A0020783E020029DB010033
:10DC90007C2A002038B50A4C051CA168A288E368DC
:10DCA0005B1A9A4204D0201C291CFFF7CDFA38BD1C
:10DCB0000448012101F022F80028F4D00520F6E7FD
:10DCC000902A00207C2A002070B50D4D011C281CD4
:10DCD000FFF7A6FA041E01D0201C70BD01F006F863
:10DCE0000028F9D1074E281C311CFFF7ADFA002897
:10DCF000F2D1301C012100F09FFF041CECE7C0466C
:10DD0000802A0020742A002082B00190019B002B01
:10DD100014D0019B0A48013B01930138C046C0461C
:10DD2000C046C046C046C046C046C046C046C046C3
:10DD3000C046C046F1D1019B002BEAD102B070472A
:10DD4000E7030000F0B54D4644465F465646F0B442
:10DD500009AC25880AAC2478A4460C78002C17D18D
:10DD60001688B046922676008759B346002F20D0F9
:10DD7000331C243BFF3B845143610B70A8450FD0FB
:10DD80000124201C3CBC90469946A246AB46F0BDFF
:10DD90009222002352008350083A8350143A835051
:10DDA00082235B00C258002AEAD000220024C2501D
:10DDB000E7E78E267600B1468659B246002E0BD094
:10DDC0004E4687515E468659002E23D05B46C7508B
:10DDD000012343610B70D1E7842464000759002FAD
:10DDE000CCD0564606515C460459002C22D11188ED
:10DDF0008D42C3D9A324E40004595C541388013331
:10DE00009BB213806A1E93421DD09D42B6D001235F
:10DE10000362B3E711888D4205D86346002B0FD00B
:10DE20000123C361ADE7595C094BC150138801332D
:10DE30001380A3E701235A46865043610B709DE788
:10DE4000012343619AE7802302229B00C250DEE750
:10DE50001C050000F8B544465F464D465646F0B4F2
:10DE60000479844660006D4F80460019000138181F
:10DE70002030C5790820002D05D03CBC904699463D
:10DE8000A246AB46F8BD002900D1C3E040460019C8
:10DE900000013A503A18536000239360283293707F
:10DEA0005370A0230A685E48C132FF32DB0592003E
:10DEB000D0504A68C132FF329200D0500120051C78
:10DEC0000A689540A122D2009D504D68A840985004
:10DED0000868544DC130FF308000C5504868C130DB
:10DEE000FF308000C55004200138C046C046C046FF
:10DEF000C046C046C046C046C046C046C046C046F2
:10DF0000C046F1D1A220C000824647480026012524
:10DF100083469146524648689A58C240154200D0FE
:10DF200075E02A1C0868824058461A5004200138BF
:10DF3000C046C046C046C046C046C046C046C046B1
:10DF4000C046C046C046C046F1D12A1C086882407F
:10DF500048461A5004200138C046C046C046C04654
:10DF6000C046C046C046C046C046C046C046C04681
:10DF7000F1D10136092ECDD1486801231A1C824007
:10DF8000101CA022284DD205505104200138C04653
:10DF9000C046C046C046C046C046C046C046C04651
:10DFA000C046C046C046F1D148688340A120C000A9
:10DFB0001350A0220B681A48C133FF33D2059B00CF
:10DFC00098504B68C133FF339B0098506346A122A1
:10DFD0001B680D68D20048689D50134A98508868A5
:10DFE000124A985043461B191B01FB58002B06D0C0
:10DFF00063461868097B000B40B200F0F9FB01236F
:10E00000444424013F192037FB71002035E7002EDE
:10E01000B3D1CEE706482101411837E7A02A0020F6
:10E020000C0600000D0600000C0500002405000091
:10E03000983E0200A022037901680520D200885092
:10E040005A00D318034A1B01D31802222033DA7175
:10E050007047C046A02A0020F0B544464D465F46B2
:10E060005646F0B48BB0019314AB90461A78002357
:10E0700006AC894606936360A360E360002A25D15D
:10E080009C46059303930279C223111C049201223A
:10E0900005689B005242EA504B0058189B46824B41
:10E0A00000019A465044031C283302935E78F6B26E
:10E0B000002E11D0C123826811209B00EA500BB0C2
:10E0C0003CBC90469946A246AB46F0BD0123059361
:10E0D00003931F339C46D6E701225A70924662464C
:10E0E000C2614A466270424608920C2294466B46D0
:10E0F00084446246998861808ACC8AC2246814600C
:10E100004246041C02622034B122231C4C46D20039
:10E11000AC50822464002E516A4620342E51083CB3
:10E120002E51143C2E51F8342E510024019F127BA5
:10E130009F809A71029B9E801C7053462B62AB603D
:10E14000838D9F4223D8059B002B28D05346EB613B
:10E15000049A5B469446544A63441B01D258002AF1
:10E1600020D0514A51499446634499609968C1232B
:10E1700000209B00E950049B5B441F014A4BDB5984
:10E18000002B9CD1484AD2192832537097E7424657
:10E19000D45C474BEC50838D01338385D8E75346DD
:10E1A0006B61D5E79A46404B92249C46019BE24422
:10E1B00000269C46049F64005346283318780028A4
:10E1C0002BD19A882959914600292DD18E225200AF
:10E1D000A85800282DD0A9502859002847D02951E7
:10E1E000012169611970CC45E6D182235B00EB58AF
:10E1F000002BE1D0822300213A1C5B000497E950F8
:10E2000094465B46284A634494461B016344283382
:10E210001B78002B3ED00320ADE78E235B002E51F0
:10E22000EE50143BEE50E0E701212851696119706E
:10E23000D9E784225200A9580029D4D0A8502959DE
:10E240000029F1D1CC45CED9A322D200A958484605
:10E25000424611549988013189B299806346013B45
:10E2600099421CD08C45BED001232B62BBE7CC4524
:10E2700008D942464946505C4A460D496850511CEF
:10E280009980B0E7059B002B06D001230497EB6132
:10E290003A1CB5E700206EE701236B61A3E78023FA
:10E2A00002219B00E950DFE7A02A0020860200003F
:10E2B0001C050000F0B544465F4656464D46F0B496
:10E2C000C14B28211A6A585C944626229A5C8BB06E
:10E2D0009C8C9046002814D19225BC4A6D0056595A
:10E2E0009F8DAA46002E39D05051012050615854BC
:10E2F000BC420FD00BB03CBC90469946A246AB4600
:10E30000F0BD92200021B14A400011500838115050
:10E31000143811508222AD49520088580028E9D0A3
:10E32000002088502820195C002928D11E7BB21EAD
:10E33000012A5AD9191C06AA0C3170C970C2096881
:10E3400005A8116000220270292200219954DA697F
:10E350005207CFD459681B689847CBE78E204000FE
:10E360001558A946002D20D01650504610580028A8
:10E370006ED050461650012050615854B8E7191C11
:10E3800006AA0C3170C970C20968904C116090499E
:10E3900005A8625862500221114203D15207D3D519
:10E3A0000170D1E701220270CEE7842040001658A8
:10E3B000002E9DD04D46155050461058002856D17D
:10E3C000BC4295D9A3216046C9005158C155998DC9
:10E3D000601E013189B2998581424ED08C4200D1B4
:10E3E00086E70121794A116282E71A6A5C69A242D2
:10E3F000A0D101279A691C8A91461A62DA699C8425
:10E4000052093A40934626225D469D54032E39D048
:10E4100082266E4A7600915120369151083E9151E4
:10E42000143E9151998500211954012C4BD0802123
:10E43000890057500121654A11621160196800294D
:10E4400046D0644999609968C1239B00D15051E737
:10E45000BC4205D8414600290CD00121D16161E7B9
:10E460006146C85D5C4950507A1C9A8540E7484631
:10E47000554639E7012151613AE7802102208900A0
:10E480005050AEE7514EDE32B1502032B150083A12
:10E49000B150143AB150F832B150998519543762DD
:10E4A000B760002C25D04A464B49107870509F85A4
:10E4B0001A68002A24D0474A9A609968C123434ABF
:10E4C0009B00D15016E78021022089005050B1E70F
:10E4D0001F1C2C331E1C4D4628370023009401932B
:10E4E0003A48391C321C2B1CFFF72CFC0028F4D1B5
:10E4F00000E75A46002A01D0F761D9E77761D7E7EC
:10E5000092200132CA46282700269046A1462F496C
:10E510004000DA5D002A21D10D589C8D002D2FD1AD
:10E520008E22520094468A580392002A1DD06246D9
:10E530008D500A58002A29D042460D504A61424661
:10E54000DA55A145E5D18222520094468A58002A24
:10E55000DFD0002261461D4B5A50CBE68E2252007E
:10E560000E508E50143A8E50EDE784256D004A59B6
:10E57000002AE6D0039A4A510D58002D0FD0039A75
:10E580000A5042464A614246DA55DAE7A14525D9A2
:10E590005246155D104A8D50621C9A85D1E7A145FF
:10E5A000CFD9A3225546D2008A582A554D469A8D76
:10E5B000013D013292B29A85AA4219D09145C0D04C
:10E5C00042460A62BDE7C046A02A00200040004043
:10E5D000C4040000860200001C0500005A46002A00
:10E5E00003D00122054BDA6184E642464A61A8E77E
:10E5F0008022022592008D50E2E7C0460040004094
:10E6000038B50C4C0D1CA27C0823002A01D0181C24
:10E6100038BD094B1A60002905D0002808D00178C0
:10E62000072000F0E5F801232560A3740023EEE73E
:10E630000248F4E7D02A002000710040A83E020002
:10E6400000234360064B5A68002A01D105E01A1CDA
:10E650005368002BFBD1506070475860FCE7C04600
:10E66000D02A00200122014B1A6070470070004040
:10E67000F0B544465F4656464D46F0B42D4C112346
:10E68000A27C022A18D00F3BA3740023E060A020D4
:10E6900062682174A26028491268284E63748A5106
:10E6A000274AC000136001330B502568002D0AD0A3
:10E6B000C12292008B500023181C3CBC9046994606
:10E6C000A246AB46F0BDA123DB00904683469C46A4
:10E6D000B1461368002BFCD043461D605B4666467E
:10E6E000CD508E59637CB2465046E7685E00F053C9
:10E6F0000133267CDBB263749E4216D9A3685B6843
:10E70000002B09D04846A3601B680B505B460120D4
:10E71000C85001230B60DCE748466368A3601B68B0
:10E720000B505B460120C850D3E70123A37400239C
:10E73000C2E7C046D02A0020007000400405000057
:10E7400000710040F0B5264A85B0D468002C33D063
:10E75000A0200025A126234B2349C0001D600D5099
:10E76000537CF6008F595E0037530133167CDBB2C1
:10E770005374B3420CD293685B68002B14D093603F
:10E780001A681A4BCA5001230B500B6005B0F0BD3C
:10E79000C220012380000B5001A8937405704460CF
:10E7A000068113689847F1E7536893601A680F4B26
:10E7B000CA5001230B50E9E70A4BC2201C60012319
:10E7C000094980000B50F930FF300C50A12401A8FA
:10E7D0000370E40009599374818013689847D5E762
:10E7E000D02A0020007100400070004004050000A5
:10E7F000F0B5002820DBFF271B4B03229C463B1C67
:10E800008408C026C0B20240D2009340A4006444F1
:10E81000B600A5599D438B013B409340191C2943E9
:10E82000A1511F2318401E3B8340C022181C0E4BD1
:10E83000520098501860F0BDFF260C4A03249446FD
:10E84000321C0F23C0B20440E400A2400340083B46
:10E850009B089B006344DD6995438A013240A240D6
:10E86000111C2943D961DCE700E100E000ED00E084
:10E87000F0B544465F4656464D46F0B49C4A87B0D4
:10E8800013680024012B00D1AEE09A4B1A68012ACC
:10E8900000D1B7E0984B1A68012A00D1C2E0974B2B
:10E8A0001A68012A00D1CDE00022954B02921A6825
:10E8B000012A00D1D8E023070BD0E30700D5DFE021
:10E8C000A30700D5EBE0630700D5F6E0230700D5EA
:10E8D00002E1002C06DB07B03CBC90469946A246FC
:10E8E000AB46F0BD002301270493C03399460126AF
:10E8F000844D7F4200230393E023DB0000249846ED
:10E90000231C4033E95C4BB201332CD0C9B24B46D7
:10E91000081C98433B1CC3401E4224D08B09019322
:10E920002B1820331B785BB29B00EB589C46002BC6
:10E9300035D0331C83409A46019B032B35D0A0234E
:10E94000DB059B46434682005A44D3580592C022B9
:10E95000920213401B0C191C53469346029A1A420A
:10E9600012D1032926D00134042CC9D1039B002BDA
:10E97000B1D0A223A022DB00D205D358029A9A423A
:10E98000A9D0049F0293B5E70229ECD1019B032B88
:10E9900016D06346002BE6D00199E047E3E7019BE0
:10E9A000032BE0D1331C83409A465246049B134309
:10E9B0000493C4E7019B032BEBD180239B029B466E
:10E9C00043460599CB589A4652464F4B1340424610
:10E9D0008B508B585A461A43131C42468B50039B4C
:10E9E0000133DBB20393D4E7C12148488900415881
:10E9F0000B4200D149E73F4B14601A680134012AE9
:10EA000000D047E7C12241499200895802220A42B8
:10EA100000D13FE700211960374B14431A68012ADF
:10EA200000D03CE7C12239499200895804220A42A9
:10EA300000D134E700211960304B14431A68012AD1
:10EA400000D031E7C12231499200895808220A4298
:10EA500000D129E70021144300221960284B0292BB
:10EA60001A68012A00D026E700221A6080231B06BC
:10EA70001C43A022A223D205DB00D35802931AE73D
:10EA8000A223224ADB00D058D1581E4DC00489036E
:10EA90002B68C00E890F9847A30700D413E71C4BBF
:10EAA0001A4A184DD058D158C00489036B68C00E5B
:10EAB000890F9847630700D408E7A323134ADB00B4
:10EAC000D058D1580F4DC0048903AB68C00E890FD0
:10EAD0009847230700D4FCE60C4A0E4B094DD0584A
:10EAE000D158C0048903C00E890FEB689847F0E63F
:10EAF0000061004004610040086100400C6100407A
:10EB00007C610040E42A0020FFFFFCFF0060004021
:10EB1000140500001C050000F0B557464E4645465A
:10EB2000E0B43B4C031CE27E0820002A04D01CBC4D
:10EB300090469946A246F0BD002B67D00122186886
:10EB4000A1258240A020ED00C0054251A946032521
:10EB50001A68AA46C132FF329200155000255A6841
:10EB6000AC46C132FF32920015509F69294A2A4DA6
:10EB700057511D7DA84647465D7D3D43274FD551E2
:10EB80005D681F68A846264D57514746254D575189
:10EB90001D7D012D19D19F683E1CE0277F00B846DE
:10EBA0004644B70066463E50DE68B5404E46855145
:10EBB0005646DD68C135FF35AD002E504E46D8684B
:10EBC0009D689051A220C00015501A6961602260B2
:10EBD00000290DD0197F0023134A14481360144AEA
:10EBE0001360C1230B4A9B00D0500220FFF700FEA8
:10EBF000A0230421074ADB00D15000230122E37542
:10EC00002376A375E276A376002090E7094B95E77B
:10EC10002C2B002000200040240500006C05000083
:10EC20000C050000140500001C21004080000200BB
:10EC300044210040AC3E0200F0B5264A041C937DFE
:10EC40001120002B00D0F0BD0125917522482349E9
:10EC5000938294600B6005600B60938AE05C938AFA
:10EC60001F4C01339BB293821E4BE050506800282A
:10EC700001D00020E7E70027261C1D1C0130FF30D3
:10EC8000947D938AA34203D312E0938A834202D0F5
:10EC90000B68002BF9D0938A8342F2D00F60938ADD
:10ECA0009468E45C938A01339BB293827451E7E7E2
:10ECB0008023918A5B0099420AD008490B68002B97
:10ECC000FCD001210020084B196000239375BAE79E
:10ECD0000F20FAE72C2B0020082000401C210040C8
:10ECE000002000401C0500000C200040024B987DD5
:10ECF000431E9841C0B270472C2B0020F0B5474608
:10ED000080B4444B5A68002A05D08126C224424D63
:10ED1000B600A4002E51DC7D002C0DD01C7E002CF2
:10ED20001DD0002A00D16EE08121C1233A4A89001A
:10ED30009B00D15011200FE0D975997ED8605C7688
:10ED40001C7600292BD0002A0DD08121C123002060
:10ED5000314A89009B00D15004BC9046F0BD186137
:10ED60001976002AF1D12D4C2D4D22602A4A2D48CA
:10ED70009046A322D2009446296806684A1E914113
:10ED80002268C9B2571EBA41D2B2002E10D1002A51
:10ED900027D10029F0D000220320DA75DCE7204AD1
:10EDA0001160204A116001211B4A11605A68CAE7AC
:10EDB0000029F0D1002A16D1D97D002917D1016090
:10EDC000624641468A585A7ED97D9142D4D8002263
:10EDD000DA759B7E002B18D001220F4B00201A60A1
:10EDE000BAE70029D7D100220F20DA75B4E74646EA
:10EDF000614602605A7E7158DE68B1545A7E013213
:10EE0000D2B25A76DFE71120A6E70122064B002096
:10EE10001A60A1E72C2B0020002000404421004074
:10EE2000242100400821004004200040064A937E2F
:10EE3000002B07D105490B6005490B6005490133DB
:10EE40000B6093767047C0462C2B00202421004095
:10EE50000821004000200040C12210B5604B920004
:10EE60009A5884B092054DD55E4A1168002949D060
:10EE7000002111608121C2228900920099505A4BD1
:10EE80009A7E002A02D10121584A11600222694665
:10EE90000A7090215248C900425842506946039274
:10EEA000DA7D68460A72DA68196801920022DA751A
:10EEB0001A765B6898474E4A1368002B10D04A4B6D
:10EEC000988A997D81424FD9002111609A8A996868
:10EED000895C9A8A013292B29A82464B404AD1505A
:10EEE000454B1A68002A0BD000221A603E4B9A7ECE
:10EEF000002A02D001213A4A1160DA7D002A42D16B
:10EF000004B010BDC123364A9B00D3585B07D2D54D
:10EF10003A490B68002BCED0334BD87D00283FD127
:10EF20000860A321C90052585A7ED97D9142C2D1AE
:10EF30001A7E002A41D19A7E002A02D101212B4A51
:10EF400011608120C2222649800092008850002250
:10EF500068460121DA755A7E01700272DA68196812
:10EF600001925B689847A6E7002010600029B7D09F
:10EF70006A46107011729A689875196801925B68F8
:10EF800068469847ACE7002268460121DA755A7E48
:10EF900001700272DA68196801925B689847AFE7FE
:10EFA00000200860A320C000597E1258D86842543F
:10EFB0005A7E0132D2B25A76B6E7DA751A69D96842
:10EFC000DA6000226C46587E1A765A760132207238
:10EFD00001912270196868465B6898476BE7C046E4
:10EFE00000200040242100402C2B00200420004061
:10EFF0001C2100401C050000442100400821004065
:10F0000029DF704728DF704730B583B0002806D06D
:10F01000112806D108230F4A11680B43136003B06F
:10F0200030BD021C0C4801788B005B189B00C51892
:10F03000281CE9686B694C0064182979074DA40005
:10F040002D680C300095064D6459A0470422054BED
:10F050001A70E4E7C82D0020482B0020D42D002092
:10F06000AC2D0020CD2D0020F0B55F464D46444626
:10F070005646F0B45E4F85B03C785E4D012C00D111
:10F0800088E0002C00D16DE0022C16D0032C0DD1AD
:10F09000594B1868FFF7B6FF021E07D0112800D0A1
:10F0A00080E00823554A11680B43136005B03CBC4F
:10F0B00090469946A246AB46F0BD504B99461B6818
:10F0C00003932B789E00F3189B00EE183369984643
:10F0D00080235B05196940460904090C9B4603F02F
:10F0E00031FB454B824618605B4619694346581E02
:10F0F000F3880904C018090C03F024FB82454CD0A6
:10F100000323039C9C434B461C603D4B1B68002B18
:10F1100002D10233234262D000223A4B1A703A4B9A
:10F120005869431C54D080235B0519690904090CF4
:10F1300003F008FB031C80225205106911690004CA
:10F14000013B000C09045843090C03F0FBFAFFF7DC
:10F1500059FF021EAAD0112824D108231C434B4674
:10F160001C60A3E7294B1C60294B1C606B78002BAB
:10F170009CD02B789A00D3189B00ED18EA88254B79
:10F180001A602B79032B27D0042B25D0012B00D01C
:10F190008CE73B7000F052F988E70123039A9A4309
:10F1A0001443B0E72B789800C01880002E18301C4C
:10F1B000184DF3682D685C00E41831797369009587
:10F1C000154DA4000C306459A04704233B706DE733
:10F1D00080235B055B69AEE700F020F866E7094A2B
:10F1E00050461370FFF70EFFFFF70EFF5EE7C046B5
:10F1F000CD2D0020482B0020E02D0020C82D002020
:10F20000DC2D0020CC2D002000100010D82D002077
:10F21000A42D0020D42D0020AC2D0020F0B55F4699
:10F2200056464D464446F0B45B4B5C481A788027FE
:10F2300091008A1892009B18DD681E696A005219B5
:10F240009200821814895089526860438046904425
:10F25000DA881B89141C9946514B92469B46002321
:10F260005A467F05396983B009044C441360090C80
:10F27000301CA41903F0ECFA002924D13B699BB29D
:10F280009A4537D044456CD0032D33D0301C3969B2
:10F29000484489B203F0DCFA424B890819603969A5
:10F2A000201C0904090C03F0D3FA002932D10222F0
:10F2B0003D4B1A70FFF7D8FE03B03CBC9046994610
:10F2C000A246AB46F0BD032D14D0301C396948442A
:10F2D0000904090C03F0BCFA324B8908196039693A
:10F2E0004445E4D00904090C201C03F0B1FA0029BC
:10F2F000DDD00FE080235B051969301C0904090C7F
:10F3000003F020FA0322294B1860274B1A70FFF7ED
:10F31000ABFED1E780256D0529692B696A469946C0
:10F320004346D380D08889B203F00CFA6A464B4634
:10F33000A6B2D380071CD188301C03F003FABFB2F9
:10F3400080B287421DD02C692969301C89B203F034
:10F350007FFA5B462404240C89B2641AA4081C605A
:10F36000A5E74B46002BC5D0032DC3D0301C39690F
:10F37000484489B203F06CFA0A4B890819603B696A
:10F3800095E7434624041B041A0C240C131B5A460D
:10F390009B0813608BE7C046482B0020AC2D002053
:10F3A000A82D0020DC2D0020CD2D0020E02D0020F8
:10F3B000F8B546464F46C0B41D4D08AC24886E785B
:10F3C000A44604241E2E2DD02C78A046A4191D2C52
:10F3D00000DD1E3C14277C432C196261221C207125
:10F3E0000C32B94681C981C2E3806346238100247F
:10F3F000104B01361A786E70A24213D142464F4626
:10F400005743ED190C4AE98811602A79032A07D07D
:10F41000042A05D0012A05D11A70FFF725FE01E064
:10F42000FFF7FCFE201C0CBC90469946F8BDC04678
:10F43000482B0020CD2D0020D42D0020F0B58027B2
:10F44000404D7F052C783969A60033199B00EB18D5
:10F45000DA8889B283B08A4218D8196918898C462B
:10F46000920860445969FFF7CBFD021E06D01128AF
:10F470002DD10823344A11680B4313603419A400BA
:10F480002C19E288314B1A6003B0F0BD1969386954
:10F490008C460004000C121A18893C6959696044B2
:10F4A00080188918A2B29208FFF7AAFD021E06D0A2
:10F4B000112827D10823244A11680B4313608023A5
:10F4C0005B051B69214A1B041B0C1360DCE72B78CE
:10F4D0009800C01880002918CB68081C5F00FF182E
:10F4E0000B79BF009C464B6919490C3009680091A3
:10F4F00018497F586146B8470422174B1A70FFF726
:10F50000B3FDBBE72B789800C01880002E18301C84
:10F510000F4DF3682D685C003179E418736900952C
:10F520000C4DA4000C306459A04704220A4B1A70F9
:10F53000FFF79AFD80235B051B69044A1B041B0C23
:10F540001360A1E7482B0020C82D0020A42D002027
:10F55000D42D0020AC2D0020CD2D0020972292002C
:10F5600008B594460023002202201F490B704B70FF
:10F570000B1D61441A705A809860DA601A619A8093
:10F5800014338B42F6D10022184B1A80184B58695D
:10F59000431C25D080235B0519690904090C03F07D
:10F5A000D1F880235B051B6903381B041B0C5843EF
:10F5B000104B0021186000230F4A002013600F4AEF
:10F5C000136013815381D3609382D3820C4A1170EC
:10F5D0000C4A13600C4A136004220C4B1A6008BDDD
:10F5E00080235B055869DCE7482B0020C42D0020F0
:10F5F00000100010D02D0020E02D0020AC2D0020A8
:10F60000CD2D0020D82D0020A42D0020C82D0020B5
:10F61000F0B557464E464546E0B4344B1A680823C9
:10F62000520705D4181C1CBC90469946A246F0BD52
:10F63000002857D0002955D00368002B52D08027CE
:10F640007F053A69868892B207239642EAD80F2E40
:10F65000E8D9C288002AE5D0254B724399461B6839
:10F66000041C9846234B424458690D1C9246431C87
:10F670003AD039690904090C03F064F88022520574
:10F68000136901381B041B0C584307238245C9D852
:10F69000B107C7D1184F033B3E88022EC2D0434664
:10F6A0006B600C232E604546734314480136C11825
:10F6B0004D6025681D50A5880D81E088488168430C
:10F6C000136911699BB21469C018013889B2A4B2D8
:10F6D00003F0C8F8231C4A464343434413603E806A
:10F6E00000239FE70E239DE77869C7E7C82D002018
:10F6F000D02D002000100010C42D0020AC2D0020C3
:10F70000F0B5134B1C680823640701D4181CF0BD26
:10F7100000281BD0002A19D00468013B012CF5D821
:10F7200065000C4E2D19AD00AF59002FEED07519A4
:10F730002E8940687143091868896D6870434019C3
:10F740008142E3D2146051600023DFE70E23DDE73E
:10F75000C82D0020AC2D0020F0B5474680B4204CC9
:10F76000051C246882B00820640703D402B004BCDE
:10F770009046F0BD002930D0002D2ED02C680138E5
:10F78000012CF3D867003C19164EA400A759002F8E
:10F79000ECD06F683419BC4626896789B046774338
:10F7A0006668BC19A445E1D2002ADFD09045DDD3BC
:10F7B000D418A045DADB09308C07D7D103242342C3
:10F7C000D4D166462642D1D1181C131C00900A1CC5
:10F7D0000120291CFFF7ECFDC8E70E20C6E7C04654
:10F7E000C82D0020AC2D0020F0B5474680B4204C39
:10F7F000051C246882B00820640703D402B004BC4E
:10F800009046F0BD002930D0002D2ED02C68013854
:10F81000012CF3D867003C19164EA400A759002FFD
:10F82000ECD06F683419BC4626896789B0467743A7
:10F830006668BC19A445E1D2002ADFD09045DDD32B
:10F84000D418A045DADB09308C07D7D10324234232
:10F85000D4D166462642D1D1181C131C00900A1C34
:10F860000420291CFFF7A4FDC8E70E20C6E7C04608
:10F87000C82D0020AC2D0020F0B5454657464E4619
:10F88000E0B4284C051C246882B00820640705D425
:10F8900002B01CBC90469946A246F0BD00293FD05C
:10F8A000002D3DD00C680138012CF1D867001E4EA8
:10F8B0003C19A400B2463659002EE9D04E68544493
:10F8C0006789B4462689B1467E436768B0463C1CCA
:10F8D0004444A445DCD2002ADAD09145D8D3D418C8
:10F8E000A145D5DB0930AC07D2D103242342CFD1C7
:10F8F00066463440CCD188466344191C281C171C2A
:10F9000003F0B1F842460C23126800975343524665
:10F910004046D6580221221C2B1CB047201CB7E7BA
:10F920000E20B5E7C82D0020AC2D0020F0B54F46C5
:10F930004646C0B4224B83B01B6808245B0705D43D
:10F94000201C03B00CBC90469946F0BD002834D072
:10F950000368013C012BF3D85D00EB18194A9B00AA
:10F960009D58002DECD0D3181F895D895A687D43BE
:10F970004668AD18AE42E3D20934B307E0D18846F9
:10F980008146391CB01A02F063FF093C0029D7D127
:10F990004046391C02F05CFF89B20029D0D14346B1
:10F9A000002BCDD04644B542CAD30022032000929A
:10F9B0004946FFF7FDFC041CC2E70E24C0E7C04621
:10F9C000C82D0020AC2D0020074B1A6808235207D1
:10F9D00001D4181C7047002804D0044B5B780360E6
:10F9E0000023F6E70E23F4E7C82D0020482B002063
:10F9F00070B5DB4B041C1B680020DB0700D470BD16
:10FA0000172CFCD8D74AA300D3589F46A022D64B28
:10FA1000D205D1588023DB031C1CA1208C430B4052
:10FA2000D249C00014505350D14B00221B68D1481A
:10FA30009900C918FDF774FFE1E7A022CA4BD2056F
:10FA4000D1588023DB031C1CA1208C430B40C749E9
:10FA5000C00014505350C64B00221968C548FDF72A
:10FA60005FFFCCE7C44D281CFDF7D6FF11231C1BFC
:10FA700000D14CE1002800D049E18023BF4E1B0497
:10FA80003360012C10D0C8306421604302F05AFE6C
:10FA9000B74B00221B684343281C191CFDF740FF8D
:10FAA000F02332685B041340A022B049D2055350C2
:10FAB000A1230021DB00D150A1E7A023F021A12246
:10FAC000DB054904D20099500021A84A0020995032
:10FAD0001222AB4B1A7092E7A023A122E021DB0592
:10FAE000D2004904802499500021A048A403195051
:10FAF0001C5099501322A24B00201A707FE7A023BC
:10FB0000F0219A4ADB05490499500021043A9950A2
:10FB10009B4B00201C7072E7984BA1211A68F023C0
:10FB20005B049343A022C900D205535000238F49A0
:10FB300000205350924A137061E7904BA1211A683C
:10FB4000E0235B049343A0220026F025D205C900E0
:10FB500086485350844B1650D3586D046B40802513
:10FB6000AD032B4000D1E9E055501650022C00D1D6
:10FB7000F1E02821824B1C707D4B00221B687D48E0
:10FB80005943FDF7CDFE3AE7A023F021774ADB0584
:10FB9000490499500021043A99500C22784B0020D6
:10FBA0001A702CE7A023A122D021DB05D200490442
:10FBB0008024995000216D48E40319501C5099503D
:10FBC00014226F4B00201A7019E76C4BA1211A68A0
:10FBD000E0235B049343A0220025F024D205C90052
:10FBE00062485350604B1550D358640463408024DE
:10FBF000A403234000D199E054501550082103225A
:10FC00001AE05E4BA1211A68E0235B049343A02213
:10FC10000025F024D205C90054485350524B1550CA
:10FC2000D358640463408024A403234000D18BE0B4
:10FC30005450282115500422514B1A709CE7E022A1
:10FC40004E4B52041B68A1219A43A023C900DB0537
:10FC500080245A5000224548A4031A501C505A5080
:10FC6000474B07321A700020C9E6A023A122C02109
:10FC7000DB05D2004904C024995000213B48E4032D
:10FC800019501C50995015223D4B00201A70B6E6B1
:10FC90003A4BA1211A68E0235B049343A02200257C
:10FCA000F024D205C900314853502F4B1550D3587A
:10FCB000640463408024A40323403CD05450155076
:10FCC00005222F4B2B481A70294B00221968490036
:10FCD000FDF726FE93E6294BA1211A68E0235B0479
:10FCE0009343A0220025F024D205C9001F48535099
:10FCF0001D4B1550D358640463408024A403234053
:10FD000026D05450155006221D4B1A70A3E6F0233E
:10FD10001A4A5B041168A1240B40A021E400C90524
:10FD20000B510023114C0B51136068E614505350D3
:10FD30000221032280E714505350C1E7155053505D
:10FD4000022C0AD0042115E714505350042172E705
:10FD500014505350D7E712210CE702210AE7C0469E
:10FD6000082E0020CC3E0200040500000C05000017
:10FD70000C2E0020E42D0020142E0020042E002044
:10FD8000102E0020031C0720032B00D97047012AE6
:10FD900013D0012917D0002908D0022919D1580001
:10FDA000C3180D48C3185A700020EFE75800C31855
:10FDB0000948C3189A700020E8E700220129E8D119
:10FDC0001A1C0D32D2B258000349C3185A540020ED
:10FDD000DCE70720DAE7C046342E0020E0231D4A86
:10FDE000DB00D2581C4B1A400023C10701D5C023A9
:10FDF0009B021343E0221749D2008B50174B9A58AD
:10FE0000154B1A400023810701D5C0239B021343E1
:10FE1000E0221249D2008B50114B9A580E4B1A40D7
:10FE20000023410701D5C0239B021343E0220C4964
:10FE3000D2008B500B4B9A58074B1A4000230107F6
:10FE400001D5C0239B021343E0220649D2000020C3
:10FE50008B50704744000050FFFFFCFF48000050EB
:10FE60004C0000505000005008B50320FFF7B6FFCB
:10FE7000031C0020002B02D0062B00D0181C08BD4C
:10FE800010B50388102B08D0112B05D1294A13680F
:10FE9000013B1360002B07D010BD264C2368002BBC
:10FEA00011D001332360F7E7002002210122FFF780
:10FEB00069FF00282BD0072829D01F4B1B68002B77
:10FEC000EAD09847E8E7002000210122FFF75AFF17
:10FED000002808D0072806D0174B1B68002B00D03D
:10FEE00098472368DDE7012002210722FFF74AFF38
:10FEF000002801D00728EFD1002002210422FFF7BB
:10FF000041FF0028EDD00728E6D12368C9E701208A
:10FF100002210722FFF736FF002801D00728CCD1A5
:10FF2000002000210A22FFF72DFF0028B4D0072867
:10FF3000C3D1B1E7442E0020402E002071DF70476E
:10FF400072DF704779DF70477DDF704765DF70478C
:10FF5000F0B50488051C83B00720012C04D0148858
:10FF6000A01C984202D90C2003B0F0BD2E78012EBF
:10FF700004D16E7802363619B342F4D3023B1C1B0F
:10FF80006B460F1CA4B20818991D161CDC80FFF7E5
:10FF9000DBFF0028E8D12B78022B18D0012B11D0E1
:10FFA000231C0821FE2BDED83288581CB854328816
:10FFB0000020013292B23280B954328801329B184B
:10FFC0003380D1E76B789C42EBD2231CE9E76B4688
:10FFD000DB8809219C42E5D2231CE2E7F0B55F46AD
:10FFE000564644464D46F0B485B09A460EAB80CB9B
:10FFF000061C1B8800919B463B8890460193038812
:020000022000DC
:10000000002B5BD00023994602AB0024DD1C03E0EB
:1000100033880134A3422ADD7368A1009C46042280
:10002000614403A802F01FFD03A8291C0022FFF76A
:100030008DFF002826D12B784345E9D14B46002B74
:1000400027D043463A88D3185B4539DC524403A88D
:10005000291CFFF77BFF002814D13B882A78013444
:10006000D3183B80012399463388A342D4DC4B4606
:10007000002B23D03B88019A013B9B1A9BB20C209A
:10008000FF2B18D905B03CBC90469946A246AB461A
:10009000F0BD42463B889A1802325A4510DC694648
:1000A0005246013309789BB23B80D1543A880132E1
:1000B00092B23A80CAE7111C524653540020E1E73D
:1000C0000C20DFE7F0B55F4656464D464446031C1C
:1000D0000020F0B417881080586B87B0002800D13A
:1000E0006FE10478022F18D90220112508701088BA
:1000F000013080B210800D541088013080B2108021
:100100000C5414880134A4B21480186B002800D158
:1001100077E0251C1235BD4207D90C2007B03CBC46
:1001200090469946A246AB46F0BD11250D55148860
:10013000013D0134A4B214800D5514880134A4B2D9
:100140001480C57B0D5514880134A4B21480857BBE
:100150000D5514880134A4B21480457B0D551488C4
:100160000134A4B21480057B0D5514880134A4B267
:100170001480C57A0D5514880134A4B21480857A90
:100180000D5514880134A4B21480457A0D55148895
:100190000134A4B21480057A0D5514880134A4B238
:1001A0001480C5790D5514880134A4B21480857962
:1001B0000D5514880134A4B2148045790D55148866
:1001C0000134A4B2148005790D5514880134A4B209
:1001D0001480C5780D5514880134A4B21480857834
:1001E0000D5514880134A4B2148045780D55148837
:1001F0000134A4B214800078085514880134A4B2E4
:1002000014802E201D5C002D00D0DCE01E1C2D2350
:10021000F35C151C8846002B00D0F7E0B378002B68
:1002200000D024E1F378002B16D0E21CBA4200D9AA
:1002300073E70222414640460A5501212A880132CD
:1002400092B22A8081542A88013292B22A80835441
:100250002C880134A4B22C807368002B16D01A7835
:10026000E31CBB4200D958E70223414640460B55E8
:100270000A212B8801339BB22B80C1542B88013378
:100280009BB22B80C2542B8801332B803389002BE7
:1002900000D010E1338A002B00D076E1338B002BA5
:1002A00000D08BE1336A002B4AD02A880C20911DA4
:1002B000B94200D932E7198805388B46052900D89C
:1002C0002CE7CC4C5C44A4B2A146CB4CA446A1453F
:1002D00000D823E75C88A246052C00D81EE7C54C51
:1002E0006946A146D1444C46CC81CC89644500D8AE
:1002F00014E7C24CA34504D0A24502D0D34500D98F
:100300000CE70521404681542A880D31013292B212
:100310002A8081542A88013292B22A801988424464
:100320001170090A51702A88023292B22A805988C3
:10033000131C43441970090A59702B8802332B800F
:10034000746A002C32D0A2882988131D5B180C20F7
:10035000BB4200D9E2E6931CFE2B00D9DEE6434601
:1003600003325A54FF2241462B8801339BB22B8023
:10037000CA542B8801339BB22B80228843441A70C5
:10038000120A5A702B8802339BB22B80A288002A53
:100390000CD0A1680538002900D1BFE64344181CE1
:1003A00002F061FB2A88A388D3182B802C23F35CEE
:1003B000002B00D098E03378002B00D0DEE0002046
:1003C000ACE60024A1E6E61C2238BE4200D9A5E630
:1003D00002260E551C241088013080B210800C5467
:1003E0001088013080B21080022D00D10FE100D8BA
:1003F00006E1032D00D108E1042D00D0F7E003242D
:100400000C5414880134A4B21480FFE609340C2083
:10041000BC4200D982E604A8FFF790FD002800D076
:100420007CE6414608222B88CA542B8813320133BC
:100430009BB22B80CA5402AB9C4609212888153AEE
:10044000013080B228806144404402F00CFB2B88CC
:1004500002AA0633127A9BB22B80002A00D0012216
:100460004146CA542C880134A4B22C80D6E6043408
:100470000C20BC4200D951E604A8FFF763FD002818
:1004800000D04BE6032241462B88CA542B881632F3
:1004900001339BB22B80CA542B8802AA01339BB232
:1004A00012892B8043441A70120A5A702C88023425
:1004B000A4B22C80B6E6341C083400950197201CA9
:1004C000022102224346FFF789FD002800D025E6DD
:1004D00000950197201C062110224346FFF77EFD60
:1004E000002800D01AE6D5E6B46A002C00D17EE0E0
:1004F000A3880233FE2B00D90FE600229146163264
:1005000092461632288893460BE04B465C00B36A4D
:100510004C449C46A4006444A3880233FE2B00D9BB
:10052000FBE542465146013313542B8801339BB2FD
:100530002B80D1542B8801339BB22B8022884344DB
:100540001A70120A5A702888023080B22880A28855
:10055000002A0AD0A168002949D0404402F083FA59
:100560002888A388C01880B228804B460133DBB2AC
:1005700099465B46F35C4B45C7D81CE7301C4146A7
:100580002A1C3B1CFFF7E4FCC8E5341C1034009522
:100590000197201C032102224346FFF71FFD00287C
:1005A00000D0BBE500950197201C0721102243468F
:1005B000FFF714FD002800D0B0E56FE6341C1834B6
:1005C00000950197201C142102224346FFF706FDE7
:1005D000002800D0A2E500950197201C15211022CB
:1005E0004346FFF7FBFC002800D097E55AE60720BA
:1005F00094E5C0467FF3FFFF7DF30000FFFF00009E
:10060000012DF4D100240C54FBE60E54F9E601242C
:100610000C54F6E6F0B54E46574645461F23E0B467
:1006200096B002AA041C0E1CD381002800D171E0F0
:10063000C3785B0767D5002302AA9381436B002B25
:1006400000D13EE11B78022206ADAB7003230327E5
:10065000052104202A700F326A7002AA9381226B4E
:10066000002A3AD0112306ADEB55013B2B54D37B26
:100670006B54907B4B1CE854507B8B1CE854107BD4
:10068000CB1CE854D07A0B1DE854907A4B1DE854EB
:10069000507A8B1DE854107ACB1DE854D079013381
:1006A000E85490790133E85450790133E8541079D3
:1006B0000133E854D0780133E85490780133E8549A
:1006C000013302A883815078E854013302A8838162
:1006D0001278EA54013383819BB22E22A25C002A55
:1006E00000D0F1E12D22A25C002A00D011E1A27815
:1006F000002A00D03DE1E278002A35D0D91C1F291C
:1007000025D90C2000E0072016B01CBC9046994665
:10071000A246F0BD002502AB9881002E00D1D4E0A6
:10072000F378002BEFD102AA94460E236344301CC9
:100730000EA91A1CFFF7C6FC0028E5D102AB9B7B73
:100740000EAA02A9097B281CFFF7FAFBDCE70220AE
:10075000012706ADE854581C02339BB280B22F54D7
:10076000EA548BB202AA93816268002A0FD01078F3
:10077000DA1C1F2AC5D802210A2706ADE954591CE4
:1007800002339BB289B26F54E85402AB9A81238939
:10079000002B00D09EE0238A002B00D00AE1238B9F
:1007A000002B00D025E1236A002B43D002AA9289B6
:1007B0000C20911D1F29A7D818888246554607206E
:1007C000052DA1D9D24D5544ADB2AC46D14DA84668
:1007D000AC4599D95D88A946052D00D894E7CC4D44
:1007E0006F46AC46CC446546FD81FD89454500D841
:1007F0008AE7C94DAA4504D0A94502D0CA4500D907
:1008000082E70520122706ADA854501C80B22F5451
:10081000901C80B202AFB8811F88281807703F0A69
:10082000477004325B8892B2AD182B701B0A6B7054
:1008300002AB9981676A002F2FD0BB880C20991CCE
:1008400002AB9B899A1C55181F2D00D95CE7FE2925
:1008500000D959E706AD0131E954591C89B2F3308A
:10086000685492B202A98A813988AA180433117097
:1008700098B2090A02AB51709881BA88002A0CD04C
:10088000B968002900D13EE7281802F0ECF802AB65
:10089000BA889B89D31802AA93812C23E15C002992
:1008A00000D0C5E006AD2378002B00D135E7201C31
:1008B000291C05AA1F23FFF74BFB002800D12CE7BA
:1008C00022E7002702210120C9E602ABDE810022D7
:1008D000002336E705AB271C00931F23083706AD1E
:1008E00098460193381C022102222B1CFFF776FB4D
:1008F000002800D008E705AB00934346381C01935D
:10090000062110222B1CFFF769FB002800D0FBE614
:1009100041E709330C201F2B00D9F5E60EA8FFF79D
:100920000DFB002800D0EFE6082202AB9B8906AD44
:10093000EA545A1C023398B21B2102AB9C4692B275
:10094000A9541631988161440622281802F08BF8C8
:10095000302002AB02A99B89091809789A1D92B22E
:10096000002900D001210733A9549BB202AA938128
:10097000BDE604330C201F2B00D9C5E60EA8FFF7F7
:10098000E1FA002800D0BFE60322192102AB9B89BF
:1009900006ADEA545A1C92B2A95402AA118E9A1CAE
:1009A00092B2AD18043329709BB2090A02AA697089
:1009B0009381A0E605AB271C00931F23103706ADDB
:1009C00098460193381C032102222B1CFFF706FBDB
:1009D000002800D098E605AB00934346381C0193ED
:1009E000072110222B1CFFF7F9FA002800D08BE614
:1009F000D5E605AB271C00931F23183706AD984694
:100A00000193381C142102222B1CFFF7E7FA00285F
:100A100000D079E605AB00934346381C01931521BD
:100A200010222B1CFFF7DAFA002800D06CE6BAE699
:100A3000A76A002F00D166E6BB880233FE2B00D9DF
:100A40005FE602AA9089002290461632914616323D
:100A5000924606AD4A4601332B54431C9BB2EA54DE
:100A6000831C9BB202AA93813A88EB181A70043057
:100A7000120A5A7080B202AB9881BA88002A0FD04D
:100A8000B968002900D13EE6281801F0ECFF02AB5E
:100A90009B89B888C01880B202AB98815346E15C4C
:100AA00043460133DBB298468B4200D3FBE6434614
:100AB0005F00A36A47449C46BF006744BB8802337B
:100AC000FE2BC7D90C201FE602201C27591C06AD9F
