:1000000000400020110C0000510C0000530C0000B7
:1000100000000000000000000000000000000000E0
:10002000000000000000000000000000550C00006F
:100030000000000000000000570C0000590C0000F8
:100040005B0C00005B0C0000690A00005B0C000008
:100050005B0C0000000000005B0C00005B0C00006B
:100060005B0C00005B0C00005B0C00005B0C0000F4
:100070005B0C00005B0C00005B0C00005B0C0000E4
:100080005B0C00005B0C00005B0C00005B0C0000D4
:100090005B0C00005B0C00005B0C00005B0C0000C4
:1000A0005B0C00005B0C0000000000000000000082
:1000B0000000000000000000000000000000000040
:1000C00010B5064C2378002B07D1054B002B02D02E
:1000D000044800E000BF0123237010BD7000002021
:1000E00000000000F41C000008B5084B002B03D0F2
:1000F0000748084900E000BF07480368002B00D10B
:1001000008BD064B002BFBD09847F9E70000000024
:10011000F41C0000740000206C00002000000000AF
:10012000164B002B00D1144B9D46402292029A1A86
:10013000924600218B460F461348144A121A00F0CB
:1001400067F80F4B002B00D098470E4B002B00D0C8
:1001500098470020002104000D000D48002802D01F
:100160000C4800E000BF00F02DF82000290000F04E
:10017000DBF800F011F8C046000008000040002045
:10018000000000000000000070000020E8010020D6
:100190000000000000000000084B10B5041C002BFC
:1001A00002D0002100E000BF054B1868836A002BD5
:1001B00000D09847201C00F033F8C0460000000033
:1001C000F81B00000E4B70B500251E1C0D4CE41AE8
:1001D000A410A54204D0AB00F35898470135F8E7C6
:1001E00001F0FCFC084B00251E1C084CE41AA4106E
:1001F000A54204D0AB00F35898470135F8E770BD2D
:1002000064000020640000206400002068000020DA
:10021000031C8218934202D019700133FAE7704729
:10022000FEE7C046304B1B78012B00D070472F4BA8
:100230001B681B07FAD1F0222D4B1B68134027D1F6
:100240002C4B1B68134229D0284B1B681B07EDD190
:10025000F022274B1B681340402B32D0244B1A68E6
:10026000F0231340A02B01D0D02BDFD1214B1A68F3
:10027000F0231A42DAD1204A1368012B04D01F4B15
:1002800013601368012BFCD1C0221D4B1A60CDE70F
:10029000102B0FD1174B1B681342D9D1194A1A4B97
:1002A0001A608022194B12021A600F4B1B78012B27
:1002B000CAD0BBE7302BCBD10E4B1B681342C7D142
:1002C000ECE70C4B1B681342C8D1C12380220121EB
:1002D000DB00D205D150044B1B78012BA6D1034B78
:1002E0001B681B07BAD0A1E7E00F00F0E40F00F095
:1002F000E80F00F0EC0F00F000EC064075930000F2
:1003000014EC0640DFFF07C004050040186C0040F5
:1003100008B50378022B02D0012B00D008BD40683D
:1003200000F062F8FAE7C04630B5C020A0250023EF
:100330000121032489B00003ED050133202B0BD0EC
:10034000021C1A411142F8D01A1CC132FF3292002D
:1003500001335451202BF3D1A023A1220021DB052E
:10036000D2009950C021194A090301A89950021CD2
:10037000174B32CB32C2174B04AC0493012363609A
:10038000154B211CA36080235B00E360134AFD3BF7
:1003900000F0FEF8002815D1114800F05FFC202580
:1003A000201C00F047F90028FAD1207800F05CF911
:1003B0000028FAD12378AB43512BF1D1094800F042
:1003C0004DFCFEE700F010F8E6E7C0460C05000023
:1003D000FC1B00008C000020900000201103000096
:1003E000081C0000141C0000002300B585B001AA01
:1003F0009060002103481380536000F005F805B0B9
:1004000000BDC04601400000BFF34F8F034A044BBC
:10041000DA60BFF34F8FC046FDE7C0460400FA051F
:1004200000ED00E010B500290DD00923002A01D10C
:10043000181C10BD541E2240FAD1826001608480D5
:10044000C2600023F4E70E23F2E7C046031C10B598
:100450009C888068DA68121A0420944200D210BD89
:10046000DA68002014401A681155DA680132DA603F
:10047000F5E7C04610B58468C268031C05209442A5
:1004800009D098689A8802401868825C00200A7037
:100490009A6801329A6010BD70B5161C0C1C8D183C
:1004A000002A05DD2078013400F0DEF8AC42F9D1F5
:1004B000301C70BD10B50C1C201C00F0BBF80528CA
:1004C000FAD0012010BDC04630B5047885B0012CAB
:1004D00019D0022C34D0002C01D005B030BD274CEF
:1004E000274D201C291CFFF7C5FF002823D0A26838
:1004F000E3689A42F1D1032302AA1370214B101C26
:100500001B689847E9E743681F4D1978281CFFF7D7
:100510009DFF002822D1AA68EB689B1A012B25D0E9
:10052000A968AA88EB685B1A9A42D6D301211748BA
:1005300000F0ECF9D1E7281C012100F085F9D6E79D
:1005400002AB1C70C368012110480193039300F0B3
:10055000DDF90C4B02A81B689847BEE702AB1C7084
:10056000084B03901B6802A89847D9E702AB1870A4
:10057000044B02A81B689847D2E7C0469C010020A4
:100580009001002094010020AC010020980100207F
:10059000F0B51E1C214B051C89B00C1C1A600720ED
:1005A000002906D08A881E480968FFF73BFF00280B
:1005B00001D009B0F0BDA168A2891A48FFF732FF47
:1005C0000028F6D16A46184B684692CB92C292CB6D
:1005D00092C212CB12C2AB6806932B7906775A1ED1
:1005E000934103756B790E22591E8B415B421A4071
:1005F0004275EB780D490293AB7803932B78019306
:100600006B78009300F090F80028D2D100F016FA31
:100610000121074800F07AF9CBE7C0469401002099
:10062000AC0100209C010020201C0000C904000037
:100630009801002038B50A4C051CA168A288E3681F
:100640005B1A9A4204D0201C291CFFF713FF38BD07
:100650000448012100F05AF90028F4D00520F6E7FB
:10066000AC0100209801002070B50D4D011C281C24
:10067000FFF7ECFE041E01D0201C70BD00F03EF917
:100680000028F9D1074E281C311CFFF7F3FE002883
:10069000F2D1301C012100F0D7F8041CECE7C04671
:1006A0009C01002090010020F0B5002820DBFF27EE
:1006B0001B4B03229C463B1C8408C026C0B2024050
:1006C000D2009340A4006444B600A5599D438B0119
:1006D0003B409340191C2943A1511F2318401E3B46
:1006E0008340C022181C0E4B520098501860F0BD79
:1006F000FF260C4A03249446321C0F23C0B2044048
:10070000E400A2400340083B9B089B006344DD6972
:1007100095438A013240A240111C2943D961DCE78C
:1007200000E100E000ED00E0F0B557464E464546DA
:10073000E0B43B4C031CE27E0820002A04D01CBC21
:1007400090469946A246F0BD002B67D0012218685A
:10075000A1258240A020ED00C0054251A9460325F5
:100760001A68AA46C132FF329200155000255A6815
:10077000AC46C132FF32920015509F69294A2A4D7A
:1007800057511D7DA84647465D7D3D43274FD551B6
:100790005D681F68A846264D57514746254D57515D
:1007A0001D7D012D19D19F683E1CE0277F00B846B2
:1007B0004644B70066463E50DE68B5404E46855119
:1007C0005646DD68C135FF35AD002E504E46D8681F
:1007D0009D689051A220C00015501A696160226086
:1007E00000290DD0197F0023134A14481360144ABE
:1007F0001360C1230B4A9B00D0500220FFF754FF27
:10080000A0230421074ADB00D15000230122E37515
:100810002376A375E276A376002090E7094B95E74F
:10082000BC01002000200040240500006C050000F1
:100830000C050000140500001C210040800002008F
:1008400044210040401C0000F0B5264A041C937D62
:100850001120002B00D0F0BD0125917522482349BD
:10086000938294600B6005600B60938AE05C938ACE
:100870001F4C01339BB293821E4BE05050680028FE
:1008800001D00020E7E70027261C1D1C0130FF30A7
:10089000947D938AA34203D312E0938A834202D0C9
:1008A0000B68002BF9D0938A8342F2D00F60938AB1
:1008B0009468E45C938A01339BB293827451E7E7B6
:1008C0008023918A5B0099420AD008490B68002B6B
:1008D000FCD001210020084B196000239375BAE772
:1008E0000F20FAE7BC010020082000401C21004036
:1008F000002000401C0500000C200040024B987DA9
:10090000431E9841C0B27047BC010020F0B5474675
:1009100080B4444B5A68002A05D08126C224424D37
:10092000B600A4002E51DC7D002C0DD01C7E002CC6
:100930001DD0002A00D16EE08121C1233A4A8900EE
:100940009B00D15011200FE0D975997ED8605C765C
:100950001C7600292BD0002A0DD08121C123002034
:10096000314A89009B00D15004BC9046F0BD18610B
:100970001976002AF1D12D4C2D4D22602A4A2D489E
:100980009046A322D2009446296806684A1E9141E7
:100990002268C9B2571EBA41D2B2002E10D1002A25
:1009A00027D10029F0D000220320DA75DCE7204AA5
:1009B0001160204A116001211B4A11605A68CAE780
:1009C0000029F0D1002A16D1D97D002917D1016064
:1009D000624641468A585A7ED97D9142D4D8002237
:1009E000DA759B7E002B18D001220F4B00201A6075
:1009F000BAE70029D7D100220F20DA75B4E74646BE
:100A0000614602605A7E7158DE68B1545A7E0132E6
:100A1000D2B25A76DFE71120A6E70122064B00206A
:100A20001A60A1E7BC0100200020004044210040E2
:100A3000242100400821004004200040064A937E03
:100A4000002B07D105490B6005490B6005490133AF
:100A50000B6093767047C046BC0100202421004003
:100A60000821004000200040C12210B5604B9200D8
:100A70009A5884B092054DD55E4A1168002949D034
:100A8000002111608121C2228900920099505A4BA5
:100A90009A7E002A02D10121584A11600222694639
:100AA0000A7090215248C900425842506946039248
:100AB000DA7D68460A72DA68196801920022DA75EE
:100AC0001A765B6898474E4A1368002B10D04A4B41
:100AD000988A997D81424FD9002111609A8A99683C
:100AE000895C9A8A013292B29A82464B404AD1502E
:100AF000454B1A68002A0BD000221A603E4B9A7EA2
:100B0000002A02D001213A4A1160DA7D002A42D13E
:100B100004B010BDC123364A9B00D3585B07D2D521
:100B20003A490B68002BCED0334BD87D00283FD1FB
:100B30000860A321C90052585A7ED97D9142C2D182
:100B40001A7E002A41D19A7E002A02D101212B4A25
:100B500011608120C2222649800092008850002224
:100B600068460121DA755A7E01700272DA681968E6
:100B700001925B689847A6E7002010600029B7D073
:100B80006A46107011729A689875196801925B68CC
:100B900068469847ACE7002268460121DA755A7E1C
:100BA00001700272DA68196801925B689847AFE7D2
:100BB00000200860A320C000597E1258D868425413
:100BC0005A7E0132D2B25A76B6E7DA751A69D96816
:100BD000DA6000226C46587E1A765A76013220720C
:100BE00001912270196868465B6898476BE7C046B8
:100BF0000020004024210040BC01002004200040CF
:100C00001C2100401C050000442100400821004038
:100C100003210A4802680A430260094802680A433D
:100C200002600849084A094B9B1A03DD043BC85877
:100C3000D050FBDCFFF7F6FAFFF772FA240500400C
:100C400054050040001D000000000020700000203E
:100C5000FEE7FEE7FEE7FEE7FEE7FEE70FB40B4B1D
:100C600013B51C68002C05D0A369002B02D1201CF1
:100C700000F050F805AB201CA168049A019300F025
:100C80005BF916BC08BC04B01847C04660000020E1
:100C900008B5024900F0AEF808BDC04619180000BA
:100CA000002310B5041C03604360836081814366A8
:100CB000C281036143618361191C08225C30FFF724
:100CC000A7FA054B24626362044BA362044BE36200
:100CD000044B236310BDC04689140000B11400000A
:100CE000E91400001515000070B568254B1E5D4322
:100CF0000E1C291C743100F09FF8041E08D000213E
:100D00002A1C016046600C30A0606832FFF780FA50
:100D1000201C70BD836913B5002B28D18364C36484
:100D20000365134B134A1B6882620193984201D1F9
:100D300001238361041C00F01FF86060201C00F098
:100D40001BF8A060201C00F017F80421E0600022CE
:100D50006068FFF7A5FFA06809210122FFF7A0FF47
:100D6000E06812210222FFF79BFF0123A36113BD5C
:100D7000F81B0000910C0000F8B51D4B061C1D6807
:100D8000AB69002B02D1281CFFF7C4FF4835AC68C3
:100D90006B68013B05D40C22A75E002F10D068348D
:100DA000F7E72B68002B06D1301C0421FFF79CFFCE
:100DB0002860002801D02D68E9E70C23336016E095
:100DC0000123201C5B42E3810233A3816766276015
:100DD000A760676027616761A7615C30391C0822E2
:100DE000FFF716FA201C6763A763A764E764F8BDE2
:100DF000F81B0000F7B5041C071C002601914834BD
:100E0000002C16D06368A5680093009B013B0093FB
:100E10000DD4AB89012B08D90E22AB5E013304D06F
:100E2000381C291C019B984706436835EDE7246868
:100E3000E6E7301CFEBD0000032370B5CC1C9C43CC
:100E40000834051C0C2C01D20C2405E0002C03DA1C
:100E50000C2300202B6042E08C42F9D3204A136817
:100E6000101C191C002913D00A68121B0DD40B2A60
:100E700002D90A608B181FE08B4202D15A680260C7
:100E80001BE04A685A600B1C17E00B1C4968E9E735
:100E9000144E3368002B03D1281C00F0E3FA3060B5
:100EA000281C211C00F0DEFA031C421CD0D00322B7
:100EB000C61C964386420AD11C60181C07210B30C1
:100EC0001A1D8843821A0AD05142995007E0311AFC
:100ED000281C00F0C7FA431CBAD0331CECE770BDE5
:100EE000DC010020D8010020936810B5013B93601D
:100EF000002B05DA9469A34208DBCBB20A2B05D09C
:100F00001368581C10601970C8B201E000F008FBAB
:100F100010BDF8B5061C0F1C141CD518AC4208D027
:100F20002178301C3A1CFFF7DFFF0134431CF5D158
:100F300000E00020F8BD0000F0B59FB0061C0F1CBB
:100F400002920593002804D08369002B01D1FFF79A
:100F5000E1FE794B9F4201D1776808E0774B9F42D1
:100F600001D1B76803E0764B9F4200D1F768BB8997
:100F70001B070AD53B69002B07D0002306AD6B6128
:100F800020336B761033AB763DE0301C391C00F01B
:100F900033FB0028F1D001204042CAE0059A111D20
:100FA00012680591002A7EDB0992013423782E2BEA
:100FB00000D189E021786348032200F0C5FC0028B5
:100FC00008D0604B0134C01A40238340181C2B68A2
:100FD000184328602178631C5B4806220293297617
:100FE00000F0B2FC002800D191E0584B002B00D05B
:100FF00084E00722059B07339343083305936B690D
:10100000039A9B186B61029C2378002B04D1029BEE
:10101000E31A049311D003E0252BF8D00134F3E751
:10102000049B301C391C029AFFF773FF431C7BD0D2
:101030006A69049B944663446B612378002B73D0E8
:101040000122002352426A6002A95432521801342C
:101050002B60EB60AB601370AB6521783C480522D8
:1010600000F072FC002809D0394B0134C01A01236A
:101070008340181C2B6818432860EEE72B68DA06BB
:1010800004D55322202102A8121811701A0704D582
:1010900053222B2102A81218117022782A2A00D17B
:1010A0007CE7099B05E05242EA60022213432B6071
:1010B0007BE72278303A092A04D80A214B430134CD
:1010C0009B18F6E7099371E763782A2B09D1059BF2
:1010D00002341A1D1B680592002B0DDA01235B42B6
:1010E0000AE0002301342278303A092A04D80A2180
:1010F0004B4301349B18F6E707935BE705AB00937E
:10110000301C291C3A1C134B00E000BF07E005AB64
:101110000093301C291C3A1C0E4B00F08BF80390F6
:10112000039B013300D06AE7BB895B0600D532E739
:101130000B981FB0F0BDC046601C0000801C000072
:10114000A01C0000C61C0000CA1C0000000000001B
:10115000C01C0000130F0000F7B5171C01930A69AB
:101160008B6800900C1C934200DA131C221C3B601D
:1011700043321278002A01D001333B6023689B067A
:1011800002D53B6802333B60062523681D401ED014
:10119000231C43331B785A1E9341226892061CD5A8
:1011A0003020E1184031C870211C5A1C45310978A3
:1011B000A21840320233D1700FE0221C01230098A4
:1011C00001991932089EB047431C0ED00135E368DF
:1011D0003A689B1A9D42F0DBDAE7221C00980199DD
:1011E0004332089DA847431C02D10120404220E021
:1011F00006232068E1683A6803400025042B03D1E8
:101200008D1AEB43DB171D40A3682269934201DD71
:101210009B1AED180027AF420ADA221C012300981E
:1012200001991A32089EB047431CDED00137F2E71D
:101230000020FEBDF0B58BB006920A1C4332079326
:10124000059004920A7E0C1C109B6E2A00D1A8E027
:1012500011D8632A22D009D8002A00D1B2E0582A36
:1012600000D0C2E045310A707C4A4FE0642A1DD0AC
:10127000692A1BD0B9E0732A00D1A7E009D86F2AE8
:1012800029D0702A00D0B0E0202209680A432260E9
:1012900037E0752A1FD0782A33D0A6E00E1C1A68D2
:1012A0004236111D196013683370A1E021681A6875
:1012B000080606D4490604D5111D19600023D55E21
:1012C00002E0111D19601568002D3BDA2D23049AE8
:1012D0006D42137036E021681A68080606D4490684
:1012E00004D51568111D1960ADB202E0111D196019
:1012F00015685A4B227E03930A276F2A1DD10827AF
:101300001BE0221C782145321170554A196803925E
:10131000081D226818600D68100602D4500600D51A
:10132000ADB2D30702D520231A4322601027002D27
:1013300003D1202322689A432260231C00224333D6
:101340001A7002E00A27454B03936368A360002BE1
:1013500003DB0422216891432160002D02D1049E09
:10136000002B0ED0049E281C391C00F0FDFB039BB3
:10137000013E5B5C281C3370391C00F06FFB051EBE
:10138000F1D1082F09D12368DB0706D563682269EC
:10139000934202DC3023013E3370049B9B1B23618C
:1013A0002BE009681A68080607D4490605D5111DFF
:1013B00019601368A28A1A8004E0111D196013686D
:1013C00062691A600023049E236116E01A68111DE9
:1013D000196016680021301C626800F0B5FA002818
:1013E00001D0801B6060636803E0261C42363270C7
:1013F000012323610023049A1370079B059800932F
:10140000211C069B09AAFFF7A7FE431C02D101205D
:10141000404221E0236905980699321C079DA847A0
:10142000431CF4D023689B0705D4099BE0689842CD
:1014300012DA181C10E00025E368099A9B1A9D42F5
:10144000F3DA221C0123059806991932079EB0474A
:10145000431CDCD00135EFE70BB0F0BDD11C000020
:10146000E21C000038B50023064C051C081C236054
:1014700000F0A6FB431C03D12368002B00D02B6097
:1014800038BDC046E401002038B50C1C0E25495F6C
:1014900000F0ACFA002803DB636D1B18636503E002
:1014A000A289024B1340A38138BDC046FFEFFFFF66
:1014B000F8B51E1C8B89051C0C1C171CDB0505D5FB
:1014C0000E23C95E0022022300F0D2F9A289054B47
:1014D000281C1340A3813A1C0E23E15E331C00F04C
:1014E00077F8F8BDFFEFFFFF38B50C1C0E25495FFC
:1014F00000F0BEF9A389421C03D1054A1340A38121
:1015000004E0802252011343A381606538BDC046C8
:10151000FFEFFFFF08B50E23C95E00F0E1F808BD3C
:1015200070B5051C0E1C141C002804D08369002B08
:1015300001D1FFF7EFFB234B9C4201D16C6808E01F
:10154000214B9C4201D1AC6803E0204B9C4200D16E
:10155000EC68A369A360A3891B070AD52369002B44
:1015600007D023682269F6B2981A636998420FDBA4
:1015700008E0281C211C00F03FF80028F1D00120D1
:1015800040421DE0281C211C00F046F90028F6D13D
:10159000A3680130013BA36023685A1C22601E70BF
:1015A0006369984205D0A389301CDB0708D50A2E51
:1015B00006D1281C211C00F02FF90028DFD1301C97
:1015C00070BDC046601C0000801C0000A01C000014
:1015D00038B5051C0020074C2060081C111C1A1C83
:1015E000FEF75AFF431C03D12368002B00D02B6069
:1015F00038BDC046E4010020354B70B51D68061C9F
:101600000C1C002D05D0AB69002B02D1281CFFF764
:1016100081FB304B9C4201D16C6808E02E4B9C4210
:1016200001D1AC6803E02D4B9C4200D1EC68A3894A
:101630009AB2110723D4D10607D4092201203260BF
:1016400037321343A381404240E0530713D5616B07
:10165000002908D0231C4433994202D0301C00F0EA
:101660007FF9002363632422A3899343A38100238A
:101670006360236923600822A3891343A38123693C
:10168000002B0BD1A023A2899B0013408022920043
:10169000934203D0301C211C00F0FEF80123A289E4
:1016A000134005D00023A36063695B42A36103E09C
:1016B000910700D46369A36000202369834205D1A8
:1016C000130603D540231A43A281013870BDC046DA
:1016D00060000020601C0000801C0000A01C0000B6
:1016E00038B50023064C051C081C236000F048FA9E
:1016F000431C03D12368002B00D02B6038BDC046AB
:10170000E4010020F7B58A89051C0C1C13075ED480
:101710004B68002B02DC0B6C002B1ADDE76A002FF4
:1017200017D000232E682B6080235B011A4001D064
:10173000626D15E0281C216A0123B847021C431C76
:101740000ED12B68002B0BD01D2B01D0162B02D1F4
:101750002E6000205EE04021A3890B43A38159E065
:10176000A3895B0706D56368D21A636B002B01D08F
:10177000236CD21A0023281C216AE76AB847A38980
:10178000421C06D12A68002A03D01D2A01D0162A3D
:1017900019D10022626022692260DB0405D5431C56
:1017A00002D12B68002B00D16065616B2E6000298F
:1017B000CFD0231C4433994202D0281C00F0D0F82B
:1017C0000020606326E040221343A38122E00F69DA
:1017D000002FBED00B680F60DB1B01930023920724
:1017E00000D14B69A360019B002BB2DD281C216A4C
:1017F0003A1C019BA66AB047002806DC4022012063
:10180000A38940421343A38104E0019B3F181B1AA4
:101810000193E8E7FEBD000038B50B69051C0C1C00
:10182000002B01D100201CE0002804D08369002B8C
:1018300001D1FFF76FFA0B4B9C4201D16C6808E0B5
:10184000094B9C4201D1AC6803E0084B9C4200D19B
:10185000EC680C22A35E002BE4D0281C211CFFF7AF
:1018600051FF38BD601C0000801C0000A01C00005F
:1018700038B5051C0020074C2060081C111C1A1CE0
:1018800000F096F9431C03D12368002B00D02B6095
:1018900038BDC046E4010020F0B58B8991B09B07AC
:1018A00006D50B1C47330B600B6101234B6145E0F0
:1018B0000C1C0E23C95E061C002904DA8023A589AE
:1018C0001D4010D10CE001AA00F0A4F80028F5DBBF
:1018D000F023029D1B021D40194BED186B425D4128
:1018E0008027FF0001E000254027301C391CFFF74E
:1018F000A3FA00280CD1A3899A051FD4022213430E
:10190000A381231C4733236023610123636115E016
:1019100080220C4BB362A38920601343A381206112
:101920006761002D0AD00E23E15E301C00F084F8C0
:10193000002803D00122A3891343A38111B0F0BD75
:1019400000E0FFFF910C0000C9B28218904204D061
:1019500003788B4202D00130F8E700207047000086
:1019600030B500293ED004390B68002B00DAC918C5
:101970001D4A1368141C002B02D14B60116031E02A
:1019800099420DD208680A189A4203D11368C31805
:101990000B6053684B60216024E08A4203D8131C1B
:1019A0005A68002AF9D11D685C198C420BD109686C
:1019B000691858181960904214D1106852680918B3
:1019C00019605A600EE08C4202D90C23036009E0D2
:1019D00008680C18944203D1146852680019086012
:1019E0004A60596030BDC046DC01002038B5051C96
:1019F0000020074C2060081C111C1A1CFEF75AFD21
:101A0000431C03D12368002B00D02B6038BDC04697
:101A1000E401002038B50023064C051C081C111CED
:101A2000236000F0B5F8431C03D12368002B00D0DD
:101A30002B6038BDE401002038B50023064C051C9E
:101A4000081C236000F0ACF8431C03D12368002B72
:101A500000D02B6038BDC046E401002000224308BE
:101A60008B4274D303098B425FD3030A8B4244D366
:101A7000030B8B4228D3030C8B420DD3FF220902A8
:101A800012BA030C8B4202D31212090265D0030B67
:101A90008B4219D300E0090AC30B8B4201D3CB035D
:101AA000C01A5241830B8B4201D38B03C01A52419F
:101AB000430B8B4201D34B03C01A5241030B8B42A1
:101AC00001D30B03C01A5241C30A8B4201D3CB028C
:101AD000C01A5241830A8B4201D38B02C01A524171
:101AE000430A8B4201D34B02C01A5241030A8B4274
:101AF00001D30B02C01A5241CDD2C3098B4201D38C
:101B0000CB01C01A524183098B4201D38B01C01A09
:101B1000524143098B4201D34B01C01A5241030980
:101B20008B4201D30B01C01A5241C3088B4201D32F
:101B3000CB00C01A524183088B4201D38B00C01ADC
:101B4000524143088B4201D34B00C01A5241411A03
:101B500000D20146524110467047FFE701B5002010
:101B600000F00CF802BDC0460029F7D003B5FFF71E
:101B700075FF0EBC4243891A1847C0467047C046DD
:101B800058220120014B40421A607047E4010020B6
:101B900058220120014B40421A607047E4010020A6
:101BA0005822024B00201A607047C046E401002012
:101BB00058220120014B40421A607047E401002086
:101BC000044A1368002B03D018181060181C7047C3
:101BD000014BF9E7E0010020E8010020F8B5C0461C
:101BE000F8BC08BC9E467047F8B5C046F8BC08BCB7
:101BF0009E46704743000000000000200B09080AC1
:101C00000000000000E0D7010A0D53746172743ABD
:101C1000200A0D00200A0D45786974210A0D000084
:101C2000090000000B0000000A000000080000008E
:101C3000000000000000000000E0D70103000000E9
:101C4000090000000B0000000A000000080000006E
:101C5000000000000000000000E0D70103000000C9
:101C60000000000000000000000000000000000074
:101C70000000000000000000000000000000000064
:101C80000000000000000000000000000000000054
:101C90000000000000000000000000000000000044
:101CA0000000000000000000000000000000000034
:101CB0000000000000000000000000000000000024
:101CC000232D302B2000686C4C0065666745464725
:101CD00000303132333435363738394142434445A8
:101CE0004600303132333435363738396162636417
:081CF000656600000000000021
:081CF80028E4FF7F0100000059
:101D000000000000601C0000801C0000A01C0000FF
:101D100000000000000000000000000000000000C3
:101D2000F41B0000000000000000000000000000A4
:101D300000000000000000000000000000000000A3
:101D40000000000000000000000000000000000093
:101D50000000000000000000000000000000000083
:101D600000000020E9000000C100000000000000A9
:0400000300000C11DC
:00000001FF
