:1000000000400020F9130000391400003B140000E8
:1000100000000000000000000000000000000000E0
:100020000000000000000000000000003D1400007F
:1000300000000000000000003F1400004114000018
:100040004314000043140000810500004314000025
:100050004314000000000000431400005504000099
:100060004314000043140000431400004314000034
:100070004314000043140000431400004314000024
:100080004314000043140000431400004314000014
:100090004314000043140000431400004314000004
:1000A00043140000431400000000000000000000A2
:1000B0000000000000000000000000000000000040
:1000C00010B5064C2378002B07D1054B002B02D02E
:1000D000044800E000BF0123237010BD740000201D
:1000E000000000000418000008B5084B002B03D0E6
:1000F0000748084900E000BF07480368002B00D10B
:1001000008BD064B002BFBD09847F9E70000000024
:10011000041800007800002070000020000000009B
:10012000164B002B00D1144B9D46402292029A1A86
:10013000924600218B460F461348144A121A00F0CB
:1001400067F80F4B002B00D098470E4B002B00D0C8
:1001500098470020002104000D000D48002802D01F
:100160000C4800E000BF00F02DF82000290000F04E
:10017000F3FA00F011F8C04600000800004000202B
:100180000000000000000000740000206009002052
:100190000000000000000000084B10B5041C002BFC
:1001A00002D0002100E000BF054B1868836A002BD5
:1001B00000D09847201C00F033F8C0460000000033
:1001C000881700000E4B70B500251E1C0D4CE41A5C
:1001D000A410A54204D0AB00F35898470135F8E7C6
:1001E00001F0C4FA084B00251E1C084CE41AA410A8
:1001F000A54204D0AB00F35898470135F8E770BD2D
:100200006800002068000020680000206C000020CA
:10021000031C8218934202D019700133FAE7704729
:10022000FEE7C046002300B585B001AA906000211A
:1002300003481380536000F005F805B000BDC046C8
:1002400001400000BFF34F8F034A044BDA60BFF355
:100250004F8FC046FDE7C0460400FA0500ED00E000
:1002600070B5104D82B02B780024002B02D0201CDA
:1002700002B070BD01268023009601200A490B4A76
:10028000DB0000F0E3FB002801D00824EFE7009436
:1002900000200749074A102300F03EFC0028F4D153
:1002A0002E70E4E7A00400208C170000A0000020BE
:1002B00094170000900000200EB400B582B003AB8C
:1002C00002CB01AA019300F0B5FD02B008BC03B057
:1002D0001847C04682B00190019B002B14D0019BAF
:1002E0000A48013B01930138C046C046C046C0469B
:1002F000C046C046C046C046C046C046C046C046CE
:10030000F1D1019B002BEAD102B07047E703000056
:1003100038B50C4C0D1CA27C0823002A01D0181CF7
:1003200038BD094B1A60002905D0002808D0017893
:10033000072000F0E5F801232560A3740023EEE711
:100340000248F4E7A4040020007100409C1700005C
:1003500000234360064B5A68002A01D105E01A1CAD
:100360005368002BFBD1506070475860FCE7C046D3
:10037000A40400200122014B1A6070470070004065
:10038000F0B544465F4656464D46F0B42D4C112319
:10039000A27C022A18D00F3BA3740023E060A020A7
:1003A00062682174A26028491268284E63748A51D9
:1003B000274AC000136001330B502568002D0AD076
:1003C000C12292008B500023181C3CBC90469946D9
:1003D000A246AB46F0BDA123DB00904683469C4677
:1003E000B1461368002BFCD043461D605B46664651
:1003F000CD508E59637CB2465046E7685E00F0539C
:100400000133267CDBB263749E4216D9A3685B6815
:10041000002B09D04846A3601B680B505B460120A7
:10042000C85001230B60DCE748466368A3601B6883
:100430000B505B460120C850D3E70123A37400236F
:10044000C2E7C046A404002000700040040500007C
:1004500000710040F0B5264A85B0D468002C33D036
:10046000A0200025A126234B2349C0001D600D506C
:10047000537CF6008F595E0037530133167CDBB294
:100480005374B3420CD293685B68002B14D0936012
:100490001A681A4BCA5001230B500B6005B0F0BD0F
:1004A000C220012380000B5001A8937405704460A2
:1004B000068113689847F1E7536893601A680F4BF9
:1004C000CA5001230B50E9E70A4BC2201C600123EC
:1004D000094980000B50F930FF300C50A12401A8CD
:1004E0000370E40009599374818013689847D5E735
:1004F000A4040020007100400070004004050000CA
:10050000F0B5002820DBFF271B4B03229C463B1C39
:100510008408C026C0B20240D2009340A4006444C4
:10052000B600A5599D438B013B409340191C2943BC
:10053000A1511F2318401E3B8340C022181C0E4BA4
:10054000520098501860F0BDFF260C4A03249446D0
:10055000321C0F23C0B20440E400A2400340083B19
:100560009B089B006344DD6995438A013240A240A9
:10057000111C2943D961DCE700E100E000ED00E057
:10058000C12210B5604B92009A5884B092054DD5A7
:100590005E4A1168002949D0002111608121C222E0
:1005A0008900920099505A4B9A7E002A02D101216B
:1005B000584A1160022269460A7090215248C900C7
:1005C0004258425069460392DA7D68460A72DA68F8
:1005D000196801920022DA751A765B6898474E4ACC
:1005E0001368002B10D04A4B988A997D81424FD9CD
:1005F000002111609A8A9968895C9A8A013292B2C4
:100600009A82464B404AD150454B1A68002A0BD07B
:1006100000221A603E4B9A7E002A02D001213A4AFB
:100620001160DA7D002A42D104B010BDC123364AE0
:100630009B00D3585B07D2D53A490B68002BCED02C
:10064000334BD87D00283FD10860A321C900525800
:100650005A7ED97D9142C2D11A7E002A41D19A7E1A
:10066000002A02D101212B4A11608120C222264991
:10067000800092008850002268460121DA755A7E77
:1006800001700272DA68196801925B689847A6E700
:10069000002010600029B7D06A46107011729A6865
:1006A0009875196801925B6868469847ACE7002224
:1006B00068460121DA755A7E01700272DA6819689B
:1006C00001925B689847AFE700200860A320C00054
:1006D000597E1258D86842545A7E0132D2B25A76A4
:1006E000B6E7DA751A69D968DA6000226C46587E76
:1006F0001A765A7601322072019122701968684682
:100700005B6898476BE7C04600200040242100400A
:10071000B8040020042000401C2100401C050000FB
:10072000442100400821004070B50378002B10D10F
:100730000389002B0DD0051C0024064E6A68630057
:100740009A5E0120311CFFF7B7FD2B8901349C42D2
:10075000F4D370BDA0170000F0B547468025A02057
:1007600000230124032180B4AD0382B0C00501330E
:10077000202B0BD02A1C1A411442F8D01A1CC1326B
:10078000FF32920001331150202BF3D1A02380219E
:10079000A122DB058903D20099500021234A01A838
:1007A0009950032322490370FFF7B2FD002801D0BE
:1007B000FFF738FD1C221F48A024037880259343AF
:1007C0001A1C082313430370FFF7C2FDFFF748FD0F
:1007D00000F002FA1849002000F08AFD01201749B4
:1007E000FFF76AFD164B174F9846E405AD034046E8
:1007F0000221FFF7C5FD002815D10226FFF7BAFD3B
:1008000040BF20BF20BF6420FFF764FD291CA12248
:10081000E359D2009943A150044A2B40A350012E22
:10082000E5D00126EAE7FFF7FDFCE6E70C0500004E
:100830002907000060000020BC170000CC17000052
:10084000D404002004050000F0B55F464446564637
:100850004D46F0B4774B83B098461B78041C8B460A
:10086000171C002B21D14146022240460A614A61F1
:10087000714A83628A6171498264714AC1618021CF
:10088000C2641022C9004362C36283650265436586
:10089000C36501626B49073000F05FFF40466A495B
:1008A00000F05BFF202342469371EFF31083012198
:1008B00081F31088019363001E19F6004644F26A22
:1008C000012A00D16DE0002A3DD0022A2ED100235A
:1008D00001349A4663001C19E300756A99461DE0CD
:1008E000013C336A641BBC4200D93C1C5B1B9C422C
:1008F00000D91C1C43464B44586859464019221CD9
:1009000000F022FF336A2D19EB1A5A1E93415B4205
:100910001D40A244A3443F1B756209D0B46AAC4297
:10092000DED8336AE418013C641BDCE700239A46F6
:10093000019B83F31088504603B03CBC9046994617
:10094000A246AB46F0BD321C2032B16A52689142D9
:1009500054D901398A1A00218A469742E8D82022C0
:1009600092461B19DB0043449A44524601341D6AE7
:10097000566863001C19AD1BE400AF424CD34444DD
:100980006368594698192A1C00F0DEFE291C7E1B5C
:1009900060685944321C00F0D7FE5346BA465E6088
:1009A000C6E7B26A706A824223D9013A366A121ADD
:1009B0009246BA4200D9BA461D19ED0045440134A9
:1009C000203563006F681C19E400F61B4444B245EF
:1009D00019D363685946D819321C00F0B5FE534646
:1009E000311C9F1B606859443A1C00F0ADFE6F60DB
:1009F0009EE7366A911901390A1AD9E7306A09184F
:100A000001398A1AA7E760685946C0195246574407
:100A100000F09AFE6F608BE7231C434458685946E8
:100A200080193A1C00F090FE5346BE195E60BA462B
:100A30007EE7C046E8080020DC170000E80400203C
:100A4000D8040020E8170000EC170000F0B5474676
:100A500080B42B4D1E1C2B7882B0041C8846171CBA
:100A6000002B29D02B69A34246D9EFF31083012133
:100A700081F3108800220193002C0CD11419089BDB
:100A8000E4002C19E362019B83F31088002002B07C
:100A900004BC9046F0BD631C5A00D31842460021A6
:100AA000DB005A51EB1862005F601319DB00EB1892
:100AB00099621E625962E1E702222A616A61114A63
:100AC0001149AA61AA64114AE9618021EA641022ED
:100AD000C900AB62EB626B62EB65AB6529626B656B
:100AE0002A650B49E81D00F038FE281C094900F072
:100AF00034FE2023AB71B5E701204042C7E7C04672
:100B0000E8080020DC170000E8040020D8040020DA
:100B1000E8170000EC170000F0B5474680B4284DF8
:100B20001E1C2B7882B0041C8846171C002B24D076
:100B30006B69A34241D9EFF31083012181F310883F
:100B400000220193002C0CD11419089BE4002C19ED
:100B5000E365019B83F31088002002B004BC90463B
:100B6000F0BD414662001319DB00EB1899640021C7
:100B7000DF6499651E655965E6E702222A616A61AC
:100B8000104A1149AA61AA64104AE9618021EA6405
:100B90001022C900AB62EB626B62EB65AB65296248
:100BA0006B652A650A49E81D00F0D7FD281C094934
:100BB00000F0D3FD2023AB71BAE701204042CCE71F
:100BC000E8080020DC170000E8040020D80400201A
:100BD000E8170000EC17000010B5124C2378002B2A
:100BE0001ED10222226162610F4A1049A261A264F1
:100BF0000F4AE1618021E2641022C900A362E3622E
:100C00006362E365A3652162636522650949E01DAE
:100C100000F0A3FD201C084900F09FFD2023A371D4
:100C200010BDC046E8080020DC170000E8040020E2
:100C3000D8040020E8170000EC170000F0B55F466C
:100C40004D4656464446F0B483B01D1C0C9B061C12
:100C50008946171C9B46914200D2DBE0081C012408
:100C6000391C00F0EFFB01348742F9D90094AC4203
:100C700000D2009501230D9A1A40019203D15B46E0
:100C8000002B00D08CE0F3689A46002B7BDBB36826
:100C900098464B460124B1461E1C012D03D9013D47
:100CA0007C43012DFBD8301C211C00F0CBFB87427C
:100CB000F6D9331C4E4699463B1C5D4D4746984637
:100CC0000AE05346002B00DA9BE0201C414600F06E
:100CD000B9FB041E00D194E04846211C00F0B2FB91
:100CE000231C4A464343D31A994673687A1C295CED
:100CF0009A420BD83368D955F368171C9A460123DA
:100D00009C46E2445346F3607368B2609F42D8D178
:100D10003A1C30693168FFF797FDB768B84239D09F
:100D20000123B8465B42F360019B002B2BD05B464E
:100D3000002B28D0009B202400259B4523D9424628
:100D40005F46984606E0F368002B1CDB002F1AD0A4
:100D5000474518D97368511C013F994207D8336839
:100D60009C540A1CF368B1600133F36073689A42C3
:100D7000E9D130693168FFF767FDB368984242D026
:100D800001235B42F36003B03CBC90469946A24607
:100D9000AB46F0BD0023B360F36800279A4690E7A6
:100DA0000D9B20249B0731D4009B9B4500D86AE70C
:100DB0005A46AA46BB46B368271C009D0C92141CD9
:100DC00006E0F268002ADEDB002C25D0AC4229D9EF
:100DD0007268591C013C914207D83268D754F368B5
:100DE00072680133F3600B1CB1609A42E9D130693B
:100DF0003168FFF729FDB3689842C1D10023B36081
:100E0000DFE7B84690E7B56000229CE7002DCBD124
:100E10001034C9E7012429E75F4655469846A346A2
:100E2000924636E75F465546A34692462FE7C046B0
:100E3000F4170000F0B5564644465F464D46F0B400
:100E40009DB00CAB07934023089300239B46099366
:100E50000A930433924698460C1C5E4604900B900D
:100E600023780134002B00D18CE0252B5CD1221C8F
:100E70001378002702200821141C2B2B0BD02B2BBE
:100E80000DD92D2B4CD0302B0ED1074301321378C6
:100E9000141C2B2BF3D1434601321F43F7E7232BBE
:100EA00002D10F430132F2E71A1C303A0025092A19
:100EB00000D9BAE0AA00551901346D00ED18237865
:100EC000303D1A1C303A092AF4D9002291462E2BC3
:100ED00002D180E0237801341A1C41468A43682AF3
:100EE000F8D0642B00D1F6E055D9732B00D1B0E0D7
:100EF00000D886E0752B00D099E0534651461B6818
:100F000007A81A1D0A6019680A22009501974B4626
:100F1000FFF794FE0A9E0134002EA1DAB34622E0C8
:100F2000012301321F43B2E70999089A481C9042F5
:100F300021D8079A53540A9B089A5E1C0990029381
:100F40000A969042E8D10B9B0293079B0298191CCA
:100F50000393FFF779FC099B0293984200D14BE180
:100F600001235B429B4658461DB03CBC90469946C7
:100F7000A246AB46F0BD8A42E5D023780134002B6F
:100F800000D072E7B346002EEDDD099A002A00D0AA
:100F900036E19344E7E7582B4CD0632B00D18AE02D
:100FA000252BB8D109980899421C8A4200D81AE129
:100FB000021C8A42AFD10B9B0293079B0298191C1B
:100FC0000393FFF741FC099B029398426FD10023E2
:100FD0000A9E09939FE76378611C1A1C303A0C1C27
:100FE000092A00D978E74A4691008A18013452004C
:100FF000D2182378303A191C30390929F4D991468E
:101000006AE7702B00D086E7534651461B6807A855
:101010001A1D0A6019680823009300231022019307
:101020000833FFF70BFE0A9E75E700254DE7782B86
:1010300000D070E7534651461B6807A81A1D0A6086
:1010400019681022009501974B46FFF7F7FD0A9E9D
:1010500061E7534651461B681A1D0A601D680CE083
:101060000798C1540A9B09925E1C089B0A9602933A
:101070009A420FD0002E00DA4DE729780135002979
:1010800000D148E7099B08985A1C8242E8D983425C
:10109000F3D11A1C0B9B0293079B0298191C039314
:1010A000FFF7D2FB099B0293984200D183E001260F
:1010B00076420A962FE7534651461B681A1D0A606E
:1010C00009991868089B4A1C9A427CD90A1C9A42C2
:1010D00000D020E76FE7534651461B681A1D0A608F
:1010E0001B68DA1798180293012350409B46092881
:1010F0000ADDA3461C1C0A2100F034FA0134092839
:10110000F9DC231C5C469B46CB4558D3002D06D00A
:10111000029B002B02DB43463B4200D0013DBB0754
:101120005AD401233B4232D1002D30D05D452ED917
:10113000301C099A5E4606E0002800DAD5E0002D52
:1011400023D0B54221D9089B511C013D994209D8B1
:101150002020079B98540A1C0A9B0991581C039352
:10116000089B0A909A42E7D10B9B0393079B039835
:10117000191C0593FFF768FB099B0393984296D1CE
:1011800000230A9809930022D6E7B346061C029B67
:10119000002B3EDB43463B4259D103233B40022B0D
:1011A0006ED00095019707A802990A224B46FFF7D7
:1011B00045FD0A9EAFE600230A9E09935AE7CB46F7
:1011C000002DACD0A4E7079B58540A9B09925E1CE3
:1011D00002930A96089B7AE74B46002BD7D001234F
:1011E0003B42D4D1A0E707990B540A9B09925E1C9D
:1011F00002930A960899DCE600230A9E09938BE67F
:1012000004980CA9FFF720FB0A9B099A9B4693447C
:10121000A9E65B420293099B089A591C914203D8A4
:10122000079A03922D221AE09342B6D10B9B0393A7
:10123000079B0398191C0593FFF706FB099B039373
:10124000984200D033E700230A9E099311E0099BDE
:10125000089A591C9142E7D8079A03922B220398C7
:10126000C2540A9B089A5E1C099103930A96914204
:10127000DCD0002E00DA4EE603233B40022B90D157
:101280004B46002B8DD1002D2DD0AB4589D2099A2C
:1012900006E0002E00DA3EE6002D24D05D4580D920
:1012A000089B511C013D994209D83020079B985456
:1012B0000A1C0A9B09915E1C0393089B0A969A429A
:1012C000E7D10B9B0393079B0398191C0593FFF72A
:1012D000BBFA099B0393984200D0E8E600230A9EDC
:1012E00009930022D5E700255BE7061C13E6C046FC
:1012F0000EB400B582B003AB02CB01AA0193FFF795
:1013000099FD02B008BC03B01847C046304B1B78AB
:10131000012B00D070472F4B1B681B07FAD1F0221E
:101320002D4B1B68134027D12C4B1B68134229D02F
:10133000284B1B681B07EDD1F022274B1B6813407D
:10134000402B32D0244B1A68F0231340A02B01D03D
:10135000D02BDFD1214B1A68F0231A42DAD1204A70
:101360001368012B04D01F4B13601368012BFCD1B1
:10137000C0221D4B1A60CDE7102B0FD1174B1B68F5
:101380001342D9D1194A1A4B1A608022194B120202
:101390001A600F4B1B78012BCAD0BBE7302BCBD187
:1013A0000E4B1B681342C7D1ECE70C4B1B68134272
:1013B000C8D1C12380220121DB00D205D150044BCA
:1013C0001B78012BA6D1034B1B681B07BAD0A1E7E2
:1013D000E00F00F0E40F00F0E80F00F0EC0F00F079
:1013E00000EC06407593000014EC0640DFFF07C0D8
:1013F00004050040186C004003210A4802680A43B3
:101400000260094802680A4302600849084A094B19
:101410009B1A03DD043BC858D050FBDCFFF776FF76
:10142000FEF77EFE24050040540500401018000021
:101430000000002074000020FEE7FEE7FEE7FEE764
:10144000FEE7FEE7002243088B4274D303098B4278
:101450005FD3030A8B4244D3030B8B4228D3030C84
:101460008B420DD3FF22090212BA030C8B4202D326
:101470001212090265D0030B8B4219D300E0090A4E
:10148000C30B8B4201D3CB03C01A5241830B8B4257
:1014900001D38B03C01A5241430B8B4201D34B0340
:1014A000C01A5241030B8B4201D30B03C01A5241A5
:1014B000C30A8B4201D3CB02C01A5241830A8B422A
:1014C00001D38B02C01A5241430A8B4201D34B0213
:1014D000C01A5241030A8B4201D30B02C01A524177
:1014E000CDD2C3098B4201D3CB01C01A524183092B
:1014F0008B4201D38B01C01A524143098B4201D365
:101500004B01C01A524103098B4201D30B01C01A8F
:101510005241C3088B4201D3CB00C01A5241830809
:101520008B4201D38B00C01A524143088B4201D336
:101530004B00C01A5241411A00D201465241104696
:101540007047FFE701B5002000F0FCF802BDC0467F
:101550000029F7D003B5FFF775FF0EBC4243891A87
:101560001847C04603460B437FD4002243088B42F2
:1015700074D303098B425FD3030A8B4244D3030B1A
:101580008B4228D3030C8B420DD3FF22090212BADF
:10159000030C8B4202D31212090265D0030B8B425B
:1015A00019D300E0090AC30B8B4201D3CB03C01A45
:1015B0005241830B8B4201D38B03C01A5241430B20
:1015C0008B4201D34B03C01A5241030B8B4201D310
:1015D0000B03C01A5241C30A8B4201D3CB02C01A7B
:1015E0005241830A8B4201D38B02C01A5241430AF3
:1015F0008B4201D34B02C01A5241030A8B4201D3E2
:101600000B02C01A5241CDD2C3098B4201D3CB0188
:10161000C01A524183098B4201D38B01C01A524137
:1016200043098B4201D34B01C01A524103098B423B
:1016300001D30B01C01A5241C3088B4201D3CB0026
:10164000C01A524183088B4201D38B00C01A524109
:1016500043088B4201D34B00C01A5241411A00D2B9
:1016600001465241104670475DE0CA0F00D0494222
:10167000031000D34042534000229C4603098B4292
:101680002DD3030A8B4212D3FC22890112BA030A1A
:101690008B420CD3890192118B4208D3890192119C
:1016A0008B4204D389013AD0921100E08909C30921
:1016B0008B4201D3CB01C01A524183098B4201D323
:1016C0008B01C01A524143098B4201D34B01C01A0E
:1016D000524103098B4201D30B01C01A5241C30886
:1016E0008B4201D3CB00C01A524183088B4201D3F5
:1016F0008B00C01A5241D9D243088B4201D34B0010
:10170000C01A5241411A00D20146634652415B1051
:10171000104601D34042002B00D549427047634632
:101720005B1000D3404201B5002000F00BF802BD71
:101730000029F8D003B5FFF715FF0EBC4243891A04
:101740001847C0467047C046002310B5934203D0E7
:10175000CC5CC4540133F9E710BD031C0A78013195
:101760001A700133002AF9D170470000F8B5C0465D
:10177000F8BC08BC9E467047F8B5C046F8BC08BC2B
:101780009E46704743000000000000204E6F726DBF
:10179000616C0000496E7075740000000300000069
:1017A00043757272656E742073616D706C6520761E
:1017B000616C75653A2025640D0A00000D0A656CA0
:1017C0006C6F2C7274740D0A0000000041444320B9
:1017D0006578616D706C650D0A0000005465726D6E
:1017E000696E616C00000000525454005345474735
:1017F00045520000303132333435363738394142C2
:081800004344454600000000CE
:0818080018E9FF7F0100000058
:1018100000000000000000000000000000000000C8
:1018200000000000000000000000000000000000B8
:10183000841700000000000000000000000000000D
:101840000000000000000000000000000000000098
:101850000000000000000000000000000000000088
:101860000000000000000000000000000000000078
:101870000208000000000000E9000000C1000000B4
:041880000000000064
:04000003000013F9ED
:00000001FF
