:020000021000EC
:10B0000000800020F57C0200357D0200377D0200C3
:10B010000000000000000000000000000000000030
:10B02000000000000000000000000000397D020068
:10B0300000000000000000003B7D02003D7D02009A
:10B040003F7D02003F7D0200E5E501003F7D0200FB
:10B050003F7D020000000000FDDF01003F7D020097
:10B060003F7D02003F7D02003F7D02003F7D0200E8
:10B070003F7D02003F7D02003F7D02003F7D0200D8
:10B080003F7D02004DB301003F7D02003F7D020085
:10B0900029B401003F7D0200657C02003F7D020073
:10B0A0003F7D02003F7D0200000000000000000024
:10B0B0000000000000000000000000000000000090
:10B0C00010B5064C2378002B07D1054B002B02D07E
:10B0D000044800E000BF0123237010BD7C21002044
:10B0E000000000005492020008B5084B002B03D06A
:10B0F0000748084900E000BF07480368002B00D15B
:10B1000008BD064B002BFBD09847F9E70000000074
:10B1100054920200802100206821002000000000DD
:10B12000164B002B00D1144B9D46402292029A1AD6
:10B13000924600218B460F461348144A121A00F01B
:10B1400067F80F4B002B00D098470E4B002B00D018
:10B1500098470020002104000D000D48002802D06F
:10B160000C4800E000BF00F02DF82000290004F09A
:10B170005BFA00F011F8C0460000080000800020D3
:10B1800000000000000000007C2100200C350020A1
:10B190000000000000000000084B10B5041C002B4C
:10B1A00002D0002100E000BF054B1868836A002B25
:10B1B00000D09847201C00F033F8C0460000000083
:10B1C000148D02000E4B70B500251E1C0D4CE41AA8
:10B1D000A410A54204D0AB00F35898470135F8E716
:10B1E0000DF08AFD084B00251E1C084CE41AA41023
:10B1F000A54204D0AB00F35898470135F8E770BD7D
:10B2000060210020602100206021002064210020B6
:10B21000031C8218934202D019700133FAE7704779
:10B22000FEE7C046002300B585B001AA906000216A
:10B2300003481380536000F005F805B000BDC04618
:10B2400001400000BFF34F8F034A044BDA60BFF3A5
:10B250004F8FC046FDE7C0460400FA0500ED00E050
:10B2600010B500290DD00923002A01D1181C10BDEA
:10B27000541E2240FAD1826001608480C2600023A3
:10B28000F4E70E23F2E7C046031C10B59C888068E3
:10B29000DA68121A0420944200D210BDDA68002045
:10B2A00014401A681155DA680132DA60F5E7C046D1
:10B2B00010B58468C268031C0520944209D09868C0
:10B2C0009A8802401868825C00200A709A680132ED
:10B2D0009A6010BD80218023184A8902D1508022B3
:10B2E000D221174B520289005A5040395A5001223C
:10B2F0002F205A600138C046C046C046C046C046EE
:10B30000C046C046C046C046C046C046C046F1D151
:10B310009A6000230B4A2F2013600138C046C046B4
:10B32000C046C046C046C046C046C046C046C046ED
:10B33000C046C046F1D1044A1370704700E100E0F6
:10B340000010014098210020B8210020A021F0B574
:10B35000002347462B4A490080B4535004315350D0
:10B3600004315350043153504C395350043153502D
:10B37000254B1B68002B35D0244900265258244900
:10B38000244F0C68141B00222402240A904602E079
:10B39000002D18D02B1C1A68A24214D8A41AB61873
:10B3A0001A7CDD69002AF3D0424699691A745A69F9
:10B3B0003B68002B19D0101C98470028E8D0FFF7F5
:10B3C00031FF002DE6D1144B14491A780B789A42BC
:10B3D0000ED0134A9B009E5080218023114A4903BE
:10B3E0005B00D15004BC9046F0BD081C9047CFE7ED
:10B3F0000132D3B2022B01D00B70EAE700230B70AD
:10B40000E7E7C046001001409C2100200405000031
:10B4100098210020A0210020AC210020AD21002097
:10B42000B021002000E100E0F0B55F4656464D46F1
:10B430004446F0B4B44BB54A1B68B54989B0019392
:10B4400009781378994200D1B1E10133DBB2022BC4
:10B4500000D100231370AF4A9B009B58AA4A99461B
:10B46000019B4B441B021B0A136001230493AA4B4C
:10B4700000241B689B46A94BD8461B781A1C0293D4
:10B48000A74B944607931B6803939F4B1B68069337
:10B49000A44B1B7805935B466646013EF2B2944688
:10B4A000FF2A4FD06246D000039A9246504401785A
:10B4B0004578A942F0D04A00521887780131466891
:10B4C000C9B27F1AB2467E1EB741D2007F425244B3
:10B4D00039401778022F0AD0032FEAD1002BE8D089
:10B4E0001C74DB69002BFBD145789846E1E7566870
:10B4F000002B25D09E421AD01F1C00E0171CFA69B1
:10B50000002AD6D09642F9D1321C3D1CBE4200D151
:10B51000EBE01768D269EA61002A06D013689A4600
:10B520005744176045784346C3E74578C1E7DE696D
:10B530001A1C002E00D1DDE0B046331C151CE8E7D4
:10B540000023B6E76946774A097D181C11706E4AD8
:10B5500006990393116041466F4A1160049A002ACC
:10B5600000D028E15B461B1A5A1E93410025DBB22E
:10B570000493079B00271B68039E0693624B1B687E
:10B580009C46654B1B689A46664B1B780593664B39
:10B59000019301239846029B013BDBB20293FF2BF0
:10B5A00000D18FE0069ADB0093469B44002D27D004
:10B5B0006968AB68281CED696246019C8A1A120210
:10B5C000120AA24250D8D3184246036047608760EF
:10B5D0000274C761002E56D03168341C994204D3DE
:10B5E0005FE01168994263D2141CE2695B1A002A79
:10B5F000F7D10360331CC261E0611E1C002DD7D15E
:10B600005B465A461B7852789A42C4D059464968DC
:10B610005A0089465946D2180133DBB20B7089783B
:10B62000D2004A4499424AD011785068331C01290B
:10B63000E3D1037C99464946331C0029DDD191684A
:10B640004160D36883601469C46052698261059A5D
:10B65000002AB1D04A46002142606246019C8A1A03
:10B660001202120AA242AED96246511A0902090A0E
:10B6700099420CD242465B1A0360476087600274AD
:10B68000C761002EA8D1031C82461E1CB6E74346A4
:10B690000760476087600374C761002EF3D0002302
:10B6A0003168CB1A3360031CC66182461E1CA5E7B5
:10B6B000C91A11600360C261331CE0619DE75B46FB
:10B6C0001D70B1E75246144B1A60039BB3422FD151
:10B6D000049B002B2CD10023124A137009B03CBCF0
:10B6E00090469946A246AB46F0BDDE693A1C002E54
:10B6F00000D021E701250D4B9D6000230696013601
:10B700009846151C059604E798210020AC210020DE
:10B71000AD210020B02100209C210020A421002088
:10B72000A8210020AE210020FEFF7F000010014074
:10B73000002E63D0484B49493568CC58484B494E98
:10B740001B683078E21A1202120A0332904600286F
:10B7500061D04246AA4200D22A1CA820D218120266
:10B760003E49130AC0003C4D0B504A591B1B121B8B
:10B770001202120A1B0203321B0A9A42ABD94B591E
:10B780000B502F200138C046C046C046C046C046B8
:10B79000C046C046C046C046C046C046C046F1D1BD
:10B7A00080218023304A89025B00D15093E7002337
:10B7B000994604935BE6002500210024484646464E
:10B7C00013E01A6882421CD8DE68801A89181C604F
:10B7D000DF69002E07D0DD611D1C019A9E608A186A
:10B7E0001202120A5A603B1C3E1C002BE9D11F4B6F
:10B7F0001E600023039301330493BAE6FFF76AFD4A
:10B8000069E78146194903930E604946521A1A6046
:10B8100001230493ADE68020D1274002BF00C85128
:10B82000403FC851C02280270F48BF0252008750B6
:10B83000076001272F200F600138C046C046C04670
:10B84000C046C046C046C046C046C046C046C046C8
:10B85000C046F1D137707CE70405000000100140BC
:10B8600098210020B821002000E100E09C21002068
:10B87000F8B54F464646C0B40326351C80460F1C1B
:10B88000141C994615400720002D03D00CBC90468F
:10B890009946F8BD002A44D0FFF71CFD4A46224BCA
:10B8A00080201A60221C214B18321E70204B6260CF
:10B8B0001C607B00DB19DB00D218E260D318C022C9
:10B8C000636125706570A77025726572A772257413
:10B8D0006574A774C524FF21164B40031D60164BE9
:10B8E00052001D70154BA4001D70154B98501A592D
:10B8F0008A433F390A431A51A12218604046114930
:10B90000D2008850C42080001C580F4A2240C02416
:10B91000240222431A500D4B0020CA580C4B1A60C7
:10B92000B4E7034B1A60B1E7A0210020A421002056
:10B93000A82100209C210020AC210020AD21002066
:10B9400000E100E000100140FF00FFFF04050000DF
:10B950009821002010B50B4B1B68002B0BD0002A40
:10B9600007D0002805D0036808201C7C002C04D0D8
:10B9700010BD0720FCE70820FAE759745A6100203F
:10B98000F6E7C046A8210020F0B5474680B4374B03
:10B990001C68002C08D0002806D00723042905D8ED
:10B9A000181C04BC9046F0BD0823F9E74369002B3E
:10B9B000FAD00025437CA846012B2FD0EFF3058356
:10B9C000DB05DB0D1025002B2CD164196378A578DD
:10B9D0005E1CF6B2AD1B6F1EBD416D422E40257838
:10B9E000B5421DD05D00EB186568DB00ED1804233F
:10B9F000002DD5D0033B2B7068601D4B1D48C358EC
:10BA0000E960AB60434680212B6180236A611A4A5A
:10BA10005B0049036670D1500023C1E78846CDE73B
:10BA20000423BDE7103BDEB275B2002D13DBAD0879
:10BA3000114EC035AD00AD5903263340DB00DD406B
:10BA40002B069B0FDBB20025012BBED00835032B44
:10BA5000BBD00835B9E70F23084D3340AC46083B4F
:10BA60009B089B0063445D680323E6E7A821002050
:10BA7000040500000010014000E100E018ED00E0C6
:10BA800030B52E4A031C12680820002A2ED0002B45
:10BA90002CD05969002929D000211974EFF30581B0
:10BAA000C905C90D1025002923D155196A78A9782F
:10BAB000541CE4B2091B481E814149420C402978BC
:10BAC000A14214D051008A186968D2008C466244A1
:10BAD0000420002A0AD002215360117080238021A3
:10BAE0000020174A49035B006C70D15030BD042020
:10BAF000FCE71039CCB260B2002813DB8008104C90
:10BB0000C0308000005903242140C900C84001060C
:10BB1000890FC9B200250129C7D008350329C4D02F
:10BB20000835C2E70F2107482140844608398908B3
:10BB30008900614448680321E6E7C046A821002047
:10BB400000E100E018ED00E0F0B5EFF3108172B60F
:10BB50000A4B5A68002A0DD101248025084E5C60EA
:10BB60007459084F3C401C6077510270002900D185
:10BB700062B6F0BD01230370F8E7C046003500202F
:10BB800000E100E0FC06FFBC10B5084B5A68002A33
:10BB90000BD0002809D1EFF3108272B604491C685B
:10BBA0000C605860002A00D162B610BD003500203C
:10BBB00000E100E0033083B230B50920FD2B00D94D
:10BBC00030BD114A1078002806D1548910892018F8
:10BBD000181880B2FF280DD9147C0720002CEFD153
:10BBE000558B148B2C191C19A4B2FF2CE8D80124F6
:10BBF000063801E0002400200C8001015218518910
:10BC000000205B185381DBE70C220020F0B547468B
:10BC100080B443688846002B03D0334A11688B42B6
:10BC200036D200234246138001339C462F49304EC2
:10BC300080234F68DB00FD1800230CE01A680132F6
:10BC400011D09A881C88B24207D0002C05D09A687F
:10BC50000468A24211D0002B17D05A8803329200F8
:10BC60009B18AB42EAD3434662461A8063461031C2
:10BC7000022B36D002239C46DAE743601D4B1B891A
:10BC80000381012004BC9046F0BD3B1C0833E8E76B
:10BC900052689342C5D89A07C3D1164A01891289BE
:10BCA0009142BED1026899688A42BAD10F494A6866
:10BCB000934207D98020C00084466244934201D257
:10BCC00000230AE04A6900209342DBD98021C900A1
:10BCD0008C4662449342D5D2012342460120138010
:10BCE000D0E70020CEE7C0466C2100200C220020C7
:10BCF000FFFF00002C220020F0B54D46444656467A
:10BD00005F46F0B4CC4C89B0256F8146EE00731BC2
:10BD10009B00E218E35C9046062B00D97FE0C74900
:10BD20009A008A589746002800D0EDE0C44F3B7B2C
:10BD3000002B00D1BAE23B783873072B6ED8C14A8A
:10BD40009B00D3589F46002800D0DEE0721B920073
:10BD5000A1188B460979012900D1EBE2002900D115
:10BD6000D2E202295BD1002203AF7A6062E0721B4B
:10BD70009200A218101CB44F0830BB46418909013B
:10BD80008B444946002900D0DEE05A4611895268AA
:10BD900089009146027A8944062A00D9FEE2AB491D
:10BDA00092008A589746002800D0C3E043461F7986
:10BDB000012F00D1DDE2002F00D1CFE2022F00D110
:10BDC000D6E0032F00D0E7E2A14FA24A3968022350
:10BDD000A14801F0B9FB3B689B4A9C46984B9246B0
:10BDE0005B881B01D2185168396061465160B9887F
:10BDF000118102225146BA804A465A5443461A716A
:10BE0000002844D0731B9B00E35C0120934903AFDF
:10BE10000A7882430A700E22924603E006230F221C
:10BE2000924603AF52467A6042461278023A012A9D
:10BE300000D875E0062B05D8894A9B00D3589F4649
:10BE400005233B700025874E7359002B01D0381C09
:10BE5000984704350C2DF7D1236F0021D800C01A64
:10BE6000800020181C22FFF7D3F9636F002B09D044
:10BE70000321226F013B01320A4022676367002BD6
:10BE800000D071E00421754A13788B43137009B018
:10BE90003CBC90469946A246AB46F0BD00233B70A1
:10BEA000D0E70423751BAD003B706519EB88BB819F
:10BEB0000023FB81C6E70323751BAD003B706519AA
:10BEC000EB88BB812B89FB81EB68BB60BAE702235F
:10BED000751BAD0065193B702B89BB81AB88FB815D
:10BEE000EB68BB602B7C063B594259413974A9E78A
:10BEF0000123751BAD003B7065192B89BB81AB8895
:10BF0000FB81EB68BB609DE7062301229246524607
:10BF100003AF7A6042461278023A012A00D989E7D3
:10BF20004246917D504A106C08181064506C411ABA
:10BF300051647FE70121494A03AF13788B431370A3
:10BF40000122012392466DE75946D0880989C21C17
:10BF500051185A4611815946528903AF121A033AB1
:10BF60004A81012292465DE70020FFF7C5FE8EE779
:10BF7000374B01229A461968374801F02DFB53468A
:10BF80004A469F8043461A713AE77B882E4A1B0136
:10BF9000D3189A89002A00D186E2052302223B7039
:10BFA0002B4B2D489A801968013A01F015FB824607
:10BFB0005346002B00D16AE71C236B4303AFE35CBD
:10BFC00030E7234B7A6899881B6889000320C918D9
:10BFD0005388387003339BB21F4801F0B5FA82468C
:10BFE000E6E7731B9F00E3199A461A1D1A480123BE
:10BFF000494601F0A9FA022352461374002800D1E1
:10C0000045E70E2292463B5D5946721B9200A218EC
:10C01000D0880989C21C51185A4611815946528943
:10C02000121A033A4A81114A924500D19BE6F8E67A
:10C030000E4A9246E8E7C0463C220020188D0200D6
:10C040002C220020348D02000C220020548D02008E
:10C05000BC220020088E02006C210020D02200208B
:10C06000708D0200D4220020BC2100201D1D000084
:10C07000082249469146731B9F00E31999444A469A
:10C0800004310123C84801F05FFAE35D033B5942E4
:10C0900059410622531A4A4613720028B1D1F6E6D6
:10C0A000C24BC1485968C24A012301F04DFA002829
:10C0B00000D0F0E10623751BAD0064192374E6E699
:10C0C0000023BA4803AF4360731B9B009A46E318F2
:10C0D0009B69391C0360FFF799FD002800D080E7B9
:10C0E00053460A221B5D92469CE6B248436C002BE5
:10C0F00000D156E10727026C013B4364731B511CBE
:10C100009B003940E71810239A46BA44534601640D
:10C110009988D30089004944814699441A584B466E
:10C12000A1489B8801F010FA4B469A8853469B8899
:10C13000D318524693809379013BDBB29371002B65
:10C1400001D101333B74002800D1A0E6731B9B0092
:10C150000E22E35C924657E74946731B9F00E219A3
:10C160000C3201230831904801F0EEF9E3199B7D70
:10C170000322002B00D1023A731B9B00E1180A74C2
:10C180000028E5D183E68C4A7B8893461B01062272
:10C190005B443A7059688448884A022301F0D4F914
:10C1A000824605E779687888002900D1A1E14A88AC
:10C1B00003329300CA18804B9B46030199465B46A5
:10C1C0004B445B689C468020C000604482425ED243
:10C1D000136801335BD07A4913889A4693888B425F
:10C1E0004CD05346002B49D0764B7A6099881B6817
:10C1F0008900EBE607233B7000237B60714B6A48A4
:10C200001968714A022301F09FF98246D0E63B8902
:10C21000694A01333B81002311787B803B734B4299
:10C220004B41BB72127C53425341FB7201233B7062
:10C23000BB7A002B0BD00023BB725F4B9B469B89C4
:10C24000002B04D15B469B7B002B00D0A3E1FB7A43
:10C25000002B0BD00023FB72574B9B469B8B002B74
:10C2600004D15B469B7F002B00D05DE100233B7037
:10C270007B807B60731B9B00E35C74E55388033316
:10C280009B00D218904202D913680133A4D15B46B7
:10C290004B449B89002B00D07FE661464248012237
:10C2A00001F09AF9042382463B7081E63B78072B24
:10C2B00000D9B3E545499A0089588F4601233B7060
:10C2C000B6E7404A3C4913688B469C467B881B0175
:10C2D000C91848681060604648609088088102214B
:10C2E000918054E7374A7B6859889388CB18033389
:10C2F0009380022378883B70796858E7072B00D930
:10C300008CE5334B9B589F465B46DB6803AF03933A
:10C3100002AB04900590991C381CFFF777FC0A23A8
:10C320009A46002800D0C8E00222731B9B00E31845
:10C330001A713DE6274B1B789B074FD402239A4680
:10C34000254F381C00210822FEF762FF53460A2BB6
:10C3500000D02DE6731B9B00E35C04E5194B1A4AE1
:10C3600019681148022301F0EFF8012342461371C6
:10C3700046E5114B9B461B78022B00D1C4E05B467F
:10C380001B7C022B00D1CDE00223124A11780B4313
:10C39000BB4313700123E6E4012336E50F229246E6
:10C3A00032E61B68FFDEC0466C210020C42200205C
:10C3B000FC8D0200BC2100200C220020088E02000F
:10C3C000FFFF0000BC220020008E02008C8D0200C6
:10C3D000AC8D0200D0220020B42200206F4FBB8819
:10C3E0000093012B15D86E4BAC469B46B246111CF0
:10C3F0006C485A46009B1B01D25C002A0CD00122DB
:10C40000009B009201339BB2BB80022BF1D16546A9
:10C4100056460A239A4694E75B445B688022994615
:10C420003E68D2004A4401930D1CB14605E03960D4
:10C430006619F68889469E4216D04B46002B55D089
:10C440005988033189004944914220D20B68013355
:10C450001DD08B880E88834201D0002EE7D14B88F7
:10C4600003339B00C918EFE701234F484F4A654645
:10C4700001F06AF8002356469A46002801D00E23A0
:10C480009A460122BB881B015B449A735EE7002336
:10C49000291C3B60B3E70621731B9B00E218117453
:10C4A0000E22E35C9246AFE559683F48013201F045
:10C4B00093F8042382463B707AE55A4679683A48F5
:10C4C0008B88D3800B8813810123384A01F03CF814
:10C4D00000239A46002801D00E339A4602AB5B88AF
:10C4E0002F4A1B01D31801229A731DE701990831C5
:10C4F000AAE72B4B9B46030199465B464B445B687E
:10C500001A1C9C4608325EE600231F015B46DB19BD
:10C510005968274A0223244801F016F800235A4696
:10C52000D3556DE40123F0E70122131C79687A806A
:10C5300000292AD04A881B01033292008A185B44E2
:10C540005B6880209946C000484482421AD2136832
:10C55000013317D0134913889C4693888B4208D027
:10C560006346002B05D013487A6081888B000168F0
:10C570002CE5538803339B00D218904202D91368EC
:10C580000133E8D10848494689E65A461B01D218CA
:10C5900052680832D3E70022131CC7E7B4220020F8
:10C5A0000C220020FFFF00006C210020FC8D020007
:10C5B000088E0200BC22002008B5081CFFF79CFB77
:10C5C00008BDC04610B506490C220B78032B05D0D8
:10C5D000044A9C00A050002201330B70101C10BDB7
:10C5E00008220020D4220020F0B556465F464D4672
:10C5F00044460023F0B49F4E8DB0079308930993EF
:10C600000A930B9333789A0711D500249A4D2B592E
:10C61000002B01D007A8984704340C2CF7D1002038
:10C620000DB03CBC90469946A246AB46F0BDDA0739
:10C63000F5D401221343337000F034FF8F4B1F6891
:10C640009B468F4B1C68082398468023DB00E0182C
:10C65000C0231B019C46A44463460293002301931C
:10C660000393884BA0449A46C146BC462268231CCB
:10C67000111E854A914204D121E00433984200D131
:10C68000D9E01A680132F8D08023DB009846029B7B
:10C690004444C14440449C42E8D15B4667461F6025
:10C6A0006B461B790B20002BBAD0062B00D182E001
:10C6B0000B2B00D992E0754A9B00D3589F466368C4
:10C6C000734A934204D0734A934248D0231CD8E75C
:10C6D000039B71491B011A1C0493002390468B5441
:10C6E0000B1C43441F1C5C600223002249463B8113
:10C6F00000920A680223013221D0684A90466246BD
:10C70000A446141C0FE08A68944200D2141C4A8884
:10C71000033295009B189BB249193B8181420BD291
:10C720000A68013208D08A880D88424501D0002D60
:10C73000E9D101220092EAE7231C64469C46564A4E
:10C74000049B90466A46127843449A730222019BE6
:10C7500013430193039B01339BB2039394E7534626
:10C76000022249461C609A800A680223013260D086
:10C770006546A446494F8A880C88BA4205D0002CE9
:10C7800003D08A68954200D2151C4A88033294006F
:10C790009A1893B2524609199380814202D20A68CC
:10C7A0000132E8D16446AC46022B42D00823019AFC
:10C7B0001A43019268E702233278002413430122CE
:10C7C0002D4D934333702B59002B01D007A8984768
:10C7D00004340C2CF7D122E7022305933048436F31
:10C7E000032B12D82F4A526C082A0ED80321026F4D
:10C7F0009A180A40D1008A1A0121920082181170F9
:10C800006946097D01331171436733785A0700D5B2
:10C8100005E70422002013433370FFF76DFAFEE6AC
:10C8200000230593DAE703230593D7E70123059354
:10C83000D4E70423BBE7134B1B680093002B13D0F2
:10C840000225039A1449130188465D54022143448A
:10C8500019815C601449531C9BB24A8003930122E6
:10C86000019B134301930FE70222064B1C609A8041
:10C87000F5E7C046D0220020D42200200422002068
:10C880006C210020BC220020DEC0ADDECC8D020079
:10C89000FE011EF1FF011EF10C220020FFFF00002F
:10C8A0003C220020BC2100202C22002030B5052392
:10C8B00083B000280AD0002908D06B460D1C991DB2
:10C8C000041CFFF7A3F90A23002802D1181C03B0A7
:10C8D00030BD6B46DB88074A1B01D3189A89616813
:10C8E00001329A81296063680C336B600123A37263
:10C8F0000023EBE70C22002010B5052382B00028AE
:10C9000018D06B46991D041CFFF780F90A230028F4
:10C9100010D06B46DA88094B12019A1891890623C8
:10C920000832002906D0A07A002803D0002301395C
:10C930009180A372181C02B010BDC0460C220020CA
:10C9400070B5194B1A780223920701D4181C70BDD8
:10C9500003330028FAD0CA1C92B20433FD2AF5D85A
:10C96000124C2378002B10D166892389F318D31831
:10C970009BB2FF2B09D8002500231B01E418B21835
:10C980006281002305804180E0E7257C0723002D9C
:10C99000DCD1668B258B75195519ADB2FF2DD5D815
:10C9A0000125063BE9E7C046D02200200C220020EA
:10C9B00030B50F4B1A780223920701D4181C30BDF2
:10C9C000002813D002880233022AF7D8094912013D
:10C9D0008A185189448808320D1B032DEED4002398
:10C9E0000339091B518003804380E7E70523E5E70E
:10C9F000D02200200C220020F0B55F4656464D465E
:10CA00004446F0B4824A89B0137802279C0707D4C1
:10CA1000381C09B03CBC90469946A246AB46F0BDD6
:10CA2000002945D00D887B4C0237A542F0D04C88B8
:10CA3000002CEDD04C680F89A046002F00D1DFE01C
:10CA40002468A40736D14546032608350024B44699
:10CA5000994604E063462E6808351E422AD1013407
:10CA6000A742F7D84446FF0004373D1C261D4B461D
:10CA70000024454437880836E419A4B2AE42F9D1FF
:10CA8000E51CADB20927FD2DC2D8634EA946377803
:10CA9000002F08D175893789AC4667444F44BFB22F
:10CAA000FF2F00D8AFE0377C002F05D00727AFE776
:10CAB0000527ADE70327ABE7778BBC46378B674489
:10CAC0004F44BFB2B84645460727FF2DA0D80125E1
:10CAD0002F1C03954D466544ADB200953D016F4650
:10CAE0003F88029575196F816F460D893D71A84683
:10CAF0003D790495494DAC4667462D6801353D604A
:10CB000001950D88464F05954D88BB4649687F6F56
:10CB100006950791B946032F4CD842494546496CC2
:10CB20008A460821491B8A4544D85F4603263F6F41
:10CB300069464F443740FD00ED1B0227AD005D44C0
:10CB40002F70EC800F8B8C8A01992C81E9606946EB
:10CB50008989002469826946097C6C812C744C4661
:10CB6000A97559460134AF80AE824C674146002911
:10CB700031D02C490725096C079E0C1C29495444C7
:10CB80008C464146CF0038212C40E400E146644405
:10CB90008C46F719CC449A46834603E02C1C083691
:10CBA000BE4210D0251C331C03CB03C56445F5D110
:10CBB0004C46F4E7029B08279C46009B66441C1BDE
:10CBC000033C748124E717495346496C5846414455
:10CBD0000C1C14494C64002807D00021019C4160C2
:10CBE000817211490460098901810027590700D524
:10CBF0000EE7042100200B431370FFF77DF807E7D1
:10CC00000024032541E7002503952F1C62E7C04659
:10CC1000D0220020FFFF00000C2200200422002070
:10CC20003C220020BC2100202C220020F0B55646DA
:10CC30005F464D464446F0B4052685B0002A04D030
:10CC4000634C033E23789D0707D4301C05B03CBCE1
:10CC500090469946A246AB46F0BD002900D18AE035
:10CC60000D885C4F0236BD42EFD04F880097002FF1
:10CC7000EBD04E6802960989002917D037680197D2
:10CC8000BF077AD1371C0026B4460336B2460837B0
:10CC9000664690469C4604E052463B68083713427D
:10CCA0006BD10136B142F7D86346424616880196E9
:10CCB00052889346484A944666461268013232606A
:10CCC000464EB146766FB046032E58D808277F1AD5
:10CCD000BC46434EB246766C039666454FD84F46E7
:10CCE0003F6FBC46C444664603273740FE00F71B2F
:10CCF000BF00BC46CC44674602263E706E463D816E
:10CD0000002536887D81BE805E460025FE806E4609
:10CD10003D746546FA60B788A9756F820327AF82B4
:10CD200045464F4601357D6700293DD055462F6C5D
:10CD3000039EBC466644351C07273D40CF00BC46D9
:10CD4000029E3827B44493466246ED0057449C4601
:10CD50005544D146B84600910190131C03E03D1C98
:10CD600008369E4216D02F1C321C03CA03C7454505
:10CD7000F5D14D46F4E7052667E7032665E75946F2
:10CD8000019B184A1B01D3185A890826033A521AE4
:10CD90005A815AE755466D6C6346AC4655465A462D
:10CDA0000099019861446964002806D0002102605E
:10CDB0000D4A416081721289028100265A0700D50E
:10CDC00043E70422002013432370FEF795FF3CE75E
:10CDD000D0220020FFFF0000042200203C2200207F
:10CDE000BC2100200C2200202C220020F0B55F4640
:10CDF00056464D464446F0B4052389B0002804D079
:10CE00006F4F033B3E78B20707D4181C09B03CBCF7
:10CE100090469946A246AB46F0BD002900D1A2E05B
:10CE20000C88684A02339442EFD04A88002AECD03A
:10CE30004B680D899846002D00D1B7E01B689B0711
:10CE400000D092E04246032408320023A4468946DB
:10CE500005E06146146808320C4200D085E00133D9
:10CE60009D42F6D84346ED0004351A1D2B1C494659
:10CE700000254344148808322D19ADB29A42F9D1E5
:10CE800006AB8846041C991D281CFEF793FE021C65
:10CE9000031EBAD141464C48098906AB8A4601684F
:10CEA000DB880131016040460088019102904046D4
:10CEB00040880390206804904046406805904348AD
:10CEC0008446406F8046032851D8414851468146E8
:10CED000406C83460820401A834548D86146096F54
:10CEE0004144081C03210840C100081A03218000A6
:10CEF00060440170694642810422898943828180AD
:10CF00006946049BC58002744546013A828283616A
:10CF10005246634609890135018101998275C160D4
:10CF20005D675346002B34D04B4607221B6C059897
:10CF30005B4413405246D5003822DB004A444B4440
:10CF40004519C846944601968B46029403E0131C8B
:10CF50000830A84214D01A1C011C50C950C26345A5
:10CF6000F5D14346F4E705234FE703234DE7194A7C
:10CF70001B01D3185A89033A521B5A81082344E7EC
:10CF80005B46019E01934B464A465B6C029C5344B0
:10CF900053640023019A6360A3720F4B22601B89C4
:10CFA00023810423334203D000232EE7002567E7C3
:10CFB0001E4300203E70FEF79FFE002325E7C0467B
:10CFC000D0220020FFFF0000042200203C2200208D
:10CFD000BC2100200C2200202C22002070B5164A13
:10CFE00002241378990701D4201C70BD1349023420
:10CFF0008842F9D0124E0434756F032DF4D81149CC
:10D00000496C0829F0D8316F053C69182140CC00E3
:10D01000611A0524890071180C700135043C0C71EB
:10D02000C880002475675907DED4042100200B4313
:10D030001370FEF761FED7E7D0220020FFFF00004B
:10D040003C220020BC21002038B5154A0224137868
:10D05000990701D4201C38BD12480634416F0329BA
:10D06000F8D8114D6D6C082DF4D80325046F0C19F8
:10D070002C40E5002C1B06250131A4000555416715
:10D080000A490878002801D00120087300245907B4
:10D09000E0D4042100200B431370FEF72DFED9E7E6
:10D0A000D02200203C220020BC2100202C22002085
:10D0B000F0B54D4644465F465646F0B49146344A74
:10D0C0008846117883B00222890707D4101C03B068
:10D0D0003CBC90469946A246AB46F0BD4A46002A63
:10D0E00040D0002B3ED09A880192012A38D8294A94
:10D0F000294F9346002294465946019A12018C5CAE
:10D10000002C25D11C6803E01C60A58885422BD02B
:10D11000002C36D0594665880335AD0064198D184A
:10D120006E688021C9008A465644B4420ED22168F6
:10D1300001310BD0A5882188BD4201D00029E3D15F
:10D1400065880335AD006419B442F0D362461A60B5
:10D150000121019A0191013292B29A80022ACBD127
:10D160000A22B3E70522B1E725884545D0D14A46D2
:10D17000A16811601B685360084B1B891381002252
:10D18000A4E759468C186668341C0834C9E7C046C1
:10D19000D02200200C220020FFFF00002C220020C3
:10D1A000F0B544465F4656464D46F0B4314B1C78C8
:10D1B0000223A40706D4181C3CBC90469946A246FC
:10D1C000AB46F0BD002943D0002A41D09388984651
:10D1D000012B3BD8284B294E9C46002399464346B9
:10D1E0001B019A46634654461B5D002B26D11568E9
:10D1F00004E013601C881D1C84422BD0002D32D00B
:10D2000064466B88544403339B00EB1865688024A4
:10D21000E400A3465D449D420ED91C6801340BD046
:10D220009C881F88B44201D0002FE2D15C8803346F
:10D23000A4001B199D42F0D84B46136043460124BD
:10D2400001339BB29380A046022BC8D10A23B2E7D8
:10D250000523B0E79B680B6013684B60084B1B8984
:10D260000B810023A7E7634653445D682B1C0833FA
:10D27000CDE7C046D02200200C220020FFFF000096
:10D280002C220020F0B544465F4656464D46F0B489
:10D29000314B1C780223A40706D4181C3CBC9046D2
:10D2A0009946A246AB46F0BD002943D0002A41D0A2
:10D2B00093889846012B3BD8284B294E9C46002347
:10D2C000994643461B019A46634654461B5D002B14
:10D2D00026D1156804E013609C881D1C84422BD065
:10D2E000002D32D064466B88544403339B00EB1806
:10D2F00065688024E400A3465D449D420ED91C6805
:10D3000001340BD09C881F88B44201D0002FE2D199
:10D310005C880334A4001B199D42F0D84B4613606F
:10D320004346012401339BB29380A046022BC8D10F
:10D330000A23B2E70523B0E79B680B6013684B60D4
:10D34000084B1B890B810023A7E7634653445D68A4
:10D350002B1C0833CDE7C046D02200200C22002031
:10D36000FFFF00002C22002038B50523002807D03D
:10D370000D1C041C00210C22FDF74AFF0023256030
:10D38000181C38BD002805D0002903D003680020F0
:10D390000B6070470520FCE729DF704728DF7047E6
:10D3A00070B50D4C0023626D042A13D00021051CBA
:10D3B0000E1C0320236DD31898424E410132626542
:10D3C0001422704203405343E418201CFDF720FF51
:10D3D00001232C60181C70BDE4220020F0B52F4BF7
:10D3E00085B01D781C1C06231D4255D1043B2B43E0
:10D3F00023702B4B5A6D1F6D1E1C002A4CD014231A
:10D400007B43F3181A79012A05D0022A20D1188902
:10D41000FFF7C4FF12E01A8A598A521AFF2A01DC68
:10D4200092B201E08022520014237B43F318D868A3
:10D430009B68890040185918FFF7AEFF112805D1E5
:10D4400002239D43DB181D43257025E0002823D0CF
:10D450000C2201A80021FDF7DBFE14237B43F31807
:10D460001A79012A0AD0022A0FD1694601220A71CB
:10D470001A895B894A81D31A0B8106E0002269462A
:10D480000A71DA681B8A02928B8114235F43F35975
:10D4900001A89B680921984705B0F0BDE022002053
:10D4A000E4220020F0B55F4656464D464446F0B4AF
:10D4B000214B5F697B1C39D0204B99461B789A46DB
:10D4C000DB072CD41E4B1F4C9846E41A240920D0AD
:10D4D000002301259C4600266D4242460023002081
:10D4E000AB4204D0517B814201D3081C1E1C013386
:10D4F0001032A342F4D1330143441A7B5F6092029D
:10D50000BF1A1F6001239B46DC44A44501D0351C93
:10D51000E3E7012352461A43131C4A4613700020C6
:10D520003CBC90469946A246AB46F0BD80235B05C5
:10D530005F69BF02C0E7C04600100010E022002073
:10D540006C2100207C210020F0B51F1C1F4B041C07
:10D550001B7883B00D1C161C0120DB0711D5002C95
:10D5600011D01B4B01309C420BD31A4B9C4208D26A
:10D57000002A0AD0002D08D0331C2B4306209B071D
:10D5800005D003B0F0BD0220FBE70320F9E72368D4
:10D5900001389D42F5D3BB006268EB189A42F0D384
:10D5A0000138002FEDD001A8FFF7FAFE031C072079
:10D5B000002BE6D00122019B1C60019B1A719E602A
:10D5C000DD601F82FFF70AFF0020DAE7E02200207B
:10D5D0006C2100207C21002070B51E4B041C1B78A0
:10D5E00082B00D1C161C0120DB070ED5002C0ED0BE
:10D5F000194B01309C4208D3184B9C4205D200299C
:10D6000026D0AB050620002B03D002B070BD02204F
:10D61000FBE7236801389D42F7D3B3026268EB1839
:10D620009A42F2D30138002EEFD001A8FFF7B8FEDE
:10D63000031C0720002BE8D00222019BAD0A1C60CE
:10D64000019B1A711D819E81FFF7C8FE0020DCE757
:10D650000320DAE7E02200206C2100207C2100205A
:10D66000002804D0034B5B6D03600020704703204B
:10D67000FCE7C046E4220020F0B556464D4644463D
:10D680005F46F0B49E4E9F4C337885B0256D9A0767
:10D690003FD502285FD0032800D07EE09A4A137855
:10D6A0000133DBB21370032B00D876E00023137034
:10D6B000994601AB181C0C220021AF009846FDF7DB
:10D6C000A7FD7B199B00E3181A79012A00D1E4E039
:10D6D000022A07D1414601220A701A895B89CA8051
:10D6E000D31A8B80404608217D19AD0063599B6891
:10D6F0009847636D013B6365002B03D102213278AB
:10D700008A433270226D551C042D00D1E2E025655C
:10D7100044E004221A4240D09343626D3370002AE1
:10D7200012D00222AF00134333707B199B00E31821
:10D730001A79012A3BD0022A55D11889FFF72EFE0B
:10D74000112846D000284ED105B03CBC90469946E1
:10D75000A246AB46F0BD00239A4652466A4BAF0044
:10D760001A707B199B009946A1444B461B79012BEB
:10D7700061D0022B11D108234B449B464B464A46AD
:10D780001B89013313815B465A465B8801339BB288
:10D79000538092889A4200D187E0636D002BD3D0EA
:10D7A000AF007B199B00E3181A79012AC3D11A8AAA
:10D7B000598A521AFF2A13DC92B27B199B00E31894
:10D7C000D8689B68890040185918FFF7E5FD1128B3
:10D7D000B8D1022233789343042213433370B3E762
:10D7E00080225200E9E701AB181C0C220021984668
:10D7F000FDF70EFD7B199B00E3181A79012A11D061
:10D80000022A07D1414601220A701A895B89CA801F
:10D81000D31A8B807D19AD00635940469B6809215E
:10D82000984791E7002241460A704246D9681B8A10
:10D8300051601381EEE74B46198A5B8ACA1AFF2AA8
:10D8400029DD80225200D3187A1992009146A14412
:10D850004A469BB2538299429FD101AB181C0021CA
:10D860000C229846FDF7D4FC4B461B79012B40D087
:10D87000022B09D10123424613704B461A895B895A
:10D880004146D31A8B80CA807D19AD00635940464A
:10D890009B6800212CE792B2D5E7424649461170B9
:10D8A000D9681B8A516013811CE701AB181C002149
:10D8B0000C229846FDF7ACFC4B461B79012B0DD092
:10D8C000022BE1D10123424613704B461A895B4675
:10D8D0005B88D5E70022002522655FE75246434674
:10D8E0001A705A4652685A604B4642461B8A138148
:10D8F000CAE70023424613704A464346D268F2E71D
:10D90000E0220020E42200203C23002008B5037818
:10D91000022B02D0012B00D008BD4068FDF782FC2D
:10D92000FAE7C04670B50E4C88B023780020002B73
:10D9300014D101A8021C0B4B62CB62C20A4B012519
:10D9400004930A4B04A9069380239B000793FE3B94
:10D95000074AFF3B059500F085FA257008B070BDB9
:10D960003D230020108E020040250020402300208F
:10D970000DD901000FB400B583B004A901C901910C
:10D980000AF090FA03B008BC04B0184770B5161C32
:10D990000C1C8D18002A05DD2078013400F0CEFA29
:10D9A000AC42F9D1301C70BD10B50C1C201C00F02D
:10D9B000ABFA0528FAD0012010BDC046012303426E
:10D9C00015D14210134214D18210134213D1C21048
:10D9D000134212D10211134211D14211134210D13C
:10D9E000821113420FD1C0110FD109487047002096
:10D9F000FCE70120FAE70220F8E70320F6E704201D
:10DA0000F4E70520F2E70620F0E70720EEE7C0463E
:10DA1000FFFF000010B5002819D0002917D0048896
:10DA2000944215D04488944223D08488944222D0D2
:10DA3000C488944221D00489944220D044899442DD
:10DA40001FD0848994421ED0C08990421DD010BD41
:10DA50000022002B06D0012393401A1C0B781A4396
:10DA60000A70F4E7012393401A1C0B7893430B7060
:10DA7000EDE70122EDE70222EBE70322E9E70422CA
:10DA8000E7E70522E5E70622E3E70722E1E7C046EC
:10DA9000F0B544465F4656464D46F0B483B00CACF4
:10DAA0002478002822D0002920D0002A1ED0058802
:10DAB0009D4200D1E1E045889D4200D1E8E08588A3
:10DAC0009D4200D1E6E0C5889D4200D1E4E0058991
:10DAD0009D4200D1E2E045899D4200D1E0E0858988
:10DAE0009D4200D1DEE0C089984206D003B03CBC24
:10DAF00090469946A246AB46F0BD072001238340DD
:10DB00004842DBB2002C5DD103342040904200D962
:10DB1000101C042A00D9B6E0101CDC430D78E4B2D6
:10DB200025400D70012800D1C4E04D7825404D708E
:10DB3000022800D1C2E08D7825408D70042800D0E5
:10DB4000BAE0CD782C40CC7004248242CED0151A95
:10DB5000AC46043DAD080135A946561EAD00A846A9
:10DB6000361A022E19D91F023D1C1E041D432E43D6
:10DB70001F0637438346F8430025002682468B4420
:10DB800058464759504607405846013647510435D4
:10DB90004E45F5D34444C445A8D0DB430819057865
:10DBA000DBB21D400570601C82429FD908180578C1
:10DBB00002341D400570A24298D90C1922781340F6
:10DBC000237093E703242040904200D9101C042ABC
:10DBD00055D8101C0C781C430C70012866D04C786A
:10DBE0001C434C7002285FD08C781C438C70042836
:10DBF0005ED1CC781C43CC700424824200D175E7FE
:10DC0000151AAC46043DAD0801350195561EAD0010
:10DC1000A846361A022E1BD91E021E43B24655468E
:10DC20001F042F4300251E063743BA460026A94687
:10DC30000818574685592F430125AB46019DD94405
:10DC400087510436A945F4D34444C44500D14DE777
:10DC50000D19287818432870601C824200D845E7C7
:10DC60000818057802341D430570A24200D83DE72C
:10DC70000C1922781343237038E700203EE7002474
:10DC80000028BDD0A6E70024002800D15FE744E7C4
:10DC9000012033E7022031E703202FE704202DE79E
:10DCA00005202BE7062029E70224A6E70124A4E7A4
:10DCB0000324A2E7012448E7032446E7022444E7BB
:10DCC00010B5002819D00488944218D04488944292
:10DCD0001AD08488944219D0C488944218D00489F8
:10DCE000944217D04489944216D08489944215D026
:10DCF000C3890020934213D010BD0020FCE700230D
:10DD0000194101200840F7E70123F9E70223F7E76B
:10DD10000323F5E70423F3E70523F1E70623EFE701
:10DD20000723EDE730B50023002935D0D40702D50D
:10DD30000B8883800123940704D55C004D88041967
:10DD4000A5800133540704D55C008D880419A58093
:10DD50000133140704D55C00CD880419A580013374
:10DD6000D40604D55C000D890419A58001339406FE
:10DD700004D55C004D890419A5800133540604D5EF
:10DD80005C008D890419A5800133D21104D05A009A
:10DD9000C989821891800133036030BD30B50478A1
:10DDA00085B0012C19D0022C34D0002C01D005B044
:10DDB00030BD274C274D201C291CFDF779FA00287F
:10DDC00023D0A268E3689A42F1D1032302AA137018
:10DDD000214B101C1B689847E9E743681F4D1978D1
:10DDE000281CFDF751FA002822D1AA68EB689B1A7B
:10DDF000012B25D0A968AA88EB685B1A9A42D6D372
:10DE00000121174800F040FBD1E7281C012100F058
:10DE1000D9FAD6E702AB1C70C36801211048019300
:10DE2000039300F031FB0C4B02A81B689847BEE738
:10DE300002AB1C70084B03901B6802A89847D9E7F7
:10DE400002AB1870044B02A81B689847D2E7C04683
:10DE50005025002044250020482500206025002072
:10DE60004C250020F0B51E1C214B051C89B00C1C54
:10DE70001A600720002906D08A881E480968FDF725
:10DE8000EFF9002801D009B0F0BDA168A2891A48B5
:10DE9000FDF7E6F90028F6D16A46184B684692CBA2
:10DEA00092C292CB92C212CB12C2AB6806932B796C
:10DEB00006775A1E934103756B790E22591E8B41CA
:10DEC0005B421A404275EB780D490293AB7803939D
:10DED0002B7801936B78009300F0E4F90028D2D1FD
:10DEE00000F06AFB0121074800F0CEFACBE7C046FC
:10DEF0004825002060250020502500201C8E0200AF
:10DF00009DDD01004C25002038B50A4C051CA16898
:10DF1000A288E3685B1A9A4204D0201C291CFDF7F2
:10DF2000C7F938BD0448012100F0AEFA0028F4D04A
:10DF30000520F6E7602500204C25002070B50D4D2A
:10DF4000011C281CFDF7A0F9041E01D0201C70BD87
:10DF500000F092FA0028F9D1074E281C311CFDF779
:10DF6000A7F90028F2D1301C012100F02BFA041C83
:10DF7000ECE7C0465025002044250020F0B50028DD
:10DF800020DBFF271B4B03229C463B1C8408C0263A
:10DF9000C0B20240D2009340A4006444B600A55928
:10DFA0009D438B013B409340191C2943A1511F23E2
:10DFB00018401E3B8340C022181C0E4B5200985044
:10DFC0001860F0BDFF260C4A03249446321C0F2330
:10DFD000C0B20440E400A2400340083B9B089B0001
:10DFE0006344DD6995438A013240A240111C2943F4
:10DFF000D961DCE700E100E000ED00E0F0B5444667
:10E000005F4656464D46F0B49C4A87B013680024DC
:10E01000012B00D1AEE09A4B1A68012A00D1B7E07B
:10E02000984B1A68012A00D1C2E0974B1A68012A5E
:10E0300000D1CDE00022954B02921A68012A00D14E
:10E04000D8E023070BD0E30700D5DFE0A30700D516
:10E05000EBE0630700D5F6E0230700D502E1002CD2
:10E0600006DB07B03CBC90469946A246AB46F0BDE5
:10E07000002301270493C03399460126844D7F4233
:10E0800000230393E023DB0000249846231C403345
:10E09000E95C4BB201332CD0C9B24B46081C984303
:10E0A0003B1CC3401E4224D08B0901932B18203304
:10E0B0001B785BB29B00EB589C46002B35D0331C81
:10E0C00083409A46019B032B35D0A023DB059B465A
:10E0D000434682005A44D3580592C022920213400C
:10E0E0001B0C191C53469346029A1A4212D103295B
:10E0F00026D00134042CC9D1039B002BB1D0A2231C
:10E10000A022DB00D205D358029A9A42A9D0049FDC
:10E110000293B5E70229ECD1019B032B16D063468D
:10E12000002BE6D00199E047E3E7019B032BE0D108
:10E13000331C83409A465246049B13430493C4E71E
:10E14000019B032BEBD180239B029B464346059901
:10E15000CB589A4652464F4B134042468B508B58F1
:10E160005A461A43131C42468B50039B0133DBB2C1
:10E170000393D4E7C1214848890041580B4200D19C
:10E1800049E73F4B14601A680134012A00D047E781
:10E19000C12241499200895802220A4200D13FE738
:10E1A00000211960374B14431A68012A00D03CE75C
:10E1B000C12239499200895804220A4200D134E729
:10E1C00000211960304B14431A68012A00D031E74E
:10E1D000C12231499200895808220A4200D129E718
:10E1E0000021144300221960284B02921A68012A68
:10E1F00000D026E700221A6080231B061C43A022C1
:10E20000A223D205DB00D35802931AE7A223224AA5
:10E21000DB00D058D1581E4DC00489032B68C00EB6
:10E22000890F9847A30700D413E71C4B1A4A184DCF
:10E23000D058D158C00489036B68C00E890F984725
:10E24000630700D408E7A323134ADB00D058D15852
:10E250000F4DC0048903AB68C00E890F9847230790
:10E2600000D4FCE60C4A0E4B094DD058D158C004DE
:10E270008903C00E890FEB689847F0E60061004003
:10E2800004610040086100400C6100407C61004076
:10E2900070250020FFFFFCFF006000401405000017
:10E2A0001C050000F0B557464E464546E0B43B4CD1
:10E2B000031CE27E0820002A04D01CBC904699462C
:10E2C000A246F0BD002B67D001221868A12582402C
:10E2D000A020ED00C0054251A94603251A68AA46B0
:10E2E000C132FF329200155000255A68AC46C13247
:10E2F000FF32920015509F69294A2A4D57511D7DC2
:10E30000A84647465D7D3D43274FD5515D681F6850
:10E31000A846264D57514746254D57511D7D012D85
:10E3200019D19F683E1CE0277F00B8464644B700DD
:10E3300066463E50DE68B5404E4685515646DD681D
:10E34000C135FF35AD002E504E46D8689D689051BE
:10E35000A220C00015501A696160226000290DD00A
:10E36000197F0023134A14481360144A1360C12311
:10E370000B4A9B00D0500220FFF700FEA02304218F
:10E38000074ADB00D15000230122E3752376A375F1
:10E39000E276A376002090E7094B95E7B8250020A8
:10E3A00000200040240500006C0500000C05000062
:10E3B000140500001C2100408000020044210040A0
:10E3C0003C8E0200F0B5264A041C937D1120002BE0
:10E3D00000D0F0BD012591752248234993829460B5
:10E3E0000B6005600B60938AE05C938A1F4C0133DD
:10E3F0009BB293821E4BE0505068002801D0002051
:10E40000E7E70027261C1D1C0130FF30947D938A0E
:10E41000A34203D312E0938A834202D00B68002BFD
:10E42000F9D0938A8342F2D00F60938A9468E45CB7
:10E43000938A01339BB293827451E7E78023918AD8
:10E440005B0099420AD008490B68002BFCD00121DF
:10E450000020084B196000239375BAE70F20FAE7F4
:10E46000B8250020082000401C210040002000406A
:10E470001C0500000C200040024B987D431E984173
:10E48000C0B27047B8250020F0B5474680B4444B71
:10E490005A68002A05D08126C224424DB600A40045
:10E4A0002E51DC7D002C0DD01C7E002C1DD0002AAE
:10E4B00000D16EE08121C1233A4A89009B00D150EE
:10E4C00011200FE0D975997ED8605C761C76002902
:10E4D0002BD0002A0DD08121C1230020314A890090
:10E4E0009B00D15004BC9046F0BD18611976002AFB
:10E4F000F1D12D4C2D4D22602A4A2D489046A32261
:10E50000D2009446296806684A1E91412268C9B221
:10E51000571EBA41D2B2002E10D1002A27D10029AD
:10E52000F0D000220320DA75DCE7204A1160204A8F
:10E53000116001211B4A11605A68CAE70029F0D115
:10E54000002A16D1D97D002917D1016062464146C3
:10E550008A585A7ED97D9142D4D80022DA759B7EA2
:10E56000002B18D001220F4B00201A60BAE70029B7
:10E57000D7D100220F20DA75B4E746466146026023
:10E580005A7E7158DE68B1545A7E0132D2B25A7640
:10E59000DFE71120A6E70122064B00201A60A1E761
:10E5A000B8250020002000404421004024210040E4
:10E5B0000821004004200040064A937E002B07D12A
:10E5C00005490B6005490B60054901330B609376E3
:10E5D0007047C046B8250020242100400821004093
:10E5E00000200040C12210B5604B92009A5884B0C0
:10E5F00092054DD55E4A1168002949D0002111606D
:10E600008121C2228900920099505A4B9A7E002A99
:10E6100002D10121584A1160022269460A709021F4
:10E620005248C9004258425069460392DA7D684612
:10E630000A72DA68196801920022DA751A765B6844
:10E6400098474E4A1368002B10D04A4B988A997D00
:10E6500081424FD9002111609A8A9968895C9A8A0F
:10E66000013292B29A82464B404AD150454B1A68C9
:10E67000002A0BD000221A603E4B9A7E002A02D05C
:10E6800001213A4A1160DA7D002A42D104B010BD5E
:10E69000C123364A9B00D3585B07D2D53A490B6851
:10E6A000002BCED0334BD87D00283FD10860A3216A
:10E6B000C90052585A7ED97D9142C2D11A7E002A91
:10E6C00041D19A7E002A02D101212B4A116081207A
:10E6D000C22226498000920088500022684601210B
:10E6E000DA755A7E01700272DA68196801925B6805
:10E6F0009847A6E7002010600029B7D06A4610703E
:10E7000011729A689875196801925B686846984713
:10E71000ACE7002268460121DA755A7E0170027268
:10E72000DA68196801925B689847AFE700200860D3
:10E73000A320C000597E1258D86842545A7E013234
:10E74000D2B25A76B6E7DA751A69D968DA60002269
:10E750006C46587E1A765A760132207201912270E8
:10E76000196868465B6898476BE7C0460020004020
:10E7700024210040B8250020042000401C21004036
:10E780001C0500004421004008210040074B1A6886
:10E790000823520701D4181C7047002804D0044BEA
:10E7A0005B7803600023F6E70E23F4E7A026002041
:10E7B000D4250020A02210B5064BD205D1588023C5
:10E7C0001B041C1CA1208C430B400349C0001450A7
:10E7D000535010BD040500000C050000F8B5C74BF0
:10E7E0001B68DB0700D4F8BDC54A1478172CFAD88B
:10E7F000C449A300CB589F46A022C34BD205D15891
:10E800008023DB031C1CA1208C430B40BF49C000AC
:10E8100014505350BE4B00221B68BE489900C918C3
:10E82000FDF7B2F8DFE7A023F021B84ADB05490481
:10E8300099500021043A9950D5E7A022B24BD20555
:10E84000D1588023DB031C1CA1208C430B40AF4913
:10E85000C00014505350AE4B00221968AD48FDF76C
:10E8600093F8C0E7AC4BA1201968E0235B048B430D
:10E87000A0210026F025C905C000A44C0B50A24BD6
:10E880000E51CB586D046B408025AD032B4000D159
:10E8900020E10D5003230E51082113709C4B0022E0
:10E8A0001B689C485943FDF76FF89CE79A4BA120E1
:10E8B0001968E0235B048B43A0210026F025C905DD
:10E8C000C000924C0B50904B0E51CB586D046B40D6
:10E8D0008025AD032B4000D104E10D5004230E51DF
:10E8E0002821DAE7A023A122E021DB05D200490498
:10E8F0008024995000218548A40319501C50995038
:10E9000071E7864D281CFDF7BBF811231C1B00D1B5
:10E91000C7E0002800D0C4E080237F4E1B04336092
:10E92000012C10D0C8306421604309F009FA784BFB
:10E9300000221B684343281C191CFDF725F8F0230F
:10E9400032685B041340A0227049D2055350A123C2
:10E950000021DB00D15046E76F4BA1211A68F0235C
:10E960005B049343A022C900D20553500021674B9A
:10E97000D15038E7684BA1201968E0235B048B4332
:10E98000A0210027F026C905C000604D0B505E4B4A
:10E990004F51CB58760473408026B603334000D1E4
:10E9A0008EE00E504F51022C00D1A0E028211470AF
:10E9B00074E7A023A122C021DB05D2004904C024B2
:10E9C000995000215148E40319501C5099500AE70E
:10E9D000A023A122D021DB05D20049048024995034
:10E9E00000214A48E40319501C509950FBE6A0232B
:10E9F000F021A122DB054904D20099500021434AAD
:10EA00009950F0E6E022444B52041B68A1219A433E
:10EA1000A023C900DB0580245A5000223B48A403F0
:10EA20001A501C505A50DEE63B4BA1201968E023D7
:10EA30005B048B43A0210026F025C905C000334CA0
:10EA40000B50314B0E51CB586D046B408025AD03FC
:10EA50002B403CD00D500E51052313702C4B00223F
:10EA600019682C484900FCF78FFFBCE62A4BA1200F
:10EA70001968E0235B048B43A0210026F025C9051B
:10EA8000C000224C0B50204B0E51CB586D046B40F4
:10EA90008025AD032B4022D00D500E51062313705C
:10EAA000D9E6F0231C4A5B041168A1200B40A02189
:10EAB000C000C9050B50002314480B50136092E6A8
:10EAC0004E510B50022C15D004211470E6E60D5166
:10EAD0000B50C1E70D510B5002210323DDE60D5110
:10EAE0000B50DBE70D510B5004210423D5E6122116
:10EAF0001470D3E602211470D0E6C046AC26002084
:10EB0000D42600205C8E0200040500000C050000E5
:10EB1000B0260020B4260020A8260020D8260020F9
:10EB2000002303280DD8A223A022DB00D205D2584F
:10EB3000054B8000C0580123834093435A1E9341E4
:10EB4000DBB200200B7070471C8F020070B5DB4BEE
:10EB5000041C1B680020DB0700D470BD172CFCD8F8
:10EB6000D74AA300D3589F46A022D64BD205D158EE
:10EB70008023DB031C1CA1208C430B40D249C00026
:10EB800014505350D14B00221B68D1489900C9182A
:10EB9000FCF7FAFEE1E7A022CA4BD205D158802348
:10EBA000DB031C1CA1208C430B40C749C000145040
:10EBB0005350C64B00221968C548FCF7E5FECCE768
:10EBC000C44D281CFCF75CFF11231C1B00D14CE139
:10EBD000002800D049E18023BF4E1B043360012C84
:10EBE00010D0C8306421604309F0AAF8B74B002266
:10EBF0001B684343281C191CFCF7C6FEF02332682F
:10EC00005B041340A022B049D2055350A123002138
:10EC1000DB00D150A1E7A023F021A122DB054904AC
:10EC2000D20099500021A84A002099501222AB4BE3
:10EC30001A7092E7A023A122E021DB05D20049044B
:10EC4000802499500021A048A40319501C509950C9
:10EC50001322A24B00201A707FE7A023F0219A4ACA
:10EC6000DB05490499500021043A99509B4B002040
:10EC70001C7072E7984BA1211A68F0235B04934340
:10EC8000A022C900D205535000238F4900205350C1
:10EC9000924A137061E7904BA1211A68E0235B044C
:10ECA0009343A0220026F025D205C9008648535080
:10ECB000844B1650D3586D046B408025AD032B4018
:10ECC00000D1E9E055501650022C00D1F1E0282186
:10ECD000824B1C707D4B00221B687D485943FCF71A
:10ECE00053FE3AE7A023F021774ADB054904995007
:10ECF0000021043A99500C22784B00201A702CE71E
:10ED0000A023A122D021DB05D20049048024995000
:10ED100000216D48E40319501C50995014226F4B88
:10ED200000201A7019E76C4BA1211A68E0235B04DC
:10ED30009343A0220025F024D205C9006248535015
:10ED4000604B1550D358640463408024A4032340CF
:10ED500000D199E054501550082103221AE05E4B6F
:10ED6000A1211A68E0235B049343A0220025F0242C
:10ED7000D205C90054485350524B1550D35864041F
:10ED800063408024A403234000D18BE05450282109
:10ED900015500422514B1A709CE7E0224E4B52044E
:10EDA0001B68A1219A43A023C900DB0580245A5087
:10EDB00000224548A4031A501C505A50474B0732B2
:10EDC0001A700020C9E6A023A122C021DB05D200D1
:10EDD0004904C024995000213B48E40319501C50B9
:10EDE000995015223D4B00201A70B6E63A4BA121EE
:10EDF0001A68E0235B049343A0220025F024D20587
:10EE0000C900314853502F4B1550D3586404634008
:10EE10008024A40323403CD05450155005222F4B8E
:10EE20002B481A70294B002219684900FCF7ACFDE9
:10EE300093E6294BA1211A68E0235B049343A022A7
:10EE40000025F024D205C9001F4853501D4B155012
:10EE5000D358640463408024A403234026D0545034
:10EE6000155006221D4B1A70A3E6F0231A4A5B04C4
:10EE70001168A1240B40A021E400C9050B51002317
:10EE8000114C0B51136068E61450535002210322B9
:10EE900080E714505350C1E715505350022C0AD04C
:10EEA000042115E714505350042172E714505350B5
:10EEB000D7E712210CE702210AE7C046AC26002062
:10EEC000BC8E0200040500000C050000B0260020E6
:10EED000B4260020D8260020A8260020D426002012
:10EEE00008B5104B1960104B1860104B1A60C3071F
:10EEF0000BD5A023F022A1210020DB055204C9007C
:10EF00005A500B4958500C315A500A4800210A4AAD
:10EF1000FCF720FD002804D108480121084AFCF72D
:10EF200019FD08BDB0260020AC260020A426002034
:10EF30000C0500002C8F0200DDE70100308F02007D
:10EF4000B5E70100031C0720032B00D97047012AF5
:10EF500013D0012917D0002908D0022919D158004F
:10EF6000C3180D48C3185A700020EFE75800C318A3
:10EF70000948C3189A700020E8E700220129E8D167
:10EF80001A1C0D32D2B258000349C3185A5400203B
:10EF9000DCE70720DAE7C046F8260020E0231D4A18
:10EFA000DB00D2581C4B1A400023C10701D5C023F7
:10EFB0009B021343E0221749D2008B50174B9A58FB
:10EFC000154B1A400023810701D5C0239B02134330
:10EFD000E0221249D2008B50114B9A580E4B1A4026
:10EFE0000023410701D5C0239B021343E0220C49B3
:10EFF000D2008B500B4B9A58074B1A400023010745
:10F0000001D5C0239B021343E0220649D200002011
:10F010008B50704744000050FFFFFCFF4800005039
:10F020004C0000505000005008B50320FFF7B6FF19
:10F03000031C0020002B02D0062B00D0181C08BD9A
:10F0400010B50388102B08D0112B05D1294A13685D
:10F05000013B1360002B07D010BD264C2368002B0A
:10F0600011D001332360F7E7002002210122FFF7CE
:10F0700069FF00282BD0072829D01F4B1B68002BC5
:10F08000EAD09847E8E7002000210122FFF75AFF65
:10F09000002808D0072806D0174B1B68002B00D08B
:10F0A00098472368DDE7012002210722FFF74AFF86
:10F0B000002801D00728EFD1002002210422FFF709
:10F0C00041FF0028EDD00728E6D12368C9E70120D9
:10F0D00002210722FFF736FF002801D00728CCD1F4
:10F0E000002000210A22FFF72DFF0028B4D00728B6
:10F0F000C3D1B1E7082700200427002010B5244B16
:10F1000082B00C1E186018D06B460020991DFFF7C6
:10F1100007FD002801D002B010BD6B460130D91D9B
:10F12000FFF7FEFC0028F6D16B46DB79002B29D1D6
:10F130006B469B79002B28D12370164B1B68002B44
:10F1400001D00020E7E7002002210122FFF7FAFEAC
:10F15000002801D00728DED1012002210722FFF775
:10F16000F1FE002801D00728D5D1002000210A2275
:10F17000FFF7E8FE0028E4D0C31F5A1E93415B420C
:10F180001840C8E702232370D7E70B232370D4E786
:10F19000042700200827002076DF70477ADF7047B9
:10F1A0007CDF7047A8DF704767DF70473CDF704740
:10F1B00048DF704708B5FCF735F808BD08B5FCF71F
:10F1C00031F808BD08B5084B1889084B984206D09D
:10F1D000002107F007F90823021C9A4300D108BD5B
:10F1E000FCF720F8FBE7C046D8280020FFFF00000E
:10F1F00010B5041CFEF740FA201C01F0C9FB10BD3D
:10F2000070B5041C84B002F065F9201C07F06EF89C
:10F210002E4E211C301C02F031FC201C02F008F99B
:10F220002B4D211C281C01F0C5FC201CFFF708FFFA
:10F230002388112B23D013D8022B26D0102B0AD1D0
:10F240000720FFF783FC00283CD1A188301C02F086
:10F25000DBFB002810D1201C01F040FB04B070BD86
:10F26000512B19D0552B01D03A2BF4D128891321D9
:10F27000FFF792FF0028EED0FBF7D4FFEBE700206A
:10F28000FFF764FC0028E6D0F6E728890021FFF7A5
:10F290008BFF0028DFD0EFE7A379002BDBD0A27B28
:10F2A000043A022AD7D8022B00D001236A461370F1
:10F2B000C1235B00938028896946FFF773FF00280C
:10F2C000C9D0D9E7FBF7AEFFBFE7C046B42900209D
:10F2D000D828002008B5011C014801F0AFFB08BD8B
:10F2E000D82800200438C0B210B50B280ED83B4BEC
:10F2F00080001B589F463A4B13211889FFF74CFF9B
:10F300000823021C9A4301D0FBF78CFF10BD344C3C
:10F31000344B22899A42F9D0334B1B78013B012BA5
:10F3200050D9324B1B78013B012BEFD8201CFF2119
:10F3300001F0F0FEE4E701F049FBE1E70020FFF710
:10F3400005FC002835D1FFF76FFE00282ED1FFF70E
:10F350002DFF0028DAD0D7E72148224B02899A42B4
:10F36000D4D0224B1A78022A26D0012A19D00122A1
:10F370001A7001F013FDC3E719481A4B02899A422B
:10F38000C4D0194B1A78022A16D0012A04D00122BF
:10F390001A7001F08DFDB3E700221A7001F0D2FD62
:10F3A000AEE700221A7001F043FDA9E7FBF73AFF30
:10F3B000CDE7FBF737FFC6E7013A1A701120FFF7D8
:10F3C000C5FB9DE7201CFF2101F0E4FE0823021C81
:10F3D0009A43A6D0FBF726FFA3E7C046348F02006E
:10F3E000D8280020FFFF00000C270020342900202F
:10F3F00010B5037882B0022B47D020D9032B0BD055
:10F40000042B07D1828848498A4266D047498A42FC
:10F4100000D16CE002B010BD8388454A934250D0C1
:10F42000444A9342F6D1444C2378012BF2D10D206B
:10F43000FFF78CFB00284DD0FBF7F4FE4AE0002BD1
:10F44000E8D1021C3D4C41880832201C01F0E2FE4C
:10F4500000282DD1201C01F0F5FD00282ED1201C04
:10F4600001F024FE002820D1201C01F097FC002888
:10F4700021D10122304B201C1A7001F019FD002807
:10F4800010D101222E4B1A70C4E700232A4A002013
:10F4900013702B4A1370FFF759FB0028BAD0FBF703
:10F4A000C1FEB7E7FBF7BEFEEBE7FBF7BBFEDBE712
:10F4B000FBF7B8FECEE7FBF7B5FEDAE7FBF7B2FEE7
:10F4C000CDE71F4C2378012BA4D10E20FFF73EFB84
:10F4D0000028B1D1022323709CE7027A110716D4C9
:10F4E000D20697D5012201A90A704B7008E00822C4
:10F4F000017A0A4011D0002301A90B7003334B702D
:10F500000E4801F05FFD002800D183E7C7E7012323
:10F5100001A90B7002334B70F2E7C90600D479E7FA
:10F5200001A90A704B70EBE7482A0000472A000047
:10F53000452A0000462A000034290020D82800204F
:10F540000C27002000B5037883B00E2B05D81B4A8A
:10F550009B00D3589F4606F057FF03B000BD80685C
:10F560000028FAD0FBF75EFEF7E7808806F084FFFC
:10F570001128F5D1F1E70020FBF754FEEDE74289B1
:10F580000F4B9A42E9D10121408806F02BFF0AE097
:10F59000002301A90B70408806F032FFDDE7FDF77C
:10F5A00053FD0E28D9D00823021C9A43D5D0D9E7A1
:10F5B000032001F033F80028CFD0D3E7648F020096
:10F5C0000610000008B5012821D0002811D003281A
:10F5D00007D0042804D10420FFF7B8FA002805D189
:10F5E00008BD0220FFF7B2FA0028F9D0FBF71AFE97
:10F5F000F6E70020FFF7AAFA002811D1FFF714FD63
:10F6000000280AD1FFF7D2FD0028E9D0EEE7052057
:10F61000FFF79CFA0028E3D0E8E7FBF703FEF1E7E9
:10F62000FBF700FEEAE7C04670B59AB0FEF77AF93C
:10F63000002801D0FBF7F6FD00200521984A0023A1
:10F64000FCF716F9002801D0FBF7ECFD95480021E6
:10F65000954AFCF77FF9002801D0FBF7E3FD012074
:10F660009249934AFFF73CFC002801D0FBF7DAFDF2
:10F670000CAC0020211CFFF741FD002801D0FBF756
:10F68000D1FD03AD8B490422281C267808F0F9FB34
:10F69000281C89494822002308F092FA002801D04A
:10F6A000FBF7C0FD00200121221C08F0F3FA00281E
:10F6B00001D0FBF7B7FD814808F004FB002801D01A
:10F6C000FBF7B0FD201C08F007FB002801D0FBF77A
:10F6D000A9FD7B4808F0B2FA002801D0FBF7A2FD93
:10F6E000784808F0B5FA002801D0FBF79BFD06F03A
:10F6F0000FFE002801D0FBF795FD022E00D1C6E0D9
:10F7000000210522201CFBF783FD012381222178A3
:10F71000201C1943114030220A437F210A402270E5
:10F720000722022162700932A270E2781A430A436A
:10F73000E270227913430B43237106F041FE002847
:10F7400001D0FBF76FFD604806F026FE002801D0CF
:10F75000FBF768FD0F2101222B785C4E8B4313438E
:10F7600010220B401343301C2B7008F093FB311C0C
:10F7700082B2281CFFF714FD002801D0FBF752FDD0
:10F780000822201C0021FBF743FDC822C823920059
:10F79000628000225B00201C2380A280E380FFF7B0
:10F7A000FDFC002801D0FBF73DFD00213822201C84
:10F7B000FBF72EFD0223237004330122E3700023A4
:10F7C000A270EB60AB612A732A76C822282112014D
:10F7D000EA61B42229610A39238263616B60AB60FC
:10F7E00069612A6203930093201C00212A1C384B74
:10F7F00000F070FE002801D0FBF714FD354802F040
:10F8000083F8002801D0FBF70DFD00211022201CF9
:10F81000FBF7FEFC304D0021281C1222FBF7F8FC00
:10F820002E4B2F480C931223A3602E4B211CE56016
:10F83000636001F05DFA002801D0FBF7F3FC1C22A5
:10F84000201C0021FBF7E4FCA02292026260F0225F
:10F8500000231203A26003220C93E3816361224B15
:10F860002273201C023A2274A36101F0A5FD002836
:10F8700001D0FBF7D7FC032000F0D0FE002803D115
:10F88000FFF796FC0028FBD0FBF7CCFCF8E706F06E
:10F89000C5FD002800D133E7FBF7C4FC30E7C046C4
:10F8A00010270020A48F0200C5F10100CD0C00003C
:10F8B000E5F20100A08F02006C290020E81F002063
:10F8C00001F20100F1F1010045F50100A88F0200ED
:10F8D000C5F50100D5F2010038290020F1F301003F
:10F8E000D8280020B5F10100BDF1010071DF70479B
:10F8F00072DF704779DF70477DDF704765DF7047E3
:10F90000F0B50488051C83B00720012C04D01488AE
:10F91000A01C984202D90C2003B0F0BD2E78012E15
:10F9200004D16E7802363619B342F4D3023B1C1B65
:10F930006B460F1CA4B20818991D161CDC80FFF73B
:10F94000DBFF0028E8D12B78022B18D0012B11D037
:10F95000231C0821FE2BDED83288581CB85432886C
:10F960000020013292B23280B954328801329B18A1
:10F970003380D1E76B789C42EBD2231CE9E76B46DE
:10F98000DB8809219C42E5D2231CE2E7F0B55F4603
:10F99000564644464D46F0B485B09A460EAB80CBF1
:10F9A000061C1B8800919B463B8890460193038868
:10F9B000002B5BD00023994602AB0024DD1C03E042
:10F9C00033880134A3422ADD7368A1009C460422D7
:10F9D000614403A808F055FA03A8291C0022FFF788
:10F9E0008DFF002826D12B784345E9D14B46002BCB
:10F9F00027D043463A88D3185B4539DC524403A8E4
:10FA0000291CFFF77BFF002814D13B882A7801349A
:10FA1000D3183B80012399463388A342D4DC4B465C
:10FA2000002B23D03B88019A013B9B1A9BB20C20F0
:10FA3000FF2B18D905B03CBC90469946A246AB4670
:10FA4000F0BD42463B889A1802325A4510DC69469E
:10FA50005246013309789BB23B80D1543A88013237
:10FA600092B23A80CAE7111C524653540020E1E793
:10FA70000C20DFE7F0B55F4656464D464446031C72
:10FA80000020F0B417881080586B87B0002800D190
:10FA90006FE10478022F18D9022011250870108810
:10FAA000013080B210800D541088013080B2108077
:10FAB0000C5414880134A4B21480186B002800D1AF
:10FAC00077E0251C1235BD4207D90C2007B03CBC9D
:10FAD00090469946A246AB46F0BD11250D551488B7
:10FAE000013D0134A4B214800D5514880134A4B230
:10FAF0001480C57B0D5514880134A4B21480857B15
:10FB00000D5514880134A4B21480457B0D5514881A
:10FB10000134A4B21480057B0D5514880134A4B2BD
:10FB20001480C57A0D5514880134A4B21480857AE6
:10FB30000D5514880134A4B21480457A0D551488EB
:10FB40000134A4B21480057A0D5514880134A4B28E
:10FB50001480C5790D5514880134A4B214808579B8
:10FB60000D5514880134A4B2148045790D551488BC
:10FB70000134A4B2148005790D5514880134A4B25F
:10FB80001480C5780D5514880134A4B2148085788A
:10FB90000D5514880134A4B2148045780D5514888D
:10FBA0000134A4B214800078085514880134A4B23A
:10FBB00014802E201D5C002D00D0DCE01E1C2D23A7
:10FBC000F35C151C8846002B00D0F7E0B378002BBF
:10FBD00000D024E1F378002B16D0E21CBA4200D901
:10FBE00073E70222414640460A5501212A88013224
:10FBF00092B22A8081542A88013292B22A80835498
:10FC00002C880134A4B22C807368002B16D01A788B
:10FC1000E31CBB4200D958E70223414640460B553E
:10FC20000A212B8801339BB22B80C1542B880133CE
:10FC30009BB22B80C2542B8801332B803389002B3D
:10FC400000D010E1338A002B00D076E1338B002BFB
:10FC500000D08BE1336A002B4AD02A880C20911DFA
:10FC6000B94200D932E7198805388B46052900D8F2
:10FC70002CE7CC4C5C44A4B2A146CB4CA446A14595
:10FC800000D823E75C88A246052C00D81EE7C54CA7
:10FC90006946A146D1444C46CC81CC89644500D804
:10FCA00014E7C24CA34504D0A24502D0D34500D9E5
:10FCB0000CE70521404681542A880D31013292B269
:10FCC0002A8081542A88013292B22A8019884244BB
:10FCD0001170090A51702A88023292B22A8059881A
:10FCE000131C43441970090A59702B8802332B8066
:10FCF000746A002C32D0A2882988131D5B180C204E
:10FD0000BB4200D9E2E6931CFE2B00D9DEE6434657
:10FD100003325A54FF2241462B8801339BB22B8079
:10FD2000CA542B8801339BB22B80228843441A701B
:10FD3000120A5A702B8802339BB22B80A288002AA9
:10FD40000CD0A1680538002900D1BFE64344181C37
:10FD500008F097F82A88A388D3182B802C23F35C0B
:10FD6000002B00D098E03378002B00D0DEE000209C
:10FD7000ACE60024A1E6E61C2238BE4200D9A5E686
:10FD800002260E551C241088013080B210800C54BD
:10FD90001088013080B21080022D00D10FE100D810
:10FDA00006E1032D00D108E1042D00D0F7E0032483
:10FDB0000C5414880134A4B21480FFE609340C20DA
:10FDC000BC4200D982E604A8FFF790FD002800D0CD
:10FDD0007CE6414608222B88CA542B881332013313
:10FDE0009BB22B80CA5402AB9C4609212888153A45
:10FDF000013080B228806144404408F042F82B88EA
:10FE000002AA0633127A9BB22B80002A00D001226C
:10FE10004146CA542C880134A4B22C80D6E604345E
:10FE20000C20BC4200D951E604A8FFF763FD00286E
:10FE300000D04BE6032241462B88CA542B88163249
:10FE400001339BB22B80CA542B8802AA01339BB288
:10FE500012892B8043441A70120A5A702C8802347B
:10FE6000A4B22C80B6E6341C083400950197201CFF
:10FE7000022102224346FFF789FD002800D025E633
:10FE800000950197201C062110224346FFF77EFDB6
:10FE9000002800D01AE6D5E6B46A002C00D17EE036
:10FEA000A3880233FE2B00D90FE6002291461632BA
:10FEB00092461632288893460BE04B465C00B36AA4
:10FEC0004C449C46A4006444A3880233FE2B00D912
:10FED000FBE542465146013313542B8801339BB254
:10FEE0002B80D1542B8801339BB22B802288434432
:10FEF0001A70120A5A702888023080B22880A288AC
:10FF0000002A0AD0A168002949D0404407F0B9FF6F
:10FF10002888A388C01880B228804B460133DBB202
:10FF200099465B46F35C4B45C7D81CE7301C4146FD
:10FF30002A1C3B1CFFF7E4FCC8E5341C1034009578
:10FF40000197201C032102224346FFF71FFD0028D2
:10FF500000D0BBE500950197201C072110224346E5
:10FF6000FFF714FD002800D0B0E56FE6341C18340C
:10FF700000950197201C142102224346FFF706FD3D
:10FF8000002800D0A2E500950197201C1521102221
:10FF90004346FFF7FBFC002800D097E55AE6072010
:10FFA00094E5C0467FF3FFFF7DF30000FFFF0000F4
:10FFB000012DF4D100240C54FBE60E54F9E6012483
:10FFC0000C54F6E6F0B54E46574645461F23E0B4BE
:10FFD00096B002AA041C0E1CD381002800D171E047
:10FFE000C3785B0767D5002302AA9381436B002B7C
:10FFF00000D13EE11B78022206ADAB70032303273C
:020000022000DC
:10000000052104202A700F326A7002AA9381226BA4
:10001000002A3AD0112306ADEB55013B2B54D37B7C
:100020006B54907B4B1CE854507B8B1CE854107B2A
:10003000CB1CE854D07A0B1DE854907A4B1DE85441
:10004000507A8B1DE854107ACB1DE854D0790133D7
:10005000E85490790133E85450790133E854107929
:100060000133E854D0780133E85490780133E854F0
:10007000013302A883815078E854013302A88381B8
:100080001278EA54013383819BB22E22A25C002AAB
:1000900000D0F1E12D22A25C002A00D011E1A2786B
:1000A000002A00D03DE1E278002A35D0D91C1F2972
:1000B00025D90C2000E0072016B01CBC90469946BC
:1000C000A246F0BD002502AB9881002E00D1D4E0FD
:1000D000F378002BEFD102AA94460E236344301C20
:1000E0000EA91A1CFFF7C6FC0028E5D102AB9B7BCA
:1000F0000EAA02A9097B281CFFF7FAFBDCE7022005
:10010000012706ADE854581C02339BB280B22F542D
:10011000EA548BB202AA93816268002A0FD0107849
:10012000DA1C1F2AC5D802210A2706ADE954591C3A
:1001300002339BB289B26F54E85402AB9A8123898F
:10014000002B00D09EE0238A002B00D00AE1238BF5
:10015000002B00D025E1236A002B43D002AA92890C
:100160000C20911D1F29A7D81888824655460720C4
:10017000052DA1D9D24D5544ADB2AC46D14DA846BE
:10018000AC4599D95D88A946052D00D894E7CC4D9A
:100190006F46AC46CC446546FD81FD89454500D897
:1001A0008AE7C94DAA4504D0A94502D0CA4500D95D
:1001B00082E70520122706ADA854501C80B22F54A8
:1001C000901C80B202AFB8811F88281807703F0AC0
:1001D000477004325B8892B2AD182B701B0A6B70AB
:1001E00002AB9981676A002F2FD0BB880C20991C25
:1001F00002AB9B899A1C55181F2D00D95CE7FE297C
:1002000000D959E706AD0131E954591C89B2F330E0
:10021000685492B202A98A813988AA1804331170ED
:1002200098B2090A02AB51709881BA88002A0CD0A2
:10023000B968002900D13EE7281807F022FE02AB7A
:10024000BA889B89D31802AA93812C23E15C0029E8
:1002500000D0C5E006AD2378002B00D135E7201C87
:10026000291C05AA1F23FFF74BFB002800D12CE710
:1002700022E7002702210120C9E602ABDE8100222D
:10028000002336E705AB271C00931F23083706AD74
:1002900098460193381C022102222B1CFFF776FBA3
:1002A000002800D008E705AB00934346381C0193B3
:1002B000062110222B1CFFF769FB002800D0FBE66B
:1002C00041E709330C201F2B00D9F5E60EA8FFF7F4
:1002D0000DFB002800D0EFE6082202AB9B8906AD9B
:1002E000EA545A1C023398B21B2102AB9C4692B2CC
:1002F000A9541631988161440622281807F0C1FDDF
:10030000302002AB02A99B89091809789A1D92B284
:10031000002900D001210733A9549BB202AA93817E
:10032000BDE604330C201F2B00D9C5E60EA8FFF74D
:10033000E1FA002800D0BFE60322192102AB9B8915
:1003400006ADEA545A1C92B2A95402AA118E9A1C04
:1003500092B2AD18043329709BB2090A02AA6970DF
:100360009381A0E605AB271C00931F23103706AD31
:1003700098460193381C032102222B1CFFF706FB31
:10038000002800D098E605AB00934346381C019343
:10039000072110222B1CFFF7F9FA002800D08BE66A
:1003A000D5E605AB271C00931F23183706AD9846EA
:1003B0000193381C142102222B1CFFF7E7FA0028B6
:1003C00000D079E605AB00934346381C0193152114
:1003D00010222B1CFFF7DAFA002800D06CE6BAE6F0
:1003E000A76A002F00D166E6BB880233FE2B00D936
:1003F0005FE602AA90890022904616329146163294
:10040000924606AD4A4601332B54431C9BB2EA5434
:10041000831C9BB202AA93813A88EB181A700430AD
:10042000120A5A7080B202AB9881BA88002A0FD0A3
:10043000B968002900D13EE6281807F022FD02AB7A
:100440009B89B888C01880B202AB98815346E15CA2
:1004500043460133DBB298468B4200D3FBE643466A
:100460005F00A36A47449C46BF006744BB880233D1
:10047000FE2BC7D90C201FE602201C27591C06ADF5
:1004800089B2E8546F54191889B282420CD010D93D
:10049000032A0CD0042A00D00DE603226A54033349
:1004A0009BB202AA9381F5E501226A54F7E76854EA
:1004B000F5E7012A00D0FEE500226D182A70EEE76C
:1004C0007FF3FFFF7DF30000FFFF000073DF704745
:1004D00074DF7047F8B5051C0E20002D00D17DE0BB
:1004E000002A00D17AE000200F1C3D4908703D49E8
:1004F0000B6006993C4B19603C490B1C13CA13C393
:1005000013CA13C313CA13C3002107223848FAF7CA
:100510007FFE384B384A394E1A60394A00219A60BA
:10052000301C3822FAF774FE2B782A1C3370AB7813
:100530001032B370EB78F3706B787370331C103338
:1005400003CA03C3331C103A083303CA03C3331C62
:100550000832183303CA03C36B6A002B11D0294B2E
:10056000294C7362696A9C600A881A80888898801E
:10057000002806D000238A68D25CE254013383420B
:10058000F9D1AB6A002B14D0204B2148B362A96A81
:1005900098608C889C800A881A800023002C05D0E3
:1005A0008A68D25CC2540133A342F9D12C23EA5C9D
:1005B000F2542B6A002B06D0164B33622A6A5188FC
:1005C000598012881A806B68002B03D0124B73601D
:1005D0006B687360301C391CFFF7F4FCF8BDC04633
:1005E000702C0020A42B0020CC2B0020D82B002026
:1005F000D02B0020202C0020FC2B0020602B002082
:10060000502C0020982B0020AC2B0020782C0020B0
:10061000302C0020742C00201C2C0020002370B5EE
:10062000A34C86B0207068460093FEF7AFF8082808
:1006300000D1FCE0002833D1009B002B30D19D4E2F
:100640000021301C0722FAF7E3FD9B4D6B78002B4D
:100650002CD1AB78002B00D09FE02378012B00D168
:10066000B1E0022B00D1CBE02A7B002A31D1032B51
:100670002FD1042323702B7E002B00D170E08F4BF1
:100680001A68002A2FD02B78002B2CD08C4B1B788B
:10069000002B28D101218B4B07201970904725E0B2
:1006A00001220020884B1A7006B070BD2378012B00
:1006B00004D0AA78002A74D0022BD5D17F4A1268C0
:1006C000002A00D1F0E00121804B082019709047EA
:1006D000C3E72A7E002A41D0784A1268002A02D055
:1006E000033B012BCFD90022764B1A7018226846A3
:1006F0000021FAF78DFD00236A46137013722278E9
:1007000001930393022A00D1C1E02ED9032A00D11C
:1007100094E0042A1FD16B46AA8B1A822A8C5A8233
:100720006B4B1A79002A47D02A78002A47D0644AAE
:100730001278002A43D169460393042302326548A4
:100740000A720021C370FFF73DFC0028ACD10622DD
:10075000614B1A702278002A16D00FE0042BBBD10F
:1007600000235D4A23701370BDE7012AF3D1694667
:100770004B820B82584B01960A701A706846FFF73D
:10078000A5FE002800D08FE74C4B1B68002B02D041
:10079000514A10789847002086E72378012B8BD1A7
:1007A0008CE7022B00D05FE7032323702B7B002B09
:1007B00000D15EE703238FE71A7B002AB4D104221D
:1007C000454B1A70DAE76A78002A17D07278002A47
:1007D00000D081E7B278002A00D07DE7F278002AC5
:1007E00000D079E73279002A00D075E77279002AC3
:1007F00000D071E7B279002A00D06DE702232370A0
:10080000AB78002BD0D07378002B0ED1B378002BAF
:100810000BD1F378002B08D13379002B05D17379F4
:10082000002B02D1B379002BBED0022354E76846D7
:10083000FCF716FF002800D1FEE600E76B46AA8A07
:100840005A822A8A1A82224B1A79002A18D02A78C8
:10085000002A18D01A4A1278002A14D16946039344
:10086000042302321B480A720021C370FFF7AAFB5F
:10087000002800D018E70522174B1A7022786AE783
:100880001A7B002AE3D10322134B1A7076E7012367
:1008900069460B706B4629890196598269466B68D7
:1008A0000B820D4B1A7069E708490A70D6E6C046FC
:1008B000702C0020D02B0020D82B0020A42B00204F
:1008C000CB2B00204F2C0020A82B0020712C0020C7
:1008D000202C0020602B0020842C002008B50388E9
:1008E000112B20D01B2B09D0102B00D008BD837DED
:1008F000012BFBD18288204B1A80F7E7027A002A6D
:10090000F4D11E4B1B78022B30D027D9032B1DD0DE
:10091000042BEBD11A4B1A701A4B1B68002BE5D035
:1009200000209847E2E70022174B1A70124B82888A
:100930001B889A42DAD10120FFF770FE0028D5D03B
:10094000124B1B68002BD1D09847CFE70C4A0420EC
:100950001370FFF763FE0028F2D1C7E7012BC5D162
:100960000220FFF75BFE0028EAD1BFE70320FFF774
:1009700055FE0028E4D1B9E7E4200020702C0020C7
:10098000842C0020A42B0020CB2B0020CC2B00207B
:10099000023808B5012803D8094B1A78002A00D17B
:1009A00008BD00221A70074B1878FFF737FE0028A1
:1009B000F6D0054B1B68002BF2D09847F0E7C046F5
:1009C000A82B0020702C0020CC2B002070B5144BDD
:1009D0001B78002B20D0134D2B78002B1CD1124EEE
:1009E0003378002B03D0FFF773FD041E15D10123CC
:1009F0000E482B7000210533C370FFF7E3FA041E85
:100A00000BD13078FFF70AFE002805D0084B1B6891
:100A1000002B01D0984700E00024201C70BDC04688
:100A2000D82B0020CB2B0020702C0020602B002026
:100A3000CC2B002096DF704798DF7047F0B54E460C
:100A400045465746E0B40E1C94B050228046002123
:100A50006846FAF7DDFB6A467388538001231370FA
:100A60003378002B05D173684A4A1B021B0A934254
:100A700009D0434668461B68984714B01CBC904692
:100A80009946A246F0BD327A0025002A23D0424B77
:100A9000424F9A46424B994642496C008C46631934
:100AA0009B00F318DB8963449BB2042B0FD89B0097
:100AB000FB589F465046FCF75DFF1A2061198900DC
:100AC00071180A220E31684407F0DBF9327A0135D9
