:020000021000EC
:10B0000000400020612F0200A12F0200A32F0200A8
:10B010000000000000000000000000000000000030
:10B02000000000000000000000000000A52F02004A
:10B030000000000000000000A72F0200A92F02005E
:10B04000AB2F0200AB2F0200C1CA0100AB2F0200E0
:10B05000AB2F020000000000D9C40100AB2F02009A
:10B06000AB2F0200AB2F0200AB2F0200AB2F020070
:10B07000AB2F0200AB2F0200AB2F0200AB2F020060
:10B08000AB2F020035B50100AB2F0200AB2F020041
:10B0900011B60100AB2F0200D12E0200AB2F02002F
:10B0A000AB2F0200AB2F02000000000000000000E8
:10B0B0000000000000000000000000000000000090
:10B0C00010B5064C2378002B07D1054B002B02D07E
:10B0D000044800E000BF0123237010BD08210020B8
:10B0E000000000005845020008B5084B002B03D0B3
:10B0F0000748084900E000BF07480368002B00D15B
:10B1000008BD064B002BFBD09847F9E70000000074
:10B11000584502000C2100200421002000000000FE
:10B12000164B002B00D1144B9D46402292029A1AD6
:10B13000924600218B460F461348144A121A00F01B
:10B1400067F80F4B002B00D098470E4B002B00D018
:10B1500098470020002104000D000D48002802D06F
:10B160000C4800E000BF00F02DF82000290003F09B
:10B17000F9FF00F011F8C046000008000040002070
:10B18000000000000000000008210020B42E002074
:10B190000000000000000000084B10B5041C002B4C
:10B1A00002D0002100E000BF054B1868836A002B25
:10B1B00000D09847201C00F033F8C0460000000083
:10B1C000904102000E4B70B500251E1C0D4CE41A78
:10B1D000A410A54204D0AB00F35898470135F8E716
:10B1E00008F0C8FF084B00251E1C084CE41AA410E8
:10B1F000A54204D0AB00F35898470135F8E770BD7D
:10B20000FC200020FC200020FC2000200021002049
:10B21000031C8218934202D019700133FAE7704779
:10B22000FEE7C046F8B54D465F4656464446F0B484
:10B23000224B1978994600292AD0214B002598469F
:10B24000204B214F01269A4603E00135EDB28D4295
:10B250001ED243461B68321C9C46EC006444207896
:10B260003B6882401342F0D093433B6001F02AF9DF
:10B27000331C22785146934009680B40011C9140D1
:10B280008B420BD04B4601351978EDB28D42E0D39D
:10B290003CBC90469946A246AB46F8BD61686378CF
:10B2A0008B460029EED0591E4C424C41211A4B428C
:10B2B0004B41101CD9B2D847E4E7C0462C210020EE
:10B2C000282100205021002054210020F8B5124DE3
:10B2D000071C281C00F0C8FC002807D10124BC4032
:10B2E0000E4E3368234202D0A3433360F8BD381CAE
:10B2F00001F0E8F80A4A136800280BD023431360D2
:10B300003368281C1C43074B00221968346000F086
:10B310002FFCEBE7A343F2E730210020542100206B
:10B320005021002024210020F0B54F464646C0B4ED
:10B33000141C071C83B00E1C0720042A04D803B079
:10B340000CBC90469946F0BD00F0B0FF00282FD00D
:10B350001A4B1B4A1F601B4B751E1E701A4BEDB219
:10B360001C6000231360194A1360002E1AD0184B7A
:10B3700001AC994603230026984600E01D1C424676
:10B38000EB00FB182270A670E6709A78187862704D
:10B39000211C4A4600F094FF0028D0D16B1EDBB27E
:10B3A000002DEBD100210B4A0B4800F0C7FBC6E78C
:10B3B00000F048FF0028CBD0C1E7C046282100207C
:10B3C000502100202C210020242100205421002085
:10B3D000CDB2010025B201009441020070B5094DC3
:10B3E0002B78002B0BD00024074E3268E300985CCA
:10B3F000012101F013F82B780134A342F5D8002085
:10B4000070BDC0462C21002028210020002300B55B
:10B4100085B001AA9060002103481380536000F0BA
:10B4200005F805B000BDC04601400000BFF34F8FD6
:10B43000034A044BDA60BFF34F8FC046FDE7C046B6
:10B440000400FA0500ED00E010B500290DD0092335
:10B45000002A01D1181C10BD541E2240FAD182606E
:10B4600001608480C2600023F4E70E23F2E7C04647
:10B47000031C10B59C888068DA68121A0420944274
:10B4800000D210BDDA68002014401A681155DA683D
:10B490000132DA60F5E7C04610B58468C268031C63
:10B4A0000520944209D098689A8802401868825C06
:10B4B00000200A709A6801329A6010BD80218023B2
:10B4C000184A8902D1508022D221174B520289009A
:10B4D0005A5040395A5001222F205A600138C04634
:10B4E000C046C046C046C046C046C046C046C0462C
:10B4F000C046C046C046F1D19A6000230B4A2F20B7
:10B5000013600138C046C046C046C046C046C0466B
:10B51000C046C046C046C046C046C046F1D1044AF7
:10B520001370704700E100E0001001405821002036
:10B5300078210020A021F0B5002347462B4A49007E
:10B5400080B453500431535004315350043153509C
:10B550004C39535004315350254B1B68002B35D0C8
:10B560002449002652582449244F0C68141B0022F9
:10B570002402240A904602E0002D18D02B1C1A68E1
:10B58000A24214D8A41AB6181A7CDD69002AF3D096
:10B59000424699691A745A693B68002B19D0101CED
:10B5A00098470028E8D0FFF731FF002DE6D1144B73
:10B5B00014491A780B789A420ED0134A9B009E5079
:10B5C00080218023114A49035B00D15004BC90467E
:10B5D000F0BD081C9047CFE70132D3B2022B01D057
:10B5E0000B70EAE700230B70E7E7C046001001404C
:10B5F0005C2100200405000058210020602100206B
:10B600006C2100206D2100207021002000E100E06D
:10B61000F0B55F4656464D464446F0B4B44BB54A85
:10B620001B68B54989B0019309781378994200D114
:10B63000B1E10133DBB2022B00D100231370AF4A1A
:10B640009B009B58AA4A9946019B4B441B021B0A2C
:10B65000136001230493AA4B00241B689B46A94B4B
:10B66000D8461B781A1C0293A74B944607931B6875
:10B6700003939F4B1B680693A44B1B7805935B4673
:10B680006646013EF2B29446FF2A4FD06246D00091
:10B69000039A9246504401784578A942F0D04A0076
:10B6A0005218877801314668C9B27F1AB2467E1EA9
:10B6B000B741D2007F42524439401778022F0AD056
:10B6C000032FEAD1002BE8D01C74DB69002BFBD1DF
:10B6D00045789846E1E75668002B25D09E421AD05F
:10B6E0001F1C00E0171CFA69002AD6D09642F9D137
:10B6F000321C3D1CBE4200D1EBE01768D269EA6102
:10B70000002A06D013689A46574417604578434686
:10B71000C3E74578C1E7DE691A1C002E00D1DDE0E1
:10B72000B046331C151CE8E70023B6E76946774AA4
:10B73000097D181C11706E4A0699039311604146E9
:10B740006F4A1160049A002A00D028E15B461B1A58
:10B750005A1E93410025DBB20493079B00271B6808
:10B76000039E0693624B1B689C46654B1B689A467A
:10B77000664B1B780593664B019301239846029B09
:10B78000013BDBB20293FF2B00D18FE0069ADB0076
:10B7900093469B44002D27D06968AB68281CED694F
:10B7A0006246019C8A1A1202120AA24250D8D31889
:10B7B00042460360476087600274C761002E56D01E
:10B7C0003168341C994204D35FE01168994263D216
:10B7D000141CE2695B1A002AF7D10360331CC261B2
:10B7E000E0611E1C002DD7D15B465A461B7852786B
:10B7F0009A42C4D0594649685A0089465946D218D7
:10B800000133DBB20B708978D2004A4499424AD0A6
:10B8100011785068331C0129E3D1037C99464946CD
:10B82000331C0029DDD191684160D36883601469BD
:10B83000C46052698261059A002AB1D04A4600214B
:10B8400042606246019C8A1A1202120AA242AED9D2
:10B850006246511A0902090A99420CD242465B1A01
:10B860000360476087600274C761002EA8D1031C83
:10B8700082461E1CB6E74346076047608760037434
:10B88000C761002EF3D000233168CB1A3360031C4C
:10B89000C66182461E1CA5E7C91A11600360C26119
:10B8A000331CE0619DE75B461D70B1E75246144BC7
:10B8B0001A60039BB3422FD1049B002B2CD1002391
:10B8C000124A137009B03CBC90469946A246AB465A
:10B8D000F0BDDE693A1C002E00D021E701250D4B9A
:10B8E0009D600023069601369846151C059604E7D0
:10B8F000582100206C2100206D21002070210020A3
:10B900005C21002064210020682100206E2100209D
:10B91000FEFF7F0000100140002E63D0484B4949D4
:10B920003568CC58484B494E1B683078E21A1202F1
:10B93000120A03329046002861D04246AA4200D241
:10B940002A1CA820D21812023E49130AC0003C4DFE
:10B950000B504A591B1B121B1202120A1B02033204
:10B960001B0A9A42ABD94B590B502F200138C046C5
:10B97000C046C046C046C046C046C046C046C04697
:10B98000C046C046C046F1D180218023304A89029A
:10B990005B00D15093E70023994604935BE60025B2
:10B9A000002100244846464613E01A6882421CD80B
:10B9B000DE68801A89181C60DF69002E07D0DD61FF
:10B9C0001D1C019A9E608A181202120A5A603B1CC2
:10B9D0003E1C002BE9D11F4B1E6000230393013353
:10B9E0000493BAE6FFF76AFD69E7814619490393B4
:10B9F0000E604946521A1A6001230493ADE6802076
:10BA0000D1274002BF00C851403FC851C022802703
:10BA10000F48BF0252008750076001272F200F6098
:10BA20000138C046C046C046C046C046C046C046B3
:10BA3000C046C046C046C046C046F1D137707CE71C
:10BA4000040500000010014058210020782100204A
:10BA500000E100E05C210020F8B54F464646C0B446
:10BA60000326351C80460F1C141C994615400720E0
:10BA7000002D03D00CBC90469946F8BD002A44D056
:10BA8000FFF71CFD4A46224B80201A60221C214BE6
:10BA900018321E70204B62601C607B00DB19DB00DB
:10BAA000D218E260D318C022636125706570A77058
:10BAB00025726572A77225746574A774C524FF2169
:10BAC000164B40031D60164B52001D70154BA40011
:10BAD0001D70154B98501A598A433F390A431A5121
:10BAE000A122186040461149D2008850C42080002D
:10BAF0001C580F4A2240C024240222431A500D4BE6
:10BB00000020CA580C4B1A60B4E7034B1A60B1E727
:10BB10006021002064210020682100205C21002099
:10BB20006C2100206D21002000E100E000100140A8
:10BB3000FF00FFFF040500005821002010B50B4B4B
:10BB40001B68002B0BD0002A07D0002805D0036803
:10BB500008201C7C002C04D010BD0720FCE7082026
:10BB6000FAE759745A610020F6E7C04668210020C0
:10BB7000F0B5474680B4374B1C68002C08D000282D
:10BB800006D00723042905D8181C04BC9046F0BD34
:10BB90000823F9E74369002BFAD00025437CA84627
:10BBA000012B2FD0EFF30583DB05DB0D1025002BD8
:10BBB0002CD164196378A5785E1CF6B2AD1B6F1E9C
:10BBC000BD416D422E402578B5421DD05D00EB1879
:10BBD0006568DB00ED180423002DD5D0033B2B70E6
:10BBE00068601D4B1D48C358E960AB604346802127
:10BBF0002B6180236A611A4A5B0049036670D15049
:10BC00000023C1E78846CDE70423BDE7103BDEB241
:10BC100075B2002D13DBAD08114EC035AD00AD5926
:10BC200003263340DB00DD402B069B0FDBB20025F3
:10BC3000012BBED00835032BBBD00835B9E70F2345
:10BC4000084D3340AC46083B9B089B0063445D684D
:10BC50000323E6E7682100200405000000100140EE
:10BC600000E100E018ED00E030B52E4A031C126838
:10BC70000820002A2ED0002B2CD05969002929D069
:10BC800000211974EFF30581C905C90D102500299C
:10BC900023D155196A78A978541CE4B2091B481EAF
:10BCA000814149420C402978A14214D051008A18A0
:10BCB0006968D2008C4662440420002A0AD002211E
:10BCC00053601170802380210020174A49035B00D4
:10BCD0006C70D15030BD0420FCE71039CCB260B29A
:10BCE000002813DB8008104CC0308000005903246A
:10BCF0002140C900C8400106890FC9B200250129A9
:10BD0000C7D008350329C4D00835C2E70F2107483A
:10BD10002140844608398908890061444868032124
:10BD2000E6E7C0466821002000E100E018ED00E0F1
:10BD3000F0B5031C186880F308885868FF2464B2C3
:10BD4000EFF30585002D01D1A6460047251C061CF2
:10BD500021273FBAF0B40024002500260027F0B4C4
:10BD6000F92040B20047C046F0BDC046AADF704788
:10BD700044DF704711DF704713DF704700DF704703
:10BD80007047C04670B50B788CB0002B0AD00121EB
:10BD9000032205F0E1F8002801D10CB070BDFFF7D7
:10BDA00035FBFAE76B46474C9A1D211C0823058892
:10BDB00013803431073B281CFFF7D8FF424B1B6828
:10BDC0009847B120FFF7D4FF002865D1FFF7D2FFD5
:10BDD00000285ED13D4B5869FFF7CEFF002855D1B2
:10BDE00000233B4E281C311C029306F00DFF002857
:10BDF00016D08022C023374C5B00D203E2500121D1
:10BE00000023802520680A1C9A40104200D062510D
:10BE10000133202BF7D12D4B5869FFF789FFBCE781
:10BE2000301C06A906F0F6FA002838D10A9D072230
:10BE3000291C201C103107F04AFA291C1022E01D91
:10BE400007F045FA201C069D1122291C183007F026
:10BE50003EFA201C291C2A3012310A2207F037FA38
:10BE6000201CFFF78BFF002825D101230293033309
:10BE7000049302AB05930023301C03A9039306F03F
:10BE800041F90028B5D0FFF7C1FAB2E7FFF7BEFAD3
:10BE9000A6E7FFF7BBFA9DE7FFF7B8FA96E7301C75
:10BEA000211C06F075FA002808D1201CFFF766FF58
:10BEB00000289ED0E7E7FFF7A9FAD6E7FFF7A6FA32
:10BEC000F3E7C0467C210020E42000200010001091
:10BED000B821002000E100E0014B18607047C04627
:10BEE000E420002000B583B06B46D8710733181CDE
:10BEF000044906F02FFA002801D0FFF787FA03B0B3
:10BF000000BDC046B8210020002804D0034B5B6D63
:10BF10000360002070470320FCE7C046BC210020DE
:10BF200070B5161C0C1C8D18002A05DD2078013414
:10BF300000F00AF9AC42F9D1301C70BD10B50C1CF0
:10BF4000201C00F0E7F80528FAD0012010BDC046FB
:10BF50000B7B002B04D101220B6802710360704738
:10BF60004B680022F9E7C04610B50279031C002A8D
:10BF700008D048681A688968841A8C420CD98818D5
:10BF8000186008E004688A680868211A914207D896
:10BF9000012218601A7110BD002218601A71FAE7A8
:10BFA000A01A1860F7E7C04630B5047885B0012CB8
:10BFB00019D0022C34D0002C01D005B030BD274C54
:10BFC000274D201C291CFFF767FA002823D0A26800
:10BFD000E3689A42F1D1032302AA1370214B101C8B
:10BFE0001B689847E9E743681F4D1978281CFFF73D
:10BFF0003FFA002822D1AA68EB689B1A012B25D0B2
:10C00000A968AA88EB685B1A9A42D6D3012117481F
:10C0100000F0A8FCD1E7281C012100F041FCD6E784
:10C0200002AB1C70C368012110480193039300F018
:10C0300099FC0C4B02A81B689847BEE702AB1C702A
:10C04000084B03901B6802A89847D9E702AB187009
:10C05000044B02A81B689847D2E7C0462022002064
:10C060001422002018220020302200201C22002050
:10C07000F0B51E1C214B051C89B00C1C1A60072052
:10C08000002906D08A881E480968FFF7DDF90028D4
:10C0900001D009B0F0BDA168A2891A48FFF7D4F910
:10C0A0000028F6D16A46184B684692CB92C292CBD2
:10C0B00092C212CB12C2AB6806932B7906775A1E36
:10C0C000934103756B790E22591E8B415B421A40D6
:10C0D0004275EB780D490293AB7803932B7801936B
:10C0E0006B78009300F04CFB0028D2D100F0D2FC1A
:10C0F0000121074800F036FCCBE7C046182200209B
:10C10000302200202022002098410200A9BF010017
:10C110001C22002038B50A4C051CA168A288E368DF
:10C120005B1A9A4204D0201C291CFFF7B5F938BDD0
:10C130000448012100F016FC0028F4D00520F6E7A1
:10C14000302200201C22002070B50D4D011C281C3F
:10C15000FFF78EF9041E01D0201C70BD00F0FAFB21
:10C160000028F9D1074E281C311CFFF795F900284B
:10C17000F2D1301C012100F093FB041CECE7C04617
:10C18000202200201422002082B00190019B002B6D
:10C1900014D0019B0A48013B01930138C046C046B8
:10C1A000C046C046C046C046C046C046C046C0465F
:10C1B000C046C046F1D1019B002BEAD102B07047C6
:10C1C000E7030000F0B5002820DBFF271B4B03220C
:10C1D0009C463B1C8408C026C0B20240D20093405B
:10C1E000A4006444B600A5599D438B013B40934095
:10C1F000191C2943A1511F2318401E3B8340C02214
:10C20000181C0E4B520098501860F0BDFF260C4AC7
:10C2100003249446321C0F23C0B20440E400A24021
:10C220000340083B9B089B006344DD6995438A01FA
:10C230003240A240111C2943D961DCE700E100E053
:10C2400000ED00E038B54425164C0820635D002B56
:10C2500000D038BD4022FF21013BA3540132A1543C
:10C260000132A354236201326362A362E362236357
:10C270006363A363E3630238FC39A3542360636000
:10C28000A360E36023616361A361E361FFF79AFF49
:10C290008021C123044A9B000906D15001230020BC
:10C2A0006355D6E740220020006000404423034A43
:10C2B000D05C431E9841C0B27047C0464022002067
:10C2C000F0B5474680B4524C0825231820331E7819
:10C2D0007F2E03D8281C04BC9046F0BDCD78AC4618
:10C2E000002D36D02568013500D187E004230026D3
:10C2F0009846731C9D006759013733D0B31C98458D
:10C3000025D99D00675901372CD0F31C98451ED9BB
:10C310009D006759013725D0331D984517D99D00D9
:10C32000675901371ED0731D984510D99D00675974
:10C33000013717D0B31D984509D99D0067590137BA
:10C3400010D00736B04502D9E369013308D004257F
:10C35000C0E72569013555D0082304269846C8E76B
:10C3600007231C25625162462718DEB220373E7033
:10C37000002A02D1E3183C3318708B78002B15D1BA
:10C38000031CA0254A78C133FF3392009B00ED05C2
:10C390005A51CB78002B15D176B2A4193C340B78C6
:10C3A00022789B0113432370002593E7A022D20536
:10C3B0009446E025022783006344ED005A59BA43AE
:10C3C0005A51E6E7A22476B2124BB600F318E40005
:10C3D0000A781D591049000229401951F8214901D4
:10C3E0000840061CC0211004021C301C89021D5983
:10C3F0000A4010432843185100256BE700262260AD
:10C400001E70BAE7042522611D702E1C2B1CB1E79B
:10C410004022002000600040FFE0FCFFF0B5264D08
:10C420002C182034227853B2032B18DDEB183C3340
:10C430001B789B09032B32D0012B39D0C025AD02CC
:10C44000A023DB059C46E02380006044DB00C45849
:10C450001A492140C150C2582A43C250F0BD032A94
:10C46000FCD81748A227844601269A006244FF00A0
:10C47000D0593043D0511A1C6046002740329200F8
:10C4800092B217500029E9D00022A25692005259C8
:10C49000002AE3D0C1229E4092008650DEE7A2230C
:10C4A000A022DB00D205D258012383401A42C5D115
:10C4B0008025AD02C4E7C04640220020FFFFFCFFFC
:10C4C00000600040A223A022DB00D205D358C34065
:10C4D000181C012318407047F0B544465F46564685
:10C4E0004D46F0B49C4A87B013680024012B00D15C
:10C4F000AEE09A4B1A68012A00D1B7E0984B1A684F
:10C50000012A00D1C2E0974B1A68012A00D1CDE080
:10C510000022954B02921A68012A00D1D8E0230725
:10C520000BD0E30700D5DFE0A30700D5EBE06307FE
:10C5300000D5F6E0230700D502E1002C06DB07B0AA
:10C540003CBC90469946A246AB46F0BD002301276D
:10C550000493C03399460126844D7F420023039300
:10C56000E023DB0000249846231C4033E95C4BB2F7
:10C5700001332CD0C9B24B46081C98433B1CC34026
:10C580001E4224D08B0901932B1820331B785BB2F9
:10C590009B00EB589C46002B35D0331C83409A46B9
:10C5A000019B032B35D0A023DB059B46434682002D
:10C5B0005A44D3580592C022920213401B0C191CF6
:10C5C00053469346029A1A4212D1032926D00134C7
:10C5D000042CC9D1039B002BB1D0A223A022DB00E5
:10C5E000D205D358029A9A42A9D0049F0293B5E784
:10C5F0000229ECD1019B032B16D06346002BE6D019
:10C600000199E047E3E7019B032BE0D1331C834012
:10C610009A465246049B13430493C4E7019B032BA1
:10C62000EBD180239B029B4643460599CB589A4603
:10C6300052464F4B134042468B508B585A461A4332
:10C64000131C42468B50039B0133DBB20393D4E7A8
:10C65000C1214848890041580B4200D149E73F4B6E
:10C6600014601A680134012A00D047E7C122414909
:10C670009200895802220A4200D13FE70021196046
:10C68000374B14431A68012A00D03CE7C1223949CC
:10C690009200895804220A4200D134E7002119602F
:10C6A000304B14431A68012A00D031E7C1223149C6
:10C6B0009200895808220A4200D129E70021144338
:10C6C00000221960284B02921A68012A00D026E73E
:10C6D00000221A6080231B061C43A022A223D2053D
:10C6E000DB00D35802931AE7A223224ADB00D0587A
:10C6F000D1581E4DC00489032B68C00E890F98477E
:10C70000A30700D413E71C4B1A4A184DD058D15830
:10C71000C00489036B68C00E890F9847630700D473
:10C7200008E7A323134ADB00D058D1580F4DC004AB
:10C730008903AB68C00E890F9847230700D4FCE635
:10C740000C4A0E4B094DD058D158C0048903C00E75
:10C75000890FEB689847F0E60061004004610040F3
:10C76000086100400C6100407C61004040220020D4
:10C77000FFFFFCFF00600040140500001C050000E6
:10C78000F0B557464E464546E0B43B4C031CE27EAE
:10C790000820002A04D01CBC90469946A246F0BD51
:10C7A000002B67D001221868A1258240A020ED004F
:10C7B000C0054251A94603251A68AA46C132FF3274
:10C7C0009200155000255A68AC46C132FF329200E3
:10C7D00015509F69294A2A4D57511D7DA846474645
:10C7E0005D7D3D43274FD5515D681F68A846264DA6
:10C7F00057514746254D57511D7D012D19D19F6831
:10C800003E1CE0277F00B8464644B70066463E50CF
:10C81000DE68B5404E4685515646DD68C135FF3568
:10C82000AD002E504E46D8689D689051A220C000A1
:10C8300015501A696160226000290DD0197F00230C
:10C84000134A14481360144A1360C1230B4A9B0017
:10C85000D0500220FFF7B6FCA0230421074ADB00DA
:10C86000D15000230122E3752376A375E276A376E7
:10C87000002090E7094B95E7882200200020004027
:10C88000240500006C0500000C05000014050000E4
:10C890001C2100408000020044210040B8410200F9
:10C8A000F0B5264A041C937D1120002B00D0F0BD6A
:10C8B0000125917522482349938294600B6005609D
:10C8C0000B60938AE05C938A1F4C01339BB2938286
:10C8D0001E4BE0505068002801D00020E7E70027F9
:10C8E000261C1D1C0130FF30947D938AA34203D384
:10C8F00012E0938A834202D00B68002BF9D0938A0E
:10C900008342F2D00F60938A9468E45C938A013387
:10C910009BB293827451E7E78023918A5B0099422E
:10C920000AD008490B68002BFCD001210020084BDD
:10C93000196000239375BAE70F20FAE788220020D8
:10C94000082000401C210040002000401C05000081
:10C950000C200040024B987D431E9841C0B27047A6
:10C9600088220020F0B5474680B4444B5A68002A1C
:10C9700005D08126C224424DB600A4002E51DC7D94
:10C98000002C0DD01C7E002C1DD0002A00D16EE0A2
:10C990008121C1233A4A89009B00D15011200FE028
:10C9A000D975997ED8605C761C7600292BD0002A38
:10C9B0000DD08121C1230020314A89009B00D15034
:10C9C00004BC9046F0BD18611976002AF1D12D4CB7
:10C9D0002D4D22602A4A2D489046A322D20094462B
:10C9E000296806684A1E91412268C9B2571EBA4199
:10C9F000D2B2002E10D1002A27D10029F0D0002277
:10CA00000320DA75DCE7204A1160204A1160012119
:10CA10001B4A11605A68CAE70029F0D1002A16D1D2
:10CA2000D97D002917D10160624641468A585A7E55
:10CA3000D97D9142D4D80022DA759B7E002B18D084
:10CA400001220F4B00201A60BAE70029D7D100223B
:10CA50000F20DA75B4E74646614602605A7E715887
:10CA6000DE68B1545A7E0132D2B25A76DFE7112025
:10CA7000A6E70122064B00201A60A1E788220020C9
:10CA800000200040442100402421004008210040B3
:10CA900004200040064A937E002B07D105490B6015
:10CAA00005490B60054901330B6093767047C0461A
:10CAB000882200202421004008210040002000405E
:10CAC000C12210B5604B92009A5884B092054DD5A2
:10CAD0005E4A1168002949D0002111608121C222DB
:10CAE0008900920099505A4B9A7E002A02D1012166
:10CAF000584A1160022269460A7090215248C900C2
:10CB00004258425069460392DA7D68460A72DA68F2
:10CB1000196801920022DA751A765B6898474E4AC6
:10CB20001368002B10D04A4B988A997D81424FD9C7
:10CB3000002111609A8A9968895C9A8A013292B2BE
:10CB40009A82464B404AD150454B1A68002A0BD076
:10CB500000221A603E4B9A7E002A02D001213A4AF6
:10CB60001160DA7D002A42D104B010BDC123364ADB
:10CB70009B00D3585B07D2D53A490B68002BCED027
:10CB8000334BD87D00283FD10860A321C9005258FB
:10CB90005A7ED97D9142C2D11A7E002A41D19A7E15
:10CBA000002A02D101212B4A11608120C22226498C
:10CBB000800092008850002268460121DA755A7E72
:10CBC00001700272DA68196801925B689847A6E7FB
:10CBD000002010600029B7D06A46107011729A6860
:10CBE0009875196801925B6868469847ACE700221F
:10CBF00068460121DA755A7E01700272DA68196896
:10CC000001925B689847AFE700200860A320C0004E
:10CC1000597E1258D86842545A7E0132D2B25A769E
:10CC2000B6E7DA751A69D968DA6000226C46587E70
:10CC30001A765A760132207201912270196868467C
:10CC40005B6898476BE7C046002000402421004005
:10CC500088220020042000401C2100401C05000008
:10CC6000442100400821004029DF704728DF704739
:10CC700030B583B0002806D0112806D108230F4A0A
:10CC800011680B43136003B030BD021C0C480178DF
:10CC90008B005B189B00C518281CE9686B694C0069
:10CCA00064182979074DA4002D680C300095064DB5
:10CCB0006459A0470422054B1A70E4E7242500209C
:10CCC000A42200203025002008250020292500204E
:10CCD000F0B55F464D4644465646F0B45E4F85B0CB
:10CCE0003C785E4D012C00D188E0002C00D16DE035
:10CCF000022C16D0032C0DD1594B1868FFF7B6FF44
:10CD0000021E07D0112800D080E00823554A116880
:10CD10000B43136005B03CBC90469946A246AB4617
:10CD2000F0BD504B99461B6803932B789E00F31877
:10CD30009B00EE183369984680235B0519694046CD
:10CD40000904090C9B4606F031F9454B82461860F0
:10CD50005B4619694346581EF3880904C018090C3C
:10CD600006F024F982454CD00323039C9C434B4698
:10CD70001C603D4B1B68002B02D10233234262D062
:10CD800000223A4B1A703A4B5869431C54D0802306
:10CD90005B0519690904090C06F008F9031C8022D7
:10CDA0005205106911690004013B000C0904584345
:10CDB000090C06F0FBF8FFF759FF021EAAD0112854
:10CDC00024D108231C434B461C60A3E7294B1C605D
:10CDD000294B1C606B78002B9CD02B789A00D318C1
:10CDE0009B00ED18EA88254B1A602B79032B27D07E
:10CDF000042B25D0012B00D08CE73B7000F000FC09
:10CE000088E70123039A9A431443B0E72B789800EC
:10CE1000C01880002E18301C184DF3682D685C0077
:10CE2000E418317973690095154DA4000C306459EC
:10CE3000A04704233B706DE780235B055B69AEE789
:10CE400000F020F866E7094A50461370FFF70EFF1E
:10CE5000FFF70EFF5EE7C04629250020A422002030
:10CE60003C250020242500203825002028250020EE
:10CE7000001000103425002000250020302500205F
:10CE800008250020F0B55F4656464D464446F0B4AE
:10CE90005B4B5C481A78802791008A1892009B1897
:10CEA000DD681E696A00521992008218148950893F
:10CEB0005268604380469044DA881B89141C994666
:10CEC000514B92469B4600235A467F05396983B0F1
:10CED00009044C441360090C301CA41906F0ECF84A
:10CEE000002924D13B699BB29A4537D044456CD088
:10CEF000032D33D0301C3969484489B206F0DCF880
:10CF0000424B890819603969201C0904090C06F094
:10CF1000D3F8002932D102223D4B1A70FFF7D8FE18
:10CF200003B03CBC90469946A246AB46F0BD032DEB
:10CF300014D0301C396948440904090C06F0BCF8C7
:10CF4000324B8908196039694445E4D00904090C59
:10CF5000201C06F0B1F80029DDD00FE080235B052E
:10CF60001969301C0904090C06F020F80322294B2A
:10CF70001860274B1A70FFF7ABFED1E780256D05CF
:10CF800029692B696A4699464346D380D08889B27D
:10CF900006F00CF86A464B46A6B2D380071CD1882F
:10CFA000301C06F003F8BFB280B287421DD02C6956
:10CFB0002969301C89B206F07FF85B462404240CF2
:10CFC00089B2641AA4081C60A5E74B46002BC5D0A3
:10CFD000032DC3D0301C3969484489B206F06CF87F
:10CFE0000A4B890819603B6995E7434624041B04F2
:10CFF0001A0C240C131B5A469B0813608BE7C0467F
:10D00000A422002008250020042500203825002027
:10D01000292500203C250020F8B546464F46C0B4DF
:10D020001D4D08AC24886E78A44604241E2E2DD0F5
:10D030002C78A046A4191D2C00DD1E3C14277C432F
:10D040002C196261221C20710C32B94681C981C23F
:10D05000E380634623810024104B01361A786E70FA
:10D06000A24213D142464F465743ED190C4AE98874
:10D0700011602A79032A07D0042A05D0012A05D194
:10D080001A70FFF725FE01E0FFF7FCFE201C0CBC28
:10D0900090469946F8BDC046A422002029250020CC
:10D0A00030250020082170B50C1C244A82B013687A
:10D0B0001C4009D08B431360214B224A1B789B00F4
:10D0C0009B58984702B070BD1F4D2B789800C3182D
:10D0D0009B00EE18317904292AD0F2687369500058
:10D0E0008218301C194E920036680C300096184E8B
:10D0F00096590022B04702202A7893009B189B0083
:10D10000EB181C71DC80D8601C615C611C816B7841
:10D110000132013BD2B26B701E2A06D02A70002267
:10D120000C4B1A70FFF7D4FDCCE700232B70F6E709
:10D130000122084B1A70FFF7CBFDC3E7242500201E
:10D1400028250020EC410200A422002030250020E8
:10D15000082500202925002030B5244B83B05869CC
:10D16000431C3ED080235B0519690904090C05F0B6
:10D170001DFF041C80235B051869196900041A69E6
:10D18000000C631E58431A4B09041B68090C92B229
:10D1900092085943FFF768FD021E06D0112806D1F8
:10D1A0000823144A11680B43136003B030BD1249C1
:10D1B0000B789800C01880000D18281CEB6829799E
:10D1C0005C00E4186B690D4DA4002D680C300095CF
:10D1D0000B4D6459A04704220A4B1A70FFF778FDE3
:10D1E000E3E780235B055C69C4E7C04600100010DC
:10D1F0003C25002024250020A422002030250020EA
:10D200000825002029250020802230B55205146908
:10D2100021492404230C0C6883B0013C5C431F4B60
:10D220005869431C35D011690904090C05F0BEFE8C
:10D2300080235B0519691A4B09040138090C414325
:10D240001A68201CFFF710FD021E06D0112806D117
:10D250000823144A11680B43136003B030BD124910
:10D260000B789800C01880000D18281CEB682979ED
:10D270005C00E4186B690D4DA4002D680C3000951E
:10D280000B4D6459A04704220A4B1A70FFF720FD8A
:10D29000E3E75069CCE7C0463C25002000100010B1
:10D2A0003825002024250020A4220020302500203D
:10D2B0000825002029250020082330B51E4D83B005
:10D2C0002C68234214D1A30702D501231C432C60F0
:10D2D00002221A4B1A701A4B1868FFF7C7FC021E7D
:10D2E00004D011280DD108231C432C6003B030BD9D
:10D2F0009C43124B134A1B782C609B009B58984709
:10D30000F4E711490B789800C01880000D18281C0C
:10D31000EB6829795C00E4186B690C4DA4002D685A
:10D320000C3000950A4D6459A0470422094B1A702D
:10D33000FFF7CEFCDAE7C046242500202825002090
:10D340003C250020EC410200A422002030250020D2
:10D350000825002029250020F0B58027274C7F05CF
:10D36000237839699A00D3189B00E3181A89DD885D
:10D370001B69AD18ED18090483B0090C281C05F0D1
:10D380009BFE1F4B0E1C5869431C35D0396909049C
:10D39000090C05F00BFE80235B05196901380904AF
:10D3A000090C4143174B89191A68281CFFF75CFCCC
:10D3B000021E06D0112806D10823134A11680B4318
:10D3C000136003B0F0BD23789800C01880002618C1
:10D3D000301C0E4CF36824685D003179ED187369D8
:10D3E00000940B4CAD000C302C59A0470422094B83
:10D3F0001A70FFF76DFCE4E77869CCE7A4220020FF
:10D4000000100010042500202425002030250020D5
:10D41000082500202925002030B5154B83B0186859
:10D42000FFF724FC021E06D0112806D10823114A5A
:10D4300011680B43136003B030BD0F490B7898009F
:10D44000C01880000D18281CEB6829795C00E418CE
:10D450006B690A4DA4002D680C300095084D645985
:10D46000A0470422074B1A70FFF732FCE3E7C046DF
:10D470003C25002024250020A42200203025002067
:10D480000825002029250020082370B52A4D82B0E8
:10D490002C68234209D09C43284B294A1B782C60D6
:10D4A0009B009B58984702B070BD0122234B1A7015
:10D4B000244B5869431C3BD080235B051969090440
:10D4C000090C05F073FD061C80235B0518691969BA
:10D4D00000041A69000C731E58431B4B09041B6897
:10D4E000090C92B292085943FFF7BEFB021EDAD034
:10D4F000112803D108231C432C60D4E713490B786F
:10D500009800C01880000D18281CEB6829795C0071
:10D51000E4186B690E4DA4002D680C3000950D4D7C
:10D520006459A04704220C4B1A70FFF7D1FBBAE7ED
:10D5300080235B055E69C7E724250020282500209D
:10D54000EC410200001000103C250020A422002025
:10D5500030250020082500202925002030B5224B49
:10D5600083B05869431C3AD080235B0519690904CC
:10D57000090C05F01BFD031C80225205106911697E
:10D580000004013B000C09045843090C05F00EFD92
:10D59000FFF76CFB021E06D0112806D10823134AA0
:10D5A00011680B43136003B030BD11490B7898002C
:10D5B000C01880000D18281CEB6829795C00E4185D
:10D5C0006B690C4DA4002D680C3000950A4D645910
:10D5D000A0470422094B1A70FFF77AFBE3E7802388
:10D5E0005B055B69C8E7C0460010001024250020D9
:10D5F000A422002030250020082500202925002015
:10D60000F0B58027404D7F052C783969A600331985
:10D610009B00EB18DA8889B283B08A4218D819695E
:10D6200018898C46920860445969FFF71DFB021E59
:10D6300006D011282DD10823344A11680B431360FA
:10D640003419A4002C19E288314B1A6003B0F0BDE4
:10D65000196938698C460004000C121A18893C6953
:10D660005969604480188918A2B29208FFF7FCFA41
:10D67000021E06D0112827D10823244A11680B4323
:10D68000136080235B051B69214A1B041B0C13607C
:10D69000DCE72B789800C01880002918CB68081C9C
:10D6A0005F00FF180B79BF009C464B6919490C308D
:10D6B0000968009118497F586146B8470422174B02
:10D6C0001A70FFF705FBBBE72B789800C0188000A5
:10D6D0002E18301C0F4DF3682D685C003179E4186A
:10D6E000736900950C4DA4000C306459A0470422C6
:10D6F0000A4B1A70FFF7ECFA80235B051B69044A9A
:10D700001B041B0C1360A1E7A42200202425002089
:10D710000025002030250020082500202925002094
:10D720000823F0B54D4644465F4656461A1CF0B4F1
:10D73000774D85B02C68224091465FD1754F3E7879
:10D74000B30003939B199B00FB181A69511EDA88DA
:10D750001B898A18D318029380235B059B4619699D
:10D760006D4B1B689846002B57D16C4B1B689A4633
:10D7700080235B05196902980904090C05F016FC61
:10D78000824500D285E0434600D17AE0002B00D0EC
:10D7900079E0039B9C466644B600BC1921790429B4
:10D7A00000D1AFE0201CE3680C305A00D218636946
:10D7B0005B4C9200246800945A4C14590022A047F4
:10D7C000414602203A7893009B189B00FB18197180
:10D7D000D86041464046D9801861586118817B78ED
:10D7E0000132013BD2B27B701E2A00D17BE03A703D
:10D7F00000224D4B1A70FFF76BFA07E09C434B4B2E
:10D800004B4A1B782C609B009B58984705B03CBC4A
:10D8100090469946A246AB46F0BD404B09041B68B2
:10D82000090C02989A4605F0C1FB5045A0D14A4622
:10D83000404B1A6001234A4623432B603B4B1A702E
:10D840003D4B5869431C51D05B4619690904090CCA
:10D8500005F0ACFB031C802252051069116900041D
:10D86000013B000C09045843090C05F09FFBFFF72E
:10D87000FDF9021ECAD011283BD109231C432C609C
:10D88000C4E7002B05D00322284B1A70FFF764FD74
:10D89000BCE70022274B50461A60244B02321A7014
:10D8A000FFF7E4F9021EB1D0112818D03B78990097
:10D8B000CB189B00FD18E9684C006418281C2979D6
:10D8C0006B69174DA4002D680C300095154D6459F7
:10D8D000A0470422144B1A70FFF7FAF996E70823C1
:10D8E0001C432C6092E700233B7081E75B465B6939
:10D8F000B1E73B789800C01880003D18EB685C00E9
:10D90000E418DBE70122084B1A70FFF7E1F97DE725
:10D9100024250020A4220020042500203C250020EE
:10D92000302500200825002029250020282500205A
:10D93000EC4102003825002000100010F0B54E46E2
:10D94000574645460823E0B48C4E82B034682342E3
:10D9500000D093E08A4B1A68571C1F60894B1D68E2
:10D96000002D50D1884B802299461B7852059D008E
:10D97000ED18AB00984608234D469A464544AA4404
:10D9800053469B681169581EEB880904C0182B89FF
:10D99000090CC01805F00AFB874200D282E07B4BDD
:10D9A00000D17BE01F68002F00D19CE001231A1CEE
:10D9B000224000D08DE023433360754B1A70754BC5
:10D9C0005869431C00D1BEE080235B051969090436
:10D9D000090C05F0EBFA031C80225205106911694D
:10D9E0000004013B000C09045843090C05F0DEFA61
:10D9F000FFF73CF9021E49D0112800D0A7E0092307
:10DA00001C43346042E00421614B197080235B05A4
:10DA10001F693F043F0C57435E4A5069421C3BD08C
:10DA200019690904090C05F0C1FA80235B0519691D
:10DA300001380904090C41432A1C381CFFF714F96A
:10DA4000021E23D011284AD04F4801788B005B1862
:10DA50009B00C518281CE9684C006418A4002979AB
:10DA60006B694D4D0C302D6800954C4D6459A047A5
:10DA700004224B4B1A70FFF72BF907E09C43444BF1
:10DA8000484A1B7834609B009B58984702B01CBCE6
:10DA900090469946A246F0BD5869C6E71B68002B20
:10DAA00000D083E702223A4B381C1A70FFF7DEF8E9
:10DAB000021EEBD0112812D04B461B789900CB18D0
:10DAC00049469B00CD18E968281C4C006418A40046
:10DAD000C5E703222E4B1A70FFF73EFCD6E708235A
:10DAE0001C433460D2E7297904293DD0534640468F
:10DAF000294C5B6824685A00D2186B690094274C43
:10DB0000920048440C3014590022A0474B46022092
:10DB10001A78494693009B189B004B441F71DF8085
:10DB2000D8601F615F611F814B465B780132013B0A
:10DB3000D2B24B701E2A1DD00A700022184B1A70E8
:10DB4000FFF7C6F8A2E780235B055B6944E74B4615
:10DB50001B789800C0184B4680001D18EB68281CE5
:10DB60005C00E418A4007AE701220D4B1A70FFF75D
:10DB7000AFF88BE700230B70DFE7C04624250020B9
:10DB80003C25002038250020A42200200425002068
:10DB90002825002000100010302500200825002036
:10DBA00029250020EC41020070B5274C82B0237873
:10DBB0009800C01880002518281CEB6829795A00A5
:10DBC000D2186B69214D92002E680C300096204EC1
:10DBD00096590022B04700210226227893009B1814
:10DBE0009B00E3181971D980DE60196159611981B0
:10DBF00063780132013BDBB2D2B263701E2A0BD0D4
:10DC000022700021134E14483160144E01703160AF
:10DC1000002B05D102B070BD002222700022F0E777
:10DC200093009A189200A418E3882B602379032BA1
:10DC300007D0042B05D0012BECD10370FFF748F877
:10DC4000E8E7FFF71FF9E5E7A422002030250020D0
:10DC5000082500203425002029250020002500204B
:10DC6000F0B5474680B4684D04262B7882B01A1C64
:10DC7000B24313D0041E022C14D003280ED1082066
:10DC800062490A68104257D0022B4ED0032B01D0B4
:10DC9000012B03D182430A60FFF71AF802B004BCDB
:10DCA0009046F0BD022B40D0032B54D0012BF5D170
:10DCB0000821564A1368194278D1554F55493B7887
:10DCC0000E689A00D3189B00FA18D1888E1BB6B242
:10DCD000D680002E6FD1D16813794800411898463C
:10DCE000101C53694C4A890012680C3000924B4A50
:10DCF0008A58414694460022E0473A7893009B18A0
:10DD00009B00FB181E71DE80DC601E615E611E815F
:10DD10007B780132013BD2B27B701E2A67D03A7009
:10DD200000232B70FEF7D4FFB8E73D4B3D4A1B782C
:10DD30009B009B589847B1E73B490A6801320A604B
:10DD4000032A3BD0022BA7D1354B384A1B789B00C6
:10DD50009B589847A2E708212C4A1368194225D1FD
:10DD6000334B2B4E1A683478571C1F6080235B0599
:10DD70001969A30098461B199B00F3181A69090436
:10DD8000501EDA881B898018C018090C05F00EF99E
:10DD9000874200D280E731D0231C43449B00F31814
:10DDA0001B79042B25D0FFF7FFFE77E78B43136029
:10DDB000FEF78EFF72E7FFF723FC6FE71448027847
:10DDC00093009B189B00C418201CE26863695100F3
:10DDD0008A182179104C920024680C3000940F4C62
:10DDE00014590D22A0472E70FEF772FF56E73E70C1
:10DDF00096E701232B70FEF76BFF4FE70D4B1B6877
:10DE0000002BC9D148E7C046292500202425002041
:10DE1000A422002000250020302500200825002015
:10DE200028250020D841020034250020EC410200C2
:10DE30003C250020042500209722920008B5944636
:10DE40000023002202201F490B704B700B1D614400
:10DE50001A705A809860DA601A619A8014338B4283
:10DE6000F6D10022184B1A80184B5869431C25D054
:10DE700080235B0519690904090C05F097F88023D4
:10DE80005B051B6903381B041B0C5843104B002116
:10DE9000186000230F4A002013600F4A136013819B
:10DEA0005381D3609382D3820C4A11700C4A136061
:10DEB0000C4A136004220C4B1A6008BD80235B05DA
:10DEC0005869DCE7A4220020202500200010001063
:10DED0002C2500203C250020082500202925002095
:10DEE000342500200025002024250020F0B55746C9
:10DEF0004E464546E0B4344B1A680823520705D411
:10DF0000181C1CBC90469946A246F0BD002857D06C
:10DF1000002955D00368002B52D080277F053A692D
:10DF2000868892B207239642EAD80F2EE8D9C28893
:10DF3000002AE5D0254B724399461B68041C98467D
:10DF4000234B424458690D1C9246431C3AD0396910
:10DF50000904090C05F02AF88022520513690138DA
:10DF60001B041B0C584307238245C9D8B107C7D1EE
:10DF7000184F033B3E88022EC2D043466B600C23F1
:10DF80002E604546734314480136C1184D6025681C
:10DF90001D50A5880D81E088488168431369116987
:10DFA0009BB21469C018013889B2A4B205F08EF88A
:10DFB000231C4A464343434413603E8000239FE7AB
:10DFC0000E239DE77869C7E7242500202C25002033
:10DFD000001000102025002008250020F0B5134B6C
:10DFE0001C680823640701D4181CF0BD00281BD04E
:10DFF000002A19D00468013B012CF5D865000C4EAD
:10E000002D19AD00AF59002FEED075192E8940683B
:10E010007143091868896D68704340198142E3D2E1
:10E02000146051600023DFE70E23DDE72425002084
:10E0300008250020F0B5474680B4204C051C246814
:10E0400082B00820640703D402B004BC9046F0BD3F
:10E05000002930D0002D2ED02C680138012CF3D8A7
:10E0600067003C19164EA400A759002FECD06F682A
:10E070003419BC4626896789B04677436668BC195F
:10E08000A445E1D2002ADFD09045DDD3D418A045C5
:10E09000DADB09308C07D7D103242342D4D166467A
:10E0A0002642D1D1181C131C00900A1C0120291CE7
:10E0B000FEF7B2FFC8E70E20C6E7C04624250020C1
:10E0C00008250020F0B5474680B4204C051C246884
:10E0D00082B00820640703D402B004BC9046F0BDAF
:10E0E000002930D0002D2ED02C680138012CF3D817
:10E0F00067003C19164EA400A759002FECD06F689A
:10E100003419BC4626896789B04677436668BC19CE
:10E11000A445E1D2002ADFD09045DDD3D418A04534
:10E12000DADB09308C07D7D103242342D4D16646E9
:10E130002642D1D1181C131C00900A1C0420291C53
:10E14000FEF76AFFC8E70E20C6E7C0462425002078
:10E1500008250020F0B5454657464E46E0B4284C09
:10E16000051C246882B00820640705D402B01CBCDA
:10E1700090469946A246F0BD00293FD0002D3DD0E3
:10E180000C680138012CF1D867001E4E3C19A40020
:10E19000B2463659002EE9D04E6854446789B446D9
:10E1A0002689B1467E436768B0463C1C4444A4457A
:10E1B000DCD2002ADAD09145D8D3D418A145D5DBDA
:10E1C0000930AC07D2D103242342CFD16646344074
:10E1D000CCD188466344191C281C171C05F077F81D
:10E1E00042460C2312680097534352464046D65885
:10E1F0000221221C2B1CB047201CB7E70E20B5E7DC
:10E200002425002008250020F0B54F464646C0B41E
:10E21000224B83B01B6808245B0705D4201C03B085
:10E220000CBC90469946F0BD002834D00368013CF0
:10E23000012BF3D85D00EB18194A9B009D58002D67
:10E24000ECD0D3181F895D895A687D434668AD18A4
:10E25000AE42E3D20934B307E0D188468146391C87
:10E26000B01A04F029FF093C0029D7D14046391CD7
:10E2700004F022FF89B20029D0D14346002BCDD033
:10E280004644B542CAD30022032000924946FEF715
:10E29000C3FE041CC2E70E24C0E7C04624250020AC
:10E2A00008250020074B1A680823520701D4181CC0
:10E2B0007047002804D0044B5B7803600023F6E726
:10E2C0000E23F4E724250020A4220020A02210B56C
:10E2D000064BD205D15880231B041C1CA1208C4363
:10E2E0000B400349C0001450535010BD04050000FA
:10E2F0000C050000F8B54F464646041CC0B4112872
:10E3000009D0122839D0132839D0142839D00CBCA0
:10E3100090469946F8BD0025012911D000291FD04B
:10E320000229F4D16B005D191F4B5D196E78002E28
:10E33000EDD01E4B1B68002BE9D0301C9847E6E758
:10E34000194B6F00984642467B19D65C43445B7874
:10E35000002B18D17F194744BA78154B5A55E6E778
:10E360001448FDF781FC104A6B005B19D318104A62
:10E370009B78565D9E42CAD1D9E70125CCE702259C
:10E38000CAE70325C8E70C4B0A481B689900C9185F
:10E390000A4B49001A1C9946FDF7EAFB0028D9D11F
:10E3A0004B461C70D6E7C046BC25002074250020D3
:10E3B0006425002078250020702500206C25002091
:10E3C000F8B5C74B1B68DB0700D4F8BDC54A147805
:10E3D000172CFAD8C449A300CB589F46A022C34BA0
:10E3E000D205D1588023DB031C1CA1208C430B4099
:10E3F000BF49C00014505350BE4B00221B68BE489A
:10E400009900C918FDF7B4FBDFE7A023F021B84A53
:10E41000DB05490499500021043A9950D5E7A02220
:10E42000B24BD205D1588023DB031C1CA1208C43A6
:10E430000B40AF49C00014505350AE4B0022196836
:10E44000AD48FDF795FBC0E7AC4BA1201968E02370
:10E450005B048B43A0210026F025C905C000A44C15
:10E460000B50A24B0E51CB586D046B408025AD0371
:10E470002B4000D120E10D5003230E5108211370D1
:10E480009C4B00221B689C485943FDF771FB9CE79D
:10E490009A4BA1201968E0235B048B43A02100263E
:10E4A000F025C905C000924C0B50904B0E51CB5833
:10E4B0006D046B408025AD032B4000D104E10D506D
:10E4C00004230E512821DAE7A023A122E021DB0555
:10E4D000D20049048024995000218548A403195092
:10E4E0001C50995071E7864D281CFDF7BDFB112388
:10E4F0001C1B00D1C7E0002800D0C4E080237F4E61
:10E500001B043360012C10D0C8306421604304F038
:10E510004DFD784B00221B684343281C191CFDF756
:10E5200027FBF02332685B041340A0227049D20518
:10E530005350A1230021DB00D15046E76F4BA121AE
:10E540001A68F0235B049343A022C900D2055350FC
:10E550000021674BD15038E7684BA1201968E023B0
:10E560005B048B43A0210027F026C905C000604D45
:10E570000B505E4B4F51CB58760473408026B60348
:10E58000334000D18EE00E504F51022C00D1A0E05C
:10E590002821147074E7A023A122C021DB05D2003A
:10E5A0004904C024995000215148E40319501C50DB
:10E5B00099500AE7A023A122D021DB05D20049040B
:10E5C0008024995000214A48E40319501C50995066
:10E5D000FBE6A023F021A122DB054904D2009950DB
:10E5E0000021434A9950F0E6E022444B52041B6854
:10E5F000A1219A43A023C900DB0580245A500022A0
:10E600003B48A4031A501C505A50DEE63B4BA12055
:10E610001968E0235B048B43A0210026F025C9057F
:10E62000C000334C0B50314B0E51CB586D046B4036
:10E630008025AD032B403CD00D500E5105231370A7
:10E640002C4B002219682C484900FDF791FABCE6D2
:10E650002A4BA1201968E0235B048B43A0210026EC
:10E66000F025C905C000224C0B50204B0E51CB5851
:10E670006D046B408025AD032B4022D00D500E5110
:10E6800006231370D9E6F0231C4A5B041168A1200D
:10E690000B40A021C000C9050B50002314480B50AB
:10E6A000136092E64E510B50022C15D004211470C9
:10E6B000E6E60D510B50C1E70D510B50022103232B
:10E6C000DDE60D510B50DBE70D510B500421042307
:10E6D000D5E612211470D3E602211470D0E6C046AC
:10E6E0006825002098250020004202000405000053
:10E6F0000C0500007025002040250020602500202A
:10E700009C25002008B50378112B06D0122B12D0BF
:10E71000132B12D0142B12D008BD00235A00D3188B
:10E72000084AD31858780028F6D0074B1B68002BEE
:10E73000F2D09847F0E70123F0E70223EEE7113B20
:10E74000ECE7C046BC2500207425002000230328E8
:10E750000DD8A223A022DB00D205D258054B8000A1
:10E76000C0580123834093435A1E9341DBB20020DB
:10E770000B707047C442020070B5DB4B041C1B6871
:10E780000020DB0700D470BD172CFCD8D74AA300AB
:10E79000D3589F46A022D64BD205D1588023DB0305
:10E7A0001C1CA1208C430B40D249C0001450535074
:10E7B000D14B00221B68D1489900C918FDF7D8F940
:10E7C000E1E7A022CA4BD205D1588023DB031C1CF1
:10E7D000A1208C430B40C749C00014505350C64B76
:10E7E00000221968C548FDF7C3F9CCE7C44D281CC1
:10E7F000FDF73AFA11231C1B00D14CE1002800D090
:10E8000049E18023BF4E1B043360012C10D0C83077
:10E810006421604304F0CAFBB74B00221B684343EA
:10E82000281C191CFDF7A4F9F02332685B0413407F
:10E83000A022B049D2055350A1230021DB00D150C2
:10E84000A1E7A023F021A122DB054904D2009950C1
:10E850000021A84A002099501222AB4B1A7092E76F
:10E86000A023A122E021DB05D20049048024995095
:10E870000021A048A40319501C5099501322A24B08
:10E8800000201A707FE7A023F0219A4ADB05490493
:10E8900099500021043A99509B4B00201C7072E75C
:10E8A000984BA1211A68F0235B049343A022C9006E
:10E8B000D205535000238F4900205350924A1370C1
:10E8C00061E7904BA1211A68E0235B049343A022E7
:10E8D0000026F025D205C90086485350844B1650B7
:10E8E000D3586D046B408025AD032B4000D1E9E087
:10E8F00055501650022C00D1F1E02821824B1C709B
:10E900007D4B00221B687D485943FDF731F93AE7FA
:10E91000A023F021774ADB05490499500021043AED
:10E9200099500C22784B00201A702CE7A023A122CA
:10E93000D021DB05D20049048024995000216D4884
:10E94000E40319501C50995014226F4B00201A7088
:10E9500019E76C4BA1211A68E0235B049343A022C2
:10E960000025F024D205C90062485350604B155071
:10E97000D358640463408024A403234000D199E069
:10E9800054501550082103221AE05E4BA1211A6849
:10E99000E0235B049343A0220025F024D205C900A4
:10E9A00054485350524B1550D3586404634080244C
:10E9B000A403234000D18BE0545028211550042299
:10E9C000514B1A709CE7E0224E4B52041B68A12168
:10E9D0009A43A023C900DB0580245A5000224548F1
:10E9E000A4031A501C505A50474B07321A7000208B
:10E9F000C9E6A023A122C021DB05D2004904C0241E
:10EA0000995000213B48E40319501C50995015229D
:10EA10003D4B00201A70B6E63A4BA1211A68E0235C
:10EA20005B049343A0220025F024D205C90031489D
:10EA300053502F4B1550D358640463408024A403D3
:10EA400023403CD05450155005222F4B2B481A70B0
:10EA5000294B002219684900FDF78AF893E6294BF3
:10EA6000A1211A68E0235B049343A0220025F0242F
:10EA7000D205C9001F4853501D4B1550D35864048C
:10EA800063408024A403234026D05450155006220E
:10EA90001D4B1A70A3E6F0231A4A5B041168A124E7
:10EAA0000B40A021E400C9050B510023114C0B5170
:10EAB000136068E6145053500221032280E714507B
:10EAC0005350C1E715505350022C0AD0042115E7CA
:10EAD00014505350042172E714505350D7E71221B9
:10EAE0000CE702210AE7C0466825002060420200C8
:10EAF000040500000C0500007025002040250020C2
:10EB00009C2500206025002098250020234B10B56F
:10EB10001960234B041C1860224B1A60830712D51E
:10EB20000D22214B21481A700132DA7001329A719C
:10EB300001325A724A080421FCF7F6FB002820D063
:10EB4000E30703D41CE0C3070ED50020A023F02266
:10EB5000A1210024DB055204C9005A5014495C501D
:10EB60000C315A5000280BD112480021124AFCF7F0
:10EB7000E5FF002804D111480121114AFCF7DEFF0E
:10EB800010BDFCF72BFC0028DAD10E4800210E4AFC
:10EB9000FCF7D4FFE307E5D5D8E7C0467025002091
:10EBA0006825002074250020BC250020D8420200E2
:10EBB0000C050000D4420200C1E30100F84202004B
:10EBC000CDE20100C042020005E70100031C07205E
:10EBD000032B00D97047012A13D0012917D000292F
:10EBE00008D0022919D15800C3180D48C3185A700B
:10EBF0000020EFE75800C3180948C3189A70002096
:10EC0000E8E700220129E8D11A1C0D32D2B25800DF
:10EC10000349C3185A540020DCE70720DAE7C0464E
:10EC2000BC250020E0231D4ADB00D2581C4B1A40B3
:10EC30000023C10701D5C0239B021343E0221749DB
:10EC4000D2008B50174B9A58154B1A40002381075E
:10EC500001D5C0239B021343E0221249D2008B50FE
:10EC6000114B9A580E4B1A400023410701D5C0237F
:10EC70009B021343E0220C49D2008B500B4B9A5855
:10EC8000074B1A400023010701D5C0239B02134301
:10EC9000E0220649D20000208B507047440000500B
:10ECA000FFFFFCFF480000504C0000505000005097
:10ECB00008B50320FFF7B6FF031C0020002B02D08D
:10ECC000062B00D0181C08BD10B50388102B08D0E7
:10ECD000112B05D1294A1368013B1360002B07D083
:10ECE00010BD264C2368002B11D001332360F7E7B9
:10ECF000002002210122FFF769FF00282BD00728FE
:10ED000029D01F4B1B68002BEAD09847E8E700206A
:10ED100000210122FFF75AFF002808D0072806D05B
:10ED2000174B1B68002B00D098472368DDE70120B4
:10ED300002210722FFF74AFF002801D00728EFD160
:10ED4000002002210422FFF741FF0028EDD0072810
:10ED5000E6D12368C9E7012002210722FFF736FF29
:10ED6000002801D00728CCD1002000210A22FFF77B
:10ED70002DFF0028B4D00728C3D1B1E7CC2500204F
:10ED8000C825002010B5244B82B00C1E186018D086
:10ED90006B460020991DFFF7D9FC002801D002B076
:10EDA00010BD6B460130D91DFFF7D0FC0028F6D10D
:10EDB0006B46DB79002B29D16B469B79002B28D140
:10EDC0002370164B1B68002B01D00020E7E70020C2
:10EDD00002210122FFF7FAFE002801D00728DED128
:10EDE000012002210722FFF7F1FE002801D00728A9
:10EDF000D5D1002000210A22FFF7E8FE0028E4D048
:10EE0000C31F5A1E93415B421840C8E70223237078
:10EE1000D7E70B232370D4E7C8250020CC2500209A
:10EE20003CDF704748DF704774DF704776DF70471C
:10EE300078DF70477ADF70477CDF7047A7DF704765
:10EE40007047C04608B5FCF7E1FA08BD08B50123D4
:10EE5000034A044811785940117002F099FD08BD29
:10EE6000502800205C28002010B510491048FDF7FC
:10EE70007BF8104C81B223680F480133236002F005
:10EE8000E1FC0823021C9A4307D00C4B984204D0A3
:10EE90000B4B984201D0FCF7B9FA2068032104F02B
:10EEA0000BF94B1E9941074B197010BDF02500203E
:10EEB00048280020082700205C280020043000009B
:10EEC00001340000E820002008B50A490A48FDF78F
:10EED0004BF8C1B2094801F099FD0823021C9A437E
:10EEE00007D0074B984204D0064B984201D0FCF75C
:10EEF0008DFA08BDCC2A0020542800200C280020C0
:10EF0000043000000134000010B5041CFEF7A8FE18
:10EF1000201C01F001FC10BD30B5051C85B00C1C97
:10EF2000002A05D12378152B08D0002005B030BD6C
:10EF3000101CFCF76BFA2378152BF6D1174C113BFC
:10EF4000281C01A90293039403F052F900280AD166
:10EF50002368DB070BD4281C03F0AAF90028E4D0AF
:10EF6000FCF754FAE1E70E4B9842F9D1DDE70D4B7F
:10EF70000D4A18880C21FFF761FF0823021C9A43F1
:10EF8000E9D00222094BC3189343E4D01128E2D000
:10EF9000074B9842DFD0FCF739FADCE74428002021
:10EFA00040800000EA200020FFFF0000FECFFFFFAE
:10EFB0000134000008B5124B1888124B984217D044
:10EFC0001321FFF733FF002816D10020FFF7D4FBF1
:10EFD00000280AD101F024FE002801D0FCF716FA1F
:10EFE000FA204000FDF7D0F808BDFCF70FFAF1E772
:10EFF000FFF71AFF0028E8D0FCF708FAE5E7C0465B
:10F00000EA200020FFFF000008B50378002B00D0A5
:10F0100008BD054B3B211888FFF708FF0028F7D0F3
:10F02000FCF7F4F9F4E7C046EA20002010B5041C10
:10F0300003F076FA1448211C02F072FA211C1348DE
:10F0400001F0C6FB201C01F0F3FD201CFFF73CFE85
:10F050000F48211C01F0B4FF2388102B09D0112B7D
:10F0600003D101220B4B52421A80201C01F0FAFA04
:10F0700010BD0720FFF780FB002801D0FCF7C6F980
:10F08000A288044B1A80F0E75C2800200C2800209E
:10F09000202B0020EA20002008B507281ED00A28CF
:10F0A0000ED0042800D008BD114B13211888FFF79B
:10F0B000BDFE0823021C9A43F5D0FCF7A7F9F2E73E
:10F0C0000020FFF759FB00280ED1FFF7F1FD0028C3
:10F0D00007D1FFF7A5FE0028E5D0EEE701F03AFBE7
:10F0E000E7E7FCF793F9F4E7FCF790F9EDE7C046A2
:10F0F000EA20002008B5064B1B78002B07D00549F5
:10F100000548FCF731FF81B2044802F027FC08BD36
:10F11000E8200020742A0020002700205C2800201E
:10F1200008B5002807D0032804D10138FFF724FBD5
:10F1300000280DD108BD0020FFF71EFB00280AD1D2
:10F14000FFF7B6FD002809D1FFF76AFE0028F1D0CD
:10F15000FCF75CF9EEE7FCF759F9F1E7FCF756F933
:10F16000F2E7C046F0B5474680B4E54FA4B00BAD1A
:10F170002B1C3A1C13CA13C3E24BE34A149380239B
:10F1800014AC5B006360A260E360281C211CDF4AB2
:10F19000FD3BFCF76DFF002801D0FCF737F900209C
:10F1A0000521DB4A0023FCF757FC002801D0FCF7BF
:10F1B0002DF9D8480121D84AFCF7C0FC002801D01D
:10F1C000FCF724F9D5480121D54AFCF7B7FC002803
:10F1D00001D0FCF71BF9D3480121D34AFCF7AEFC60
:10F1E000002801D0FCF712F9D0480121D04AFCF7E1
:10F1F000A5FC002801D0FCF709F90320CD49CE4A2F
:10F20000FFF784FC002801D0FCF700F90020211C46
:10F21000FFF7B8FD002801D0FCF7F8F82678391C74
:10F22000023E73425E410C310422281C04F04FF868
:10F23000281CC24948220023F6B203F0F7FD00283B
:10F2400001D0FCF7E3F800200121221C03F058FE56
:10F25000002801D0FCF7DAF80123227BB8481343D9
:10F26000237303F065FE002801D0FCF7CFF8201CC3
:10F2700003F068FE002801D0FCF7C8F8B14803F09D
:10F2800013FE002801D0FCF7C1F8AF4803F016FECA
:10F29000002801D0FCF7BAF82E70FEF7CDFD00284B
:10F2A00001D0FCF7B3F8281C02F048FE002801D07A
:10F2B000FCF7ACF85520002105226844FBF7A8FFB5
:10F2C00001236279211C1A4381231A4030231343FE
:10F2D0007F22134063710723A3710933E3719B4BB2
:10F2E0001493012323719A4B181C984602F0CCFE0C
:10F2F000002801D0FCF78AF80F2101222B78954EC7
:10F300008B43134310220B401343301C2B7004F02B
:10F3100015F8311C82B2281CFFF78EFD002801D0A1
:10F32000FCF774F88C48FFF783FD002801D0FCF748
:10F330006DF8201C00210822FBF76AFFA0235B0068
:10F340002380C83363800023A3809133FF33201CC4
:10F35000E380FFF76FFD002801D0FCF757F800218C
:10F360003822201CFBF754FF022323700433E37080
:10F37000033B2382794B012263610023A270EB607F
:10F380002A732C32FF322A61783A6B60AB60AB6132
:10F39000EB612B626A610B930093201C00212A1CF5
:10F3A0006F4B00F05BFF002801D0FCF72FF80B2714
:10F3B000032306AE6F4400211422301C3B70FBF780
:10F3C00027FF0023B7600F27012110200693013388
:10F3D0003371337BBB430B433B4003433373002305
:10F3E0007373B373F37BBB430B431A1C3B1C134077
:10F3F0000343F37300235B4F311C381C337402F05A
:10F40000B7F8002801D0FCF701F800211422281CCD
:10F41000FBF7FEFE0F21012210206B7B8B43134371
:10F420000B4003436B73AB7B8B4313430B40034392
:10F43000AB730023EB732B7C8B431A4300231140E7
:10F440000122014329740B93AB6047486433291CA4
:10F450002A712B7301F0ECF9002801D0FBF7D6FFDD
:10F4600040220021201CFBF7D3FE201C3F4902F064
:10F4700099FA3C210F200122635C8343134310223D
:10F4800003401343635400223D23201CE25401F047
:10F49000CBFE002801D0FBF7B9FF03AD0021281CEB
:10F4A0000C22FBF7B5FE324B32486B600023291C5F
:10F4B000AB6001332B8001F019FC002801D0FBF771
:10F4C000A5FF2D48FCF708FD43461878FCF70AFD18
:10F4D0005123012629492A480B60133398464B6073
:10F4E0008E600E73FCF734FD8C23002525492648D9
:10F4F0000B60A0334B60233BFF3B8B600D7345E0FB
:10F50000FC420200002600200C27002041EE0100F2
:10F51000AC28002040430200C9EE01004443020031
:10F5200069EE01004C430200F5F00100484302007F
:10F530004DEE0100CD0C000099F00100842A00205E
:10F54000E81F00202DF0010009EF010019EF010074
:10F55000FC2A00200C43020041030000EC200020A4
:10F5600021F101005C2800200C2800201C4302002F
:10F5700085BD0100202B0020B5EF0100CC2A002022
:10F5800054280020F025002048280020FCF7E0FC4B
:10F5900043462E492E480B609133FF334B608E60FB
:10F5A0000D73FCF7D5FC201C00211C22FBF730FE5C
:10F5B000A0239B026360F0231B03A3600323149525
:10F5C0002373BB89201CE381224B25746361224B8A
:10F5D000A36101F0E9FA002801D0FBF717FF1F48EB
:10F5E00003F092FE80211E4849020022FCF7C0FA77
:10F5F000002801D0FBF70AFF80211A4809020022E7
:10F60000FCF7B6FA002801D0FBF700FF16481749AF
:10F610000022FCF7ADFA002801D0FBF7F7FEA0218D
:10F62000134889020022FCF7A3FA002801D0FBF757
:10F63000EDFE032000F0B6FE002803D1FFF7F2FB39
:10F640000028FBD0FBF7E2FEF8E7C046742A002052
:10F650000027002009F0010045EE010030430200C0
:10F6600024280020002B0020DC2A00206626000031
:10F67000D025002071DF704772DF704779DF704757
:10F680007DDF704765DF7047F0B50488051C83B0E7
:10F690000720012C04D01488A01C984202D90C2009
:10F6A00003B0F0BD2E78012E04D16E7802363619E3
:10F6B000B342F4D3023B1C1B6B460F1CA4B20818C8
:10F6C000991D161CDC80FFF7DBFF0028E8D12B78A2
:10F6D000022B18D0012B11D0231C0821FE2BDED8C1
:10F6E0003288581CB85432880020013292B23280DD
:10F6F000B954328801329B183380D1E76B789C4231
:10F70000EBD2231CE9E76B46DB8809219C42E5D25A
:10F71000231CE2E7F0B55F46564644464D46F0B43A
:10F7200085B09A460EAB80CB061C1B8800919B4689
:10F730003B88904601930388002B5BD000239946B9
:10F7400002AB0024DD1C03E033880134A3422ADD30
:10F750007368A1009C460422614403A803F0B7FD2E
:10F7600003A8291C0022FFF78DFF002826D12B7843
:10F770004345E9D14B46002B27D043463A88D3185E
:10F780005B4539DC524403A8291CFFF77BFF0028A6
:10F7900014D13B882A780134D3183B800123994641
:10F7A0003388A342D4DC4B46002B23D03B88019AFC
:10F7B000013B9B1A9BB20C20FF2B18D905B03CBC17
:10F7C00090469946A246AB46F0BD42463B889A1801
:10F7D00002325A4510DC69465246013309789BB221
:10F7E0003B80D1543A88013292B23A80CAE7111C68
:10F7F000524653540020E1E70C20DFE7F0B55F46A6
:10F8000056464D464446031C0020F0B4178810802D
:10F81000586B87B0002800D16FE10478022F18D907
:10F820000220112508701088013080B210800D541C
:10F830001088013080B210800C5414880134A4B2B6
:10F840001480186B002800D177E0251C1235BD42CA
:10F8500007D90C2007B03CBC90469946A246AB465F
:10F86000F0BD11250D551488013D0134A4B214805A
:10F870000D5514880134A4B21480C57B0D5514882D
:10F880000134A4B21480857B0D5514880134A4B2D0
:10F890001480457B0D5514880134A4B21480057B77
:10F8A0000D5514880134A4B21480C57A0D551488FE
:10F8B0000134A4B21480857A0D5514880134A4B2A1
:10F8C0001480457A0D5514880134A4B21480057A49
:10F8D0000D5514880134A4B21480C5790D551488CF
:10F8E0000134A4B2148085790D5514880134A4B272
:10F8F000148045790D5514880134A4B2148005791B
:10F900000D5514880134A4B21480C5780D5514889F
:10F910000134A4B2148085780D5514880134A4B242
:10F92000148045780D5514880134A4B214800078F1
:10F93000085514880134A4B214802E201D5C002DBB
:10F9400000D0DCE01E1C2D23F35C151C8846002B28
:10F9500000D0F7E0B378002B00D024E1F378002B3F
:10F9600016D0E21CBA4200D973E702224146404653
:10F970000A5501212A88013292B22A8081542A88AC
:10F98000013292B22A8083542C880134A4B22C8094
:10F990007368002B16D01A78E31CBB4200D958E7D5
:10F9A0000223414640460B550A212B8801339BB266
:10F9B0002B80C1542B8801339BB22B80C2542B88DF
:10F9C00001332B803389002B00D010E1338A002BC8
:10F9D00000D076E1338B002B00D08BE1336A002B13
:10F9E0004AD02A880C20911DB94200D932E71988E3
:10F9F00005388B46052900D82CE7CC4C5C44A4B2D2
:10FA0000A146CB4CA446A14500D823E75C88A2467A
:10FA1000052C00D81EE7C54C6946A146D1444C468A
:10FA2000CC81CC89644500D814E7C24CA34504D0EE
:10FA3000A24502D0D34500D90CE7052140468154A8
:10FA40002A880D31013292B22A8081542A880132EB
:10FA500092B22A80198842441170090A51702A888A
:10FA6000023292B22A805988131C43441970090A41
:10FA700059702B8802332B80746A002C32D0A288F4
:10FA80002988131D5B180C20BB4200D9E2E6931CA9
:10FA9000FE2B00D9DEE6434603325A54FF2241468C
:10FAA0002B8801339BB22B80CA542B8801339BB225
:10FAB0002B80228843441A70120A5A702B88023312
:10FAC0009BB22B80A288002A0CD0A168053800299F
:10FAD00000D1BFE64344181C03F0F9FB2A88A38831
:10FAE000D3182B802C23F35C002B00D098E03378C4
:10FAF000002B00D0DEE00020ACE60024A1E6E61CEE
:10FB00002238BE4200D9A5E602260E551C241088D4
:10FB1000013080B210800C541088013080B2108007
:10FB2000022D00D10FE100D806E1032D00D108E13C
:10FB3000042D00D0F7E003240C5414880134A4B23F
:10FB40001480FFE609340C20BC4200D982E604A8E8
:10FB5000FFF790FD002800D07CE6414608222B8864
:10FB6000CA542B88133201339BB22B80CA5402AB88
:10FB70009C4609212888153A013080B228806144CA
:10FB8000404403F0A4FB2B8802AA0633127A9BB2EE
:10FB90002B80002A00D001224146CA542C8801340F
:10FBA000A4B22C80D6E604340C20BC4200D951E625
:10FBB00004A8FFF763FD002800D04BE6032241466E
:10FBC0002B88CA542B88163201339BB22B80CA541F
:10FBD0002B8802AA01339BB212892B8043441A70EE
:10FBE000120A5A702C880234A4B22C80B6E6341C57
:10FBF000083400950197201C022102224346FFF79A
:10FC000089FD002800D025E600950197201C0621DB
:10FC100010224346FFF77EFD002800D01AE6D5E605
:10FC2000B46A002C00D17EE0A3880233FE2B00D9F9
:10FC30000FE60022914616329246163228889346E5
:10FC40000BE04B465C00B36A4C449C46A400644401
:10FC5000A3880233FE2B00D9FBE54246514601330F
:10FC600013542B8801339BB22B80D1542B88013342
:10FC70009BB22B80228843441A70120A5A7028883B
:10FC8000023080B22880A288002A0AD0A168002908
:10FC900049D0404403F01BFB2888A388C01880B2D9
:10FCA00028804B460133DBB299465B46F35C4B45FB
:10FCB000C7D81CE7301C41462A1C3B1CFFF7E4FC5C
:10FCC000C8E5341C103400950197201C0321022242
:10FCD0004346FFF71FFD002800D0BBE500950197C4
:10FCE000201C072110224346FFF714FD002800D0F6
:10FCF000B0E56FE6341C183400950197201C1421E0
:10FD000002224346FFF706FD002800D0A2E5009539
:10FD10000197201C152110224346FFF7FBFC002809
:10FD200000D097E55AE6072094E5C0467FF3FFFF31
:10FD30007DF30000FFFF0000012DF4D100240C54DE
:10FD4000FBE60E54F9E601240C54F6E6F0B54E46F7
:10FD5000574645461F23E0B496B002AA041C0E1C69
:10FD6000D381002800D171E0C3785B0767D50023F9
:10FD700002AA9381436B002B00D13EE11B78022243
:10FD800006ADAB7003230327052104202A700F3230
:10FD90006A7002AA9381226B002A3AD0112306AD21
:10FDA000EB55013B2B54D37B6B54907B4B1CE8549D
:10FDB000507B8B1CE854107BCB1CE854D07A0B1D75
:10FDC000E854907A4B1DE854507A8B1DE854107A11
:10FDD000CB1DE854D0790133E85490790133E854CD
:10FDE00050790133E85410790133E854D078013365
:10FDF000E85490780133E854013302A883815078A5
:10FE0000E854013302A883811278EA5401338381D4
:10FE10009BB22E22A25C002A00D0F1E12D22A25C2E
:10FE2000002A00D011E1A278002A00D03DE1E2785A
:10FE3000002A35D0D91C1F2925D90C2000E0072025
:10FE400016B01CBC90469946A246F0BD002502ABF8
:10FE50009881002E00D1D4E0F378002BEFD102AAD4
:10FE600094460E236344301C0EA91A1CFFF7C6FCEF
:10FE70000028E5D102AB9B7B0EAA02A9097B281CB6
:10FE8000FFF7FAFBDCE70220012706ADE854581C17
:10FE900002339BB280B22F54EA548BB202AA9381F0
:10FEA0006268002A0FD01078DA1C1F2AC5D80221F8
:10FEB0000A2706ADE954591C02339BB289B26F542C
:10FEC000E85402AB9A812389002B00D09EE0238A5C
:10FED000002B00D00AE1238B002B00D025E1236A00
:10FEE000002B43D002AA92890C20911D1F29A7D86C
:10FEF0001888824655460720052DA1D9D24D554474
:10FF0000ADB2AC46D14DA846AC4599D95D88A9465D
:10FF1000052D00D894E7CC4D6F46AC46CC446546E1
:10FF2000FD81FD89454500D88AE7C94DAA4504D021
:10FF3000A94502D0CA4500D982E70520122706AD9F
:10FF4000A854501C80B22F54901C80B202AFB881CC
:10FF50001F88281807703F0A477004325B8892B2E6
:10FF6000AD182B701B0A6B7002AB9981676A002F6A
:10FF70002FD0BB880C20991C02AB9B899A1C55186A
:10FF80001F2D00D95CE7FE2900D959E706AD0131E4
:10FF9000E954591C89B2F330685492B202A98A819B
:10FFA0003988AA180433117098B2090A02AB51704B
:10FFB0009881BA88002A0CD0B968002900D13EE7A0
:10FFC000281803F084F902ABBA889B89D31802AAD7
:10FFD00093812C23E15C002900D0C5E006AD237895
:10FFE000002B00D135E7201C291C05AA1F23FFF791
:10FFF0004BFB002800D12CE722E70027022101203B
:020000022000DC
:10000000C9E602ABDE810022002336E705AB271CE0
:1000100000931F23083706AD98460193381C022130
:1000200002222B1CFFF776FB002800D008E705AB67
:1000300000934346381C0193062110222B1CFFF726
:1000400069FB002800D0FBE641E709330C201F2B99
:1000500000D9F5E60EA8FFF70DFB002800D0EFE66B
:10006000082202AB9B8906ADEA545A1C023398B2AF
:100070001B2102AB9C4692B2A9541631988161446F
:100080000622281803F023F9302002AB02A99B892D
:10009000091809789A1D92B2002900D0012107336E
:1000A000A9549BB202AA9381BDE604330C201F2BF6
:1000B00000D9C5E60EA8FFF7E1FA002800D0BFE698
:1000C0000322192102AB9B8906ADEA545A1C92B255
:1000D000A95402AA118E9A1C92B2AD180433297049
:1000E0009BB2090A02AA69709381A0E605AB271C9E
:1000F00000931F23103706AD98460193381C032147
:1001000002222B1CFFF706FB002800D098E605AB67
:1001100000934346381C0193072110222B1CFFF744
:10012000F9FA002800D08BE6D5E605AB271C009332
:100130001F23183706AD98460193381C142102225C
:100140002B1CFFF7E7FA002800D079E605AB0093F7
:100150004346381C0193152110222B1CFFF7DAFAB5
:10016000002800D06CE6BAE6A76A002F00D166E648
:10017000BB880233FE2B00D95FE602AA90890022D9
:100180009046163291461632924606AD4A460133E3
:100190002B54431C9BB2EA54831C9BB202AA93814A
:1001A0003A88EB181A700430120A5A7080B202AB07
:1001B0009881BA88002A0FD0B968002900D13EE69C
:1001C000281803F084F802AB9B89B888C01880B265
:1001D00002AB98815346E15C43460133DBB298465B
:1001E0008B4200D3FBE643465F00A36A47449C462C
:1001F000BF006744BB880233FE2BC7D90C201FE623
:1002000002201C27591C06AD89B2E8546F541918F6
:1002100089B282420CD010D9032A0CD0042A00D013
:100220000DE603226A5403339BB202AA9381F5E5DB
:1002300001226A54F7E76854F5E7012A00D0FEE589
:1002400000226D182A70EEE77FF3FFFF7DF30000B8
:10025000FFFF000073DF704774DF7047F8B5051CBF
:100260000E20002D00D17DE0002A00D17AE0002090
:100270000F1C3D4908703D490B6006993C4B1960C5
:100280003C490B1C13CA13C313CA13C313CA13C3A9
:10029000002107223848FAF7BBFF384B384A394E5D
:1002A0001A60394A00219A60301C3822FAF7B0FFF0
:1002B0002B782A1C3370AB781032B370EB78F37064
:1002C0006B787370331C103303CA03C3331C103AAA
:1002D000083303CA03C3331C0832183303CA03C3E9
:1002E0006B6A002B11D0294B294C7362696A9C60A0
:1002F0000A881A8088889880002806D000238A6897
:10030000D25CE25401338342F9D1AB6A002B14D0A2
:10031000204B2148B362A96A98608C889C800A8827
:100320001A800023002C05D08A68D25CC2540133A5
:10033000A342F9D12C23EA5CF2542B6A002B06D09D
:10034000164B33622A6A5188598012881A806B686A
:10035000002B03D0124B73606B687360301C391C28
:10036000FFF7F4FCF8BDC046602C0020942B002061
:10037000BC2B0020C82B0020C02B0020102C0020FC
:10038000EC2B0020502B0020402C0020882B00203C
:100390009C2B0020682C0020202C0020642C0020A6
:1003A0000C2C0020002370B5A34C86B0207068464A
:1003B0000093FDF777FF082800D1FCE0002833D137
:1003C000009B002B30D19D4E0021301C0722FAF7F4
:1003D0001FFF9B4D6B78002B2CD1AB78002B00D0EE
:1003E0009FE02378012B00D1B1E0022B00D1CBE0BC
:1003F0002A7B002A31D1032B2FD1042323702B7E9B
:10040000002B00D170E08F4B1A68002A2FD02B7878
:10041000002B2CD08C4B1B78002B28D101218B4B2F
:1004200007201970904725E001220020884B1A70A0
:1004300006B070BD2378012B04D0AA78002A74D0AE
:10044000022BD5D17F4A1268002A00D1F0E00121A9
:10045000804B082019709047C3E72A7E002A41D0BC
:10046000784A1268002A02D0033B012BCFD9002220
:10047000764B1A70182268460021FAF7C9FE00234D
:100480006A4613701372227801930393022A00D1F3
:10049000C1E02ED9032A00D194E0042A1FD16B4673
:1004A000AA8B1A822A8C5A826B4B1A79002A47D05F
:1004B0002A78002A47D0644A1278002A43D1694634
:1004C00003930423023265480A720021C370FFF7C8
:1004D0003DFC0028ACD10622614B1A702278002A1C
:1004E00016D00FE0042BBBD100235D4A237013709C
:1004F000BDE7012AF3D169464B820B82584B019626
:100500000A701A706846FFF7A5FE002800D08FE732
:100510004C4B1B68002B02D0514A107898470020A2
:1005200086E72378012B8BD18CE7022B00D05FE785
:10053000032323702B7B002B00D15EE703238FE77F
:100540001A7B002AB4D10422454B1A70DAE76A7884
:10055000002A17D07278002A00D081E7B278002AEA
:1005600000D07DE7F278002A00D079E73279002ABE
:1005700000D075E77279002A00D071E7B279002ABD
:1005800000D06DE702232370AB78002BD0D07378B6
:10059000002B0ED1B378002B0BD1F378002B08D1B0
:1005A0003379002B05D17379002B02D1B379002B5D
:1005B000BED0022354E76846FBF7A6FC002800D112
:1005C000FEE600E76B46AA8A5A822A8A1A82224BE2
:1005D0001A79002A18D02A78002A18D01A4A1278D4
:1005E000002A14D169460393042302321B480A727D
:1005F0000021C370FFF7AAFB002800D018E70522EE
:10060000174B1A7022786AE71A7B002AE3D103227B
:10061000134B1A7076E7012369460B706B462989E4
:100620000196598269466B680B820D4B1A7069E717
:1006300008490A70D6E6C046602C0020C02B002076
:10064000C82B0020942B0020BB2B00203F2C002027
:10065000982B0020612C0020102C0020502B002013
:10066000742C002008B50388112B20D01B2B09D037
:10067000102B00D008BD837D012BFBD18288204B3D
:100680001A80F7E7027A002AF4D11E4B1B78022B5E
:1006900030D027D9032B1DD0042BEBD11A4B1A7065
:1006A0001A4B1B68002BE5D000209847E2E7002298
:1006B000174B1A70124B82881B889A42DAD101209C
:1006C000FFF770FE0028D5D0124B1B68002BD1D04D
:1006D0009847CFE70C4A04201370FFF763FE002809
:1006E000F2D1C7E7012BC5D10220FFF75BFE00283E
:1006F000EAD1BFE70320FFF755FE0028E4D1B9E7B0
:10070000F8200020602C0020742C0020942B002066
:10071000BB2B0020BC2B0020023808B5012803D8D1
:10072000094B1A78002A00D108BD00221A70074B25
:100730001878FFF737FE0028F6D0054B1B68002B12
:10074000F2D09847F0E7C046982B0020602C00209C
:10075000BC2B002070B5144B1B78002B20D0134D00
:100760002B78002B1CD1124E3378002B03D0FFF7CF
:1007700073FD041E15D101230E482B700021053393
:10078000C370FFF7E3FA041E0BD13078FFF70AFEBF
:10079000002805D0084B1B68002B01D0984700E0CB
:1007A0000024201C70BDC046C82B0020BB2B00209D
:1007B000602C0020502B0020BC2B0020A0DF7047B5
:1007C000A2DF7047A3DF7047A4DF7047A6DF704742
:1007D00010B582B0002808D0002906D00B88112B54
:1007E00021D0502B03D0102B1AD002B010BD037DA6
:1007F000002BFAD0CA8843899A42F6D10B8A022B81
:10080000F3D10468002CF0D00B1CDA7C9B7C120224
:1008100013430122134001A953400B70A047E4E7A2
:100820008B884382E1E701235B424382DDE7C046D8
:10083000F0B54D465F4656464446F0B40E2595B099
:10084000002816D0002914D00B68894603600123C4
:100850005B4243820A79037406A902338B70684BAA
:100860000275071C021D01200B80FFF7A7FF051E64
:1008700007D0281C15B03CBC90469946A246AB4612
:10088000F0BD3B7D002B00D09EE00DAD281C00216B
:100890001C22FAF7BDFC02222B78397D1A43012372
:1008A0009A460B401801D3B21022934303432B7096
:1008B000002390464A1E91419B466B60EB602B6182
:1008C000494204AB0B406B615B465246AB6102ABE5
:1008D0009A754C4B05AE02AA938200210322301C6C
:1008E000FAF796FC4B469B7B062233704B46DB7B2C
:1008F00008AC7370B37800219343043A1343DBB21E
:10090000063293434246934352469343B3704B4659
:100910001B7B02AAD370201C1422FAF779FC07ABC8
:100920000893534623815B4663815346A38102AB00
:10093000033323616660291CB888BB1D221CFFF7A6
:100940003FFF051E95D14B469B68002B55D00123D8
:1009500002AA93752C4B00219382301C0322FAF7D4
:1009600057FC4B461B7C0622337000237370B37810
:100970009343043A1343DBB2063293434246934314
:1009800052469343B37003AB98464B464046996832
:1009900001F002F8814600211422201CFAF738FCED
:1009A00007AB23606A464B46D3804346D0883A1C47
:1009B000658166602081A0812361F8880E32211C48
:1009C000FFF700FF051C54E704AC00210322201CA4
:1009D000FAF71EFC0F21012223788B4313431022C8
:1009E0000B40134323704B4606225B7B6370A37856
:1009F000934302221343A37047E7F88139E7C046C7
:100A00000F180000192A000008290000F0B589B06D
:100A10006B46041CDE1DD971002822D0027CCBB2AB
:100A200000259A421AD002AF00210822381CFAF79A
:100A3000EFFB01237D803B807E60608AE1883A1C69
:100A4000FFF7C2FE051E09D13378628A2374114B69
:100A50009A4208D0237D0835002B06D1281C09B006
:100A6000F0BD0E25FAE70825F8E704AD281C0021A3
:100A70001022FAF7CDFBE388291C2B800123AB70F1
:100A80007B88AF60AB807B68EB60608AFFF79EFE7F
:100A9000051CE3E7FFFF000075DF704776DF704756
:100AA0007ADF70477BDF704710B5184B82B018882B
:100AB000174B984214D0174A174C13780133DBB206
:100AC0001370217B99420DD200231370237C002BDD
