:020000021000EC
:10B0000000400020B9180200F9180200FB180200E5
:10B010000000000000000000000000000000000030
:10B02000000000000000000000000000FD18020009
:10B030000000000000000000FF18020001190200DB
:10B040000319020003190200EDBD010003190200FB
:10B05000031902000000000045BB010003190200B3
:10B060000319020003190200031902000319020068
:10B070000319020003190200031902000319020058
:10B0800003190200D9B201000319020003190200DA
:10B09000B5B30100031902002918020003190200C8
:10B0A0000319020003190200000000000000000064
:10B0B0000000000000000000000000000000000090
:10B0C00010B5064C2378002B07D1054B002B02D07E
:10B0D000044800E000BF0123237010BD10210020B0
:10B0E00000000000641F020008B5084B002B03D0CD
:10B0F0000748084900E000BF07480368002B00D15B
:10B1000008BD064B002BFBD09847F9E70000000074
:10B11000641F0200142100200C2100200000000008
:10B12000164B002B00D1144B9D46402292029A1AD6
:10B13000924600218B460F461348144A121A00F01B
:10B1400067F80F4B002B00D098470E4B002B00D018
:10B1500098470020002104000D000D48002802D06F
:10B160000C4800E000BF00F02DF82000290003F09B
:10B170005BF900F011F8C046000008000040002014
:10B180000000000000000000102100202C2A0020F8
:10B190000000000000000000084B10B5041C002B4C
:10B1A00002D0002100E000BF054B1868836A002B25
:10B1B00000D09847201C00F033F8C0460000000083
:10B1C0008C1C02000E4B70B500251E1C0D4CE41AA1
:10B1D000A410A54204D0AB00F35898470135F8E716
:10B1E00006F046FD084B00251E1C084CE41AA4106E
:10B1F000A54204D0AB00F35898470135F8E770BD7D
:10B200000421002004210020042100200821002026
:10B21000031C8218934202D019700133FAE7704779
:10B22000FEE7C046002300B585B001AA906000216A
:10B2300003481380536000F005F805B000BDC04618
:10B2400001400000BFF34F8F034A044BDA60BFF3A5
:10B250004F8FC046FDE7C0460400FA0500ED00E050
:10B2600080218023184A8902D1508022D221174B95
:10B27000520289005A5040395A5001222F205A60F8
:10B280000138C046C046C046C046C046C046C0465B
:10B29000C046C046C046C046C046F1D19A600023B1
:10B2A0000B4A2F2013600138C046C046C046C04636
:10B2B000C046C046C046C046C046C046C046C0465E
:10B2C000F1D1044A1370704700E100E00010014022
:10B2D0002C2100204C210020A021F0B5002347465E
:10B2E0002B4A490080B45350043153500431535019
:10B2F000043153504C39535004315350254B1B6883
:10B30000002B35D02449002652582449244F0C687C
:10B31000141B00222402240A904602E0002D18D0BB
:10B320002B1C1A68A24214D8A41AB6181A7CDD691C
:10B33000002AF3D0424699691A745A693B68002B77
:10B3400019D0101C98470028E8D0FFF76BFF002D9C
:10B35000E6D1144B14491A780B789A420ED0134A4E
:10B360009B009E5080218023114A49035B00D150ED
:10B3700004BC9046F0BD081C9047CFE70132D3B221
:10B38000022B01D00B70EAE700230B70E7E7C04601
:10B390000010014030210020040500002C21002075
:10B3A00034210020402100204121002044210020A0
:10B3B00000E100E0F0B55F4656464D464446F0B425
:10B3C000B44BB54A1B68B54989B001930978137825
:10B3D000994200D1B1E10133DBB2022B00D100234D
:10B3E0001370AF4A9B009B58AA4A9946019B4B4455
:10B3F0001B021B0A136001230493AA4B00241B6841
:10B400009B46A94BD8461B781A1C0293A74B94461F
:10B4100007931B6803939F4B1B680693A44B1B78F1
:10B4200005935B466646013EF2B29446FF2A4FD032
:10B430006246D000039A9246504401784578A9426A
:10B44000F0D04A005218877801314668C9B27F1A95
:10B45000B2467E1EB741D2007F425244394017782F
:10B46000022F0AD0032FEAD1002BE8D01C74DB692D
:10B47000002BFBD145789846E1E75668002B25D094
:10B480009E421AD01F1C00E0171CFA69002AD6D071
:10B490009642F9D1321C3D1CBE4200D1EBE0176848
:10B4A000D269EA61002A06D013689A4657441760A9
:10B4B00045784346C3E74578C1E7DE691A1C002E8C
:10B4C00000D1DDE0B046331C151CE8E70023B6E7E9
:10B4D0006946774A097D181C11706E4A06990393D4
:10B4E000116041466F4A1160049A002A00D028E199
:10B4F0005B461B1A5A1E93410025DBB20493079B3F
:10B5000000271B68039E0693624B1B689C46654B95
:10B510001B689A46664B1B780593664B0193012383
:10B520009846029B013BDBB20293FF2B00D18FE0D8
:10B53000069ADB0093469B44002D27D06968AB68D0
:10B54000281CED696246019C8A1A1202120AA24264
:10B5500050D8D31842460360476087600274C761C1
:10B56000002E56D03168341C994204D35FE0116834
:10B57000994263D2141CE2695B1A002AF7D1036076
:10B58000331CC261E0611E1C002DD7D15B465A46B8
:10B590001B7852789A42C4D0594649685A00894665
:10B5A0005946D2180133DBB20B708978D2004A4475
:10B5B00099424AD011785068331C0129E3D1037CA9
:10B5C00099464946331C0029DDD191684160D36812
:10B5D00083601469C46052698261059A002AB1D0FF
:10B5E0004A46002142606246019C8A1A1202120AEF
:10B5F000A242AED96246511A0902090A99420CD2F6
:10B6000042465B1A0360476087600274C761002E80
:10B61000A8D1031C82461E1CB6E74346076047605C
:10B6200087600374C761002EF3D000233168CB1A02
:10B630003360031CC66182461E1CA5E7C91A11604F
:10B640000360C261331CE0619DE75B461D70B1E79A
:10B650005246144B1A60039BB3422FD1049B002B1C
:10B660002CD10023124A137009B03CBC9046994675
:10B67000A246AB46F0BDDE693A1C002E00D021E7A1
:10B6800001250D4B9D600023069601369846151C3A
:10B69000059604E72C2100204021002041210020B4
:10B6A0004421002030210020382100203C210020AE
:10B6B00042210020FEFF7F0000100140002E63D0D9
:10B6C000484B49493568CC58484B494E1B6830783F
:10B6D000E21A1202120A03329046002861D0424652
:10B6E000AA4200D22A1CA820D21812023E49130AEC
:10B6F000C0003C4D0B504A591B1B121B1202120A70
:10B700001B0203321B0A9A42ABD94B590B502F2014
:10B710000138C046C046C046C046C046C046C046C6
:10B72000C046C046C046C046C046F1D180218023F5
:10B73000304A89025B00D15093E700239946049375
:10B740005BE60025002100244846464613E01A68BF
:10B7500082421CD8DE68801A89181C60DF69002EBE
:10B7600007D0DD611D1C019A9E608A181202120A20
:10B770005A603B1C3E1C002BE9D11F4B1E6000236E
:10B78000039301330493BAE6FFF76AFD69E7814644
:10B79000194903930E604946521A1A600123049313
:10B7A000ADE68020D1274002BF00C851403FC851BC
:10B7B000C02280270F48BF02520087500760012730
:10B7C0002F200F600138C046C046C046C046C04664
:10B7D000C046C046C046C046C046C046C046F1D17D
:10B7E00037707CE704050000001001402C21002088
:10B7F0004C21002000E100E030210020F8B54F4648
:10B800004646C0B40326351C80460F1C141C9946BE
:10B8100015400720002D03D00CBC90469946F8BD7A
:10B82000002A44D0FFF71CFD4A46224B80201A60B4
:10B83000221C214B18321E70204B62601C607B0062
:10B84000DB19DB00D218E260D318C02263612570D7
:10B850006570A77025726572A77225746574A774E8
:10B86000C524FF21164B40031D60164B52001D706E
:10B87000154BA4001D70154B98501A598A433F3937
:10B880000A431A51A122186040461149D20088503B
:10B89000C42080001C580F4A2240C02424022243A6
:10B8A0001A500D4B0020CA580C4B1A60B4E7034BDA
:10B8B0001A60B1E734210020382100203C2100200B
:10B8C00030210020402100204121002000E100E043
:10B8D00000100140FF00FFFF040500002C210020A4
:10B8E00010B50B4B1B68002B0BD0002A07D000288B
:10B8F00005D0036808201C7C002C04D010BD072054
:10B90000FCE70820FAE759745A610020F6E7C046C0
:10B910003C210020F0B5474680B4374B1C68002C12
:10B9200008D0002806D00723042905D8181C04BC19
:10B930009046F0BD0823F9E74369002BFAD00025B3
:10B94000437CA846012B2FD0EFF30583DB05DB0DED
:10B950001025002B2CD164196378A5785E1CF6B2F3
:10B96000AD1B6F1EBD416D422E402578B5421DD0E6
:10B970005D00EB186568DB00ED180423002DD5D0C1
:10B98000033B2B7068601D4B1D48C358E960AB60DA
:10B99000434680212B6180236A611A4A5B00490378
:10B9A0006670D1500023C1E78846CDE70423BDE788
:10B9B000103BDEB275B2002D13DBAD08114EC03561
:10B9C000AD00AD5903263340DB00DD402B069B0F55
:10B9D000DBB20025012BBED00835032BBBD00835C8
:10B9E000B9E70F23084D3340AC46083B9B089B004A
:10B9F00063445D680323E6E73C2100200405000062
:10BA00000010014000E100E018ED00E030B52E4AE2
:10BA1000031C12680820002A2ED0002B2CD0596954
:10BA2000002929D000211974EFF30581C905C90D3A
:10BA30001025002923D155196A78A978541CE4B23D
:10BA4000091B481E814149420C402978A14214D06B
:10BA500051008A186968D2008C4662440420002A8A
:10BA60000AD0022153601170802380210020174AE0
:10BA700049035B006C70D15030BD0420FCE71039E5
:10BA8000CCB260B2002813DB8008104CC0308000BC
:10BA9000005903242140C900C8400106890FC9B2DA
:10BAA00000250129C7D008350329C4D00835C2E7CD
:10BAB0000F210748214084460839890889006144DC
:10BAC00048680321E6E7C0463C21002000E100E091
:10BAD00018ED00E0002804D0034B5B6D03600020EC
:10BAE00070470320FCE7C046502100200B7B002B51
:10BAF00004D101220B680271036070474B68002279
:10BB0000F9E7C04610B50279031C002A08D048683E
:10BB10001A688968841A8C420CD98818186008E061
:10BB200004688A680868211A914207D801221860BF
:10BB30001A7110BD002218601A71FAE7A01A186075
:10BB4000F7E7C046F0B544465F4656464D46F0B46A
:10BB50009C4A87B013680024012B00D1AEE09A4BB9
:10BB60001A68012A00D1B7E0984B1A68012A00D15F
:10BB7000C2E0974B1A68012A00D1CDE00022954B14
:10BB800002921A68012A00D1D8E023070BD0E307FC
:10BB900000D5DFE0A30700D5EBE0630700D5F6E0B2
:10BBA000230700D502E1002C06DB07B03CBC904621
:10BBB0009946A246AB46F0BD002301270493C0334B
:10BBC00099460126844D7F4200230393E023DB0046
:10BBD00000249846231C4033E95C4BB201332CD03F
:10BBE000C9B24B46081C98433B1CC3401E4224D09C
:10BBF0008B0901932B1820331B785BB29B00EB5809
:10BC00009C46002B35D0331C83409A46019B032B66
:10BC100035D0A023DB059B46434682005A44D358C7
:10BC20000592C022920213401B0C191C53469346E6
:10BC3000029A1A4212D1032926D00134042CC9D108
:10BC4000039B002BB1D0A223A022DB00D205D35846
:10BC5000029A9A42A9D0049F0293B5E70229ECD137
:10BC6000019B032B16D06346002BE6D00199E047D9
:10BC7000E3E7019B032BE0D1331C83409A465246F5
:10BC8000049B13430493C4E7019B032BEBD1802354
:10BC90009B029B4643460599CB589A4652464F4BCA
:10BCA000134042468B508B585A461A43131C424647
:10BCB0008B50039B0133DBB20393D4E7C121484887
:10BCC000890041580B4200D149E73F4B14601A6884
:10BCD0000134012A00D047E7C12241499200895826
:10BCE00002220A4200D13FE700211960374B14437A
:10BCF0001A68012A00D03CE7C122394992008958CC
:10BD000004220A4200D134E700211960304B144369
:10BD10001A68012A00D031E7C122314992008958BE
:10BD200008220A4200D129E70021144300221960A9
:10BD3000284B02921A68012A00D026E700221A60D6
:10BD400080231B061C43A022A223D205DB00D3586C
:10BD500002931AE7A223224ADB00D058D1581E4D85
:10BD6000C00489032B68C00E890F9847A30700D42D
:10BD700013E71C4B1A4A184DD058D158C0048903F8
:10BD80006B68C00E890F9847630700D408E7A323A8
:10BD9000134ADB00D058D1580F4DC0048903AB685B
:10BDA000C00E890F9847230700D4FCE60C4A0E4BBF
:10BDB000094DD058D158C0048903C00E890FEB68D3
:10BDC0009847F0E6006100400461004008610040CF
:10BDD0000C6100407C610040A8210020FFFFFCFFB7
:10BDE00000600040140500001C050000C12210B5D1
:10BDF000604B92009A5884B092054DD55E4A116806
:10BE0000002949D0002111608121C22289009200BD
:10BE100099505A4B9A7E002A02D10121584A11604A
:10BE2000022269460A7090215248C9004258425085
:10BE300069460392DA7D68460A72DA6819680192E7
:10BE40000022DA751A765B6898474E4A1368002B11
:10BE500010D04A4B988A997D81424FD900211160B8
:10BE60009A8A9968895C9A8A013292B29A82464B80
:10BE7000404AD150454B1A68002A0BD000221A6064
:10BE80003E4B9A7E002A02D001213A4A1160DA7DA7
:10BE9000002A42D104B010BDC123364A9B00D358BA
:10BEA0005B07D2D53A490B68002BCED0334BD87DF7
:10BEB00000283FD10860A321C90052585A7ED97D7D
:10BEC0009142C2D11A7E002A41D19A7E002A02D123
:10BED00001212B4A11608120C22226498000920054
:10BEE0008850002268460121DA755A7E017002727C
:10BEF000DA68196801925B689847A6E7002010602D
:10BF00000029B7D06A46107011729A68987519683E
:10BF100001925B6868469847ACE7002268460121B9
:10BF2000DA755A7E01700272DA68196801925B68EC
:10BF30009847AFE700200860A320C000597E125840
:10BF4000D86842545A7E0132D2B25A76B6E7DA75D0
:10BF50001A69D968DA6000226C46587E1A765A76D9
:10BF60000132207201912270196868465B68984717
:10BF70006BE7C0460020004024210040F021002053
:10BF8000042000401C2100401C050000442100400A
:10BF90000821004029DF704728DF704730B583B0A3
:10BFA000002806D0112806D108230F4A11680B4338
:10BFB000136003B030BD021C0C4801788B005B1885
:10BFC0009B00C518281CE9686B694C006418297926
:10BFD000074DA4002D680C300095064D6459A0470C
:10BFE0000422054B1A70E4E7F02200200C22002006
:10BFF000FC220020E0220020F5220020F0B55F4660
:10C000004D4644465646F0B45E4F85B03C785E4D92
:10C01000012C00D188E0002C00D16DE0022C16D05C
:10C02000032C0DD1594B1868FFF7B6FF021E07D03D
:10C03000112800D080E00823554A11680B43136093
:10C0400005B03CBC90469946A246AB46F0BD504B6D
:10C0500099461B6803932B789E00F3189B00EE18FB
:10C060003369984680235B05196940460904090C29
:10C070009B4605F047FC454B824618605B461969B4
:10C080004346581EF3880904C018090C05F03AFC11
:10C0900082454CD00323039C9C434B461C603D4B84
:10C0A0001B68002B02D10233234262D000223A4B9C
:10C0B0001A703A4B5869431C54D080235B051969A8
:10C0C0000904090C05F01EFC031C802252051069AE
:10C0D00011690004013B000C09045843090C05F0E8
:10C0E00011FCFFF759FF021EAAD0112824D1082302
:10C0F0001C434B461C60A3E7294B1C60294B1C606A
:10C100006B78002B9CD02B789A00D3189B00ED18ED
:10C11000EA88254B1A602B79032B27D0042B25D0D6
:10C12000012B00D08CE73B7000F000FC88E7012376
:10C13000039A9A431443B0E72B789800C018800004
:10C140002E18301C184DF3682D685C00E418317906
:10C1500073690095154DA4000C306459A047042361
:10C160003B706DE780235B055B69AEE700F020F86C
:10C1700066E7094A50461370FFF70EFFFFF70EFF00
:10C180005EE7C046F52200200C2200200823002094
:10C19000F022002004230020F422002000100010D0
:10C1A00000230020D8220020FC220020E0220020D2
:10C1B000F0B55F4656464D464446F0B45B4B5C488E
:10C1C0001A78802791008A1892009B18DD681E69F2
:10C1D0006A0052199200821814895089526860438B
:10C1E00080469044DA881B89141C9946514B92462C
:10C1F0009B4600235A467F05396983B009044C44A5
:10C200001360090C301CA41905F002FC002924D18C
:10C210003B699BB29A4537D044456CD0022D33D050
:10C22000301C3969484489B205F0F2FB424B890859
:10C2300019603969201C0904090C05F0E9FB002983
:10C2400032D102223D4B1A70FFF7D8FE03B03CBC3E
:10C2500090469946A246AB46F0BD022D14D0301C44
:10C26000396948440904090C05F0D2FB324B8908AE
:10C27000196039694445E4D00904090C201C05F013
:10C28000C7FB0029DDD00FE080235B051969301C56
:10C290000904090C05F036FB0322294B1860274BD3
:10C2A0001A70FFF7ABFED1E780256D0529692B6970
:10C2B0006A4699464346D380D08889B205F022FB6E
:10C2C0006A464B46A6B2D380071CD188301C05F0C5
:10C2D00019FBBFB280B287421DD02C692969301C7E
:10C2E00089B205F095FB5B462404240C89B2641ADC
:10C2F000A4081C60A5E74B46002BC5D0022DC3D077
:10C30000301C3969484489B205F082FB0A4B890820
:10C3100019603B6995E7434624041B041A0C240C5E
:10C32000131B5A469B0813608BE7C0460C22002063
:10C33000E0220020DC22002004230020F52200203F
:10C3400008230020F8B546464F46C0B41D4D08AC42
:10C3500024886E78A44604240A2E2DD02C78A0467A
:10C36000A419092C00DD0A3C14277C432C196261B6
:10C37000221C20710C32B94681C981C2E380634618
:10C3800023810024104B01361A786E70A24213D11B
:10C3900042464F465743ED190C4AE98811602A7905
:10C3A000032A07D0042A05D0012A05D11A70FFF705
:10C3B00025FE01E0FFF7FCFE201C0CBC90469946D0
:10C3C000F8BDC0460C220020F5220020FC220020EF
:10C3D000082170B50C1C244A82B013681C4009D097
:10C3E0008B431360214B224A1B789B009B58984734
:10C3F00002B070BD1F4D2B789800C3189B00EE183B
:10C40000317904292AD0F268736950008218301CEF
:10C41000194E920036680C300096184E965900223C
:10C42000B04701202A7893009B189B00EB181C71E1
:10C43000DC80D8601C615C611C816B780132013B3F
:10C44000D2B26B700A2A06D02A7000220C4B1A70E6
:10C45000FFF7D4FDCCE700232B70F6E70122084B51
:10C460001A70FFF7CBFDC3E7F0220020F422002072
:10C47000A41C02000C220020FC220020E02200204C
:10C48000F522002030B5244B83B05869431C3ED0C0
:10C4900080235B0519690904090C05F033FA041CB3
:10C4A00080235B051869196900041A69000C631E72
:10C4B00058431A4B09041B68090C92B2920859435D
:10C4C000FFF768FD021E06D0112806D10823144A82
:10C4D00011680B43136003B030BD12490B7898000C
:10C4E000C01880000D18281CEB6829795C00E4183E
:10C4F0006B690D4DA4002D680C3000950B4D6459EF
:10C50000A04704220A4B1A70FFF778FDE3E7802367
:10C510005B055C69C4E7C0460010001008230020DA
:10C52000F02200200C220020FC220020E02200202B
:10C53000F5220020802230B55205146921492404D7
:10C54000230C0C6883B0013C5C431F4B5869431CAF
:10C5500035D011690904090C05F0D4F980235B0575
:10C5600019691A4B09040138090C41431A68201C47
:10C57000FFF710FD021E06D0112806D10823144A29
:10C5800011680B43136003B030BD12490B7898005B
:10C59000C01880000D18281CEB6829795C00E4188D
:10C5A0006B690D4DA4002D680C3000950B4D64593E
:10C5B000A04704220A4B1A70FFF720FDE3E75069F9
:10C5C000CCE7C04608230020001000100423002000
:10C5D000F02200200C220020FC220020E02200207B
:10C5E000F5220020082330B51E4D83B02C6823426D
:10C5F00014D1A30702D501231C432C6002221A4B3D
:10C600001A701A4B1868FFF7C7FC021E04D01128D5
:10C610000DD108231C432C6003B030BD9C43124B4A
:10C62000134A1B782C609B009B589847F4E71149EC
:10C630000B789800C01880000D18281CEB68297929
:10C640005C00E4186B690C4DA4002D680C3000955B
:10C650000A4D6459A0470422094B1A70FFF7CEFC1B
:10C66000DAE7C046F0220020F42200200823002050
:10C67000A41C02000C220020FC220020E02200204A
:10C68000F5220020F0B58027274C7F0523783969F3
:10C690009A00D3189B00E3181A89DD881B69AD182E
:10C6A000ED18090483B0090C281C05F0B1F91F4BE3
:10C6B0000E1C5869431C35D039690904090C05F072
:10C6C00021F980235B05196901380904090C4143EC
:10C6D000174B89191A68281CFFF75CFC021E06D04C
:10C6E000112806D10823134A11680B43136003B0C5
:10C6F000F0BD23789800C01880002618301C0E4C1E
:10C70000F36824685D003179ED18736900940B4C6F
:10C71000AD000C302C59A0470422094B1A70FFF7CA
:10C720006DFCE4E77869CCE70C22002000100010D3
:10C73000DC220020F0220020FC220020E022002049
:10C74000F522002030B5154B83B01868FFF724FCA4
:10C75000021E06D0112806D10823114A11680B4386
:10C76000136003B030BD0F490B789800C0188000EB
:10C770000D18281CEB6829795C00E4186B690A4DD8
:10C78000A4002D680C300095084D6459A047042280
:10C79000074B1A70FFF732FCE3E7C046082300207E
:10C7A000F02200200C220020FC220020E0220020A9
:10C7B000F5220020082370B52A4D82B02C68234250
:10C7C00009D09C43284B294A1B782C609B009B581E
:10C7D000984702B070BD0122234B1A70244B586950
:10C7E000431C3BD080235B0519690904090C05F043
:10C7F00089F8061C80235B051869196900041A6909
:10C80000000C731E58431B4B09041B68090C92B2A1
:10C8100092085943FFF7BEFB021EDAD0112803D15C
:10C8200008231C432C60D4E713490B789800C018E8
:10C8300080000D18281CEB6829795C00E4186B69EE
:10C840000E4DA4002D680C3000950D4D6459A04785
:10C8500004220C4B1A70FFF7D1FBBAE780235B056B
:10C860005E69C7E7F0220020F4220020A41C020029
:10C8700000100010082300200C220020FC220020C1
:10C88000E0220020F522002030B5224B83B0586909
:10C89000431C3AD080235B0519690904090C05F093
:10C8A00031F8031C80225205106911690004013B14
:10C8B000000C09045843090C05F024F8FFF76CFB41
:10C8C000021E06D0112806D10823134A11680B4313
:10C8D000136003B030BD11490B789800C018800078
:10C8E0000D18281CEB6829795C00E4186B690C4D65
:10C8F000A4002D680C3000950A4D6459A04704220D
:10C90000094B1A70FFF77AFBE3E780235B055B694D
:10C91000C8E7C04600100010F02200200C220020C2
:10C92000FC220020E0220020F5220020F0B5802724
:10C93000404D7F052C783969A60033199B00EB1810
:10C94000DA8889B283B08A4218D8196918898C4666
:10C95000920860445969FFF71DFB021E06D011289A
:10C960002DD10823344A11680B4313603419A400F5
:10C970002C19E288314B1A6003B0F0BD196938698F
:10C980008C460004000C121A18893C6959696044ED
:10C9900080188918A2B29208FFF7FCFA021E06D08E
:10C9A000112827D10823244A11680B4313608023E0
:10C9B0005B051B69214A1B041B0C1360DCE72B7809
:10C9C0009800C01880002918CB68081C5F00FF1869
:10C9D0000B79BF009C464B6919490C3009680091DE
:10C9E00018497F586146B8470422174B1A70FFF761
:10C9F00005FBBBE72B789800C01880002E18301C70
:10CA00000F4DF3682D685C003179E4187369009567
:10CA10000C4DA4000C306459A04704220A4B1A7034
:10CA2000FFF7ECFA80235B051B69044A1B041B0C0F
:10CA30001360A1E70C220020F0220020D822002061
:10CA4000FC220020E0220020F52200200823F0B57F
:10CA50004D4644465F4656461A1CF0B4774D85B0A5
:10CA60002C68224091465FD1754F3E78B300039306
:10CA70009B199B00FB181A69511EDA881B898A18BA
:10CA8000D318029380235B059B4619696D4B1B6885
:10CA90009846002B57D16C4B1B689A4680235B0548
:10CAA000196902980904090C04F02CFF824500D290
:10CAB00085E0434600D17AE0002B00D079E0039B6B
:10CAC0009C466644B600BC192179042900D1AFE028
:10CAD000201CE3680C305A00D21863695B4C92004A
:10CAE000246800945A4C14590022A0474146012062
:10CAF0003A7893009B189B00FB181971D860414647
:10CB00004046D9801861586118817B780132013B19
:10CB1000D2B27B700A2A00D17BE03A7000224D4BE2
:10CB20001A70FFF76BFA07E09C434B4B4B4A1B789C
:10CB30002C609B009B58984705B03CBC904699469A
:10CB4000A246AB46F0BD404B09041B68090C029895
:10CB50009A4604F0D7FE5045A0D14A46404B1A6091
:10CB600001234A4623432B603B4B1A703D4B5869C7
:10CB7000431C51D05B4619690904090C04F0C2FE3C
:10CB8000031C80225205106911690004013B000C4E
:10CB900009045843090C04F0B5FEFFF7FDF9021E25
:10CBA000CAD011283BD109231C432C60C4E7002BB9
:10CBB00005D00322284B1A70FFF764FDBCE7002262
:10CBC000274B50461A60244B02321A70FFF7E4F9E3
:10CBD000021EB1D0112818D03B789900CB189B00C9
:10CBE000FD18E9684C006418281C29796B69174DF9
:10CBF000A4002D680C300095154D6459A0470422FF
:10CC0000144B1A70FFF7FAF996E708231C432C60BF
:10CC100092E700233B7081E75B465B69B1E73B78B5
:10CC20009800C01880003D18EB685C00E418DBE752
:10CC30000122084B1A70FFF7E1F97DE7F02200208E
:10CC40000C220020DC22002008230020FC220020EF
:10CC5000E0220020F5220020F4220020A41C020083
:10CC60000423002000100010F0B54E4657464546FC
:10CC70000823E0B48C4E82B03468234200D093E0A5
:10CC80008A4B1A68571C1F60894B1D68002D50D1B4
:10CC9000884B802299461B7852059D00ED18AB0009
:10CCA000984608234D469A464544AA4453469B68F5
:10CCB0001169581EEB880904C0182B89090CC0188B
:10CCC00004F020FE874200D282E07B4B00D17BE063
:10CCD0001F68002F00D19CE001231A1C224000D0C5
:10CCE0008DE023433360754B1A70754B5869431CB4
:10CCF00000D1BEE080235B0519690904090C04F02A
:10CD000001FE031C80225205106911690004013BD9
:10CD1000000C09045843090C04F0F4FDFFF73CF93A
:10CD2000021E49D0112800D0A7E009231C4334601B
:10CD300042E00421614B197080235B051F693F04A9
:10CD40003F0C57435E4A5069421C3BD019690904A5
:10CD5000090C04F0D7FD80235B051969013809042B
:10CD6000090C41432A1C381CFFF714F9021E23D07A
:10CD700011284AD04F4801788B005B189B00C518DA
:10CD8000281CE9684C006418A40029796B694D4D92
:10CD90000C302D6800954C4D6459A04704224B4B34
:10CDA0001A70FFF72BF907E09C43444B484A1B7865
:10CDB00034609B009B58984702B01CBC9046994633
:10CDC000A246F0BD5869C6E71B68002B00D083E778
:10CDD00002223A4B381C1A70FFF7DEF8021EEBD025
:10CDE000112812D04B461B789900CB1849469B005E
:10CDF000CD18E968281C4C006418A400C5E703227C
:10CE00002E4B1A70FFF73EFCD6E708231C43346014
:10CE1000D2E7297904293DD053464046294C5B6826
:10CE200024685A00D2186B690094274C9200484439
:10CE30000C3014590022A0474B4601201A7849466D
:10CE400093009B189B004B441F71DF80D8601F61CB
:10CE50005F611F814B465B780132013BD2B24B7060
:10CE60000A2A1DD00A700022184B1A70FFF7C6F864
:10CE7000A2E780235B055B6944E74B461B7898007B
:10CE8000C0184B4680001D18EB68281C5C00E41895
:10CE9000A4007AE701220D4B1A70FFF7AFF88BE779
:10CEA00000230B70DFE7C046F0220020082300209B
:10CEB000042300200C220020DC220020F422002089
:10CEC00000100010FC220020E0220020F5220020AB
:10CED000A41C020070B5274C82B023789800C018BB
:10CEE00080002518281CEB6829795A00D2186B6934
:10CEF000214D92002E680C300096204E965900224B
:10CF0000B04700210126227893009B189B00E3186C
:10CF10001971D980DE601961596119816378013214
:10CF2000013BDBB2D2B263700A2A0BD0227000211F
:10CF3000134E14483160144E01703160002B05D13E
:10CF400002B070BD002222700022F0E793009A1810
:10CF50009200A418E3882B602379032B07D0042BBD
:10CF600005D0012BECD10370FFF748F8E8E7FFF795
:10CF70001FF9E5E70C220020FC220020E02200201F
:10CF800000230020F5220020D8220020F0B54746DB
:10CF900080B4654D04262C7882B0231CB3430ED098
:10CFA000022810D003280AD10821604A13681942C8
:10CFB00058D0022C4FD0032C48D0012C46D002B0C0
:10CFC00004BC9046F0BD022C45D0032C59D0012C56
:10CFD000F5D10821554A1368194237D1544F5549A4
:10CFE0003B780E689A00D3189B00FA18D1888E1BE4
:10CFF000B6B2D680002E6ED1D168137948004118A0
:10D000009846101C53694C4A890012680C300092F3
:10D010004A4A8A58414694460022E0473A789300AB
:10D020009B189B00FB181E71DE80DC601E615E6138
:10D030001E817B780132013BD2B27B700A2A66D016
:10D040003A7000232B70FEF7D9FFB8E78B431360CB
:10D05000FEF7D4FFB3E73A4B3A4A1B789B009B5844
:10D060009847ACE7384A136801331360032B35D077
:10D07000022CEDD1324B354A1B789B009B589847C8
:10D080009DE70821294A13681942DFD1304B284E09
:10D090001A683478571C1F6080235B051969A30048
:10D0A00098461B199B00F3181A690904501EDA8868
:10D0B0001B898018C018090C04F024FC8742C7D3D0
:10D0C0002CD0231C43449B00F3181B79042B20D045
:10D0D000FFF700FF73E7FFF729FC70E714480278B9
:10D0E00093009B189B00C418201CE26863695100E0
:10D0F0008A182179104C920024680C3000940F4C4F
:10D1000014590D22A0472E70FEF778FF57E73E70A6
:10D1100097E701232B70FEF771FF50E70D4B1B685B
:10D12000002BCED194E7C046F5220020F02200204B
:10D130000C220020D8220020FC220020E022002027
:10D14000F4220020901C020000230020A41C0200F6
:10D1500008230020DC22002010B500202C2400220F
:10D160000121464B18551434185502341A53023411
:10D170001A531034185502341A530234D9601876F1
:10D18000196259639964D9651A705A701A71DA80F4
:10D190001A615A611A815A835A629A629A83DA85AD
:10D1A0009A63DA631A86DA641A651A665A661A533B
:10D1B0001034185502341A5302341A5310341855C7
:10D1C00002341A530634195104341A5104341A51D2
:10D1D0000C3C1A531034185502341A5306341951A2
:10D1E00004341A5104341A510C3C1A531034185593
:10D1F00002341A530634195104341A5104341A51A2
:10D200000C3C1A5310341855BA201A5206301950D3
:10D210001967C3315A5004315A500C395A525A675F
:10D220009A67174B1A80174B5869431C22D08023EA
:10D230005B0519690904090C04F064FB80235B0594
:10D240001B6902381B041B0C58430F4B002118604C
:10D2500000230E4A002013600D4A1360138153818E
:10D260000C4A11700C4A13600C4A136004220C4BD8
:10D270001A6010BD80235B055869DFE70C2200208F
:10D28000EC22002000100010F822002008230020CB
:10D29000E0220020F522002000230020D8220020D8
:10D2A000F0220020F0B557464E464546E0B4344BD8
:10D2B0001A680823520705D4181C1CBC90469946CE
:10D2C000A246F0BD002857D0002955D00368002B96
:10D2D00052D080277F053A69868892B2072396420A
:10D2E000EAD80F2EE8D9C288002AE5D0254B724330
:10D2F00099461B68041C9846234B424458690D1CF0
:10D300009246431C3AD039690904090C04F0FAFA30
:10D3100080225205136901381B041B0C5843072354
:10D320008245C9D8B107C7D1184F033B3E88012EAB
:10D33000C2D043466B600C232E60454673431448AD
:10D340000136C1184D6025681D50A5880D81E08803
:10D3500048816843136911699BB21469C018013888
:10D3600089B2A4B204F05EFB231C4A464343434403
:10D3700013603E8000239FE70E239DE77869C7E78F
:10D38000F0220020F822002000100010EC220020E3
:10D39000E022002030B5114B1C680823640701D43B
:10D3A000181C30BD002806D0002A04D00368002BCA
:10D3B00003D00723F4E70E23F2E7094C2568002D7C
:10D3C000F7D0258940686943091860896468684313
:10D3D00000198142EDD213605160E1E7F022002094
:10D3E000E0220020F0B5474680B41E4C051C24689E
:10D3F00082B00820640703D402B004BC9046F0BD9C
:10D4000000292CD0002D2AD02C680138002CF3D113
:10D41000154C2668002EEFD06E686789B0462689C5
:10D420007743B4466668BC19A045E5D2002AE3D02C
:10D430009445E1D3D418A445DEDB09308C07DBD159
:10D4400003242342D8D146462642D5D1181C131CAA
:10D4500000900A1C0120291CFEF774FFCCE70E2067
:10D46000CAE7C046F0220020E0220020F0B547467F
:10D4700080B41E4C051C246882B00820640703D4C5
:10D4800002B004BC9046F0BD00292CD0002D2AD05B
:10D490002C680138002CF3D1154C2668002EEFD0F3
:10D4A0006E686789B04626897743B4466668BC19BA
:10D4B000A045E5D2002AE3D09445E1D3D418A44591
:10D4C000DEDB09308C07DBD103242342D8D146466A
:10D4D0002642D5D1181C131C00900A1C0420291CBC
:10D4E000FEF730FFCCE70E20CAE7C046F02200204E
:10D4F000E0220020F0B54F464646C0B4254C83B02C
:10D50000256808246D0705D4201C03B00CBC904688
:10D510009946F0BD002906D0002804D00C68002CE4
:10D5200003D00724F0E70E24EEE71B4D2E68002EF3
:10D53000F7D04E682F89B4466E897E43B1466E6837
:10D54000B0464E464644B445EBD2002AE9D0974255
:10D55000E7D3D618B742E4DB860701D01024D3E71F
:10D5600003263342FAD167463E40F7D188466344EA
:10D57000191C171C814604F056FB42460C23126806
:10D58000009753434046ED580221321C4B46A847B2
:10D59000BAE7C046F0220020E0220020F0B54F4656
:10D5A0004646C0B4204A83B012680824530705D405
:10D5B000201C03B00CBC90469946F0BD002830D02A
:10D5C0000368013C002BF3D1184B1A68002AEFD0F6
:10D5D0001D895E895A686E434768B618B742E7D21C
:10D5E0000934BB07E4D188468146291CB81A04F0E7
:10D5F0000FFA093C0029DBD14046291C04F008FA47
:10D6000089B20029D4D14346002BD1D04744BE4231
:10D61000CED30022032000924946FEF793FE041C5D
:10D62000C6E70E24C4E7C046F0220020E022002016
:10D63000074B1A680823520701D4181C70470028AA
:10D6400004D0044B5B7803600023F6E70E23F4E775
:10D65000F02200200C220020A02210B5064BD2059B
:10D66000D15880231B041C1CA1208C430B40034970
:10D67000C0001450535010BD040500000C050000FC
:10D68000F8B5C74B1B68DB0700D4F8BDC54A147852
:10D69000172CFAD8C449A300CB589F46A022C34BED
:10D6A000D205D1588023DB031C1CA1208C430B40E6
:10D6B000BF49C00014505350BE4B00221B68BE48E7
:10D6C0009900C918FEF726F9DFE7A023F021B84A30
:10D6D000DB05490499500021043A9950D5E7A0226E
:10D6E000B24BD205D1588023DB031C1CA1208C43F4
:10D6F0000B40AF49C00014505350AE4B0022196884
:10D70000AD48FEF707F9C0E7AC4BA1201968E0234C
:10D710005B048B43A0210026F025C905C000A44C62
:10D720000B50A24B0E51CB586D046B408025AD03BE
:10D730002B4000D120E10D5003230E51082113701E
:10D740009C4B00221B689C485943FEF7E3F89CE77A
:10D750009A4BA1201968E0235B048B43A02100268B
:10D76000F025C905C000924C0B50904B0E51CB5880
:10D770006D046B408025AD032B4000D104E10D50BA
:10D7800004230E512821DAE7A023A122E021DB05A2
:10D79000D20049048024995000218548A4031950DF
:10D7A0001C50995071E7864D281CFEF72FF9112364
:10D7B0001C1B00D1C7E0002800D0C4E080237F4EAE
:10D7C0001B043360012C10D0C8306421604304F086
:10D7D00099F8784B00221B684343281C191CFEF75C
:10D7E00099F8F02332685B041340A0227049D205F7
:10D7F0005350A1230021DB00D15046E76F4BA121FC
:10D800001A68F0235B049343A022C900D205535049
:10D810000021674BD15038E7684BA1201968E023FD
:10D820005B048B43A0210027F026C905C000604D92
:10D830000B505E4B4F51CB58760473408026B60395
:10D84000334000D18EE00E504F51022C00D1A0E0A9
:10D850002821147074E7A023A122C021DB05D20087
:10D860004904C024995000215148E40319501C5028
:10D8700099500AE7A023A122D021DB05D200490458
:10D880008024995000214A48E40319501C509950B3
:10D89000FBE6A023F021A122DB054904D200995028
:10D8A0000021434A9950F0E6E022444B52041B68A1
:10D8B000A1219A43A023C900DB0580245A500022ED
:10D8C0003B48A4031A501C505A50DEE63B4BA120A3
:10D8D0001968E0235B048B43A0210026F025C905CD
:10D8E000C000334C0B50314B0E51CB586D046B4084
:10D8F0008025AD032B403CD00D500E5105231370F5
:10D900002C4B002219682C484900FEF703F8BCE6AE
:10D910002A4BA1201968E0235B048B43A021002639
:10D92000F025C905C000224C0B50204B0E51CB589E
:10D930006D046B408025AD032B4022D00D500E515D
:10D9400006231370D9E6F0231C4A5B041168A1205A
:10D950000B40A021C000C9050B50002314480B50F8
:10D96000136092E64E510B50022C15D00421147016
:10D97000E6E60D510B50C1E70D510B500221032378
:10D98000DDE60D510B50DBE70D510B500421042354
:10D99000D5E612211470D3E602211470D0E6C046F9
:10D9A000142300203C230020B81C020004050000C2
:10D9B0000C050000182300201C2300201023002049
:10D9C00040230020002303280DD8A223A022DB003F
:10D9D000D205D258054B8000C058012383409343A1
:10D9E0005A1E9341DBB200200B707047781D020075
:10D9F00070B5DB4B041C1B680020DB0700D470BD36
:10DA0000172CFCD8D74AA300D3589F46A022D64B48
:10DA1000D205D1588023DB031C1CA1208C430B4072
:10DA2000D249C00014505350D14B00221B68D1483A
:10DA30009900C918FDF76EFFE1E7A022CA4BD20595
:10DA4000D1588023DB031C1CA1208C430B40C74909
:10DA5000C00014505350C64B00221968C548FDF74A
:10DA600059FFCCE7C44D281CFDF7D0FF11231C1B28
:10DA700000D14CE1002800D049E18023BF4E1B04B7
:10DA80003360012C10D0C8306421604303F03AFFAA
:10DA9000B74B00221B684343281C191CFDF73AFFB3
:10DAA000F02332685B041340A022B049D2055350E2
:10DAB000A1230021DB00D150A1E7A023F021A12266
:10DAC000DB054904D20099500021A84A0020995052
:10DAD0001222AB4B1A7092E7A023A122E021DB05B2
:10DAE000D2004904802499500021A048A403195071
:10DAF0001C5099501322A24B00201A707FE7A023DC
:10DB0000F0219A4ADB05490499500021043A9950C2
:10DB10009B4B00201C7072E7984BA1211A68F023E0
:10DB20005B049343A022C900D205535000238F49C0
:10DB300000205350924A137061E7904BA1211A685C
:10DB4000E0235B049343A0220026F025D205C90000
:10DB500086485350844B1650D3586D046B40802533
:10DB6000AD032B4000D1E9E055501650022C00D1F6
:10DB7000F1E02821824B1C707D4B00221B687D4800
:10DB80005943FDF7C7FE3AE7A023F021774ADB05AA
:10DB9000490499500021043A99500C22784B0020F6
:10DBA0001A702CE7A023A122D021DB05D200490462
:10DBB0008024995000216D48E40319501C5099505D
:10DBC00014226F4B00201A7019E76C4BA1211A68C0
:10DBD000E0235B049343A0220025F024D205C90072
:10DBE00062485350604B1550D358640463408024FE
:10DBF000A403234000D199E054501550082103227A
:10DC00001AE05E4BA1211A68E0235B049343A02233
:10DC10000025F024D205C90054485350524B1550EA
:10DC2000D358640463408024A403234000D18BE0D4
:10DC30005450282115500422514B1A709CE7E022C1
:10DC40004E4B52041B68A1219A43A023C900DB0557
:10DC500080245A5000224548A4031A501C505A50A0
:10DC6000474B07321A700020C9E6A023A122C02129
:10DC7000DB05D2004904C024995000213B48E4034D
:10DC800019501C50995015223D4B00201A70B6E6D1
:10DC90003A4BA1211A68E0235B049343A02200259C
:10DCA000F024D205C900314853502F4B1550D3589A
:10DCB000640463408024A40323403CD05450155096
:10DCC00005222F4B2B481A70294B00221968490056
:10DCD000FDF720FE93E6294BA1211A68E0235B049F
:10DCE0009343A0220025F024D205C9001F485350B9
:10DCF0001D4B1550D358640463408024A403234073
:10DD000026D05450155006221D4B1A70A3E6F0235E
:10DD10001A4A5B041168A1240B40A021E400C90544
:10DD20000B510023114C0B51136068E614505350F3
:10DD30000221032280E714505350C1E7155053507D
:10DD4000022C0AD0042115E714505350042172E725
:10DD500014505350D7E712210CE702210AE7C046BE
:10DD600014230020181D0200040500000C0500000B
:10DD7000182300201C230020402300201023002013
:10DD80003C23002008B5104B1960104B1860104B55
:10DD90001A60C3070BD5A023F022A1210020DB05C8
:10DDA0005204C9005A500B4958500C315A500A4875
:10DDB00000210A4AFDF794FD002804D108480121FA
:10DDC000084AFDF78DFD08BD18230020142300200C
:10DDD0000C2300200C050000881D020081D60100E4
:10DDE0008C1D020059D60100031C0720032B00D90B
:10DDF0007047012A13D0012917D0002908D0022921
:10DE000019D15800C3180D48C3185A700020EFE705
:10DE10005800C3180948C3189A700020E8E7002288
:10DE20000129E8D11A1C0D32D2B258000349C31897
:10DE30005A540020DCE70720DAE7C04660230020C0
:10DE4000E0231D4ADB00D2581C4B1A400023C107B7
:10DE500001D5C0239B021343E0221749D2008B5007
:10DE6000174B9A58154B1A400023810701D5C02340
:10DE70009B021343E0221249D2008B50114B9A5857
:10DE80000E4B1A400023410701D5C0239B021343C8
:10DE9000E0220C49D2008B500B4B9A58074B1A408A
:10DEA0000023010701D5C0239B021343E02206494A
:10DEB000D20000208B50704744000050FFFFFCFF51
:10DEC000480000504C0000505000005008B503209E
:10DED000FFF7B6FF031C0020002B02D0062B00D05A
:10DEE000181C08BD10B50388102B08D0112B05D1C4
:10DEF000294A1368013B1360002B07D010BD264C44
:10DF00002368002B11D001332360F7E700200221A2
:10DF10000122FFF769FF00282BD0072829D01F4BCB
:10DF20001B68002BEAD09847E8E700200021012277
:10DF3000FFF75AFF002808D0072806D0174B1B68A8
:10DF4000002B00D098472368DDE70120022107223B
:10DF5000FFF74AFF002801D00728EFD10020022157
:10DF60000422FFF741FF0028EDD00728E6D12368FF
:10DF7000C9E7012002210722FFF736FF002801D060
:10DF80000728CCD1002000210A22FFF72DFF00280E
:10DF9000B4D00728C3D1B1E7702300206C23002040
:10DFA00010B5244B82B00C1E186018D06B460020B0
:10DFB000991DFFF707FD002801D002B010BD6B4688
:10DFC0000130D91DFFF7FEFC0028F6D16B46DB7946
:10DFD000002B29D16B469B79002B28D12370164B3F
:10DFE0001B68002B01D00020E7E70020022101225E
:10DFF000FFF7FAFE002801D00728DED10120022118
:10E000000722FFF7F1FE002801D00728D5D1002014
:10E0100000210A22FFF7E8FE0028E4D0C31F5A1EA1
:10E0200093415B421840C8E702232370D7E70B23D4
:10E030002370D4E76C2300207023002072DF704728
:10E0400073DF704774DF70477047C04670B5051CBA
:10E05000144C291C201C1022261C03F0E4FD291C52
:10E06000AB8A18362382EB8A301C63822B8B1B31E0
:10E07000A382AB7E0722E38203F0D5FD6B6A032205
:10E0800023622423E2540023201C2932A662A354D5
:10E0900023632A690021A28638300122E386FDF736
:10E0A000B7F870BD7423002010B58AB002226B4609
:10E0B00069461A7001234B7005338B7014331A4C68
:10E0C000CB70E5330B71A38A09204B711B0A8B714E
:10E0D0001523CA710B721022211C684403F0A3FDA2
:10E0E0006A46238A684653761B0A9376638A1E2102
:10E0F000D3761B0A1377E38A537700220023FFF7B6
:10E100009DFF002803D0236A002B00D09847201CD5
:10E110002430FFF795FF002803D0236A002B00D09E
:10E1200098470AB010BDC0467423002008B5FFF719
:10E1300089FF002804D0034B1B6A002B00D09847AE
:10E1400008BDC0467423002071DF704776DF70473A
:10E1500078DF70477ADF70477CDF70473CDF7047BD
:10E1600048DF704708B5FDF75DF808BD08B5002A1F
:10E1700002D0101CFDF756F8002008BD08B5FDF7C9
:10E1800051F808BD08B50123034A044811785940E5
:10E19000117002F0F3FA08BDB023002024260020FD
:10E1A00010B510491048FDF7ADFC104C81B2236842
:10E1B0000F480133236002F03BFA0823021C9A4304
:10E1C00007D00C4B984204D00B4B984201D0FDF77E
:10E1D00029F82068032103F01BFC4B1E9941074BD3
:10E1E000197010BDB423002014260020FC26002046
:10E1F000242600200430000001340000F02000201C
:10E2000008B50A490A48FDF77DFCC1B2094801F08A
:10E210003DFD0823021C9A4307D0074B984204D0C7
:10E22000064B984201D0FCF7FDFF08BDCC2600202C
:10E230001C260020C423002004300000013400000C
:10E2400010B5041CFEF7A2FE201CFFF7FDFE201CEB
:10E2500001F0A2FB10BDC04608B50378002B00D02A
:10E2600008BD054B3B211888FFF770FF0028F7D049
:10E27000FCF7D8FFF4E7C046F220002008B5064BB3
:10E280001B78002B07D005490548FDF73BFC81B200
:10E29000044802F059FA08BDF0200020742600203E
:10E2A000A42500202426002008B507281ED00A280F
:10E2B0000ED0042800D008BD114B13211888FFF799
:10E2C00045FF0823021C9A43F5D0FCF7ABFFF2E7A9
:10E2D0000020FFF78DFB00280ED1FFF7F7FD002887
:10E2E00007D1FFF73BFF0028E5D0EEE701F072FB16
:10E2F000E7E7FCF797FFF4E7FCF794FFEDE7C0468C
:10E30000F220002008B5002807D0032804D10138E6
:10E31000FFF76EFB00280DD108BD0020FFF768FB5A
:10E3200000280AD1FFF7D2FD002809D1FFF716FF18
:10E330000028F1D0FCF776FFEEE7FCF773FFF1E77A
:10E34000FCF770FFF2E7C04630B5041C9BB002F04A
:10E35000D3FD3048211C01F0D9FF211C2E4801F0CB
:10E3600077FB201C01F09CFD201CFFF7BBFD2388E0
:10E37000102B3CD0112B35D10020FFF739FB0028A2
:10E3800045D10CADFFF7D2FE38220021281CFCF746
:10E390003FFF02232B700433EB70033B2B821F4B98
:10E3A00001216B61002303AAD360A9701173E031CE
:10E3B000FF3111612D39FF39536093609361D3614F
:10E3C0001362516103930093281C0021144B01F048
:10E3D00085F8002801D0FCF725FF032001F022F981
:10E3E000002811D1201C01F07DFA1BB030BD0720A0
:10E3F000FFF7FEFA002801D0FCF714FFA288094BB2
:10E400001A80FFF751FEEDE7FCF70CFFEAE7FCF797
:10E4100009FFB6E724260020C4230020F4200020B2
:10E4200005E30100F2200020F0B5474680B400204B
:10E43000A2B00521E54A0023FDF7E0F9002801D04C
:10E44000FCF7F0FEE2480121E24AFDF749FA002814
:10E4500001D0FCF7E7FEE0480121E04AFDF740FA71
:10E46000002801D0FCF7DEFEDD480121DD4AFDF782
:10E4700037FA002801D0FCF7D5FEDB480121DB4A42
:10E48000FDF72EFA002801D0FCF7CCFE0120D84978
:10E49000D84AFFF777FC002801D0FCF7C3FE12AC86
:10E4A0000020211CFFF77CFD002801D0FCF7BAFEFC
:10E4B000277809AD023F7B425F41CF490422281CE7
:10E4C00003F0B1FB281CCD4948220023FFB203F022
:10E4D00059F9002801D0FCF7A5FE00200121221CDB
:10E4E00003F0BAF9002801D0FCF79CFEC44803F001
:10E4F000CBF9002801D0FCF795FE201C03F0CEF9E3
:10E50000002801D0FCF78EFEBE4803F079F9002800
:10E5100001D0FCF787FEBC4803F07CF9002801D04D
:10E52000FCF780FEB94EBA49301C102203F07BFB89
:10E53000C8235B003361B74B301CB382B64B1B3032
:10E54000F382592333836A33B376B44B7362FFF794
:10E55000FBFD002801D0FCF765FE301CFFF776FDBF
:10E560002F70FEF7F9FD002801D0FCF75BFE281C98
:10E5700002F0BEFB002801D0FCF754FE4D20002124
:10E5800005226844FCF744FE01236279A4481A433B
:10E5900081231A40302313437F22134063710723E2
:10E5A000A3710933E3719F4B211C12930123237143
:10E5B00002F03CFC002801D0FCF734FE0F210122C0
:10E5C0002B78994E8B43134310220B401343301C7E
:10E5D0002B7003F045FB311C82B2281CFFF7BCFDF9
:10E5E000002801D0FCF71EFE9048FFF7B1FD00287F
:10E5F00001D0FCF717FE0822201C0021FCF708FEC2
:10E60000C822C8239200628000225B00201C238065
:10E61000A280E380FFF79EFD002801D0FCF702FEF8
:10E6200000213822201CFCF7F3FD02232370043361
:10E63000E370033B23827E4B012263610023A270BF
:10E64000EB602A73E032FF322A612D3AFF3A6B60A9
:10E65000AB60AB61EB612B626A6109930093201C94
:10E6600000212A1C734B00F039FF002801D0FCF771
:10E67000D9FD0F27032304AE6F4400211422301C60
:10E680003B70FCF7C5FD0023B7600F270121102068
:10E69000049301333371337BBB430B433B40034350
:10E6A000337300237373B373F37BBB430B431A1CA5
:10E6B0003B1C13400343F37300235F4F311C381C92
:10E6C000337401F04BFE002801D0FCF7ABFD0021B4
:10E6D0001422281CFCF79CFD0F21012210206B7BCB
:10E6E0008B4313430B4003436B73AB7B8B4313434D
:10E6F0000B400343AB730023EB732B7C8B431A4318
:10E70000002311400122014329740993AB604B4857
:10E710006433291C2A712B7301F0CAF9002801D037
:10E72000FCF780FD40220021201CFCF771FD201C1D
:10E73000434902F02DF83C210F200122635C834302
:10E740001343102203401343635400223D23201C33
:10E75000E25401F05FFC002801D0FCF763FD512377
:10E760000126384938480B60133398464B608E6059
:10E770000E73FDF7BBF98C230025344934480B6038
:10E78000A0334B60233BFF3B8B600D73FDF7AEF96D
:10E790004346304930480B609133FF334B608E6005
:10E7A0000D73FDF7A3F9201C00211C22FCF730FD9E
:10E7B000A0239B026360F0231B03A3600323129535
:10E7C0002373BB89201CE38148E0C046DC23002082
:10E7D000B81D020001E20100BC1D0200A1E1010020
:10E7E000C41D02007DE20100C01D020085E10100A0
:10E7F000CD0C0000A9E20100901D0200842600203B
:10E80000E81F002049E3010041E20100AC2500209F
:10E81000E0200020341200007856000065E101007D
:10E82000002700206DE10100941D0200410300005B
:10E83000F420002005E3010024260020C42300204A
:10E84000A41D0200CC2600201C260020B42300209A
:10E850001426002074260020A42500201E4B2574B9
:10E8600063611E4BA36101F0DFFA002801D0FCF7C1
:10E87000D9FC80211A4849020022FDF74BF80028F4
:10E8800001D0FCF7CFFC8021164809020022FDF7D9
:10E8900041F8002801D0FCF7C5FC134813490022B9
:10E8A000FDF738F8002801D0FCF7BCFCA021104887
:10E8B00089020022FDF72EF8002801D0FCF7B2FCF7
:10E8C000032000F0AFFE002803D1FFF749FC002829
:10E8D000FBD0FCF7A7FCF8E759E201007DE101005D
:10E8E000F425002004270020DC26002066260000F6
:10E8F000D425002071DF704772DF704779DF7047E1
:10E900007DDF704765DF7047F0B50488051C83B074
:10E910000720012C04D01488A01C984202D90C2096
:10E9200003B0F0BD2E78012E04D16E780236361970
:10E93000B342F4D3023B1C1B6B460F1CA4B2081855
:10E94000991D161CDC80FFF7DBFF0028E8D12B782F
:10E95000022B18D0012B11D0231C0821FE2BDED84E
:10E960003288581CB85432880020013292B232806A
:10E97000B954328801329B183380D1E76B789C42BE
:10E98000EBD2231CE9E76B46DB8809219C42E5D2E8
:10E99000231CE2E7F0B55F46564644464D46F0B4C8
:10E9A00085B09A460EAB80CB061C1B8800919B4617
:10E9B0003B88904601930388002B5BD00023994647
:10E9C00002AB0024DD1C03E033880134A3422ADDBE
:10E9D0007368A1009C460422614403A803F023F954
:10E9E00003A8291C0022FFF78DFF002826D12B78D1
:10E9F0004345E9D14B46002B27D043463A88D318EC
:10EA00005B4539DC524403A8291CFFF77BFF002833
:10EA100014D13B882A780134D3183B8001239946CE
:10EA20003388A342D4DC4B46002B23D03B88019A89
:10EA3000013B9B1A9BB20C20FF2B18D905B03CBCA4
:10EA400090469946A246AB46F0BD42463B889A188E
:10EA500002325A4510DC69465246013309789BB2AE
:10EA60003B80D1543A88013292B23A80CAE7111CF5
:10EA7000524653540020E1E70C20DFE7F0B55F4633
:10EA800056464D464446031C0020F0B417881080BB
:10EA9000586B87B0002800D16FE10478022F18D995
:10EAA0000220112508701088013080B210800D54AA
:10EAB0001088013080B210800C5414880134A4B244
:10EAC0001480186B002800D177E0251C1235BD4258
:10EAD00007D90C2007B03CBC90469946A246AB46ED
:10EAE000F0BD11250D551488013D0134A4B21480E8
:10EAF0000D5514880134A4B21480C57B0D551488BB
:10EB00000134A4B21480857B0D5514880134A4B25D
:10EB10001480457B0D5514880134A4B21480057B04
:10EB20000D5514880134A4B21480C57A0D5514888B
:10EB30000134A4B21480857A0D5514880134A4B22E
:10EB40001480457A0D5514880134A4B21480057AD6
:10EB50000D5514880134A4B21480C5790D5514885C
:10EB60000134A4B2148085790D5514880134A4B2FF
:10EB7000148045790D5514880134A4B214800579A8
:10EB80000D5514880134A4B21480C5780D5514882D
:10EB90000134A4B2148085780D5514880134A4B2D0
:10EBA000148045780D5514880134A4B2148000787F
:10EBB000085514880134A4B214802E201D5C002D49
:10EBC00000D0DCE01E1C2D23F35C151C8846002BB6
:10EBD00000D0F7E0B378002B00D024E1F378002BCD
:10EBE00016D0E21CBA4200D973E7022241464046E1
:10EBF0000A5501212A88013292B22A8081542A883A
:10EC0000013292B22A8083542C880134A4B22C8021
:10EC10007368002B16D01A78E31CBB4200D958E762
:10EC20000223414640460B550A212B8801339BB2F3
:10EC30002B80C1542B8801339BB22B80C2542B886C
:10EC400001332B803389002B00D010E1338A002B55
:10EC500000D076E1338B002B00D08BE1336A002BA0
:10EC60004AD02A880C20911DB94200D932E7198870
:10EC700005388B46052900D82CE7CC4C5C44A4B25F
:10EC8000A146CB4CA446A14500D823E75C88A24608
:10EC9000052C00D81EE7C54C6946A146D1444C4618
:10ECA000CC81CC89644500D814E7C24CA34504D07C
:10ECB000A24502D0D34500D90CE705214046815436
:10ECC0002A880D31013292B22A8081542A88013279
:10ECD00092B22A80198842441170090A51702A8818
:10ECE000023292B22A805988131C43441970090ACF
:10ECF00059702B8802332B80746A002C32D0A28882
:10ED00002988131D5B180C20BB4200D9E2E6931C36
:10ED1000FE2B00D9DEE6434603325A54FF22414619
:10ED20002B8801339BB22B80CA542B8801339BB2B2
:10ED30002B80228843441A70120A5A702B8802339F
:10ED40009BB22B80A288002A0CD0A168053800292C
:10ED500000D1BFE64344181C02F065FF2A88A3884F
:10ED6000D3182B802C23F35C002B00D098E0337851
:10ED7000002B00D0DEE00020ACE60024A1E6E61C7B
:10ED80002238BE4200D9A5E602260E551C24108862
:10ED9000013080B210800C541088013080B2108095
:10EDA000022D00D10FE100D806E1032D00D108E1CA
:10EDB000042D00D0F7E003240C5414880134A4B2CD
:10EDC0001480FFE609340C20BC4200D982E604A876
:10EDD000FFF790FD002800D07CE6414608222B88F2
:10EDE000CA542B88133201339BB22B80CA5402AB16
:10EDF0009C4609212888153A013080B22880614458
:10EE0000404402F010FF2B8802AA0633127A9BB20C
:10EE10002B80002A00D001224146CA542C8801349C
:10EE2000A4B22C80D6E604340C20BC4200D951E6B2
:10EE300004A8FFF763FD002800D04BE603224146FB
:10EE40002B88CA542B88163201339BB22B80CA54AC
:10EE50002B8802AA01339BB212892B8043441A707B
:10EE6000120A5A702C880234A4B22C80B6E6341CE4
:10EE7000083400950197201C022102224346FFF727
:10EE800089FD002800D025E600950197201C062169
:10EE900010224346FFF77EFD002800D01AE6D5E693
:10EEA000B46A002C00D17EE0A3880233FE2B00D987
:10EEB0000FE6002291461632924616322888934673
:10EEC0000BE04B465C00B36A4C449C46A40064448F
:10EED000A3880233FE2B00D9FBE54246514601339D
:10EEE00013542B8801339BB22B80D1542B880133D0
:10EEF0009BB22B80228843441A70120A5A702888C9
:10EF0000023080B22880A288002A0AD0A168002995
:10EF100049D0404402F087FE2888A388C01880B2F8
:10EF200028804B460133DBB299465B46F35C4B4588
:10EF3000C7D81CE7301C41462A1C3B1CFFF7E4FCE9
:10EF4000C8E5341C103400950197201C03210222CF
:10EF50004346FFF71FFD002800D0BBE50095019751
:10EF6000201C072110224346FFF714FD002800D083
:10EF7000B0E56FE6341C183400950197201C14216D
:10EF800002224346FFF706FD002800D0A2E50095C7
:10EF90000197201C152110224346FFF7FBFC002897
:10EFA00000D097E55AE6072094E5C0467FF3FFFFBF
:10EFB0007DF30000FFFF0000012DF4D100240C546C
:10EFC000FBE60E54F9E601240C54F6E6F0B54E4685
:10EFD000574645461F23E0B496B002AA041C0E1CF7
:10EFE000D381002800D171E0C3785B0767D5002387
:10EFF00002AA9381436B002B00D13EE11B780222D1
:10F0000006ADAB7003230327052104202A700F32BD
:10F010006A7002AA9381226B002A3AD0112306ADAE
:10F02000EB55013B2B54D37B6B54907B4B1CE8542A
:10F03000507B8B1CE854107BCB1CE854D07A0B1D02
:10F04000E854907A4B1DE854507A8B1DE854107A9E
:10F05000CB1DE854D0790133E85490790133E8545A
:10F0600050790133E85410790133E854D0780133F2
:10F07000E85490780133E854013302A88381507832
:10F08000E854013302A883811278EA540133838162
:10F090009BB22E22A25C002A00D0F1E12D22A25CBC
:10F0A000002A00D011E1A278002A00D03DE1E278E8
:10F0B000002A35D0D91C1F2925D90C2000E00720B3
:10F0C00016B01CBC90469946A246F0BD002502AB86
:10F0D0009881002E00D1D4E0F378002BEFD102AA62
:10F0E00094460E236344301C0EA91A1CFFF7C6FC7D
:10F0F0000028E5D102AB9B7B0EAA02A9097B281C44
:10F10000FFF7FAFBDCE70220012706ADE854581CA4
:10F1100002339BB280B22F54EA548BB202AA93817D
:10F120006268002A0FD01078DA1C1F2AC5D8022185
:10F130000A2706ADE954591C02339BB289B26F54B9
:10F14000E85402AB9A812389002B00D09EE0238AE9
:10F15000002B00D00AE1238B002B00D025E1236A8D
:10F16000002B43D002AA92890C20911D1F29A7D8F9
:10F170001888824655460720052DA1D9D24D554401
:10F18000ADB2AC46D14DA846AC4599D95D88A946EB
:10F19000052D00D894E7CC4D6F46AC46CC4465466F
:10F1A000FD81FD89454500D88AE7C94DAA4504D0AF
:10F1B000A94502D0CA4500D982E70520122706AD2D
:10F1C000A854501C80B22F54901C80B202AFB8815A
:10F1D0001F88281807703F0A477004325B8892B274
:10F1E000AD182B701B0A6B7002AB9981676A002FF8
:10F1F0002FD0BB880C20991C02AB9B899A1C5518F8
:10F200001F2D00D95CE7FE2900D959E706AD013171
:10F21000E954591C89B2F330685492B202A98A8128
:10F220003988AA180433117098B2090A02AB5170D8
:10F230009881BA88002A0CD0B968002900D13EE72D
:10F24000281802F0F0FC02ABBA889B89D31802AAF6
:10F2500093812C23E15C002900D0C5E006AD237822
:10F26000002B00D135E7201C291C05AA1F23FFF71E
:10F270004BFB002800D12CE722E7002702210120C8
:10F28000C9E602ABDE810022002336E705AB271C6E
:10F2900000931F23083706AD98460193381C0221BE
:10F2A00002222B1CFFF776FB002800D008E705ABF5
:10F2B00000934346381C0193062110222B1CFFF7B4
:10F2C00069FB002800D0FBE641E709330C201F2B27
:10F2D00000D9F5E60EA8FFF70DFB002800D0EFE6F9
:10F2E000082202AB9B8906ADEA545A1C023398B23D
:10F2F0001B2102AB9C4692B2A954163198816144FD
:10F300000622281802F08FFC302002AB02A99B894C
:10F31000091809789A1D92B2002900D001210733FB
:10F32000A9549BB202AA9381BDE604330C201F2B83
:10F3300000D9C5E60EA8FFF7E1FA002800D0BFE625
:10F340000322192102AB9B8906ADEA545A1C92B2E2
:10F35000A95402AA118E9A1C92B2AD1804332970D6
:10F360009BB2090A02AA69709381A0E605AB271C2B
:10F3700000931F23103706AD98460193381C0321D4
:10F3800002222B1CFFF706FB002800D098E605ABF5
:10F3900000934346381C0193072110222B1CFFF7D2
:10F3A000F9FA002800D08BE6D5E605AB271C0093C0
:10F3B0001F23183706AD98460193381C14210222EA
:10F3C0002B1CFFF7E7FA002800D079E605AB009385
:10F3D0004346381C0193152110222B1CFFF7DAFA43
:10F3E000002800D06CE6BAE6A76A002F00D166E6D6
:10F3F000BB880233FE2B00D95FE602AA9089002267
:10F400009046163291461632924606AD4A46013370
:10F410002B54431C9BB2EA54831C9BB202AA9381D7
:10F420003A88EB181A700430120A5A7080B202AB94
:10F430009881BA88002A0FD0B968002900D13EE629
:10F44000281802F0F0FB02AB9B89B888C01880B284
:10F4500002AB98815346E15C43460133DBB29846E8
:10F460008B4200D3FBE643465F00A36A47449C46B9
:10F47000BF006744BB880233FE2BC7D90C201FE6B0
:10F4800002201C27591C06AD89B2E8546F54191884
:10F4900089B282420CD010D9032A0CD0042A00D0A1
:10F4A0000DE603226A5403339BB202AA9381F5E569
:10F4B00001226A54F7E76854F5E7012A00D0FEE517
:10F4C00000226D182A70EEE77FF3FFFF7DF3000046
:10F4D000FFFF000073DF704774DF7047F8B5051C4D
:10F4E0000E20002D00D17DE0002A00D17AE000201E
:10F4F0000F1C3D4908703D490B6006993C4B196053
:10F500003C490B1C13CA13C313CA13C313CA13C336
:10F51000002107223848FBF77BFE384B384A394E2A
:10F520001A60394A00219A60301C3822FBF770FEBD
:10F530002B782A1C3370AB781032B370EB78F370F1
:10F540006B787370331C103303CA03C3331C103A37
:10F55000083303CA03C3331C0832183303CA03C376
:10F560006B6A002B11D0294B294C7362696A9C602D
:10F570000A881A8088889880002806D000238A6824
:10F58000D25CE25401338342F9D1AB6A002B14D030
:10F59000204B2148B362A96A98608C889C800A88B5
:10F5A0001A800023002C05D08A68D25CC254013333
:10F5B000A342F9D12C23EA5CF2542B6A002B06D02B
:10F5C000164B33622A6A5188598012881A806B68F8
:10F5D000002B03D0124B73606B687360301C391CB6
:10F5E000FFF7F4FCF8BDC04634280020682700204F
:10F5F000902700209C27002094270020E42700204B
:10F60000C027002024270020142800205C27002089
:10F61000702700203C280020F427002038280020F4
:10F62000E0270020002370B5A34C86B02070684608
:10F630000093FDF7FDFF082800D1FCE0002833D13E
:10F64000009B002B30D19D4E0021301C0722FBF780
:10F65000DFFD9B4D6B78002B2CD1AB78002B00D0BD
:10F660009FE02378012B00D1B1E0022B00D1CBE049
:10F670002A7B002A31D1032B2FD1042323702B7E28
:10F68000002B00D170E08F4B1A68002A2FD02B7806
:10F69000002B2CD08C4B1B78002B28D101218B4BBD
:10F6A00007201970904725E001220020884B1A702E
:10F6B00006B070BD2378012B04D0AA78002A74D03C
:10F6C000022BD5D17F4A1268002A00D1F0E0012137
:10F6D000804B082019709047C3E72A7E002A41D04A
:10F6E000784A1268002A02D0033B012BCFD90022AE
:10F6F000764B1A70182268460021FBF789FD00231B
:10F700006A4613701372227801930393022A00D180
:10F71000C1E02ED9032A00D194E0042A1FD16B4600
:10F72000AA8B1A822A8C5A826B4B1A79002A47D0EC
:10F730002A78002A47D0644A1278002A43D16946C1
:10F7400003930423023265480A720021C370FFF755
:10F750003DFC0028ACD10622614B1A702278002AA9
:10F7600016D00FE0042BBBD100235D4A2370137029
:10F77000BDE7012AF3D169464B820B82584B0196B3
:10F780000A701A706846FFF7A5FE002800D08FE7C0
:10F790004C4B1B68002B02D0514A10789847002030
:10F7A00086E72378012B8BD18CE7022B00D05FE713
:10F7B000032323702B7B002B00D15EE703238FE70D
:10F7C0001A7B002AB4D10422454B1A70DAE76A7812
:10F7D000002A17D07278002A00D081E7B278002A78
:10F7E00000D07DE7F278002A00D079E73279002A4C
:10F7F00000D075E77279002A00D071E7B279002A4B
:10F8000000D06DE702232370AB78002BD0D0737843
:10F81000002B0ED1B378002B0BD1F378002B08D13D
:10F820003379002B05D17379002B02D1B379002BEA
:10F83000BED0022354E76846FCF74CF9002800D1FB
:10F84000FEE600E76B46AA8A5A822A8A1A82224B6F
:10F850001A79002A18D02A78002A18D01A4A127861
:10F86000002A14D169460393042302321B480A720A
:10F870000021C370FFF7AAFB002800D018E705227B
:10F88000174B1A7022786AE71A7B002AE3D1032209
:10F89000134B1A7076E7012369460B706B46298972
:10F8A0000196598269466B680B820D4B1A7069E7A5
:10F8B00008490A70D6E6C046342800209427002064
:10F8C0009C270020682700208F2700201328002075
:10F8D0006C27002035280020E42700202427002062
:10F8E0004828002008B50388112B20D01B2B09D0F5
:10F8F000102B00D008BD837D012BFBD18288204BCB
:10F900001A80F7E7027A002AF4D11E4B1B78022BEB
:10F9100030D027D9032B1DD0042BEBD11A4B1A70F2
:10F920001A4B1B68002BE5D000209847E2E7002225
:10F93000174B1A70124B82881B889A42DAD1012029
:10F94000FFF770FE0028D5D0124B1B68002BD1D0DA
:10F950009847CFE70C4A04201370FFF763FE002896
:10F96000F2D1C7E7012BC5D10220FFF75BFE0028CB
:10F97000EAD1BFE70320FFF755FE0028E4D1B9E73D
:10F98000002100203428002048280020682700207B
:10F990008F27002090270020023808B5012803D8BF
:10F9A000094B1A78002A00D108BD00221A70074BB3
:10F9B0001878FFF737FE0028F6D0054B1B68002BA0
:10F9C000F2D09847F0E7C0466C270020342800208A
:10F9D0009027002070B5144B1B78002B20D0134DBE
:10F9E0002B78002B1CD1124E3378002B03D0FFF75D
:10F9F00073FD041E15D101230E482B700021053321
:10FA0000C370FFF7E3FA041E0BD13078FFF70AFE4C
:10FA1000002805D0084B1B68002B01D0984700E058
:10FA20000024201C70BDC0469C2700208F2700208A
:10FA3000342800202427002090270020A0DF7047D2
:10FA4000A2DF7047A3DF7047A4DF7047A6DF7047CF
:10FA500010B582B0002808D0002906D00B88112BE1
:10FA600021D0502B03D0102B1AD002B010BD037D33
:10FA7000002BFAD0CA8843899A42F6D10B8A022B0E
:10FA8000F3D10468002CF0D00B1CDA7C9B7C1202B2
:10FA900013430122134001A953400B70A047E4E730
:10FAA0008B884382E1E701235B424382DDE7C04666
:10FAB000F0B54D465F4656464446F0B40E2595B027
:10FAC000002816D0002914D00B6889460360012352
:10FAD0005B4243820A79037406A902338B70684B38
:10FAE0000275071C021D01200B80FFF7A7FF051EF2
:10FAF00007D0281C15B03CBC90469946A246AB46A0
:10FB0000F0BD3B7D002B00D09EE00DAD281C0021F8
:10FB10001C22FBF77DFB02222B78397D1A4301233F
:10FB20009A460B401801D3B21022934303432B7023
:10FB3000002390464A1E91419B466B60EB602B610F
:10FB4000494204AB0B406B615B465246AB6102AB72
:10FB50009A754C4B05AE02AA938200210322301CF9
:10FB6000FBF756FB4B469B7B062233704B46DB7BF9
:10FB700008AC7370B37800219343043A1343DBB2AB
:10FB8000063293434246934352469343B3704B46E7
:10FB90001B7B02AAD370201C1422FBF739FB07AB96
:10FBA0000893534623815B4663815346A38102AB8E
:10FBB000033323616660291CB888BB1D221CFFF734
:10FBC0003FFF051E95D14B469B68002B55D0012366
:10FBD00002AA93752C4B00219382301C0322FBF761
:10FBE00017FB4B461B7C0622337000237370B378DF
:10FBF0009343043A1343DBB20632934342469343A2
:10FC000052469343B37003AB98464B4640469968BF
:10FC100000F0B8FD814600211422201CFBF7F8FA01
:10FC200007AB23606A464B46D3804346D0883A1CD4
:10FC3000658166602081A0812361F8880E32211CD5
:10FC4000FFF700FF051C54E704AC00210322201C31
:10FC5000FBF7DEFA0F21012223788B431343102296
:10FC60000B40134323704B4606225B7B6370A378E3
:10FC7000934302221343A37047E7F88139E7C04654
:10FC80000F180000192A000008290000F0B589B0FB
:10FC90006B46041CDE1DD971002822D0027CCBB239
:10FCA00000259A421AD002AF00210822381CFBF727
:10FCB000AFFA01237D803B807E60608AE1883A1C38
:10FCC000FFF7C2FE051E09D13378628A2374114BF7
:10FCD0009A4208D0237D0835002B06D1281C09B094
:10FCE000F0BD0E25FAE70825F8E704AD281C002131
:10FCF0001022FBF78DFAE388291C2B800123AB70BF
:10FD00007B88AF60AB807B68EB60608AFFF79EFE0C
:10FD1000051CE3E7FFFF000075DF704776DF7047E3
:10FD20007ADF70477BDF704710B5184B82B01888B8
:10FD3000174B984214D0174A174C13780133DBB293
:10FD40001370217B99420DD200231370237C002B6A
:10FD500012D16369002B03D0002201A802709847DA
:10FD600002B010BD0D49FFF7D7FF0028F8D0A369F6
:10FD7000002BF5D09847F3E73B21FFF7CFFF002892
:10FD8000E7D0A369002BE4D09847E2E7942800204D
:10FD9000FFFF000054280020582800209828002049
:10FDA00030B51B4B1B4A5B88118883B099420FD832
:10FDB00052889A420CD3184B5B69002B03D0012266
:10FDC00001A802709847154C0023237003B030BD82
:10FDD000124C2378002B08D00F4B5B69002BF3D01B
:10FDE000002201A802709847EEE70D4B0A4D1B78E0
:10FDF000002B0BD0A9680B480022FBF78BFD0028D5
:10FE0000E2D0AB69002BDFD09847DDE76968F2E705
:10FE10004C2800209828002058280020492800203D
:10FE20005428002074280020164938B5021C0B1CE9
:10FE300032CA32C332CA32C312681A600022124B6D
:10FE400001681A70002916D0104C0832201C01F0ED
:10FE5000EAFE201CFFF764FF00280BD101220C4BA7
:10FE600052421A8000220B4B0B481A7000210B4A99
:10FE7000FBF736FD38BD0548FFF754FF0028EDD0ED
:10FE8000F8E7C0465828002049280020982800207C
:10FE90009428002054280020C81D020029FD0100DC
:10FEA00010B50388112B31D01FD9122B16D0502B2F
:10FEB0001AD11F4CC288E3899A4215D1038A022BBA
:10FEC00012D1837CDB070DD41A48FBF79FFD002875
:10FED0000AD0A369002B07D0984705E0164B0830DD
:10FEE00006C806C3FFF75CFF10BD102BFCD182884B
:10FEF000124B18301A80104B06C806C30022104B54
:10FF00001A700B4BDB89002BEED1EBE701220B4B78
:10FF100052421A8000220A4B06481A70FBF776FDFF
:10FF20000028E1D0024B9B69002BDDD09847DBE72E
:10FF300058280020742800204C28002094280020F5
:10FF400054280020A0DF7047A2DF7047F0B5564666
:10FF50004D4644465F46F0B491B0019089469046C4
:10FF60009A4600294FD04346002B02D10020FBF7D0
:10FF700059F9022509AC201C00211C22FBF748F985
:10FF8000237803AE2B43237001239B46B3706B464B
:10FF900000279B8802A80021032233806760E76066
:10FFA00027616761A761FBF733F953461B7802AA03
:10FFB000137053465B780021537093780622934365
:10FFC0001D43E7231D405B469D4302AB9D7004AD7E
:10FFD000281C0E32FBF71CF902AB6B6043462B81E9
:10FFE000AB814B462B610A4B211C18882A1C1A9B9B
:10FFF00004966F81FFF7A8FF11B03CBC904699466C
:020000022000DC
:10000000A246AB46F0BD0020FBF70CF9ABE7C046BB
:10001000E8280020F0B55F464D4656464446012389
:10002000F0B495B004A98B70A14B071C0B80A14BB9
:1000300001201A1C9946FFF785FF002800D0E4E054
:100040003A88002A00D0E7E03A89002A00D0F1E09F
:100050003A8A002A00D0F9E03A8B002A00D001E168
:100060003A8C002A00D009E13A8D002A00D011E133
:100070003B6B002B5FD01A7806AD2A700022022657
:1000800092465A780DAC6A709A780021AA70DA7894
:10009000201CEA701A792A719B681A0A6B71AA717E
:1000A0001B0C1C22EB71FBF7B3F8237800213343C0
:1000B000237053466360E36023616361A36101338E
:1000C00098466B4642469A756A467B4B03A89382D4
:1000D0000322FBF79DF83C236A46FB5C0021137367
:1000E0003B1C3C335B785373937B062293431E4344
:1000F0000823F6B29B469E4308339E4343469E43E5
:100100006B469E7308AE0E32301CFBF781F805ABD0
:10011000089303AB73605B463381534673815B4640
:10012000B3814B46211C1888321C644B3561FFF7A4
:100130000BFF002869D17B6B002B0AD019681A7954
:100140005F4B604800933B1C3C33FFF7FFFE0028E9
:100150005BD1BB6B002B00D1A8E01A7806AD2A70EA
:100160005A880DAC6A70120AAA709A880021EA7047
:10017000120A2A71DB881C226B71201C1B0AAB71CE
:10018000FBF746F8022290464246237803AE13431B
:10019000237000239A466360E36023616361A36177
:1001A00001339B466B465A469A756A46464B002178
:1001B0009382301C0322FBF72BF83C23FB5C0622C6
:1001C00033703B1C3C335B7800217370B3789343EE
:1001D00042461A43171CE7231F405B469F43B770F4
:1001E00008AF1422381CFBF713F805AB089307235C
:1001F00052463B81BB814B467A811888211C3A1CB0
:10020000324B7E603D61FFF79FFE15B03CBC9046CF
:100210009946A246AB46F0BD2D4B2E4800933B1CA1
:1002200079683C33FFF792FE0028EED13A89002A24
:1002300000D10DE7284B294800933B1CF9683C335B
:10024000FFF784FE002800D102E7DEE7244B2548B3
:1002500000933B1C79693C33FFF778FE002800D1FE
:10026000FAE6D2E7204B214800933B1CF9693C3366
:10027000FFF76CFE002800D1F2E6C6E71C4B1D48D4
:1002800000933B1C796A3C33FFF760FE002800D1E5
:10029000EAE6BAE7184B194800933B1CF96A3C336D
:1002A000FFF754FE002800D1E2E6AEE70020ACE7FD
:1002B0000A180000E8280020232A0000B0280020A7
:1002C000C02800202A2A0000502A0000C828002048
:1002D000B8280020292A0000A8280020242A00008D
:1002E000D8280020252A0000D0280020272A000036
:1002F000E0280020262A0000A0280020282A00004C
:10030000A0DF7047A2DF7047A6DF704710B50B88EB
:1003100082B0112B1ED0502B06D0102B01D002B072
:1003200010BD8B880384FAE7CA8883899A42F6D184
:100330000B8A022BF3D10468002CF0D00B1CDA7C62
:100340009B7C120213430122134001A953400B70FE
:10035000A047E4E701235B420384E0E7F0B55F4692
:1003600056464D464446F0B40A6897B002600B7991
:100370002222437101235B420384002383542A32E7
:1003800083528946013303A98B709B46A54B821D7E
:10039000804601200B80FFF7B3FF0126071E82462F
:1003A00007D0504617B03CBC90469946A246AB4693
:1003B000F0BD01AC201C00210322FAF729FF0F2217
:1003C00023780FAD93433343134010229246524695
:1003D000134323704B4606221B7B00216370A378D6
:1003E000281C9343043A13431A32A370FAF710FF00
:1003F00052462B786F6013432B705B46EF602F6182
:10040000AF6104AF6C61BB7002AC874B002103226B
:10041000201C3B80FAF7FCFE4B465B7B06222370D8
:100420004B469B7B00216370A3789343043A1343AC
:10043000E53213401E43A67005AE301CD33AFAF7DE
:10044000E7FE4346059774605B79002B6CD102236D
:1004500000229A4622234146CB5C002B00D19246D3
:10046000002342460AAC63704C33D35A002B5FD052
:10047000524610210A43D2B292464246928CA27052
:10048000120AE270012B00D1C8E04246D28C2271E0
:10049000120A6271022B00D1AFE04246128DA271A6
:1004A000120AE271032B00D1AAE04246528D227259
:1004B000120A6272042B00D1A5E04246928DA2720C
:1004C000120AE272052B00D1A0E04246D28D2273BF
:1004D000120A6273062B00D18AE04246128EA27382
:1004E000120AE273072B00D193E04246528E227427
:1004F000120A6274082B00D18DE04246928E1421BC
:10050000A274120AE2740922092B73D040464146B4
:10051000093B5A003631243001F08EFB42464C2311
:100520001421D35A092205E0062304229A4691E7B2
:10053000002202219B1A40464C22835253462370CC
:10054000002373811433B381434631813461C08801
:10055000291C321C0833FFF7D5FE8246002800D044
:100560001FE74B469B68002B00D11AE700211C2295
:10057000281CFAF74DFE02222B78002113432B7022
:1005800053466B60EB602B616B61AB6101239B4653
:10059000B370264B0132381C3380FAF739FE4B46D4
:1005A000DB7B06223B704B461B7C00217B70BB78BB
:1005B000201C9343043A1343E53213405A469343B5
:1005C0001332BB70FAF724FE5B46238153466381E6
:1005D0005B46A3814B469B68266023614346676068
:1005E000D888291C1033221CFFF78CFE8246D8E6DF
:1005F00006220E2189B292B29CE702220621F9E777
:1006000003220821F6E704220A21F3E705220C2140
:10061000F0E70722EEE708221221EBE71A1C0C395B
:10062000E8E7C0460D180000372A0000382A00000D
:10063000F0B546464F46C0B4424B028C061C8BB008
:1006400008209A4204D10BB00CBC90469946F0BDEC
:100650007379002B5BD10223002299462223F35C9D
:10066000002B00D19146FF2955D901234F46032283
:100670001F43FBB2994605ADCBB2090AA97090465B
:10068000032403216B704C23F25A0023002A1CD050
:1006900010234F461F43FBB2994624239C46B44483
:1006A00060460027023104E00C1C0231023014299C
:1006B00038D803882C19237001371B0A6370C9B21C
:1006C0009742F1D18BB29846131CD31A4C22B352E5
:1006D0004B462B706B469F1C434601AC0021201CEF
:1006E0003C3A3B80FAF794FD3389A76023800123CD
:1006F000A3700023E560A380308C211CFFF704FE6B
:100700000028A0D13B8843459DD00C309BE70623B1
:1007100004229946A2E70222CBB29046022402218B
:1007200005ADAFE7391C103149007118D21B0431F7
:100730005200604601F080FA4C23A1B2F25A88467A
:10074000BBB2C2E7FFFF000070B54C26835B041C00
:100750000D1C142B07D04C22591C10335B00E318DE
:10076000A1529D8070BD211C24302631262201F02B
:1007700063FAA35B013B9BB2EDE7C0462223C15461
:100780007047C0460B7803704B7843700220704767
:1007900038B5041C081C0D1C01F062FA656020804D
:1007A00038BDC0467FDF704786DF7047A7DF7047E0
:1007B000A9DF7047AADF704700207047002070470C
:1007C00000207047002070470020704700207047CD
:1007D00000207047344AF8B54F46914646464C468D
:1007E000C0B44378071C5900CA18D00024186468A4
:1007F000002C0BD02D4E9200B218927A55B2002DDB
:1008000045DB002200250024904604E0002200255C
:1008100000249046254ECB189B00F31818894146BA
:10082000221C2B1CFFF7C4FF0B2808D0002814D073
:100830001F48012D14D00CBC90469946F8BD7B781A
:1008400041465A00D3189B00F3181889221C012333
:10085000FFF7AEFF002803D101250020012DEAD1CA
:100860007B780C215A00D3189B00F6183089114A66
:10087000FFF79CFF0028DED002220F4BC3189343E2
:100880000FD008280DD011280BD00020D3E7520636
:10089000B7D4021C083290464A46C844A4B2155840
:1008A000B9E70348C7E7C046E8290020F42800203C
:1008B00041800000FFFF0000FECFFFFFF0B587B0D2
:1008C0000E236A46D3804B782C4D5A00D3189B00D8
:1008D000EB18061C18896B460C1C9A1D02A90323F1
:1008E000FFF768FF002802D0002007B0F0BD637852
:1008F000234F5800C0186B46C0000830DA883818FB
:1009000002A901F081F96378002826D05900CA189D
:10091000D200BA185268002A2DD11A4D0322CB18E2
:10092000DB00FA506B46DA8863785900CB18DB009D
:10093000FB185A60637802A95800C018C00008303C
:10094000381801F070F96378301C5900C918CB00D1
:10095000F91818223823A847C6E75800C3189A0088
:10096000AD18AA7A9207BFD4DB00F818002118222C
:10097000FAF74EFCB8E7044DD0E7C046F428002053
:10098000E8290020E5D301006DD40100021C38B530
:100990004B780C4C5800C018C3000D1CE018111CFB
:1009A00038231822FCF7A6FD002807D16B785A00DF
:1009B000D318DB00E3185A68013200D038BD586004
:1009C000FCE7C046E8290020F0B557464E464546AC
:1009D000E0B4444F92B03C68002C48D01A9C542C90
:1009E00045D81E1C404B914601936A46002308944B
:1009F000884682461374099600243C4D02E0013477
:100A0000072C11D0A1B2281C02AAFCF7C3FC0028B5
:100A1000F5D1504602A9082201F0F6F80028EED1DF
:100A2000E4B201ADAC7003E001ADAC78FF2C1ED098
:100A30004346032B2CD02E4BF31AC32B1DD92D4B21
:100A4000F31A1B2B2FD800236B700AAB09932023BA
:100A500008934246022A3DD0022213436A46137489
:100A600007AB0593281C3B6804A94A46984712B077
:100A70001CBC90469946A246F0BD4B461E49002B31
:100A80000BD00B680122A24093430B602023E0E7C8
:100A90001A9B542B23D04323E0E70122A2400B688A
:100AA0001342E4D0EEE71548361A172EDFD830236C
:100AB0006A46137400236B700133EB70104B9A7A03
:100AC00030239207C5D400211822FAF7A1FB6B4608
