:1000000000800020B9210000F9210000FB21000040
:1000100000000000000000000000000000000000E0
:100020000000000000000000000000009D03000030
:100030000000000000000000A103000001220000F9
:10004000C91E00000322000003220000032200005A
:100050000322000000000000032200000322000031
:1000600003220000032200000322000003220000FC
:1000700003220000032200000322000003220000EC
:1000800003220000B104000003220000032200004C
:1000900003220000032200000322000003220000CC
:1000A0000322000003220000000000000000000006
:1000B0000000000000000000000000000000000040
:1000C00010B5064C2378002B07D1054B002B02D02E
:1000D000044800E000BF0123237010BD7000002021
:1000E000000000005022000008B5084B002B03D090
:1000F0000748084900E000BF07480368002B00D10B
:1001000008BD064B002BFBD09847F9E70000000024
:1001100050220000740000206C000020000000004D
:10012000164B002B00D1144B9D46402292029A1A86
:10013000924600218B460F461348144A121A00F0CB
:1001400067F80F4B002B00D098470E4B002B00D0C8
:1001500098470020002104000D000D48002802D01F
:100160000C4800E000BF00F02DF82000290001F04D
:1001700053FF00F011F8C046000008000080002086
:10018000000000000000000070000020D4110020DA
:100190000000000000000000084B10B5041C002BFC
:1001A00002D0002100E000BF054B1868836A002BD5
:1001B00000D09847201C00F033F8C0460000000033
:1001C000342200000E4B70B500251E1C0D4CE41AA5
:1001D000A410A54204D0AB00F35898470135F8E7C6
:1001E00002F01AF8084B00251E1C084CE41AA41053
:1001F000A54204D0AB00F35898470135F8E770BD2D
:1002000064000020640000206400002068000020DA
:10021000031C8218934202D019700133FAE7704729
:10022000FEE7C046002300B585B001AA906000211A
:1002300003481380536000F005F805B000BDC046C8
:1002400001400000BFF34F8F034A044BDA60BFF355
:100250004F8FC046FDE7C0460400FA0500ED00E000
:1002600072B6024A13680133136070478C00002095
:10027000034A1368013B1360002B00D162B670473C
:100280008C00002038B50723041C034201D09C4396
:10029000083400F0EDFF0D4B1D68002D0FD00C4A07
:1002A0000C491368E4188C4207D8A34205D2ED1814
:1002B000146001F091F8281C38BD0025F9E70722E9
:1002C000054D083595431D60E9E7C04694000020C0
:1002D00090000020F70F0000980000207047C046F3
:1002E000031C012208334360C360036100235242B0
:1002F000826003607047C046002303617047C046B8
:1003000043684B609A688A609A6851609960086196
:100310000368013303607047021C30B50C68083273
:10032000631C01D10DE01A1C53681D68AC42FAD25F
:100330004B6099608A605160086103680133036013
:1003400030BD02695368F3E74268816803699160D0
:100350008268416851605A68824205D00022026179
:100360001A68501E1860704782685A60F6E7C046E7
:100370000848006880F30888074B1968086820302F
:1003800080F30988022080F314883FBCAE4662B631
:1003900000BDC04600000000141100207047C04698
:1003A000EFF309800D4B1A6820381060F0C0444606
:1003B0004D4656465F46F0C008B500F05DF80CBCEF
:1003C000116808681030F0C8A046A946B246BB467E
:1003D00080F309882038F0C81847C046141100205F
:1003E00072B6FEE710B58024031F64041C60043B52
:1003F00019600349043B1960143B40381A6010BD72
:10040000E103000010B50A4C0A4B226A1340C022D7
:1004100012041343236200F08FF80022064B1A6087
:100420001023226913432361FFF7A2FF72B6FEE790
:1004300000ED00E0FFFF00FF981000208022044B39
:1004400052055A6040BFBFF34F8FBFF36F8F7047A5
:1004500000ED00E072B6024A136801331360704782
:1004600098100020034A1368013B1360002B00D151
:1004700062B6704798100020002330B583B001ADFC
:100480000193EFF310830024002B06D172B60223F0
:10049000AA786C701343AB70019C01F0C7F801940B
:1004A000A30302D56B7883F3108803B030BDC04638
:1004B000002330B51B4A83B013601B4A01AC1360A4
:1004C0000193EFF310830025002B06D172B60223AF
:1004D000A27865701343A370019D00F0D7FE134B03
:1004E000134AD358181A0002000A05D0022811D85E
:1004F00000F0DAFE002807D10195AB0302D563783E
:1005000083F3108803B030BD80220A4B52055A6035
:1005100040BFF1E7013800F0BFFE00F0C5FE002843
:10052000EAD0F1E70011014040110140040500004C
:100530000010014000ED00E008B5002001F094FC3F
:10054000A12220210B4BD2009950C1210122890008
:100550005A5009490A60C4211A60084A8900505853
:10056000074B0340C02000020343535080239B02EB
:10057000136008BD001001400810014000E100E0D8
:10058000FF00FFFF1A4B10B5041E9C4200D91C1C33
:1005900072B6C2230121174A9B00D150A821164BE5
:1005A000C900D358E3181B021B0A53500021134BF8
:1005B00019608021C12349029B00D15001F06AF9E2
:1005C00000280AD0002C08D0BFF34F8F80220C499E
:1005D000520020BF8B58002BFBD062B68021C22274
:1005E000044B4902920099500121043A995010BDE0
:1005F000FDFFFF0000100140040500004011014014
:1006000000E100E070B5061C0D1E29D048434D30B6
:10061000FFF738FE031C041C4C33002826D023604F
:10062000E6632564FFF716FF216CE36B22684B43FA
:10063000D018606000205B1AD318E3600123A06328
:10064000201C5B426364A260A3641030FFF748FE85
:10065000201C2430FFF744FEFFF704FF201C70BD70
:100660004C20FFF70FFE041C031ED8D10024F5E731
:10067000F0B54F464646041CC0B41E1C0023051CA2
:1006800085B0019299468846FFF7E4FEA36BE26BC2
:1006900000272435934279D3022E00D15FE1019BDC
:1006A000002B00D16CE1002F00D186E0FFF7DAFECD
:1006B00000F0DEFDFFF7CEFE636C013300D1DBE01E
:1006C000A36C013300D17CE0FFF7CCFE02A801A9A6
:1006D00001F0A8F8002800D07EE0FFF7BBFEA36B76
:1006E000E26B934200D1CAE0FFF7BCFEFFF7B2FE17
:1006F000A36C002B06DC15E0A36C013BA364A36C88
:10070000002B0FDD636A002B0CD0281C01F02EF8A3
:100710000028F1D001F0B8F8A36C013BA364A36CEE
:10072000002BEFDC01235B42A364FFF79BFEFFF786
:1007300091FE636C002B1BDD2369002B18D0271C56
:10074000103708E0636C013B6364636C002B0FDDC2
:100750002369002B0CD0381C01F008F80028F1D0D8
:1007600001F092F8636C013B6364636C002BEFDC77
:1007700001235B426364FFF775FE00F02DFE012745
:10078000FFF768FEA36BE26B934285D2226C002ACE
:1007900000D0C7E02568002D00D10FE1A36B013325
:1007A000A363636A002B00D0FEE0FFF75BFE01202D
:1007B00005B00CBC90469946F0BD02A801F026F8A1
:1007C00074E74B46A364FFF74DFE02A801A901F0B0
:1007D00029F8002800D180E7FFF73CFEA36C002B2E
:1007E0001BDD636A002B18D0251C243508E0A36CA0
:1007F000013BA364A36C002B0FDD636A002B0CD0BC
:10080000281C00F0B3FF0028F1D001F03DF8A36CE4
:10081000013BA364A36C002BEFDC01235B42A364C8
:10082000FFF720FEFFF716FE636C002B1BDD23692C
:10083000002B18D0251C103508E0636C013B636465
:10084000636C002B0FDD2369002B0CD0281C00F0FB
:100850008DFF0028F1D001F017F8636C013B636451
:10086000636C002BEFDC01235B426364FFF7FAFD4E
:1008700000F0B2FD00209BE74B46636420E7271C95
:100880001037FFF7EFFD381C019900F005FFFFF767
:10089000E1FDA36C002B06DC15E0A36C013BA36417
:1008A000A36C002B0FDD636A002B0CD0281C00F01A
:1008B0005DFF0028F1D000F0E7FFA36C013BA364CB
:1008C000A36C002BEFDC01235B42A364FFF7CAFD9E
:1008D000FFF7C0FD636C002B06DC15E0636C013B89
:1008E0006364636C002B0FDD2369002B0CD0381C74
:1008F00000F03CFF0028F1D000F0C6FF636C013B24
:100900006364636C002BEFDC01235B426364FFF7DD
:10091000A9FD00F061FD002800D030E7FFF78EFD53
:1009200001272DE7002E2FD04146E06801F06AFC38
:10093000236CE2685B422168D218E2608A4203D2EB
:10094000626894466344E360022E00D026E7A36BFE
:10095000002B00D122E7A36B013BA3631EE7226CAF
:10096000002A00D116E74146E06801F04BFC236CF9
:10097000E2685B422168D218E2608A42E0D3E6E78F
:10098000FFF770FD002013E7A068414601F03AFC34
:10099000226CA368944662686344A360934200D2C9
:1009A000FCE62368A360F9E6201C243000F0DEFE9C
:1009B000012800D0F9E6FFF741FDF6E6606800F097
:1009C000C1FFA36B65600133A363636A002BEBD1A6
:1009D000002800D1E9E6FFF731FDE6E6F0B547462D
:1009E00080B41F1C002382B0041C904601AE01930A
:1009F000EFF310830025002B06D172B60223B278E4
:100A000075701343B370019DA36BE26B93420CD3DB
:100A1000022F43D000200195AB0302D5737883F3F6
:100A2000108802B004BC9046F0BD226C002A0DD1A3
:100A30002768002F52D0A36B0133A363A36C01334B
:100A40003BD0A36C0133A3640120E4E7002F17D04F
:100A5000E06801F0D7FB236CE2685B422168D218A2
:100A6000E2608A4203D2626894466344E360022FE4
:100A7000E1D1A36B002BDED0A36B013BA363DAE7CC
:100A8000A06801F0BFFB226CA368944662686344CF
:100A9000A3609342CFD32368A360CCE7226C002AE3
:100AA000C6D0E06801F0AEFB236CE2685B422168CF
:100AB000D218E2608A42D6D3DBE7636A002BC3D048
:100AC000201C243000F052FE0028BDD04346002BED
:100AD000BAD001234246012013609CE7606800F011
:100AE00031FF6760A7E7C046F0B54F464646041C95
:100AF000051CC0B485B0994688460192FFF7AAFC50
:100B0000A36B002700262435002B7ED1019B002BF0
:100B100000D15CE1002F00D1EEE0FFF7A3FC00F074
:100B2000A7FBFFF797FC636C013300D1E8E0A36CEF
:100B3000013300D1E9E0FFF795FC02A801A900F01C
:100B400071FE002800D0EAE0FFF784FCA36B002BC5
:100B500000D084E0FFF786FC2368002B00D12EE153
:100B6000281C019900F098FDFFF774FCA36C002B82
:100B700006DC15E0A36C013BA364A36C002B0FDD26
:100B8000636A002B0CD0281C00F0F0FD0028F1D087
:100B900000F07AFEA36C013BA364A36C002BEFDC96
:100BA00001235B42A364FFF75DFCFFF753FC636C1A
:100BB000002B1BDD2369002B18D0271C103708E001
:100BC000636C013B6364636C002B0FDD2369002BB6
:100BD0000CD0381C00F0CAFD0028F1D000F054FE03
:100BE000636C013B6364636C002BEFDC01235B42AD
:100BF0006364FFF737FC00F0EFFB00282BD00127E0
:100C0000FFF728FCA36B002B80D0226CE568002A3C
:100C100008D06368A918E160994200D3E7E0404634
:100C200001F0F0FA4B46002B00D0D8E0A36B013B5B
:100C3000A3632368002B00D1E3E02369002B00D1DC
:100C4000D1E0201C103000F091FD012800D0CAE056
:100C5000FFF7F4FBC7E0FFF7F1FB0127D0E7FFF751
:100C600001FCFFF7F7FBA36C002B06DC15E0A36C7F
:100C7000013BA364A36C002B0FDD636A002B0CD037
:100C8000281C00F073FD0028F1D000F0FDFDA36CDE
:100C9000013BA364A36C002BEFDC01235B42A36444
:100CA000FFF7E0FBFFF7D6FB636C002B1BDD23692E
:100CB000002B18D0271C103708E0636C013B6364DD
:100CC000636C002B0FDD2369002B0CD0381C00F067
:100CD0004DFD0028F1D000F0D7FD636C013B63644B
:100CE000636C002BEFDC01235B426364FFF7BAFB0C
:100CF000012700F071FB83E702A800F087FD0CE7F5
:100D00006664A36C013300D015E7A664FFF7AAFB65
:100D100002A801A900F086FD002800D114E7FFF722
:100D200099FBA36C002B1BDD636A002B18D0251CDC
:100D3000243508E0A36C013BA364A36C002B0FDDFA
:100D4000636A002B0CD0281C00F010FD0028F1D0A5
:100D500000F09AFDA36C013BA364A36C002BEFDCB5
:100D600001235B42A364FFF77DFBFFF773FB636C1A
:100D7000002B1BDD2369002B18D0251C103508E043
:100D8000636C013B6364636C002B0FDD2369002BF4
:100D90000CD0281C00F0EAFC0028F1D000F074FD13
:100DA000636C013B6364636C002BEFDC01235B42EB
:100DB0006364FFF757FB00F00FFB00200AE0FFF72A
:100DC00049FB606800F086FDFFF74CFBC8E6FFF7C3
:100DD00049FB002005B00CBC90469946F0BD636A03
:100DE000E560002B06D1FFF73DFB0120F2E721680B
:100DF000E16014E7201C243000F0B8FC0028F2D099
:100E000026E700F0CBFD606017E7C046074B1A6885
:100E1000002A03D09A68002A06D070470022D20028
:100E200099509B185860F8E70132F8E7C411002088
:100E300038B5041C0D1CFFF70DFB636C01335CD04F
:100E4000A36C013356D0FFF70DFBA36B002B04D12D
:100E5000201C291C243000F059FCFFF7FBFAA36C7E
:100E6000002B1BDD636A002B18D0251C243508E0FD
:100E7000A36C013BA364A36C002B0FDD636A002B02
:100E80000CD0281C00F072FC0028F1D000F0FCFC13
:100E9000A36C013BA364A36C002BEFDC01235B423A
:100EA000A364FFF7DFFAFFF7D5FA636C002B1BDDB5
:100EB0002369002B18D0251C103508E0636C013B1A
:100EC0006364636C002B0FDD2369002B0CD0281C9E
:100ED00000F04CFC0028F1D000F0D6FC636C013B24
:100EE0006364636C002BEFDC01235B426364FFF7F8
:100EF000B9FA38BD0023A364A5E7002363649FE724
:100F0000F0B557464E464546E0B40A9E81460F1C52
:100F1000151C9A46002E00D18DE04820FFF7B2F94B
:100F2000041E00D190E0AD002A1C0663A521301CF0
:100F3000FFF76EF9236B043D9C46072365443A781E
:100F40009D432D33E2543B78A846002B08D035232F
:100F50007A78E2547B78002B02D03623BA78E254B8
:100F600000223723089EE254022E57D80025271D61
:100F7000381CE662A663E563FFF7BEF9201C183053
:100F8000FFF7BAF903239B1BA36144232461646226
:100F900025644046E55449465246FFF723FA099B2B
:100FA0002060002B00D01C60FFF754FA3B4A3C4DF8
:100FB0001368013313602B68002B34D0394E33682B
:100FC000002B05D12B68089ADB6A9A4200D32C606B
:100FD000354B9846354A136801331360344AE36A47
:100FE00011688B4218D89800C01883004344181C1D
:100FF000391CFFF785F9FFF735FA33680124002B18
:1010000004D02B68089ADB6A9A4209D8201C1CBCC1
:1010100090469946A246F0BD1360E4E70226A5E794
:10102000FFF70CFAF2E72C601368012B10D01E4B6F
:101030001C4E9846CEE79000FFF724F9061E00D01C
:101040006BE701246442E1E7301CFFF747F9F8E75A
:10105000154B9846181CFFF743F940461430FFF72C
:101060003FF940462830FFF73BF9124B9946181CD0
:10107000FFF736F9104E301CFFF732F90F48FFF733
:101080002FF90F48FFF72CF90E48FFF729F94A46C8
:101090000D4B1A600D4B1E60024E9BE7681100203D
:1010A00014110020A4100020D410002038110020BA
:1010B0006C1100203C11002050110020181100205C
:1010C000AC100020C0100020A0100020341100201F
:1010D000F8B54F464646F020C0B4FFF7D3F8051EDA
:1010E0006ED04820FFF7CEF8041E00D176E0A5218F
:1010F0000563F022281CFFF78BF807234922266B93
:101100000025EC369E432D33E25410339846424678
:101110000F3BE2544C220133E254271D0133E554C6
:10112000381CE562A563E563FFF7E6F8201C18307C
:10113000FFF7E2F80323A3614346002224616462BF
:101140002564301CE5543A49FFF74CF9394B2060CF
:101150001C60FFF77FF9384A384E1368013313607B
:101160003368002B32D0364D2B68002B04D1336806
:10117000DB6A002B00D13460324B9846324A136848
:1011800001331360314AE36A11688B421CD898001E
:10119000C01883004344181C391CFFF7B1F8FFF74F
:1011A00061F92B68002B00D0336800F003FC0128A4
:1011B00006D172B60022264B28601A60FFF722F98A
:1011C0000CBC90469946F8BD1360E0E734601368A4
:1011D000012B07D01B4B1A4D9846CFE7281CFFF771
:1011E0007DF8EDE7174B9846181CFFF779F8404655
:1011F0001430FFF775F840462830FFF771F8154BAB
:101200009946181CFFF76CF8134D281CFFF768F877
:101210001248FFF765F81248FFF762F81148FFF728
:101220005FF84A46104B1A60104B1D60044DA5E74D
:10123000351500002C110020681100201411002029
:10124000A4100020D4100020381100206C110020C0
:10125000301100203C1100205011002018110020F6
:10126000AC100020C0100020A0100020341100207D
:10127000024A1368013313607047C0461011002002
:10128000014B18687047C04630110020014B1868A8
:101290007047C04630110020024A1368C018106021
:1012A0007047C04630110020F8B55F4656464D469F
:1012B0004446F0B43D4B1B68002B46D13C4B1A68AA
:1012C00001321A601B689846002B51D0394B9B465F
:1012D0005B461B6898453CD300239946364B374EF6
:1012E0009A46374F33681B68002B29D03368DB6878
:1012F000DC686368984525D3251D281CFFF724F872
:10130000A36A002B03D0201C1830FFF71DF8E36AF6
:101310003A68934200D93B6098002A4AC01883007B
:10132000D018291CFEF7ECFF53461B68E26ADB6A03
:101330009A42D7D30123994633681B68002BD5D135
:1013400001235B425A46136005E01F4A13680133CC
:101350001360002399461D4B1B68002B01D001230D
:10136000994648463CBC90469946A246AB46F8BDD5
:10137000124B174A196810681860116015490A68FD
:1013800001320A601A681268002A06D1094B9B468E
:1013900001235A465B4213609AE71B68054ADB68E3
:1013A0009346DB685B68136092E7C046101100202B
:1013B000301100206000002014110020A010002037
:1013C0006C110020D4100020641100207011002046
:1013D000341100209C100020F0B557464E4645467B
:1013E000E0B4FFF737F82E4B1A68013A1A601B6811
:1013F000002B44D12B4B1B68002B40D02A4B2B4E8B
:101400009A462B4B2B4F99462B4B98461CE0F36882
:10141000DC68201C251D1830FEF796FF281CFEF7FF
:1014200093FFE36A3A68934200D93B609800C01882
:1014300083004B44181C291CFEF762FF43461B68BF
:10144000E26ADB6A9A4223D23368002BDFD11B4C5D
:101450002368002B0FD02368002B0CD00125FFF749
:1014600023FF002801D053461D602368013B236001
:101470002368002BF3D153461B68012B0CD00024AA
:10148000FEF7F0FF201C1CBC90469946A246F0BD1A
:10149000012352461360D7E7FEF7D0FF0124EFE7A0
:1014A0001011002068110020701100201811002078
:1014B000D41000206C1100201411002064110020B1
:1014C00070B5002802D1FEF7B9FF70BD134A144E63
:1014D0001368144D0133136034680419286804300C
:1014E000FEF732FF2B685C6033689C420FD30E4BD3
:1014F000186829680431FEF70FFF0C4B1A689442F4
:1015000000D21C60FFF768FF0028DED1DBE7084B44
:10151000186829680431FEF7FFFEF3E71011002078
:101520003011002014110020A010002060000020C5
:1015300034110020F8B55F46564644464D46334BBD
:10154000F0B49846324B334C9946334B334F9A465E
:10155000334B344E9B4607E023683D6801332360DC
:10156000FFF73AFF002D2CD13368002BF4D14B4606
:101570001B68012B3DD9FEF761FF53461B68DB6AF0
:10158000002BF1D14B461B68012BEDD85B46264A58
:101590001B6812689B1A012BE6D92368013323606C
:1015A00053461B68DB6A002B08D15B461E4A1B684A
:1015B0001068181A012801D9FEF7E4FFFFF70CFFA5
:1015C000D2E7FEF747FFFB68DD68281DFEF7BCFE8B
:1015D000434642461B68013B13603368013B33605E
:1015E000FEF740FF286BFEF779FE281CFEF776FE1B
:1015F000BAE753461B68DB6A002BB5D15B460A4A43
:101600001B6812689B1A012BAED9C6E7681100202F
:10161000D41000201011002014110020AC10002064
:1016200060000020A810002030110020154B1B681E
:10163000002B1FD1144A15481360154A136803E0A4
:101640001368013B136013689900CB189B00C358C3
:10165000002BF5D013689A00D3189B00C1184A6874
:1016600008335268C0184A60824207D0D268094BDA
:101670001A6070470122044B1A60FAE752684A6008
:10168000F4E7C0461011002070110020D410002093
:101690006C1100201411002038B50D1C154C216868
:1016A0001831FEF739FE20680430FEF74DFE6B1C42
:1016B0001AD0114B1A68AD1822681B6855609D42FC
:1016C0000BD30E4B186821680431FEF725FE0C4B36
:1016D0001A68954200D21D6038BD0A4B186821680F
:1016E0000431FEF719FEF7E7216807480431FEF7D9
:1016F00007FEF1E71411002030110020A010002097
:101700006000002034110020C010002038B50C1CEF
:10171000114D29681831FEF7F3FD28680430FEF7F3
:1017200013FE0E4B1A68A4182A681B6854609C426A
:101730000BD30B4B186829680431FEF7EDFD094BFC
:101740001A68944200D21C6038BD074B186829689B
:101750000431FEF7E1FDF7E71411002030110020FD
:10176000A0100020600000203411002038B5C368AC
:10177000DC68251C1835281CFEF7E6FD1B4B1B6892
:10178000002B24D1251D281CFEF7DEFD184AE36A34
:1017900011688B4227D89800C01883001548291C6F
:1017A000C018FEF7ADFD144BE26A1B680020DB6A2F
:1017B0009A4203D90122114B01301A60104B1A686A
:1017C0001268002A08D10F4B013A1A6038BD0E4842
:1017D000291CFEF795FDE6E71B68DB68DB685A68A5
:1017E000084B1A60F2E71360D5E7C04610110020DD
:1017F0006C110020D4100020141100207011002062
:10180000A01000206000002018110020034B1B686E
:101810000360034B1B6843607047C0469C10002068
:1018200030110020F8B50E1C041CFEF713FE1448FE
:10183000336801685A1C20D0124A25689446126801
:10184000954214D06268012591420CD28F1A01256D
:10185000BB4208D95B1A9B183360634600251B689E
:10186000236003686360FEF7FDFD281CF8BD626815
:1018700001258F1ABB42EDD8F5E70025F3E7C046F6
:10188000301100209C1000200122014B1A6070478B
:1018900070110020054B00201B68002B04D1044B65
:1018A000186843425841C0B27047C0461811002022
:1018B00070110020054B01201B68002B04D0044B45
:1018C00018684342584140007047C046A4100020A9
:1018D00010110020F8B5002818D0174CC36A2268F0
:1018E000D26A934212D28269002A04DB2268D16A4A
:1018F0000322521A82619A00D318104D9B0042694C
:10190000EB189A4203D02368DB6AC362F8BD071C58
:10191000061D301CFEF718FD2368094ADB6A1168B2
:10192000FB628B4200D913609800C0188300E8184E
:10193000311CFEF7E5FCE9E714110020D41000206B
:101940006C11002038B5002808D0C36BC26A816BC7
:10195000013BC3638A4201D0002B01D0002038BD77
:10196000041C051D281CFEF7EFFC0322A36BD21AF2
:10197000A261084AE36211688B4200D913609800A3
:10198000C01883000448291CC018FEF7B9FC0120C8
:10199000E5E7C0466C110020D4100020044B1A6803
:1019A000002A03D01968CA6B0132CA6318687047ED
:1019B0001411002070B584B0FEF74CFD184C23685C
:1019C000002B14D0FEF74EFD2368002B0DD0022310
:1019D0000093144B1448019300231449029303937A
:1019E0005022FFF78DFA04B070BD0020FBE7104EC7
:1019F000301CFEF775FC0F4D281CFEF771FC0E4BDA
:101A000020201E600D4B102100221D60FEF7FAFD04
:101A100020600028D6D00A49FFF7F8F9D2E7C0467F
:101A2000A4110020AC110020451B00004022000042
:101A3000781100208C11002074110020A8110020C2
:101A400038220000F8B55F4656464D464446F0B48D
:101A5000002922D0061C28209846171C0D1CFEF7D2
:101A600011FC041E19D0FEF7F5FC1B4B99461B68B0
:101A7000002B14D0FEF7F6FC434623620A9B266037
:101A8000A561E7616362201DFEF736FC201C3CBCAB
:101A900090469946A246AB46F8BD0024F6E70F4BA8
:101AA0009B46181CFEF71CFC0D4B181C9A46FEF7B3
:101AB00017FC5A460B4B20201A6052460A4B102145
:101AC0001A600022FEF79EFD4B4618600028D1D018
:101AD0000649FFF79BF9CDE7A411002078110020FB
:101AE0008C11002074110020A81100203822000061
:101AF00030B5134C85B02568002D1ED000910192A1
:101B0000029005290ADCFFF7D5FE02280ED02068D6
:101B1000694600220023FEF7ABFD05E01A1C281CD5
:101B200069460023FEF75AFF05B030BD20686946BC
:101B3000089A0023FEF79CFDF6E70020F4E7C04674
:101B4000A4110020F0B55F4656464D464446B34BBF
:101B5000F0B49A46B24BB34F9B46B34D8FB03B683F
:101B60001A68002A00D191E0DB681C68FFF780FB4F
:101B7000FFF786FB53461B68039083424FD85246BB
:101B8000031C1060844200D8B0E0E11A2868FFF717
:101B90004FF9FFF721FC002800D18EE0286806A944
:101BA00000220023FEF7A0FF0028D8D0069B039355
:101BB000002B5DDB089C6369002B02D0201DFEF723
:101BC000C3FBFFF75DFB53461B68021E03909A425E
:101BD00043D353461A60069B092BDFD801229A4053
:101BE000131C84229200134200D0C4E04A3AFF3A08
:101BF0001A4200D0D0E09B06D0D5201CFEF76EFB29
:101C0000CCE7DB68DC681A68261D301C9046FEF7BE
:101C10009BFB636A201C9847E369012B50D03B680B
:101C20001A68002AEDD15A4612683A605A46136083
:101C30005346039A1A60FFF7CFFBAFE7DB68DE6815
:101C40001A68331D181C90469946FEF77DFB736A8F
:101C5000301C9847F369012B3DD03B681A68002A75
:101C6000ECD15A4612683A605A461360039AB0E7BC
:101C7000089B0393099B03980493079B049905937E
:101C80009847069B0393002B88DB93E7FFF7F0FA56
:101C9000FFF7F6FA53461B68021C03908342BED836
:101CA000534600241A60131C2868E11AFFF7C0F895
:101CB000FFF792FB002800D070E7FEF7BFFB6DE74F
:101CC000A3694344434526D9636024613868311CC5
:101CD000FEF722FBA3E7B369434443452CD9736065
:101CE000366138684946FEF717FBB6E7FFF774FB25
:101CF0003B68DB68DB68984604234344181C99461C
:101D0000FEF722FB4346DB69012B26D043464046C3
:101D10005B6A984742E72B68002B80D000230A9328
:101D200043460C940B93FFF7C5FD28680AA90022CF
:101D30000023FEF79DFC72E72B68002B8DD000235B
:101D40000A9343460C960B93FFF7B4FD28680AA943
:101D500000220023FEF78CFC7FE7434641469B6947
:101D600009611A194A6003998A4234D93868494688
:101D7000FEF7D2FACAE7079B0399A361CA1862600B
:101D800024618A423FD8002B00D107E75B46211D22
:101D90001868FEF7C1FA01E7079BA1690398CA1802
:101DA0006260246182422AD8C31A9942EED8636ADB
:101DB000201C9847E369012B00D0EFE6A169079B3F
:101DC0008C46039363441A1C0023201C00930021BB
:101DD000FFF78EFEE2E60E1BB34219D82B68002BEC
:101DE00094D000230A9343460B940C93FFF762FDB3
:101DF00028680AA900220023FEF73AFC86E78342FE
:101E000001D99342D3D9211D3868FEF785FAC5E67A
:101E10005B4649461868FEF77FFA77E7A011002075
:101E2000A811002074110020A411002038B50D4C19
:101E30008520237A002B00D038BD636023602361A6
:101E4000E360AA228023FF210125DB05D2009950FF
:101E5000383A00209D50FC3900F072F825720020BD
:101E6000EAE7C046B011002038B5051C0020FEF797
:101E7000F7F9124CA37A002B0BD0002D02D06B681F
:101E800001209847E36801330020E360FEF7F0F992
:101E900038BD002D02D0236925612B60E368002B3B
:101EA000F1D1074A80211360C12202209200C905A6
:101EB00088500121034A1160E5E7C046B0110020B7
:101EC000040100400800004010B51A4B1A68002AAF
:101ED00014D0002280211A60C2220123164C9200E5
:101EE000C9058B5063726368002B07D01A68002005
:101EF0005B68626098476368002BF7D10F4B1A68E4
:101F0000002A15D000221A60C223802202219B00E1
:101F1000D205D1500123084CA3722369002B07D0AE
:101F20001A6801205B68226198472369002BF7D16A
:101F300010BDC04600010040B01100200401004067
:101F4000F0B5002820DBFF271B4B03229C463B1CDF
:101F50008408C026C0B20240D2009340A40064446A
:101F6000B600A5599D438B013B409340191C294362
:101F7000A1511F2318401E3B8340C022181C0E4B4A
:101F8000520098501860F0BDFF260C4A0324944676
:101F9000321C0F23C0B20440E400A2400340083BBF
:101FA0009B089B006344DD6995438A013240A2404F
:101FB000111C2943D961DCE700E100E000ED00E0FD
:101FC000A02210B5064BD205D1588023DB031C1C80
:101FD000A1208C430B400349C0001450535010BD46
:101FE000040500000C05000070B5A0248025084EF3
:101FF000E405AD03291CA122A359D2009943A150A5
:10200000044A2B40A350C820FFF75AFAF2E7C04613
:10201000040500000C05000030B587B0FFF706FF8F
:10202000002841D1A02303222149DB055A50043165
:102030005A50204900245A5004315A50A12280217C
:10204000D200890399508021C90399508021090445
:10205000995080214904995002238222009305ABB4
:102060000193154952000023029403941348FEF78C
:1020700047FFFA21124B89000122009311480023E7
:10208000FFF7E0FC051CFFF7FBF80121021C002311
:102090000094281CFFF72CFD04230B4A11690B4305
:1020A0001361FFF715F8FEE7FEF7BCF8BAE7C04684
:1020B000540700005C07000048220000E91F0000F0
:1020C000C11F00004C22000000ED00E0304B1B78E7
:1020D000012B00D070472F4B1B681B07FAD1F02251
:1020E0002D4B1B68134027D12C4B1B68134229D062
:1020F000284B1B681B07EDD1F022274B1B681340B0
:10210000402B32D0244B1A68F0231340A02B01D06F
:10211000D02BDFD1214B1A68F0231A42DAD1204AA2
:102120001368012B04D01F4B13601368012BFCD1E3
:10213000C0221D4B1A60CDE7102B0FD1174B1B6827
:102140001342D9D1194A1A4B1A608022194B120234
:102150001A600F4B1B78012BCAD0BBE7302BCBD1B9
:102160000E4B1B681342C7D1ECE70C4B1B681342A4
:10217000C8D1C12380220121DB00D205D150044BFC
:102180001B78012BA6D1034B1B681B07BAD0A1E714
:10219000E00F00F0E40F00F0E80F00F0EC0F00F0AB
:1021A00000EC06407593000014EC0640DFFF07C00A
:1021B00004050040186C004003210A4802680A43E5
:1021C0000260094802680A4302600849084A094B4C
:1021D0009B1A03DD043BC858D050FBDCFFF776FFA9
:1021E000FDF79EFF24050040540500405C220000DE
:1021F0000000002070000020FEE7FEE7FEE7FEE79B
:10220000FEE7FEE7002310B5934203D0CC5CC45434
:102210000133F9E710BD0000F8B5C046F8BC08BCB2
:102220009E467047F8B5C046F8BC08BC9E4670474D
:102230004300000000000020546D725100000000B7
:10224000546D7220537663004C3000004C31000016
:04225000000000008A
:08225400CCDEFF7F0100000059
:10225C000000000000000000000000000000000072
:10226C000000000000000000000000000000000062
:10227C003022000000000000000000000000000000
:10228C000000000000000000000000000000000042
:10229C000000000000000000000000000000000032
:1022AC000000000000000000000000000000000022
:1022BC00FFFFFFFFE9000000C1000000000000006C
:04000003000021B91F
:00000001FF
