:100000000080002069310000A9310000AB31000000
:1000100000000000000000000000000000000000E0
:10002000000000000000000000000000AD310000F2
:100030000000000000000000AF310000B1310000FE
:10004000B9130000B3310000F9250000551F00006E
:10005000B331000000000000B1140000B331000013
:10006000B3310000B3310000B331000001180000CB
:10007000B3310000B3310000B3310000B3310000F0
:10008000B33100004D030000B3310000B331000074
:1000900029040000B3310000B3310000B331000087
:1000A000B3310000B3310000000000000000000088
:1000B0000000000000000000000000000000000040
:1000C00010B5064C2378002B07D1054B002B02D02E
:1000D000044800E000BF0123237010BDC0000020D1
:1000E00000000000B87E000008B5084B002B03D0CC
:1000F0000748084900E000BF07480368002B00D10B
:1001000008BD064B002BFBD09847F9E70000000024
:10011000B87E0000C4000020BC00002000000000E9
:10012000164B002B00D1144B9D46402292029A1A86
:10013000924600218B460F461348144A121A00F0CB
:1001400067F80F4B002B00D098470E4B002B00D0C8
:1001500098470020002104000D000D48002802D01F
:100160000C4800E000BF00F02DF82000290002F04C
:10017000CBFE00F011F8C04600000800008000200F
:100180000000000000000000C00000200805002062
:100190000000000000000000084B10B5041C002BFC
:1001A00002D0002100E000BF054B1868836A002BD5
:1001B00000D09847201C00F033F8C0460000000033
:1001C0006C7900000E4B70B500251E1C0D4CE41A16
:1001D000A410A54204D0AB00F35898470135F8E7C6
:1001E00007F0B6FB084B00251E1C084CE41AA410AF
:1001F000A54204D0AB00F35898470135F8E770BD2D
:10020000B4000020B4000020B4000020B80000209A
:10021000031C8218934202D019700133FAE7704729
:10022000FEE7C046002300B585B001AA906000211A
:1002300003481380536000F005F805B000BDC046C8
:1002400001400000BFF34F8F034A044BDA60BFF355
:100250004F8FC046FDE7C0460400FA0500ED00E000
:1002600010B500290DD00923002A01D1181C10BD9A
:10027000541E2240FAD1826001608480C260002353
:10028000F4E70E23F2E7C046031C10B59C88806893
:10029000DA68121A0420944200D210BDDA680020F5
:1002A00014401A681155DA680132DA60F5E7C04681
:1002B00010B58468C268031C0520944209D0986870
:1002C0009A8802401868825C00200A709A6801329D
:1002D0009A6010BD80218023184A8902D150802263
:1002E000D221174B520289005A5040395A500122EC
:1002F0002F205A600138C046C046C046C046C0469E
:10030000C046C046C046C046C046C046C046F1D101
:100310009A6000230B4A2F2013600138C046C04664
:10032000C046C046C046C046C046C046C046C0469D
:10033000C046C046F1D1044A1370704700E100E0A6
:1003400000100140DC000020FC000020A021F0B5DE
:10035000002347462B4A490080B453500431535080
:1003600004315350043153504C39535004315350DD
:10037000254B1B68002B35D02449002652582449B0
:10038000244F0C68141B00222402240A904602E029
:10039000002D18D02B1C1A68A24214D8A41AB61823
:1003A0001A7CDD69002AF3D0424699691A745A69A9
:1003B0003B68002B19D0101C98470028E8D0FFF7A5
:1003C00031FF002DE6D1144B14491A780B789A426C
:1003D0000ED0134A9B009E5080218023114A49036E
:1003E0005B00D15004BC9046F0BD081C9047CFE79D
:1003F0000132D3B2022B01D00B70EAE700230B705D
:10040000E7E7C04600100140E000002004050000BE
:10041000DC000020E4000020F0000020F1000020BB
:10042000F400002000E100E0F0B55F4656464D467E
:100430004446F0B4B44BB54A1B68B54989B0019342
:1004400009781378994200D1B1E10133DBB2022B74
:1004500000D100231370AF4A9B009B58AA4A9946CB
:10046000019B4B441B021B0A136001230493AA4BFC
:1004700000241B689B46A94BD8461B781A1C029384
:10048000A74B944607931B6803939F4B1B680693E7
:10049000A44B1B7805935B466646013EF2B2944638
:1004A000FF2A4FD06246D000039A9246504401780A
:1004B0004578A942F0D04A00521887780131466841
:1004C000C9B27F1AB2467E1EB741D2007F42524463
:1004D00039401778022F0AD0032FEAD1002BE8D039
:1004E0001C74DB69002BFBD145789846E1E7566820
:1004F000002B25D09E421AD01F1C00E0171CFA6961
:10050000002AD6D09642F9D1321C3D1CBE4200D101
:10051000EBE01768D269EA61002A06D013689A46B0
:100520005744176045784346C3E74578C1E7DE691D
:100530001A1C002E00D1DDE0B046331C151CE8E784
:100540000023B6E76946774A097D181C11706E4A88
:1005500006990393116041466F4A1160049A002A7C
:1005600000D028E15B461B1A5A1E93410025DBB2DE
:100570000493079B00271B68039E0693624B1B682E
:100580009C46654B1B689A46664B1B780593664BE9
:10059000019301239846029B013BDBB20293FF2BA0
:1005A00000D18FE0069ADB0093469B44002D27D0B4
:1005B0006968AB68281CED696246019C8A1A1202C0
:1005C000120AA24250D8D31842460360476087609F
:1005D0000274C761002E56D03168341C994204D38E
:1005E0005FE01168994263D2141CE2695B1A002A29
:1005F000F7D10360331CC261E0611E1C002DD7D10E
:100600005B465A461B7852789A42C4D0594649688C
:100610005A0089465946D2180133DBB20B708978EB
:10062000D2004A4499424AD011785068331C0129BB
:10063000E3D1037C99464946331C0029DDD19168FA
:100640004160D36883601469C46052698261059A0D
:10065000002AB1D04A46002142606246019C8A1AB3
:100660001202120AA242AED96246511A0902090ABE
:1006700099420CD242465B1A03604760876002745D
:10068000C761002EA8D1031C82461E1CB6E7434654
:100690000760476087600374C761002EF3D00023B2
:1006A0003168CB1A3360031CC66182461E1CA5E765
:1006B000C91A11600360C261331CE0619DE75B46AB
:1006C0001D70B1E75246144B1A60039BB3422FD101
:1006D000049B002B2CD10023124A137009B03CBCA0
:1006E00090469946A246AB46F0BDDE693A1C002E04
:1006F00000D021E701250D4B9D60002306960136B1
:100700009846151C059604E7DC000020F000002048
:10071000F1000020F4000020E0000020E8000020AC
:10072000EC000020F2000020FEFF7F0000100140DE
:10073000002E63D0484B49493568CC58484B494E48
:100740001B683078E21A1202120A0332904600281F
:1007500061D04246AA4200D22A1CA820D218120216
:100760003E49130AC0003C4D0B504A591B1B121B3B
:100770001202120A1B0203321B0A9A42ABD94B59CE
:100780000B502F200138C046C046C046C046C04668
:10079000C046C046C046C046C046C046C046F1D16D
:1007A00080218023304A89025B00D15093E70023E7
:1007B000994604935BE600250021002448464646FE
:1007C00013E01A6882421CD8DE68801A89181C60FF
:1007D000DF69002E07D0DD611D1C019A9E608A181A
:1007E0001202120A5A603B1C3E1C002BE9D11F4B1F
:1007F0001E600023039301330493BAE6FFF76AFDFA
:1008000069E78146194903930E604946521A1A60F6
:1008100001230493ADE68020D1274002BF00C851D8
:10082000403FC851C02280270F48BF025200875066
:10083000076001272F200F600138C046C046C04620
:10084000C046C046C046C046C046C046C046C04678
:10085000C046F1D137707CE704050000001001406C
:10086000DC000020FC00002000E100E0E0000020AF
:10087000F8B54F464646C0B40326351C80460F1CCB
:10088000141C994615400720002D03D00CBC90463F
:100890009946F8BD002A44D0FFF71CFD4A46224B7A
:1008A00080201A60221C214B18321E70204B62607F
:1008B0001C607B00DB19DB00D218E260D318C02279
:1008C000636125706570A77025726572A7722574C3
:1008D0006574A774C524FF21164B40031D60164B99
:1008E00052001D70154BA4001D70154B98501A59DD
:1008F0008A433F390A431A51A122186040461149E0
:10090000D2008850C42080001C580F4A2240C024C6
:10091000240222431A500D4B0020CA580C4B1A6077
:10092000B4E7034B1A60B1E7E4000020E8000020C0
:10093000EC000020E0000020F0000020F10000208A
:1009400000E100E000100140FF00FFFF040500008F
:10095000DC00002010B50B4B1B68002B0BD0002ACD
:1009600007D0002805D0036808201C7C002C04D088
:1009700010BD0720FCE70820FAE759745A610020EF
:10098000F6E7C046EC000020F0B5474680B4374B90
:100990001C68002C08D0002806D00723042905D89D
:1009A000181C04BC9046F0BD0823F9E74369002BEE
:1009B000FAD00025437CA846012B2FD0EFF3058306
:1009C000DB05DB0D1025002B2CD164196378A5788D
:1009D0005E1CF6B2AD1B6F1EBD416D422E402578E8
:1009E000B5421DD05D00EB186568DB00ED180423EF
:1009F000002DD5D0033B2B7068601D4B1D48C3589C
:100A0000E960AB60434680212B6180236A611A4A0A
:100A10005B0049036670D1500023C1E78846CDE7EB
:100A20000423BDE7103BDEB275B2002D13DBAD0829
:100A3000114EC035AD00AD5903263340DB00DD401B
:100A40002B069B0FDBB20025012BBED00835032BF4
:100A5000BBD00835B9E70F23084D3340AC46083BFF
:100A60009B089B0063445D680323E6E7EC000020DD
:100A7000040500000010014000E100E018ED00E076
:100A800030B52E4A031C12680820002A2ED0002BF5
:100A90002CD05969002929D000211974EFF3058160
:100AA000C905C90D1025002923D155196A78A978DF
:100AB000541CE4B2091B481E814149420C4029786C
:100AC000A14214D051008A186968D2008C46624451
:100AD0000420002A0AD00221536011708023802153
:100AE0000020174A49035B006C70D15030BD0420D0
:100AF000FCE71039CCB260B2002813DB8008104C40
:100B0000C0308000005903242140C900C8400106BC
:100B1000890FC9B200250129C7D008350329C4D0DF
:100B20000835C2E70F210748214084460839890863
:100B30008900614448680321E6E7C046EC000020D4
:100B400000E100E018ED00E00023C0B288724B72B3
:100B50007047C046F0B544465F4656464D46F0B431
:100B6000037885B00C1C002B00D096E00B7ACA6885
:100B70000133127BDBB200209A4200D995E0E36892
:100B80001B68002B04D0E268E36851681B68984733
:100B9000032301AD01269A4613E05A7932402A70A8
:100BA0000022AA60EA709A7932405201201C291C66
:100BB000103001F0F9F8002866D0E3681B68002BBC
:100BC0006DD1002000F090FA6379A279DBB29342F4
:100BD00052D021689A008C46013320796244DBB2FE
:100BE00012680021984200D3191C131C6171E36044
:100BF000E368002B45D0002000F07EFA002323722A
:100C0000217AE368C9B29B68C8001B185A79520858
:100C10006A701A686A601A79AA709A791642BCD00A
:100C20005A799346321C5F463A4034D101318846A6
:100C3000E768397B8845B2DA0827BC46E168844416
:100C40008968614448795946400849088142A6D1DB
:100C50005246E368986860440368AB600379EB70C0
:100C600043793340D31A2B70237A8279013332408F
:100C7000DBB25201237299E70023E360E368002BA3
:100C8000B9D1002000F038FA05B03CBC9046994636
:100C9000A246AB46F0BD012281E703206FE7E26880
:100CA000E36851681B6898478BE70B72087ACB683A
:100CB000C0B29B68C6009B195A7901A952084A70B4
:100CC0001A684A601A798A7001229D792A4229D0CD
:100CD0005D79A846151C47463D4035D1E76801308F
:100CE0003F7BB84220DA4746E068083680687F08D4
:100CF000801940794008874216D1E3689B689E19A5
:100D000033688B603379CB7073791340181C0323DD
:100D10001B1A0B70B3791A40237A52010133DBB2EC
:100D2000237209E05D79154000220D708A60CA7057
:100D30009B7901321A405201201C103001F034F826
:100D4000002800D01BE79FE70125EDE7F0B5061C62
:100D50004746041C103680B49846171C301C0A4ABB
:100D6000231C00F01FFF051E09D1301C01F00AF8FA
:100D7000434665712360A57127716572E560281C83
:100D800004BC9046F0BDC046550B0000F0B545468A
:100D900057464E46041CE0B4002084B00D1C00F001
:100DA000A3F9A3792279DBB29A4200D1A6E0627955
:100DB000013A934200D1A5E021689A008C46624432
:100DC000156001332179DBB20022994200D393E010
:100DD000A271002000F090F9002000F085F9E3688E
:100DE000002B00D082E0002701AD012616E05A79E1
:100DF0003240201C2A70AF60EF709A791030324078
:100E00005201291C00F0D0FF002863D0E3681B6862
:100E1000002B00D07BE0002000F066F96379A27916
:100E2000DBB293425DD021689A008C460133207971
:100E30006244DBB212680021984200D3191C131CD3
:100E40006171E360E368002B50D0002000F054F99A
:100E50002772217AE368C9B2CA0092469B6853445C
:100E60005A7952086A701A686A601A79AA709A796F
:100E70001642BCD05A79944632403BD10131884663
:100E8000E068017B8845B4DA08208046E168D044F8
:100E90008968414448796146400849088142A8D19F
:100EA000E36803329868291C40440368AB60037907
:100EB000EB7043793340D31A2B708279201C237A4C
:100EC00032400133DBB252012372103000F06CFF6C
:100ED00000289BD1002004B01CBC90469946A24635
:100EE000F0BD0023E360E368002BAED1002000F0EA
:100EF00003F9EFE701227CE71A1C69E76279002A0F
:100F000000D054E7002000F0F7F81120E3E7E26892
:100F1000E36851681B689847002000F0E5F87DE71A
:100F2000F0B5444656464D465F46F0B4041C89B0C1
:100F3000002098460E1C151C00F0D6F8637A002B92
:100F400000D0A6E001336372002000F0D5F8654BB5
:100F5000002004936B4605941D77069600F0C4F8B4
:100F6000A3792279DBB29A4200D18EE06279013A0C
:100F7000934200D18DE021689A008C4604A9624416
:100F8000116001332179DBB20022994200D31A1C8F
:100F9000A271002000F0B0F8002000F0A5F8E3688E
:100FA000002B00D091E0002701AD012617E0597910
:100FB00031402970AF60EF709A7932405201201CA5
:100FC000291C103000F0F0FE002800D170E0E3682A
:100FD0001B68002B00D07CE0002000F085F86379CE
:100FE000A279DBB293426CD021689A008C4601331F
:100FF00020796244DBB212680021984200D3191CA8
:10100000131C6171E360E368002B5ED0002000F0E8
:1010100073F82772227AE368D2B2D1008B469B68BC
:101020005B44597949086970196869601979A97030
:1010300099790E42BBD059798C46314043D1013267
:101040009146E068027B9145B3DA08208146E26868
:10105000D94492684A445079624640085208824214
:10106000A7D10322E368986848440368AB6003791A
:10107000EB7043793340D31A2B70237A8279013392
:101080003240DBB25201237299E76279002A00D024
:101090006CE7002000F030F8112009B03CBC90460D
:1010A0009946A246AB46F0BD637A002B06D0C047F6
:1010B0004346002BF8D1637A002BFCD1A07AC0B252
:1010C000EBE700239EE7012173E7002000F014F80E
:1010D000EEE7E268E36851681B689847002000F07B
:1010E00003F87CE7490B000072B6024A136801332B
:1010F0001360704700010020034A1368013B13602E
:10110000002B00D162B670470001002070B5161C9C
:101110000C1C8D18002A05DD2078013400F0DEF863
:10112000AC42F9D1301C70BD10B50C1C201C00F075
:10113000BBF80528FAD0012010BDC04630B50478B0
:1011400085B0012C19D0022C34D0002C01D005B070
:1011500030BD274C274D201C291CFFF7A9F800287B
:1011600023D0A268E3689A42F1D1032302AA137044
:10117000214B101C1B689847E9E743681F4D1978FD
:10118000281CFFF781F8002822D1AA68EB689B1A77
:10119000012B25D0A968AA88EB685B1A9A42D6D39E
:1011A0000121174801F07AF9D1E7281C012101F04B
:1011B00013F9D6E702AB1C70C368012110480193F4
:1011C000039301F06BF90C4B02A81B689847BEE72C
:1011D00002AB1C70084B03901B6802A89847D9E724
:1011E00002AB1870044B02A81B689847D2E7C046B0
:1011F000100100200401002008010020200100202F
:101200000C010020F0B51E1C214B051C89B00C1CE4
:101210001A600720002906D08A881E480968FFF74F
:101220001FF8002801D009B0F0BDA168A2891A48B2
:10123000FFF716F80028F6D16A46184B684692CB9D
:1012400092C292CB92C212CB12C2AB6806932B7998
:1012500006775A1E934103756B790E22591E8B41F6
:101260005B421A404275EB780D490293AB780393C9
:101270002B7801936B78009301F01EF80028D2D1EF
:1012800001F0A4F90121074801F008F9CBE7C046B5
:1012900008010020200100201001002070790000CA
:1012A0003D1100000C01002038B50A4C051CA16856
:1012B000A288E3685B1A9A4204D0201C291CFEF71E
:1012C000F7FF38BD0448012101F0E8F80028F4D008
:1012D0000520F6E7200100200C01002070B50D4D1F
:1012E000011C281CFEF7D0FF041E01D0201C70BD7D
:1012F00001F0CCF80028F9D1074E281C311CFEF76C
:10130000D7FF0028F2D1301C012101F065F8041C40
:10131000ECE7C046100100200401002038B50D4C58
:101320008520237A002B00D038BD636023602361C1
:10133000E360AA228023FF210125DB05D20099501A
:10134000383A00209D50FC3900F072F825720020D8
:10135000EAE7C0463001002038B5051C0020FFF741
:10136000C3FE124CA37A002B0BD0002D02D06B6869
:1013700001209847E36801330020E360FFF7BCFEDB
:1013800038BD002D02D0236925612B60E368002B56
:10139000F1D1074A80211360C12202209200C905C1
:1013A00088500121034A1160E5E7C0463001002062
:1013B000040100400800004010B51A4B1A68002ACA
:1013C00014D0002280211A60C2220123164C920000
:1013D000C9058B5063726368002B07D01A68002020
:1013E0005B68626098476368002BF7D10F4B1A68FF
:1013F000002A15D000221A60C223802202219B00FD
:10140000D205D1500123084CA3722369002B07D0C9
:101410001A6801205B68226198472369002BF7D185
:1014200010BDC04600010040300100200401004012
:10143000F0B5002820DBFF271B4B03229C463B1CFA
:101440008408C026C0B20240D2009340A400644485
:10145000B600A5599D438B013B409340191C29437D
:10146000A1511F2318401E3B8340C022181C0E4B65
:10147000520098501860F0BDFF260C4A0324944691
:10148000321C0F23C0B20440E400A2400340083BDA
:101490009B089B006344DD6995438A013240A2406A
:1014A000111C2943D961DCE700E100E000ED00E018
:1014B000F0B544465F4656464D46F0B49C4A87B068
:1014C00013680024012B00D1AEE09A4B1A68012A60
:1014D00000D1B7E0984B1A68012A00D1C2E0974BBF
:1014E0001A68012A00D1CDE00022954B02921A68B9
:1014F000012A00D1D8E023070BD0E30700D5DFE0B5
:10150000A30700D5EBE0630700D5F6E0230700D57D
:1015100002E1002C06DB07B03CBC90469946A2468F
:10152000AB46F0BD002301270493C0339946012642
:10153000844D7F4200230393E023DB000024984680
:10154000231C4033E95C4BB201332CD0C9B24B466B
:10155000081C98433B1CC3401E4224D08B090193B6
:101560002B1820331B785BB29B00EB589C46002B5A
:1015700035D0331C83409A46019B032B35D0A023E2
:10158000DB059B46434682005A44D3580592C0224D
:10159000920213401B0C191C53469346029A1A429E
:1015A00012D1032926D00134042CC9D1039B002B6E
:1015B000B1D0A223A022DB00D205D358029A9A42CE
:1015C000A9D0049F0293B5E70229ECD1019B032B1C
:1015D00016D06346002BE6D00199E047E3E7019B74
:1015E000032BE0D1331C83409A465246049B13439D
:1015F0000493C4E7019B032BEBD180239B029B4602
:1016000043460599CB589A4652464F4B13404246A3
:101610008B508B585A461A43131C42468B50039BDF
:101620000133DBB20393D4E7C12148488900415814
:101630000B4200D149E73F4B14601A680134012A7C
:1016400000D047E7C12241499200895802220A424C
:1016500000D13FE700211960374B14431A68012A73
:1016600000D03CE7C12239499200895804220A423D
:1016700000D134E700211960304B14431A68012A65
:1016800000D031E7C12231499200895808220A422C
:1016900000D129E70021144300221960284B02924F
:1016A0001A68012A00D026E700221A6080231B0650
:1016B0001C43A022A223D205DB00D35802931AE7D1
:1016C000A223224ADB00D058D1581E4DC004890302
:1016D0002B68C00E890F9847A30700D413E71C4B53
:1016E0001A4A184DD058D158C00489036B68C00EEF
:1016F000890F9847630700D408E7A323134ADB0048
:10170000D058D1580F4DC0048903AB68C00E890F63
:101710009847230700D4FCE60C4A0E4B094DD058DD
:10172000D158C0048903C00E890FEB689847F0E6D2
:101730000061004004610040086100400C6100400D
:101740007C61004044010020FFFFFCFF006000407E
:10175000140500001C05000070B5051C0C1C002AB7
:101760000DD043791449980042505A00002C1ED0E5
:10177000124ED3189B5D0820002B02D070BD0720AD
:10178000FCE70420A1782856FFF752FEA123228807
:101790002968DB00CA506B7921795A00D318F218F6
:1017A0005170E1780020917001229A55E6E7D41833
:1017B000034964000C19DBE78C0100209001002034
:1017C000907900000122022103681A6043795A00CF
:1017D000D318014A995470479001002080230022B9
:1017E00010B504685B00E250D1220468FF3B920010
:1017F000A350002902D00168403A8B5010BDC0466A
:10180000C12208B5414B92009958802252021142E0
:1018100003D03F49086800284DD1C1223B4B9200BC
:10182000995880229202114203D03A490868002850
:101830004DD1C122354B920099588022D2021142DB
:1018400003D03549086800284DD1C1222F4B9200A2
:10185000995880221203114203D0304908680028A9
:101860001DD1C122294B92009A58D20704D580225B
:1018700052009958002942D1C122244B92009A5813
:10188000920704D5822252009958002900D108BD40
:1018900000219950224B05201B689847F7E7D2207A
:1018A00080001A5040381A5000230B601C4B032054
:1018B0001B689847D5E7D22080001A5040381A504C
:1018C00000230B60164B00201B689847A5E7D22029
:1018D00080001A5040381A5000230B60104B012032
:1018E0001B689847A5E7D22080001A5040381A504C
:1018F00000230B600A4B02201B689847A5E70021D4
:101900009950074B04201B689847B5E700B000408A
:1019100040B1004044B1004048B100404CB10040EB
:101920008C010020F0B54D4644465F465646F0B463
:1019300009AC25780AAC2478A4460C78002C17D181
:101940001678B046922676008759B346002F20D0ED
:10195000331C243BFF3B845143610B70A8450FD0DF
:101960000124201C3CBC90469946A246AB46F0BDE3
:101970009222002352008350083A8350143A835035
:1019800082235B00C258002AEAD000220024C25001
:10199000E7E78E267600B1468659B246002E0BD078
:1019A0004E4687515E468659002E23D05B46C7506F
:1019B000012343610B70D1E7842464000759002F91
:1019C000CCD0564606515C460459002C22D11178E1
:1019D0008D42C3D9A324E40004595C541378013325
:1019E000DBB213706A1E93421DD09D42B6D0012314
:1019F0000362B3E711788D4205D86346002B0FD000
:101A00000123C361ADE7595C094BC1501378013321
:101A10001370A3E701235A46865043610B709DE77C
:101A2000012343619AE7802302229B00C250DEE734
:101A30001C050000F0B544465F4656464D46F0B4DE
:101A4000822483B00192002264000A5120340A519A
:101A5000083C0A51143C0A51E23C0255033C025531
:101A6000012B16D08022012492008C5001220A62A0
:101A70000A600268002A16D0484B83608268002002
:101A80007E33CA5003B03CBC90469946A246AB4652
:101A9000F0BD8022213C92008C5001220A620A6033
:101AA0000268002AE8D11D32FF329046143A91466E
:101AB000043A92259246DE3A2327002693466D008B
:101AC0000093C25D002A1DD15C46045DA4464C59BA
:101AD000002C2AD142468A58002A2ED042468C50E9
:101AE0004A59002A4CD15A46009B825C93424CD9F9
:101AF000019CA45C2A4A8C505A465C46825C0132A6
:101B0000025516E042464E518E504A468E5052467D
:101B10008A58002AD5D0822300225B00CA50E13BBC
:101B2000C35C002B2AD00320ACE74A5101224A6152
:101B3000C255009B6345C4D1E9E74C460C59002CC3
:101B4000F7D04C460A514C59002CEED15A46009B16
:101B5000825C9342EDD9A324E4000C59019B9C5470
:101B60005B46C25C0132D2B2C254009B5C1EA242F0
:101B70000ED09342DDD001220A62DAE7002081E72D
:101B800001224C514A61C255D3E701224A61D0E794
:101B90008022022492008C50EDE7C04686020000AD
:101BA0001C050000F8B544465F464D465646F0B465
:101BB00004798446A0006D4F80460019C000381893
:101BC000203085780820002D05D03CBC90469946F1
:101BD000A246AB46F8BD002900D1C3E0404600193B
:101BE000C0003A503A18536000239360203253717A
:101BF0001371A0230A685E48C132FF32DB059200F0
:101C0000D0504A68C132FF329200D0500120051CEA
:101C10000A689540A122D2009D504D68A840985076
:101C20000868544DC130FF308000C5504868C1304D
:101C3000FF308000C55004200138C046C046C04671
:101C4000C046C046C046C046C046C046C046C04664
:101C5000C046F1D1A220C000824647480026012597
:101C600083469146524648689A58C240154200D071
:101C700075E02A1C0868824058461A500420013832
:101C8000C046C046C046C046C046C046C046C04624
:101C9000C046C046C046C046F1D12A1C08688240F2
:101CA00048461A5004200138C046C046C046C046C7
:101CB000C046C046C046C046C046C046C046C046F4
:101CC000F1D10136092ECDD1486801231A1C82407A
:101CD000101CA022284DD205505104200138C046C6
:101CE000C046C046C046C046C046C046C046C046C4
:101CF000C046C046C046F1D148688340A120C0001C
:101D00001350A0220B681A48C133FF33D2059B0041
:101D100098504B68C133FF339B0098506346A12213
:101D20001B680D68D20048689D50134A9850886817
:101D3000124A985043461B19DB00FB58002B06D073
:101D400063461868097B000B40B2FFF771FB012363
:101D50004444E4003F192037BB70002035E7002ED3
:101D6000B3D1CEE706482101411837E7940100209E
:101D70000C0600000D0600000C0500002405000004
:101D800098790000A022037901680520D2008850CC
:101D90009A00D318034ADB00D318022220339A702A
:101DA0007047C04694010020F0B54D465F46564648
:101DB0004446F0B485B00579930707D0062005B0F6
:101DC0003CBC90469946A246AB46F0BD0668C2238D
:101DD00001209B004042F050AB00581998465A4BE6
:101DE000C0009C466044041C20342379A346002B89
:101DF00005D0C12382689B00F2501120DFE7012744
:101E00009308BC469F430823134027710393D5D101
:101E100082619146021C0F1C02910C321ACF1AC229
:101E20005946029B9A780A705A68C2615A7892465B
:101E3000B1225746D200B7501A78012A77D0002A2B
:101E40004BD14B4664465A091440A4463E4A434689
:101E500091465B19DB004B44203302995C704A6861
:101E600092468A788221914600229A71DA70012383
:101E70004900725020317250083972501439725032
:101E8000F831725033622632B360815C494528D202
:101E90005346595C2D4BF150835C013383544346C8
:101EA000294A5B19DB00D258002A21D0264A00209B
:101EB0009446274A63449A609A68C1239B00F25073
:101EC0004544214BED005B59002B00D077E71E4ABB
:101ED0009446654420352B7171E7012301249C460B
:101EE000B4E76246002A01D0F361D8E77361D6E710
:101EF000154A203394466344DA1C063393461F1C6C
:101F00004B4601940093301C59463A1C5346FFF748
:101F100009FD0028F4D143460B4A5B199446DB00C7
:101F200063442033DB78002B0BD00330C8E76A46CC
:101F3000127B029B4A705A68311C9B78FFF77AFD2E
:101F4000BEE70020BCE7C046940100201C0500004D
:101F500086020000F0B544464D465F465646F0B452
:101F6000B64B2321DA69585C904620229C5C0132F2
:101F70009A5C89B09146002816D126229225944673
:101F80009F5CAF4A6D005659AB46002E37D050517A
:101F9000012050615854BC420FD009B03CBC90465F
:101FA0009946A246AB46F0BD92200021A44A4000CB
:101FB000115008381150143811508222A049520093
:101FC00088580028E9D0002088502320195C002977
:101FD00026D11E7BB21E012A58D9191C05AA0C3124
:101FE00070C970C2002204A80270242200219954F2
:101FF0009A695207D1D459681B689847CDE78E205B
:1020000040001558AA46002D1ED0165058461058AC
:1020100000286FD058461650012050615854BAE736
:10202000191C05AA0C3170C970C28649844C04A8D9
:10203000625862500221114203D15207D5D5017076
:10204000D3E701220270D0E7842040001658002E0A
:10205000A1D0554615505846105800285AD1BC42B8
:1020600099D9A3214046C9005158C15561466046DF
:10207000595C0131C9B21954601E814250D08C4262
:1020800000D188E701216E4A116284E7DA691C6990
:10209000A242A2D15A6901279046DA612022DC7B54
:1020A0009C549A6952093A40914621224D469D54CA
:1020B000032E3AD08226624A760091512036915101
:1020C000083E9151143E9151E23E99551954012C0C
:1020D00050D08021890057500121594A1162116066
:1020E000196800294BD0584999609968C1239B0011
:1020F000D15052E7BC4205D8494600290DD00121F4
:10210000D16162E74146C85D5049505061467A1C32
:102110005A5440E750465D4639E7012151613AE79C
:102120008021022089005050ACE7454EE332B15087
:102130002032B150083AB150143AB150F832B1508F
:10214000DB3AFF3A9954195494463762B760002C31
:1021500026D04246107862463C4970509F541A6817
:10216000002A24D0384A9A609968C123344A9B00D7
:10217000D15012E78021022089005050ACE71F1C8B
:1021800026331E1C454623370023009401932C4818
:10219000391C321C2B1CFFF7C5FB0028F4D1FCE6D0
:1021A0004A46002A01D0F761D9E77761D7E7922044
:1021B0000132232700269346214940000394DA5D2B
:1021C0009446002A2BD10C58263292469A5C002C59
:1021D0002CD18E256D004D59AC46002D38D08E2562
:1021E0006D004C510D58002D21D1039C944251D9C2
:1021F0004446A45CA4466546144C0D515546541CF7
:102200005C55039C9442DAD18222520094468A584B
:10221000002AD4D000226146094B5A50BDE68E22D6
:1022200052000E508E50143A8E50EDE764460C501A
:102230005C464C615C46DC55E3E7C04694010020F7
:1022400000300040C4040000860200001C050000AD
:10225000842464000D59002DD3D065460D510C58CF
:10226000002CE3D1039C9442CBD9A3244546E4003F
:102270000C59AC54544655461C5D0134E4B25C55CF
:10228000039D013DAC420FD0039DA542B9D05C46F1
:102290000C62B6E74C46002C03D00122054BDA61F4
:1022A0007BE65C464C61ACE780240225A4000D511E
:1022B000EDE7C04600300040F0B557464E46454673
:1022C000E0B43B4C031CE27E0820002A04D01CBC76
:1022D00090469946A246F0BD002B67D001221868AF
:1022E000A1258240A020ED00C0054251A94603254A
:1022F0001A68AA46C132FF329200155000255A686A
:10230000AC46C132FF32920015509F69294A2A4DCE
:1023100057511D7DA84647465D7D3D43274FD5510A
:102320005D681F68A846264D57514746254D5751B1
:102330001D7D012D19D19F683E1CE0277F00B84606
:102340004644B70066463E50DE68B5404E4685516D
:102350005646DD68C135FF35AD002E504E46D86873
:102360009D689051A220C00015501A6961602260DA
:1023700000290DD0197F0023134A14481360144A12
:102380001360C1230B4A9B00D0500220FFF750F886
:10239000A0230421074ADB00D15000230122E3756A
:1023A0002376A375E276A376002090E7094B95E7A4
:1023B000BC01002000200040240500006C05000046
:1023C0000C050000140500001C21004080000200E4
:1023D00044210040A8790000F0B5264A041C937DF2
:1023E0001120002B00D0F0BD012591752248234912
:1023F000938294600B6005600B60938AE05C938A23
:102400001F4C01339BB293821E4BE0505068002852
:1024100001D00020E7E70027261C1D1C0130FF30FB
:10242000947D938AA34203D312E0938A834202D01D
:102430000B68002BF9D0938A8342F2D00F60938A05
:102440009468E45C938A01339BB293827451E7E70A
:102450008023918A5B0099420AD008490B68002BBF
:10246000FCD001210020084B196000239375BAE7C6
:102470000F20FAE7BC010020082000401C2100408A
:10248000002000401C0500000C200040024B987DFD
:10249000431E9841C0B27047BC010020F0B54746CA
:1024A00080B4444B5A68002A05D08126C224424D8C
:1024B000B600A4002E51DC7D002C0DD01C7E002C1B
:1024C0001DD0002A00D16EE08121C1233A4A890043
:1024D0009B00D15011200FE0D975997ED8605C76B1
:1024E0001C7600292BD0002A0DD08121C123002089
:1024F000314A89009B00D15004BC9046F0BD186160
:102500001976002AF1D12D4C2D4D22602A4A2D48F2
:102510009046A322D2009446296806684A1E91413B
:102520002268C9B2571EBA41D2B2002E10D1002A79
:1025300027D10029F0D000220320DA75DCE7204AF9
:102540001160204A116001211B4A11605A68CAE7D4
:102550000029F0D1002A16D1D97D002917D10160B8
:10256000624641468A585A7ED97D9142D4D800228B
:10257000DA759B7E002B18D001220F4B00201A60C9
:10258000BAE70029D7D100220F20DA75B4E7464612
:10259000614602605A7E7158DE68B1545A7E01323B
:1025A000D2B25A76DFE71120A6E70122064B0020BF
:1025B0001A60A1E7BC010020002000404421004037
:1025C000242100400821004004200040064A937E58
:1025D000002B07D105490B6005490B600549013304
:1025E0000B6093767047C046BC0100202421004058
:1025F0000821004000200040C12210B5604B92002D
:102600009A5884B092054DD55E4A1168002949D088
:10261000002111608121C2228900920099505A4BF9
:102620009A7E002A02D10121584A1160022269468D
:102630000A7090215248C90042584250694603929C
:10264000DA7D68460A72DA68196801920022DA7542
:102650001A765B6898474E4A1368002B10D04A4B95
:10266000988A997D81424FD9002111609A8A996890
:10267000895C9A8A013292B29A82464B404AD15082
:10268000454B1A68002A0BD000221A603E4B9A7EF6
:10269000002A02D001213A4A1160DA7D002A42D193
:1026A00004B010BDC123364A9B00D3585B07D2D576
:1026B0003A490B68002BCED0334BD87D00283FD150
:1026C0000860A321C90052585A7ED97D9142C2D1D7
:1026D0001A7E002A41D19A7E002A02D101212B4A7A
:1026E00011608120C2222649800092008850002279
:1026F00068460121DA755A7E01700272DA6819683B
:1027000001925B689847A6E7002010600029B7D0C7
:102710006A46107011729A689875196801925B6820
:1027200068469847ACE7002268460121DA755A7E70
:1027300001700272DA68196801925B689847AFE726
:1027400000200860A320C000597E1258D868425467
:102750005A7E0132D2B25A76B6E7DA751A69D9686A
:10276000DA6000226C46587E1A765A760132207260
:1027700001912270196868465B6898476BE7C0460C
:102780000020004024210040BC0100200420004023
:102790001C2100401C05000044210040082100408D
:1027A000A02210B5064BD205D15880231B041C1C57
:1027B000A1208C430B400349C0001450535010BD5E
:1027C000040500000C050000F8B5C74B1B68DB07CB
:1027D00000D4F8BDC54A1478172CFAD8C449A30010
:1027E000CB589F46A022C34BD205D1588023DB0390
:1027F0001C1CA1208C430B40BF49C00014505350F7
:10280000BE4B00221B68BE489900C918FEF7BCF8F1
:10281000DFE7A023F021B84ADB05490499500021E5
:10282000043A9950D5E7A022B24BD205D158802363
:10283000DB031C1CA1208C430B40AF49C00014508B
:102840005350AE4B00221968AD48FEF79DF8C0E723
:10285000AC4BA1201968E0235B048B43A021002628
:10286000F025C905C000A44C0B50A24B0E51CB580B
:102870006D046B408025AD032B4000D120E10D504D
:1028800003230E51082113709C4B00221B689C48A7
:102890005943FEF779F89CE79A4BA1201968E02389
:1028A0005B048B43A0210026F025C905C000924C93
:1028B0000B50904B0E51CB586D046B408025AD03EF
:1028C0002B4000D104E10D5004230E512821DAE7FA
:1028D000A023A122E021DB05D200490480249950E5
:1028E00000218548A40319501C50995071E7864D6A
:1028F000281CFEF7C5F811231C1B00D1C7E00028D7
:1029000000D0C4E080237F4E1B043360012C10D024
:10291000C8306421604300F04DFC784B00221B68F6
:102920004343281C191CFEF72FF8F02332685B0480
:102930001340A0227049D2055350A1230021DB008F
:10294000D15046E76F4BA1211A68F0235B049343F3
:10295000A022C900D20553500021674BD15038E75F
:10296000684BA1201968E0235B048B43A02100275A
:10297000F026C905C000604D0B505E4B4F51CB583F
:10298000760473408026B603334000D18EE00E50AB
:102990004F51022C00D1A0E02821147074E7A0232D
:1029A000A122C021DB05D2004904C0249950002196
:1029B0005148E40319501C5099500AE7A023A12262
:1029C000D021DB05D20049048024995000214A48D7
:1029D000E40319501C509950FBE6A023F021A122DA
:1029E000DB054904D20099500021434A9950F0E692
:1029F000E022444B52041B68A1219A43A023C90042
:102A0000DB0580245A5000223B48A4031A501C5076
:102A10005A50DEE63B4BA1201968E0235B048B4350
:102A2000A0210026F025C905C000334C0B50314BC6
:102A30000E51CB586D046B408025AD032B403CD02C
:102A40000D500E51052313702C4B002219682C4891
:102A50004900FDF799FFBCE62A4BA1201968E02345
:102A60005B048B43A0210026F025C905C000224C41
:102A70000B50204B0E51CB586D046B408025AD039D
:102A80002B4022D00D500E5106231370D9E6F023AF
:102A90001C4A5B041168A1200B40A021C000C9059D
:102AA0000B50002314480B50136092E64E510B500C
:102AB000022C15D004211470E6E60D510B50C1E72D
:102AC0000D510B5002210323DDE60D510B50DBE7C6
:102AD0000D510B5004210423D5E612211470D3E6C6
:102AE00002211470D0E6C046E00100200802002058
:102AF000C8790000040500000C050000E401002076
:102B0000E8010020DC0100200C02002008B5104B79
:102B10001960104B1860104B1A60C3070BD5A02327
:102B2000F022A1210020DB055204C9005A500B49B4
:102B300058500C315A500A4800210A4AFDF70AFF42
:102B4000002804D108480121084AFDF703FF08BD09
:102B5000E4010020E0010020D80100200C05000065
:102B6000287A0000C92700002C7A0000A127000065
:102B7000F0B55F4656464D464446F0B4011C8DB054
:102B8000002800D00BE1884B884C19789B464A00FE
:102B900056187600A55B864B6F0518887F15C01BFD
:102BA00080B208901880A019814680785F888006DE
:102BB0008016381A80B2099058804846C0789F889D
:102BC00080068016381A80B20A90988048460079AC
:102BD000DF8880068016381A80B20B90D88075483E
:102BE000ED0A8778ED02B846C778BC4607790797A3
:102BF00047790697077840783F02384340092843D1
:102C0000A0534046400609D44D4640463F26AD7885
:102C10008006800EB54305434846857060464006F1
:102C20000AD460463F2755186D006519EE78800676
:102C3000800EBE430643EE700798400600D480E045
:102C40005018400020180679B606B616F6B2069857
:102C5000594D400601D528780690089F5218BC4669
:102C60005200A05A099F400540156044BC4680B2FE
:102C70001880A21894780A9FA406A4166444BC463F
:102C8000A4B25C80D27876B292069216624492B276
:102C90009A8090460B9A013194466644B6B2DE8023
:102CA0005B46C9B219700F295ED900235A461370CA
:102CB0001C23069A1340043BDBB2142B63D83F4A13
:102CC0009B009B58994600B200F0A0FDFF23002214
:102CD0009B0500F001FB0022394B00F0FDFA24B205
:102CE0000B1CE117090F0C19414609B2021CC81749
:102CF000000F36B24118F017000F861906982411FC
:102D000009113611800641D46F463F7E2D487FB2AF
:102D1000002F41DB2B4FBC46019149460391614690
:102D20000490009402960591274801F023FA6B461F
:102D30001B7E2B700DB03CBC90469946A246AB461C
:102D4000F0BD3F25A84607988606B616F6B2354070
:102D5000A94645465018400020180779AF433D1C4E
:102D60004F462F43077172E70029A1D02B78002B23
:102D7000E0D0069A9A42DDD01C23069A1340043B09
:102D8000DBB2142B9BD9114B99469CE76F463F7ED3
:102D90000F487FB2002FBDDA0E4FBC46BCE70E488D
:102DA00001F0E8F9C6E7C046680400206C04002082
:102DB000F0040020CC040020D7040020987B000001
:102DC0000000B03F307B0000B87A0000887A000035
:102DD0008C7A0000947A00009C7A000008B5037891
:102DE000012B01D0022B02D14068FDF71BFA08BD70
:102DF00008B50D2808D0102805D108480849FDF766
:102E0000C5FF002806D108BD04480649FDF7BEFFEE
:102E10000028F8D0FDF706FAF5E7C0466400002068
:102E20005C7C0000607A000010B5042800D010BD62
:102E3000A0220B4BD205D15880235B041C1CA1207F
:102E40008C430B400749C0001450535006480749B3
:102E5000FDF79CFF0028EAD0FDF7E4F9E7E7C0465C
:102E6000040500000C05000064000020EC7B00005D
:102E700070B5011E12D10B480B4901F07BF90B4CC8
:102E80000B4D261C0B362178281C013401F072F9F9
:102E9000B442F8D1074801F06DF970BD064801F061
:102EA00069F9FAE7107B0000187B0000CC040020D1
:102EB000247B00002C7B0000E87A000070B5011E26
:102EC00011D10B480B4901F055F90B4C0B4DE61D88
:102ED0002178281C013401F04DF9B442F8D108489A
:102EE00001F048F970BD074801F044F9FAE7C0461F
:102EF000107B00005C7B0000CC040020247B0000E1
:102F00002C7B0000347B000070B58021A0250023BD
:102F10000120032488B04904ED050133202B0BD098
:102F2000021C9A400A42F8D01A1CC132FF329200A9
:102F300001335451202BF3D1A0238021A122DB05A2
:102F40004904D200995000213D4A9950FEF7E6F914
:102F500000285CD10020FEF7FFF900200321394A48
:102F60000023FDF785FC002866D100203649374A4A
:102F7000FFF7CCFD00285CD1354C01A8031C221CB6
:102F800062CA62C3334B04AD049301236B60324BBE
:102F9000291CAB6080235B00EB60304AFD3BFEF7F1
:102FA00031F9002842D12E4801F0E4F8231C2A1CF4
:102FB0000C3313CB13C22B4C1B68201C1360291C31
:102FC0000522294BFDF7C2FE00282CD1201C2749E1
:102FD00001220023FDF7A4FF002821D1201C244951
:102FE00001220023FDF79CFF002816D1214C00216F
:102FF000201C214AFEF7B0FB00280BD1201C012128
:10300000FEF7ECFB201CFEF7DDFB30BFFDE7FDF714
:1030100009F99FE7FDF706F9F0E7FDF703F9E5E7A2
:10302000FDF700F9DAE7FDF7FDF8CFE7FDF7FAF86D
:10303000B9E7FDF7F7F89FE7FDF7F4F895E7C04625
:103040000C0500002C020020CD0C0000F12D00002A
:10305000447A00006403002068030020DD2D000096
:10306000647B000064000020D8040020387A00004F
:10307000707C0000707A0000292E0000304B1B7815
:10308000012B00D070472F4B1B681B07FAD1F02291
:103090002D4B1B68134027D12C4B1B68134229D0A2
:1030A000284B1B681B07EDD1F022274B1B681340F0
:1030B000402B32D0244B1A68F0231340A02B01D0B0
:1030C000D02BDFD1214B1A68F0231A42DAD1204AE3
:1030D0001368012B04D01F4B13601368012BFCD124
:1030E000C0221D4B1A60CDE7102B0FD1174B1B6868
:1030F0001342D9D1194A1A4B1A608022194B120275
:103100001A600F4B1B78012BCAD0BBE7302BCBD1F9
:103110000E4B1B681342C7D1ECE70C4B1B681342E4
:10312000C8D1C12380220121DB00D205D150044B3C
:103130001B78012BA6D1034B1B681B07BAD0A1E754
:10314000E00F00F0E40F00F0E80F00F0EC0F00F0EB
:1031500000EC06407593000014EC0640DFFF07C04A
:1031600004050040186C004003210A4802680A4325
:103170000260094802680A4302600849084A094B8C
:103180009B1A03DD043BC858D050FBDCFFF776FFE9
:10319000FCF7C6FF2405004054050040C47E000033
:1031A00000000020C0000020FEE7FEE7FEE7FEE78B
:1031B000FEE7FEE7002243088B4274D303098B42EB
:1031C0005FD3030A8B4244D3030B8B4228D3030CF7
:1031D0008B420DD3FF22090212BA030C8B4202D399
:1031E0001212090265D0030B8B4219D300E0090AC1
:1031F000C30B8B4201D3CB03C01A5241830B8B42CA
:1032000001D38B03C01A5241430B8B4201D34B03B2
:10321000C01A5241030B8B4201D30B03C01A524117
:10322000C30A8B4201D3CB02C01A5241830A8B429C
:1032300001D38B02C01A5241430A8B4201D34B0285
:10324000C01A5241030A8B4201D30B02C01A5241E9
:10325000CDD2C3098B4201D3CB01C01A524183099D
:103260008B4201D38B01C01A524143098B4201D3D7
:103270004B01C01A524103098B4201D30B01C01A02
:103280005241C3088B4201D3CB00C01A524183087C
:103290008B4201D38B00C01A524143088B4201D3A9
:1032A0004B00C01A5241411A00D201465241104609
:1032B0007047FFE701B5002000F00CF802BDC046E2
:1032C0000029F7D003B5FFF775FF0EBC4243891AFA
:1032D0001847C0467047C046F0B55F4656464D4653
:1032E0004446F0B4051C061C080387B099464F00FD
:1032F000030BCC0F92469B467F0D019467D06C4B1D
:103300009F4236D080205B4640031843C0006B0FBD
:103310001843684B83469C4600239846EE0067445A
:1033200000934B4649461D03C90F5B0052462D0BC7
:103330005B0D894600D16EE05D498B4264D08020F0
:103340005C4940038C4600210543ED00500F0543C6
:10335000D20063444846FF187B1C9A46009B60409D
:1033600002900B430F2B00D9ACE053489B00C3588D
:103370009F465B461D4300D082E008230093002354
:103380009B46023300269846CBE7029B01934346B7
:10339000022B59D1012400250026019B1C40444BDF
:1033A00000212D030A0D12052D0B1543434A1B0561
:1033B00015401D436D00E4076D082543301C291C92
:1033C00007B03CBC90469946A246AB46F0BD2B43A5
:1033D0004ED05B46002B00D185E1584600F052FAF2
:1033E000021C2823291C9B1A161C5846D940083E4B
:1033F000B0400B1CB54003439B462E1C0023304FAE
:103400000093BF1A98468CE7514629432ED10025D8
:10341000002202219EE75146294323D0002D00D1EE
:1034200054E1281C00F02EFA031C28215046C91A2A
:103430001A1CC8405146083A914095400A1C054361
:103440001F480021C31A85E7032B00D1C2E1012BDD
:1034500000D06DE14446019B00251C40E4B20023EE
:1034600000269DE700250022012173E7032171E773
:103470000423009300239B4601330026984650E71F
:103480000C230093093B98464BE7802500242D032D
:103490000026074B84E74B46AB46161C0193884633
:1034A00075E7029BAB46161C019388466FE7C04642
:1034B000FF07000001FCFFFF7C7C0000FFFF0F8086
:1034C0000DFCFFFF330C3604360C9C46331C140CE9
:1034D0001204120C5343984663465343994663467D
:1034E00063430193331C41466343090C4B445B180F
:1034F000994505D9802040028146019949440191AE
:10350000190C039141460904090C1B045B18049330
:103510002B0C9846331C2D04290C4B43604600931A
:103520004346654658435E43009B4D431B0C9946FA
:10353000AE194E448446B54203D980235B029946B6
:10354000CC44350C2B1C0398634484460593009BA4
:1035500036041B041B0CF3189C4460460390584629
:103560000504060C280C84465043351C81466046F1
:10357000654344434846000C8346724314195C4437
:10358000A24203D98022520293465D44220CAD1818
:103590004A461204120C24044046A41862464A43C8
:1035A0007143464360460096464670438046100C81
:1035B00084468844E044414505D9802149028C462F
:1035C00000996144009101980399844661449942AD
:1035D0009B415B4299460598434684461204120C6F
:1035E0001B049B1863449C46AB4683429B41404668
:1035F0000A19CC44A2428941E344CC45B6415C4619
:10360000000C8046494276425B426418334398443A
:103610008C428941AB459B4149425B4219430D1C99
:10362000009B4544EE187602E50D2E43B346049BFD
:1036300056021E43731E9E415B46D20D3243660204
:103640001643DB010AD50123334076081E435B464F
:10365000DB071E435B465B089B465746634BFB18E4
:10366000002B5ADD720709D00F223240042A05D000
:10367000321DB242B6417642B344161C5A46D201BC
:1036800006D55A465A4B1A4080239346DB00FB1856
:10369000584A934234DD0124029B00251C40002639
:1036A000554B7DE680205B460003034208D005426F
:1036B00006D105432D032D0B4C46161C4E4B6FE6D1
:1036C0005D4605432D032D0B4B4B69E6504600F03C
:1036D000D9F8031C2033272B00DCA6E65546083812
:1036E00085400022ACE6281C00F0CCF8021C2032F9
:1036F000272A00DC75E6083885400026AB467DE6C3
:103700005A46F608520716435A4601245502029AB1
:103710005B052D0B5B0D144042E6384DED1B382D3B
:103720000ADD0124029B00251C400026002337E609
:10373000019B5746029391E71F2D25DC304B321C2D
:103740009C466744BE405B46BB40371CEA407E1E39
:10375000B74113433B431E1C5B46EB401D1C7307E4
:1037600009D00F233340042B05D0331DB342B6419B
:103770007642AD191E1C2B0220D50124029B002588
:103780001C40002601230BE65A461E4BDB1BDA4089
:10379000131C202D1CD01C4A94465A466744BA403C
:1037A000171C3E43721E96411E43072300253340DB
:1037B00007D00F2300253340042BD6D16B076D02B1
:1037C0002D0B0124F6081E43029B1C400023E7E555
:1037D0000027E6E780255B4601242D031D43019B5E
:1037E0002D0323401C1C2D0B034BD9E5FF030000C8
:1037F000FFFFFFFEFE070000FF07000002FCFFFFC7
:103800001E040000E2FBFFFF3E04000038B5041E6A
:1038100016D0C50F00D04442201C00F033F8174BDF
:103820001B1A0A2821DC021C211C153291400A1C9B
:103830000B21081AC4405B052403240B5B0D03E035
:1038400000250023002400220021101C24030A0D5F
:103850001205240B14430A4A1B0514401C43640040
:10386000ED0764082C43211C38BD0B3884405B05F0
:103870002403240B5B0D0022E6E7C0461E04000073
:10388000FFFF0F801C2101231B04984201D3000C71
:1038900010391B0A984201D3000A08391B099842C3
:1038A00001D30009043902A2105C40187047C046D9
:1038B00004030202010101010000000000000000F9
:1038C000F0B58BB0141C1D1E129906DA8024240654
:1038D0002B191D1C141C2D2300E000230B7020232A
:1038E000149E03229E43462E07D0331C453B59426B
:1038F0004B411099013ACB181093109B0092019301
:10390000139B221C029308AB039309AB04932B1C5B
:1039100000F000FD071C472E02D1119BDB072CD5C0
:10392000109BFB180793462E14D13B78302B0CD1FB
:10393000201C291C0022002302F066FC002804D170
:103940000123109A9B1A139A1360139B079A1B6802
:10395000D3180793201C291C0022002302F054FCDA
:10396000002801D0079B0993099B079A934204D230
:103970005A1C099230221A70F6E7381C099B159AD6
:10398000DB1B13600BB0F0BDF7B52B23071C0C1C21
:103990000270861C002901DA2D234C427B70092C11
:1039A0001CDD6B46DD1D201C0A2102F013FC013DCD
:1039B00030312970201C0A2102F026FB041E092C3C
:1039C000F1DC013D30342C706B460733301CAB42C8
:1039D00009D92B78013533700136F5E73023E41827
:1039E0003370B01C7470C01BFEBD0000F0B593B006
:1039F0000C1C08920993189E051C01F05FFB0368DC
:103A0000181C0B9300F0F8FB0023216810930C9016
:103A1000277E33680722C90501D59B1800E00733CC
:103A200093431A1C083232601A685B68A264E3642C
:103A3000A06CE16C00F0B8FB012818D1A06CE16C1F
:103A40000022002302F0E6FB002803D0231C2D22D5
:103A500043331A70B64B0A93472F01D9B54B0A93DB
:103A600003232268236101339A43226012E0A06C91
:103A7000E16C00F099FB266800280DD1AE4B0A934B
:103A8000472F01D9AD4B0A930323311C2361013326
:103A900099432160002680E080216068C900431CB2
:103AA00001D1062309E0A26CE36C672F01D0472FF8
:103AB00004D1002800D0C0E1012363606368314372
:103AC0000093232321600191002106AA9B180293F1
:103AD0000FAB039310AB05930497A26CE36C0691B4
:103AE000281CFFF7EDFE20233A1C0A909A43472A30
:103AF00007D10F9BDA1C02DB626893422DDD023F87
:103B0000FFB20F99652F12D8201C01393A1C503092
:103B10000F91FFF739FF109A061C83182361012AC1
:103B200002DC2268D2072ED5013323612BE0662FF9
:103B300014D16368002908DD2161002B02D12268BD
:103B4000D2071DD50133CB1811E0002B03D1012280
:103B50002168114213D09A1C11E067270F9B10981F
:103B6000834206DB22682361D20709D50133236132
:103B700006E00122002B01DC0221CA1A8218226110
:103B800000260F9BA365232306AA9B181B78002BF6
:103B900003D0231C2D2243331A70099B281C009349
:103BA000211C089B11AA00F05FF9431C02D10120DF
:103BB000404256E12268530504D4281C08990A9A09
:103BC000236916E1652F00D8D4E0A06CE16C0022D7
:103BD000002302F019FB00282BD00123281C089990
:103BE000574A099EB047431CE1D00F9B109A93425D
:103BF00007DB2368DB0704D423689B0700D51AE1A1
:103C000013E1099E281C08990B9A0C9BB0470026CB
:103C1000431CCCD0109B013B9E42EDDA221C0123B9
:103C2000281C08991A32099FB847431CBFD0013697
:103C3000F0E70F9B002B2BDC0123281C0899404A3E
:103C4000099EB047431CB2D00F9B002B05D1109B9F
:103C5000002B02D12368DB07CED5099E281C0899CA
:103C60000B9A0C9BB0470026431CA0D00F9B281C2E
:103C70005B4208999E4208DA221C01231A32099FEE
:103C8000B847431C93D00136F0E70A9A109BB0E086
:103C9000109BA66D9E4200DD1E1C002E01DC002341
:103CA00014E0331C281C08990A9A099FB847431C42
:103CB000F5D17CE7221C0123281C08991A32099FA0
:103CC000B847431C00D172E70D9B01330D93F343BA
:103CD000A26DDB170D993340D31A9942EADB0A9B98
:103CE0009E180F9B109A93420EDB2368DB070BD4C0
:103CF000109B0A9AD7180F9ABF1B9B1A9F4200DD90
:103D00001F1C002F09DC11E00C9B281C08990B9A42
:103D1000099FB847431CEBD149E7321C3B1C281CC8
:103D20000899099EB047431C00D140E7002315E0E5
:103D3000BC7C0000C07C0000C47C0000C87C00008B
:103D4000CC7C0000221C0123281C08991A32099EF1
:103D5000B047431C00D12AE70A9B01330A930F9A0C
:103D6000109B9A1AFB43DB173B40D31A0A9A9A42DC
:103D7000E8DB41E7109B281C0899012B02DC01239A
:103D80001A423CD001230A9A099FB847431C00D12C
:103D90000DE70C9B281C08990B9A099FB847431CF8
:103DA00000D104E7A06CE16C0023002202F02CFAA1
:103DB0000023002812D10A9A109B0132013B281CD3
:103DC00008991DE0221C0123281C08991A32099F1A
:103DD000B847431C00D1EAE60A9B01330A93109BC3
:103DE0000A9A013B9A42EDDB221C281C331C0899DD
:103DF0005032099EB047431C00D0FDE6D7E60A9A30
:103E0000099FB847431CEFD1D1E6221C0123281C8F
:103E100008991932099FB847431C00D1C7E60136FB
:103E2000E368119A9B1A9E42EFDB119BE06898426F
:103E300017DA181C15E00026F2E7314321600191E2
:103E40002321009006A8091802910FA9039110A937
:103E50000591002104970691281CFFF731FD0A9077
:103E600047E613B0F0BDC046F7B5171C01930A69C9
:103E70008B6800900C1C934200DA131C221C3B60E0
:103E800043321278002A01D001333B6023689B063D
:103E900002D53B6802333B60062523681D401ED0D7
:103EA000231C43331B785A1E9341226892061CD56B
:103EB0003020E1184031C870211C5A1C4531097866
:103EC000A21840320233D1700FE0221C0123009867
:103ED00001991932089EB047431C0ED00135E368A2
:103EE0003A689B1A9D42F0DBDAE7221C00980199A0
:103EF0004332089DA847431C02D10120404220E0E4
:103F000006232068E1683A6803400025042B03D1AA
:103F10008D1AEB43DB171D40A3682269934201DD34
:103F20009B1AED180027AF420ADA221C01230098E1
:103F300001991A32089EB047431CDED00137F2E7E0
:103F40000020FEBDF0B58BB006920A1C43320793E9
:103F5000059004920A7E0C1C109B6E2A00D1A8E0EA
:103F600011D8632A22D009D8002A00D1B2E0582AF9
:103F700000D0C2E045310A707C4A4FE0642A1DD06F
:103F8000692A1BD0B9E0732A00D1A7E009D86F2AAB
:103F900029D0702A00D0B0E0202209680A432260AC
:103FA00037E0752A1FD0782A33D0A6E00E1C1A6895
:103FB0004236111D196013683370A1E021681A6838
:103FC000080606D4490604D5111D19600023D55EE4
:103FD00002E0111D19601568002D3BDA2D23049AAB
:103FE0006D42137036E021681A68080606D4490647
:103FF00004D51568111D1960ADB202E0111D1960DC
:1040000015685A4B227E03930A276F2A1DD1082771
:104010001BE0221C782145321170554A1968039221
:10402000081D226818600D68100602D4500600D5DD
:10403000ADB2D30702D520231A4322601027002DEA
:1040400003D1202322689A432260231C0022433399
:104050001A7002E00A27454B03936368A360002BA4
:1040600003DB0422216891432160002D02D1049ECC
:10407000002B0ED0049E281C391CFFF721F9039B4E
:10408000013E5B5C281C3370391CFFF793F8051E5A
:10409000F1D1082F09D12368DB0706D563682269AF
:1040A000934202DC3023013E3370049B9B1B23614F
:1040B0002BE009681A68080607D4490605D5111DC2
:1040C00019601368A28A1A8004E0111D1960136830
:1040D00062691A600023049E236116E01A68111DAC
:1040E000196016680021301C626800F0F5FF002896
:1040F00001D0801B6060636803E0261C423632708A
:10410000012323610023049A1370079B05980093F1
:10411000211C069B09AAFFF7A7FE431C02D1012020
:10412000404221E0236905980699321C079DA84763
:10413000431CF4D023689B0705D4099BE068984290
:1041400012DA181C10E00025E368099A9B1A9D42B8
:10415000F3DA221C0123059806991932079EB0470D
:10416000431CDCD00135EFE70BB0F0BDCE7C000086
:10417000DF7C00000FB40B4B13B51C68002C05D07E
:10418000A369002B02D1201C00F006FF05AB201C08
:10419000A168049A019301F073FB16BC08BC04B03B
:1041A0001847C0466000002030B50C1C02230443B1
:1041B00017D080242406A14201D1002811D00A4B37
:1041C00049004908094ACC180423944209D9084AED
:1041D000013B914205D9074A0023914201D1434254
:1041E0004341181C30BDC0460000F0FFFFFFDF7FD9
:1041F000FFFF0F000000F07F0023C25C0133002AA4
:10420000FBD1581E7047F0B503690C6989B00026D0
:10421000A3427CDB0B1C013C1433A50003935B1908
:104220000493031C143301935D19049B07911B68CD
:104230000290591C28680593FEF7BCFF071EB74281
:1042400035D0039B01989C460596634604CB91B2FA
:104250007943120C7A4371180E0C9C46B3180693DE
:1042600002881E0C059B89B2D2180368521A190CD9
:104270006B461B8BCB1A11145B18191492B21B04DA
:104280001A43049B059104C06345DED22B68002BC2
:104290000DD1231C019A043D954203D8029A1C1C9F
:1042A000136104E02A68002AF8D1013BF2E7029882
:1042B000079901F037F9002828DB00200199039ABB
:1042C000013720CA0B881818ABB2C31A08682D0C26
:1042D000000C451B1E14AD1928149BB22D042B4352
:1042E00008C1049B9342ECD2019AA300D3181A6828
:1042F000002A0BD1019A043B934202D8029B1C6115
:1043000004E01A68002AF9D1013CF3E73E1C301C96
:1043100009B0F0BDF0B5161C1F1C446A9BB0089094
:10432000239D06960797002C08D1102000F0CAFEA6
:10433000089B5862446084600460C460089B5B6AA8
:10434000196800290BD05A68012393404A608B609A
:10435000089800F00DFF0022089B5B6A1A60079B1B
:10436000002B05DA01232B607B005B08079301E03B
:1043700000232B60079CC64B221C17931A409A42BD
:1043800019D1C44B229A1360069AC34B002A02D15A
:10439000240300D1C14B249A181C002A01D100F03B
:1043A000B6FDD978DA1C002900D005322499181CF2
:1043B0000A6000F0ACFD069E079F0022301C391CED
:1043C000002301F021FF051E0ED00123229A136065
:1043D000B34B249A181C002A01D100F098FDB14A71
:1043E00024990A6000F093FD19AB009318AB019378
:1043F0000898321C3B1C01F01BF961000A90490D22
:1044000009D03803A84C000B0443A848321C231CD5
:104410000E1816951CE0189B199A9E18A44B9E42E4
:1044200009DBA44BF018069BC340181CA24B9B1B36
:104430009C40204304E0A148069B801B8340181C3D
:1044400003F026FA9E4C021C0B190121013E169125
:10445000101C191C00229B4B02F06AFE9A4A9B4BCF
:10446000FEF73AFF9A4A9B4B01F0FCFE041C301CFD
:104470000D1CFFF7CBF9984A984BFEF72DFF021C55
:104480000B1C201C291C01F0EDFE041C0D1C03F06C
:10449000C9F9291C03900022201C002301F0BAFE58
:1044A00000280DD00398FFF7B1F9021C0B1C201C4B
:1044B000291C01F0A9FE43424341039AD31A0393F6
:1044C00001231393039B162B11D8854ADB00D318C5
:1044D00018685968069A079B01F0B0FE002805D0BD
:1044E000039B013B03930023139300E01390189B5D
:1044F0009E1B00230D93013E0E9604D50E9B5B423E
:104500000D9300230E93039B002B08DB039A0E9B55
:10451000944663440E93002312920F9307E00D9B81
:10452000039A9B1A0D9353420F9300231293209BDF
:104530000125092B27D8052B02DD0025043B2093FC
:10454000209B981E032823D801F054FD020E04106E
:10455000002300E001231093219B002B21DC012389
:104560000B9309931A1C1AE0002300E00123039A1D
:1045700010939446219B63440B9301330993002BC2
:1045800012DC012310E0002310952093013B02E090
:1045900001231093023B00220B93099313332192C2
:1045A00002E0219B0B930993089A546A00226260EF
:1045B0000432111C1431994204D86168520001314F
:1045C0006160F6E70898616800F09AFD089B20603A
:1045D0005B6A1B680C93099B0E2B00D988E1002DA8
:1045E00000D185E1069B079C14931594039B002B37
:1045F00030DD0F223A491340DB00CB185C681B68A2
:1046000004930594039B02271D11EB060AD5149809
:104610001599344B15401A6A5B6A02F04BF9069003
:10462000079101372F4C002D0DD0EB0708D50498CA
:10463000059922686368FEF74FFE049005910137E3
:104640006D100834EFE706980799049A059B02F06D
:1046500031F949E0039B02275D42002D46D01498B2
:1046600015990F231E4A2B40DB00D3181A685B688C
:10467000FEF732FE1B4C2D11002D35D0EB0704D573
:10468000226863680137FEF727FE6D100834F3E7F0
:104690000000F07F0F270000F97C0000F07C000094
:1046A000CC7C0000CD7C00000000F03F01FCFFFF4F
:1046B000EFFBFFFF120400000EFCFFFFEEFBFFFF0D
:1046C000000010FE0000F83F61436F63A787D23FF0
:1046D000B3C8608B288AC63FFB799F501344D33FF1
:1046E000687D0000307E000006900791139B002B30
:1046F0001ED0069C079D0022201C291CCE4B01F0D9
:1047000089FD002814D0099B002B11D00B9B002B96
:1047100000DCE9E0039B291C013B1193201C0022D3
:10472000C64BFEF7D9FD0137069007910B9D02E0BD
:10473000039B099D1193381C069B079C04930594C9
:10474000FFF764F8049A059BFEF7C6FD0022BC4BF8
:1047500001F088FD06900791069E079F079BB94AC6
:104760009C18002D1CD1049805990022B64B02F02C
:10477000DFFC321C231C0490059101F05FFD002832
:1047800000D063E204980599321CB04E079CB446F1
:104790006444231C01F03EFD002800D04CE2A3E05D
:1047A000AB4A6B1E1099DB00D31800294ED01A6853
:1047B0005B680020A74902F07DF8321C231C02F040
:1047C000B7FC049E059F0C9B069007910493391C2F
:1047D000301C03F027F8041CFFF718F8021C0B1C10
:1047E000301C391C02F0A4FC049B303401330493C8
:1047F000013B1C70069A079B061C0F1C01F00AFD6A
:10480000002800D061E3321C3B1C00208A4902F0E2
:104810008FFC069A079B01F0FDFC002800D0CDE03C
:10482000049B0C9A9B1AAB425EDA06980799002209
:10483000824BFEF751FD0022069007917F4B301C02
:10484000391CFEF749FD061C0F1CC0E718685968A3
:10485000321C231CFEF740FD049E059F0C9C069015
:10486000079163190493391C301C02F0DBFF051C0F
:10487000FEF7CCFF0B1C021C391C301C02F058FC4C
:104880003035049B25700134061C0F1CA34224D133
:104890000022069807996F4B01F0E4FC021C0B1CE8
:1048A000301C391C01F0CAFC002800D086E0069AB2
:1048B000079B0020674902F03BFC021C0B1C301CCC
:1048C000391C01F0A7FC00280ED0049B013B1A788C
:1048D000302A00D0F9E20493F7E70022574BFEF7A5
:1048E000FBFC061C0F1CBEE7149B159C069307944B
:1048F000199B002B00DA86E0039A0E2A00DD82E085
:10490000D300534AD3181E685F68219B002B14DA2A
:10491000099B002B11DC00D090E1301C391C0022D7
:10492000494BFEF7D9FC069A079B01F091FC099FC1
:104930003E1C002800D083E18CE10C9B069C079D67
:104940000493321C3B1C201C291C01F0B3FF02F015
:1049500069FF0690FEF75AFF321C3B1CFEF7BCFCB9
:10496000021C0B1C201C291C02F0E2FB0B1C0499EE
:10497000021C0698013104913030013908700C98FE
:104980000499091A099881422ED1101C191C01F0B2
:1049900069FC321C3B1C041C0D1C01F04FFC002860
:1049A00010D1201C291C321C3B1C01F02DFC0028BE
:1049B00000D18CE2069BDB0704D488E2119B0393B1
:1049C00000E00493049B013B1A78392A08D10C9A21
:1049D0009342F6D1039B0133039330231370131CCE
:1049E0001A7801321A7072E2101C191C0022134B43
:1049F000FEF772FC00220023041C0D1C01F004FCD5
:104A000000289ED063E2109A002A44D0209A012AFE
:104A10000BDC169A002A02D00F4A9B1802E03623BC
:104A2000189A9B1A0F9D0D9C29E0099B5D1E0F9BF8
:104A3000AB4213DB5D1B18E00000F03F0000244098
:104A400000001C400000C0FC000014400000C07CBE
:104A5000687D00000000E03F330400000F9B0F95CD
:104A6000EA1A0025129B9B181293099B002B04DA6B
:104A70000D9B099A9C1A002301E00D9C099B0D9A3D
:104A80000898D2180D920E9A0121D3180E9300F0B7
:104A90000EFC061C02E00F9D0D9C109E002C0CD0FD
:104AA0000E9B002B09DDA34200DD231C0D9AE41AA6
:104AB000D21A0D920E9AD31A0E930F9B002B21DD62
:104AC000109B002B18D0002D10DD311C2A1C0898DB
:104AD00000F084FC061C0A9A311C089800F0F0FBD8
:104AE000071C0A99089800F043FB0A970F9B5A1B72
:104AF00008D008980A9902E008980A990F9A00F0DD
:104B00006DFC0A900898012100F0D1FB129B071C54
:104B1000002B0ADD391C1A1C089800F05FFC209B52
:104B2000071C0025012B1BDC03E0209B0025012B2B
:104B300012DC0025069BAB420ED1079B1B03AB4248
:104B40000AD1179B079A134206D00D9B01350133FA
:104B50000D930E9B01330E93129B0120002B08D066
:104B60003B6903339B00FB18586800F056FB202379
:104B7000181A0E9BC0181F23184009D001331B1AA6
:104B8000042B02DD1C23181A03E0042B08D0181C88
:104B90001C300D9B24181B180D930E9B1B180E9395
:104BA0000D9B002B05DD08980A991A1C00F068FC83
:104BB0000A900E9B002B05DD391C08981A1C00F08A
:104BC0005FFC071C139B002B1ED00A98391C00F0B9
:104BD000A9FC002818DA039B0898013B03930A9963
:104BE00000230A2200F0DDFA109B0A90002B00D16E
:104BF0007FE1311C002308980A2200F0D2FA0B9BB7
:104C0000061C002B3CDC7DE1099B002B2EDC209B4D
:104C1000022B2BDD099B0B930B9B002B10D1391C16
:104C20000898052200F0BDFA071C0A98391C00F00C
:104C300079FC00280EDC03E02F1C00E000273E1C5E
:104C4000219BDB4303930C9B04930CE02F1C2E1C35
:104C5000119B03930C9B0C9A013304933123137023
:104C6000039B01330393099600261AE1109B002B46
:104C700004D1099B0B930C9D0A9CD0E0099B0B93DC
:104C8000002C05DD311C0898221C00F0F9FB061CE5
:104C90000996002D12D07168089800F031FA311C85
:104CA000041C33690C319A1C92000C3000F01FFA7E
:104CB0000898211C012200F0E3FB09900C9B0C9A40
:104CC0000E930B9B0A9C013BD3181093391C201C9C
:104CD000FFF799FA031C0F903033311C201C0D9301
:104CE00000F020FC391C0B90099A089800F035FC64
:104CF00001230493C368051C002B04D1201C291C2C
:104D000000F010FC04900898291C00F031FA049B74
:104D1000209A134310D1069A013313420CD10D98F7
:104D20000A9439283DD00B9B002B01DD0F983130C0
:104D30000E9B013304933EE00B9B002B05DA049B92
:104D40000D9D0A94002B09DC1CE00B9D209B1D434C
:104D50001ED10123069A13421AD1F0E7211C0898AC
:104D6000012200F08DFB391C0A9000F0DBFB0028CB
:104D700003DC07D10D9BDB0704D50D9B392B10D02D
:104D80001D1C01350E9B013304930E9B1D7088E0A2
:104D90000E9B5D1C049B002B10DD0D9B0A94392B90
:104DA00006D10E9B0E9A013304933923137060E0F1
:104DB0000D98049501300E9B187072E06A463421FC
:104DC000521812780E9B04951A70109A93423FD095
:104DD000211C0A220023089800F0E3F9099B041C17
:104DE000311C08980A229E4205D1002300F0D9F90F
:104DF000061C09900AE0002300F0D3F90999061C6B
:104E00000A220898002300F0CCF909900E955DE77E
:104E1000211C08980A22002300F0C3F9041C201C5E
:104E2000391CFFF7F0F934226B4630309B180D9097
:104E30001B780B9A2B700C9B0135EB1A9342E7DB26
:104E4000131E00DC0123099600260C9AD318049344
:104E5000211C0898012200F013FB391C0A9000F075
:104E600061FB002805DC15D10D9BDB0701D411E0A7
:104E70000493049B013B1A78392A08D10C9A934277
:104E8000F6D1039B013303933123137009E0013200
:104E90001A7006E0049B013B1A78302A01D1049372
:104EA000F8E70898391C00F063F9099B002B0ED035
:104EB000002E05D09E4203D00898311C00F058F90E
:104EC0000898099900F054F901E0119B03930898A0
:104ED0000A9900F04DF90023049A0C981370039B73
:104EE000229A01331360249B002B10D0049A1A607D
:104EF0000DE00B9B002B00DDBDE6209B022B00DDAF
:104F00008AE6B8E6209B022B00DD85E6B8E61BB0FA
:104F1000F0BDC04608B5024900F0AEF808BDC04675
:104F2000555E0000002310B5041C036043608360DD
:104F300081814366C281036143618361191C082238
:104F40005C30FBF765F9054B24626362044BA36296
:104F5000044BE362044B236310BDC046C55A0000F6
:104F6000ED5A0000255B0000515B000070B568251C
:104F70004B1E5D430E1C291C743100F001FC041E05
:104F800008D000212A1C016046600C30A060683205
:104F9000FBF73EF9201C70BD836913B5002B28D1A7
:104FA0008364C3640365134B134A1B6882620193D5
:104FB000984201D101238361041C00F01FF8606056
:104FC000201C00F01BF8A060201C00F017F8042142
:104FD000E06000226068FFF7A5FFA06809210122B8
:104FE000FFF7A0FFE06812210222FFF79BFF0123D9
:104FF000A36113BD6C790000154F0000F8B51D4B7F
:10500000061C1D68AB69002B02D1281CFFF7C4FFEA
:105010004835AC686B68013B05D40C22A75E002FB5
:1050200010D06834F7E72B68002B06D1301C042120
:10503000FFF79CFF2860002801D02D68E9E70C23CA
:10504000336016E00123201C5B42E3810233A3811D
:1050500067662760A760676027616761A7615C304A
:10506000391C0822FBF7D4F8201C6763A763A764E8
:10507000E764F8BD6C790000F7B5041C071C002636
:1050800001914834002C16D06368A5680093009BFA
:10509000013B00930DD4AB89012B08D90E22AB5EE6
:1050A000013304D0381C291C019B984706436835FE
:1050B000EDE72468E6E7301CFEBD000000487047BD
:1050C0007C00002008B5034B011C186800F058FB59
:1050D00008BDC04660000020C9B28218904204D0CA
:1050E00003788B4202D00130F8E70020704700239C
:1050F00010B5934203D0CC5CC4540133F9E710BD22
:1051000070B5466A041C0D1C002E07D11020FFF755
:10511000D9FF6062466086600660C660666AF368B2
:10512000002B09D0626AAB00D268D3181868002837
:105130000ED002681A6017E0201C0421212200F022
:10514000CBFA636AF060DB68002BEBD100200EE045
:1051500001210E1CAE40721D9200201C00F0BCFA12
:105160000028F3D04560866000230361C36070BDF2
:1051700070B5456A061C0C1C002D07D11020FFF7E6
:10518000A1FF7062456085600560C560002C07D096
:10519000726A6368D2689B00D3181A6822601C6028
:1051A00070BDF7B51E1C14239C46071C0C1C002068
:1051B0000D698C44634619881B6851431B0C53438B
:1051C00089190E0CF31889B21E0C1B045B1861467A
:1051D000013008C18C46A842ECDB002E1BD0A3682E
:1051E0009D4212DB6368381C591CFFF789FF211CA4
:1051F000236901909A1C0C3192000C30FFF777FF65
:10520000211C381CFFF7B4FF019C2B1D9B00E318E9
:1052100001355E602561201CFEBD0022031C010CCF
:10522000914201D103041032190E01D108321B0240
:10523000190F01D104321B01990F01D102329B00D9
:10524000101C002B03DB20205B0000D5501C704796
:105250000722036810B5011C1A400CD0012400205D
:10526000234223D10222134203D0E340201C0B60CF
:105270001CE09B0818E098B2002801D110221B0CFA
:10528000D8B2002801D108321B0A180701D1043214
:105290001B09980701D102329B08D80704D45B0888
:1052A0002020002B02D00132101C0B6010BD10B565
:1052B0000C1C0121FFF724FF01234461036110BD91
:1052C000F0B50B69141C126989B00D1C934201DA08
:1052D000251C0C1C2F692669AA68BB1969680093F4
:1052E000934200DD0131FFF70BFF011C009B1431DD
:1052F000844698000B1C0818834202D2002204C383
:10530000FAE71435BF00EB191434B6000493A3195F
:1053100002950693069B9C4256D223880393002B4A
:1053200022D00E1C0027029B0193019B039D04CBFE
:10533000059601933388079393B26B43079D120C34
:10534000EB183568DB192F0C039D6A43BA181F0C44
:10535000D219170C9BB21204134308C6019A049B7E
:105360009A42E2D3059B5F6023681B0C019321D016
:1053700000220D1C0B68029F03923E88019A9BB28B
:1053800056432A680595120CB218039E921916040A
:1053900033432B6008CF019E1B0C7343AE88120C65
:1053A0009B199B181A0C0392049A0435BA42E4D84C
:1053B000059A536004340431ACE704380368002BC9
:1053C00005D1009B013B0093009B002BF5DC63465D
:1053D0006046009A1A6109B0F0BD00000323F7B5DA
:1053E0001340051C0E1C141C002B07D0224A013B45
:1053F0009B009A580023FFF7D4FE061CA3100193CC
:1054000037D06C6A002C07D11020FFF75BFE686272
:10541000446084600460C4606F6ABC68002C10D172
:10542000281C1649FFF743FF0023B860041C0360E3
:1054300007E0019B5B1001931BD0206800280FD070
:10544000041C019BDB07F4D5311C221C281CFFF730
:1054500037FF071C311C281CFFF78AFE3E1CE8E7BB
:10546000281C211C221CFFF72BFF00232060036057
:10547000E6E7301CFEBDC046587E00007102000009
:10548000F0B50C1C171C2369551185B0EB1801935E
:10549000013300934968A3680290009A9A4202DDA2
:1054A00001315B00F9E70298FFF72AFE021C061C97
:1054B00000231432AB4204DA00209900505001332B
:1054C000F8E7EB43DB171D40231CAD00551922699B
:1054D000143392009A1894461F22174014D00132B8
:1054E000D21B039200221968281CB9400A4304C544
:1054F00004CB0399CA409C45F5D84260002A07D0E6
:10550000019B0233009303E004CB04C59C45FBD808
:10551000009B0298013B3361211CFFF729FE301CE0
:1055200005B0F0BD03690A6910B59B1A041C181E6A
:1055300012D1930014341431E218C918043A043912
:1055400013680868834204D083429B4101201843BA
:1055500002E0A242F2D8002010BDF0B5071C85B0D1
:10556000081C0C1C111C151CFFF7DCFF061E07D1C4
:10557000381C311CFFF7C4FD01234661036155E06F
:1055800000230193984204DA231C2C1C1D1C0123C8
:105590000193381C6168FFF7B3FD019B26692F1C3E
:1055A000C3601434B300E318021C02932B69002576
:1055B00014379B00FB180393143208CC69469C46B1
:1055C00008CF0432009363468B808B885D19009B63
:1055D0009BB2EB1A65460193009B2D0C190C019BA5
:1055E000691A1D14131F9C466B4649199B880D149C
:1055F00009040B4361460B60039B9F42DDD3029974
:10560000131C8C420BD208CC99B249190D141B0CF7
:10561000EB181D1489B21B040B4308C2EFE7043BCF
:105620001A68002A01D1013EF9E7066105B0F0BD14
:10563000F7B51D1C0121089F141CFFF761FD2B030A
:105640006D00061C1B0B6D0D02D08022520313430C
:105650000193002C18D068460094FFF7F9FD009CD8
:10566000002809D02023019A191A131C8B40C2402C
:1056700023437361019200E07461019CB461631E75
:105680009C410134346107E001A8FFF7E1FD0124EA
:10569000019B346173612030002D06D00B4BED1857
:1056A00035232D183D60181A0BE0094BC018094B23
:1056B0003860E3189B00F3185869FFF7AEFD6401EA
:1056C000201A099B1860301CFEBDC046CDFBFFFFB1
:1056D000CEFBFFFFFFFFFF3F4A4338B5111C141CF0
:1056E00000F04EF8051E03D00021221CFAF790FDB1
:1056F000281C38BD30B500293ED004390B68002B7A
:1057000000DAC9181D4A1368141C002B02D14B6023
:10571000116031E099420DD208680A189A4203D10B
:105720001368C3180B6053684B60216024E08A4201
:1057300003D8131C5A68002AF9D11D685C198C42E1
:105740000BD10968691858181960904214D1106873
:105750005268091819605A600EE08C4202D90C2375
:10576000036009E008680C18944203D11468526879
:10577000001908604A60596030BDC046FC04002032
:10578000032370B5CC1C9C430834051C0C2C01D29F
:105790000C2405E0002C03DA0C2300202B6042E0EF
:1057A0008C42F9D3204A1368101C191C002913D00D
:1057B0000A68121B0DD40B2A02D90A608B181FE04D
:1057C0008B4202D15A6802601BE04A685A600B1C87
:1057D00017E00B1C4968E9E7144E3368002B03D12E
:1057E000281C00F05DF93060281C211C00F058F9DD
:1057F000031C421CD0D00322C61C964386420AD109
:105800001C60181C07210B301A1D8843821A0AD00D
:105810005142995007E0311A281C00F041F9431C0D
:10582000BAD0331CECE770BDFC040020F804002063
:10583000936810B5013B9360002B05DA9469A3428D
:1058400008DBCBB20A2B05D01368581C1060197006
:10585000C8B201E000F082F910BDF8B5061C0F1CBB
:10586000141CD518AC4208D02178301C3A1CFFF724
:10587000DFFF0134431CF5D100E00020F8BD00003B
:10588000F0B59FB0061C0F1C02920593002804D0AF
:105890008369002B01D1FFF77FFB794B9F4201D138
:1058A000776808E0774B9F4201D1B76803E0764BF9
:1058B0009F4200D1F768BB891B070AD53B69002BC3
:1058C00007D0002306AD6B6120336B761033AB76C7
:1058D0003DE0301C391C00F0ADF90028F1D001206A
:1058E0004042CAE0059A111D12680591002A7EDB2C
:1058F0000992013423782E2B00D189E02178634866
:105900000322FFF7E9FB002808D0604B0134C01ADE
:1059100040238340181C2B68184328602178631C9F
:105920005B48062202932976FFF7D6FB002800D1B8
:1059300091E0584B002B00D084E00722059B0733F1
:105940009343083305936B69039A9B186B61029C20
:105950002378002B04D1029BE31A049311D003E0B7
:10596000252BF8D00134F3E7049B301C391C029A34
:10597000FFF773FF431C7BD06A69049B9446634422
:105980006B612378002B73D00122002352426A609E
:1059900002A95432521801342B60EB60AB601370D3
:1059A000AB6521783C480522FFF796FB002809D01B
:1059B000394B0134C01A01238340181C2B6818434B
:1059C0002860EEE72B68DA0604D55322202102A8CE
:1059D000121811701A0704D553222B2102A812188D
:1059E000117022782A2A00D17CE7099B05E05242F7
:1059F000EA60022213432B607BE72278303A092ABF
:105A000004D80A214B4301349B18F6E7099371E748
:105A100063782A2B09D1059B02341A1D1B68059255
:105A2000002B0DDA01235B420AE0002301342278C7
:105A3000303A092A04D80A214B4301349B18F6E76F
:105A400007935BE705AB0093301C291C3A1C134BF2
:105A5000FDF7CCFF07E005AB0093301C291C3A1C76
:105A60000E4BFEF76FFA0390039B013300D06AE7F9
:105A7000BB895B0600D532E70B981FB0F0BDC0466E
:105A8000007D0000207D0000407D00006A7E000057
:105A90006E7E0000ED390000647E00005B5800005F
:105AA00038B50023064C051C081C236001F042FF9A
:105AB000431C03D12368002B00D02B6038BDC046A7
:105AC0000405002038B50C1C0E25495F00F05AFA79
:105AD000002803DB636D1B18636503E0A289024B9A
