:020000021000EC
:10B000000040002075E10100B5E10100B7E1010059
:10B010000000000000000000000000000000000030
:10B02000000000000000000000000000B9E1010085
:10B030000000000000000000BBE10100BDE10100D4
:10B04000BFE10100BFE101001DC80100BFE1010037
:10B05000BFE101000000000045C20100BFE10100A6
:10B06000BFE10100BFE10100BFE10100BFE101005C
:10B07000BFE10100BFE10100BFE10100BFE101004C
:10B08000BFE1010069B50100BFE10100BFE10100BE
:10B0900045B60100BFE10100E5E00100BFE10100AC
:10B0A000BFE10100BFE1010000000000000000005E
:10B0B0000000000000000000000000000000000090
:10B0C00010B5064C2378002B07D1054B002B02D07E
:10B0D000044800E000BF0123237010BD7820002049
:10B0E00000000000D8E2010008B5084B002B03D097
:10B0F0000748084900E000BF07480368002B00D15B
:10B1000008BD064B002BFBD09847F9E70000000074
:10B11000D8E201007C200020742000200000000004
:10B12000164B002B00D1144B9D46402292029A1AD6
:10B13000924600218B460F461348144A121A00F01B
:10B1400067F80F4B002B00D098470E4B002B00D018
:10B1500098470020002104000D000D48002802D06F
:10B160000C4800E000BF00F02DF82000290001F09D
:10B17000F7FC00F011F8C046000008000040002075
:10B180000000000000000000782000201C260020A5
:10B190000000000000000000084B10B5041C002B4C
:10B1A00002D0002100E000BF054B1868836A002B25
:10B1B00000D09847201C00F033F8C0460000000083
:10B1C000FCE101000E4B70B500251E1C0D4CE41A6D
:10B1D000A410A54204D0AB00F35898470135F8E716
:10B1E00002F0FEFF084B00251E1C084CE41AA410B8
:10B1F000A54204D0AB00F35898470135F8E770BD7D
:10B200006C2000206C2000206C200020702000208A
:10B21000031C8218934202D019700133FAE7704779
:10B22000FEE7C046F8B54D465F4656464446F0B484
:10B23000224B1978994600292AD0214B002598469F
:10B24000204B214F01269A4603E00135EDB28D4295
:10B250001ED243461B68321C9C46EC006444207896
:10B260003B6882401342F0D093433B6000F0E0FF24
:10B27000331C22785146934009680B40011C9140D1
:10B280008B420BD04B4601351978EDB28D42E0D39D
:10B290003CBC90469946A246AB46F8BD61686378CF
:10B2A0008B460029EED0591E4C424C41211A4B428C
:10B2B0004B41101CD9B2D847E4E7C0469C2000207F
:10B2C00098200020C0200020C4200020F8B5124D96
:10B2D000071C281C00F0E2FC002807D10124BC4018
:10B2E0000E4E3368234202D0A3433360F8BD381CAE
:10B2F00000F09EFF0A4A136800280BD02343136016
:10B300003368281C1C43074B00221968346000F086
:10B3100049FCEBE7A343F2E7A0200020C420002073
:10B32000C020002094200020F0B54F464646C0B40F
:10B33000141C071C83B00E1C0720042A04D803B079
:10B340000CBC90469946F0BD00F036FE00282FD088
:10B350001A4B1B4A1F601B4B751E1E701A4BEDB219
:10B360001C6000231360194A1360002E1AD0184B7A
:10B3700001AC994603230026984600E01D1C424676
:10B38000EB00FB182270A670E6709A78187862704D
:10B39000211C4A4600F01AFE0028D0D16B1EDBB2F9
:10B3A000002DEBD100210B4A0B4800F0E1FBC6E772
:10B3B00000F0CEFD0028CBD0C1E7C0469820002089
:10B3C000C02000209C20002094200020C4200020C9
:10B3D000CDB2010025B2010000E2010070B5094DB7
:10B3E0002B78002B0BD00024074E3268E300985CCA
:10B3F000012100F099FE2B780134A342F5D80020FA
:10B4000070BDC0469C2000209820002070B5094DDA
:10B410002B78002B0AD00024074E3268E300985C9A
:10B4200000F0D6FE2B780134A342F6D8034800F092
:10B4300035FC70BD9C20002098200020A02000201A
:10B44000002300B585B001AA906000210348138055
:10B45000536000F005F805B000BDC0460140000093
:10B46000BFF34F8F034A044BDA60BFF34F8FC046E0
:10B47000FDE7C0460400FA0500ED00E010B5002924
:10B480000DD00923002A01D1181C10BD541E2240E2
:10B49000FAD1826001608480C2600023F4E70E2349
:10B4A000F2E7C046031C10B59C888068DA68121A5F
:10B4B0000420944200D210BDDA68002014401A68BB
:10B4C0001155DA680132DA60F5E7C04610B58468D4
:10B4D000C268031C0520944209D098689A880240EB
:10B4E0001868825C00200A709A6801329A6010BD68
:10B4F00080218023184A8902D1508022D221174B03
:10B50000520289005A5040395A5001222F205A6065
:10B510000138C046C046C046C046C046C046C046C8
:10B52000C046C046C046C046C046F1D19A6000231E
:10B530000B4A2F2013600138C046C046C046C046A3
:10B54000C046C046C046C046C046C046C046C046CB
:10B55000F1D1044A1370704700E100E0001001408F
:10B56000C8200020E8200020A021F0B50023474695
:10B570002B4A490080B45350043153500431535086
:10B58000043153504C39535004315350254B1B68F0
:10B59000002B35D02449002652582449244F0C68EA
:10B5A000141B00222402240A904602E0002D18D029
:10B5B0002B1C1A68A24214D8A41AB6181A7CDD698A
:10B5C000002AF3D0424699691A745A693B68002BE5
:10B5D00019D0101C98470028E8D0FFF731FF002D44
:10B5E000E6D1144B14491A780B789A420ED0134ABC
:10B5F0009B009E5080218023114A49035B00D1505B
:10B6000004BC9046F0BD081C9047CFE70132D3B28E
:10B61000022B01D00B70EAE700230B70E7E7C0466E
:10B6200000100140CC20002004050000C8200020AC
:10B63000D0200020DC200020DD200020E0200020A1
:10B6400000E100E0F0B55F4656464D464446F0B492
:10B65000B44BB54A1B68B54989B001930978137892
:10B66000994200D1B1E10133DBB2022B00D10023BA
:10B670001370AF4A9B009B58AA4A9946019B4B44C2
:10B680001B021B0A136001230493AA4B00241B68AE
:10B690009B46A94BD8461B781A1C0293A74B94468D
:10B6A00007931B6803939F4B1B680693A44B1B785F
:10B6B00005935B466646013EF2B29446FF2A4FD0A0
:10B6C0006246D000039A9246504401784578A942D8
:10B6D000F0D04A005218877801314668C9B27F1A03
:10B6E000B2467E1EB741D2007F425244394017789D
:10B6F000022F0AD0032FEAD1002BE8D01C74DB699B
:10B70000002BFBD145789846E1E75668002B25D001
:10B710009E421AD01F1C00E0171CFA69002AD6D0DE
:10B720009642F9D1321C3D1CBE4200D1EBE01768B5
:10B73000D269EA61002A06D013689A465744176016
:10B7400045784346C3E74578C1E7DE691A1C002EF9
:10B7500000D1DDE0B046331C151CE8E70023B6E756
:10B760006946774A097D181C11706E4A0699039341
:10B77000116041466F4A1160049A002A00D028E106
:10B780005B461B1A5A1E93410025DBB20493079BAC
:10B7900000271B68039E0693624B1B689C46654B03
:10B7A0001B689A46664B1B780593664B01930123F1
:10B7B0009846029B013BDBB20293FF2B00D18FE046
:10B7C000069ADB0093469B44002D27D06968AB683E
:10B7D000281CED696246019C8A1A1202120AA242D2
:10B7E00050D8D31842460360476087600274C7612F
:10B7F000002E56D03168341C994204D35FE01168A2
:10B80000994263D2141CE2695B1A002AF7D10360E3
:10B81000331CC261E0611E1C002DD7D15B465A4625
:10B820001B7852789A42C4D0594649685A008946D2
:10B830005946D2180133DBB20B708978D2004A44E2
:10B8400099424AD011785068331C0129E3D1037C16
:10B8500099464946331C0029DDD191684160D3687F
:10B8600083601469C46052698261059A002AB1D06C
:10B870004A46002142606246019C8A1A1202120A5C
:10B88000A242AED96246511A0902090A99420CD263
:10B8900042465B1A0360476087600274C761002EEE
:10B8A000A8D1031C82461E1CB6E7434607604760CA
:10B8B00087600374C761002EF3D000233168CB1A70
:10B8C0003360031CC66182461E1CA5E7C91A1160BD
:10B8D0000360C261331CE0619DE75B461D70B1E708
:10B8E0005246144B1A60039BB3422FD1049B002B8A
:10B8F0002CD10023124A137009B03CBC90469946E3
:10B90000A246AB46F0BDDE693A1C002E00D021E70E
:10B9100001250D4B9D600023069601369846151CA7
:10B92000059604E7C8200020DC200020DD20002050
:10B93000E0200020CC200020D4200020D8200020AF
:10B94000DE200020FEFF7F0000100140002E63D0AB
:10B95000484B49493568CC58484B494E1B683078AC
:10B96000E21A1202120A03329046002861D04246BF
:10B97000AA4200D22A1CA820D21812023E49130A59
:10B98000C0003C4D0B504A591B1B121B1202120ADD
:10B990001B0203321B0A9A42ABD94B590B502F2082
:10B9A0000138C046C046C046C046C046C046C04634
:10B9B000C046C046C046C046C046F1D18021802363
:10B9C000304A89025B00D15093E7002399460493E3
:10B9D0005BE60025002100244846464613E01A682D
:10B9E00082421CD8DE68801A89181C60DF69002E2C
:10B9F00007D0DD611D1C019A9E608A181202120A8E
:10BA00005A603B1C3E1C002BE9D11F4B1E600023DB
:10BA1000039301330493BAE6FFF76AFD69E78146B1
:10BA2000194903930E604946521A1A600123049380
:10BA3000ADE68020D1274002BF00C851403FC85129
:10BA4000C02280270F48BF0252008750076001279D
:10BA50002F200F600138C046C046C046C046C046D1
:10BA6000C046C046C046C046C046C046C046F1D1EA
:10BA700037707CE70405000000100140C82000205A
:10BA8000E820002000E100E0CC200020F8B54F467F
:10BA90004646C0B40326351C80460F1C141C99462C
:10BAA00015400720002D03D00CBC90469946F8BDE8
:10BAB000002A44D0FFF71CFD4A46224B80201A6022
:10BAC000221C214B18321E70204B62601C607B00D0
:10BAD000DB19DB00D218E260D318C0226361257045
:10BAE0006570A77025726572A77225746574A77456
:10BAF000C524FF21164B40031D60164B52001D70DC
:10BB0000154BA4001D70154B98501A598A433F39A4
:10BB10000A431A51A122186040461149D2008850A8
:10BB2000C42080001C580F4A2240C0242402224313
:10BB30001A500D4B0020CA580C4B1A60B4E7034B47
:10BB40001A60B1E7D0200020D4200020D8200020A7
:10BB5000CC200020DC200020DD20002000E100E0DF
:10BB600000100140FF00FFFF04050000C820002076
:10BB700010B50B4B1B68002B0BD0002A07D00028F8
:10BB800005D0036808201C7C002C04D010BD0720C1
:10BB9000FCE70820FAE759745A610020F6E7C0462E
:10BBA000D8200020F0B5474680B4374B1C68002CE5
:10BBB00008D0002806D00723042905D8181C04BC87
:10BBC0009046F0BD0823F9E74369002BFAD0002521
:10BBD000437CA846012B2FD0EFF30583DB05DB0D5B
:10BBE0001025002B2CD164196378A5785E1CF6B261
:10BBF000AD1B6F1EBD416D422E402578B5421DD054
:10BC00005D00EB186568DB00ED180423002DD5D02E
:10BC1000033B2B7068601D4B1D48C358E960AB6047
:10BC2000434680212B6180236A611A4A5B004903E5
:10BC30006670D1500023C1E78846CDE70423BDE7F5
:10BC4000103BDEB275B2002D13DBAD08114EC035CE
:10BC5000AD00AD5903263340DB00DD402B069B0FC2
:10BC6000DBB20025012BBED00835032BBBD0083535
:10BC7000B9E70F23084D3340AC46083B9B089B00B7
:10BC800063445D680323E6E7D82000200405000034
:10BC90000010014000E100E018ED00E030B52E4A50
:10BCA000031C12680820002A2ED0002B2CD05969C2
:10BCB000002929D000211974EFF30581C905C90DA8
:10BCC0001025002923D155196A78A978541CE4B2AB
:10BCD000091B481E814149420C402978A14214D0D9
:10BCE00051008A186968D2008C4662440420002AF8
:10BCF0000AD0022153601170802380210020174A4E
:10BD000049035B006C70D15030BD0420FCE7103952
:10BD1000CCB260B2002813DB8008104CC030800029
:10BD2000005903242140C900C8400106890FC9B247
:10BD300000250129C7D008350329C4D00835C2E73A
:10BD40000F21074821408446083989088900614449
:10BD500048680321E6E7C046D820002000E100E063
:10BD600018ED00E030B5047885B0012C19D0022C14
:10BD700034D0002C01D005B030BD274C274D201CFD
:10BD8000291CFFF7A3FB002823D0A268E3689A428E
:10BD9000F1D1032302AA1370214B101C1B68984792
:10BDA000E9E743681F4D1978281CFFF77BFB002843
:10BDB00022D1AA68EB689B1A012B25D0A968AA8812
:10BDC000EB685B1A9A42D6D30121174800F078FC41
:10BDD000D1E7281C012100F019FCD6E702AB1C704A
:10BDE000C368012110480193039300F069FC0C4BD8
:10BDF00002A81B689847BEE702AB1C70084B039073
:10BE00001B6802A89847D9E702AB1870044B02A838
:10BE10001B689847D2E7C046F8200020EC2000209D
:10BE2000F020002008210020F4200020F0B51E1C86
:10BE3000214B051C89B00C1C1A600720002906D074
:10BE40008A881E480968FFF719FB002801D009B04D
:10BE5000F0BDA168A2891A48FFF710FB0028F6D1AF
:10BE60006A46184B684692CB92C292CB92C212CBD2
:10BE700012C2AB6806932B7906775A1E934103755D
:10BE80006B790E22591E8B415B421A404275EB784A
:10BE90000D490293AB7803932B7801936B78009351
:10BEA00000F024FB0028D2D100F0A2FC01210748B9
:10BEB00000F006FCCBE7C046F0200020082100205F
:10BEC000F820002004E2010065BD0100F4200020FC
:10BED000F0B5002820DBFF271B4B03229C463B1CB0
:10BEE0008408C026C0B20240D2009340A40064443B
:10BEF000B600A5599D438B013B409340191C294333
:10BF0000A1511F2318401E3B8340C022181C0E4B1A
:10BF1000520098501860F0BDFF260C4A0324944646
:10BF2000321C0F23C0B20440E400A2400340083B8F
:10BF30009B089B006344DD6995438A013240A2401F
:10BF4000111C2943D961DCE700E100E000ED00E0CD
:10BF500038B54425164C0820635D002B00D038BD51
:10BF60004022FF21013BA3540132A1540132A354CA
:10BF7000236201326362A362E36223636363A363A8
:10BF8000E3630238FC39A35423606360A360E36079
:10BF900023616361A361E361FFF79AFF8021C123FD
:10BFA000044A9B000906D150012300206355D6E7BF
:10BFB00018210020006000404423034AD05C431E47
:10BFC0009841C0B27047C04618210020F0B54746DE
:10BFD00080B4524C0825231820331E787F2E03D8B6
:10BFE000281C04BC9046F0BDCD78AC46002D36D060
:10BFF0002568013500D187E0042300269846731C8C
:10C000009D006759013733D0B31C984525D99D0051
:10C01000675901372CD0F31C98451ED99D006759EC
:10C02000013725D0331D984517D99D006759013731
:10C030001ED0731D984510D99D006759013717D040
:10C04000B31D984509D99D006759013710D00736AF
:10C05000B04502D9E369013308D00425C0E725695A
:10C06000013555D0082304269846C8E707231C2528
:10C07000625162462718DEB220373E70002A02D194
:10C08000E3183C3318708B78002B15D1031CA025C6
:10C090004A78C133FF3392009B00ED055A51CB78AB
:10C0A000002B15D176B2A4193C340B7822789B0171
:10C0B00013432370002593E7A022D2059446E02580
:10C0C000022783006344ED005A59BA435A51E6E708
:10C0D000A22476B2124BB600F318E4000A781D5978
:10C0E0001049000229401951F82149010840061C55
:10C0F000C0211004021C301C89021D590A40104343
:10C100002843185100256BE7002622601E70BAE70D
:10C11000042522611D702E1C2B1CB1E71821002064
:10C1200000600040FFE0FCFFF0B5264D2C182034E5
:10C13000227853B2032B18DDEB183C331B789B0994
:10C14000032B32D0012B39D0C025AD02A023DB0553
:10C150009C46E02380006044DB00C4581A4921401B
:10C16000C150C2582A43C250F0BD032AFCD8174818
:10C17000A227844601269A006244FF00D05930432A
:10C18000D0511A1C604600274032920092B21750DC
:10C190000029E9D00022A25692005259002AE3D089
:10C1A000C1229E4092008650DEE7A223A022DB003F
:10C1B000D205D258012383401A42C5D18025AD0251
:10C1C000C4E7C04618210020FFFFFCFF00600040CC
:10C1D00010B5144B1B1820331A7853B2032B12DC02
:10C1E000032A0FD8104AA2249446012299006144E0
:10C1F000E400085990439A40131CC222085161463A
:10C2000092008B5010BDA023DB059C46E0238000EC
:10C210006044DB00C158054A0A40C250C258C250AF
:10C22000F0E7C0461821002000600040FFFFFCFF3F
:10C23000A223A022DB00D205D358C340181C01233F
:10C2400018407047F0B544465F4656464D46F0B438
:10C250009C4A87B013680024012B00D1AEE09A4BB2
:10C260001A68012A00D1B7E0984B1A68012A00D158
:10C27000C2E0974B1A68012A00D1CDE00022954B0D
:10C2800002921A68012A00D1D8E023070BD0E307F5
:10C2900000D5DFE0A30700D5EBE0630700D5F6E0AB
:10C2A000230700D502E1002C06DB07B03CBC90461A
:10C2B0009946A246AB46F0BD002301270493C03344
:10C2C00099460126844D7F4200230393E023DB003F
:10C2D00000249846231C4033E95C4BB201332CD038
:10C2E000C9B24B46081C98433B1CC3401E4224D095
:10C2F0008B0901932B1820331B785BB29B00EB5802
:10C300009C46002B35D0331C83409A46019B032B5F
:10C3100035D0A023DB059B46434682005A44D358C0
:10C320000592C022920213401B0C191C53469346DF
:10C33000029A1A4212D1032926D00134042CC9D101
:10C34000039B002BB1D0A223A022DB00D205D3583F
:10C35000029A9A42A9D0049F0293B5E70229ECD130
:10C36000019B032B16D06346002BE6D00199E047D2
:10C37000E3E7019B032BE0D1331C83409A465246EE
:10C38000049B13430493C4E7019B032BEBD180234D
:10C390009B029B4643460599CB589A4652464F4BC3
:10C3A000134042468B508B585A461A43131C424640
:10C3B0008B50039B0133DBB20393D4E7C121484880
:10C3C000890041580B4200D149E73F4B14601A687D
:10C3D0000134012A00D047E7C1224149920089581F
:10C3E00002220A4200D13FE700211960374B144373
:10C3F0001A68012A00D03CE7C122394992008958C5
:10C4000004220A4200D134E700211960304B144362
:10C410001A68012A00D031E7C122314992008958B7
:10C4200008220A4200D129E70021144300221960A2
:10C43000284B02921A68012A00D026E700221A60CF
:10C4400080231B061C43A022A223D205DB00D35865
:10C4500002931AE7A223224ADB00D058D1581E4D7E
:10C46000C00489032B68C00E890F9847A30700D426
:10C4700013E71C4B1A4A184DD058D158C0048903F1
:10C480006B68C00E890F9847630700D408E7A323A1
:10C49000134ADB00D058D1580F4DC0048903AB6854
:10C4A000C00E890F9847230700D4FCE60C4A0E4BB8
:10C4B000094DD058D158C0048903C00E890FEB68CC
:10C4C0009847F0E6006100400461004008610040C8
:10C4D0000C6100407C61004018210020FFFFFCFF40
:10C4E00000600040140500001C050000F0B5574630
:10C4F0004E464546E0B43B4C031CE27E0820002A31
:10C5000004D01CBC90469946A246F0BD002B67D0D3
:10C5100001221868A1258240A020ED00C0054251EB
:10C52000A94603251A68AA46C132FF329200155067
:10C5300000255A68AC46C132FF32920015509F69FF
:10C54000294A2A4D57511D7DA84647465D7D3D43EA
:10C55000274FD5515D681F68A846264D575147465D
:10C56000254D57511D7D012D19D19F683E1CE02797
:10C570007F00B8464644B70066463E50DE68B54088
:10C580004E4685515646DD68C135FF35AD002E500B
:10C590004E46D8689D689051A220C00015501A6977
:10C5A0006160226000290DD0197F0023134A1448CE
:10C5B0001360144A1360C1230B4A9B00D050022021
:10C5C000FFF786FCA0230421074ADB00D15000239B
:10C5D0000122E3752376A375E276A376002090E727
:10C5E000094B95E760210020002000402405000051
:10C5F0006C0500000C050000140500001C21004023
:10C60000800002004421004024E20100F0B5264AE7
:10C61000041C937D1120002B00D0F0BD01259175E5
:10C6200022482349938294600B6005600B60938AD3
:10C63000E05C938A1F4C01339BB293821E4BE05007
:10C640005068002801D00020E7E70027261C1D1CA9
:10C650000130FF30947D938AA34203D312E0938A82
:10C66000834202D00B68002BF9D0938A8342F2D028
:10C670000F60938A9468E45C938A01339BB293823F
:10C680007451E7E78023918A5B0099420AD00849F8
:10C690000B68002BFCD001210020084B19600023FF
:10C6A0009375BAE70F20FAE76021002008200040C8
:10C6B0001C210040002000401C0500000C20004010
:10C6C000F0B5474680B4444B5A68002A05D081260D
:10C6D000C224424DB600A4002E51DC7D002C0DD0AA
:10C6E0001C7E002C1DD0002A00D16EE08121C123C8
:10C6F0003A4A89009B00D15011200FE0D975997EEC
:10C70000D8605C761C7600292BD0002A0DD08121C0
:10C71000C1230020314A89009B00D15004BC9046BF
:10C72000F0BD18611976002AF1D12D4C2D4D2260F3
:10C730002A4A2D489046A322D200944629680668CA
:10C740004A1E91412268C9B2571EBA41D2B2002E88
:10C7500010D1002A27D10029F0D000220320DA7559
:10C76000DCE7204A1160204A116001211B4A116058
:10C770005A68CAE70029F0D1002A16D1D97D0029CC
:10C7800017D10160624641468A585A7ED97D91424E
:10C79000D4D80022DA759B7E002B18D001220F4BD3
:10C7A00000201A60BAE70029D7D100220F20DA75DD
:10C7B000B4E74646614602605A7E7158DE68B1545D
:10C7C0005A7E0132D2B25A76DFE71120A6E7012263
:10C7D000064B00201A60A1E76021002000200040E5
:10C7E0004421004024210040082100400420004052
:10C7F000064A937E002B07D105490B6005490B6063
:10C80000054901330B6093767047C04660210020D4
:10C81000242100400821004000200040C12210B522
:10C82000604B92009A5884B092054DD55E4A1168CB
:10C83000002949D0002111608121C2228900920083
:10C8400099505A4B9A7E002A02D10121584A116010
:10C85000022269460A7090215248C900425842504B
:10C8600069460392DA7D68460A72DA6819680192AD
:10C870000022DA751A765B6898474E4A1368002BD7
:10C8800010D04A4B988A997D81424FD9002111607E
:10C890009A8A9968895C9A8A013292B29A82464B46
:10C8A000404AD150454B1A68002A0BD000221A602A
:10C8B0003E4B9A7E002A02D001213A4A1160DA7D6D
:10C8C000002A42D104B010BDC123364A9B00D35880
:10C8D0005B07D2D53A490B68002BCED0334BD87DBD
:10C8E00000283FD10860A321C90052585A7ED97D43
:10C8F0009142C2D11A7E002A41D19A7E002A02D1E9
:10C9000001212B4A11608120C22226498000920019
:10C910008850002268460121DA755A7E0170027241
:10C92000DA68196801925B689847A6E700201060F2
:10C930000029B7D06A46107011729A689875196804
:10C9400001925B6868469847ACE70022684601217F
:10C95000DA755A7E01700272DA68196801925B68B2
:10C960009847AFE700200860A320C000597E125806
:10C97000D86842545A7E0132D2B25A76B6E7DA7596
:10C980001A69D968DA6000226C46587E1A765A769F
:10C990000132207201912270196868465B689847DD
:10C9A0006BE7C046002000402421004060210020A9
:10C9B000042000401C2100401C05000044210040D0
:10C9C0000821004048DF704770DF704771DF704713
:10C9D00073DF704776DF70477ADF70477CDF704720
:10C9E0007FDF7047A9DF7047A023DB05002907D14F
:10C9F0008020A1220004D2009850054A9950704727
:10CA00008021034A090499500021043A9950F6E71D
:10CA10000C05000008B5FEF713FD08BD08B5037846
:10CA2000002B00D008BD054B3B211888FFF7D2FF33
:10CA30000028F7D0FEF704FDF4E7C0466020002090
:10CA400008B5112809D1064801F0FAF90823021C9B
:10CA50009A4304D0034B984201D0FEF7F1FC08BD85
:10CA60007C2100200230000030B5038887B0041C10
:10CA7000112B3AD021D9132B13D0522B08D1354B7F
:10CA80000021188800220023FFF7ACFF002811D1F5
:10CA9000201C01F059F83048211C01F0AFF807B014
:10CAA00030BD2C4B8521188800220023FFF798FF0A
:10CAB0000028EDD0FEF7C4FCEAE7102BE8D1A02354
:10CAC0008021264ADB05C903A12080259950002139
:10CAD000C000AD0319501D509950A2881D4B1A80FB
:10CAE000FEF77CFC0028D3D0E4E7A0238021A1221C
:10CAF000DB05C903D20099500021184A9950012240
:10CB0000144B52421A80FEF781FC00281FD10021ED
:10CB100018226846FEF77CFB00236A4669461370BC
:10CB200013724022684601930A824B82FFF750FF3E
:10CB3000002809D1A0238021084ADB0589039950E8
:10CB40000021043A9950A3E7FEF77AFCF2E7FEF7DA
:10CB500077FCDCE7602000207C2100200C05000031
:10CB6000F0B5A020E0250023012403219FB02D046F
:10CB7000C0050133202B0BD02A1C1A411442F8D0D7
:10CB80001A1CC132FF32920001331150202BF3D115
:10CB9000A023E021A122DB050904D2009950002145
:10CBA0007F4A0020995005317E4A0023FEF76EFF30
:10CBB000002801D0FEF744FC7B4801217B4AFEF7A8
:10CBC000B3FB002801D0FEF73BFC794E02AD2B1CD5
:10CBD000321C13CA13C3774B774A1093802310ACCF
:10CBE0005B006360A260E360281C211C0022FD3B07
:10CBF000FFF71CF9002801D0FEF722FC311C01AF21
:10CC00000C310422381C01F0DBFA381C6B49482235
:10CC1000002301F01FFA002801D0FEF711FC0020CC
:10CC20000121221C01F076FA002801D0FEF708FC51
:10CC3000634801F087FA002801D0FEF701FC201CB0
:10CC400001F08AFA002801D0FEF7FAFB281CFFF752
:10CC5000BDFE002801D0FEF7F3FB0020291CFFF7E2
:10CC6000B3FE002801D0FEF7EBFB564801F030FA86
:10CC7000002801D0FEF7E4FB0F2101222B78524E51
:10CC80008B43134310220B401343301C2B7001F0D5
:10CC9000A0FA311C82B2281CFFF7A0FE002801D0A8
:10CCA000FEF7CEFB201C00210822FEF7B1FA50232C
:10CCB0002380503363800023A3809133FF33201CF3
:10CCC000E380FFF789FE002801D0FEF7B9FB3F4E55
:10CCD0003F4B301C211C109300F0AEFF002801D008
:10CCE000FEF7AEFB3B4B00213B80B37C3822BB7090
:10CCF000281CFEF78DFA022301262B700021043335
:10CD0000201C3822AE70EB70FEF782FA281C211C22
:10CD10002682676100F0D0FB002801D0FEF790FB6F
:10CD20001C22201C0021FEF773FAA022120362606D
:10CD3000A02200239202A26003221093E3812374B5
:10CD4000254B201C6361254B2273A36100F0C0FEBC
:10CD5000002801D0FEF774FB1822201C0021FEF7EA
:10CD600057FA00234022201C237063602372228222
:10CD70006382FFF72DFE002801D0FEF761FBA023A0
:10CD80008021074ADB05890399500021043A995014
:10CD9000FFF718FE0028FBD0FEF752FBF8E7C0466D
:10CDA0000C050000E0220020642000206606000040
:10CDB00044E2010098210020A824002098220020AD
:10CDC000E81F002069CA010054E201007C21002014
:10CDD000E9C90100231500001DCA010015CA0100A0
:10CDE00071DF704772DF704779DF70477DDF704712
:10CDF00065DF7047F0B50488051C83B00720012C5F
:10CE000004D01488A01C984202D90C2003B0F0BDB5
:10CE10002E78012E04D16E7802363619B342F4D33F
:10CE2000023B1C1B6B460F1CA4B20818991D161C54
:10CE3000DC80FFF7DBFF0028E8D12B78022B18D02D
:10CE4000012B11D0231C0821FE2BDED83288581C60
:10CE5000B85432880020013292B23280B9543288FC
:10CE600001329B183380D1E76B789C42EBD2231CB4
:10CE7000E9E76B46DB8809219C42E5D2231CE2E707
:10CE8000F0B55F46564644464D46F0B485B09A46E6
:10CE90000EAB80CB061C1B8800919B463B889046BE
:10CEA00001930388002B5BD00023994602AB00243A
:10CEB000DD1C03E033880134A3422ADD7368A1003E
:10CEC0009C460422614403A801F07AF903A8291CB6
:10CED0000022FFF78DFF002826D12B784345E9D1AA
:10CEE0004B46002B27D043463A88D3185B4539DCA4
:10CEF000524403A8291CFFF77BFF002814D13B886C
:10CF00002A780134D3183B80012399463388A34201
:10CF1000D4DC4B46002B23D03B88019A013B9B1A63
:10CF20009BB20C20FF2B18D905B03CBC904699460B
:10CF3000A246AB46F0BD42463B889A1802325A459B
:10CF400010DC69465246013309789BB23B80D154CC
:10CF50003A88013292B23A80CAE7111C52465354C1
:10CF60000020E1E70C20DFE7F0B55F4656464D466E
:10CF70004446031C0020F0B417881080586B87B01B
:10CF8000002800D16FE10478022F18D90220112562
:10CF900008701088013080B210800D541088013064
:10CFA00080B210800C5414880134A4B21480186B21
:10CFB000002800D177E0251C1235BD4207D90C208E
:10CFC00007B03CBC90469946A246AB46F0BD112541
:10CFD0000D551488013D0134A4B214800D551488F8
:10CFE0000134A4B21480C57B0D5514880134A4B259
:10CFF0001480857B0D5514880134A4B21480457BC0
:10D000000D5514880134A4B21480057B0D55148885
:10D010000134A4B21480C57A0D5514880134A4B229
:10D020001480857A0D5514880134A4B21480457A91
:10D030000D5514880134A4B21480057A0D55148856
:10D040000134A4B21480C5790D5514880134A4B2FA
:10D05000148085790D5514880134A4B21480457963
:10D060000D5514880134A4B2148005790D55148827
:10D070000134A4B21480C5780D5514880134A4B2CB
:10D08000148085780D5514880134A4B21480457835
:10D090000D5514880134A4B2148000780855148802
:10D0A0000134A4B214802E201D5C002D00D0DCE0E1
:10D0B0001E1C2D23F35C151C8846002B00D0F7E0C6
:10D0C000B378002B00D024E1F378002B16D0E21CBB
:10D0D000BA4200D973E70222414640460A5501216F
:10D0E0002A88013292B22A8081542A88013292B26F
:10D0F0002A8083542C880134A4B22C807368002BBE
:10D1000016D01A78E31CBB4200D958E702234146E7
:10D1100040460B550A212B8801339BB22B80C1540A
:10D120002B8801339BB22B80C2542B8801332B8078
:10D130003389002B00D010E1338A002B00D076E138
:10D14000338B002B00D08BE1336A002B4AD02A8826
:10D150000C20911DB94200D932E7198805388B4659
:10D16000052900D82CE7CC4C5C44A4B2A146CB4C9A
:10D17000A446A14500D823E75C88A246052C00D828
:10D180001EE7C54C6946A146D1444C46CC81CC89AA
:10D19000644500D814E7C24CA34504D0A24502D090
:10D1A000D34500D90CE70521404681542A880D312A
:10D1B000013292B22A8081542A88013292B22A80A6
:10D1C000198842441170090A51702A88023292B2B9
:10D1D0002A805988131C43441970090A59702B88F6
:10D1E00002332B80746A002C32D0A2882988131D48
:10D1F0005B180C20BB4200D9E2E6931CFE2B00D941
:10D20000DEE6434603325A54FF2241462B8801335F
:10D210009BB22B80CA542B8801339BB22B8022886F
:10D2200043441A70120A5A702B8802339BB22B8027
:10D23000A288002A0CD0A1680538002900D1BFE6D9
:10D240004344181C00F0BCFF2A88A388D3182B8005
:10D250002C23F35C002B00D098E03378002B00D017
:10D26000DEE00020ACE60024A1E6E61C2238BE4247
:10D2700000D9A5E602260E551C241088013080B284
:10D2800010800C541088013080B21080022D00D123
:10D290000FE100D806E1032D00D108E1042D00D0F4
:10D2A000F7E003240C5414880134A4B21480FFE680
:10D2B00009340C20BC4200D982E604A8FFF790FD97
:10D2C000002800D07CE6414608222B88CA542B88CF
:10D2D000133201339BB22B80CA5402AB9C46092106
:10D2E0002888153A013080B228806144404400F01B
:10D2F00067FF2B8802AA0633127A9BB22B80002A82
:10D3000000D001224146CA542C880134A4B22C809A
:10D31000D6E604340C20BC4200D951E604A8FFF73D
:10D3200063FD002800D04BE6032241462B88CA54F7
:10D330002B88163201339BB22B80CA542B8802AA49
:10D3400001339BB212892B8043441A70120A5A701F
:10D350002C880234A4B22C80B6E6341C0834009524
:10D360000197201C022102224346FFF789FD002875
:10D3700000D025E600950197201C06211022434687
:10D38000FFF77EFD002800D01AE6D5E6B46A002C2F
:10D3900000D17EE0A3880233FE2B00D90FE60022E5
:10D3A0009146163292461632288893460BE04B4639
:10D3B0005C00B36A4C449C46A4006444A3880233D6
:10D3C000FE2B00D9FBE542465146013313542B880E
:10D3D00001339BB22B80D1542B8801339BB22B801D
:10D3E000228843441A70120A5A702888023080B288
:10D3F0002880A288002A0AD0A168002949D0404488
:10D4000000F0DEFE2888A388C01880B228804B4632
:10D410000133DBB299465B46F35C4B45C7D81CE74A
:10D42000301C41462A1C3B1CFFF7E4FCC8E5341CB9
:10D43000103400950197201C032102224346FFF778
:10D440001FFD002800D0BBE500950197201C072197
:10D4500010224346FFF714FD002800D0B0E56FE628
:10D46000341C183400950197201C142102224346D5
:10D47000FFF706FD002800D0A2E500950197201CCB
:10D48000152110224346FFF7FBFC002800D097E54A
:10D490005AE6072094E5C0467FF3FFFF7DF30000C6
:10D4A000FFFF0000012DF4D100240C54FBE60E54C4
:10D4B000F9E601240C54F6E6F0B54E4657464546CB
:10D4C0001F23E0B496B002AA041C0E1CD3810028CE
:10D4D00000D171E0C3785B0767D5002302AA93816E
:10D4E000436B002B00D13EE11B78022206ADAB70EE
:10D4F00003230327052104202A700F326A7002AA31
:10D500009381226B002A3AD0112306ADEB55013BE3
:10D510002B54D37B6B54907B4B1CE854507B8B1C5F
:10D52000E854107BCB1CE854D07A0B1DE854907A59
:10D530004B1DE854507A8B1DE854107ACB1DE854EB
:10D54000D0790133E85490790133E85450790133AC
:10D55000E85410790133E854D0780133E8549078D6
:10D560000133E854013302A883815078E854013331
:10D5700002A883811278EA54013383819BB22E2260
:10D58000A25C002A00D0F1E12D22A25C002A00D08A
:10D5900011E1A278002A00D03DE1E278002A35D0DE
:10D5A000D91C1F2925D90C2000E0072016B01CBC6F
:10D5B00090469946A246F0BD002502AB9881002E08
:10D5C00000D1D4E0F378002BEFD102AA94460E23C9
:10D5D0006344301C0EA91A1CFFF7C6FC0028E5D1D5
:10D5E00002AB9B7B0EAA02A9097B281CFFF7FAFB62
:10D5F000DCE70220012706ADE854581C02339BB239
:10D6000080B22F54EA548BB202AA93816268002A36
:10D610000FD01078DA1C1F2AC5D802210A2706ADC0
:10D62000E954591C02339BB289B26F54E85402ABDF
:10D630009A812389002B00D09EE0238A002B00D002
:10D640000AE1238B002B00D025E1236A002B43D075
:10D6500002AA92890C20911D1F29A7D818888246FA
:10D6600055460720052DA1D9D24D5544ADB2AC4643
:10D67000D14DA846AC4599D95D88A946052D00D85D
:10D6800094E7CC4D6F46AC46CC446546FD81FD89A0
:10D69000454500D88AE7C94DAA4504D0A94502D01E
:10D6A000CA4500D982E70520122706ADA854501CB0
:10D6B00080B22F54901C80B202AFB8811F88281806
:10D6C00007703F0A477004325B8892B2AD182B7026
:10D6D0001B0A6B7002AB9981676A002F2FD0BB8841
:10D6E0000C20991C02AB9B899A1C55181F2D00D940
:10D6F0005CE7FE2900D959E706AD0131E954591C10
:10D7000089B2F330685492B202A98A813988AA1882
:10D710000433117098B2090A02AB51709881BA882B
:10D72000002A0CD0B968002900D13EE7281800F083
:10D7300047FD02ABBA889B89D31802AA93812C2398
:10D74000E15C002900D0C5E006AD2378002B00D1B4
:10D7500035E7201C291C05AA1F23FFF74BFB0028D7
:10D7600000D12CE722E7002702210120C9E602AB05
:10D77000DE810022002336E705AB271C00931F2320
:10D78000083706AD98460193381C022102222B1C53
:10D79000FFF776FB002800D008E705AB009343466F
:10D7A000381C0193062110222B1CFFF769FB00286F
:10D7B00000D0FBE641E709330C201F2B00D9F5E62A
:10D7C0000EA8FFF70DFB002800D0EFE6082202AB01
:10D7D0009B8906ADEA545A1C023398B21B2102AB56
:10D7E0009C4692B2A95416319881614406222818A9
:10D7F00000F0E6FC302002AB02A99B8909180978E9
:10D800009A1D92B2002900D001210733A9549BB27E
:10D8100002AA9381BDE604330C201F2B00D9C5E674
:10D820000EA8FFF7E1FA002800D0BFE60322192175
:10D8300002AB9B8906ADEA545A1C92B2A95402AAC3
:10D84000118E9A1C92B2AD18043329709BB2090A4A
:10D8500002AA69709381A0E605AB271C00931F23E1
:10D86000103706AD98460193381C032102222B1C69
:10D87000FFF706FB002800D098E605AB009343466F
:10D88000381C0193072110222B1CFFF7F9FA0028FE
:10D8900000D08BE6D5E605AB271C00931F23183775
:10D8A00006AD98460193381C142102222B1CFFF769
:10D8B000E7FA002800D079E605AB00934346381C10
:10D8C0000193152110222B1CFFF7DAFA002800D053
:10D8D0006CE6BAE6A76A002F00D166E6BB88023381
:10D8E000FE2B00D95FE602AA9089002290461632EC
:10D8F00091461632924606AD4A4601332B54431CDC
:10D900009BB2EA54831C9BB202AA93813A88EB181B
:10D910001A700430120A5A7080B202AB9881BA8829
:10D92000002A0FD0B968002900D13EE6281800F07F
:10D9300047FC02AB9B89B888C01880B202AB9881C3
:10D940005346E15C43460133DBB298468B4200D339
:10D95000FBE643465F00A36A47449C46BF0067441A
:10D96000BB880233FE2BC7D90C201FE602201C27E0
:10D97000591C06AD89B2E8546F54191889B2824215
:10D980000CD010D9032A0CD0042A00D00DE60322B3
:10D990006A5403339BB202AA9381F5E501226A54CB
:10D9A000F7E76854F5E7012A00D0FEE500226D187C
:10D9B0002A70EEE77FF3FFFF7DF30000FFFF00001A
:10D9C00075DF704776DF70477ADF70477BDF70471F
:10D9D00010B5184B82B01888174B984214D0174ACC
:10D9E000174C13780133DBB21370217B99420DD2AF
:10D9F00000231370237C002B12D16369002B03D00A
:10DA0000002201A80270984702B010BD0D49FFF72F
:10DA1000D7FF0028F8D0A369002BF5D09847F3E78B
:10DA20003B21FFF7CFFF0028E7D0A369002BE4D00C
:10DA30009847E2E7F4250020FFFF0000B42500200E
:10DA4000B8250020F825002030B51B4B1B4A5B8809
:10DA5000118883B099420FD852889A420CD3184B40
:10DA60005B69002B03D0012201A802709847154C76
:10DA70000023237003B030BD124C2378002B08D054
:10DA80000F4B5B69002BF3D0002201A8027098476E
:10DA9000EEE70D4B0A4D1B78002B0BD0A9680B4805
:10DAA0000022FEF77FF80028E2D0AB69002BDFD020
:10DAB0009847DDE76968F2E7AC250020F8250020EB
:10DAC000B8250020A8250020B4250020D42500205A
:10DAD000164938B5021C0B1C32CA32C332CA32C3D3
:10DAE00012681A600022124B01681A70002916D0C1
:10DAF000104C0832201C00F063FB201CFFF764FF71
:10DB000000280BD101220C4B52421A8000220B4BF1
:10DB10000B481A7000210B4AFEF72AF838BD054859
:10DB2000FFF754FF0028EDD0F8E7C046B8250020E5
:10DB3000A8250020F8250020F4250020B425002089
:10DB400064E20100D1D9010010B50388112B31D056
:10DB50001FD9122B16D0502B1AD11F4CC288E38923
:10DB60009A4215D1038A022B12D1837CDB070DD494
:10DB70001A48FEF793F800280AD0A369002B07D0B3
:10DB8000984705E0164B083006C806C3FFF75CFF50
:10DB900010BD102BFCD18288124B18301A80104B0C
:10DBA00006C806C30022104B1A700B4BDB89002BF2
:10DBB000EED1EBE701220B4B52421A8000220A4BB6
:10DBC00006481A70FEF76AF80028E1D0024B9B69FC
:10DBD000002BDDD09847DBE7B8250020D4250020B6
:10DBE000AC250020F4250020B4250020A0DF7047DC
:10DBF000A2DF7047A6DF704763DF704708B50B8868
:10DC0000112B15D0502B05D0102B00D008BD8B88C0
:10DC10008382FBE74288CB889A42F7D10B8A063190
:10DC2000012BF3D18369002BF0D0097B9847EDE7F6
:10DC300001235B428382E9E7F0B5564644465F46DE
:10DC40004D460123F0B45B4283820B68041C836160
:10DC5000102395B07649102204A89A4600F0B0FA35
:10DC6000211C04A81231FFF7C7FF061E07D0301C85
:10DC700015B03CBC90469946A246AB46F0BDA37C8D
:10DC800002A98B706B4B0120221C0B80FFF7AEFFAB
:10DC9000061EECD1002103226846FDF7B9FA0F22D7
:10DCA0006B4691461B780DAD93430E3A9046134355
:10DCB0004A461340102293465A4613436A4613704D
:10DCC00053784A469343424613434A4613405A46C2
:10DCD00013436A465370937806229343043A1343DE
:10DCE0006A4600219370281C1C22FDF791FA02223B
:10DCF0002B78002113435A4613432B706B466A4618
:10DD00006B61A37C01A893734B4B6E6093810322DC
:10DD1000EE602E61AE61FDF77BFA6B464A461B79D9
:10DD200008AF9343424613434A4613405A461343AF
:10DD30006A46137100235371937906229343043A80
:10DD40001343DBB206329343524693434246934316
:10DD50006A4600219371381C1422FDF759FA03AB6F
:10DD6000089301AB7B6043463B81BB81231C208829
:10DD7000291C3A1C0A337E813E61FFF739FF061EDB
:10DD800000D074E700211C22281CFDF741FA022272
:10DD90002B7800211343082213436A462B70A37C7F
:10DDA00001A89373254B6E6093810322EE602E6170
:10DDB0006E61AE61FDF72CFA6B464A461B79002175
:10DDC0009343424613434A4613405A4613436A4616
:10DDD000137153794A469343424613434A461340CC
:10DDE0005A4613436A465371937906229343043A81
:10DDF0001343DBB206329343524693434246934366
:10DE00006A46381C93711422FDF702FA03AB08939B
:10DE100001AB7B60434620883B81BB81291CA31C4E
:10DE20003A1C7E813E61FFF7E3FE061C1FE7C046F9
:10DE300068E20100231500002415000025150000EC
:10DE4000F0B589B06B460E26DF1DD971012304ACF5
:10DE5000051C6E441022201C00213380FDF7D8F9E8
:10DE60000123A3706B89A88A211C2380E760A66028
:10DE7000FFF7C0FE09B0F0BD304B1B78012B00D07E
:10DE800070472F4B1B681B07FAD1F0222D4B1B68E4
:10DE9000134027D12C4B1B68134229D0284B1B68F9
:10DEA0001B07EDD1F022274B1B681340402B32D0CB
:10DEB000244B1A68F0231340A02B01D0D02BDFD1C4
:10DEC000214B1A68F0231A42DAD1204A1368012B39
:10DED00004D01F4B13601368012BFCD1C0221D4BD3
:10DEE0001A60CDE7102B0FD1174B1B681342D9D105
:10DEF000194A1A4B1A608022194B12021A600F4BF2
:10DF00001B78012BCAD0BBE7302BCBD10E4B1B6843
:10DF10001342C7D1ECE70C4B1B681342C8D1C12395
:10DF200080220121DB00D205D150044B1B78012B4C
:10DF3000A6D1034B1B681B07BAD0A1E7E00F00F086
:10DF4000E40F00F0E80F00F0EC0F00F000EC0640EA
:10DF50007593000014EC0640DFFF07C00405004085
:10DF6000186C004052DF704710DF704760DF704769
:10DF700061DF704708B5FDF773FA08BDF0B5574685
:10DF80004E464546E0B42F4B2F4E1D6899466B42D6
:10DF90005D412E4BB2461C68984663425C412C4F53
:10DFA00082B0EDB2E4B2002D08D0002C23D002B034
:10DFB0001CBC90469946A246F0BD012401A8FFF77B
:10DFC000D1FF05282DD0002826D0FDF739FA002CE6
:10DFD000F3D16A461C4B01A91B8893801C4B1C681B
:10DFE000201CFFF7C5FF0528E7D000280ED0FDF75D
:10DFF00027FA0024D7E73C68338801A9201C0B804E
:10E00000FFF7B6FF0528D2D00028F0D14346201CE8
:10E010001B6898470024C6E74B4601981B68984741
:10E02000D5E7002CC3D153466A461B8801A99380CB
:10E03000074B01251C68201CFFF79AFF0528D4D147
:10E04000B5E7C04608260020022600200C26002046
:10E050000426002038B5041C0720002901D08D07B4
:10E0600000D038BD124801601249201C0A80124AB3
:10E0700012491360FFF778FF0028F2D10122104BFC
:10E080001A70C5220F4B92009A58520207D50E4AB9
:10E090005068002805D18022D2031A60E1E70B48BE
:10E0A000DFE780211368C9030B4313600020D8E722
:10E0B00004260020022600201026002075DF010023
:10E0C0000026002000E100E01426002002200000CD
:10E0D000002803D0024B1860002070470E20FCE798
:10E0E0000C26002008B5094B1B68002B06D098476A
:10E0F000002800D108BDFDF7A3F9FBE7044B1B780E
:10E10000002BF7D0FFF73AFFF4E7C04610260020B7
:10E110000026002070B5141C051C0E1C101C0021CC
:10E120001422FDF775F8002301222361237B22804E
:10E130009343237326726572002D01D00123A372CD
:10E14000002070BD0020034B82B00193019B02B000
:10E150007047C0460020002000B5054B83B00193F6
:10E16000019B69460093FFF701FF03B000BDC04665
:10E170000020002003210A4802680A43026009487F
:10E1800002680A4302600849084A094B9B1A03DDEA
:10E19000043BC858D050FBDCFFF76EFEFCF7C0FF15
:10E1A0002405004054050040E4E201000020002066
:10E1B00078200020FEE7FEE7FEE7FEE7FEE7FEE749
:10E1C000002310B5934203D0CC5CC4540133F9E76B
:10E1D00010BD0023C25C0133002AFBD1581E7047DA
:10E1E000F8B5C046F8BC08BC9E467047F8B5C046B6
:10E1F000F8BC08BC9E467047430000000020002089
:10E20000A0200020090000000B0000000A00000010
:10E2100008000000000000000000000000E0D7013E
:10E2200003000000090000000B0000000A000000CD
:10E2300008000000000000000000000000E0D7011E
:10E24000030000000B09080A0000000000E0D701ED
:10E25000010000074E6F726469635F426C696E6B08
:10E2600079000000D425002023D1BCEA5F78231573
:10E27000DEEF1212000000000000000000000000AD
:10E28000000000000000000000000000000000008E
:10E29000000000000000000000000000000000007E
:10E2A000000000000000000000000000000000006E
:10E2B000000000000000000000000000000000005E
:10E2C000000000000000000000000000000000004E
:0CE2D00000000000000000000000000042
:08E2DC0044CEFF7F01000000A9
:10E2E4000000000078E2010098E20100B8E20100B9
:10E2F400000000000000000000000000000000001A
:10E30400F8E101000000000000000000000000002F
:10E3140000000000000000000000000000000000F9
:10E3240000000000000000000000000000000000E9
:10E3340000000000000000000000000000000000D9
:10E34400FFFF00001100030041CA0100E9B0010011
:08E35400C1B00100000000004F
:040000031000E17593
:00000001FF
